{
  "_format": "hh-sol-artifact-1",
  "contractName": "PerpV2ClearingHouse",
  "sourceName": "contracts/ClearingHouse.sol",
  "abi": [
    {
      "anonymous": false,
      "inputs": [
        {
          "indexed": true,
          "internalType": "address",
          "name": "baseToken",
          "type": "address"
        },
        {
          "indexed": false,
          "internalType": "uint256",
          "name": "markTwap",
          "type": "uint256"
        },
        {
          "indexed": false,
          "internalType": "uint256",
          "name": "indexTwap",
          "type": "uint256"
        }
      ],
      "name": "FundingUpdated",
      "type": "event"
    },
    {
      "anonymous": false,
      "inputs": [
        {
          "indexed": true,
          "internalType": "address",
          "name": "maker",
          "type": "address"
        },
        {
          "indexed": true,
          "internalType": "address",
          "name": "baseToken",
          "type": "address"
        },
        {
          "indexed": true,
          "internalType": "address",
          "name": "quoteToken",
          "type": "address"
        },
        {
          "indexed": false,
          "internalType": "int24",
          "name": "lowerTick",
          "type": "int24"
        },
        {
          "indexed": false,
          "internalType": "int24",
          "name": "upperTick",
          "type": "int24"
        },
        {
          "indexed": false,
          "internalType": "int256",
          "name": "base",
          "type": "int256"
        },
        {
          "indexed": false,
          "internalType": "int256",
          "name": "quote",
          "type": "int256"
        },
        {
          "indexed": false,
          "internalType": "int128",
          "name": "liquidity",
          "type": "int128"
        },
        {
          "indexed": false,
          "internalType": "uint256",
          "name": "quoteFee",
          "type": "uint256"
        }
      ],
      "name": "LiquidityChanged",
      "type": "event"
    },
    {
      "anonymous": false,
      "inputs": [
        {
          "indexed": true,
          "internalType": "address",
          "name": "previousOwner",
          "type": "address"
        },
        {
          "indexed": true,
          "internalType": "address",
          "name": "newOwner",
          "type": "address"
        }
      ],
      "name": "OwnershipTransferred",
      "type": "event"
    },
    {
      "anonymous": false,
      "inputs": [
        {
          "indexed": false,
          "internalType": "address",
          "name": "account",
          "type": "address"
        }
      ],
      "name": "Paused",
      "type": "event"
    },
    {
      "anonymous": false,
      "inputs": [
        {
          "indexed": true,
          "internalType": "address",
          "name": "trader",
          "type": "address"
        },
        {
          "indexed": true,
          "internalType": "address",
          "name": "baseToken",
          "type": "address"
        },
        {
          "indexed": false,
          "internalType": "uint256",
          "name": "positionNotional",
          "type": "uint256"
        },
        {
          "indexed": false,
          "internalType": "uint256",
          "name": "positionSize",
          "type": "uint256"
        },
        {
          "indexed": false,
          "internalType": "uint256",
          "name": "liquidationFee",
          "type": "uint256"
        },
        {
          "indexed": false,
          "internalType": "address",
          "name": "liquidator",
          "type": "address"
        }
      ],
      "name": "PositionLiquidated",
      "type": "event"
    },
    {
      "anonymous": false,
      "inputs": [
        {
          "indexed": true,
          "internalType": "bytes32",
          "name": "referralCode",
          "type": "bytes32"
        }
      ],
      "name": "ReferredPositionChanged",
      "type": "event"
    },
    {
      "anonymous": false,
      "inputs": [
        {
          "indexed": true,
          "internalType": "address",
          "name": "forwarder",
          "type": "address"
        }
      ],
      "name": "TrustedForwarderChanged",
      "type": "event"
    },
    {
      "anonymous": false,
      "inputs": [
        {
          "indexed": false,
          "internalType": "address",
          "name": "trustedForwarder",
          "type": "address"
        }
      ],
      "name": "TrustedForwarderUpdated",
      "type": "event"
    },
    {
      "anonymous": false,
      "inputs": [
        {
          "indexed": false,
          "internalType": "address",
          "name": "account",
          "type": "address"
        }
      ],
      "name": "Unpaused",
      "type": "event"
    },
    {
      "inputs": [
        {
          "components": [
            {
              "internalType": "address",
              "name": "baseToken",
              "type": "address"
            },
            {
              "internalType": "uint256",
              "name": "base",
              "type": "uint256"
            },
            {
              "internalType": "uint256",
              "name": "quote",
              "type": "uint256"
            },
            {
              "internalType": "int24",
              "name": "lowerTick",
              "type": "int24"
            },
            {
              "internalType": "int24",
              "name": "upperTick",
              "type": "int24"
            },
            {
              "internalType": "uint256",
              "name": "minBase",
              "type": "uint256"
            },
            {
              "internalType": "uint256",
              "name": "minQuote",
              "type": "uint256"
            },
            {
              "internalType": "bool",
              "name": "useTakerPosition",
              "type": "bool"
            },
            {
              "internalType": "uint256",
              "name": "deadline",
              "type": "uint256"
            }
          ],
          "internalType": "struct IClearingHouse.AddLiquidityParams",
          "name": "params",
          "type": "tuple"
        }
      ],
      "name": "addLiquidity",
      "outputs": [
        {
          "components": [
            {
              "internalType": "uint256",
              "name": "base",
              "type": "uint256"
            },
            {
              "internalType": "uint256",
              "name": "quote",
              "type": "uint256"
            },
            {
              "internalType": "uint256",
              "name": "fee",
              "type": "uint256"
            },
            {
              "internalType": "uint256",
              "name": "liquidity",
              "type": "uint256"
            }
          ],
          "internalType": "struct IClearingHouse.AddLiquidityResponse",
          "name": "",
          "type": "tuple"
        }
      ],
      "stateMutability": "nonpayable",
      "type": "function"
    },
    {
      "inputs": [
        {
          "internalType": "address",
          "name": "maker",
          "type": "address"
        },
        {
          "internalType": "address",
          "name": "baseToken",
          "type": "address"
        }
      ],
      "name": "cancelAllExcessOrders",
      "outputs": [],
      "stateMutability": "nonpayable",
      "type": "function"
    },
    {
      "inputs": [
        {
          "internalType": "address",
          "name": "maker",
          "type": "address"
        },
        {
          "internalType": "address",
          "name": "baseToken",
          "type": "address"
        },
        {
          "internalType": "bytes32[]",
          "name": "orderIds",
          "type": "bytes32[]"
        }
      ],
      "name": "cancelExcessOrders",
      "outputs": [],
      "stateMutability": "nonpayable",
      "type": "function"
    },
    {
      "inputs": [],
      "name": "candidate",
      "outputs": [
        {
          "internalType": "address",
          "name": "",
          "type": "address"
        }
      ],
      "stateMutability": "view",
      "type": "function"
    },
    {
      "inputs": [
        {
          "components": [
            {
              "internalType": "address",
              "name": "baseToken",
              "type": "address"
            },
            {
              "internalType": "uint160",
              "name": "sqrtPriceLimitX96",
              "type": "uint160"
            },
            {
              "internalType": "uint256",
              "name": "oppositeAmountBound",
              "type": "uint256"
            },
            {
              "internalType": "uint256",
              "name": "deadline",
              "type": "uint256"
            },
            {
              "internalType": "bytes32",
              "name": "referralCode",
              "type": "bytes32"
            }
          ],
          "internalType": "struct IClearingHouse.ClosePositionParams",
          "name": "params",
          "type": "tuple"
        }
      ],
      "name": "closePosition",
      "outputs": [
        {
          "internalType": "uint256",
          "name": "deltaBase",
          "type": "uint256"
        },
        {
          "internalType": "uint256",
          "name": "deltaQuote",
          "type": "uint256"
        }
      ],
      "stateMutability": "nonpayable",
      "type": "function"
    },
    {
      "inputs": [],
      "name": "getAccountBalance",
      "outputs": [
        {
          "internalType": "address",
          "name": "",
          "type": "address"
        }
      ],
      "stateMutability": "view",
      "type": "function"
    },
    {
      "inputs": [
        {
          "internalType": "address",
          "name": "trader",
          "type": "address"
        }
      ],
      "name": "getAccountValue",
      "outputs": [
        {
          "internalType": "int256",
          "name": "",
          "type": "int256"
        }
      ],
      "stateMutability": "view",
      "type": "function"
    },
    {
      "inputs": [],
      "name": "getClearingHouseConfig",
      "outputs": [
        {
          "internalType": "address",
          "name": "",
          "type": "address"
        }
      ],
      "stateMutability": "view",
      "type": "function"
    },
    {
      "inputs": [],
      "name": "getExchange",
      "outputs": [
        {
          "internalType": "address",
          "name": "",
          "type": "address"
        }
      ],
      "stateMutability": "view",
      "type": "function"
    },
    {
      "inputs": [],
      "name": "getOrderBook",
      "outputs": [
        {
          "internalType": "address",
          "name": "",
          "type": "address"
        }
      ],
      "stateMutability": "view",
      "type": "function"
    },
    {
      "inputs": [],
      "name": "getQuoteToken",
      "outputs": [
        {
          "internalType": "address",
          "name": "",
          "type": "address"
        }
      ],
      "stateMutability": "view",
      "type": "function"
    },
    {
      "inputs": [],
      "name": "getTrustedForwarder",
      "outputs": [
        {
          "internalType": "address",
          "name": "",
          "type": "address"
        }
      ],
      "stateMutability": "view",
      "type": "function"
    },
    {
      "inputs": [],
      "name": "getUniswapV3Factory",
      "outputs": [
        {
          "internalType": "address",
          "name": "",
          "type": "address"
        }
      ],
      "stateMutability": "view",
      "type": "function"
    },
    {
      "inputs": [],
      "name": "getVault",
      "outputs": [
        {
          "internalType": "address",
          "name": "",
          "type": "address"
        }
      ],
      "stateMutability": "view",
      "type": "function"
    },
    {
      "inputs": [
        {
          "internalType": "address",
          "name": "clearingHouseConfigArg",
          "type": "address"
        },
        {
          "internalType": "address",
          "name": "vaultArg",
          "type": "address"
        },
        {
          "internalType": "address",
          "name": "quoteTokenArg",
          "type": "address"
        },
        {
          "internalType": "address",
          "name": "uniV3FactoryArg",
          "type": "address"
        },
        {
          "internalType": "address",
          "name": "exchangeArg",
          "type": "address"
        },
        {
          "internalType": "address",
          "name": "accountBalanceArg",
          "type": "address"
        }
      ],
      "name": "initialize",
      "outputs": [],
      "stateMutability": "nonpayable",
      "type": "function"
    },
    {
      "inputs": [
        {
          "internalType": "address",
          "name": "forwarder",
          "type": "address"
        }
      ],
      "name": "isTrustedForwarder",
      "outputs": [
        {
          "internalType": "bool",
          "name": "",
          "type": "bool"
        }
      ],
      "stateMutability": "view",
      "type": "function"
    },
    {
      "inputs": [
        {
          "internalType": "address",
          "name": "trader",
          "type": "address"
        },
        {
          "internalType": "address",
          "name": "baseToken",
          "type": "address"
        }
      ],
      "name": "liquidate",
      "outputs": [],
      "stateMutability": "nonpayable",
      "type": "function"
    },
    {
      "inputs": [
        {
          "components": [
            {
              "internalType": "address",
              "name": "baseToken",
              "type": "address"
            },
            {
              "internalType": "bool",
              "name": "isBaseToQuote",
              "type": "bool"
            },
            {
              "internalType": "bool",
              "name": "isExactInput",
              "type": "bool"
            },
            {
              "internalType": "uint256",
              "name": "amount",
              "type": "uint256"
            },
            {
              "internalType": "uint256",
              "name": "oppositeAmountBound",
              "type": "uint256"
            },
            {
              "internalType": "uint256",
              "name": "deadline",
              "type": "uint256"
            },
            {
              "internalType": "uint160",
              "name": "sqrtPriceLimitX96",
              "type": "uint160"
            },
            {
              "internalType": "bytes32",
              "name": "referralCode",
              "type": "bytes32"
            }
          ],
          "internalType": "struct IClearingHouse.OpenPositionParams",
          "name": "params",
          "type": "tuple"
        }
      ],
      "name": "openPosition",
      "outputs": [
        {
          "internalType": "uint256",
          "name": "deltaBase",
          "type": "uint256"
        },
        {
          "internalType": "uint256",
          "name": "deltaQuote",
          "type": "uint256"
        }
      ],
      "stateMutability": "nonpayable",
      "type": "function"
    },
    {
      "inputs": [],
      "name": "owner",
      "outputs": [
        {
          "internalType": "address",
          "name": "",
          "type": "address"
        }
      ],
      "stateMutability": "view",
      "type": "function"
    },
    {
      "inputs": [],
      "name": "pause",
      "outputs": [],
      "stateMutability": "nonpayable",
      "type": "function"
    },
    {
      "inputs": [],
      "name": "paused",
      "outputs": [
        {
          "internalType": "bool",
          "name": "",
          "type": "bool"
        }
      ],
      "stateMutability": "view",
      "type": "function"
    },
    {
      "inputs": [
        {
          "components": [
            {
              "internalType": "address",
              "name": "baseToken",
              "type": "address"
            },
            {
              "internalType": "int24",
              "name": "lowerTick",
              "type": "int24"
            },
            {
              "internalType": "int24",
              "name": "upperTick",
              "type": "int24"
            },
            {
              "internalType": "uint128",
              "name": "liquidity",
              "type": "uint128"
            },
            {
              "internalType": "uint256",
              "name": "minBase",
              "type": "uint256"
            },
            {
              "internalType": "uint256",
              "name": "minQuote",
              "type": "uint256"
            },
            {
              "internalType": "uint256",
              "name": "deadline",
              "type": "uint256"
            }
          ],
          "internalType": "struct IClearingHouse.RemoveLiquidityParams",
          "name": "params",
          "type": "tuple"
        }
      ],
      "name": "removeLiquidity",
      "outputs": [
        {
          "components": [
            {
              "internalType": "uint256",
              "name": "base",
              "type": "uint256"
            },
            {
              "internalType": "uint256",
              "name": "quote",
              "type": "uint256"
            },
            {
              "internalType": "uint256",
              "name": "fee",
              "type": "uint256"
            }
          ],
          "internalType": "struct IClearingHouse.RemoveLiquidityResponse",
          "name": "",
          "type": "tuple"
        }
      ],
      "stateMutability": "nonpayable",
      "type": "function"
    },
    {
      "inputs": [],
      "name": "renounceOwnership",
      "outputs": [],
      "stateMutability": "nonpayable",
      "type": "function"
    },
    {
      "inputs": [
        {
          "internalType": "address",
          "name": "newOwner",
          "type": "address"
        }
      ],
      "name": "setOwner",
      "outputs": [],
      "stateMutability": "nonpayable",
      "type": "function"
    },
    {
      "inputs": [
        {
          "internalType": "address",
          "name": "trustedForwarderArg",
          "type": "address"
        }
      ],
      "name": "setTrustedForwarder",
      "outputs": [],
      "stateMutability": "nonpayable",
      "type": "function"
    },
    {
      "inputs": [
        {
          "internalType": "uint256",
          "name": "amount0Owed",
          "type": "uint256"
        },
        {
          "internalType": "uint256",
          "name": "amount1Owed",
          "type": "uint256"
        },
        {
          "internalType": "bytes",
          "name": "data",
          "type": "bytes"
        }
      ],
      "name": "uniswapV3MintCallback",
      "outputs": [],
      "stateMutability": "nonpayable",
      "type": "function"
    },
    {
      "inputs": [
        {
          "internalType": "int256",
          "name": "amount0Delta",
          "type": "int256"
        },
        {
          "internalType": "int256",
          "name": "amount1Delta",
          "type": "int256"
        },
        {
          "internalType": "bytes",
          "name": "data",
          "type": "bytes"
        }
      ],
      "name": "uniswapV3SwapCallback",
      "outputs": [],
      "stateMutability": "nonpayable",
      "type": "function"
    },
    {
      "inputs": [],
      "name": "unpause",
      "outputs": [],
      "stateMutability": "nonpayable",
      "type": "function"
    },
    {
      "inputs": [],
      "name": "updateOwner",
      "outputs": [],
      "stateMutability": "nonpayable",
      "type": "function"
    },
    {
      "inputs": [],
      "name": "versionRecipient",
      "outputs": [
        {
          "internalType": "string",
          "name": "",
          "type": "string"
        }
      ],
      "stateMutability": "pure",
      "type": "function"
    }
  ],
  "bytecode": "0x608060405234801561001057600080fd5b50614fd9806100206000396000f3fe608060405234801561001057600080fd5b50600436106101d95760003560e01c80638da5cb5b11610104578063cc2a9a5b116100a2578063d348799711610071578063d34879971461038e578063da742228146103a1578063f807cd22146103b4578063fa461e33146103bc576101d9565b8063cc2a9a5b14610340578063cc3606dc14610353578063cde109b614610366578063ce1b815f14610386576101d9565b8063b248c4ef116100de578063b248c4ef146102fd578063b6b1b6c314610305578063bc5920ba14610318578063c35eb28c14610320576101d9565b80638da5cb5b146102e5578063aa2a8294146102ed578063b081983b146102f5576101d9565b80635c975abb1161017c57806380a983321161014b57806380a98332146102af5780638456cb59146102c257806386b9d81f146102ca5780638d928af8146102dd576101d9565b80635c975abb1461028f5780636896fabf146102975780636c8381f81461029f578063715018a6146102a7576101d9565b8063486ff0cd116101b8578063486ff0cd146102255780634a64d67d1461023a578063572b6c051461024f5780635ae809511461026f576101d9565b8062aa9a89146101de57806313af4035146102085780633f4ba83a1461021d575b600080fd5b6101f16101ec36600461437d565b6103cf565b6040516101ff929190614dcb565b60405180910390f35b61021b610216366004613ff3565b6106e9565b005b61021b610844565b61022d6108ab565b6040516101ff9190614867565b6102426108cb565b6040516101ff91906146d4565b61026261025d366004613ff3565b6108db565b6040516101ff919061480a565b61028261027d366004613ff3565b6108f2565b6040516101ff919061485e565b610262610ac7565b610242610ad0565b610242610ae0565b61021b610aef565b61021b6102bd3660046140e4565b610ba2565b61021b610c85565b61021b6102d836600461402b565b610cea565b610242611186565b610242611196565b6102426111a5565b6102426111b5565b6102426111c5565b6101f1610313366004614497565b6111d5565b61021b6114ab565b61033361032e3660046142f4565b6115a9565b6040516101ff9190614cae565b61021b61034e366004614063565b611d1e565b61021b61036136600461402b565b612123565b61037961037436600461453c565b612259565b6040516101ff9190614d2e565b610242612697565b61021b61039c3660046142a3565b6126a6565b61021b6103af366004613ff3565b61292a565b6102426129f5565b61021b6103ca3660046142a3565b612a05565b6000806103da610ac7565b1561041f576040805162461bcd60e51b815260206004820152601060248201526f14185d5cd8589b194e881c185d5cd95960821b604482015290519081900360640190fd5b60026001541415610465576040805162461bcd60e51b815260206004820152601f6024820152600080516020614e7a833981519152604482015290519081900360640190fd5b6002600155606083013580610478612c13565b111561049f5760405162461bcd60e51b815260040161049690614ada565b60405180910390fd5b60006104a9612c17565b610134549091506000906001600160a01b0316631e81ac33836104cf60208a018a613ff3565b6040518363ffffffff1660e01b81526004016104ec9291906146e8565b6040805180830381600087803b15801561050557600080fd5b505af1158015610519573d6000803e3d6000fd5b505050506040513d601f19601f8201168201806040525081019061053d919061438e565b905060006105a86040518060800160405280856001600160a01b031681526020018960000160208101906105719190613ff3565b6001600160a01b031681526020018960200160208101906105929190613ff3565b6001600160a01b03168152602001849052612c26565b90506000808260400151126105be5760006105c1565b60015b905060008260a001516105d8578860400135610662565b6101325460408051633a14199b60e11b81529051610662926001600160a01b0316916374283336916004808301926020929190829003018186803b15801561061f57600080fd5b505afa158015610633573d6000803e3d6000fd5b505050506040513d601f19601f820116820180604052508101906106579190614675565b60408b013590612d56565b905061069f6040518060a0016040528084151581526020018415158152602001856020015181526020018560000151815260200183815250612d74565b60405160808a0135907f09a07769667a46c2b89124a4d731c76fb5203061073aec16319ba9c6a79a324890600090a250508051602090910151600180559097909650945050505050565b6106f1612c17565b6001600160a01b0316610702611196565b6001600160a01b031614610746576040805162461bcd60e51b8152602060048201526006602482015265534f5f434e4f60d01b604482015290519081900360640190fd5b6001600160a01b03811661078a576040805162461bcd60e51b81526020600482015260066024820152650534f5f4e57360d41b604482015290519081900360640190fd5b6065546001600160a01b03828116911614156107d6576040805162461bcd60e51b8152602060048201526006602482015265534f5f53414f60d01b604482015290519081900360640190fd5b6066546001600160a01b0382811691161415610822576040805162461bcd60e51b8152602060048201526006602482015265534f5f53414360d01b604482015290519081900360640190fd5b606680546001600160a01b0319166001600160a01b0392909216919091179055565b61084c612c17565b6001600160a01b031661085d611196565b6001600160a01b0316146108a1576040805162461bcd60e51b8152602060048201526006602482015265534f5f434e4f60d01b604482015290519081900360640190fd5b6108a9612e4a565b565b6040805180820190915260058152640322e302e360dc1b60208201525b90565b610130546001600160a01b031690565b60fd546001600160a01b038281169116145b919050565b610134546040516380f57f1160e01b815260009182916001600160a01b03909116906380f57f11906109289086906004016146d4565b60206040518083038186803b15801561094057600080fd5b505afa158015610954573d6000803e3d6000fd5b505050506040513d601f19601f820116820180604052508101906109789190614268565b6101365460405163c5bba90f60e01b815291925060009182916001600160a01b03169063c5bba90f906109af9088906004016146d4565b604080518083038186803b1580156109c657600080fd5b505afa1580156109da573d6000803e3d6000fd5b505050506040513d601f19601f820116820180604052508101906109fe9190614280565b6101335460405163f8b2cb4f60e01b8152929450909250600091610a9d916001600160a01b03169063f8b2cb4f90610a3a908a906004016146d4565b60206040518083038186803b158015610a5257600080fd5b505afa158015610a66573d6000803e3d6000fd5b505050506040513d601f19601f82011682018060405250810190610a8a9190614268565b61013154600160a01b900460ff16612eea565b9050610abd82610ab7610ab08688612f00565b8490612f65565b90612f65565b9695505050505050565b60995460ff1690565b610136546001600160a01b031690565b6066546001600160a01b031690565b610af7612c17565b6001600160a01b0316610b08611196565b6001600160a01b031614610b4c576040805162461bcd60e51b8152602060048201526006602482015265534f5f434e4f60d01b604482015290519081900360640190fd5b6065546040516000916001600160a01b0316907f8be0079c531659141344cd1fd0a4f28419497f9722a3daafe3b4186f6b6457e0908390a3606580546001600160a01b0319908116909155606680549091169055565b610baa610ac7565b15610bef576040805162461bcd60e51b815260206004820152601060248201526f14185d5cd8589b194e881c185d5cd95960821b604482015290519081900360640190fd5b60026001541415610c35576040805162461bcd60e51b815260206004820152601f6024820152600080516020614e7a833981519152604482015290519081900360640190fd5b6002600181905550610c7b8484848480806020026020016040519081016040528093929190818152602001838360200280828437600092019190915250612fca92505050565b5050600180555050565b610c8d612c17565b6001600160a01b0316610c9e611196565b6001600160a01b031614610ce2576040805162461bcd60e51b8152602060048201526006602482015265534f5f434e4f60d01b604482015290519081900360640190fd5b6108a96132b2565b610cf2610ac7565b15610d37576040805162461bcd60e51b815260206004820152601060248201526f14185d5cd8589b194e881c185d5cd95960821b604482015290519081900360640190fd5b60026001541415610d7d576040805162461bcd60e51b815260206004820152601f6024820152600080516020614e7a833981519152604482015290519081900360640190fd5b60026001556101365460405163659e3dc760e11b81526001600160a01b039091169063cb3c7b8e90610db39085906004016146d4565b60206040518083038186803b158015610dcb57600080fd5b505afa158015610ddf573d6000803e3d6000fd5b505050506040513d601f19601f82011682018060405250810190610e039190614230565b15610e205760405162461bcd60e51b815260040161049690614c24565b6101365460405163f75c266d60e01b81526001600160a01b039091169063f75c266d90610e519085906004016146d4565b60206040518083038186803b158015610e6957600080fd5b505afa158015610e7d573d6000803e3d6000fd5b505050506040513d601f19601f82011682018060405250810190610ea19190614268565b610eaa836108f2565b12610ec75760405162461bcd60e51b8152600401610496906148dc565b61013454604051631e81ac3360e01b81526000916001600160a01b031690631e81ac3390610efb90869086906004016146e8565b6040805180830381600087803b158015610f1457600080fd5b505af1158015610f28573d6000803e3d6000fd5b505050506040513d601f19601f82011682018060405250810190610f4c919061438e565b90506000610f956040518060800160405280866001600160a01b03168152602001856001600160a01b0316815260200160006001600160a01b0316815260200184815250612c26565b9050600061103661013260009054906101000a90046001600160a01b03166001600160a01b031663fedf924b6040518163ffffffff1660e01b815260040160206040518083038186803b158015610feb57600080fd5b505afa158015610fff573d6000803e3d6000fd5b505050506040513d601f19601f820116820180604052508101906110239190614675565b6110308460600151613335565b90612d56565b610136549091506001600160a01b03166337724702866110558461335d565b6040518363ffffffff1660e01b81526004016110729291906147d3565b600060405180830381600087803b15801561108c57600080fd5b505af11580156110a0573d6000803e3d6000fd5b5050505060006110ae612c17565b610136549091506001600160a01b03166337724702826110cd85613371565b6040518363ffffffff1660e01b81526004016110ea9291906147d3565b600060405180830381600087803b15801561110457600080fd5b505af1158015611118573d6000803e3d6000fd5b50505050846001600160a01b0316866001600160a01b03167fd9aced30440caca81570436bc942f816cfd95a3f08f700a2aeb6334c7cb5b49761115e8660600151613335565b865160405161117292919088908890614dd9565b60405180910390a350506001805550505050565b610133546001600160a01b031690565b6065546001600160a01b031690565b610132546001600160a01b031690565b610131546001600160a01b031690565b610135546001600160a01b031690565b6000806111e0610ac7565b15611225576040805162461bcd60e51b815260206004820152601060248201526f14185d5cd8589b194e881c185d5cd95960821b604482015290519081900360640190fd5b6002600154141561126b576040805162461bcd60e51b815260206004820152601f6024820152600080516020614e7a833981519152604482015290519081900360640190fd5b600260015560a08301518061127e612c13565b111561129c5760405162461bcd60e51b815260040161049690614ada565b60006112a6612c17565b610136548651604051633f1cdc8560e21b81529293506001600160a01b039091169163fc737214916112dd918591906004016146e8565b600060405180830381600087803b1580156112f757600080fd5b505af115801561130b573d6000803e3d6000fd5b5050610134548751604051631e81ac3360e01b8152600094506001600160a01b039092169250631e81ac33916113459186916004016146e8565b6040805180830381600087803b15801561135e57600080fd5b505af1158015611372573d6000803e3d6000fd5b505050506040513d601f19601f82011682018060405250810190611396919061438e565b9050600061141b604051806101200160405280856001600160a01b0316815260200189600001516001600160a01b03168152602001896020015115158152602001896040015115158152602001600015158152602001896060015181526020018960c001516001600160a01b03168152602001600015158152602001848152506133bd565b90506114646040518060a0016040528089602001511515815260200189604001511515815260200183602001518152602001836000015181526020018960800151815250612d74565b60e08701516040517f09a07769667a46c2b89124a4d731c76fb5203061073aec16319ba9c6a79a324890600090a28051602090910151600180559097909650945050505050565b6066546001600160a01b03166114f0576040805162461bcd60e51b81526020600482015260056024820152640534f5f43360dc1b604482015290519081900360640190fd5b6114f8612c17565b6066546001600160a01b03908116911614611543576040805162461bcd60e51b8152602060048201526006602482015265534f5f434e4360d01b604482015290519081900360640190fd5b6066546065546040516001600160a01b0392831692909116907f8be0079c531659141344cd1fd0a4f28419497f9722a3daafe3b4186f6b6457e090600090a360668054606580546001600160a01b03199081166001600160a01b03841617909155169055565b6115b1613f12565b6115b9610ac7565b156115fe576040805162461bcd60e51b815260206004820152601060248201526f14185d5cd8589b194e881c185d5cd95960821b604482015290519081900360640190fd5b60026001541415611644576040805162461bcd60e51b815260206004820152601f6024820152600080516020614e7a833981519152604482015290519081900360640190fd5b600260015561010082013580611658612c13565b11156116765760405162461bcd60e51b815260040161049690614ada565b6000611680612c17565b610136549091506001600160a01b031663fc737214826116a36020880188613ff3565b6040518363ffffffff1660e01b81526004016116c09291906146e8565b600060405180830381600087803b1580156116da57600080fd5b505af11580156116ee573d6000803e3d6000fd5b505061013454600092506001600160a01b03169050631e81ac33836117166020890189613ff3565b6040518363ffffffff1660e01b81526004016117339291906146e8565b6040805180830381600087803b15801561174c57600080fd5b505af1158015611760573d6000803e3d6000fd5b505050506040513d601f19601f82011682018060405250810190611784919061438e565b610135546040805160e081019091526001600160a01b0385811682529293506000929091169063e8ab2fb3906020808201906117c2908b018b613ff3565b6001600160a01b0316815260200189602001358152602001896040013581526020018960600160208101906117f7919061424c565b60020b815260200161180f60a08b0160808c0161424c565b60020b8152602001858152506040518263ffffffff1660e01b81526004016118379190614c44565b60a060405180830381600087803b15801561185157600080fd5b505af1158015611865573d6000803e3d6000fd5b505050506040513d601f19601f82011682018060405250810190611889919061430c565b90508560a001358160000151101580156118ab57508560c00135816020015110155b6118c75760405162461bcd60e51b815260040161049690614be4565b6118d8610100870160e08801614214565b15611b7e57805160208201519015159015158082141561190a5760405162461bcd60e51b815260040161049690614b9e565b610136546000906001600160a01b0316636332fef68761192d60208d018d613ff3565b6040518363ffffffff1660e01b815260040161194a9291906146e8565b60a06040518083038186803b15801561196257600080fd5b505afa158015611976573d6000803e3d6000fd5b505050506040513d601f19601f8201168201806040525081019061199a91906143d6565b90506000808415611a0c5785516119b090613371565b836040015112156119d35760405162461bcd60e51b815260040161049690614b3b565b85516119de9061335d565b9150611a0583604001516119ff84866060015161353090919063ffffffff16565b906135d9565b9050611a6d565b611a198660200151613371565b83606001511215611a3c5760405162461bcd60e51b815260040161049690614b5c565b611a49866020015161335d565b9050611a6a83606001516119ff83866040015161353090919063ffffffff16565b91505b610135546080870151604051632c30105d60e21b81526001600160a01b039092169163b0c0417491611aa59186908690600401614815565b600060405180830381600087803b158015611abf57600080fd5b505af1158015611ad3573d6000803e3d6000fd5b5050610136546001600160a01b0316915063e7ec1a85905089611af960208f018f613ff3565b8951611b049061335d565b611b118b6020015161335d565b8787611b208e60400151613371565b6040518863ffffffff1660e01b8152600401611b429796959493929190614795565b600060405180830381600087803b158015611b5c57600080fd5b505af1158015611b70573d6000803e3d6000fd5b505050505050505050611c16565b610136546001600160a01b031663beb56a7584611b9e60208a018a613ff3565b8451611ba99061335d565b611bb6866020015161335d565b611bc38760400151613371565b6040518663ffffffff1660e01b8152600401611be3959493929190614764565b600060405180830381600087803b158015611bfd57600080fd5b505af1158015611c11573d6000803e3d6000fd5b505050505b611c1f83613691565b610130546001600160a01b0316611c396020880188613ff3565b6001600160a01b039081169085167fcb47d8bf351d355bdd5497973533eada41777b4509f2585a62ae246336ebaa94611c7860808b0160608c0161424c565b611c8860a08c0160808d0161424c565b8651611c9390613371565b611ca08860200151613371565b611cb689606001516001600160801b0316613704565b8960400151604051611ccd9695949392919061482b565b60405180910390a4604051806080016040528082600001518152602001826020015181526020018260400151815260200182606001516001600160801b031681525094505050505060018055919050565b600054610100900460ff1680611d375750611d37613747565b80611d45575060005460ff16155b611d805760405162461bcd60e51b815260040180806020018281038252602e815260200180614ee2602e913960400191505060405180910390fd5b600054610100900460ff16158015611dab576000805460ff1961ff0019909116610100171660011790555b611dbd866001600160a01b0316613758565b611dd95760405162461bcd60e51b815260040161049690614af9565b611deb856001600160a01b0316613758565b611e075760405162461bcd60e51b8152600401610496906149c1565b846001600160a01b031663313ce5676040518163ffffffff1660e01b815260040160206040518083038186803b158015611e4057600080fd5b505afa158015611e54573d6000803e3d6000fd5b505050506040513d601f19601f82011682018060405250810190611e789190614691565b60ff16601214611e9a5760405162461bcd60e51b8152600401610496906148ba565b611eac846001600160a01b0316613758565b611ec85760405162461bcd60e51b81526004016104969061495d565b611eda876001600160a01b0316613758565b611ef65760405162461bcd60e51b815260040161049690614a02565b611f08826001600160a01b0316613758565b611f245760405162461bcd60e51b81526004016104969061493c565b611f36836001600160a01b0316613758565b611f525760405162461bcd60e51b815260040161049690614a23565b6000836001600160a01b031663b248c4ef6040518163ffffffff1660e01b815260040160206040518083038186803b158015611f8d57600080fd5b505afa158015611fa1573d6000803e3d6000fd5b505050506040513d601f19601f82011682018060405250810190611fc5919061400f565b9050611fd9816001600160a01b0316613758565b611ff55760405162461bcd60e51b815260040161049690614a7a565b611ffd61375e565b612005613807565b61013280546001600160a01b03199081166001600160a01b038b811691909117909255610133805482168a84161790819055610130805483168a85161790556101318054831689851617905561013480548316888516179055610135805483168585161790556101368054909216868416179091556040805163313ce56760e01b81529051919092169163313ce567916004808301926020929190829003018186803b1580156120b457600080fd5b505afa1580156120c8573d6000803e3d6000fd5b505050506040513d601f19601f820116820180604052508101906120ec9190614691565b61013160146101000a81548160ff021916908360ff16021790555050801561211a576000805461ff00191690555b50505050505050565b61212b610ac7565b15612170576040805162461bcd60e51b815260206004820152601060248201526f14185d5cd8589b194e881c185d5cd95960821b604482015290519081900360640190fd5b600260015414156121b6576040805162461bcd60e51b815260206004820152601f6024820152600080516020614e7a833981519152604482015290519081900360640190fd5b6002600155610135546040516321b499f560e11b81526000916001600160a01b03169063436933ea906121ef90869086906004016146e8565b60006040518083038186803b15801561220757600080fd5b505afa15801561221b573d6000803e3d6000fd5b505050506040513d6000823e601f3d908101601f191682016040526122439190810190614173565b9050612250838383612fca565b50506001805550565b612261613f3a565b612269610ac7565b156122ae576040805162461bcd60e51b815260206004820152601060248201526f14185d5cd8589b194e881c185d5cd95960821b604482015290519081900360640190fd5b600260015414156122f4576040805162461bcd60e51b815260206004820152601f6024820152600080516020614e7a833981519152604482015290519081900360640190fd5b600260015560c082013580612307612c13565b11156123255760405162461bcd60e51b815260040161049690614ada565b600061232f612c17565b610134549091506001600160a01b0316631e81ac33826123526020880188613ff3565b6040518363ffffffff1660e01b815260040161236f9291906146e8565b6040805180830381600087803b15801561238857600080fd5b505af115801561239c573d6000803e3d6000fd5b505050506040513d601f19601f820116820180604052508101906123c0919061438e565b50610135546040805160a081019091526001600160a01b0383811682526000921690635b778b9d906020808201906123fa908a018a613ff3565b6001600160a01b0316815260200188602001602081019061241b919061424c565b60020b815260200161243360608a0160408b0161424c565b60020b815260200161244b60808a0160608b01614659565b6001600160801b03168152506040518263ffffffff1660e01b81526004016124739190614cd9565b60a060405180830381600087803b15801561248d57600080fd5b505af11580156124a1573d6000803e3d6000fd5b505050506040513d601f19601f820116820180604052508101906124c591906143d6565b610136549091506001600160a01b031663fa51ba85836124e86020890189613ff3565b84516124f390613371565b6125008660200151613371565b866060015187608001516125178960400151613371565b6040518863ffffffff1660e01b81526004016125399796959493929190614795565b600060405180830381600087803b15801561255357600080fd5b505af1158015612567573d6000803e3d6000fd5b50505050846080013581600001511015801561258b57508460a00135816020015110155b6125a75760405162461bcd60e51b815260040161049690614be4565b610130546001600160a01b03166125c16020870187613ff3565b6001600160a01b039081169084167fcb47d8bf351d355bdd5497973533eada41777b4509f2585a62ae246336ebaa9461260060408a0160208b0161424c565b61261060608b0160408c0161424c565b865161261b9061335d565b612628886020015161335d565b61264c8d606001602081019061263e9190614659565b6001600160801b03166138a4565b89604001516040516126639695949392919061482b565b60405180910390a4604080516060810182528251815260208084015190820152918101519082015260018055949350505050565b60fd546001600160a01b031690565b610135546001600160a01b031633146126d15760405162461bcd60e51b815260040161049690614a9b565b60006126df8284018461443f565b9050841561280257600081602001516001600160a01b0316630dfe16816040518163ffffffff1660e01b815260040160206040518083038186803b15801561272657600080fd5b505afa15801561273a573d6000803e3d6000fd5b505050506040513d601f19601f8201168201806040525081019061275e919061400f565b602083015160405163a9059cbb60e01b81529192506001600160a01b0383169163a9059cbb91612792918a906004016147d3565b602060405180830381600087803b1580156127ac57600080fd5b505af11580156127c0573d6000803e3d6000fd5b505050506040513d601f19601f820116820180604052508101906127e49190614230565b6128005760405162461bcd60e51b815260040161049690614abb565b505b831561292357600081602001516001600160a01b031663d21220a76040518163ffffffff1660e01b815260040160206040518083038186803b15801561284757600080fd5b505afa15801561285b573d6000803e3d6000fd5b505050506040513d601f19601f8201168201806040525081019061287f919061400f565b602083015160405163a9059cbb60e01b81529192506001600160a01b0383169163a9059cbb916128b39189906004016147d3565b602060405180830381600087803b1580156128cd57600080fd5b505af11580156128e1573d6000803e3d6000fd5b505050506040513d601f19601f820116820180604052508101906129059190614230565b6129215760405162461bcd60e51b815260040161049690614abb565b505b5050505050565b612932612c17565b6001600160a01b0316612943611196565b6001600160a01b031614612987576040805162461bcd60e51b8152602060048201526006602482015265534f5f434e4f60d01b604482015290519081900360640190fd5b612999816001600160a01b0316613758565b6129b55760405162461bcd60e51b815260040161049690614a23565b6129be816138b8565b6040516001600160a01b038216907f871264f4293af7d2865ae7eae628b228f4991c57cb45b39c99f0b774ebe2901890600090a250565b610134546001600160a01b031690565b610134546001600160a01b03163314612a305760405162461bcd60e51b8152600401610496906148fc565b6000841380612a3f5750600083135b612a5b5760405162461bcd60e51b8152600401610496906149e2565b6000612a698284018461454d565b6040810151909150600080808813612af257826001600160a01b031663d21220a76040518163ffffffff1660e01b815260040160206040518083038186803b158015612ab457600080fd5b505afa158015612ac8573d6000803e3d6000fd5b505050506040513d601f19601f82011682018060405250810190612aec919061400f565b87612b65565b826001600160a01b0316630dfe16816040518163ffffffff1660e01b815260040160206040518083038186803b158015612b2b57600080fd5b505afa158015612b3f573d6000803e3d6000fd5b505050506040513d601f19601f82011682018060405250810190612b63919061400f565b885b91509150816001600160a01b031663a9059cbb8560400151836040518363ffffffff1660e01b8152600401612b9b9291906147d3565b602060405180830381600087803b158015612bb557600080fd5b505af1158015612bc9573d6000803e3d6000fd5b505050506040513d601f19601f82011682018060405250810190612bed9190614230565b612c095760405162461bcd60e51b815260040161049690614abb565b5050505050505050565b4290565b6000612c2161390c565b905090565b612c2e613f5b565b610136548251602084015160405163165c4e2960e31b81526000936001600160a01b03169263b2e2714892612c65926004016146e8565b60206040518083038186803b158015612c7d57600080fd5b505afa158015612c91573d6000803e3d6000fd5b505050506040513d601f19601f82011682018060405250810190612cb59190614268565b905080612cd45760405162461bcd60e51b815260040161049690614c04565b604080516101208101825284516001600160a01b03908116825260208087015190911690820152600083139181018290526060810182905260016080820152612d4e9060a08101612d2485613335565b81526040808801516001600160a01b031660208301526001908201526060808801519101526133bd565b949350505050565b6000612d6b838362ffffff16620f424061393c565b90505b92915050565b6080810151612d8257612e47565b805115612ded57806020015115612dc057806080015181604001511015612dbb5760405162461bcd60e51b815260040161049690614b7d565b612de8565b806080015181606001511115612de85760405162461bcd60e51b81526004016104969061491b565b612e47565b806020015115612e1f57806080015181606001511015612de85760405162461bcd60e51b815260040161049690614b1a565b806080015181604001511115612e475760405162461bcd60e51b81526004016104969061497e565b50565b612e52610ac7565b612e9a576040805162461bcd60e51b815260206004820152601460248201527314185d5cd8589b194e881b9bdd081c185d5cd95960621b604482015290519081900360640190fd5b6099805460ff191690557f5db9ee0a495bf2e6ff9c91a7834c1ba4fdd244a5e8aa4e537bd38aeae4b073aa612ecd612c17565b604080516001600160a01b039092168252519081900360200190a1565b6000612d6b8360ff601285900316600a0a613530565b6000818303818312801590612f155750838113155b80612f2a5750600083128015612f2a57508381135b612d6b5760405162461bcd60e51b8152600401808060200182810382526024815260200180614f806024913960400191505060405180910390fd5b6000828201818312801590612f7a5750838112155b80612f8f5750600083128015612f8f57508381125b612d6b5760405162461bcd60e51b8152600401808060200182810382526021815260200180614ec16021913960400191505060405180910390fd5b600061305c8461013260009054906101000a90046001600160a01b03166001600160a01b031663a85494026040518163ffffffff1660e01b815260040160206040518083038186803b15801561301f57600080fd5b505afa158015613033573d6000803e3d6000fd5b505050506040513d601f19601f820116820180604052508101906130579190614675565b6139ec565b12806130ef57506101365460405163f75c266d60e01b81526001600160a01b039091169063f75c266d906130949086906004016146d4565b60206040518083038186803b1580156130ac57600080fd5b505afa1580156130c0573d6000803e3d6000fd5b505050506040513d601f19601f820116820180604052508101906130e49190614268565b6130ed846108f2565b125b61310b5760405162461bcd60e51b815260040161049690614bc3565b61013454604051631e81ac3360e01b81526001600160a01b0390911690631e81ac339061313e90869086906004016146e8565b6040805180830381600087803b15801561315757600080fd5b505af115801561316b573d6000803e3d6000fd5b505050506040513d601f19601f8201168201806040525081019061318f919061438e565b506101355460405163398dbcfd60e01b81526000916001600160a01b03169063398dbcfd906131c690879087908790600401614702565b60a060405180830381600087803b1580156131e057600080fd5b505af11580156131f4573d6000803e3d6000fd5b505050506040513d601f19601f8201168201806040525081019061321891906143d6565b6101365481519192506001600160a01b03169063fa51ba85908690869061323e90613371565b61324b8660200151613371565b866060015187608001516132628960400151613371565b6040518863ffffffff1660e01b81526004016132849796959493929190614795565b600060405180830381600087803b15801561329e57600080fd5b505af1158015612c09573d6000803e3d6000fd5b6132ba610ac7565b156132ff576040805162461bcd60e51b815260206004820152601060248201526f14185d5cd8589b194e881c185d5cd95960821b604482015290519081900360640190fd5b6099805460ff191660011790557f62e78cea01bee320cd4e420270b5ea74000d11b0c9f74754ebdbfc544b05a258612ecd612c17565b60008082136133545761334f61334a83613a70565b613a9c565b612d6e565b612d6e82613a9c565b600061336882613371565b60000392915050565b60006001600160ff1b038211156133b95760405162461bcd60e51b8152600401808060200182810382526028815260200180614f586028913960400191505060405180910390fd5b5090565b6133c5613f5b565b6101345460408051610100818101835285516001600160a01b0390811683526020808801518216908401528684015115158385015260608088015115159084015260808088015115159084015260a0808801519084015260c0808801518216908401529086015160e083015291516348fa72d560e01b815260009392909216916348fa72d59161345791600401614d4f565b60c060405180830381600087803b15801561347157600080fd5b505af1158015613485573d6000803e3d6000fd5b505050506040513d601f19601f820116820180604052508101906134a991906145d7565b90508260e001516134bf5782516134bf90613691565b610136548351602085015160405163fa8e30af60e01b81526001600160a01b039093169263fa8e30af926134f79290916004016146e8565b600060405180830381600087803b15801561351157600080fd5b505af1158015613525573d6000803e3d6000fd5b509295945050505050565b60008261353f57506000612d6e565b826000191480156135535750600160ff1b82145b1561358f5760405162461bcd60e51b8152600401808060200182810382526027815260200180614f316027913960400191505060405180910390fd5b8282028284828161359c57fe5b0514612d6b5760405162461bcd60e51b8152600401808060200182810382526027815260200180614f316027913960400191505060405180910390fd5b60008161362d576040805162461bcd60e51b815260206004820181905260248201527f5369676e6564536166654d6174683a206469766973696f6e206279207a65726f604482015290519081900360640190fd5b816000191480156136415750600160ff1b83145b1561367d5760405162461bcd60e51b8152600401808060200182810382526021815260200180614f106021913960400191505060405180910390fd5b600082848161368857fe5b05949350505050565b60006136e68261013260009054906101000a90046001600160a01b03166001600160a01b031663543ce73a6040518163ffffffff1660e01b815260040160206040518083038186803b15801561301f57600080fd5b1215612e475760405162461bcd60e51b81526004016104969061499f565b80600f81900b81146108ed5760405162461bcd60e51b8152600401808060200182810382526027815260200180614e9a6027913960400191505060405180910390fd5b600061375230613758565b15905090565b3b151590565b600054610100900460ff16806137775750613777613747565b80613785575060005460ff16155b6137c05760405162461bcd60e51b815260040180806020018281038252602e815260200180614ee2602e913960400191505060405180910390fd5b600054610100900460ff161580156137eb576000805460ff1961ff0019909116610100171660011790555b6137f3613af3565b8015612e47576000805461ff001916905550565b600054610100900460ff16806138205750613820613747565b8061382e575060005460ff16155b6138695760405162461bcd60e51b815260040180806020018281038252602e815260200180614ee2602e913960400191505060405180910390fd5b600054610100900460ff16158015613894576000805460ff1961ff0019909116610100171660011790555b61389c613b98565b6137f3613c99565b6000613368826001600160801b0316613704565b60fd80546001600160a01b0383166001600160a01b0319909116811790915560408051918252517fa4388ecc389b1390354ae0c65a856c0d7dd4fb648419f5d3ac0b99e38f46fd119181900360200190a150565b6000601436108015906139235750613923336108db565b15613937575060131936013560601c6108c8565b503390565b6000808060001985870986860292508281109083900303905080613972576000841161396757600080fd5b5082900490506139e5565b80841161397e57600080fd5b6000848688096000868103871696879004966002600389028118808a02820302808a02820302808a02820302808a02820302808a02820302808a02909103029181900381900460010186841190950394909402919094039290920491909117919091029150505b9392505050565b61013354604051633ffd130360e01b81526000916001600160a01b031690633ffd130390613a2090869086906004016147ec565b60206040518083038186803b158015613a3857600080fd5b505afa158015613a4c573d6000803e3d6000fd5b505050506040513d601f19601f82011682018060405250810190612d6b9190614268565b6000600160ff1b8213613a955760405162461bcd60e51b815260040161049690614a43565b5060000390565b6000808212156133b9576040805162461bcd60e51b815260206004820181905260248201527f53616665436173743a2076616c7565206d75737420626520706f736974697665604482015290519081900360640190fd5b600054610100900460ff1680613b0c5750613b0c613747565b80613b1a575060005460ff16155b613b555760405162461bcd60e51b815260040180806020018281038252602e815260200180614ee2602e913960400191505060405180910390fd5b600054610100900460ff16158015613b80576000805460ff1961ff0019909116610100171660011790555b600180558015612e47576000805461ff001916905550565b600054610100900460ff1680613bb15750613bb1613747565b80613bbf575060005460ff16155b613bfa5760405162461bcd60e51b815260040180806020018281038252602e815260200180614ee2602e913960400191505060405180910390fd5b600054610100900460ff16158015613c25576000805460ff1961ff0019909116610100171660011790555b613c2d613d36565b6000613c37612c17565b606580546001600160a01b0319166001600160a01b038316908117909155604051919250906000907f8be0079c531659141344cd1fd0a4f28419497f9722a3daafe3b4186f6b6457e0908290a3508015612e47576000805461ff001916905550565b600054610100900460ff1680613cb25750613cb2613747565b80613cc0575060005460ff16155b613cfb5760405162461bcd60e51b815260040180806020018281038252602e815260200180614ee2602e913960400191505060405180910390fd5b600054610100900460ff16158015613d26576000805460ff1961ff0019909116610100171660011790555b613d2e613dc7565b6137f3613e67565b600054610100900460ff1680613d4f5750613d4f613747565b80613d5d575060005460ff16155b613d985760405162461bcd60e51b815260040180806020018281038252602e815260200180614ee2602e913960400191505060405180910390fd5b600054610100900460ff16158015613dc3576000805460ff1961ff0019909116610100171660011790555b6137f35b600054610100900460ff1680613de05750613de0613747565b80613dee575060005460ff16155b613e295760405162461bcd60e51b815260040180806020018281038252602e815260200180614ee2602e913960400191505060405180910390fd5b600054610100900460ff161580156137f3576000805460ff1961ff0019909116610100171660011790558015612e47576000805461ff001916905550565b600054610100900460ff1680613e805750613e80613747565b80613e8e575060005460ff16155b613ec95760405162461bcd60e51b815260040180806020018281038252602e815260200180614ee2602e913960400191505060405180910390fd5b600054610100900460ff16158015613ef4576000805460ff1961ff0019909116610100171660011790555b6099805460ff191690558015612e47576000805461ff001916905550565b6040518060800160405280600081526020016000815260200160008152602001600081525090565b60405180606001604052806000815260200160008152602001600081525090565b6040518060c0016040528060008152602001600081526020016000815260200160008152602001600060020b81526020016000151581525090565b80356108ed81614e21565b80356108ed81614e36565b60008083601f840112613fbd578182fd5b50813567ffffffffffffffff811115613fd4578182fd5b602083019150836020828501011115613fec57600080fd5b9250929050565b600060208284031215614004578081fd5b8135612d6b81614e21565b600060208284031215614020578081fd5b8151612d6b81614e21565b6000806040838503121561403d578081fd5b823561404881614e21565b9150602083013561405881614e21565b809150509250929050565b60008060008060008060c0878903121561407b578182fd5b863561408681614e21565b9550602087013561409681614e21565b945060408701356140a681614e21565b935060608701356140b681614e21565b925060808701356140c681614e21565b915060a08701356140d681614e21565b809150509295509295509295565b600080600080606085870312156140f9578182fd5b843561410481614e21565b9350602085013561411481614e21565b9250604085013567ffffffffffffffff80821115614130578384fd5b818701915087601f830112614143578384fd5b813581811115614151578485fd5b8860208083028501011115614164578485fd5b95989497505060200194505050565b60006020808385031215614185578182fd5b825167ffffffffffffffff8082111561419c578384fd5b818501915085601f8301126141af578384fd5b8151818111156141bb57fe5b83810291506141cb848301614dfd565b8181528481019084860184860187018a10156141e5578788fd5b8795505b838610156142075780518352600195909501949186019186016141e9565b5098975050505050505050565b600060208284031215614225578081fd5b8135612d6b81614e36565b600060208284031215614241578081fd5b8151612d6b81614e36565b60006020828403121561425d578081fd5b8135612d6b81614e44565b600060208284031215614279578081fd5b5051919050565b60008060408385031215614292578182fd5b505080516020909101519092909150565b600080600080606085870312156142b8578182fd5b8435935060208501359250604085013567ffffffffffffffff8111156142dc578283fd5b6142e887828801613fac565b95989497509550505050565b60006101208284031215614306578081fd5b50919050565b600060a0828403121561431d578081fd5b60405160a0810181811067ffffffffffffffff8211171561433a57fe5b8060405250825181526020830151602082015260408301516040820152606083015161436581614e53565b60608201526080928301519281019290925250919050565b600060a08284031215614306578081fd5b60006040828403121561439f578081fd5b6040516040810181811067ffffffffffffffff821117156143bc57fe5b604052825181526020928301519281019290925250919050565b600060a082840312156143e7578081fd5b60405160a0810181811067ffffffffffffffff8211171561440457fe5b806040525082518152602083015160208201526040830151604082015260608301516060820152608083015160808201528091505092915050565b600060408284031215614450578081fd5b6040516040810181811067ffffffffffffffff8211171561446d57fe5b604052823561447b81614e21565b8152602083013561448b81614e21565b60208201529392505050565b60006101008083850312156144aa578182fd5b6040519081019067ffffffffffffffff821181831017156144c757fe5b816040526144d484613f96565b81526144e260208501613fa1565b60208201526144f360408501613fa1565b6040820152606084013560608201526080840135608082015260a084013560a082015261452260c08501613f96565b60c082015260e084013560e0820152809250505092915050565b600060e08284031215614306578081fd5b600060a0828403121561455e578081fd5b60405160a0810181811067ffffffffffffffff8211171561457b57fe5b604052823561458981614e21565b8152602083013561459981614e21565b602082015260408301356145ac81614e21565b604082015260608301356145bf81614e68565b60608201526080928301359281019290925250919050565b600060c082840312156145e8578081fd5b60405160c0810181811067ffffffffffffffff8211171561460557fe5b806040525082518152602083015160208201526040830151604082015260608301516060820152608083015161463a81614e44565b608082015260a083015161464d81614e36565b60a08201529392505050565b60006020828403121561466a578081fd5b8135612d6b81614e53565b600060208284031215614686578081fd5b8151612d6b81614e68565b6000602082840312156146a2578081fd5b815160ff81168114612d6b578182fd5b15159052565b80518252602090810151910152565b6001600160a01b03169052565b6001600160a01b0391909116815260200190565b6001600160a01b0392831681529116602082015260400190565b6001600160a01b0384811682528316602080830191909152606060408301819052835190830181905260009184810191608085019190845b818110156147565784518452938201939282019260010161473a565b509198975050505050505050565b6001600160a01b03958616815293909416602084015260408301919091526060820152608081019190915260a00190565b6001600160a01b03978816815295909616602086015260408501939093526060840191909152608083015260a082015260c081019190915260e00190565b6001600160a01b03929092168252602082015260400190565b6001600160a01b0392909216825262ffffff16602082015260400190565b901515815260200190565b9283526020830191909152604082015260600190565b600296870b81529490950b602085015260408401929092526060830152600f0b608082015260a081019190915260c00190565b90815260200190565b6000602080835283518082850152825b8181101561489357858101830151858201604001528201614877565b818111156148a45783604083870101525b50601f01601f1916929092016040019392505050565b60208082526008908201526708690bea2889c62760c31b604082015260600190565b60208082526006908201526521a42fa2a0ab60d11b604082015260600190565b60208082526005908201526443485f4f4560d81b604082015260600190565b60208082526007908201526643485f544d525360c81b604082015260600190565b60208082526007908201526643485f41424e4360c81b604082015260600190565b60208082526007908201526643485f55414e4360c81b604082015260600190565b60208082526007908201526610d217d513549360ca1b604082015260600190565b60208082526008908201526743485f4e4546434960c01b604082015260600190565b60208082526007908201526643485f51414e4360c81b604082015260600190565b60208082526006908201526543485f46305360d01b604082015260600190565b60208082526007908201526643485f43434e4360c81b604082015260600190565b60208082526006908201526543485f414e4360d01b604082015260600190565b6020808252601c908201527f506572704d6174683a20696e76657273696f6e206f766572666c6f7700000000604082015260600190565b60208082526007908201526643485f4f424e4360c81b604082015260600190565b60208082526006908201526521a42fa727a160d11b604082015260600190565b60208082526005908201526421a42faa2360d91b604082015260600190565b60208082526005908201526443485f544560d81b604082015260600190565b60208082526007908201526643485f56414e4360c81b604082015260600190565b60208082526007908201526610d217d513149360ca1b604082015260600190565b60208082526007908201526643485f54424e4560c81b604082015260600190565b60208082526007908201526643485f54514e4560c81b604082015260600190565b60208082526007908201526643485f544c525360c81b604082015260600190565b6020808252600b908201526a043485f43414c57524654560ac1b604082015260600190565b60208082526007908201526643485f4e45584f60c81b604082015260600190565b60208082526006908201526543485f50534360d01b604082015260600190565b60208082526006908201526521a42fa829ad60d11b604082015260600190565b60208082526006908201526543485f4e454f60d01b604082015260600190565b60006101008201905060018060a01b03808451168352806020850151166020840152506040830151604083015260608301516060830152608083015160020b608083015260a083015160020b60a083015260c0830151614ca760c08401826146b8565b5092915050565b8151815260208083015190820152604080830151908201526060918201519181019190915260800190565b600060a08201905060018060a01b0380845116835280602085015116602084015250604083015160020b6040830152606083015160020b60608301526001600160801b03608084015116608083015292915050565b81518152602080830151908201526040918201519181019190915260600190565b81516001600160a01b03908116825260208084015190911690820152604080830151151590820152606080830151151590820152608080830151610120830191614d9b908401826146b2565b5060a083015160a083015260c0830151614db860c08401826146c7565b5060e0830151614ca760e08401826146b8565b918252602082015260400190565b938452602084019290925260408301526001600160a01b0316606082015260800190565b60405181810167ffffffffffffffff81118282101715614e1957fe5b604052919050565b6001600160a01b0381168114612e4757600080fd5b8015158114612e4757600080fd5b8060020b8114612e4757600080fd5b6001600160801b0381168114612e4757600080fd5b62ffffff81168114612e4757600080fdfe5265656e7472616e637947756172643a207265656e7472616e742063616c6c0053616665436173743a2076616c756520646f65736e27742066697420696e2031323820626974735369676e6564536166654d6174683a206164646974696f6e206f766572666c6f77496e697469616c697a61626c653a20636f6e747261637420697320616c726561647920696e697469616c697a65645369676e6564536166654d6174683a206469766973696f6e206f766572666c6f775369676e6564536166654d6174683a206d756c7469706c69636174696f6e206f766572666c6f7753616665436173743a2076616c756520646f65736e27742066697420696e20616e20696e743235365369676e6564536166654d6174683a207375627472616374696f6e206f766572666c6f77a2646970667358221220df197990a1e5f9f717957cd5051d5b02a1898458164f338e8432a5e2f580550564736f6c63430007060033",
  "linkReferences": {},
  "deployedLinkReferences": {}
}