{
  "_format": "hh-sol-artifact-1",
  "contractName": "PerpV2QuoteToken",
  "sourceName": "contracts/QuoteToken.sol",
  "abi": [
    {
      "anonymous": false,
      "inputs": [
        {
          "indexed": true,
          "internalType": "address",
          "name": "owner",
          "type": "address"
        },
        {
          "indexed": true,
          "internalType": "address",
          "name": "spender",
          "type": "address"
        },
        {
          "indexed": false,
          "internalType": "uint256",
          "name": "value",
          "type": "uint256"
        }
      ],
      "name": "Approval",
      "type": "event"
    },
    {
      "anonymous": false,
      "inputs": [
        {
          "indexed": true,
          "internalType": "address",
          "name": "previousOwner",
          "type": "address"
        },
        {
          "indexed": true,
          "internalType": "address",
          "name": "newOwner",
          "type": "address"
        }
      ],
      "name": "OwnershipTransferred",
      "type": "event"
    },
    {
      "anonymous": false,
      "inputs": [
        {
          "indexed": true,
          "internalType": "address",
          "name": "from",
          "type": "address"
        },
        {
          "indexed": true,
          "internalType": "address",
          "name": "to",
          "type": "address"
        },
        {
          "indexed": false,
          "internalType": "uint256",
          "name": "value",
          "type": "uint256"
        }
      ],
      "name": "Transfer",
      "type": "event"
    },
    {
      "anonymous": false,
      "inputs": [
        {
          "indexed": false,
          "internalType": "address",
          "name": "account",
          "type": "address"
        }
      ],
      "name": "WhitelistAdded",
      "type": "event"
    },
    {
      "anonymous": false,
      "inputs": [
        {
          "indexed": false,
          "internalType": "address",
          "name": "account",
          "type": "address"
        }
      ],
      "name": "WhitelistRemoved",
      "type": "event"
    },
    {
      "inputs": [
        {
          "internalType": "address",
          "name": "account",
          "type": "address"
        }
      ],
      "name": "addWhitelist",
      "outputs": [],
      "stateMutability": "nonpayable",
      "type": "function"
    },
    {
      "inputs": [
        {
          "internalType": "address",
          "name": "owner",
          "type": "address"
        },
        {
          "internalType": "address",
          "name": "spender",
          "type": "address"
        }
      ],
      "name": "allowance",
      "outputs": [
        {
          "internalType": "uint256",
          "name": "",
          "type": "uint256"
        }
      ],
      "stateMutability": "view",
      "type": "function"
    },
    {
      "inputs": [
        {
          "internalType": "address",
          "name": "spender",
          "type": "address"
        },
        {
          "internalType": "uint256",
          "name": "amount",
          "type": "uint256"
        }
      ],
      "name": "approve",
      "outputs": [
        {
          "internalType": "bool",
          "name": "",
          "type": "bool"
        }
      ],
      "stateMutability": "nonpayable",
      "type": "function"
    },
    {
      "inputs": [
        {
          "internalType": "address",
          "name": "account",
          "type": "address"
        }
      ],
      "name": "balanceOf",
      "outputs": [
        {
          "internalType": "uint256",
          "name": "",
          "type": "uint256"
        }
      ],
      "stateMutability": "view",
      "type": "function"
    },
    {
      "inputs": [],
      "name": "candidate",
      "outputs": [
        {
          "internalType": "address",
          "name": "",
          "type": "address"
        }
      ],
      "stateMutability": "view",
      "type": "function"
    },
    {
      "inputs": [],
      "name": "decimals",
      "outputs": [
        {
          "internalType": "uint8",
          "name": "",
          "type": "uint8"
        }
      ],
      "stateMutability": "view",
      "type": "function"
    },
    {
      "inputs": [
        {
          "internalType": "address",
          "name": "spender",
          "type": "address"
        },
        {
          "internalType": "uint256",
          "name": "subtractedValue",
          "type": "uint256"
        }
      ],
      "name": "decreaseAllowance",
      "outputs": [
        {
          "internalType": "bool",
          "name": "",
          "type": "bool"
        }
      ],
      "stateMutability": "nonpayable",
      "type": "function"
    },
    {
      "inputs": [
        {
          "internalType": "address",
          "name": "spender",
          "type": "address"
        },
        {
          "internalType": "uint256",
          "name": "addedValue",
          "type": "uint256"
        }
      ],
      "name": "increaseAllowance",
      "outputs": [
        {
          "internalType": "bool",
          "name": "",
          "type": "bool"
        }
      ],
      "stateMutability": "nonpayable",
      "type": "function"
    },
    {
      "inputs": [
        {
          "internalType": "string",
          "name": "nameArg",
          "type": "string"
        },
        {
          "internalType": "string",
          "name": "symbolArg",
          "type": "string"
        }
      ],
      "name": "initialize",
      "outputs": [],
      "stateMutability": "nonpayable",
      "type": "function"
    },
    {
      "inputs": [
        {
          "internalType": "address",
          "name": "account",
          "type": "address"
        }
      ],
      "name": "isInWhitelist",
      "outputs": [
        {
          "internalType": "bool",
          "name": "",
          "type": "bool"
        }
      ],
      "stateMutability": "view",
      "type": "function"
    },
    {
      "inputs": [
        {
          "internalType": "address",
          "name": "recipient",
          "type": "address"
        }
      ],
      "name": "mintMaximumTo",
      "outputs": [],
      "stateMutability": "nonpayable",
      "type": "function"
    },
    {
      "inputs": [],
      "name": "name",
      "outputs": [
        {
          "internalType": "string",
          "name": "",
          "type": "string"
        }
      ],
      "stateMutability": "view",
      "type": "function"
    },
    {
      "inputs": [],
      "name": "owner",
      "outputs": [
        {
          "internalType": "address",
          "name": "",
          "type": "address"
        }
      ],
      "stateMutability": "view",
      "type": "function"
    },
    {
      "inputs": [
        {
          "internalType": "address",
          "name": "account",
          "type": "address"
        }
      ],
      "name": "removeWhitelist",
      "outputs": [],
      "stateMutability": "nonpayable",
      "type": "function"
    },
    {
      "inputs": [],
      "name": "renounceOwnership",
      "outputs": [],
      "stateMutability": "nonpayable",
      "type": "function"
    },
    {
      "inputs": [
        {
          "internalType": "address",
          "name": "newOwner",
          "type": "address"
        }
      ],
      "name": "setOwner",
      "outputs": [],
      "stateMutability": "nonpayable",
      "type": "function"
    },
    {
      "inputs": [],
      "name": "symbol",
      "outputs": [
        {
          "internalType": "string",
          "name": "",
          "type": "string"
        }
      ],
      "stateMutability": "view",
      "type": "function"
    },
    {
      "inputs": [],
      "name": "totalSupply",
      "outputs": [
        {
          "internalType": "uint256",
          "name": "",
          "type": "uint256"
        }
      ],
      "stateMutability": "view",
      "type": "function"
    },
    {
      "inputs": [
        {
          "internalType": "address",
          "name": "recipient",
          "type": "address"
        },
        {
          "internalType": "uint256",
          "name": "amount",
          "type": "uint256"
        }
      ],
      "name": "transfer",
      "outputs": [
        {
          "internalType": "bool",
          "name": "",
          "type": "bool"
        }
      ],
      "stateMutability": "nonpayable",
      "type": "function"
    },
    {
      "inputs": [
        {
          "internalType": "address",
          "name": "sender",
          "type": "address"
        },
        {
          "internalType": "address",
          "name": "recipient",
          "type": "address"
        },
        {
          "internalType": "uint256",
          "name": "amount",
          "type": "uint256"
        }
      ],
      "name": "transferFrom",
      "outputs": [
        {
          "internalType": "bool",
          "name": "",
          "type": "bool"
        }
      ],
      "stateMutability": "nonpayable",
      "type": "function"
    },
    {
      "inputs": [],
      "name": "updateOwner",
      "outputs": [],
      "stateMutability": "nonpayable",
      "type": "function"
    }
  ],
  "bytecode": "0x608060405234801561001057600080fd5b50611908806100206000396000f3fe608060405234801561001057600080fd5b50600436106101075760003560e01c806306fdde031461010c578063095ea7b31461018957806309fd8212146101c957806313af4035146101ef57806318160ddd1461021757806323b872dd14610231578063313ce5671461026757806339509351146102855780634cd88b76146102b15780636c8381f8146103da57806370a08231146103fe578063715018a61461042457806378c8cda71461042c5780638da5cb5b1461045257806395d89b411461045a578063a457c2d714610462578063a9059cbb1461048e578063bc5920ba146104ba578063dd62ed3e146104c2578063f52e308e146104f0578063f80f5dd514610516575b600080fd5b61011461053c565b6040805160208082528351818301528351919283929083019185019080838360005b8381101561014e578181015183820152602001610136565b50505050905090810190601f16801561017b5780820380516001836020036101000a031916815260200191505b509250505060405180910390f35b6101b56004803603604081101561019f57600080fd5b506001600160a01b0381351690602001356105d2565b604080519115158252519081900360200190f35b6101b5600480360360208110156101df57600080fd5b50356001600160a01b03166105ef565b6102156004803603602081101561020557600080fd5b50356001600160a01b031661060d565b005b61021f610768565b60408051918252519081900360200190f35b6101b56004803603606081101561024757600080fd5b506001600160a01b0381358116916020810135909116906040013561076e565b61026f6107f5565b6040805160ff9092168252519081900360200190f35b6101b56004803603604081101561029b57600080fd5b506001600160a01b0381351690602001356107fe565b610215600480360360408110156102c757600080fd5b810190602081018135600160201b8111156102e157600080fd5b8201836020820111156102f357600080fd5b803590602001918460018302840111600160201b8311171561031457600080fd5b91908080601f0160208091040260200160405190810160405280939291908181526020018383808284376000920191909152509295949360208101935035915050600160201b81111561036657600080fd5b82018360208201111561037857600080fd5b803590602001918460018302840111600160201b8311171561039957600080fd5b91908080601f01602080910402602001604051908101604052809392919081815260200183838082843760009201919091525092955061084c945050505050565b6103e26108fa565b604080516001600160a01b039092168252519081900360200190f35b61021f6004803603602081101561041457600080fd5b50356001600160a01b0316610909565b610215610924565b6102156004803603602081101561044257600080fd5b50356001600160a01b03166109c5565b6103e2610a7a565b610114610a89565b6101b56004803603604081101561047857600080fd5b506001600160a01b038135169060200135610aea565b6101b5600480360360408110156104a457600080fd5b506001600160a01b038135169060200135610b52565b610215610b66565b61021f600480360360408110156104d857600080fd5b506001600160a01b0381358116916020013516610c52565b6102156004803603602081101561050657600080fd5b50356001600160a01b0316610c7d565b6102156004803603602081101561052c57600080fd5b50356001600160a01b0316610ce9565b606a8054604080516020601f60026000196101006001881615020190951694909404938401819004810282018101909252828152606093909290918301828280156105c85780601f1061059d576101008083540402835291602001916105c8565b820191906000526020600020905b8154815290600101906020018083116105ab57829003601f168201915b5050505050905090565b60006105e66105df610da1565b8484610da5565b50600192915050565b6001600160a01b031660009081526099602052604090205460ff1690565b610615610da1565b6001600160a01b0316610626610a7a565b6001600160a01b03161461066a576040805162461bcd60e51b8152602060048201526006602482015265534f5f434e4f60d01b604482015290519081900360640190fd5b6001600160a01b0381166106ae576040805162461bcd60e51b81526020600482015260066024820152650534f5f4e57360d41b604482015290519081900360640190fd5b6033546001600160a01b03828116911614156106fa576040805162461bcd60e51b8152602060048201526006602482015265534f5f53414f60d01b604482015290519081900360640190fd5b6034546001600160a01b0382811691161415610746576040805162461bcd60e51b8152602060048201526006602482015265534f5f53414360d01b604482015290519081900360640190fd5b603480546001600160a01b0319166001600160a01b0392909216919091179055565b60695490565b600061077b848484610e91565b6107eb84610787610da1565b6107e6856040518060600160405280602881526020016117fd602891396001600160a01b038a166000908152606860205260408120906107c5610da1565b6001600160a01b031681526020810191909152604001600020549190610fdc565b610da5565b5060019392505050565b606c5460ff1690565b60006105e661080b610da1565b846107e6856068600061081c610da1565b6001600160a01b03908116825260208083019390935260409182016000908120918c168152925290205490611073565b600054610100900460ff168061086557506108656110d2565b80610873575060005460ff16155b6108ae5760405162461bcd60e51b815260040180806020018281038252602e8152602001806117cf602e913960400191505060405180910390fd5b600054610100900460ff161580156108d9576000805460ff1961ff0019909116610100171660011790555b6108e383836110e3565b80156108f5576000805461ff00191690555b505050565b6034546001600160a01b031690565b6001600160a01b031660009081526067602052604090205490565b61092c610da1565b6001600160a01b031661093d610a7a565b6001600160a01b031614610981576040805162461bcd60e51b8152602060048201526006602482015265534f5f434e4f60d01b604482015290519081900360640190fd5b6033546040516000916001600160a01b031690600080516020611825833981519152908390a3603380546001600160a01b0319908116909155603480549091169055565b6109cd610da1565b6001600160a01b03166109de610a7a565b6001600160a01b031614610a22576040805162461bcd60e51b8152602060048201526006602482015265534f5f434e4f60d01b604482015290519081900360640190fd5b6001600160a01b038116600081815260996020908152604091829020805460ff19169055815192835290517fde8cf212af7ce38b2840785a2768d97ff2dbf3c21b516961cec0061e134c2a1e9281900390910190a150565b6033546001600160a01b031690565b606b8054604080516020601f60026000196101006001881615020190951694909404938401819004810282018101909252828152606093909290918301828280156105c85780601f1061059d576101008083540402835291602001916105c8565b60006105e6610af7610da1565b846107e6856040518060600160405280602581526020016118ae6025913960686000610b21610da1565b6001600160a01b03908116825260208083019390935260409182016000908120918d16815292529020549190610fdc565b60006105e6610b5f610da1565b8484610e91565b6034546001600160a01b0316610bab576040805162461bcd60e51b81526020600482015260056024820152640534f5f43360dc1b604482015290519081900360640190fd5b610bb3610da1565b6034546001600160a01b03908116911614610bfe576040805162461bcd60e51b8152602060048201526006602482015265534f5f434e4360d01b604482015290519081900360640190fd5b6034546033546040516001600160a01b03928316929091169060008051602061182583398151915290600090a360348054603380546001600160a01b03199081166001600160a01b03841617909155169055565b6001600160a01b03918216600090815260686020908152604080832093909416825291909152205490565b610c85610da1565b6001600160a01b0316610c96610a7a565b6001600160a01b031614610cda576040805162461bcd60e51b8152602060048201526006602482015265534f5f434e4f60d01b604482015290519081900360640190fd5b610ce6816000196111cd565b50565b610cf1610da1565b6001600160a01b0316610d02610a7a565b6001600160a01b031614610d46576040805162461bcd60e51b8152602060048201526006602482015265534f5f434e4f60d01b604482015290519081900360640190fd5b6001600160a01b038116600081815260996020908152604091829020805460ff19166001179055815192835290517f4790a4adb426ca2345bb5108f6e454eae852a7bf687544cd66a7270dff3a41d69281900390910190a150565b3390565b6001600160a01b038316610dea5760405162461bcd60e51b815260040180806020018281038252602481526020018061188a6024913960400191505060405180910390fd5b6001600160a01b038216610e2f5760405162461bcd60e51b81526004018080602001828103825260228152602001806117876022913960400191505060405180910390fd5b6001600160a01b03808416600081815260686020908152604080832094871680845294825291829020859055815185815291517f8c5be1e5ebec7d5bd14f71427d1e84f3dd0314c0f7b2291e5b200ac8c7c3b9259281900390910190a3505050565b6001600160a01b038316610ed65760405162461bcd60e51b81526004018080602001828103825260258152602001806118656025913960400191505060405180910390fd5b6001600160a01b038216610f1b5760405162461bcd60e51b81526004018080602001828103825260238152602001806117646023913960400191505060405180910390fd5b610f268383836112ad565b610f63816040518060600160405280602681526020016117a9602691396001600160a01b0386166000908152606760205260409020549190610fdc565b6001600160a01b038085166000908152606760205260408082209390935590841681522054610f929082611073565b6001600160a01b03808416600081815260676020908152604091829020949094558051858152905191939287169260008051602061184583398151915292918290030190a3505050565b6000818484111561106b5760405162461bcd60e51b81526004018080602001828103825283818151815260200191508051906020019080838360005b83811015611030578181015183820152602001611018565b50505050905090810190601f16801561105d5780820380516001836020036101000a031916815260200191505b509250505060405180910390fd5b505050900390565b6000828201838110156110cb576040805162461bcd60e51b815260206004820152601b60248201527a536166654d6174683a206164646974696f6e206f766572666c6f7760281b604482015290519081900360640190fd5b9392505050565b60006110dd3061130d565b15905090565b600054610100900460ff16806110fc57506110fc6110d2565b8061110a575060005460ff16155b6111455760405162461bcd60e51b815260040180806020018281038252602e8152602001806117cf602e913960400191505060405180910390fd5b600054610100900460ff16158015611170576000805460ff1961ff0019909116610100171660011790555b611178611313565b6111828383611402565b6000805260996020527f235d629dc802037ded8c61cb27fb29e40fa01b299719d8f991ffe20bdcc59f4f805460ff1916600117905580156108f5576000805461ff0019169055505050565b6001600160a01b038216611228576040805162461bcd60e51b815260206004820152601f60248201527f45524332303a206d696e7420746f20746865207a65726f206164647265737300604482015290519081900360640190fd5b611234600083836112ad565b6069546112419082611073565b6069556001600160a01b0382166000908152606760205260409020546112679082611073565b6001600160a01b03831660008181526067602090815260408083209490945583518581529351929391926000805160206118458339815191529281900390910190a35050565b6112b88383836108f5565b6001600160a01b03831660009081526099602052604090205460ff166108f5576040805162461bcd60e51b815260206004820152600560248201526456545f4e5760d81b604482015290519081900360640190fd5b3b151590565b600054610100900460ff168061132c575061132c6110d2565b8061133a575060005460ff16155b6113755760405162461bcd60e51b815260040180806020018281038252602e8152602001806117cf602e913960400191505060405180910390fd5b600054610100900460ff161580156113a0576000805460ff1961ff0019909116610100171660011790555b6113a86114a1565b60006113b2610da1565b603380546001600160a01b0319166001600160a01b03831690811790915560405191925090600090600080516020611825833981519152908290a3508015610ce6576000805461ff001916905550565b600054610100900460ff168061141b575061141b6110d2565b80611429575060005460ff16155b6114645760405162461bcd60e51b815260040180806020018281038252602e8152602001806117cf602e913960400191505060405180910390fd5b600054610100900460ff1615801561148f576000805460ff1961ff0019909116610100171660011790555b61149761154a565b6108e383836115ea565b600054610100900460ff16806114ba57506114ba6110d2565b806114c8575060005460ff16155b6115035760405162461bcd60e51b815260040180806020018281038252602e8152602001806117cf602e913960400191505060405180910390fd5b600054610100900460ff1615801561152e576000805460ff1961ff0019909116610100171660011790555b61153661154a565b8015610ce6576000805461ff001916905550565b600054610100900460ff168061156357506115636110d2565b80611571575060005460ff16155b6115ac5760405162461bcd60e51b815260040180806020018281038252602e8152602001806117cf602e913960400191505060405180910390fd5b600054610100900460ff16158015611536576000805460ff1961ff0019909116610100171660011790558015610ce6576000805461ff001916905550565b600054610100900460ff168061160357506116036110d2565b80611611575060005460ff16155b61164c5760405162461bcd60e51b815260040180806020018281038252602e8152602001806117cf602e913960400191505060405180910390fd5b600054610100900460ff16158015611677576000805460ff1961ff0019909116610100171660011790555b825161168a90606a9060208601906116c2565b50815161169e90606b9060208501906116c2565b50606c805460ff1916601217905580156108f5576000805461ff0019169055505050565b828054600181600116156101000203166002900490600052602060002090601f0160209004810192826116f8576000855561173e565b82601f1061171157805160ff191683800117855561173e565b8280016001018555821561173e579182015b8281111561173e578251825591602001919060010190611723565b5061174a92915061174e565b5090565b5b8082111561174a576000815560010161174f56fe45524332303a207472616e7366657220746f20746865207a65726f206164647265737345524332303a20617070726f766520746f20746865207a65726f206164647265737345524332303a207472616e7366657220616d6f756e7420657863656564732062616c616e6365496e697469616c697a61626c653a20636f6e747261637420697320616c726561647920696e697469616c697a656445524332303a207472616e7366657220616d6f756e74206578636565647320616c6c6f77616e63658be0079c531659141344cd1fd0a4f28419497f9722a3daafe3b4186f6b6457e0ddf252ad1be2c89b69c2b068fc378daa952ba7f163c4a11628f55a4df523b3ef45524332303a207472616e736665722066726f6d20746865207a65726f206164647265737345524332303a20617070726f76652066726f6d20746865207a65726f206164647265737345524332303a2064656372656173656420616c6c6f77616e63652062656c6f77207a65726fa2646970667358221220deb17f680c0cef1c839aafa8d7cb2c0dbe4b5f97fcd7cee4e91a5241a49d3e0864736f6c63430007060033",
  "linkReferences": {},
  "deployedLinkReferences": {}
}