{
  "_format": "hh-sol-artifact-1",
  "contractName": "PerpV2Quoter",
  "sourceName": "contracts/lens/Quoter.sol",
  "abi": [
    {
      "inputs": [
        {
          "internalType": "address",
          "name": "marketRegistryArg",
          "type": "address"
        }
      ],
      "name": "initialize",
      "outputs": [],
      "stateMutability": "nonpayable",
      "type": "function"
    },
    {
      "inputs": [],
      "name": "marketRegistry",
      "outputs": [
        {
          "internalType": "address",
          "name": "",
          "type": "address"
        }
      ],
      "stateMutability": "view",
      "type": "function"
    },
    {
      "inputs": [
        {
          "components": [
            {
              "internalType": "address",
              "name": "baseToken",
              "type": "address"
            },
            {
              "internalType": "bool",
              "name": "isBaseToQuote",
              "type": "bool"
            },
            {
              "internalType": "bool",
              "name": "isExactInput",
              "type": "bool"
            },
            {
              "internalType": "uint256",
              "name": "amount",
              "type": "uint256"
            },
            {
              "internalType": "uint160",
              "name": "sqrtPriceLimitX96",
              "type": "uint160"
            }
          ],
          "internalType": "struct Quoter.SwapParams",
          "name": "params",
          "type": "tuple"
        }
      ],
      "name": "swap",
      "outputs": [
        {
          "components": [
            {
              "internalType": "uint256",
              "name": "deltaAvailableBase",
              "type": "uint256"
            },
            {
              "internalType": "uint256",
              "name": "deltaAvailableQuote",
              "type": "uint256"
            },
            {
              "internalType": "int256",
              "name": "exchangedPositionSize",
              "type": "int256"
            },
            {
              "internalType": "int256",
              "name": "exchangedPositionNotional",
              "type": "int256"
            },
            {
              "internalType": "uint160",
              "name": "sqrtPriceX96",
              "type": "uint160"
            }
          ],
          "internalType": "struct Quoter.SwapResponse",
          "name": "response",
          "type": "tuple"
        }
      ],
      "stateMutability": "nonpayable",
      "type": "function"
    },
    {
      "inputs": [
        {
          "internalType": "int256",
          "name": "amount0Delta",
          "type": "int256"
        },
        {
          "internalType": "int256",
          "name": "amount1Delta",
          "type": "int256"
        },
        {
          "internalType": "bytes",
          "name": "data",
          "type": "bytes"
        }
      ],
      "name": "uniswapV3SwapCallback",
      "outputs": [],
      "stateMutability": "view",
      "type": "function"
    }
  ],
  "bytecode": "0x608060405234801561001057600080fd5b50611285806100206000396000f3fe608060405234801561001057600080fd5b506004361061004c5760003560e01c8063542b7c9814610051578063c4d66de81461007a578063ecb96fe61461008f578063fa461e33146100a4575b600080fd5b61006461005f366004610e1b565b6100b7565b60405161007191906110dc565b60405180910390f35b61008d610088366004610c53565b61048a565b005b61009761057d565b6040516100719190610fa2565b61008d6100b2366004610cae565b610592565b6100bf610bf6565b60008260600151116100ec5760405162461bcd60e51b81526004016100e390611004565b60405180910390fd5b60008054835160405163033e16f360e21b8152620100009092046001600160a01b031691630cf85bcc9161012291600401610fa2565b60806040518083038186803b15801561013a57600080fd5b505afa15801561014e573d6000803e3d6000fd5b505050506040513d601f19601f820116820180604052508101906101729190610da4565b80519091506001600160a01b03811661019d5760405162461bcd60e51b81526004016100e39061109e565b60008260400151905060008360200151905060006101ca8760200151886040015189606001518587610733565b9050600087604001516101e8576101e082610788565b6000036101f1565b6101f182610788565b9050846001600160a01b031663128acb08308a60200151848c608001516001600160a01b0316600014610228578c60800151610252565b8c6020015161024b5773fffd8963efd1fc6a506488495d951d5263988d25610252565b6401000276a45b8d516040516102649190602001610fa2565b6040516020818303038152906040526040518663ffffffff1660e01b8152600401610293959493929190610fb6565b6040805180830381600087803b1580156102ac57600080fd5b505af19250505080156102dc575060408051601f3d908101601f191682019092526102d991810190610c8b565b60015b61047c573d80801561030a576040519150601f19603f3d011682016040523d82523d6000602084013e61030f565b606091505b50600080600061031e846107d4565b92509250925060008060008e602001511561037157610346858b62ffffff16620f4240610858565b925061035c610357878d6000610893565b610788565b600003915061036a85610788565b90506103bb565b610399620f424061039361038a8862ffffff8f166108e2565b8e8e6000610944565b90610990565b92506103a486610788565b91506103b5610357868d6000610893565b60000390505b6040518060a001604052806103cf846109f4565b81526020016103ef6103ea6103e387610788565b8590610a17565b6109f4565b8152602001838152602001828152602001856001600160a01b03168152509d508e6040015115801561042c575060808f01516001600160a01b0316155b156104705760008f60200151610443578e51610449565b8e602001515b90508f60600151811461046e5760405162461bcd60e51b81526004016100e39061107f565b505b5050505050505061047f565b50505b505050505050919050565b600054610100900460ff16806104a357506104a3610a7c565b806104b1575060005460ff16155b6104ec5760405162461bcd60e51b815260040180806020018281038252602e8152602001806111b5602e913960400191505060405180910390fd5b600054610100900460ff16158015610517576000805460ff1961ff0019909116610100171660011790555b610529826001600160a01b0316610a8d565b6105455760405162461bcd60e51b81526004016100e390611060565b6000805462010000600160b01b031916620100006001600160a01b038516021790558015610579576000805461ff00191690555b5050565b6000546201000090046001600160a01b031681565b60008313806105a15750600082135b6105bd5760405162461bcd60e51b81526004016100e390611041565b6000818060200190518101906105d39190610c6f565b6000805460405163bbe4f6db60e01b81529293509091620100009091046001600160a01b03169063bbe4f6db9061060e908590600401610fa2565b60206040518083038186803b15801561062657600080fd5b505afa15801561063a573d6000803e3d6000fd5b505050506040513d601f19601f8201168201806040525081019061065e9190610c6f565b9050336001600160a01b038216146106885760405162461bcd60e51b81526004016100e390611022565b600080610694876109f4565b61069d876109f4565b915091506000836001600160a01b0316633850c7bd6040518163ffffffff1660e01b815260040160e06040518083038186803b1580156106dc57600080fd5b505afa1580156106f0573d6000803e3d6000fd5b505050506040513d601f19601f820116820180604052508101906107149190610ea2565b5050505050509050604051838152826020820152816040820152606081fd5b6000851561076457846107515761074c84846001610893565b61075d565b61075d84836001610893565b905061077f565b8461076f578361077c565b61077c8483856001610944565b90505b95945050505050565b6000600160ff1b82106107cc5760405162461bcd60e51b81526004018080602001828103825260288152602001806112046028913960400191505060405180910390fd5b50805b919050565b60008060008351606014610837576044845110156108045760405162461bcd60e51b81526004016100e3906110be565b6004840193508380602001905181019061081e9190610d3b565b60405162461bcd60e51b81526004016100e39190610ff1565b8380602001905181019061084b9190610f3e565b9250925092509193909250565b6000610865848484610a93565b90506000828061087157fe5b848609111561088c57600019811061088857600080fd5b6001015b9392505050565b6000816108be576108b9846108b0620f424062ffffff8716610b42565b620f4240610a93565b6108da565b6108da84620f42406108d58162ffffff8816610b42565b610858565b949350505050565b6000826108f15750600061093e565b828202828482816108fe57fe5b041461093b5760405162461bcd60e51b81526004018080602001828103825260218152602001806111e36021913960400191505060405180910390fd5b90505b92915050565b600080600083610955578585610958565b84865b909250905061098587610973620f424062ffffff8616610b42565b6108d5620f424062ffffff8616610b42565b979650505050505050565b60008082116109e3576040805162461bcd60e51b815260206004820152601a602482015279536166654d6174683a206469766973696f6e206279207a65726f60301b604482015290519081900360640190fd5b8183816109ec57fe5b049392505050565b6000808213610a0e57610a0982600003610b9f565b61093e565b61093e82610b9f565b6000818303818312801590610a2c5750838113155b80610a415750600083128015610a4157508381135b61093b5760405162461bcd60e51b815260040180806020018281038252602481526020018061122c6024913960400191505060405180910390fd5b6000610a8730610a8d565b15905090565b3b151590565b6000808060001985870986860292508281109083900303905080610ac95760008411610abe57600080fd5b50829004905061088c565b808411610ad557600080fd5b6000848688096000868103871696879004966002600389028118808a02820302808a02820302808a02820302808a02820302808a02820302808a02909103029181900381900460010186841190950394909402919094039290920491909117919091029150509392505050565b600082821115610b99576040805162461bcd60e51b815260206004820152601e60248201527f536166654d6174683a207375627472616374696f6e206f766572666c6f770000604482015290519081900360640190fd5b50900390565b6000808212156107cc576040805162461bcd60e51b815260206004820181905260248201527f53616665436173743a2076616c7565206d75737420626520706f736974697665604482015290519081900360640190fd5b6040518060a001604052806000815260200160008152602001600081526020016000815260200160006001600160a01b031681525090565b805161ffff811681146107cf57600080fd5b805162ffffff811681146107cf57600080fd5b600060208284031215610c64578081fd5b813561093b8161118e565b600060208284031215610c80578081fd5b815161093b8161118e565b60008060408385031215610c9d578081fd5b505080516020909101519092909150565b600080600060608486031215610cc2578081fd5b833592506020840135915060408401356001600160401b03811115610ce5578182fd5b8401601f81018613610cf5578182fd5b8035610d08610d038261113d565b61111a565b818152876020838501011115610d1c578384fd5b8160208401602083013783602083830101528093505050509250925092565b600060208284031215610d4c578081fd5b81516001600160401b03811115610d61578182fd5b8201601f81018413610d71578182fd5b8051610d7f610d038261113d565b818152856020838501011115610d93578384fd5b61077f82602083016020860161115e565b600060808284031215610db5578081fd5b604051608081016001600160401b0381118282101715610dd157fe5b6040528251610ddf8161118e565b8152610ded60208401610c40565b6020820152610dfe60408401610c40565b6040820152610e0f60608401610c40565b60608201529392505050565b600060a08284031215610e2c578081fd5b60405160a081016001600160401b0381118282101715610e4857fe5b6040528235610e568161118e565b81526020830135610e66816111a6565b60208201526040830135610e79816111a6565b6040820152606083810135908201526080830135610e968161118e565b60808201529392505050565b600080600080600080600060e0888a031215610ebc578485fd5b8751610ec78161118e565b8097505060208801518060020b8114610ede578586fd5b9550610eec60408901610c2e565b9450610efa60608901610c2e565b9350610f0860808901610c2e565b925060a088015160ff81168114610f1d578283fd5b60c0890151909250610f2e816111a6565b8091505092959891949750929550565b600080600060608486031215610f52578081fd5b83519250602084015191506040840151610f6b8161118e565b809150509250925092565b60008151808452610f8e81602086016020860161115e565b601f01601f19169290920160200192915050565b6001600160a01b0391909116815260200190565b6001600160a01b0386811682528515156020830152604082018590528316606082015260a06080820181905260009061098590830184610f76565b60006020825261088c6020830184610f76565b602080825260049082015263515f5a4960e01b604082015260600190565b60208082526005908201526428afa329ab60d91b604082015260600190565b602080825260059082015264515f46305360d81b604082015260600190565b602080825260059082015264515f414e4360d81b604082015260600190565b602080825260059082015264515f554f4160d81b604082015260600190565b602080825260069082015265515f42544e4560d01b604082015260600190565b602080825260049082015263515f554560e01b604082015260600190565b815181526020808301519082015260408083015190820152606080830151908201526080918201516001600160a01b03169181019190915260a00190565b6040518181016001600160401b038111828210171561113557fe5b604052919050565b60006001600160401b0382111561115057fe5b50601f01601f191660200190565b60005b83811015611179578181015183820152602001611161565b83811115611188576000848401525b50505050565b6001600160a01b03811681146111a357600080fd5b50565b80151581146111a357600080fdfe496e697469616c697a61626c653a20636f6e747261637420697320616c726561647920696e697469616c697a6564536166654d6174683a206d756c7469706c69636174696f6e206f766572666c6f7753616665436173743a2076616c756520646f65736e27742066697420696e20616e20696e743235365369676e6564536166654d6174683a207375627472616374696f6e206f766572666c6f77a264697066735822122031ee0ab6ae96fc44e7c40ffc3ae4d227bcd045cea1f4349e5e5fab44c0ce100964736f6c63430007060033",
  "linkReferences": {},
  "deployedLinkReferences": {}
}