{
  "_format": "hh-sol-artifact-1",
  "contractName": "PerpV2MarketRegistry",
  "sourceName": "contracts/MarketRegistry.sol",
  "abi": [
    {
      "anonymous": false,
      "inputs": [
        {
          "indexed": true,
          "internalType": "address",
          "name": "clearingHouse",
          "type": "address"
        }
      ],
      "name": "ClearingHouseChanged",
      "type": "event"
    },
    {
      "anonymous": false,
      "inputs": [
        {
          "indexed": false,
          "internalType": "address",
          "name": "baseToken",
          "type": "address"
        },
        {
          "indexed": false,
          "internalType": "uint24",
          "name": "feeRatio",
          "type": "uint24"
        }
      ],
      "name": "FeeRatioChanged",
      "type": "event"
    },
    {
      "anonymous": false,
      "inputs": [
        {
          "indexed": false,
          "internalType": "uint24",
          "name": "feeRatio",
          "type": "uint24"
        }
      ],
      "name": "InsuranceFundFeeRatioChanged",
      "type": "event"
    },
    {
      "anonymous": false,
      "inputs": [
        {
          "indexed": false,
          "internalType": "uint8",
          "name": "maxOrdersPerMarket",
          "type": "uint8"
        }
      ],
      "name": "MaxOrdersPerMarketChanged",
      "type": "event"
    },
    {
      "anonymous": false,
      "inputs": [
        {
          "indexed": true,
          "internalType": "address",
          "name": "previousOwner",
          "type": "address"
        },
        {
          "indexed": true,
          "internalType": "address",
          "name": "newOwner",
          "type": "address"
        }
      ],
      "name": "OwnershipTransferred",
      "type": "event"
    },
    {
      "anonymous": false,
      "inputs": [
        {
          "indexed": true,
          "internalType": "address",
          "name": "baseToken",
          "type": "address"
        },
        {
          "indexed": true,
          "internalType": "uint24",
          "name": "feeRatio",
          "type": "uint24"
        },
        {
          "indexed": true,
          "internalType": "address",
          "name": "pool",
          "type": "address"
        }
      ],
      "name": "PoolAdded",
      "type": "event"
    },
    {
      "inputs": [
        {
          "internalType": "address",
          "name": "baseToken",
          "type": "address"
        },
        {
          "internalType": "uint24",
          "name": "feeRatio",
          "type": "uint24"
        }
      ],
      "name": "addPool",
      "outputs": [
        {
          "internalType": "address",
          "name": "",
          "type": "address"
        }
      ],
      "stateMutability": "nonpayable",
      "type": "function"
    },
    {
      "inputs": [],
      "name": "candidate",
      "outputs": [
        {
          "internalType": "address",
          "name": "",
          "type": "address"
        }
      ],
      "stateMutability": "view",
      "type": "function"
    },
    {
      "inputs": [],
      "name": "getClearingHouse",
      "outputs": [
        {
          "internalType": "address",
          "name": "",
          "type": "address"
        }
      ],
      "stateMutability": "view",
      "type": "function"
    },
    {
      "inputs": [
        {
          "internalType": "address",
          "name": "baseToken",
          "type": "address"
        }
      ],
      "name": "getFeeRatio",
      "outputs": [
        {
          "internalType": "uint24",
          "name": "",
          "type": "uint24"
        }
      ],
      "stateMutability": "view",
      "type": "function"
    },
    {
      "inputs": [
        {
          "internalType": "address",
          "name": "baseToken",
          "type": "address"
        }
      ],
      "name": "getInsuranceFundFeeRatio",
      "outputs": [
        {
          "internalType": "uint24",
          "name": "",
          "type": "uint24"
        }
      ],
      "stateMutability": "view",
      "type": "function"
    },
    {
      "inputs": [
        {
          "internalType": "address",
          "name": "baseToken",
          "type": "address"
        }
      ],
      "name": "getMarketInfo",
      "outputs": [
        {
          "components": [
            {
              "internalType": "address",
              "name": "pool",
              "type": "address"
            },
            {
              "internalType": "uint24",
              "name": "exchangeFeeRatio",
              "type": "uint24"
            },
            {
              "internalType": "uint24",
              "name": "uniswapFeeRatio",
              "type": "uint24"
            },
            {
              "internalType": "uint24",
              "name": "insuranceFundFeeRatio",
              "type": "uint24"
            }
          ],
          "internalType": "struct IMarketRegistry.MarketInfo",
          "name": "",
          "type": "tuple"
        }
      ],
      "stateMutability": "view",
      "type": "function"
    },
    {
      "inputs": [],
      "name": "getMaxOrdersPerMarket",
      "outputs": [
        {
          "internalType": "uint8",
          "name": "",
          "type": "uint8"
        }
      ],
      "stateMutability": "view",
      "type": "function"
    },
    {
      "inputs": [
        {
          "internalType": "address",
          "name": "baseToken",
          "type": "address"
        }
      ],
      "name": "getPool",
      "outputs": [
        {
          "internalType": "address",
          "name": "",
          "type": "address"
        }
      ],
      "stateMutability": "view",
      "type": "function"
    },
    {
      "inputs": [],
      "name": "getQuoteToken",
      "outputs": [
        {
          "internalType": "address",
          "name": "",
          "type": "address"
        }
      ],
      "stateMutability": "view",
      "type": "function"
    },
    {
      "inputs": [],
      "name": "getUniswapV3Factory",
      "outputs": [
        {
          "internalType": "address",
          "name": "",
          "type": "address"
        }
      ],
      "stateMutability": "view",
      "type": "function"
    },
    {
      "inputs": [
        {
          "internalType": "address",
          "name": "baseToken",
          "type": "address"
        }
      ],
      "name": "hasPool",
      "outputs": [
        {
          "internalType": "bool",
          "name": "",
          "type": "bool"
        }
      ],
      "stateMutability": "view",
      "type": "function"
    },
    {
      "inputs": [
        {
          "internalType": "address",
          "name": "uniswapV3FactoryArg",
          "type": "address"
        },
        {
          "internalType": "address",
          "name": "quoteTokenArg",
          "type": "address"
        }
      ],
      "name": "initialize",
      "outputs": [],
      "stateMutability": "nonpayable",
      "type": "function"
    },
    {
      "inputs": [],
      "name": "owner",
      "outputs": [
        {
          "internalType": "address",
          "name": "",
          "type": "address"
        }
      ],
      "stateMutability": "view",
      "type": "function"
    },
    {
      "inputs": [],
      "name": "renounceOwnership",
      "outputs": [],
      "stateMutability": "nonpayable",
      "type": "function"
    },
    {
      "inputs": [
        {
          "internalType": "address",
          "name": "clearingHouseArg",
          "type": "address"
        }
      ],
      "name": "setClearingHouse",
      "outputs": [],
      "stateMutability": "nonpayable",
      "type": "function"
    },
    {
      "inputs": [
        {
          "internalType": "address",
          "name": "baseToken",
          "type": "address"
        },
        {
          "internalType": "uint24",
          "name": "feeRatio",
          "type": "uint24"
        }
      ],
      "name": "setFeeRatio",
      "outputs": [],
      "stateMutability": "nonpayable",
      "type": "function"
    },
    {
      "inputs": [
        {
          "internalType": "address",
          "name": "baseToken",
          "type": "address"
        },
        {
          "internalType": "uint24",
          "name": "insuranceFundFeeRatioArg",
          "type": "uint24"
        }
      ],
      "name": "setInsuranceFundFeeRatio",
      "outputs": [],
      "stateMutability": "nonpayable",
      "type": "function"
    },
    {
      "inputs": [
        {
          "internalType": "uint8",
          "name": "maxOrdersPerMarketArg",
          "type": "uint8"
        }
      ],
      "name": "setMaxOrdersPerMarket",
      "outputs": [],
      "stateMutability": "nonpayable",
      "type": "function"
    },
    {
      "inputs": [
        {
          "internalType": "address",
          "name": "newOwner",
          "type": "address"
        }
      ],
      "name": "setOwner",
      "outputs": [],
      "stateMutability": "nonpayable",
      "type": "function"
    },
    {
      "inputs": [],
      "name": "updateOwner",
      "outputs": [],
      "stateMutability": "nonpayable",
      "type": "function"
    }
  ],
  "bytecode": "0x608060405234801561001057600080fd5b50611c6d806100206000396000f3fe608060405234801561001057600080fd5b50600436106100fc5760003560e01c806308ff49ad146101015780630cf85bcc1461012a5780631246dbf51461014a57806313af40351461016a5780633feb42121461017f578063449323d814610192578063485cc955146101a55780634a64d67d146101b85780636c8381f8146101cd578063715018a6146101d5578063831f72b4146101dd5780638da5cb5b146101f0578063b081983b146101f8578063bb235d1114610200578063bbe4f6db14610213578063bc5920ba14610226578063c575ff791461022e578063c7bf443414610236578063ece090c414610249578063edd0b5cb1461025e575b600080fd5b61011461010f36600461176c565b610271565b6040516101219190611ba7565b60405180910390f35b61013d61013836600461176c565b6102d7565b6040516101219190611b66565b61015d61015836600461176c565b610381565b604051610121919061196d565b61017d61017836600461176c565b6103a4565b005b61017d61018d3660046117e3565b6104ff565b61017d6101a036600461176c565b610625565b61017d6101b33660046117ab565b6106cc565b6101c0610812565b6040516101219190611913565b6101c0610821565b61017d610830565b61017d6101eb3660046118db565b6108d1565b6101c0610981565b6101c0610990565b61017d61020e3660046117e3565b61099f565b6101c061022136600461176c565b610ab9565b61017d610b14565b6101c0610c00565b6101c06102443660046117e3565b610c0f565b610251611229565b6040516101219190611bb7565b61011461026c36600461176c565b611239565b6001600160a01b038082166000908152609c602052604081205490918391166102b55760405162461bcd60e51b81526004016102ac90611b05565b60405180910390fd5b50506001600160a01b03166000908152609d602052604090205462ffffff1690565b6102df611703565b6001600160a01b038083166000908152609c60205260409020548391166103185760405162461bcd60e51b81526004016102ac90611b05565b5050604080516080810182526001600160a01b039283166000818152609c6020908152848220549095168352818152609e85528381205462ffffff90811686850152828252609f865284822054811684860152918152609d909452919092205416606082015290565b6001600160a01b038181166000908152609c60205260409020541615155b919050565b6103ac611296565b6001600160a01b03166103bd610981565b6001600160a01b031614610401576040805162461bcd60e51b8152602060048201526006602482015265534f5f434e4f60d01b604482015290519081900360640190fd5b6001600160a01b038116610445576040805162461bcd60e51b81526020600482015260066024820152650534f5f4e57360d41b604482015290519081900360640190fd5b6033546001600160a01b0382811691161415610491576040805162461bcd60e51b8152602060048201526006602482015265534f5f53414f60d01b604482015290519081900360640190fd5b6034546001600160a01b03828116911614156104dd576040805162461bcd60e51b8152602060048201526006602482015265534f5f53414360d01b604482015290519081900360640190fd5b603480546001600160a01b0319166001600160a01b0392909216919091179055565b6001600160a01b038083166000908152609c60205260409020548391166105385760405162461bcd60e51b81526004016102ac90611b05565b81620f42408162ffffff1611156105615760405162461bcd60e51b81526004016102ac90611a1e565b610569611296565b6001600160a01b031661057a610981565b6001600160a01b0316146105be576040805162461bcd60e51b8152602060048201526006602482015265534f5f434e4f60d01b604482015290519081900360640190fd5b6001600160a01b0384166000908152609d602052604090819020805462ffffff191662ffffff8616179055517f0b4bf524b123dd9f9252f2f17e6f842313eb705045a2259faccd2530bae3ff5c90610617908590611ba7565b60405180910390a150505050565b61062d611296565b6001600160a01b031661063e610981565b6001600160a01b031614610682576040805162461bcd60e51b8152602060048201526006602482015265534f5f434e4f60d01b604482015290519081900360640190fd5b606780546001600160a01b0319166001600160a01b0383169081179091556040517fd0654f5900f9e7e4e605a19334306e6a2786bbf960ac0484a4c12feb6428fe2f90600090a250565b600054610100900460ff16806106e557506106e561129a565b806106f3575060005460ff16155b61072e5760405162461bcd60e51b815260040180806020018281038252602e815260200180611bea602e913960400191505060405180910390fd5b600054610100900460ff16158015610759576000805460ff1961ff0019909116610100171660011790555b6107616112ab565b610773836001600160a01b0316611355565b61078f5760405162461bcd60e51b81526004016102ac906119fd565b6107a1826001600160a01b0316611355565b6107bd5760405162461bcd60e51b81526004016102ac906119dc565b609a80546001600160a01b038086166001600160a01b031992831617909255609b805460ff60a01b199386169216919091179190911660ff60a01b179055801561080d576000805461ff00191690555b505050565b609b546001600160a01b031690565b6034546001600160a01b031690565b610838611296565b6001600160a01b0316610849610981565b6001600160a01b03161461088d576040805162461bcd60e51b8152602060048201526006602482015265534f5f434e4f60d01b604482015290519081900360640190fd5b6033546040516000916001600160a01b031690600080516020611c18833981519152908390a3603380546001600160a01b0319908116909155603480549091169055565b6108d9611296565b6001600160a01b03166108ea610981565b6001600160a01b03161461092e576040805162461bcd60e51b8152602060048201526006602482015265534f5f434e4f60d01b604482015290519081900360640190fd5b609b805460ff60a01b1916600160a01b60ff8416021790556040517ff3d121ca0d4fa5acf57cf8a09acedf5326b6ca02f25764d2a05a4dba8e4a777e90610976908390611bb7565b60405180910390a150565b6033546001600160a01b031690565b609a546001600160a01b031690565b6001600160a01b038083166000908152609c60205260409020548391166109d85760405162461bcd60e51b81526004016102ac90611b05565b81620f42408162ffffff161115610a015760405162461bcd60e51b81526004016102ac90611a1e565b610a09611296565b6001600160a01b0316610a1a610981565b6001600160a01b031614610a5e576040805162461bcd60e51b8152602060048201526006602482015265534f5f434e4f60d01b604482015290519081900360640190fd5b6001600160a01b0384166000908152609e602052604090819020805462ffffff191662ffffff8616179055517f8129297a1a8d252870739804c1d9cdbc86121230ce172c23ec11a940ccab01ef90610617908690869061194f565b6001600160a01b038082166000908152609c60205260408120549091839116610af45760405162461bcd60e51b81526004016102ac90611b05565b50506001600160a01b039081166000908152609c60205260409020541690565b6034546001600160a01b0316610b59576040805162461bcd60e51b81526020600482015260056024820152640534f5f43360dc1b604482015290519081900360640190fd5b610b61611296565b6034546001600160a01b03908116911614610bac576040805162461bcd60e51b8152602060048201526006602482015265534f5f434e4360d01b604482015290519081900360640190fd5b6034546033546040516001600160a01b039283169290911690600080516020611c1883398151915290600090a360348054603380546001600160a01b03199081166001600160a01b03841617909155169055565b6067546001600160a01b031690565b6000610c19611296565b6001600160a01b0316610c2a610981565b6001600160a01b031614610c6e576040805162461bcd60e51b8152602060048201526006602482015265534f5f434e4f60d01b604482015290519081900360640190fd5b6001600160a01b038381166000908152609c60205260409020541615610ca65760405162461bcd60e51b81526004016102ac90611a5d565b826001600160a01b031663313ce5676040518163ffffffff1660e01b815260040160206040518083038186803b158015610cdf57600080fd5b505afa158015610cf3573d6000803e3d6000fd5b505050506040513d601f19601f82011682018060405250810190610d1791906118f7565b60ff16601214610d395760405162461bcd60e51b81526004016102ac90611b25565b6067546040516370a0823160e01b8152600019916001600160a01b03808716926370a0823192610d6d921690600401611913565b60206040518083038186803b158015610d8557600080fd5b505afa158015610d99573d6000803e3d6000fd5b505050506040513d601f19601f82011682018060405250810190610dbd91906118c3565b14610dda5760405162461bcd60e51b81526004016102ac906119ba565b609b54604080516318160ddd60e01b81529051600019926001600160a01b0316916318160ddd916004808301926020929190829003018186803b158015610e2057600080fd5b505afa158015610e34573d6000803e3d6000fd5b505050506040513d601f19601f82011682018060405250810190610e5891906118c3565b14610e755760405162461bcd60e51b81526004016102ac90611ac0565b609b546001600160a01b0390811690841610610ea35760405162461bcd60e51b81526004016102ac90611b47565b609a54609b54600091610ec4916001600160a01b039182169116868661135b565b90506001600160a01b038116610eec5760405162461bcd60e51b81526004016102ac9061199a565b6000610ef7826113fb565b5050505050506001600160a01b031690508060001415610f295760405162461bcd60e51b81526004016102ac90611a3d565b6067546040516304fec10960e11b81526001600160a01b03878116926309fd821292610f5b9290911690600401611913565b60206040518083038186803b158015610f7357600080fd5b505afa158015610f87573d6000803e3d6000fd5b505050506040513d601f19601f82011682018060405250810190610fab9190611817565b610fc75760405162461bcd60e51b81526004016102ac90611a9e565b6040516304fec10960e11b81526001600160a01b038616906309fd821290610ff3908590600401611913565b60206040518083038186803b15801561100b57600080fd5b505afa15801561101f573d6000803e3d6000fd5b505050506040513d601f19601f820116820180604052508101906110439190611817565b61105f5760405162461bcd60e51b81526004016102ac90611a7c565b609b546067546040516304fec10960e11b81526001600160a01b03928316926309fd82129261109392911690600401611913565b60206040518083038186803b1580156110ab57600080fd5b505afa1580156110bf573d6000803e3d6000fd5b505050506040513d601f19601f820116820180604052508101906110e39190611817565b6110ff5760405162461bcd60e51b81526004016102ac90611ae2565b609b546040516304fec10960e11b81526001600160a01b03909116906309fd82129061112f908590600401611913565b60206040518083038186803b15801561114757600080fd5b505afa15801561115b573d6000803e3d6000fd5b505050506040513d601f19601f8201168201806040525081019061117f9190611817565b61119b5760405162461bcd60e51b81526004016102ac90611978565b6001600160a01b038086166000818152609c6020908152604080832080549588166001600160a01b031990961686179055609f8252808320805462ffffff8b1662ffffff199182168117909255609e90935281842080549093168117909255519092917f8b17db32f8ec22477a8f9475d5b92052ef2ce8c6c73ad79be1eb297a8fdd2ff191a4509392505050565b609b54600160a01b900460ff1690565b6001600160a01b038082166000908152609c602052604081205490918391166112745760405162461bcd60e51b81526004016102ac90611b05565b50506001600160a01b03166000908152609e602052604090205462ffffff1690565b3390565b60006112a530611355565b15905090565b600054610100900460ff16806112c457506112c461129a565b806112d2575060005460ff16155b61130d5760405162461bcd60e51b815260040180806020018281038252602e815260200180611bea602e913960400191505060405180910390fd5b600054610100900460ff16158015611338576000805460ff1961ff0019909116610100171660011790555b61134061148e565b8015611352576000805461ff00191690555b50565b3b151590565b60008061136985858561157d565b80516020820151604051630b4c774160e11b81529293506001600160a01b03891692631698ee82926113a19290918890600401611927565b60206040518083038186803b1580156113b957600080fd5b505afa1580156113cd573d6000803e3d6000fd5b505050506040513d601f19601f820116820180604052508101906113f1919061178f565b9695505050505050565b6000806000806000806000876001600160a01b0316633850c7bd6040518163ffffffff1660e01b815260040160e06040518083038186803b15801561143f57600080fd5b505afa158015611453573d6000803e3d6000fd5b505050506040513d601f19601f820116820180604052508101906114779190611831565b959e949d50929b5090995097509550909350915050565b600054610100900460ff16806114a757506114a761129a565b806114b5575060005460ff16155b6114f05760405162461bcd60e51b815260040180806020018281038252602e815260200180611bea602e913960400191505060405180910390fd5b600054610100900460ff1615801561151b576000805460ff1961ff0019909116610100171660011790555b6115236115d3565b600061152d611296565b603380546001600160a01b0319166001600160a01b03831690811790915560405191925090600090600080516020611c18833981519152908290a3508015611352576000805461ff001916905550565b61158561172a565b826001600160a01b0316846001600160a01b031611156115a3579192915b50604080516060810182526001600160a01b03948516815292909316602083015262ffffff169181019190915290565b600054610100900460ff16806115ec57506115ec61129a565b806115fa575060005460ff16155b6116355760405162461bcd60e51b815260040180806020018281038252602e815260200180611bea602e913960400191505060405180910390fd5b600054610100900460ff16158015611660576000805460ff1961ff0019909116610100171660011790555b611340600054610100900460ff168061167c575061167c61129a565b8061168a575060005460ff16155b6116c55760405162461bcd60e51b815260040180806020018281038252602e815260200180611bea602e913960400191505060405180910390fd5b600054610100900460ff16158015611340576000805460ff1961ff0019909116610100171660011790558015611352576000805461ff001916905550565b60408051608081018252600080825260208201819052918101829052606081019190915290565b604080516060810182526000808252602082018190529181019190915290565b8051801515811461039f57600080fd5b805161ffff8116811461039f57600080fd5b60006020828403121561177d578081fd5b813561178881611bc5565b9392505050565b6000602082840312156117a0578081fd5b815161178881611bc5565b600080604083850312156117bd578081fd5b82356117c881611bc5565b915060208301356117d881611bc5565b809150509250929050565b600080604083850312156117f5578182fd5b823561180081611bc5565b9150602083013562ffffff811681146117d8578182fd5b600060208284031215611828578081fd5b6117888261174a565b600080600080600080600060e0888a03121561184b578283fd5b875161185681611bc5565b8097505060208801518060020b811461186d578384fd5b955061187b6040890161175a565b94506118896060890161175a565b93506118976080890161175a565b925060a08801516118a781611bda565b91506118b560c0890161174a565b905092959891949750929550565b6000602082840312156118d4578081fd5b5051919050565b6000602082840312156118ec578081fd5b813561178881611bda565b600060208284031215611908578081fd5b815161178881611bda565b6001600160a01b0391909116815260200190565b6001600160a01b03938416815291909216602082015262ffffff909116604082015260600190565b6001600160a01b0392909216825262ffffff16602082015260400190565b901515815260200190565b602080825260089082015267135497d4139455d360c21b604082015260600190565b60208082526006908201526504d525f4e45560d41b604082015260600190565b6020808252600890820152674d525f4348424e4560c01b604082015260600190565b6020808252600790820152664d525f51544e4360c81b604082015260600190565b6020808252600790820152664d525f55464e4360c81b604082015260600190565b6020808252600590820152644d525f524f60d81b604082015260600190565b6020808252600690820152654d525f504e4960d01b604082015260600190565b60208082526005908201526404d525f45560dc1b604082015260600190565b602080825260089082015267135497d4139095d360c21b604082015260600190565b602080825260089082015267135497d0d39095d360c21b604082015260600190565b6020808252600890820152674d525f5154534e4560c01b604082015260600190565b602080825260099082015268135497d0d2139455d360ba1b604082015260600190565b6020808252600690820152654d525f504e4560d01b604082015260600190565b60208082526008908201526709aa4be84889c62760c31b604082015260600190565b60208082526005908201526426a92fa4a160d91b604082015260600190565b81516001600160a01b0316815260208083015162ffffff90811691830191909152604080840151821690830152606092830151169181019190915260800190565b62ffffff91909116815260200190565b60ff91909116815260200190565b6001600160a01b038116811461135257600080fd5b60ff8116811461135257600080fdfe496e697469616c697a61626c653a20636f6e747261637420697320616c726561647920696e697469616c697a65648be0079c531659141344cd1fd0a4f28419497f9722a3daafe3b4186f6b6457e0a2646970667358221220fb99bcc0aa6a1839bcc964559341b56085374f6efce7eb081c0ea1aa18195a9664736f6c63430007060033",
  "linkReferences": {},
  "deployedLinkReferences": {}
}