{
  "_format": "hh-sol-artifact-1",
  "contractName": "PerpV2BaseToken",
  "sourceName": "contracts/BaseToken.sol",
  "abi": [
    {
      "anonymous": false,
      "inputs": [
        {
          "indexed": true,
          "internalType": "address",
          "name": "owner",
          "type": "address"
        },
        {
          "indexed": true,
          "internalType": "address",
          "name": "spender",
          "type": "address"
        },
        {
          "indexed": false,
          "internalType": "uint256",
          "name": "value",
          "type": "uint256"
        }
      ],
      "name": "Approval",
      "type": "event"
    },
    {
      "anonymous": false,
      "inputs": [
        {
          "indexed": true,
          "internalType": "address",
          "name": "previousOwner",
          "type": "address"
        },
        {
          "indexed": true,
          "internalType": "address",
          "name": "newOwner",
          "type": "address"
        }
      ],
      "name": "OwnershipTransferred",
      "type": "event"
    },
    {
      "anonymous": false,
      "inputs": [
        {
          "indexed": true,
          "internalType": "address",
          "name": "from",
          "type": "address"
        },
        {
          "indexed": true,
          "internalType": "address",
          "name": "to",
          "type": "address"
        },
        {
          "indexed": false,
          "internalType": "uint256",
          "name": "value",
          "type": "uint256"
        }
      ],
      "name": "Transfer",
      "type": "event"
    },
    {
      "anonymous": false,
      "inputs": [
        {
          "indexed": false,
          "internalType": "address",
          "name": "account",
          "type": "address"
        }
      ],
      "name": "WhitelistAdded",
      "type": "event"
    },
    {
      "anonymous": false,
      "inputs": [
        {
          "indexed": false,
          "internalType": "address",
          "name": "account",
          "type": "address"
        }
      ],
      "name": "WhitelistRemoved",
      "type": "event"
    },
    {
      "inputs": [
        {
          "internalType": "address",
          "name": "account",
          "type": "address"
        }
      ],
      "name": "addWhitelist",
      "outputs": [],
      "stateMutability": "nonpayable",
      "type": "function"
    },
    {
      "inputs": [
        {
          "internalType": "address",
          "name": "owner",
          "type": "address"
        },
        {
          "internalType": "address",
          "name": "spender",
          "type": "address"
        }
      ],
      "name": "allowance",
      "outputs": [
        {
          "internalType": "uint256",
          "name": "",
          "type": "uint256"
        }
      ],
      "stateMutability": "view",
      "type": "function"
    },
    {
      "inputs": [
        {
          "internalType": "address",
          "name": "spender",
          "type": "address"
        },
        {
          "internalType": "uint256",
          "name": "amount",
          "type": "uint256"
        }
      ],
      "name": "approve",
      "outputs": [
        {
          "internalType": "bool",
          "name": "",
          "type": "bool"
        }
      ],
      "stateMutability": "nonpayable",
      "type": "function"
    },
    {
      "inputs": [
        {
          "internalType": "address",
          "name": "account",
          "type": "address"
        }
      ],
      "name": "balanceOf",
      "outputs": [
        {
          "internalType": "uint256",
          "name": "",
          "type": "uint256"
        }
      ],
      "stateMutability": "view",
      "type": "function"
    },
    {
      "inputs": [],
      "name": "candidate",
      "outputs": [
        {
          "internalType": "address",
          "name": "",
          "type": "address"
        }
      ],
      "stateMutability": "view",
      "type": "function"
    },
    {
      "inputs": [],
      "name": "decimals",
      "outputs": [
        {
          "internalType": "uint8",
          "name": "",
          "type": "uint8"
        }
      ],
      "stateMutability": "view",
      "type": "function"
    },
    {
      "inputs": [
        {
          "internalType": "address",
          "name": "spender",
          "type": "address"
        },
        {
          "internalType": "uint256",
          "name": "subtractedValue",
          "type": "uint256"
        }
      ],
      "name": "decreaseAllowance",
      "outputs": [
        {
          "internalType": "bool",
          "name": "",
          "type": "bool"
        }
      ],
      "stateMutability": "nonpayable",
      "type": "function"
    },
    {
      "inputs": [
        {
          "internalType": "uint256",
          "name": "interval",
          "type": "uint256"
        }
      ],
      "name": "getIndexPrice",
      "outputs": [
        {
          "internalType": "uint256",
          "name": "",
          "type": "uint256"
        }
      ],
      "stateMutability": "view",
      "type": "function"
    },
    {
      "inputs": [
        {
          "internalType": "address",
          "name": "spender",
          "type": "address"
        },
        {
          "internalType": "uint256",
          "name": "addedValue",
          "type": "uint256"
        }
      ],
      "name": "increaseAllowance",
      "outputs": [
        {
          "internalType": "bool",
          "name": "",
          "type": "bool"
        }
      ],
      "stateMutability": "nonpayable",
      "type": "function"
    },
    {
      "inputs": [
        {
          "internalType": "string",
          "name": "nameArg",
          "type": "string"
        },
        {
          "internalType": "string",
          "name": "symbolArg",
          "type": "string"
        },
        {
          "internalType": "address",
          "name": "priceFeedArg",
          "type": "address"
        }
      ],
      "name": "initialize",
      "outputs": [],
      "stateMutability": "nonpayable",
      "type": "function"
    },
    {
      "inputs": [
        {
          "internalType": "address",
          "name": "account",
          "type": "address"
        }
      ],
      "name": "isInWhitelist",
      "outputs": [
        {
          "internalType": "bool",
          "name": "",
          "type": "bool"
        }
      ],
      "stateMutability": "view",
      "type": "function"
    },
    {
      "inputs": [
        {
          "internalType": "address",
          "name": "recipient",
          "type": "address"
        }
      ],
      "name": "mintMaximumTo",
      "outputs": [],
      "stateMutability": "nonpayable",
      "type": "function"
    },
    {
      "inputs": [],
      "name": "name",
      "outputs": [
        {
          "internalType": "string",
          "name": "",
          "type": "string"
        }
      ],
      "stateMutability": "view",
      "type": "function"
    },
    {
      "inputs": [],
      "name": "owner",
      "outputs": [
        {
          "internalType": "address",
          "name": "",
          "type": "address"
        }
      ],
      "stateMutability": "view",
      "type": "function"
    },
    {
      "inputs": [],
      "name": "priceFeed",
      "outputs": [
        {
          "internalType": "address",
          "name": "",
          "type": "address"
        }
      ],
      "stateMutability": "view",
      "type": "function"
    },
    {
      "inputs": [
        {
          "internalType": "address",
          "name": "account",
          "type": "address"
        }
      ],
      "name": "removeWhitelist",
      "outputs": [],
      "stateMutability": "nonpayable",
      "type": "function"
    },
    {
      "inputs": [],
      "name": "renounceOwnership",
      "outputs": [],
      "stateMutability": "nonpayable",
      "type": "function"
    },
    {
      "inputs": [
        {
          "internalType": "address",
          "name": "newOwner",
          "type": "address"
        }
      ],
      "name": "setOwner",
      "outputs": [],
      "stateMutability": "nonpayable",
      "type": "function"
    },
    {
      "inputs": [],
      "name": "symbol",
      "outputs": [
        {
          "internalType": "string",
          "name": "",
          "type": "string"
        }
      ],
      "stateMutability": "view",
      "type": "function"
    },
    {
      "inputs": [],
      "name": "totalSupply",
      "outputs": [
        {
          "internalType": "uint256",
          "name": "",
          "type": "uint256"
        }
      ],
      "stateMutability": "view",
      "type": "function"
    },
    {
      "inputs": [
        {
          "internalType": "address",
          "name": "recipient",
          "type": "address"
        },
        {
          "internalType": "uint256",
          "name": "amount",
          "type": "uint256"
        }
      ],
      "name": "transfer",
      "outputs": [
        {
          "internalType": "bool",
          "name": "",
          "type": "bool"
        }
      ],
      "stateMutability": "nonpayable",
      "type": "function"
    },
    {
      "inputs": [
        {
          "internalType": "address",
          "name": "sender",
          "type": "address"
        },
        {
          "internalType": "address",
          "name": "recipient",
          "type": "address"
        },
        {
          "internalType": "uint256",
          "name": "amount",
          "type": "uint256"
        }
      ],
      "name": "transferFrom",
      "outputs": [
        {
          "internalType": "bool",
          "name": "",
          "type": "bool"
        }
      ],
      "stateMutability": "nonpayable",
      "type": "function"
    },
    {
      "inputs": [],
      "name": "updateOwner",
      "outputs": [],
      "stateMutability": "nonpayable",
      "type": "function"
    }
  ],
  "bytecode": "0x608060405234801561001057600080fd5b50611ca8806100206000396000f3fe608060405234801561001057600080fd5b506004361061011d5760003560e01c806306fdde0314610122578063077f224a1461019f578063095ea7b3146102d557806309fd821214610315578063120806471461033b57806313af40351461036a57806318160ddd1461039057806323b872dd14610398578063313ce567146103ce57806339509351146103ec5780636c8381f81461041857806370a082311461043c578063715018a614610462578063741bef1a1461046a57806378c8cda7146104725780638da5cb5b1461049857806395d89b41146104a0578063a457c2d7146104a8578063a9059cbb146104d4578063bc5920ba14610500578063dd62ed3e14610508578063f52e308e14610536578063f80f5dd51461055c575b600080fd5b61012a610582565b6040805160208082528351818301528351919283929083019185019080838360005b8381101561016457818101518382015260200161014c565b50505050905090810190601f1680156101915780820380516001836020036101000a031916815260200191505b509250505060405180910390f35b6102d3600480360360608110156101b557600080fd5b810190602081018135600160201b8111156101cf57600080fd5b8201836020820111156101e157600080fd5b803590602001918460018302840111600160201b8311171561020257600080fd5b91908080601f0160208091040260200160405190810160405280939291908181526020018383808284376000920191909152509295949360208101935035915050600160201b81111561025457600080fd5b82018360208201111561026657600080fd5b803590602001918460018302840111600160201b8311171561028757600080fd5b91908080601f016020809104026020016040519081016040528093929190818152602001838380828437600092019190915250929550505090356001600160a01b031691506106189050565b005b610301600480360360408110156102eb57600080fd5b506001600160a01b038135169060200135610859565b604080519115158252519081900360200190f35b6103016004803603602081101561032b57600080fd5b50356001600160a01b0316610877565b6103586004803603602081101561035157600080fd5b5035610895565b60408051918252519081900360200190f35b6102d36004803603602081101561038057600080fd5b50356001600160a01b0316610924565b610358610a7f565b610301600480360360608110156103ae57600080fd5b506001600160a01b03813581169160208101359091169060400135610a85565b6103d6610b0c565b6040805160ff9092168252519081900360200190f35b6103016004803603604081101561040257600080fd5b506001600160a01b038135169060200135610b15565b610420610b63565b604080516001600160a01b039092168252519081900360200190f35b6103586004803603602081101561045257600080fd5b50356001600160a01b0316610b72565b6102d3610b8d565b610420610c2e565b6102d36004803603602081101561048857600080fd5b50356001600160a01b0316610c42565b610420610cf7565b61012a610d06565b610301600480360360408110156104be57600080fd5b506001600160a01b038135169060200135610d67565b610301600480360360408110156104ea57600080fd5b506001600160a01b038135169060200135610dcf565b6102d3610de3565b6103586004803603604081101561051e57600080fd5b506001600160a01b0381358116916020013516610ecf565b6102d36004803603602081101561054c57600080fd5b50356001600160a01b0316610efa565b6102d36004803603602081101561057257600080fd5b50356001600160a01b0316610f66565b606a8054604080516020601f600260001961010060018816150201909516949094049384018190048102820181019092528281526060939092909183018282801561060e5780601f106105e35761010080835404028352916020019161060e565b820191906000526020600020905b8154815290600101906020018083116105f157829003601f168201915b5050505050905090565b600054610100900460ff1680610631575061063161101e565b8061063f575060005460ff16155b61067a5760405162461bcd60e51b815260040180806020018281038252602e815260200180611b4e602e913960400191505060405180910390fd5b600054610100900460ff161580156106a5576000805460ff1961ff0019909116610100171660011790555b6106af848461102f565b6001600160a01b0382166106f2576040805162461bcd60e51b815260206004820152600560248201526442545f494160d81b604482015290519081900360640190fd5b6106fa610b0c565b60ff16826001600160a01b031663313ce5676040518163ffffffff1660e01b815260040160206040518083038186803b15801561073657600080fd5b505afa15801561074a573d6000803e3d6000fd5b505050506040513d602081101561076057600080fd5b505160ff1611156107a2576040805162461bcd60e51b8152602060048201526007602482015266109517d254119160ca1b604482015290519081900360640190fd5b8160cc60016101000a8154816001600160a01b0302191690836001600160a01b03160217905550816001600160a01b031663313ce5676040518163ffffffff1660e01b815260040160206040518083038186803b15801561080257600080fd5b505afa158015610816573d6000803e3d6000fd5b505050506040513d602081101561082c57600080fd5b505160cc805460ff191660ff9092169190911790558015610853576000805461ff00191690555b50505050565b600061086d61086661111a565b848461111e565b5060015b92915050565b6001600160a01b031660009081526099602052604090205460ff1690565b600061087160cc60019054906101000a90046001600160a01b03166001600160a01b031663e7572230846040518263ffffffff1660e01b81526004018082815260200191505060206040518083038186803b1580156108f357600080fd5b505afa158015610907573d6000803e3d6000fd5b505050506040513d602081101561091d57600080fd5b505161120a565b61092c61111a565b6001600160a01b031661093d610cf7565b6001600160a01b031614610981576040805162461bcd60e51b8152602060048201526006602482015265534f5f434e4f60d01b604482015290519081900360640190fd5b6001600160a01b0381166109c5576040805162461bcd60e51b81526020600482015260066024820152650534f5f4e57360d41b604482015290519081900360640190fd5b6033546001600160a01b0382811691161415610a11576040805162461bcd60e51b8152602060048201526006602482015265534f5f53414f60d01b604482015290519081900360640190fd5b6034546001600160a01b0382811691161415610a5d576040805162461bcd60e51b8152602060048201526006602482015265534f5f53414360d01b604482015290519081900360640190fd5b603480546001600160a01b0319166001600160a01b0392909216919091179055565b60695490565b6000610a92848484611238565b610b0284610a9e61111a565b610afd85604051806060016040528060288152602001611b9d602891396001600160a01b038a16600090815260686020526040812090610adc61111a565b6001600160a01b031681526020810191909152604001600020549190611383565b61111e565b5060019392505050565b606c5460ff1690565b600061086d610b2261111a565b84610afd8560686000610b3361111a565b6001600160a01b03908116825260208083019390935260409182016000908120918c16815292529020549061141a565b6034546001600160a01b031690565b6001600160a01b031660009081526067602052604090205490565b610b9561111a565b6001600160a01b0316610ba6610cf7565b6001600160a01b031614610bea576040805162461bcd60e51b8152602060048201526006602482015265534f5f434e4f60d01b604482015290519081900360640190fd5b6033546040516000916001600160a01b031690600080516020611bc5833981519152908390a3603380546001600160a01b0319908116909155603480549091169055565b60cc5461010090046001600160a01b031681565b610c4a61111a565b6001600160a01b0316610c5b610cf7565b6001600160a01b031614610c9f576040805162461bcd60e51b8152602060048201526006602482015265534f5f434e4f60d01b604482015290519081900360640190fd5b6001600160a01b038116600081815260996020908152604091829020805460ff19169055815192835290517fde8cf212af7ce38b2840785a2768d97ff2dbf3c21b516961cec0061e134c2a1e9281900390910190a150565b6033546001600160a01b031690565b606b8054604080516020601f600260001961010060018816150201909516949094049384018190048102820181019092528281526060939092909183018282801561060e5780601f106105e35761010080835404028352916020019161060e565b600061086d610d7461111a565b84610afd85604051806060016040528060258152602001611c4e6025913960686000610d9e61111a565b6001600160a01b03908116825260208083019390935260409182016000908120918d16815292529020549190611383565b600061086d610ddc61111a565b8484611238565b6034546001600160a01b0316610e28576040805162461bcd60e51b81526020600482015260056024820152640534f5f43360dc1b604482015290519081900360640190fd5b610e3061111a565b6034546001600160a01b03908116911614610e7b576040805162461bcd60e51b8152602060048201526006602482015265534f5f434e4360d01b604482015290519081900360640190fd5b6034546033546040516001600160a01b039283169290911690600080516020611bc583398151915290600090a360348054603380546001600160a01b03199081166001600160a01b03841617909155169055565b6001600160a01b03918216600090815260686020908152604080832093909416825291909152205490565b610f0261111a565b6001600160a01b0316610f13610cf7565b6001600160a01b031614610f57576040805162461bcd60e51b8152602060048201526006602482015265534f5f434e4f60d01b604482015290519081900360640190fd5b610f6381600019611479565b50565b610f6e61111a565b6001600160a01b0316610f7f610cf7565b6001600160a01b031614610fc3576040805162461bcd60e51b8152602060048201526006602482015265534f5f434e4f60d01b604482015290519081900360640190fd5b6001600160a01b038116600081815260996020908152604091829020805460ff19166001179055815192835290517f4790a4adb426ca2345bb5108f6e454eae852a7bf687544cd66a7270dff3a41d69281900390910190a150565b600061102930611559565b15905090565b600054610100900460ff1680611048575061104861101e565b80611056575060005460ff16155b6110915760405162461bcd60e51b815260040180806020018281038252602e815260200180611b4e602e913960400191505060405180910390fd5b600054610100900460ff161580156110bc576000805460ff1961ff0019909116610100171660011790555b6110c461155f565b6110ce838361164e565b6000805260996020527f235d629dc802037ded8c61cb27fb29e40fa01b299719d8f991ffe20bdcc59f4f805460ff191660011790558015611115576000805461ff00191690555b505050565b3390565b6001600160a01b0383166111635760405162461bcd60e51b8152600401808060200182810382526024815260200180611c2a6024913960400191505060405180910390fd5b6001600160a01b0382166111a85760405162461bcd60e51b8152600401808060200182810382526022815260200180611b066022913960400191505060405180910390fd5b6001600160a01b03808416600081815260686020908152604080832094871680845294825291829020859055815185815291517f8c5be1e5ebec7d5bd14f71427d1e84f3dd0314c0f7b2291e5b200ac8c7c3b9259281900390910190a3505050565b60cc546000906108719060ff16600a0a611232611225610b0c565b859060ff16600a0a611703565b9061175c565b6001600160a01b03831661127d5760405162461bcd60e51b8152600401808060200182810382526025815260200180611c056025913960400191505060405180910390fd5b6001600160a01b0382166112c25760405162461bcd60e51b8152600401808060200182810382526023815260200180611ae36023913960400191505060405180910390fd5b6112cd8383836117c0565b61130a81604051806060016040528060268152602001611b28602691396001600160a01b0386166000908152606760205260409020549190611383565b6001600160a01b038085166000908152606760205260408082209390935590841681522054611339908261141a565b6001600160a01b038084166000818152606760209081526040918290209490945580518581529051919392871692600080516020611be583398151915292918290030190a3505050565b600081848411156114125760405162461bcd60e51b81526004018080602001828103825283818151815260200191508051906020019080838360005b838110156113d75781810151838201526020016113bf565b50505050905090810190601f1680156114045780820380516001836020036101000a031916815260200191505b509250505060405180910390fd5b505050900390565b600082820183811015611472576040805162461bcd60e51b815260206004820152601b60248201527a536166654d6174683a206164646974696f6e206f766572666c6f7760281b604482015290519081900360640190fd5b9392505050565b6001600160a01b0382166114d4576040805162461bcd60e51b815260206004820152601f60248201527f45524332303a206d696e7420746f20746865207a65726f206164647265737300604482015290519081900360640190fd5b6114e0600083836117c0565b6069546114ed908261141a565b6069556001600160a01b038216600090815260676020526040902054611513908261141a565b6001600160a01b0383166000818152606760209081526040808320949094558351858152935192939192600080516020611be58339815191529281900390910190a35050565b3b151590565b600054610100900460ff1680611578575061157861101e565b80611586575060005460ff16155b6115c15760405162461bcd60e51b815260040180806020018281038252602e815260200180611b4e602e913960400191505060405180910390fd5b600054610100900460ff161580156115ec576000805460ff1961ff0019909116610100171660011790555b6115f4611820565b60006115fe61111a565b603380546001600160a01b0319166001600160a01b03831690811790915560405191925090600090600080516020611bc5833981519152908290a3508015610f63576000805461ff001916905550565b600054610100900460ff1680611667575061166761101e565b80611675575060005460ff16155b6116b05760405162461bcd60e51b815260040180806020018281038252602e815260200180611b4e602e913960400191505060405180910390fd5b600054610100900460ff161580156116db576000805460ff1961ff0019909116610100171660011790555b6116e36118c9565b6116ed8383611969565b8015611115576000805461ff0019169055505050565b60008261171257506000610871565b8282028284828161171f57fe5b04146114725760405162461bcd60e51b8152600401808060200182810382526021815260200180611b7c6021913960400191505060405180910390fd5b60008082116117af576040805162461bcd60e51b815260206004820152601a602482015279536166654d6174683a206469766973696f6e206279207a65726f60301b604482015290519081900360640190fd5b8183816117b857fe5b049392505050565b6117cb838383611115565b6001600160a01b03831660009081526099602052604090205460ff16611115576040805162461bcd60e51b815260206004820152600560248201526456545f4e5760d81b604482015290519081900360640190fd5b600054610100900460ff1680611839575061183961101e565b80611847575060005460ff16155b6118825760405162461bcd60e51b815260040180806020018281038252602e815260200180611b4e602e913960400191505060405180910390fd5b600054610100900460ff161580156118ad576000805460ff1961ff0019909116610100171660011790555b6118b56118c9565b8015610f63576000805461ff001916905550565b600054610100900460ff16806118e257506118e261101e565b806118f0575060005460ff16155b61192b5760405162461bcd60e51b815260040180806020018281038252602e815260200180611b4e602e913960400191505060405180910390fd5b600054610100900460ff161580156118b5576000805460ff1961ff0019909116610100171660011790558015610f63576000805461ff001916905550565b600054610100900460ff1680611982575061198261101e565b80611990575060005460ff16155b6119cb5760405162461bcd60e51b815260040180806020018281038252602e815260200180611b4e602e913960400191505060405180910390fd5b600054610100900460ff161580156119f6576000805460ff1961ff0019909116610100171660011790555b8251611a0990606a906020860190611a41565b508151611a1d90606b906020850190611a41565b50606c805460ff191660121790558015611115576000805461ff0019169055505050565b828054600181600116156101000203166002900490600052602060002090601f016020900481019282611a775760008555611abd565b82601f10611a9057805160ff1916838001178555611abd565b82800160010185558215611abd579182015b82811115611abd578251825591602001919060010190611aa2565b50611ac9929150611acd565b5090565b5b80821115611ac95760008155600101611ace56fe45524332303a207472616e7366657220746f20746865207a65726f206164647265737345524332303a20617070726f766520746f20746865207a65726f206164647265737345524332303a207472616e7366657220616d6f756e7420657863656564732062616c616e6365496e697469616c697a61626c653a20636f6e747261637420697320616c726561647920696e697469616c697a6564536166654d6174683a206d756c7469706c69636174696f6e206f766572666c6f7745524332303a207472616e7366657220616d6f756e74206578636565647320616c6c6f77616e63658be0079c531659141344cd1fd0a4f28419497f9722a3daafe3b4186f6b6457e0ddf252ad1be2c89b69c2b068fc378daa952ba7f163c4a11628f55a4df523b3ef45524332303a207472616e736665722066726f6d20746865207a65726f206164647265737345524332303a20617070726f76652066726f6d20746865207a65726f206164647265737345524332303a2064656372656173656420616c6c6f77616e63652062656c6f77207a65726fa26469706673582212200d71e9f209b04673a3bde66be118f3099c95f8262c4dc0765ed1aba85f16139064736f6c63430007060033",
  "linkReferences": {},
  "deployedLinkReferences": {}
}