{
  "_format": "hh-sol-artifact-1",
  "contractName": "PerpV2ClearingHouse",
  "sourceName": "contracts/ClearingHouse.sol",
  "abi": [
    {
      "anonymous": false,
      "inputs": [
        {
          "indexed": true,
          "internalType": "address",
          "name": "baseToken",
          "type": "address"
        },
        {
          "indexed": false,
          "internalType": "uint256",
          "name": "markTwap",
          "type": "uint256"
        },
        {
          "indexed": false,
          "internalType": "uint256",
          "name": "indexTwap",
          "type": "uint256"
        }
      ],
      "name": "FundingUpdated",
      "type": "event"
    },
    {
      "anonymous": false,
      "inputs": [
        {
          "indexed": true,
          "internalType": "address",
          "name": "maker",
          "type": "address"
        },
        {
          "indexed": true,
          "internalType": "address",
          "name": "baseToken",
          "type": "address"
        },
        {
          "indexed": true,
          "internalType": "address",
          "name": "quoteToken",
          "type": "address"
        },
        {
          "indexed": false,
          "internalType": "int24",
          "name": "lowerTick",
          "type": "int24"
        },
        {
          "indexed": false,
          "internalType": "int24",
          "name": "upperTick",
          "type": "int24"
        },
        {
          "indexed": false,
          "internalType": "int256",
          "name": "base",
          "type": "int256"
        },
        {
          "indexed": false,
          "internalType": "int256",
          "name": "quote",
          "type": "int256"
        },
        {
          "indexed": false,
          "internalType": "int128",
          "name": "liquidity",
          "type": "int128"
        },
        {
          "indexed": false,
          "internalType": "uint256",
          "name": "quoteFee",
          "type": "uint256"
        }
      ],
      "name": "LiquidityChanged",
      "type": "event"
    },
    {
      "anonymous": false,
      "inputs": [
        {
          "indexed": true,
          "internalType": "address",
          "name": "previousOwner",
          "type": "address"
        },
        {
          "indexed": true,
          "internalType": "address",
          "name": "newOwner",
          "type": "address"
        }
      ],
      "name": "OwnershipTransferred",
      "type": "event"
    },
    {
      "anonymous": false,
      "inputs": [
        {
          "indexed": false,
          "internalType": "address",
          "name": "account",
          "type": "address"
        }
      ],
      "name": "Paused",
      "type": "event"
    },
    {
      "anonymous": false,
      "inputs": [
        {
          "indexed": true,
          "internalType": "address",
          "name": "trader",
          "type": "address"
        },
        {
          "indexed": true,
          "internalType": "address",
          "name": "baseToken",
          "type": "address"
        },
        {
          "indexed": false,
          "internalType": "int256",
          "name": "exchangedPositionSize",
          "type": "int256"
        },
        {
          "indexed": false,
          "internalType": "int256",
          "name": "exchangedPositionNotional",
          "type": "int256"
        },
        {
          "indexed": false,
          "internalType": "uint256",
          "name": "fee",
          "type": "uint256"
        },
        {
          "indexed": false,
          "internalType": "int256",
          "name": "openNotional",
          "type": "int256"
        },
        {
          "indexed": false,
          "internalType": "int256",
          "name": "realizedPnl",
          "type": "int256"
        },
        {
          "indexed": false,
          "internalType": "uint256",
          "name": "sqrtPriceAfter",
          "type": "uint256"
        }
      ],
      "name": "PositionChanged",
      "type": "event"
    },
    {
      "anonymous": false,
      "inputs": [
        {
          "indexed": true,
          "internalType": "address",
          "name": "trader",
          "type": "address"
        },
        {
          "indexed": true,
          "internalType": "address",
          "name": "baseToken",
          "type": "address"
        },
        {
          "indexed": false,
          "internalType": "uint256",
          "name": "positionNotional",
          "type": "uint256"
        },
        {
          "indexed": false,
          "internalType": "uint256",
          "name": "positionSize",
          "type": "uint256"
        },
        {
          "indexed": false,
          "internalType": "uint256",
          "name": "liquidationFee",
          "type": "uint256"
        },
        {
          "indexed": false,
          "internalType": "address",
          "name": "liquidator",
          "type": "address"
        }
      ],
      "name": "PositionLiquidated",
      "type": "event"
    },
    {
      "anonymous": false,
      "inputs": [
        {
          "indexed": true,
          "internalType": "bytes32",
          "name": "referralCode",
          "type": "bytes32"
        }
      ],
      "name": "ReferredPositionChanged",
      "type": "event"
    },
    {
      "anonymous": false,
      "inputs": [
        {
          "indexed": true,
          "internalType": "address",
          "name": "forwarder",
          "type": "address"
        }
      ],
      "name": "TrustedForwarderChanged",
      "type": "event"
    },
    {
      "anonymous": false,
      "inputs": [
        {
          "indexed": false,
          "internalType": "address",
          "name": "trustedForwarder",
          "type": "address"
        }
      ],
      "name": "TrustedForwarderUpdated",
      "type": "event"
    },
    {
      "anonymous": false,
      "inputs": [
        {
          "indexed": false,
          "internalType": "address",
          "name": "account",
          "type": "address"
        }
      ],
      "name": "Unpaused",
      "type": "event"
    },
    {
      "inputs": [
        {
          "components": [
            {
              "internalType": "address",
              "name": "baseToken",
              "type": "address"
            },
            {
              "internalType": "uint256",
              "name": "base",
              "type": "uint256"
            },
            {
              "internalType": "uint256",
              "name": "quote",
              "type": "uint256"
            },
            {
              "internalType": "int24",
              "name": "lowerTick",
              "type": "int24"
            },
            {
              "internalType": "int24",
              "name": "upperTick",
              "type": "int24"
            },
            {
              "internalType": "uint256",
              "name": "minBase",
              "type": "uint256"
            },
            {
              "internalType": "uint256",
              "name": "minQuote",
              "type": "uint256"
            },
            {
              "internalType": "bool",
              "name": "useTakerBalance",
              "type": "bool"
            },
            {
              "internalType": "uint256",
              "name": "deadline",
              "type": "uint256"
            }
          ],
          "internalType": "struct IClearingHouse.AddLiquidityParams",
          "name": "params",
          "type": "tuple"
        }
      ],
      "name": "addLiquidity",
      "outputs": [
        {
          "components": [
            {
              "internalType": "uint256",
              "name": "base",
              "type": "uint256"
            },
            {
              "internalType": "uint256",
              "name": "quote",
              "type": "uint256"
            },
            {
              "internalType": "uint256",
              "name": "fee",
              "type": "uint256"
            },
            {
              "internalType": "uint256",
              "name": "liquidity",
              "type": "uint256"
            }
          ],
          "internalType": "struct IClearingHouse.AddLiquidityResponse",
          "name": "",
          "type": "tuple"
        }
      ],
      "stateMutability": "nonpayable",
      "type": "function"
    },
    {
      "inputs": [
        {
          "internalType": "address",
          "name": "maker",
          "type": "address"
        },
        {
          "internalType": "address",
          "name": "baseToken",
          "type": "address"
        }
      ],
      "name": "cancelAllExcessOrders",
      "outputs": [],
      "stateMutability": "nonpayable",
      "type": "function"
    },
    {
      "inputs": [
        {
          "internalType": "address",
          "name": "maker",
          "type": "address"
        },
        {
          "internalType": "address",
          "name": "baseToken",
          "type": "address"
        },
        {
          "internalType": "bytes32[]",
          "name": "orderIds",
          "type": "bytes32[]"
        }
      ],
      "name": "cancelExcessOrders",
      "outputs": [],
      "stateMutability": "nonpayable",
      "type": "function"
    },
    {
      "inputs": [],
      "name": "candidate",
      "outputs": [
        {
          "internalType": "address",
          "name": "",
          "type": "address"
        }
      ],
      "stateMutability": "view",
      "type": "function"
    },
    {
      "inputs": [
        {
          "components": [
            {
              "internalType": "address",
              "name": "baseToken",
              "type": "address"
            },
            {
              "internalType": "uint160",
              "name": "sqrtPriceLimitX96",
              "type": "uint160"
            },
            {
              "internalType": "uint256",
              "name": "oppositeAmountBound",
              "type": "uint256"
            },
            {
              "internalType": "uint256",
              "name": "deadline",
              "type": "uint256"
            },
            {
              "internalType": "bytes32",
              "name": "referralCode",
              "type": "bytes32"
            }
          ],
          "internalType": "struct IClearingHouse.ClosePositionParams",
          "name": "params",
          "type": "tuple"
        }
      ],
      "name": "closePosition",
      "outputs": [
        {
          "internalType": "uint256",
          "name": "deltaBase",
          "type": "uint256"
        },
        {
          "internalType": "uint256",
          "name": "deltaQuote",
          "type": "uint256"
        }
      ],
      "stateMutability": "nonpayable",
      "type": "function"
    },
    {
      "inputs": [],
      "name": "getAccountBalance",
      "outputs": [
        {
          "internalType": "address",
          "name": "",
          "type": "address"
        }
      ],
      "stateMutability": "view",
      "type": "function"
    },
    {
      "inputs": [
        {
          "internalType": "address",
          "name": "trader",
          "type": "address"
        }
      ],
      "name": "getAccountValue",
      "outputs": [
        {
          "internalType": "int256",
          "name": "",
          "type": "int256"
        }
      ],
      "stateMutability": "view",
      "type": "function"
    },
    {
      "inputs": [],
      "name": "getClearingHouseConfig",
      "outputs": [
        {
          "internalType": "address",
          "name": "",
          "type": "address"
        }
      ],
      "stateMutability": "view",
      "type": "function"
    },
    {
      "inputs": [],
      "name": "getExchange",
      "outputs": [
        {
          "internalType": "address",
          "name": "",
          "type": "address"
        }
      ],
      "stateMutability": "view",
      "type": "function"
    },
    {
      "inputs": [],
      "name": "getOrderBook",
      "outputs": [
        {
          "internalType": "address",
          "name": "",
          "type": "address"
        }
      ],
      "stateMutability": "view",
      "type": "function"
    },
    {
      "inputs": [],
      "name": "getQuoteToken",
      "outputs": [
        {
          "internalType": "address",
          "name": "",
          "type": "address"
        }
      ],
      "stateMutability": "view",
      "type": "function"
    },
    {
      "inputs": [],
      "name": "getTrustedForwarder",
      "outputs": [
        {
          "internalType": "address",
          "name": "",
          "type": "address"
        }
      ],
      "stateMutability": "view",
      "type": "function"
    },
    {
      "inputs": [],
      "name": "getUniswapV3Factory",
      "outputs": [
        {
          "internalType": "address",
          "name": "",
          "type": "address"
        }
      ],
      "stateMutability": "view",
      "type": "function"
    },
    {
      "inputs": [],
      "name": "getVault",
      "outputs": [
        {
          "internalType": "address",
          "name": "",
          "type": "address"
        }
      ],
      "stateMutability": "view",
      "type": "function"
    },
    {
      "inputs": [
        {
          "internalType": "address",
          "name": "clearingHouseConfigArg",
          "type": "address"
        },
        {
          "internalType": "address",
          "name": "vaultArg",
          "type": "address"
        },
        {
          "internalType": "address",
          "name": "quoteTokenArg",
          "type": "address"
        },
        {
          "internalType": "address",
          "name": "uniV3FactoryArg",
          "type": "address"
        },
        {
          "internalType": "address",
          "name": "exchangeArg",
          "type": "address"
        },
        {
          "internalType": "address",
          "name": "accountBalanceArg",
          "type": "address"
        }
      ],
      "name": "initialize",
      "outputs": [],
      "stateMutability": "nonpayable",
      "type": "function"
    },
    {
      "inputs": [
        {
          "internalType": "address",
          "name": "forwarder",
          "type": "address"
        }
      ],
      "name": "isTrustedForwarder",
      "outputs": [
        {
          "internalType": "bool",
          "name": "",
          "type": "bool"
        }
      ],
      "stateMutability": "view",
      "type": "function"
    },
    {
      "inputs": [
        {
          "internalType": "address",
          "name": "trader",
          "type": "address"
        },
        {
          "internalType": "address",
          "name": "baseToken",
          "type": "address"
        }
      ],
      "name": "liquidate",
      "outputs": [],
      "stateMutability": "nonpayable",
      "type": "function"
    },
    {
      "inputs": [
        {
          "components": [
            {
              "internalType": "address",
              "name": "baseToken",
              "type": "address"
            },
            {
              "internalType": "bool",
              "name": "isBaseToQuote",
              "type": "bool"
            },
            {
              "internalType": "bool",
              "name": "isExactInput",
              "type": "bool"
            },
            {
              "internalType": "uint256",
              "name": "amount",
              "type": "uint256"
            },
            {
              "internalType": "uint256",
              "name": "oppositeAmountBound",
              "type": "uint256"
            },
            {
              "internalType": "uint256",
              "name": "deadline",
              "type": "uint256"
            },
            {
              "internalType": "uint160",
              "name": "sqrtPriceLimitX96",
              "type": "uint160"
            },
            {
              "internalType": "bytes32",
              "name": "referralCode",
              "type": "bytes32"
            }
          ],
          "internalType": "struct IClearingHouse.OpenPositionParams",
          "name": "params",
          "type": "tuple"
        }
      ],
      "name": "openPosition",
      "outputs": [
        {
          "internalType": "uint256",
          "name": "deltaBase",
          "type": "uint256"
        },
        {
          "internalType": "uint256",
          "name": "deltaQuote",
          "type": "uint256"
        }
      ],
      "stateMutability": "nonpayable",
      "type": "function"
    },
    {
      "inputs": [],
      "name": "owner",
      "outputs": [
        {
          "internalType": "address",
          "name": "",
          "type": "address"
        }
      ],
      "stateMutability": "view",
      "type": "function"
    },
    {
      "inputs": [],
      "name": "pause",
      "outputs": [],
      "stateMutability": "nonpayable",
      "type": "function"
    },
    {
      "inputs": [],
      "name": "paused",
      "outputs": [
        {
          "internalType": "bool",
          "name": "",
          "type": "bool"
        }
      ],
      "stateMutability": "view",
      "type": "function"
    },
    {
      "inputs": [
        {
          "components": [
            {
              "internalType": "address",
              "name": "baseToken",
              "type": "address"
            },
            {
              "internalType": "int24",
              "name": "lowerTick",
              "type": "int24"
            },
            {
              "internalType": "int24",
              "name": "upperTick",
              "type": "int24"
            },
            {
              "internalType": "uint128",
              "name": "liquidity",
              "type": "uint128"
            },
            {
              "internalType": "uint256",
              "name": "minBase",
              "type": "uint256"
            },
            {
              "internalType": "uint256",
              "name": "minQuote",
              "type": "uint256"
            },
            {
              "internalType": "uint256",
              "name": "deadline",
              "type": "uint256"
            }
          ],
          "internalType": "struct IClearingHouse.RemoveLiquidityParams",
          "name": "params",
          "type": "tuple"
        }
      ],
      "name": "removeLiquidity",
      "outputs": [
        {
          "components": [
            {
              "internalType": "uint256",
              "name": "base",
              "type": "uint256"
            },
            {
              "internalType": "uint256",
              "name": "quote",
              "type": "uint256"
            },
            {
              "internalType": "uint256",
              "name": "fee",
              "type": "uint256"
            }
          ],
          "internalType": "struct IClearingHouse.RemoveLiquidityResponse",
          "name": "",
          "type": "tuple"
        }
      ],
      "stateMutability": "nonpayable",
      "type": "function"
    },
    {
      "inputs": [],
      "name": "renounceOwnership",
      "outputs": [],
      "stateMutability": "nonpayable",
      "type": "function"
    },
    {
      "inputs": [
        {
          "internalType": "address",
          "name": "newOwner",
          "type": "address"
        }
      ],
      "name": "setOwner",
      "outputs": [],
      "stateMutability": "nonpayable",
      "type": "function"
    },
    {
      "inputs": [
        {
          "internalType": "address",
          "name": "trustedForwarderArg",
          "type": "address"
        }
      ],
      "name": "setTrustedForwarder",
      "outputs": [],
      "stateMutability": "nonpayable",
      "type": "function"
    },
    {
      "inputs": [
        {
          "internalType": "address",
          "name": "trader",
          "type": "address"
        }
      ],
      "name": "settleAllFundingAndPendingFee",
      "outputs": [],
      "stateMutability": "nonpayable",
      "type": "function"
    },
    {
      "inputs": [
        {
          "internalType": "uint256",
          "name": "amount0Owed",
          "type": "uint256"
        },
        {
          "internalType": "uint256",
          "name": "amount1Owed",
          "type": "uint256"
        },
        {
          "internalType": "bytes",
          "name": "data",
          "type": "bytes"
        }
      ],
      "name": "uniswapV3MintCallback",
      "outputs": [],
      "stateMutability": "nonpayable",
      "type": "function"
    },
    {
      "inputs": [
        {
          "internalType": "int256",
          "name": "amount0Delta",
          "type": "int256"
        },
        {
          "internalType": "int256",
          "name": "amount1Delta",
          "type": "int256"
        },
        {
          "internalType": "bytes",
          "name": "data",
          "type": "bytes"
        }
      ],
      "name": "uniswapV3SwapCallback",
      "outputs": [],
      "stateMutability": "nonpayable",
      "type": "function"
    },
    {
      "inputs": [],
      "name": "unpause",
      "outputs": [],
      "stateMutability": "nonpayable",
      "type": "function"
    },
    {
      "inputs": [],
      "name": "updateOwner",
      "outputs": [],
      "stateMutability": "nonpayable",
      "type": "function"
    },
    {
      "inputs": [],
      "name": "versionRecipient",
      "outputs": [
        {
          "internalType": "string",
          "name": "",
          "type": "string"
        }
      ],
      "stateMutability": "pure",
      "type": "function"
    }
  ],
  "bytecode": "0x608060405234801561001057600080fd5b5061598080620000216000396000f3fe608060405234801561001057600080fd5b50600436106101745760003560e01c8062aa9a891461017957806313af4035146101a35780633f4ba83a146101b8578063486ff0cd146101c05780634a64d67d146101d5578063572b6c05146101ea5780635ae809511461020a5780635c975abb1461022a5780636896fabf146102325780636c8381f81461023a578063715018a61461024257806380a983321461024a5780638456cb591461025d57806386b9d81f146102655780638d928af8146102785780638da5cb5b14610280578063aa2a829414610288578063b081983b14610290578063b248c4ef14610298578063b6b1b6c3146102a0578063bc5920ba146102b3578063c35eb28c146102bb578063cc2a9a5b146102db578063cc3606dc146102ee578063cde109b614610301578063ce1b815f14610321578063d348799714610329578063da7422281461033c578063f807cd221461034f578063fa461e3314610357578063fbfbd1691461036a575b600080fd5b61018c610187366004614b61565b61037d565b60405161019a9291906156d6565b60405180910390f35b6101b66101b136600461475d565b610686565b005b6101b66107e1565b6101c8610848565b60405161019a9190615153565b6101dd610868565b60405161019a9190614f89565b6101fd6101f836600461475d565b610878565b60405161019a91906150ce565b61021d61021836600461475d565b61088f565b60405161019a91906150d9565b6101fd610a76565b6101dd610a7f565b6101dd610a8f565b6101b6610a9e565b6101b661025836600461484e565b610b3f565b6101b6610c22565b6101b6610273366004614795565b610c87565b6101dd611108565b6101dd611118565b6101dd611127565b6101dd611137565b6101dd611147565b61018c6102ae366004614cf7565b611157565b6101b661141c565b6102ce6102c9366004614ae5565b611508565b60405161019a919061559d565b6101b66102e93660046147cd565b611dbe565b6101b66102fc366004614795565b6121c3565b61031461030f366004614d9b565b6122f9565b60405161019a9190615658565b6101dd612826565b6101b6610337366004614a68565b612835565b6101b661034a36600461475d565b612ab9565b6101dd612b84565b6101b6610365366004614a68565b612b94565b6101b661037836600461475d565b612db9565b600080610388610a76565b156103cd576040805162461bcd60e51b815260206004820152601060248201526f14185d5cd8589b194e881c185d5cd95960821b604482015290519081900360640190fd5b60026001541415610413576040805162461bcd60e51b815260206004820152601f60248201526000805160206157a1833981519152604482015290519081900360640190fd5b60026001556060830135806104266131e3565b111561044d5760405162461bcd60e51b8152600401610444906153c5565b60405180910390fd5b60006104576131e7565b610134549091506001600160a01b0316631e81ac338261047a602089018961475d565b6040518363ffffffff1660e01b8152600401610497929190614f9d565b6040805180830381600087803b1580156104b057600080fd5b505af11580156104c4573d6000803e3d6000fd5b505050506040513d601f19601f820116820180604052508101906104e89190614b72565b50600061054c6040518060600160405280846001600160a01b0316815260200188600001602081019061051b919061475d565b6001600160a01b0316815260200188602001602081019061053c919061475d565b6001600160a01b031690526131f6565b9050600080826040015112610562576000610565565b60015b9050600082610120015161057d578760400135610607565b6101325460408051633a14199b60e11b81529051610607926001600160a01b0316916374283336916004808301926020929190829003018186803b1580156105c457600080fd5b505afa1580156105d8573d6000803e3d6000fd5b505050506040513d601f19601f820116820180604052508101906105fc9190614f4c565b60408a01359061331c565b90506106446040518060a001604052808415158152602001841515815260200185602001518152602001856000015181526020018381525061333a565b60808801351561066c5760405160808901359060008051602061582983398151915290600090a25b505080516020909101516001805590969095509350505050565b61068e6131e7565b6001600160a01b031661069f611118565b6001600160a01b0316146106e3576040805162461bcd60e51b8152602060048201526006602482015265534f5f434e4f60d01b604482015290519081900360640190fd5b6001600160a01b038116610727576040805162461bcd60e51b81526020600482015260066024820152650534f5f4e57360d41b604482015290519081900360640190fd5b6065546001600160a01b0382811691161415610773576040805162461bcd60e51b8152602060048201526006602482015265534f5f53414f60d01b604482015290519081900360640190fd5b6066546001600160a01b03828116911614156107bf576040805162461bcd60e51b8152602060048201526006602482015265534f5f53414360d01b604482015290519081900360640190fd5b606680546001600160a01b0319166001600160a01b0392909216919091179055565b6107e96131e7565b6001600160a01b03166107fa611118565b6001600160a01b03161461083e576040805162461bcd60e51b8152602060048201526006602482015265534f5f434e4f60d01b604482015290519081900360640190fd5b610846613410565b565b6040805180820190915260058152640322e302e360dc1b60208201525b90565b610130546001600160a01b031690565b60fd546001600160a01b038281169116145b919050565b610134546040516380f57f1160e01b815260009182916001600160a01b03909116906380f57f11906108c5908690600401614f89565b60206040518083038186803b1580156108dd57600080fd5b505afa1580156108f1573d6000803e3d6000fd5b505050506040513d601f19601f820116820180604052508101906109159190614a50565b6101365460405163bba85bcf60e01b8152919250600091829182916001600160a01b039091169063bba85bcf90610950908990600401614f89565b60606040518083038186803b15801561096857600080fd5b505afa15801561097c573d6000803e3d6000fd5b505050506040513d601f19601f820116820180604052508101906109a09190614ab8565b6101335460405163f8b2cb4f60e01b81529396509194509250600091610a41916001600160a01b03169063f8b2cb4f906109de908b90600401614f89565b60206040518083038186803b1580156109f657600080fd5b505afa158015610a0a573d6000803e3d6000fd5b505050506040513d601f19601f82011682018060405250810190610a2e9190614a50565b61013154600160a01b900460ff166134b0565b9050610a6b610a4f836134c6565b610a658581610a5e898b613512565b8690613577565b90613577565b979650505050505050565b60995460ff1690565b610136546001600160a01b031690565b6066546001600160a01b031690565b610aa66131e7565b6001600160a01b0316610ab7611118565b6001600160a01b031614610afb576040805162461bcd60e51b8152602060048201526006602482015265534f5f434e4f60d01b604482015290519081900360640190fd5b6065546040516000916001600160a01b031690600080516020615898833981519152908390a3606580546001600160a01b0319908116909155606680549091169055565b610b47610a76565b15610b8c576040805162461bcd60e51b815260206004820152601060248201526f14185d5cd8589b194e881c185d5cd95960821b604482015290519081900360640190fd5b60026001541415610bd2576040805162461bcd60e51b815260206004820152601f60248201526000805160206157a1833981519152604482015290519081900360640190fd5b6002600181905550610c1884848484808060200260200160405190810160405280939291908181526020018383602002808284376000920191909152506135dc92505050565b5050600180555050565b610c2a6131e7565b6001600160a01b0316610c3b611118565b6001600160a01b031614610c7f576040805162461bcd60e51b8152602060048201526006602482015265534f5f434e4f60d01b604482015290519081900360640190fd5b610846613837565b610c8f610a76565b15610cd4576040805162461bcd60e51b815260206004820152601060248201526f14185d5cd8589b194e881c185d5cd95960821b604482015290519081900360640190fd5b60026001541415610d1a576040805162461bcd60e51b815260206004820152601f60248201526000805160206157a1833981519152604482015290519081900360640190fd5b60026001556101365460405163659e3dc760e11b81526001600160a01b039091169063cb3c7b8e90610d50908590600401614f89565b60206040518083038186803b158015610d6857600080fd5b505afa158015610d7c573d6000803e3d6000fd5b505050506040513d601f19601f82011682018060405250810190610da09190614a18565b15610dbd5760405162461bcd60e51b81526004016104449061550f565b6101365460405163f75c266d60e01b81526001600160a01b039091169063f75c266d90610dee908590600401614f89565b60206040518083038186803b158015610e0657600080fd5b505afa158015610e1a573d6000803e3d6000fd5b505050506040513d601f19601f82011682018060405250810190610e3e9190614a50565b610e478361088f565b12610e645760405162461bcd60e51b8152600401610444906151c8565b61013454604051631e81ac3360e01b81526001600160a01b0390911690631e81ac3390610e979085908590600401614f9d565b6040805180830381600087803b158015610eb057600080fd5b505af1158015610ec4573d6000803e3d6000fd5b505050506040513d601f19601f82011682018060405250810190610ee89190614b72565b50604080516060810182526001600160a01b038085168252831660208201526000918101829052610f18906131f6565b90506000610fb961013260009054906101000a90046001600160a01b03166001600160a01b031663fedf924b6040518163ffffffff1660e01b815260040160206040518083038186803b158015610f6e57600080fd5b505afa158015610f82573d6000803e3d6000fd5b505050506040513d601f19601f82011682018060405250810190610fa69190614f4c565b610fb384606001516138ba565b9061331c565b610136549091506001600160a01b0316633772470285610fd8846138e3565b6040518363ffffffff1660e01b8152600401610ff5929190615078565b600060405180830381600087803b15801561100f57600080fd5b505af1158015611023573d6000803e3d6000fd5b5050505060006110316131e7565b610136549091506001600160a01b0316633772470282611050856134c6565b6040518363ffffffff1660e01b815260040161106d929190615078565b600060405180830381600087803b15801561108757600080fd5b505af115801561109b573d6000803e3d6000fd5b50505050836001600160a01b0316856001600160a01b03167fd9aced30440caca81570436bc942f816cfd95a3f08f700a2aeb6334c7cb5b4976110e186606001516138ba565b86516040516110f5929190889088906156e4565b60405180910390a3505060018055505050565b610133546001600160a01b031690565b6065546001600160a01b031690565b610132546001600160a01b031690565b610131546001600160a01b031690565b610135546001600160a01b031690565b600080611162610a76565b156111a7576040805162461bcd60e51b815260206004820152601060248201526f14185d5cd8589b194e881c185d5cd95960821b604482015290519081900360640190fd5b600260015414156111ed576040805162461bcd60e51b815260206004820152601f60248201526000805160206157a1833981519152604482015290519081900360640190fd5b600260015560a0830151806112006131e3565b111561121e5760405162461bcd60e51b8152600401610444906153c5565b60006112286131e7565b610136548651604051633f1cdc8560e21b81529293506001600160a01b039091169163fc7372149161125f91859190600401614f9d565b600060405180830381600087803b15801561127957600080fd5b505af115801561128d573d6000803e3d6000fd5b5050610134548751604051631e81ac3360e01b81526001600160a01b039092169350631e81ac3392506112c591859190600401614f9d565b6040805180830381600087803b1580156112de57600080fd5b505af11580156112f2573d6000803e3d6000fd5b505050506040513d601f19601f820116820180604052508101906113169190614b72565b506000611394604051806101000160405280846001600160a01b0316815260200188600001516001600160a01b03168152602001886020015115158152602001886040015115158152602001600015158152602001886060015181526020018860c001516001600160a01b03168152602001600015158152506138f7565b90506113dd6040518060a001604052808860200151151581526020018860400151151581526020018360200151815260200183600001518152602001886080015181525061333a565b60e0860151156114045760e086015160405160008051602061582983398151915290600090a25b80516020909101516001805590969095509350505050565b6066546001600160a01b0316611461576040805162461bcd60e51b81526020600482015260056024820152640534f5f43360dc1b604482015290519081900360640190fd5b6114696131e7565b6066546001600160a01b039081169116146114b4576040805162461bcd60e51b8152602060048201526006602482015265534f5f434e4360d01b604482015290519081900360640190fd5b6066546065546040516001600160a01b03928316929091169060008051602061589883398151915290600090a360668054606580546001600160a01b03199081166001600160a01b03841617909155169055565b61151061463f565b611518610a76565b1561155d576040805162461bcd60e51b815260206004820152601060248201526f14185d5cd8589b194e881c185d5cd95960821b604482015290519081900360640190fd5b600260015414156115a3576040805162461bcd60e51b815260206004820152601f60248201526000805160206157a1833981519152604482015290519081900360640190fd5b6002600155610100820135806115b76131e3565b11156115d55760405162461bcd60e51b8152600401610444906153c5565b60006115df6131e7565b610136549091506001600160a01b031663fc73721482611602602088018861475d565b6040518363ffffffff1660e01b815260040161161f929190614f9d565b600060405180830381600087803b15801561163957600080fd5b505af115801561164d573d6000803e3d6000fd5b505061013454600092506001600160a01b03169050631e81ac3383611675602089018961475d565b6040518363ffffffff1660e01b8152600401611692929190614f9d565b6040805180830381600087803b1580156116ab57600080fd5b505af11580156116bf573d6000803e3d6000fd5b505050506040513d601f19601f820116820180604052508101906116e39190614b72565b610135546040805160e081019091526001600160a01b0385811682529293506000929091169063e8ab2fb390602080820190611721908b018b61475d565b6001600160a01b0316815260200189602001358152602001896040013581526020018960600160208101906117569190614a34565b60020b815260200161176e60a08b0160808c01614a34565b60020b8152602001858152506040518263ffffffff1660e01b8152600401611796919061552f565b608060405180830381600087803b1580156117b057600080fd5b505af11580156117c4573d6000803e3d6000fd5b505050506040513d601f19601f820116820180604052508101906117e89190614afd565b90508560a0013581600001511015801561180a57508560c00135816020015110155b6118265760405162461bcd60e51b8152600401610444906154cf565b611837610100870160e088016149fc565b15611c5357805160208201519015159015158114156118685760405162461bcd60e51b815260040161044490615489565b610136546000906001600160a01b0316636332fef68661188b60208c018c61475d565b6040518363ffffffff1660e01b81526004016118a8929190614f9d565b60606040518083038186803b1580156118c057600080fd5b505afa1580156118d4573d6000803e3d6000fd5b505050506040513d601f19601f820116820180604052508101906118f89190614bb9565b9050600080831561195e57845161190e906134c6565b8351121561192e5760405162461bcd60e51b815260040161044490615426565b8451611939906138e3565b83516020850151919350611957916119519085613ac3565b90613b6c565b90506119b6565b61196b85602001516134c6565b8360200151121561198e5760405162461bcd60e51b815260040161044490615447565b61199b85602001516138e3565b602084015184519192506119b3916119519084613ac3565b91505b610135546001600160a01b031663b0c04174611a04896119d960208f018f61475d565b8e60600160208101906119ec9190614a34565b8f60800160208101906119ff9190614a34565b613c24565b84846040518463ffffffff1660e01b8152600401611a24939291906150e2565b600060405180830381600087803b158015611a3e57600080fd5b505af1158015611a52573d6000803e3d6000fd5b5050610136546001600160a01b0316915063ea45a8f9905088611a7860208e018e61475d565b85856040518563ffffffff1660e01b8152600401611a999493929190615019565b600060405180830381600087803b158015611ab357600080fd5b505af1158015611ac7573d6000803e3d6000fd5b505061013654600092506001600160a01b0316905063d50d01b789611aef60208f018f61475d565b6040518363ffffffff1660e01b8152600401611b0c929190614f9d565b60206040518083038186803b158015611b2457600080fd5b505afa158015611b38573d6000803e3d6000fd5b505050506040513d601f19601f82011682018060405250810190611b5c9190614a50565b610134549091506000906001600160a01b03166399e4a771611b8160208f018f61475d565b60006040518363ffffffff1660e01b8152600401611ba0929190615091565b60206040518083038186803b158015611bb857600080fd5b505afa158015611bcc573d6000803e3d6000fd5b505050506040513d601f19601f82011682018060405250810190611bf09190614779565b6001600160a01b03169050611c0860208d018d61475d565b6001600160a01b0316896001600160a01b03166000805160206157c18339815191528686600087600088604051611c449695949392919061512b565b60405180910390a35050505050505b6101365460408201516001600160a01b03909116906337724702908590611c79906134c6565b6040518363ffffffff1660e01b8152600401611c96929190615078565b600060405180830381600087803b158015611cb057600080fd5b505af1158015611cc4573d6000803e3d6000fd5b50505050611cd183613c80565b610130546001600160a01b0316611ceb602088018861475d565b6001600160a01b039081169085166000805160206158df833981519152611d1860808b0160608c01614a34565b611d2860a08c0160808d01614a34565b8651611d33906134c6565b611d4088602001516134c6565b611d5689606001516001600160801b0316613cf3565b8960400151604051611d6d969594939291906150f8565b60405180910390a4604051806080016040528082600001518152602001826020015181526020018260400151815260200182606001516001600160801b031681525094505050505060018055919050565b600054610100900460ff1680611dd75750611dd7613d36565b80611de5575060005460ff16155b611e205760405162461bcd60e51b815260040180806020018281038252602e815260200180615849602e913960400191505060405180910390fd5b600054610100900460ff16158015611e4b576000805460ff1961ff0019909116610100171660011790555b611e5d866001600160a01b0316613d47565b611e795760405162461bcd60e51b8152600401610444906153e4565b611e8b856001600160a01b0316613d47565b611ea75760405162461bcd60e51b8152600401610444906152ad565b846001600160a01b031663313ce5676040518163ffffffff1660e01b815260040160206040518083038186803b158015611ee057600080fd5b505afa158015611ef4573d6000803e3d6000fd5b505050506040513d601f19601f82011682018060405250810190611f189190614f68565b60ff16601214611f3a5760405162461bcd60e51b8152600401610444906151a6565b611f4c846001600160a01b0316613d47565b611f685760405162461bcd60e51b815260040161044490615249565b611f7a876001600160a01b0316613d47565b611f965760405162461bcd60e51b8152600401610444906152ee565b611fa8826001600160a01b0316613d47565b611fc45760405162461bcd60e51b815260040161044490615228565b611fd6836001600160a01b0316613d47565b611ff25760405162461bcd60e51b81526004016104449061530f565b6000836001600160a01b031663b248c4ef6040518163ffffffff1660e01b815260040160206040518083038186803b15801561202d57600080fd5b505afa158015612041573d6000803e3d6000fd5b505050506040513d601f19601f820116820180604052508101906120659190614779565b9050612079816001600160a01b0316613d47565b6120955760405162461bcd60e51b815260040161044490615365565b61209d613d4d565b6120a5613df6565b61013280546001600160a01b03199081166001600160a01b038b811691909117909255610133805482168a84161790819055610130805483168a85161790556101318054831689851617905561013480548316888516179055610135805483168585161790556101368054909216868416179091556040805163313ce56760e01b81529051919092169163313ce567916004808301926020929190829003018186803b15801561215457600080fd5b505afa158015612168573d6000803e3d6000fd5b505050506040513d601f19601f8201168201806040525081019061218c9190614f68565b61013160146101000a81548160ff021916908360ff1602179055505080156121ba576000805461ff00191690555b50505050505050565b6121cb610a76565b15612210576040805162461bcd60e51b815260206004820152601060248201526f14185d5cd8589b194e881c185d5cd95960821b604482015290519081900360640190fd5b60026001541415612256576040805162461bcd60e51b815260206004820152601f60248201526000805160206157a1833981519152604482015290519081900360640190fd5b6002600155610135546040516321b499f560e11b81526000916001600160a01b03169063436933ea9061228f9086908690600401614f9d565b60006040518083038186803b1580156122a757600080fd5b505afa1580156122bb573d6000803e3d6000fd5b505050506040513d6000823e601f3d908101601f191682016040526122e39190810190614979565b90506122f08383836135dc565b50506001805550565b612301614667565b612309610a76565b1561234e576040805162461bcd60e51b815260206004820152601060248201526f14185d5cd8589b194e881c185d5cd95960821b604482015290519081900360640190fd5b60026001541415612394576040805162461bcd60e51b815260206004820152601f60248201526000805160206157a1833981519152604482015290519081900360640190fd5b600260015560c0820135806123a76131e3565b11156123c55760405162461bcd60e51b8152600401610444906153c5565b60006123cf6131e7565b610134549091506001600160a01b0316631e81ac33826123f2602088018861475d565b6040518363ffffffff1660e01b815260040161240f929190614f9d565b6040805180830381600087803b15801561242857600080fd5b505af115801561243c573d6000803e3d6000fd5b505050506040513d601f19601f820116820180604052508101906124609190614b72565b50610135546040805160a081019091526001600160a01b0383811682526000921690635b778b9d9060208082019061249a908a018a61475d565b6001600160a01b031681526020018860200160208101906124bb9190614a34565b60020b81526020016124d360608a0160408b01614a34565b60020b81526020016124eb60808a0160608b01614f30565b6001600160801b03168152506040518263ffffffff1660e01b81526004016125139190615601565b60a060405180830381600087803b15801561252d57600080fd5b505af1158015612541573d6000803e3d6000fd5b505050506040513d601f19601f820116820180604052508101906125659190614dac565b905060006125808361257a602089018961475d565b84613e93565b905085608001358260000151101580156125a257508560a00135826020015110155b6125be5760405162461bcd60e51b8152600401610444906154cf565b610130546001600160a01b03166125d8602088018861475d565b6001600160a01b039081169085166000805160206158df83398151915261260560408b0160208c01614a34565b61261560608c0160408d01614a34565b8751612620906138e3565b61262d89602001516138e3565b6126518e60600160208101906126439190614f30565b6001600160801b0316613fe4565b8a60400151604051612668969594939291906150f8565b60405180910390a4610136546000906001600160a01b031663d50d01b78561269360208b018b61475d565b6040518363ffffffff1660e01b81526004016126b0929190614f9d565b60206040518083038186803b1580156126c857600080fd5b505afa1580156126dc573d6000803e3d6000fd5b505050506040513d601f19601f820116820180604052508101906127009190614a50565b610134549091506000906001600160a01b03166399e4a77161272560208b018b61475d565b60006040518363ffffffff1660e01b8152600401612744929190615091565b60206040518083038186803b15801561275c57600080fd5b505afa158015612770573d6000803e3d6000fd5b505050506040513d601f19601f820116820180604052508101906127949190614779565b6001600160a01b031690506127ac602089018961475d565b6001600160a01b0316856001600160a01b03166000805160206157c18339815191528660600151876080015160008789886040516127ef9695949392919061512b565b60405180910390a3505060408051606081018252835181526020808501519082015292810151908301525060018055949350505050565b60fd546001600160a01b031690565b610135546001600160a01b031633146128605760405162461bcd60e51b815260040161044490615386565b600061286e82840184614ca0565b9050841561299157600081602001516001600160a01b0316630dfe16816040518163ffffffff1660e01b815260040160206040518083038186803b1580156128b557600080fd5b505afa1580156128c9573d6000803e3d6000fd5b505050506040513d601f19601f820116820180604052508101906128ed9190614779565b602083015160405163a9059cbb60e01b81529192506001600160a01b0383169163a9059cbb91612921918a90600401615078565b602060405180830381600087803b15801561293b57600080fd5b505af115801561294f573d6000803e3d6000fd5b505050506040513d601f19601f820116820180604052508101906129739190614a18565b61298f5760405162461bcd60e51b8152600401610444906153a6565b505b8315612ab257600081602001516001600160a01b031663d21220a76040518163ffffffff1660e01b815260040160206040518083038186803b1580156129d657600080fd5b505afa1580156129ea573d6000803e3d6000fd5b505050506040513d601f19601f82011682018060405250810190612a0e9190614779565b602083015160405163a9059cbb60e01b81529192506001600160a01b0383169163a9059cbb91612a42918990600401615078565b602060405180830381600087803b158015612a5c57600080fd5b505af1158015612a70573d6000803e3d6000fd5b505050506040513d601f19601f82011682018060405250810190612a949190614a18565b612ab05760405162461bcd60e51b8152600401610444906153a6565b505b5050505050565b612ac16131e7565b6001600160a01b0316612ad2611118565b6001600160a01b031614612b16576040805162461bcd60e51b8152602060048201526006602482015265534f5f434e4f60d01b604482015290519081900360640190fd5b612b28816001600160a01b0316613d47565b612b445760405162461bcd60e51b81526004016104449061530f565b612b4d81613ff8565b6040516001600160a01b038216907f871264f4293af7d2865ae7eae628b228f4991c57cb45b39c99f0b774ebe2901890600090a250565b610134546001600160a01b031690565b610134546001600160a01b03163314612bbf5760405162461bcd60e51b8152600401610444906151e8565b600084138015612bcf5750600083125b80612be55750600084128015612be55750600083135b612c015760405162461bcd60e51b8152600401610444906152ce565b6000612c0f82840184614e14565b6040810151909150600080808813612c9857826001600160a01b031663d21220a76040518163ffffffff1660e01b815260040160206040518083038186803b158015612c5a57600080fd5b505afa158015612c6e573d6000803e3d6000fd5b505050506040513d601f19601f82011682018060405250810190612c929190614779565b87612d0b565b826001600160a01b0316630dfe16816040518163ffffffff1660e01b815260040160206040518083038186803b158015612cd157600080fd5b505afa158015612ce5573d6000803e3d6000fd5b505050506040513d601f19601f82011682018060405250810190612d099190614779565b885b91509150816001600160a01b031663a9059cbb8560400151836040518363ffffffff1660e01b8152600401612d41929190615078565b602060405180830381600087803b158015612d5b57600080fd5b505af1158015612d6f573d6000803e3d6000fd5b505050506040513d601f19601f82011682018060405250810190612d939190614a18565b612daf5760405162461bcd60e51b8152600401610444906153a6565b5050505050505050565b610136546040516357ba739b60e11b81526000916001600160a01b03169063af74e73690612deb908590600401614f89565b60006040518083038186803b158015612e0357600080fd5b505afa158015612e17573d6000803e3d6000fd5b505050506040513d6000823e601f3d908101601f19168201604052612e3f91908101906148dc565b805190915060005b818110156131dd576101355483516000916001600160a01b03169063436933ea908790879086908110612e7657fe5b60200260200101516040518363ffffffff1660e01b8152600401612e9b929190614f9d565b60006040518083038186803b158015612eb357600080fd5b505afa158015612ec7573d6000803e3d6000fd5b505050506040513d6000823e601f3d908101601f19168201604052612eef9190810190614979565b805190915060005b81811015613135576101355483516000916001600160a01b03169063acf7182790869085908110612f2457fe5b60200260200101516040518263ffffffff1660e01b8152600401612f4891906150d9565b6101206040518083038186803b158015612f6157600080fd5b505afa158015612f75573d6000803e3d6000fd5b505050506040513d601f19601f82011682018060405250810190612f999190614c0d565b9050600061013560009054906101000a90046001600160a01b03166001600160a01b0316635b778b9d6040518060a001604052808c6001600160a01b031681526020018b8a81518110612fe857fe5b60200260200101516001600160a01b03168152602001856020015160020b8152602001856040015160020b815260200160006001600160801b03168152506040518263ffffffff1660e01b81526004016130429190615601565b60a060405180830381600087803b15801561305c57600080fd5b505af1158015613070573d6000803e3d6000fd5b505050506040513d601f19601f820116820180604052508101906130949190614dac565b90506130b4898988815181106130a657fe5b602002602001015183613e93565b506101305488516001600160a01b03909116908990889081106130d357fe5b60200260200101516001600160a01b03168a6001600160a01b03166000805160206158df8339815191528560200151866040015160008060008960400151604051613123969594939291906150f8565b60405180910390a45050600101612ef7565b506101345485516001600160a01b0390911690631e81ac3390889088908790811061315c57fe5b60200260200101516040518363ffffffff1660e01b8152600401613181929190614f9d565b6040805180830381600087803b15801561319a57600080fd5b505af11580156131ae573d6000803e3d6000fd5b505050506040513d601f19601f820116820180604052508101906131d29190614b72565b505050600101612e47565b50505050565b4290565b60006131f161404c565b905090565b6131fe614688565b610136548251602084015160405163165c4e2960e31b81526000936001600160a01b03169263b2e271489261323592600401614f9d565b60206040518083038186803b15801561324d57600080fd5b505afa158015613261573d6000803e3d6000fd5b505050506040513d601f19601f820116820180604052508101906132859190614a50565b9050806132a45760405162461bcd60e51b8152600401610444906154ef565b604080516101008101825284516001600160a01b039081168252602080870151909116908201526000831391810182905260608101829052600160808201526133149060a081016132f4856138ba565b81526040808801516001600160a01b0316602083015260019101526138f7565b949350505050565b6000613331838362ffffff16620f424061407c565b90505b92915050565b60808101516133485761340d565b8051156133b357806020015115613386578060800151816040015110156133815760405162461bcd60e51b815260040161044490615468565b6133ae565b8060800151816060015111156133ae5760405162461bcd60e51b815260040161044490615207565b61340d565b8060200151156133e5578060800151816060015110156133ae5760405162461bcd60e51b815260040161044490615405565b80608001518160400151111561340d5760405162461bcd60e51b81526004016104449061526a565b50565b613418610a76565b613460576040805162461bcd60e51b815260206004820152601460248201527314185d5cd8589b194e881b9bdd081c185d5cd95960621b604482015290519081900360640190fd5b6099805460ff191690557f5db9ee0a495bf2e6ff9c91a7834c1ba4fdd244a5e8aa4e537bd38aeae4b073aa6134936131e7565b604080516001600160a01b039092168252519081900360200190a1565b60006133318360ff601285900316600a0a613ac3565b60006001600160ff1b0382111561350e5760405162461bcd60e51b81526004018080602001828103825260288152602001806158ff6028913960400191505060405180910390fd5b5090565b60008183038183128015906135275750838113155b8061353c575060008312801561353c57508381135b6133315760405162461bcd60e51b81526004018080602001828103825260248152602001806159276024913960400191505060405180910390fd5b600082820181831280159061358c5750838112155b806135a157506000831280156135a157508381125b6133315760405162461bcd60e51b81526004018080602001828103825260218152602001806158086021913960400191505060405180910390fd5b600061366e8461013260009054906101000a90046001600160a01b03166001600160a01b031663a85494026040518163ffffffff1660e01b815260040160206040518083038186803b15801561363157600080fd5b505afa158015613645573d6000803e3d6000fd5b505050506040513d601f19601f820116820180604052508101906136699190614f4c565b61412b565b128061370157506101365460405163f75c266d60e01b81526001600160a01b039091169063f75c266d906136a6908690600401614f89565b60206040518083038186803b1580156136be57600080fd5b505afa1580156136d2573d6000803e3d6000fd5b505050506040513d601f19601f820116820180604052508101906136f69190614a50565b6136ff8461088f565b125b61371d5760405162461bcd60e51b8152600401610444906154ae565b61013454604051631e81ac3360e01b81526001600160a01b0390911690631e81ac33906137509086908690600401614f9d565b6040805180830381600087803b15801561376957600080fd5b505af115801561377d573d6000803e3d6000fd5b505050506040513d601f19601f820116820180604052508101906137a19190614b72565b506101355460405163398dbcfd60e01b81526000916001600160a01b03169063398dbcfd906137d890879087908790600401614fb7565b60a060405180830381600087803b1580156137f257600080fd5b505af1158015613806573d6000803e3d6000fd5b505050506040513d601f19601f8201168201806040525081019061382a9190614dac565b9050612ab2848483613e93565b61383f610a76565b15613884576040805162461bcd60e51b815260206004820152601060248201526f14185d5cd8589b194e881c185d5cd95960821b604482015290519081900360640190fd5b6099805460ff191660011790557f62e78cea01bee320cd4e420270b5ea74000d11b0c9f74754ebdbfc544b05a2586134936131e7565b6000808212156138da576138d56138d0836141af565b6141db565b613334565b613334826141db565b60006138ee826134c6565b60000392915050565b6138ff614688565b610134546040805160e08101825284516001600160a01b0390811682526020808701518216908301528583015115158284015260608087015115159083015260808087015115159083015260a0808701519083015260c08087015182169083015291516310c5328760e21b81526000939290921691634314ca1c9161398691600401615679565b61014060405180830381600087803b1580156139a157600080fd5b505af11580156139b5573d6000803e3d6000fd5b505050506040513d601f19601f820116820180604052508101906139d99190614e9d565b90508260e001516139ef5782516139ef90613c80565b82602001516001600160a01b031683600001516001600160a01b03166000805160206157c18339815191528360400151846060015185608001518660a001518760c001518860e00151604051613a4a9695949392919061512b565b60405180910390a3610136548351602085015160405163fa8e30af60e01b81526001600160a01b039093169263fa8e30af92613a8a929091600401614f9d565b600060405180830381600087803b158015613aa457600080fd5b505af1158015613ab8573d6000803e3d6000fd5b509295945050505050565b600082613ad257506000613334565b82600019148015613ae65750600160ff1b82145b15613b225760405162461bcd60e51b81526004018080602001828103825260278152602001806158b86027913960400191505060405180910390fd5b82820282848281613b2f57fe5b05146133315760405162461bcd60e51b81526004018080602001828103825260278152602001806158b86027913960400191505060405180910390fd5b600081613bc0576040805162461bcd60e51b815260206004820181905260248201527f5369676e6564536166654d6174683a206469766973696f6e206279207a65726f604482015290519081900360640190fd5b81600019148015613bd45750600160ff1b83145b15613c105760405162461bcd60e51b81526004018080602001828103825260218152602001806158776021913960400191505060405180910390fd5b6000828481613c1b57fe5b05949350505050565b604080516001600160601b0319606096871b81166020808401919091529590961b9095166034860152600292830b60e890811b60488701529190920b901b604b8401528051602e818503018152604e9093019052815191012090565b6000613cd58261013260009054906101000a90046001600160a01b03166001600160a01b031663543ce73a6040518163ffffffff1660e01b815260040160206040518083038186803b15801561363157600080fd5b121561340d5760405162461bcd60e51b81526004016104449061528b565b80600f81900b811461088a5760405162461bcd60e51b81526004018080602001828103825260278152602001806157e16027913960400191505060405180910390fd5b6000613d4130613d47565b15905090565b3b151590565b600054610100900460ff1680613d665750613d66613d36565b80613d74575060005460ff16155b613daf5760405162461bcd60e51b815260040180806020018281038252602e815260200180615849602e913960400191505060405180910390fd5b600054610100900460ff16158015613dda576000805460ff1961ff0019909116610100171660011790555b613de2614232565b801561340d576000805461ff001916905550565b600054610100900460ff1680613e0f5750613e0f613d36565b80613e1d575060005460ff16155b613e585760405162461bcd60e51b815260040180806020018281038252602e815260200180615849602e913960400191505060405180910390fd5b600054610100900460ff16158015613e83576000805460ff1961ff0019909116610100171660011790555b613e8b6142d7565b613de26143c6565b6000808260600151600014613f52576101345460408051608080820183526001600160a01b03898116835288811660208401526060808901518486015291880151918301919091529151631393a46960e01b81529190921691631393a46991613eff91906004016155c8565b60206040518083038186803b158015613f1757600080fd5b505afa158015613f2b573d6000803e3d6000fd5b505050506040513d601f19601f82011682018060405250810190613f4f9190614a50565b90505b610136546060840151608085015160408601516001600160a01b03909316926389f9217792899289928790613f86906134c6565b6040518763ffffffff1660e01b8152600401613fa796959493929190615042565b600060405180830381600087803b158015613fc157600080fd5b505af1158015613fd5573d6000803e3d6000fd5b509293505050505b9392505050565b60006138ee826001600160801b0316613cf3565b60fd80546001600160a01b0383166001600160a01b0319909116811790915560408051918252517fa4388ecc389b1390354ae0c65a856c0d7dd4fb648419f5d3ac0b99e38f46fd119181900360200190a150565b600060143610801590614063575061406333610878565b15614077575060131936013560601c610865565b503390565b60008080600019858709868602925082811090839003039050806140b257600084116140a757600080fd5b508290049050613fdd565b8084116140be57600080fd5b6000848688096000868103871696879004966002600389028118808a02820302808a02820302808a02820302808a02820302808a02820302808a02909103029181900381900460010186841190950394909402919094039290920491909117919091029150509392505050565b61013354604051633ffd130360e01b81526000916001600160a01b031690633ffd13039061415f90869086906004016150b0565b60206040518083038186803b15801561417757600080fd5b505afa15801561418b573d6000803e3d6000fd5b505050506040513d601f19601f820116820180604052508101906133319190614a50565b6000600160ff1b82136141d45760405162461bcd60e51b81526004016104449061532f565b5060000390565b60008082121561350e576040805162461bcd60e51b815260206004820181905260248201527f53616665436173743a2076616c7565206d75737420626520706f736974697665604482015290519081900360640190fd5b600054610100900460ff168061424b575061424b613d36565b80614259575060005460ff16155b6142945760405162461bcd60e51b815260040180806020018281038252602e815260200180615849602e913960400191505060405180910390fd5b600054610100900460ff161580156142bf576000805460ff1961ff0019909116610100171660011790555b60018055801561340d576000805461ff001916905550565b600054610100900460ff16806142f057506142f0613d36565b806142fe575060005460ff16155b6143395760405162461bcd60e51b815260040180806020018281038252602e815260200180615849602e913960400191505060405180910390fd5b600054610100900460ff16158015614364576000805460ff1961ff0019909116610100171660011790555b61436c614463565b60006143766131e7565b606580546001600160a01b0319166001600160a01b03831690811790915560405191925090600090600080516020615898833981519152908290a350801561340d576000805461ff001916905550565b600054610100900460ff16806143df57506143df613d36565b806143ed575060005460ff16155b6144285760405162461bcd60e51b815260040180806020018281038252602e815260200180615849602e913960400191505060405180910390fd5b600054610100900460ff16158015614453576000805460ff1961ff0019909116610100171660011790555b61445b6144f4565b613de2614594565b600054610100900460ff168061447c575061447c613d36565b8061448a575060005460ff16155b6144c55760405162461bcd60e51b815260040180806020018281038252602e815260200180615849602e913960400191505060405180910390fd5b600054610100900460ff161580156144f0576000805460ff1961ff0019909116610100171660011790555b613de25b600054610100900460ff168061450d575061450d613d36565b8061451b575060005460ff16155b6145565760405162461bcd60e51b815260040180806020018281038252602e815260200180615849602e913960400191505060405180910390fd5b600054610100900460ff16158015613de2576000805460ff1961ff001990911661010017166001179055801561340d576000805461ff001916905550565b600054610100900460ff16806145ad57506145ad613d36565b806145bb575060005460ff16155b6145f65760405162461bcd60e51b815260040180806020018281038252602e815260200180615849602e913960400191505060405180910390fd5b600054610100900460ff16158015614621576000805460ff1961ff0019909116610100171660011790555b6099805460ff19169055801561340d576000805461ff001916905550565b6040518060800160405280600081526020016000815260200160008152602001600081525090565b60405180606001604052806000815260200160008152602001600081525090565b6040518061014001604052806000815260200160008152602001600081526020016000815260200160008152602001600081526020016000815260200160008152602001600060020b81526020016000151581525090565b803561088a81615748565b803561088a8161575d565b805161088a8161575d565b60008083601f840112614712578182fd5b5081356001600160401b03811115614728578182fd5b60208301915083602082850101111561474057600080fd5b9250929050565b805161088a8161576b565b805161088a8161577a565b60006020828403121561476e578081fd5b813561333181615748565b60006020828403121561478a578081fd5b815161333181615748565b600080604083850312156147a7578081fd5b82356147b281615748565b915060208301356147c281615748565b809150509250929050565b60008060008060008060c087890312156147e5578182fd5b86356147f081615748565b9550602087013561480081615748565b9450604087013561481081615748565b9350606087013561482081615748565b9250608087013561483081615748565b915060a087013561484081615748565b809150509295509295509295565b60008060008060608587031215614863578182fd5b843561486e81615748565b9350602085013561487e81615748565b925060408501356001600160401b0380821115614899578384fd5b818701915087601f8301126148ac578384fd5b8135818111156148ba578485fd5b88602080830285010111156148cd578485fd5b95989497505060200194505050565b600060208083850312156148ee578182fd5b82516001600160401b03811115614903578283fd5b8301601f81018513614913578283fd5b80516149266149218261572b565b615708565b8181528381019083850185840285018601891015614942578687fd5b8694505b8385101561496d57805161495981615748565b835260019490940193918501918501614946565b50979650505050505050565b6000602080838503121561498b578182fd5b82516001600160401b038111156149a0578283fd5b8301601f810185136149b0578283fd5b80516149be6149218261572b565b81815283810190838501858402850186018910156149da578687fd5b8694505b8385101561496d5780518352600194909401939185019185016149de565b600060208284031215614a0d578081fd5b81356133318161575d565b600060208284031215614a29578081fd5b81516133318161575d565b600060208284031215614a45578081fd5b81356133318161576b565b600060208284031215614a61578081fd5b5051919050565b60008060008060608587031215614a7d578182fd5b843593506020850135925060408501356001600160401b03811115614aa0578283fd5b614aac87828801614701565b95989497509550505050565b600080600060608486031215614acc578081fd5b8351925060208401519150604084015190509250925092565b60006101208284031215614af7578081fd5b50919050565b600060808284031215614b0e578081fd5b604051608081016001600160401b0381118282101715614b2a57fe5b80604052508251815260208301516020820152604083015160408201526060830151614b558161577a565b60608201529392505050565b600060a08284031215614af7578081fd5b600060408284031215614b83578081fd5b604080519081016001600160401b0381118282101715614b9f57fe5b604052825181526020928301519281019290925250919050565b600060608284031215614bca578081fd5b604051606081016001600160401b0381118282101715614be657fe5b80604052508251815260208301516020820152604083015160408201528091505092915050565b6000610120808385031215614c20578182fd5b614c2981615708565b9050614c3483614752565b8152614c4260208401614747565b6020820152614c5360408401614747565b6040820152606083015160608201526080830151608082015260a083015160a082015260c083015160c082015260e083015160e08201526101008084015181830152508091505092915050565b600060408284031215614cb1578081fd5b604080519081016001600160401b0381118282101715614ccd57fe5b6040528235614cdb81615748565b81526020830135614ceb81615748565b60208201529392505050565b6000610100808385031215614d0a578182fd5b604051908101906001600160401b0382118183101715614d2657fe5b81604052614d33846146e0565b8152614d41602085016146eb565b6020820152614d52604085016146eb565b6040820152606084013560608201526080840135608082015260a084013560a0820152614d8160c085016146e0565b60c082015260e084013560e0820152809250505092915050565b600060e08284031215614af7578081fd5b600060a08284031215614dbd578081fd5b60405160a081016001600160401b0381118282101715614dd957fe5b806040525082518152602083015160208201526040830151604082015260608301516060820152608083015160808201528091505092915050565b600060a08284031215614e25578081fd5b60405160a081016001600160401b0381118282101715614e4157fe5b6040528235614e4f81615748565b81526020830135614e5f81615748565b60208201526040830135614e7281615748565b60408201526060830135614e858161578f565b60608201526080928301359281019290925250919050565b6000610140808385031215614eb0578182fd5b614eb981615708565b9050825181526020830151602082015260408301516040820152606083015160608201526080830151608082015260a083015160a082015260c083015160c082015260e083015160e0820152610100614f13818501614747565b90820152610120614f258482016146f6565b908201529392505050565b600060208284031215614f41578081fd5b81356133318161577a565b600060208284031215614f5d578081fd5b81516133318161578f565b600060208284031215614f79578081fd5b815160ff81168114613331578182fd5b6001600160a01b0391909116815260200190565b6001600160a01b0392831681529116602082015260400190565b6001600160a01b0384811682528316602080830191909152606060408301819052835190830181905260009184810191608085019190845b8181101561500b57845184529382019392820192600101614fef565b509198975050505050505050565b6001600160a01b0394851681529290931660208301526040820152606081019190915260800190565b6001600160a01b03968716815294909516602085015260408401929092526060830152608082015260a081019190915260c00190565b6001600160a01b03929092168252602082015260400190565b6001600160a01b0392909216825263ffffffff16602082015260400190565b6001600160a01b0392909216825262ffffff16602082015260400190565b901515815260200190565b90815260200190565b9283526020830191909152604082015260600190565b600296870b81529490950b602085015260408401929092526060830152600f0b608082015260a081019190915260c00190565b958652602086019490945260408501929092526060840152608083015260a082015260c00190565b6000602080835283518082850152825b8181101561517f57858101830151858201604001528201615163565b818111156151905783604083870101525b50601f01601f1916929092016040019392505050565b60208082526008908201526708690bea2889c62760c31b604082015260600190565b60208082526006908201526521a42fa2a0ab60d11b604082015260600190565b60208082526005908201526443485f4f4560d81b604082015260600190565b60208082526007908201526643485f544d525360c81b604082015260600190565b60208082526007908201526643485f41424e4360c81b604082015260600190565b60208082526007908201526643485f55414e4360c81b604082015260600190565b60208082526007908201526610d217d513549360ca1b604082015260600190565b60208082526008908201526743485f4e4546434960c01b604082015260600190565b60208082526007908201526643485f51414e4360c81b604082015260600190565b60208082526006908201526543485f46305360d01b604082015260600190565b60208082526007908201526643485f43434e4360c81b604082015260600190565b60208082526006908201526543485f414e4360d01b604082015260600190565b6020808252601c908201527b506572704d6174683a20696e76657273696f6e206f766572666c6f7760201b604082015260600190565b60208082526007908201526643485f4f424e4360c81b604082015260600190565b60208082526006908201526521a42fa727a160d11b604082015260600190565b60208082526005908201526421a42faa2360d91b604082015260600190565b60208082526005908201526443485f544560d81b604082015260600190565b60208082526007908201526643485f56414e4360c81b604082015260600190565b60208082526007908201526610d217d513149360ca1b604082015260600190565b60208082526007908201526643485f54424e4560c81b604082015260600190565b60208082526007908201526643485f54514e4560c81b604082015260600190565b60208082526007908201526643485f544c525360c81b604082015260600190565b6020808252600b908201526a043485f43414c57524654560ac1b604082015260600190565b60208082526007908201526643485f4e45584f60c81b604082015260600190565b60208082526006908201526543485f50534360d01b604082015260600190565b60208082526006908201526521a42fa829ad60d11b604082015260600190565b60208082526006908201526543485f4e454f60d01b604082015260600190565b60006101008201905060018060a01b03808451168352806020850151166020840152506040830151604083015260608301516060830152608083015160020b608083015260a083015160020b60a083015260c0830151805160c0840152602081015160e08401525092915050565b8151815260208083015190820152604080830151908201526060918201519181019190915260800190565b81516001600160a01b03908116825260208084015190911690820152604080830151908201526060918201519181019190915260800190565b81516001600160a01b03908116825260208084015190911690820152604080830151600290810b9183019190915260608084015190910b908201526080918201516001600160801b03169181019190915260a00190565b81518152602080830151908201526040918201519181019190915260600190565b81516001600160a01b03908116825260208084015182169083015260408084015115159083015260608084015115159083015260808084015115159083015260a0838101519083015260c092830151169181019190915260e00190565b918252602082015260400190565b938452602084019290925260408301526001600160a01b0316606082015260800190565b6040518181016001600160401b038111828210171561572357fe5b604052919050565b60006001600160401b0382111561573e57fe5b5060209081020190565b6001600160a01b038116811461340d57600080fd5b801515811461340d57600080fd5b8060020b811461340d57600080fd5b6001600160801b038116811461340d57600080fd5b62ffffff8116811461340d57600080fdfe5265656e7472616e637947756172643a207265656e7472616e742063616c6c00968bc4f738eae0486dc6736c4b427dbafa4acfdf6eaf223337791ddeb3a5624753616665436173743a2076616c756520646f65736e27742066697420696e2031323820626974735369676e6564536166654d6174683a206164646974696f6e206f766572666c6f7709a07769667a46c2b89124a4d731c76fb5203061073aec16319ba9c6a79a3248496e697469616c697a61626c653a20636f6e747261637420697320616c726561647920696e697469616c697a65645369676e6564536166654d6174683a206469766973696f6e206f766572666c6f778be0079c531659141344cd1fd0a4f28419497f9722a3daafe3b4186f6b6457e05369676e6564536166654d6174683a206d756c7469706c69636174696f6e206f766572666c6f77cb47d8bf351d355bdd5497973533eada41777b4509f2585a62ae246336ebaa9453616665436173743a2076616c756520646f65736e27742066697420696e20616e20696e743235365369676e6564536166654d6174683a207375627472616374696f6e206f766572666c6f77a2646970667358221220aadaa274c4e7cd094f43136ff3a85aad9a2962c1cebb4b6ecd821bc14c0bee2164736f6c63430007060033",
  "linkReferences": {},
  "deployedLinkReferences": {}
}