{
  "_format": "hh-sol-artifact-1",
  "contractName": "PerpV2OrderBook",
  "sourceName": "contracts/OrderBook.sol",
  "abi": [
    {
      "anonymous": false,
      "inputs": [
        {
          "indexed": true,
          "internalType": "address",
          "name": "clearingHouse",
          "type": "address"
        }
      ],
      "name": "ClearingHouseChanged",
      "type": "event"
    },
    {
      "anonymous": false,
      "inputs": [
        {
          "indexed": true,
          "internalType": "address",
          "name": "exchange",
          "type": "address"
        }
      ],
      "name": "ExchangeChanged",
      "type": "event"
    },
    {
      "anonymous": false,
      "inputs": [
        {
          "indexed": true,
          "internalType": "address",
          "name": "previousOwner",
          "type": "address"
        },
        {
          "indexed": true,
          "internalType": "address",
          "name": "newOwner",
          "type": "address"
        }
      ],
      "name": "OwnershipTransferred",
      "type": "event"
    },
    {
      "inputs": [
        {
          "components": [
            {
              "internalType": "address",
              "name": "trader",
              "type": "address"
            },
            {
              "internalType": "address",
              "name": "baseToken",
              "type": "address"
            },
            {
              "internalType": "uint256",
              "name": "base",
              "type": "uint256"
            },
            {
              "internalType": "uint256",
              "name": "quote",
              "type": "uint256"
            },
            {
              "internalType": "int24",
              "name": "lowerTick",
              "type": "int24"
            },
            {
              "internalType": "int24",
              "name": "upperTick",
              "type": "int24"
            },
            {
              "components": [
                {
                  "internalType": "int256",
                  "name": "twPremiumX96",
                  "type": "int256"
                },
                {
                  "internalType": "int256",
                  "name": "twPremiumDivBySqrtPriceX96",
                  "type": "int256"
                }
              ],
              "internalType": "struct Funding.Growth",
              "name": "fundingGrowthGlobal",
              "type": "tuple"
            }
          ],
          "internalType": "struct IOrderBook.AddLiquidityParams",
          "name": "params",
          "type": "tuple"
        }
      ],
      "name": "addLiquidity",
      "outputs": [
        {
          "components": [
            {
              "internalType": "uint256",
              "name": "base",
              "type": "uint256"
            },
            {
              "internalType": "uint256",
              "name": "quote",
              "type": "uint256"
            },
            {
              "internalType": "uint256",
              "name": "fee",
              "type": "uint256"
            },
            {
              "internalType": "uint128",
              "name": "liquidity",
              "type": "uint128"
            },
            {
              "internalType": "bytes32",
              "name": "orderId",
              "type": "bytes32"
            }
          ],
          "internalType": "struct IOrderBook.AddLiquidityResponse",
          "name": "",
          "type": "tuple"
        }
      ],
      "stateMutability": "nonpayable",
      "type": "function"
    },
    {
      "inputs": [],
      "name": "candidate",
      "outputs": [
        {
          "internalType": "address",
          "name": "",
          "type": "address"
        }
      ],
      "stateMutability": "view",
      "type": "function"
    },
    {
      "inputs": [],
      "name": "getClearingHouse",
      "outputs": [
        {
          "internalType": "address",
          "name": "",
          "type": "address"
        }
      ],
      "stateMutability": "view",
      "type": "function"
    },
    {
      "inputs": [],
      "name": "getExchange",
      "outputs": [
        {
          "internalType": "address",
          "name": "",
          "type": "address"
        }
      ],
      "stateMutability": "view",
      "type": "function"
    },
    {
      "inputs": [
        {
          "internalType": "address",
          "name": "baseToken",
          "type": "address"
        }
      ],
      "name": "getFeeGrowthGlobal",
      "outputs": [
        {
          "internalType": "uint256",
          "name": "",
          "type": "uint256"
        }
      ],
      "stateMutability": "view",
      "type": "function"
    },
    {
      "inputs": [
        {
          "internalType": "address",
          "name": "trader",
          "type": "address"
        },
        {
          "internalType": "address",
          "name": "baseToken",
          "type": "address"
        },
        {
          "components": [
            {
              "internalType": "int256",
              "name": "twPremiumX96",
              "type": "int256"
            },
            {
              "internalType": "int256",
              "name": "twPremiumDivBySqrtPriceX96",
              "type": "int256"
            }
          ],
          "internalType": "struct Funding.Growth",
          "name": "fundingGrowthGlobal",
          "type": "tuple"
        }
      ],
      "name": "getLiquidityCoefficientInFundingPayment",
      "outputs": [
        {
          "internalType": "int256",
          "name": "liquidityCoefficientInFundingPayment",
          "type": "int256"
        }
      ],
      "stateMutability": "view",
      "type": "function"
    },
    {
      "inputs": [],
      "name": "getMarketRegistry",
      "outputs": [
        {
          "internalType": "address",
          "name": "",
          "type": "address"
        }
      ],
      "stateMutability": "view",
      "type": "function"
    },
    {
      "inputs": [
        {
          "internalType": "address",
          "name": "trader",
          "type": "address"
        },
        {
          "internalType": "address",
          "name": "baseToken",
          "type": "address"
        },
        {
          "internalType": "int24",
          "name": "lowerTick",
          "type": "int24"
        },
        {
          "internalType": "int24",
          "name": "upperTick",
          "type": "int24"
        }
      ],
      "name": "getOpenOrder",
      "outputs": [
        {
          "components": [
            {
              "internalType": "uint128",
              "name": "liquidity",
              "type": "uint128"
            },
            {
              "internalType": "int24",
              "name": "lowerTick",
              "type": "int24"
            },
            {
              "internalType": "int24",
              "name": "upperTick",
              "type": "int24"
            },
            {
              "internalType": "uint256",
              "name": "lastFeeGrowthInsideX128",
              "type": "uint256"
            },
            {
              "internalType": "int256",
              "name": "lastTwPremiumGrowthInsideX96",
              "type": "int256"
            },
            {
              "internalType": "int256",
              "name": "lastTwPremiumGrowthBelowX96",
              "type": "int256"
            },
            {
              "internalType": "int256",
              "name": "lastTwPremiumDivBySqrtPriceGrowthInsideX96",
              "type": "int256"
            },
            {
              "internalType": "uint256",
              "name": "baseDebt",
              "type": "uint256"
            },
            {
              "internalType": "uint256",
              "name": "quoteDebt",
              "type": "uint256"
            }
          ],
          "internalType": "struct OpenOrder.Info",
          "name": "",
          "type": "tuple"
        }
      ],
      "stateMutability": "view",
      "type": "function"
    },
    {
      "inputs": [
        {
          "internalType": "bytes32",
          "name": "orderId",
          "type": "bytes32"
        }
      ],
      "name": "getOpenOrderById",
      "outputs": [
        {
          "components": [
            {
              "internalType": "uint128",
              "name": "liquidity",
              "type": "uint128"
            },
            {
              "internalType": "int24",
              "name": "lowerTick",
              "type": "int24"
            },
            {
              "internalType": "int24",
              "name": "upperTick",
              "type": "int24"
            },
            {
              "internalType": "uint256",
              "name": "lastFeeGrowthInsideX128",
              "type": "uint256"
            },
            {
              "internalType": "int256",
              "name": "lastTwPremiumGrowthInsideX96",
              "type": "int256"
            },
            {
              "internalType": "int256",
              "name": "lastTwPremiumGrowthBelowX96",
              "type": "int256"
            },
            {
              "internalType": "int256",
              "name": "lastTwPremiumDivBySqrtPriceGrowthInsideX96",
              "type": "int256"
            },
            {
              "internalType": "uint256",
              "name": "baseDebt",
              "type": "uint256"
            },
            {
              "internalType": "uint256",
              "name": "quoteDebt",
              "type": "uint256"
            }
          ],
          "internalType": "struct OpenOrder.Info",
          "name": "",
          "type": "tuple"
        }
      ],
      "stateMutability": "view",
      "type": "function"
    },
    {
      "inputs": [
        {
          "internalType": "address",
          "name": "trader",
          "type": "address"
        },
        {
          "internalType": "address",
          "name": "baseToken",
          "type": "address"
        }
      ],
      "name": "getOpenOrderIds",
      "outputs": [
        {
          "internalType": "bytes32[]",
          "name": "",
          "type": "bytes32[]"
        }
      ],
      "stateMutability": "view",
      "type": "function"
    },
    {
      "inputs": [
        {
          "internalType": "address",
          "name": "trader",
          "type": "address"
        },
        {
          "internalType": "address",
          "name": "baseToken",
          "type": "address"
        },
        {
          "internalType": "int24",
          "name": "lowerTick",
          "type": "int24"
        },
        {
          "internalType": "int24",
          "name": "upperTick",
          "type": "int24"
        }
      ],
      "name": "getOwedFee",
      "outputs": [
        {
          "internalType": "uint256",
          "name": "",
          "type": "uint256"
        }
      ],
      "stateMutability": "view",
      "type": "function"
    },
    {
      "inputs": [
        {
          "internalType": "address",
          "name": "trader",
          "type": "address"
        },
        {
          "internalType": "address[]",
          "name": "baseTokens",
          "type": "address[]"
        }
      ],
      "name": "getTotalQuoteAmountInPools",
      "outputs": [
        {
          "internalType": "uint256",
          "name": "",
          "type": "uint256"
        }
      ],
      "stateMutability": "view",
      "type": "function"
    },
    {
      "inputs": [
        {
          "internalType": "address",
          "name": "trader",
          "type": "address"
        },
        {
          "internalType": "address",
          "name": "baseToken",
          "type": "address"
        },
        {
          "internalType": "bool",
          "name": "fetchBase",
          "type": "bool"
        }
      ],
      "name": "getTotalTokenAmountInPool",
      "outputs": [
        {
          "internalType": "uint256",
          "name": "tokenAmount",
          "type": "uint256"
        }
      ],
      "stateMutability": "view",
      "type": "function"
    },
    {
      "inputs": [
        {
          "internalType": "address",
          "name": "trader",
          "type": "address"
        },
        {
          "internalType": "address[]",
          "name": "tokens",
          "type": "address[]"
        }
      ],
      "name": "hasOrder",
      "outputs": [
        {
          "internalType": "bool",
          "name": "",
          "type": "bool"
        }
      ],
      "stateMutability": "view",
      "type": "function"
    },
    {
      "inputs": [
        {
          "internalType": "address",
          "name": "marketRegistryArg",
          "type": "address"
        }
      ],
      "name": "initialize",
      "outputs": [],
      "stateMutability": "nonpayable",
      "type": "function"
    },
    {
      "inputs": [],
      "name": "owner",
      "outputs": [
        {
          "internalType": "address",
          "name": "",
          "type": "address"
        }
      ],
      "stateMutability": "view",
      "type": "function"
    },
    {
      "inputs": [
        {
          "components": [
            {
              "internalType": "address",
              "name": "maker",
              "type": "address"
            },
            {
              "internalType": "address",
              "name": "baseToken",
              "type": "address"
            },
            {
              "internalType": "int24",
              "name": "lowerTick",
              "type": "int24"
            },
            {
              "internalType": "int24",
              "name": "upperTick",
              "type": "int24"
            },
            {
              "internalType": "uint128",
              "name": "liquidity",
              "type": "uint128"
            }
          ],
          "internalType": "struct IOrderBook.RemoveLiquidityParams",
          "name": "params",
          "type": "tuple"
        }
      ],
      "name": "removeLiquidity",
      "outputs": [
        {
          "components": [
            {
              "internalType": "uint256",
              "name": "base",
              "type": "uint256"
            },
            {
              "internalType": "uint256",
              "name": "quote",
              "type": "uint256"
            },
            {
              "internalType": "uint256",
              "name": "fee",
              "type": "uint256"
            },
            {
              "internalType": "int256",
              "name": "deltaTakerBase",
              "type": "int256"
            },
            {
              "internalType": "int256",
              "name": "deltaTakerQuote",
              "type": "int256"
            }
          ],
          "internalType": "struct IOrderBook.RemoveLiquidityResponse",
          "name": "",
          "type": "tuple"
        }
      ],
      "stateMutability": "nonpayable",
      "type": "function"
    },
    {
      "inputs": [
        {
          "internalType": "address",
          "name": "maker",
          "type": "address"
        },
        {
          "internalType": "address",
          "name": "baseToken",
          "type": "address"
        },
        {
          "internalType": "bytes32[]",
          "name": "orderIds",
          "type": "bytes32[]"
        }
      ],
      "name": "removeLiquidityByIds",
      "outputs": [
        {
          "components": [
            {
              "internalType": "uint256",
              "name": "base",
              "type": "uint256"
            },
            {
              "internalType": "uint256",
              "name": "quote",
              "type": "uint256"
            },
            {
              "internalType": "uint256",
              "name": "fee",
              "type": "uint256"
            },
            {
              "internalType": "int256",
              "name": "deltaTakerBase",
              "type": "int256"
            },
            {
              "internalType": "int256",
              "name": "deltaTakerQuote",
              "type": "int256"
            }
          ],
          "internalType": "struct IOrderBook.RemoveLiquidityResponse",
          "name": "",
          "type": "tuple"
        }
      ],
      "stateMutability": "nonpayable",
      "type": "function"
    },
    {
      "inputs": [],
      "name": "renounceOwnership",
      "outputs": [],
      "stateMutability": "nonpayable",
      "type": "function"
    },
    {
      "inputs": [
        {
          "components": [
            {
              "internalType": "address",
              "name": "baseToken",
              "type": "address"
            },
            {
              "internalType": "bool",
              "name": "isBaseToQuote",
              "type": "bool"
            },
            {
              "internalType": "bool",
              "name": "shouldUpdateState",
              "type": "bool"
            },
            {
              "internalType": "int256",
              "name": "amount",
              "type": "int256"
            },
            {
              "internalType": "uint160",
              "name": "sqrtPriceLimitX96",
              "type": "uint160"
            },
            {
              "internalType": "uint24",
              "name": "exchangeFeeRatio",
              "type": "uint24"
            },
            {
              "internalType": "uint24",
              "name": "uniswapFeeRatio",
              "type": "uint24"
            },
            {
              "components": [
                {
                  "internalType": "int256",
                  "name": "twPremiumX96",
                  "type": "int256"
                },
                {
                  "internalType": "int256",
                  "name": "twPremiumDivBySqrtPriceX96",
                  "type": "int256"
                }
              ],
              "internalType": "struct Funding.Growth",
              "name": "globalFundingGrowth",
              "type": "tuple"
            }
          ],
          "internalType": "struct IOrderBook.ReplaySwapParams",
          "name": "params",
          "type": "tuple"
        }
      ],
      "name": "replaySwap",
      "outputs": [
        {
          "components": [
            {
              "internalType": "int24",
              "name": "tick",
              "type": "int24"
            },
            {
              "internalType": "uint256",
              "name": "fee",
              "type": "uint256"
            },
            {
              "internalType": "uint256",
              "name": "insuranceFundFee",
              "type": "uint256"
            }
          ],
          "internalType": "struct IOrderBook.ReplaySwapResponse",
          "name": "",
          "type": "tuple"
        }
      ],
      "stateMutability": "nonpayable",
      "type": "function"
    },
    {
      "inputs": [
        {
          "internalType": "address",
          "name": "clearingHouseArg",
          "type": "address"
        }
      ],
      "name": "setClearingHouse",
      "outputs": [],
      "stateMutability": "nonpayable",
      "type": "function"
    },
    {
      "inputs": [
        {
          "internalType": "address",
          "name": "exchangeArg",
          "type": "address"
        }
      ],
      "name": "setExchange",
      "outputs": [],
      "stateMutability": "nonpayable",
      "type": "function"
    },
    {
      "inputs": [
        {
          "internalType": "address",
          "name": "newOwner",
          "type": "address"
        }
      ],
      "name": "setOwner",
      "outputs": [],
      "stateMutability": "nonpayable",
      "type": "function"
    },
    {
      "inputs": [
        {
          "internalType": "uint256",
          "name": "amount0Owed",
          "type": "uint256"
        },
        {
          "internalType": "uint256",
          "name": "amount1Owed",
          "type": "uint256"
        },
        {
          "internalType": "bytes",
          "name": "data",
          "type": "bytes"
        }
      ],
      "name": "uniswapV3MintCallback",
      "outputs": [],
      "stateMutability": "nonpayable",
      "type": "function"
    },
    {
      "inputs": [
        {
          "internalType": "address",
          "name": "trader",
          "type": "address"
        },
        {
          "internalType": "address",
          "name": "baseToken",
          "type": "address"
        },
        {
          "components": [
            {
              "internalType": "int256",
              "name": "twPremiumX96",
              "type": "int256"
            },
            {
              "internalType": "int256",
              "name": "twPremiumDivBySqrtPriceX96",
              "type": "int256"
            }
          ],
          "internalType": "struct Funding.Growth",
          "name": "fundingGrowthGlobal",
          "type": "tuple"
        }
      ],
      "name": "updateFundingGrowthAndLiquidityCoefficientInFundingPayment",
      "outputs": [
        {
          "internalType": "int256",
          "name": "liquidityCoefficientInFundingPayment",
          "type": "int256"
        }
      ],
      "stateMutability": "nonpayable",
      "type": "function"
    },
    {
      "inputs": [
        {
          "internalType": "bytes32",
          "name": "orderId",
          "type": "bytes32"
        },
        {
          "internalType": "int256",
          "name": "deltaBaseDebt",
          "type": "int256"
        },
        {
          "internalType": "int256",
          "name": "deltaQuoteDebt",
          "type": "int256"
        }
      ],
      "name": "updateOrderDebt",
      "outputs": [],
      "stateMutability": "nonpayable",
      "type": "function"
    },
    {
      "inputs": [],
      "name": "updateOwner",
      "outputs": [],
      "stateMutability": "nonpayable",
      "type": "function"
    }
  ],
  "bytecode": "0x608060405234801561001057600080fd5b5061632a80620000216000396000f3fe608060405234801561001057600080fd5b50600436106101a95760003560e01c80638da5cb5b116100f9578063c575ff7911610097578063e8ab2fb311610071578063e8ab2fb314610387578063eaad2354146103a7578063f807cd22146103ba578063ffa61327146103c2576101a9565b8063c575ff7914610364578063c66b8ed21461036c578063d348799714610374576101a9565b8063b0c04174116100d3578063b0c0417414610323578063bc5920ba14610336578063bf0b1abb1461033e578063c4d66de814610351576101a9565b80638da5cb5b146102db578063a3bf0df8146102e3578063acf7182714610303576101a9565b806359bfbc5a116101665780636c8381f8116101405780636c8381f814610298578063715018a6146102ad5780637fc26736146102b5578063865bcccc146102c8576101a9565b806359bfbc5a1461025f5780635b778b9d1461027257806367b1f5df14610285576101a9565b806313af4035146101ae578063398dbcfd146101c3578063436933ea146101ec578063449323d81461020c57806347b52fb71461021f5780634dffaee51461023f575b600080fd5b6101c16101bc366004615670565b6103d5565b005b6101d66101d13660046156e0565b610530565b6040516101e391906160f7565b60405180910390f35b6101ff6101fa3660046156a8565b6107ff565b6040516101e39190615dc2565b6101c161021a366004615670565b610879565b61023261022d3660046157e8565b61094e565b6040516101e39190615e53565b61025261024d36600461582f565b610b63565b6040516101e39190615e06565b61023261026d366004615670565b610be6565b6101d66102803660046159ae565b610c05565b6101c1610293366004615670565b610dd7565b6102a0610ea4565b6040516101e39190615cea565b6101c1610eb3565b6102326102c33660046157e8565b610f66565b6102326102d636600461582f565b6111b4565b6102a0611216565b6102f66102f13660046159bf565b611225565b6040516101e39190616131565b610316610311366004615882565b611827565b6040516101e3919061605a565b6101c161033136600461589a565b6118c2565b6101c1611954565b61023261034c366004615743565b611a52565b6101c161035f366004615670565b611a5f565b6102a0611b13565b6102a0611b22565b6101c1610382366004615c4e565b611b31565b61039a6103953660046158fd565b611cd1565b6040516101e39190616017565b6103166103b536600461578d565b6120d5565b6102a0612188565b6102326103d036600461578d565b612197565b6103dd612245565b6001600160a01b03166103ee611216565b6001600160a01b031614610432576040805162461bcd60e51b8152602060048201526006602482015265534f5f434e4f60d01b604482015290519081900360640190fd5b6001600160a01b038116610476576040805162461bcd60e51b81526020600482015260066024820152650534f5f4e57360d41b604482015290519081900360640190fd5b6033546001600160a01b03828116911614156104c2576040805162461bcd60e51b8152602060048201526006602482015265534f5f53414f60d01b604482015290519081900360640190fd5b6034546001600160a01b038281169116141561050e576040805162461bcd60e51b8152602060048201526006602482015265534f5f53414360d01b604482015290519081900360640190fd5b603480546001600160a01b0319166001600160a01b0392909216919091179055565b6105386153df565b6067546001600160a01b031661054c612245565b6001600160a01b03161461057b5760405162461bcd60e51b815260040161057290615e7c565b60405180910390fd5b609a5460405163bbe4f6db60e01b81526000916001600160a01b03169063bbe4f6db906105ac908890600401615cea565b60206040518083038186803b1580156105c457600080fd5b505afa1580156105d8573d6000803e3d6000fd5b505050506040513d601f19601f820116820180604052508101906105fc919061568c565b90506106066153df565b60005b848110156107f257600060cf600088888581811061062357fe5b60209081029290920135835250818101929092526040908101600090812082516101208101845281546001600160801b0381168252600160801b8104600290810b810b810b968301879052600160981b909104810b810b810b948201859052600183015460608301528201546080820152600382015460a0820152600482015460c0820152600582015460e08201526006909101546101008201529350916106ce918c918c91612249565b9050808888858181106106dd57fe5b90506020020135146107015760405162461bcd60e51b815260040161057290615f97565b60006107746040518060e001604052808d6001600160a01b031681526020018c6001600160a01b03168152602001886001600160a01b03168152602001848152602001856020015160020b8152602001856040015160020b815260200185600001516001600160801b03168152506122aa565b805186519192506107859190612522565b85526020808201519086015161079a91612522565b6020860152604080820151908601516107b291612522565b6040860152606080820151908601516107ca9161257c565b6060860152608080820151908601516107e29161257c565b6080860152505050600101610609565b509150505b949350505050565b6001600160a01b03808316600090815260ce6020908152604080832093851683529281529082902080548351818402810184019094528084526060939283018282801561086b57602002820191906000526020600020905b815481526020019060010190808311610857575b505050505090505b92915050565b610881612245565b6001600160a01b0316610892611216565b6001600160a01b0316146108d6576040805162461bcd60e51b8152602060048201526006602482015265534f5f434e4f60d01b604482015290519081900360640190fd5b6108e8816001600160a01b03166125e1565b6109045760405162461bcd60e51b815260040161057290615f1d565b606780546001600160a01b0319166001600160a01b0383169081179091556040517fd0654f5900f9e7e4e605a19334306e6a2786bbf960ac0484a4c12feb6428fe2f90600090a250565b6001600160a01b03808416600090815260ce60209081526040808320938616835292815282822080548451818402810184019095528085529293849390928301828280156109bb57602002820191906000526020600020905b8154815260200190600101908083116109a7575b5050506001600160a01b03808816600090815260d06020526040808220609a54915163bbe4f6db60e01b815296975095919450909116915063bbe4f6db90610a07908990600401615cea565b60206040518083038186803b158015610a1f57600080fd5b505afa158015610a33573d6000803e3d6000fd5b505050506040513d601f19601f82011682018060405250810190610a57919061568c565b905060005b8351811015610b5757600060cf6000868481518110610a7757fe5b6020908102919091018101518252818101929092526040908101600090812082516101208101845281546001600160801b0381168252600160801b8104600290810b810b810b968301879052600160981b909104810b810b810b948201859052600183015460608301528201546080820152600382015460a0820152600482015460c0820152600582015460e0820152600690910154610100820152935091610b3591610b23876125e7565b8b5160208d01518a9493929190612667565b9050610b4b610b44838361274b565b889061257c565b96505050600101610a5c565b505050505b9392505050565b6000805b82811015610bdb576001600160a01b038516600090815260ce6020526040812081868685818110610b9457fe5b9050602002016020810190610ba99190615670565b6001600160a01b031681526020810191909152604001600020541115610bd3576001915050610b5c565b600101610b67565b506000949350505050565b6001600160a01b038116600090815260d160205260409020545b919050565b610c0d6153df565b6067546001600160a01b0316610c21612245565b6001600160a01b031614610c475760405162461bcd60e51b815260040161057290615e7c565b609a546000906001600160a01b031663bbe4f6db610c6b6040860160208701615670565b6040518263ffffffff1660e01b8152600401610c879190615cea565b60206040518083038186803b158015610c9f57600080fd5b505afa158015610cb3573d6000803e3d6000fd5b505050506040513d601f19601f82011682018060405250810190610cd7919061568c565b90506000610d20610ceb6020860186615670565b610cfb6040870160208801615670565b610d0b60608801604089016158c5565b610d1b6080890160608a016158c5565b612249565b6040805160e081019091529091506107f79080610d406020880188615670565b6001600160a01b03168152602001866020016020810190610d619190615670565b6001600160a01b03168152602001846001600160a01b03168152602001838152602001866040016020810190610d9791906158c5565b60020b8152602001610daf60808801606089016158c5565b60020b8152602001610dc760a0880160808901615a75565b6001600160801b031690526122aa565b610ddf612245565b6001600160a01b0316610df0611216565b6001600160a01b031614610e34576040805162461bcd60e51b8152602060048201526006602482015265534f5f434e4f60d01b604482015290519081900360640190fd5b6001600160a01b038116610e5a5760405162461bcd60e51b815260040161057290615ebd565b60cd80546001600160a01b0319166001600160a01b0383169081179091556040517f39870277935708b88965de17b0c29d3c1ad93a200dce569fc56702229432973e90600090a250565b6034546001600160a01b031690565b610ebb612245565b6001600160a01b0316610ecc611216565b6001600160a01b031614610f10576040805162461bcd60e51b8152602060048201526006602482015265534f5f434e4f60d01b604482015290519081900360640190fd5b6033546040516000916001600160a01b0316907f8be0079c531659141344cd1fd0a4f28419497f9722a3daafe3b4186f6b6457e0908390a3603380546001600160a01b0319908116909155603480549091169055565b6001600160a01b03808416600090815260ce6020908152604080832093861683529281528282208054845181840281018401909552808552929384939092830182828015610fd357602002820191906000526020600020905b815481526020019060010190808311610fbf575b5050506001600160a01b03808816600090815260d06020526040808220609a54915163bbe4f6db60e01b815296975095919450909116915063bbe4f6db9061101f908990600401615cea565b60206040518083038186803b15801561103757600080fd5b505afa15801561104b573d6000803e3d6000fd5b505050506040513d601f19601f8201168201806040525081019061106f919061568c565b835190915060005b818110156111a857600060cf600087848151811061109157fe5b6020908102919091018101518252810191909152604001600090812080549092506110e790600160801b8104600290810b91600160981b9004900b6110d5886125e7565b8c5160208e01518b9493929190612667565b604080516101208101825284546001600160801b0381168252600160801b8104600290810b810b810b6020840152600160981b909104810b810b810b9282019290925260018501546060820152908401546080820152600384015460a0820152600484015460c0820152600584015460e0820152600684015461010082015290915061117e90611177908361274b565b899061257c565b81516002840155602082015160038401556040909101516004909201919091559550600101611077565b50505050509392505050565b60008060005b8381101561120d5760008585838181106111d057fe5b90506020020160208101906111e59190615670565b905060006111f588836000612831565b90506112018482612522565b935050506001016111ba565b50949350505050565b6033546001600160a01b031690565b61122d61540e565b60cd546001600160a01b0316611241612245565b6001600160a01b0316146112675760405162461bcd60e51b815260040161057290615efd565b609a54825160405163bbe4f6db60e01b81526000926001600160a01b03169163bbe4f6db916112999190600401615cea565b60206040518083038186803b1580156112b157600080fd5b505afa1580156112c5573d6000803e3d6000fd5b505050506040513d601f19601f820116820180604052508101906112e9919061568c565b6060840151609a54855160405163033e16f360e21b81529394506000928312936001600160a01b0390921691630cf85bcc9161132791600401615cea565b60806040518083038186803b15801561133f57600080fd5b505afa158015611353573d6000803e3d6000fd5b505050506040513d601f19601f820116820180604052508101906113779190615930565b60600151905060008060006113ba86896060015160d160008c600001516001600160a01b03166001600160a01b0316815260200190815260200160002054612b06565b905087608001516001600160a01b03166000146113db578760800151611405565b87602001516113fe5773fffd8963efd1fc6a506488495d951d5263988d25611405565b6401000276a45b6001600160a01b03166080890152600061141e87612bd8565b90505b60408201511580159061144e575088608001516001600160a01b031682602001516001600160a01b031614155b156117d65761145b615432565b6020808401516001600160a01b031682528351908b015161147f918a918590612c4b565b15156040830152600290810b810b60208301819052620d89e719910b12156114b057620d89e71960208201526114cf565b6020810151620d89e860029190910b13156114cf57620d89e860208201525b6114dc8160200151612d6d565b6001600160a01b03166060820152602080840151908b0151611579919061151f578b608001516001600160a01b031683606001516001600160a01b03161161153d565b8b608001516001600160a01b031683606001516001600160a01b0316105b61154b578260600151611551565b8b608001515b856080015186604001518e6020015161156e578e60a00151611574565b8e60c001515b61309f565b60c085015260a084015260808301526001600160a01b0316602084015286156115d7576115cd6115c26115bd8360c00151846080015161252290919063ffffffff16565b613291565b6040850151906132dd565b60408401526115f8565b6115f26115e78260a00151613291565b60408501519061257c565b60408401525b60808301516001600160801b03161561169a57896020015115611636576116308160a001518b60a0015162ffffff16620f4240613342565b60c08201525b60c0810151948501946000906116559062ffffff8916620f4240613342565b60c08301519581019590915060009061166e908361337c565b905061168c81600160801b87608001516001600160801b03166133d9565b606086018051909101905250505b80606001516001600160a01b031683602001516001600160a01b031614156117985780604001511561176e578960400151156117255789516001600160a01b0316600090815260d0602090815260409182902083820151835160608082018652880151815260e08f01805151828601525190930151938301939093529161172391839190613488565b505b60006117358983602001516134c7565b90508a60200151156117505761174d81600f0b613556565b90505b61175e846080015182613592565b6001600160801b03166080850152505b896020015161178157806020015161178a565b60018160200151035b600290810b900b83526117d0565b80600001516001600160a01b031683602001516001600160a01b0316146117d0576117c68360200151613648565b600290810b900b83525b50611421565b88604001511561180057606082015189516001600160a01b0316600090815260d160205260409020555b5060408051606081018252915160020b825260208201939093529182015295945050505050565b61182f61546e565b50600090815260cf602090815260409182902082516101208101845281546001600160801b0381168252600160801b8104600290810b810b810b94830194909452600160981b9004830b830b830b9381019390935260018101546060840152908101546080830152600381015460a0830152600481015460c0830152600581015460e08301526006015461010082015290565b6067546001600160a01b03166118d6612245565b6001600160a01b0316146118fc5760405162461bcd60e51b815260040161057290615e7c565b600083815260cf60205260409020600581015461192d9061192890859061192290613291565b9061257c565b613967565b8160050181905550611949611928836119228460060154613291565b600690910155505050565b6034546001600160a01b0316611999576040805162461bcd60e51b81526020600482015260056024820152640534f5f43360dc1b604482015290519081900360640190fd5b6119a1612245565b6034546001600160a01b039081169116146119ec576040805162461bcd60e51b8152602060048201526006602482015265534f5f434e4360d01b604482015290519081900360640190fd5b6034546033546040516001600160a01b0392831692909116907f8be0079c531659141344cd1fd0a4f28419497f9722a3daafe3b4186f6b6457e090600090a360348054603380546001600160a01b03199081166001600160a01b03841617909155169055565b60006107f7848484612831565b600054610100900460ff1680611a785750611a786139be565b80611a86575060005460ff16155b611ac15760405162461bcd60e51b815260040180806020018281038252602e815260200180616233602e913960400191505060405180910390fd5b600054610100900460ff16158015611aec576000805460ff1961ff0019909116610100171660011790555b611af46139cf565b611afd82613a79565b8015611b0f576000805461ff00191690555b5050565b6067546001600160a01b031690565b609a546001600160a01b031690565b6000611b3b612245565b90506000816001600160a01b0316630dfe16816040518163ffffffff1660e01b815260040160206040518083038186803b158015611b7857600080fd5b505afa158015611b8c573d6000803e3d6000fd5b505050506040513d601f19601f82011682018060405250810190611bb0919061568c565b609a5460405163bbe4f6db60e01b81529192506001600160a01b03169063bbe4f6db90611be1908490600401615cea565b60206040518083038186803b158015611bf957600080fd5b505afa158015611c0d573d6000803e3d6000fd5b505050506040513d601f19601f82011682018060405250810190611c31919061568c565b6001600160a01b0316826001600160a01b031614611c615760405162461bcd60e51b815260040161057290615f3f565b60675460405163d348799760e01b81526001600160a01b039091169063d348799790611c97908990899089908990600401616155565b600060405180830381600087803b158015611cb157600080fd5b505af1158015611cc5573d6000803e3d6000fd5b50505050505050505050565b611cd96154c9565b6067546001600160a01b0316611ced612245565b6001600160a01b031614611d135760405162461bcd60e51b815260040161057290615e7c565b609a546000906001600160a01b031663bbe4f6db611d376040860160208701615670565b6040518263ffffffff1660e01b8152600401611d539190615cea565b60206040518083038186803b158015611d6b57600080fd5b505afa158015611d7f573d6000803e3d6000fd5b505050506040513d601f19601f82011682018060405250810190611da3919061568c565b9050600060d181611dba6040870160208801615670565b6001600160a01b03166001600160a01b03168152602001908152602001600020549050600060d06000866020016020810190611df69190615670565b6001600160a01b03166001600160a01b031681526020019081526020016000209050611e20615504565b6000611e3b85611e3660a08a0160808b016158c5565b613b6c565b90506000611e5386611e3660c08b0160a08c016158c5565b9050611f196040518060c00160405280886001600160a01b031681526020018a6080016020810190611e8591906158c5565b60020b8152602001611e9d60c08c0160a08d016158c5565b60020b81526020018a6040013581526020018a60600135815260200160405180604001604052808c6000016020810190611ed79190615670565b6001600160a01b031681526020018a6001600160a01b0316815250604051602001611f0291906160d4565b604051602081830303815290604052815250613bfa565b92506000611f26876125e7565b905082158015611f455750611f4587611e3660a08c0160808d016158c5565b15611f8a57611f8a611f5d60a08b0160808c016158c5565b6040805160608101825289815260c08d0135602082015260e08d0135918101919091528791908490613d64565b81158015611fa75750611fa787611e3660c08c0160a08d016158c5565b15611fbf57611fbf611f5d60c08b0160a08c016158c5565b5050506000806120926040518061014001604052808a6000016020810190611fe79190615670565b6001600160a01b031681526020018a60200160208101906120089190615670565b6001600160a01b0390811682528916602082015260400161202f60a08c0160808d016158c5565b60020b815260200161204760c08c0160a08d016158c5565b60020b815260208082018990526040878101516001600160801b03169083015286516060830152860151608082015260a00161208b368c90038c0160c08d01615915565b9052613da3565b6040805160a08101825286518152602080880151908201528082019290925294909401516001600160801b03166060850152608084015250909695505050505050565b6120dd61546e565b60cf60006120ed87878787612249565b8152602080820192909252604090810160002081516101208101835281546001600160801b0381168252600160801b8104600290810b810b810b95830195909552600160981b9004840b840b840b9281019290925260018101546060830152918201546080820152600382015460a0820152600482015460c0820152600582015460e082015260069091015461010082015295945050505050565b60cd546001600160a01b031690565b6000806107f28560cf60006121ae8a8a8a8a612249565b8152602080820192909252604090810160002081516101208101835281546001600160801b0381168252600160801b8104600290810b810b810b95830195909552600160981b9004840b840b840b9281019290925260018101546060830152918201546080820152600382015460a0820152600482015460c0820152600582015460e082015260069091015461010082015261409b565b3390565b604080516bffffffffffffffffffffffff19606096871b81166020808401919091529590961b9095166034860152600292830b60e890811b60488701529190920b901b604b8401528051602e818503018152604e9093019052815191012090565b6122b26153df565b606080830151600090815260cf602090815260409182902082516101208101845281546001600160801b038116808352600160801b8204600290810b810b810b95840195909552600160981b909104840b840b840b94820194909452600182015494810194909452908101546080840152600381015460a0840152600481015460c0840152600581015460e0840152600601546101008301526123675760405162461bcd60e51b815260040161057290615edd565b80600001516001600160801b03168360c001516001600160801b031611156123a15760405162461bcd60e51b815260040161057290615e5c565b60006124186040518060a0016040528086604001516001600160a01b0316815260200160cd60009054906101000a90046001600160a01b03166001600160a01b03168152602001866080015160020b81526020018660a0015160020b81526020018660c001516001600160801b0316815250614197565b90506000806000612428876142ed565b925092509250600061244d61243c84613291565b865161244790613291565b906132dd565b9050600061246a61245d84613291565b6124478860200151613291565b905061247e89604001518a60800151613b6c565b6124ad5760808901516020808b01516001600160a01b0316600090815260d0909152604090206124ad916144b6565b6124bf89604001518a60a00151613b6c565b6124ee5760a08901516020808b01516001600160a01b0316600090815260d0909152604090206124ee916144b6565b6040805160a08101825287518152602097880151978101979097528601949094526060850152505060808201529392505050565b600082820183811015610b5c576040805162461bcd60e51b815260206004820152601b60248201527f536166654d6174683a206164646974696f6e206f766572666c6f770000000000604482015290519081900360640190fd5b60008282018183128015906125915750838112155b806125a657506000831280156125a657508381125b610b5c5760405162461bcd60e51b81526004018080602001828103825260218152602001806162126021913960400191505060405180910390fd5b3b151590565b6000816001600160a01b0316633850c7bd6040518163ffffffff1660e01b815260040160e06040518083038186803b15801561262257600080fd5b505afa158015612636573d6000803e3d6000fd5b505050506040513d601f19601f8201168201806040525081019061265a9190615b85565b5093979650505050505050565b61266f61552e565b600286810b810b60009081526020899052604080822088840b90930b82529020600180830154908201546126a161552e565b8a60020b8960020b12156126b7578288036126b9565b825b6020820152600060028b810b908b900b126126d6578289036126d8565b825b905060008660020154905060008660020154905060008e60020b8d60020b121561270457828b03612706565b825b905060008e60020b8e60020b1261271f57828c03612721565b825b6020870151909d03949094038552909903999099036040830152509b9a5050505050505050505050565b60008061275b8460400151612d6d565b9050600061277861276f8660200151612d6d565b865184906144da565b905060006127a961279a8760a0015187602001516132dd90919063ffffffff16565b6127a384613291565b90614543565b9050600061280c6127f86127e56127d18a608001518a600001516132dd90919063ffffffff16565b600160601b886001600160a01b03166145ec565b60c08a015160408a0151612447916132dd565b88516127a3906001600160801b0316613291565b9050612826600160601b612820848461257c565b90614690565b979650505050505050565b6001600160a01b03808416600090815260ce602090815260408083209386168352928152828220805484518184028101840190955280855292938493909283018282801561289e57602002820191906000526020600020905b81548152602001906001019080831161288a575b5050609a5460405163bbe4f6db60e01b815294955060009461293294506001600160a01b03909116925063bbe4f6db91506128dd908990600401615cea565b60206040518083038186803b1580156128f557600080fd5b505afa158015612909573d6000803e3d6000fd5b505050506040513d601f19601f8201168201806040525081019061292d919061568c565b614748565b8251909150600090815b81811015612af957600060cf600087848151811061295657fe5b6020908102919091018101518252818101929092526040908101600090812082516101208101845281546001600160801b0381168252600160801b8104600290810b810b810b968301879052600160981b909104810b810b810b9482019490945260018201546060820152928101546080840152600381015460a0840152600481015460c0840152600581015460e084015260060154610100830152909250908190612a0190612d6d565b90506000612a128460400151612d6d565b90508a8015612a325750806001600160a01b0316886001600160a01b0316105b15612a6b57612a64826001600160a01b0316896001600160a01b031611612a595782612a5b565b885b855183906144da565b9250612abe565b8a158015612a8a5750816001600160a01b0316886001600160a01b0316115b15612abe57612abb82826001600160a01b03168a6001600160a01b031610612ab25782612ab4565b895b86516147c8565b92505b50612acb90508582612522565b945088612aef576000612ade8b8461409b565b509050612aeb8682612522565b9550505b505060010161293c565b5090979650505050505050565b612b0e61554f565b600080856001600160a01b0316633850c7bd6040518163ffffffff1660e01b815260040160e06040518083038186803b158015612b4a57600080fd5b505afa158015612b5e573d6000803e3d6000fd5b505050506040513d601f19601f82011682018060405250810190612b829190615b85565b5050505050915091506040518060a001604052808260020b8152602001836001600160a01b03168152602001868152602001858152602001612bc38861480b565b6001600160801b031690529695505050505050565b6000816001600160a01b031663d0c93a7c6040518163ffffffff1660e01b815260040160206040518083038186803b158015612c1357600080fd5b505afa158015612c27573d6000803e3d6000fd5b505050506040513d601f19601f8201168201806040525081019061087391906158e1565b60008060008460020b8660020b81612c5f57fe5b05905060008660020b128015612c8657508460020b8660020b81612c7f57fe5b0760020b15155b15612c9057600019015b8315612cf957600080612ca28361487e565b9092509050600160ff82161b800160001901600081612cc18c86614890565b168015159650905085612cdb57888360ff16860302612cee565b88612ce58261490f565b840360ff168603025b965050505050612d63565b600080612d088360010161487e565b9092509050600019600160ff83161b0119600081612d268c86614890565b168015159650905085612d4657888360ff0360ff16866001010102612d5c565b8883612d51836149af565b0360ff168660010101025b9650505050505b5094509492505050565b60008060008360020b12612d84578260020b612d8c565b8260020b6000035b9050620d89e8811115612dca576040805162461bcd60e51b81526020600482015260016024820152601560fa1b604482015290519081900360640190fd5b600060018216612dde57600160801b612df0565b6ffffcb933bd6fad37aa2d162d1a5940015b70ffffffffffffffffffffffffffffffffff1690506002821615612e24576ffff97272373d413259a46990580e213a0260801c5b6004821615612e43576ffff2e50f5f656932ef12357cf3c7fdcc0260801c5b6008821615612e62576fffe5caca7e10e4e61c3624eaa0941cd00260801c5b6010821615612e81576fffcb9843d60f6159c9db58835c9266440260801c5b6020821615612ea0576fff973b41fa98c081472e6896dfb254c00260801c5b6040821615612ebf576fff2ea16466c96a3843ec78b326b528610260801c5b6080821615612ede576ffe5dee046a99a2a811c461f1969c30530260801c5b610100821615612efe576ffcbe86c7900a88aedcffc83b479aa3a40260801c5b610200821615612f1e576ff987a7253ac413176f2b074cf7815e540260801c5b610400821615612f3e576ff3392b0822b70005940c7a398e4b70f30260801c5b610800821615612f5e576fe7159475a2c29b7443b29c7fa6e889d90260801c5b611000821615612f7e576fd097f3bdfd2022b8845ad8f792aa58250260801c5b612000821615612f9e576fa9f746462d870fdf8a65dc1f90e061e50260801c5b614000821615612fbe576f70d869a156d2a1b890bb3df62baf32f70260801c5b618000821615612fde576f31be135f97d08fd981231505542fcfa60260801c5b62010000821615612fff576f09aa508b5b7a84e1c677de54f3e99bc90260801c5b6202000082161561301f576e5d6af8dedb81196699c329225ee6040260801c5b6204000082161561303e576d2216e584f5fa1ea926041bedfe980260801c5b6208000082161561305b576b048a170391f7dc42444e8fa20260801c5b60008460020b131561307657806000198161307257fe5b0490505b64010000000081061561308a57600161308d565b60005b60ff16602082901c0192505050919050565b60008080806001600160a01b03808916908a1610158187128015906131245760006130d88989620f42400362ffffff16620f42406133d9565b9050826130f1576130ec8c8c8c6001614a99565b6130fe565b6130fe8b8d8c6001614b12565b955085811061310f578a965061311e565b61311b8c8b8386614bb2565b96505b5061316e565b8161313b576131368b8b8b6000614b12565b613148565b6131488a8c8b6000614a99565b935083886000031061315c5789955061316e565b61316b8b8a8a60000385614bfe565b95505b6001600160a01b038a81169087161482156131d15780801561318d5750815b6131a35761319e878d8c6001614b12565b6131a5565b855b95508080156131b2575081155b6131c8576131c3878d8c6000614a99565b6131ca565b845b945061321b565b8080156131db5750815b6131f1576131ec8c888c6001614a99565b6131f3565b855b9550808015613200575081155b613216576132118c888c6000614b12565b613218565b845b94505b8115801561322b57508860000385115b15613237578860000394505b81801561325657508a6001600160a01b0316876001600160a01b031614155b15613265578589039350613282565b61327f868962ffffff168a620f42400362ffffff16613342565b93505b50505095509550955095915050565b60006001600160ff1b038211156132d95760405162461bcd60e51b81526004018080602001828103825260288152602001806162a96028913960400191505060405180910390fd5b5090565b60008183038183128015906132f25750838113155b80613307575060008312801561330757508381135b610b5c5760405162461bcd60e51b81526004018080602001828103825260248152602001806162d16024913960400191505060405180910390fd5b600061334f8484846133d9565b90506000828061335b57fe5b8486091115610b5c57600019811061337257600080fd5b6001019392505050565b6000828211156133d3576040805162461bcd60e51b815260206004820152601e60248201527f536166654d6174683a207375627472616374696f6e206f766572666c6f770000604482015290519081900360640190fd5b50900390565b600080806000198587098686029250828110908390030390508061340f576000841161340457600080fd5b508290049050610b5c565b80841161341b57600080fd5b6000848688096000868103871696879004966002600389028118808a02820302808a02820302808a02820302808a02820302808a02820302808a02909103029181900381900460010186841190950394909402919094039290920491909117919091029150509392505050565b600291820b820b600090815260209384526040908190208054835103815560018101805495840151959095039094559290910180549190920151039055565b60405163f30dba9360e01b81526000906001600160a01b0384169063f30dba93906134f6908590600401615e1f565b6101006040518083038186803b15801561350f57600080fd5b505afa158015613523573d6000803e3d6000fd5b505050506040513d601f19601f820116820180604052508101906135479190615aad565b50949998505050505050505050565b60006f7fffffffffffffffffffffffffffffff1982600f0b1361358b5760405162461bcd60e51b815260040161057290615f60565b5060000390565b60008082600f0b12156135f757826001600160801b03168260000384039150816001600160801b0316106135f2576040805162461bcd60e51b81526020600482015260026024820152614c5360f01b604482015290519081900360640190fd5b610873565b826001600160801b03168284019150816001600160801b03161015610873576040805162461bcd60e51b81526020600482015260026024820152614c4160f01b604482015290519081900360640190fd5b60006401000276a36001600160a01b03831610801590613684575073fffd8963efd1fc6a506488495d951d5263988d266001600160a01b038316105b6136b9576040805162461bcd60e51b81526020600482015260016024820152602960f91b604482015290519081900360640190fd5b640100000000600160c01b03602083901b166001600160801b03811160071b81811c67ffffffffffffffff811160061b90811c63ffffffff811160051b90811c61ffff811160041b90811c60ff8111600390811b91821c600f811160021b90811c918211600190811b92831c9790881196179094179092171790911717176080811061374d57607f810383901c9150613757565b80607f0383901b91505b908002607f81811c60ff83811c9190911c800280831c81831c1c800280841c81841c1c800280851c81851c1c800280861c81861c1c800280871c81871c1c800280881c81881c1c800280891c81891c1c8002808a1c818a1c1c8002808b1c818b1c1c8002808c1c818c1c1c8002808d1c818d1c1c8002808e1c9c81901c9c909c1c80029c8d901c9e9d607f198f0160401b60c09190911c678000000000000000161760c19b909b1c674000000000000000169a909a1760c29990991c672000000000000000169890981760c39790971c671000000000000000169690961760c49590951c670800000000000000169490941760c59390931c670400000000000000169290921760c69190911c670200000000000000161760c79190911c670100000000000000161760c89190911c6680000000000000161760c99190911c6640000000000000161760ca9190911c6620000000000000161760cb9190911c6610000000000000161760cc9190911c6608000000000000161760cd9190911c66040000000000001617693627a301d71055774c8581026f028f6481ab7f045a5af012a19d003aa9198101608090811d906fdb2df09e81959a81455e260799a0632f8301901d600281810b9083900b1461395857886001600160a01b031661393c82612d6d565b6001600160a01b031611156139515781613953565b805b61395a565b815b9998505050505050505050565b6000808212156132d9576040805162461bcd60e51b815260206004820181905260248201527f53616665436173743a2076616c7565206d75737420626520706f736974697665604482015290519081900360640190fd5b60006139c9306125e1565b15905090565b600054610100900460ff16806139e857506139e86139be565b806139f6575060005460ff16155b613a315760405162461bcd60e51b815260040180806020018281038252602e815260200180616233602e913960400191505060405180910390fd5b600054610100900460ff16158015613a5c576000805460ff1961ff0019909116610100171660011790555b613a64614c4a565b8015613a76576000805461ff00191690555b50565b600054610100900460ff1680613a925750613a926139be565b80613aa0575060005460ff16155b613adb5760405162461bcd60e51b815260040180806020018281038252602e815260200180616233602e913960400191505060405180910390fd5b600054610100900460ff16158015613b06576000805460ff1961ff0019909116610100171660011790555b613b0e614d4b565b613b20826001600160a01b03166125e1565b613b3c5760405162461bcd60e51b815260040161057290615ff5565b609a80546001600160a01b0319166001600160a01b0384161790558015611b0f576000805461ff00191690555050565b60405163f30dba9360e01b81526000906001600160a01b0384169063f30dba9390613b9b908590600401615e1f565b6101006040518083038186803b158015613bb457600080fd5b505afa158015613bc8573d6000803e3d6000fd5b505050506040513d601f19601f82011682018060405250810190613bec9190615aad565b9a9950505050505050505050565b613c02615504565b600082606001511180613c19575060008260800151115b613c355760405162461bcd60e51b815260040161057290615e9d565b6000613c70613c478460000151614748565b613c548560200151612d6d565b613c618660400151612d6d565b86606001518760800151614de0565b90506000816001600160801b031611613c9b5760405162461bcd60e51b815260040161057290615fd6565b8251602084015160408086015160a08701519151633c8a7d8d60e01b815260009485946001600160a01b0390911693633c8a7d8d93613ce1933093928a91600401615cfe565b6040805180830381600087803b158015613cfa57600080fd5b505af1158015613d0e573d6000803e3d6000fd5b505050506040513d601f19601f82011682018060405250810190613d329190615c2b565b915091506040518060600160405280838152602001828152602001846001600160801b03168152509350505050919050565b8160020b8360020b13613d9d57600283810b810b6000908152602086815260409182902084518155908401516001820155908301519101555b50505050565b6000806000613dc48460000151856020015186606001518760800151612249565b600081815260cf602052604090208054919250906001600160801b0316613f785784516001600160a01b03908116600090815260ce60209081526040808320828a015185168452825291829020609a548351633b38243160e21b815293519194169263ece090c4926004808301939192829003018186803b158015613e4857600080fd5b505afa158015613e5c573d6000803e3d6000fd5b505050506040513d601f19601f82011682018060405250810190613e809190615cc9565b60ff16818054905010613ea55760405162461bcd60e51b815260040161057290615fb6565b8054600181018255600082815260208082209092018590556060880151845460808a015162ffffff60801b19909116600160801b600293840b62ffffff90811682029290921762ffffff60981b1916600160981b93850b929092168302919091178088558b8601516001600160a01b0316855260d09095526040808520908c01519095613f5a94928104830b93900490910b90613f41906125e7565b6101208c01518051602090910151879493929190612667565b80516002860155602081015160038601556040015160048501555050505b602080860151604080516101208101825284546001600160801b0381168252600160801b8104600290810b810b810b95830195909552600160981b9004840b840b840b9181019190915260018401546060820152918301546080830152600383015460a0830152600483015460c0830152600583015460e08301526006830154610100830152600091829161400c9161409b565b60c0890151855492945090925061403891614033916001600160801b039182169116612522565b614ea2565b83546001600160801b0319166001600160801b03919091161783556001830181905560e0870151600584015461406d91612522565b6005840155610100870151600684015461408691612522565b60069093019290925591935090915050915091565b6001600160a01b03808316600090815260d0602090815260408083209185015185820151609a54925163bbe4f6db60e01b8152949586956141689461414592169063bbe4f6db906140f0908c90600401615cea565b60206040518083038186803b15801561410857600080fd5b505afa15801561411c573d6000803e3d6000fd5b505050506040513d601f19601f82011682018060405250810190614140919061568c565b6125e7565b6001600160a01b038916600090815260d160205260409020548593929190614eea565b915061418c8460600151830385600001516001600160801b0316600160801b6133d9565b9250505b9250929050565b61419f61557d565b60008083600001516001600160a01b031663a34123a78560400151866060015187608001516040518463ffffffff1660e01b81526004016141e293929190615e2d565b6040805180830381600087803b1580156141fb57600080fd5b505af115801561420f573d6000803e3d6000fd5b505050506040513d601f19601f820116820180604052508101906142339190615c2b565b9150915083600001516001600160a01b0316634f1eb3d88560200151866040015187606001516001600160801b03806040518663ffffffff1660e01b8152600401614282959493929190615d85565b6040805180830381600087803b15801561429b57600080fd5b505af11580156142af573d6000803e3d6000fd5b505050506040513d601f19601f820116820180604052508101906142d39190615b57565b505060408051808201909152918252602082015292915050565b606080820151600090815260cf602090815260408083208286015182516101208101845282546001600160801b0381168252600160801b8104600290810b810b810b96830196909652600160981b9004850b850b850b93810193909352600182015495830195909552918201546080820152600382015460a0820152600482015460c0820152600582015460e0820152600682015461010082015291928392839291839161439b919061409b565b60c088015191965091506001600160801b03161561447a576005820154156143f857600582015460c087015183546143e092916001600160801b0390811691166133d9565b60058301549094506143f2908561337c565b60058301555b60068201541561443d57600682015460c0870151835461442592916001600160801b0390811691166133d9565b6006830154909350614437908461337c565b60068301555b60c0860151825461445e91614033916001600160801b03908116911661337c565b82546001600160801b0319166001600160801b03919091161782555b81546001600160801b03166144a5576144a0866000015187602001518860600151614f52565b6144ad565b600182018190555b50509193909250565b600290810b810b600090815260209290925260408220828155600181018390550155565b6000826001600160a01b0316846001600160a01b031611156144fa579192915b836001600160a01b0316614533606060ff16846001600160801b0316901b8686036001600160a01b0316866001600160a01b03166133d9565b8161453a57fe5b04949350505050565b60008261455257506000610873565b826000191480156145665750600160ff1b82145b156145a25760405162461bcd60e51b81526004018080602001828103825260278152602001806162826027913960400191505060405180910390fd5b828202828482816145af57fe5b0514610b5c5760405162461bcd60e51b81526004018080602001828103825260278152602001806162826027913960400191505060405180910390fd5b600080600085126145fd5784614606565b6146068561505b565b905060008085126146175784614620565b6146208561505b565b9050600080871280156146335750600086135b8061464957506000871380156146495750600086125b614654576000614657565b60015b905060006146668484886133d9565b90508161467b5761467681613291565b614684565b61468481615080565b98975050505050505050565b6000816146e4576040805162461bcd60e51b815260206004820181905260248201527f5369676e6564536166654d6174683a206469766973696f6e206279207a65726f604482015290519081900360640190fd5b816000191480156146f85750600160ff1b83145b156147345760405162461bcd60e51b81526004018080602001828103825260218152602001806162616021913960400191505060405180910390fd5b600082848161473f57fe5b05949350505050565b6000816001600160a01b0316633850c7bd6040518163ffffffff1660e01b815260040160e06040518083038186803b15801561478357600080fd5b505afa158015614797573d6000803e3d6000fd5b505050506040513d601f19601f820116820180604052508101906147bb9190615b85565b5094979650505050505050565b6000826001600160a01b0316846001600160a01b031611156147e8579192915b6107f7826001600160801b03168585036001600160a01b0316600160601b6133d9565b6000816001600160a01b0316631a6865026040518163ffffffff1660e01b815260040160206040518083038186803b15801561484657600080fd5b505afa15801561485a573d6000803e3d6000fd5b505050506040513d601f19601f820116820180604052508101906108739190615a91565b60020b600881901d9161010090910790565b60405163299ce14b60e11b81526000906001600160a01b03841690635339c296906148bf908590600401615e11565b60206040518083038186803b1580156148d757600080fd5b505afa1580156148eb573d6000803e3d6000fd5b505050506040513d601f19601f82011682018060405250810190610b5c9190615c13565b600080821161491d57600080fd5b600160801b821061493057608091821c91015b68010000000000000000821061494857604091821c91015b640100000000821061495c57602091821c91015b62010000821061496e57601091821c91015b610100821061497f57600891821c91015b6010821061498f57600491821c91015b6004821061499f57600291821c91015b60028210610c0057600101919050565b60008082116149bd57600080fd5b5060ff6001600160801b038216156149d857607f19016149e0565b608082901c91505b67ffffffffffffffff8216156149f957603f1901614a01565b604082901c91505b63ffffffff821615614a1657601f1901614a1e565b602082901c91505b61ffff821615614a3157600f1901614a39565b601082901c91505b60ff821615614a4b5760071901614a53565b600882901c91505b600f821615614a655760031901614a6d565b600482901c91505b6003821615614a7f5760011901614a87565b600282901c91505b6001821615610c005760001901919050565b6000836001600160a01b0316856001600160a01b03161115614ab9579293925b81614ae657614ae1836001600160801b03168686036001600160a01b0316600160601b6133d9565b614b09565b614b09836001600160801b03168686036001600160a01b0316600160601b613342565b95945050505050565b6000836001600160a01b0316856001600160a01b03161115614b32579293925b600160601b600160e01b03606084901b166001600160a01b038686038116908716614b5c57600080fd5b83614b8c57866001600160a01b0316614b7f8383896001600160a01b03166133d9565b81614b8657fe5b04612826565b612826614ba38383896001600160a01b0316613342565b886001600160a01b0316615094565b600080856001600160a01b031611614bc957600080fd5b6000846001600160801b031611614bdf57600080fd5b81614bf157614ae1858585600161509f565b614b098585856001615180565b600080856001600160a01b031611614c1557600080fd5b6000846001600160801b031611614c2b57600080fd5b81614c3d57614ae18585856000615180565b614b09858585600061509f565b600054610100900460ff1680614c635750614c636139be565b80614c71575060005460ff16155b614cac5760405162461bcd60e51b815260040180806020018281038252602e815260200180616233602e913960400191505060405180910390fd5b600054610100900460ff16158015614cd7576000805460ff1961ff0019909116610100171660011790555b614cdf614d4b565b6000614ce9612245565b603380546001600160a01b0319166001600160a01b038316908117909155604051919250906000907f8be0079c531659141344cd1fd0a4f28419497f9722a3daafe3b4186f6b6457e0908290a3508015613a76576000805461ff001916905550565b600054610100900460ff1680614d645750614d646139be565b80614d72575060005460ff16155b614dad5760405162461bcd60e51b815260040180806020018281038252602e815260200180616233602e913960400191505060405180910390fd5b600054610100900460ff16158015614dd8576000805460ff1961ff0019909116610100171660011790555b613a64615263565b6000836001600160a01b0316856001600160a01b03161115614e00579293925b846001600160a01b0316866001600160a01b031611614e2b57614e24858585615303565b9050614b09565b836001600160a01b0316866001600160a01b03161015614e8d576000614e52878686615303565b90506000614e61878986615366565b9050806001600160801b0316826001600160801b031610614e825780614e84565b815b92505050614b09565b614e98858584615366565b9695505050505050565b806001600160801b0381168114610c005760405162461bcd60e51b81526004018080602001828103825260278152602001806161eb6027913960400191505060405180910390fd5b600284810b80820b6000908152602088905260408082205487850b850b83529082205491939092849187900b1215614f2457828503614f26565b825b905060008760020b8760020b12614f3f57828603614f41565b825b919095030398975050505050505050565b6001600160a01b03808416600090815260ce602090815260408083209386168352929052908120805490915b818110156150535783838281548110614f9357fe5b9060005260206000200154141561504b57600182038114614fe157826001830381548110614fbd57fe5b9060005260206000200154838281548110614fd457fe5b6000918252602090912001555b82805480614feb57fe5b60008281526020808220830160001990810183905590920190925585825260cf90526040812080546001600160b01b0319168155600181018290556002810182905560038101829055600481018290556005810182905560060155615053565b600101614f7e565b505050505050565b6000600160ff1b821361358b5760405162461bcd60e51b815260040161057290615f60565b600061508b82613291565b60000392915050565b808204910615150190565b600081156151125760006001600160a01b038411156150d5576150d084600160601b876001600160801b03166133d9565b6150ed565b6001600160801b038516606085901b816150eb57fe5b045b905061510a6151056001600160a01b038816836153a3565b6153b3565b9150506107f7565b60006001600160a01b038411156151405761513b84600160601b876001600160801b0316613342565b615157565b615157606085901b6001600160801b038716615094565b905080866001600160a01b03161161516e57600080fd5b6001600160a01b0386160390506107f7565b60008261518e5750836107f7565b600160601b600160e01b03606085901b16821561521c576001600160a01b038616848102908582816151bc57fe5b0414156151ed578181018281106151eb576151e183896001600160a01b031683613342565b93505050506107f7565b505b6152138261520e878a6001600160a01b0316868161520757fe5b04906153a3565b615094565b925050506107f7565b6001600160a01b0386168481029085828161523357fe5b0414801561524057508082115b61524957600080fd5b8082036151e1615105846001600160a01b038b1684613342565b600054610100900460ff168061527c575061527c6139be565b8061528a575060005460ff16155b6152c55760405162461bcd60e51b815260040180806020018281038252602e815260200180616233602e913960400191505060405180910390fd5b600054610100900460ff16158015613a64576000805460ff1961ff0019909116610100171660011790558015613a76576000805461ff001916905550565b6000826001600160a01b0316846001600160a01b03161115615323579192915b6000615346856001600160a01b0316856001600160a01b0316600160601b6133d9565b9050614b0961536184838888036001600160a01b03166133d9565b6153c9565b6000826001600160a01b0316846001600160a01b03161115615386579192915b6107f761536183600160601b8787036001600160a01b03166133d9565b8082018281101561087357600080fd5b806001600160a01b0381168114610c0057600080fd5b806001600160801b0381168114610c0057600080fd5b6040518060a0016040528060008152602001600081526020016000815260200160008152602001600081525090565b6040518060600160405280600060020b815260200160008152602001600081525090565b6040805160e081018252600080825260208201819052918101829052606081018290526080810182905260a0810182905260c081019190915290565b60405180610120016040528060006001600160801b03168152602001600060020b8152602001600060020b81526020016000815260200160008152602001600081526020016000815260200160008152602001600081525090565b6040518060a0016040528060008152602001600081526020016000815260200160006001600160801b03168152602001600080191681525090565b6040518060600160405280600081526020016000815260200160006001600160801b031681525090565b60405180606001604052806000815260200160008152602001600081525090565b6040805160a08101825260008082526020820181905291810182905260608101829052608081019190915290565b604051806040016040528060008152602001600081525090565b8035610c0081616192565b60008083601f8401126155b3578182fd5b50813567ffffffffffffffff8111156155ca578182fd5b602083019150836020808302850101111561419057600080fd5b8035610c00816161a7565b8051610c00816161a7565b60006040828403121561560b578081fd5b6040516040810181811067ffffffffffffffff8211171561562857fe5b604052823581526020928301359281019290925250919050565b805161ffff81168114610c0057600080fd5b8035610c00816161d9565b805160ff81168114610c0057600080fd5b600060208284031215615681578081fd5b8135610b5c81616192565b60006020828403121561569d578081fd5b8151610b5c81616192565b600080604083850312156156ba578081fd5b82356156c581616192565b915060208301356156d581616192565b809150509250929050565b600080600080606085870312156156f5578182fd5b843561570081616192565b9350602085013561571081616192565b9250604085013567ffffffffffffffff81111561572b578283fd5b615737878288016155a2565b95989497509550505050565b600080600060608486031215615757578081fd5b833561576281616192565b9250602084013561577281616192565b91506040840135615782816161a7565b809150509250925092565b600080600080608085870312156157a2578182fd5b84356157ad81616192565b935060208501356157bd81616192565b925060408501356157cd816161b5565b915060608501356157dd816161b5565b939692955090935050565b6000806000608084860312156157fc578081fd5b833561580781616192565b9250602084013561581781616192565b915061582685604086016155fa565b90509250925092565b600080600060408486031215615843578081fd5b833561584e81616192565b9250602084013567ffffffffffffffff811115615869578182fd5b615875868287016155a2565b9497909650939450505050565b600060208284031215615893578081fd5b5035919050565b6000806000606084860312156158ae578081fd5b505081359360208301359350604090920135919050565b6000602082840312156158d6578081fd5b8135610b5c816161b5565b6000602082840312156158f2578081fd5b8151610b5c816161b5565b6000610100828403121561590f578081fd5b50919050565b600060408284031215615926578081fd5b610b5c83836155fa565b600060808284031215615941578081fd5b6040516080810181811067ffffffffffffffff8211171561595e57fe5b604052825161596c81616192565b8152602083015161597c816161d9565b6020820152604083015161598f816161d9565b604082015260608301516159a2816161d9565b60608201529392505050565b600060a0828403121561590f578081fd5b600061012082840312156159d1578081fd5b604051610100810181811067ffffffffffffffff821117156159ef57fe5b6040526159fb83615597565b8152615a09602084016155e4565b6020820152615a1a604084016155e4565b604082015260608301356060820152615a3560808401615597565b6080820152615a4660a08401615654565b60a0820152615a5760c08401615654565b60c0820152615a698460e085016155fa565b60e08201529392505050565b600060208284031215615a86578081fd5b8135610b5c816161c4565b600060208284031215615aa2578081fd5b8151610b5c816161c4565b600080600080600080600080610100898b031215615ac9578586fd5b8851615ad4816161c4565b80985050602089015180600f0b8114615aeb578687fd5b80975050604089015195506060890151945060808901518060060b8114615b10578485fd5b60a08a0151909450615b2181616192565b60c08a015190935063ffffffff81168114615b3a578283fd5b9150615b4860e08a016155ef565b90509295985092959890939650565b60008060408385031215615b69578182fd5b8251615b74816161c4565b60208401519092506156d5816161c4565b600080600080600080600060e0888a031215615b9f578081fd5b8751615baa81616192565b6020890151909750615bbb816161b5565b9550615bc960408901615642565b9450615bd760608901615642565b9350615be560808901615642565b9250615bf360a0890161565f565b915060c0880151615c03816161a7565b8091505092959891949750929550565b600060208284031215615c24578081fd5b5051919050565b60008060408385031215615c3d578182fd5b505080516020909101519092909150565b60008060008060608587031215615c63578182fd5b8435935060208501359250604085013567ffffffffffffffff80821115615c88578384fd5b818701915087601f830112615c9b578384fd5b813581811115615ca9578485fd5b886020828501011115615cba578485fd5b95989497505060200194505050565b600060208284031215615cda578081fd5b610b5c8261565f565b60020b9052565b6001600160a01b0391909116815260200190565b600060018060a01b038716825260208660020b818401528560020b60408401526001600160801b038516606084015260a0608084015283518060a0850152825b81811015615d5a5785810183015185820160c001528201615d3e565b81811115615d6b578360c083870101525b50601f01601f19169290920160c001979650505050505050565b6001600160a01b03959095168552600293840b60208601529190920b60408401526001600160801b03918216606084015216608082015260a00190565b6020808252825182820181905260009190848201906040850190845b81811015615dfa57835183529284019291840191600101615dde565b50909695505050505050565b901515815260200190565b60019190910b815260200190565b60029190910b815260200190565b600293840b81529190920b60208201526001600160801b03909116604082015260600190565b90815260200190565b60208082526006908201526513d097d3915360d21b604082015260600190565b6020808252600790820152660869088be9e86960cb1b604082015260600190565b60208082526006908201526555425f5a497360d01b604082015260600190565b60208082526006908201526504f425f4348360d41b604082015260600190565b6020808252600690820152654f425f4e454f60d01b604082015260600190565b60208082526006908201526509e84be9e8ab60d31b604082015260600190565b6020808252600890820152674348445f43484e4360c01b604082015260600190565b6020808252600790820152662aa1a12fa321ab60c91b604082015260600190565b6020808252601c908201527f506572704d6174683a20696e76657273696f6e206f766572666c6f7700000000604082015260600190565b6020808252600590820152644f425f494f60d81b604082015260600190565b6020808252600690820152654f425f4f4e4560d01b604082015260600190565b602080825260059082015264155097d69360da1b604082015260600190565b6020808252600890820152675543425f4d524e4360c01b604082015260600190565b600060a0820190508251825260208301516020830152604083015160408301526001600160801b0360608401511660608301526080830151608083015292915050565b6000610120820190506001600160801b038351168252602083015160020b6020830152604083015161608f6040840182615ce3565b50606083015160608301526080830151608083015260a083015160a083015260c083015160c083015260e083015160e083015261010080840151818401525092915050565b81516001600160a01b039081168252602092830151169181019190915260400190565b600060a082019050825182526020830151602083015260408301516040830152606083015160608301526080830151608083015292915050565b815160020b8152602080830151908201526040918201519181019190915260600190565b60008582528460208301526060604083015282606083015282846080840137818301608090810191909152601f909201601f191601019392505050565b6001600160a01b0381168114613a7657600080fd5b8015158114613a7657600080fd5b8060020b8114613a7657600080fd5b6001600160801b0381168114613a7657600080fd5b62ffffff81168114613a7657600080fdfe53616665436173743a2076616c756520646f65736e27742066697420696e2031323820626974735369676e6564536166654d6174683a206164646974696f6e206f766572666c6f77496e697469616c697a61626c653a20636f6e747261637420697320616c726561647920696e697469616c697a65645369676e6564536166654d6174683a206469766973696f6e206f766572666c6f775369676e6564536166654d6174683a206d756c7469706c69636174696f6e206f766572666c6f7753616665436173743a2076616c756520646f65736e27742066697420696e20616e20696e743235365369676e6564536166654d6174683a207375627472616374696f6e206f766572666c6f77a264697066735822122015338643f4f6ac22330b8b98e13457c40ef09024d037112c871a614c85e388ed64736f6c63430007060033",
  "linkReferences": {},
  "deployedLinkReferences": {}
}