{
  "_format": "hh-sol-artifact-1",
  "contractName": "PerpV2ClearingHouse",
  "sourceName": "contracts/ClearingHouse.sol",
  "abi": [
    {
      "anonymous": false,
      "inputs": [
        {
          "indexed": true,
          "internalType": "address",
          "name": "previousOwner",
          "type": "address"
        },
        {
          "indexed": true,
          "internalType": "address",
          "name": "newOwner",
          "type": "address"
        }
      ],
      "name": "OwnershipTransferred",
      "type": "event"
    },
    {
      "anonymous": false,
      "inputs": [
        {
          "indexed": false,
          "internalType": "address",
          "name": "account",
          "type": "address"
        }
      ],
      "name": "Paused",
      "type": "event"
    },
    {
      "anonymous": false,
      "inputs": [
        {
          "indexed": true,
          "internalType": "address",
          "name": "trader",
          "type": "address"
        },
        {
          "indexed": true,
          "internalType": "address",
          "name": "baseToken",
          "type": "address"
        },
        {
          "indexed": false,
          "internalType": "uint256",
          "name": "positionNotional",
          "type": "uint256"
        },
        {
          "indexed": false,
          "internalType": "uint256",
          "name": "positionSize",
          "type": "uint256"
        },
        {
          "indexed": false,
          "internalType": "uint256",
          "name": "liquidationFee",
          "type": "uint256"
        },
        {
          "indexed": false,
          "internalType": "address",
          "name": "liquidator",
          "type": "address"
        }
      ],
      "name": "PositionLiquidated",
      "type": "event"
    },
    {
      "anonymous": false,
      "inputs": [
        {
          "indexed": true,
          "internalType": "bytes32",
          "name": "referralCode",
          "type": "bytes32"
        }
      ],
      "name": "ReferredPositionChanged",
      "type": "event"
    },
    {
      "anonymous": false,
      "inputs": [
        {
          "indexed": false,
          "internalType": "address",
          "name": "trustedForwarder",
          "type": "address"
        }
      ],
      "name": "TrustedForwarderUpdated",
      "type": "event"
    },
    {
      "anonymous": false,
      "inputs": [
        {
          "indexed": false,
          "internalType": "address",
          "name": "account",
          "type": "address"
        }
      ],
      "name": "Unpaused",
      "type": "event"
    },
    {
      "inputs": [],
      "name": "accountBalance",
      "outputs": [
        {
          "internalType": "address",
          "name": "",
          "type": "address"
        }
      ],
      "stateMutability": "view",
      "type": "function"
    },
    {
      "inputs": [
        {
          "components": [
            {
              "internalType": "address",
              "name": "baseToken",
              "type": "address"
            },
            {
              "internalType": "uint256",
              "name": "base",
              "type": "uint256"
            },
            {
              "internalType": "uint256",
              "name": "quote",
              "type": "uint256"
            },
            {
              "internalType": "int24",
              "name": "lowerTick",
              "type": "int24"
            },
            {
              "internalType": "int24",
              "name": "upperTick",
              "type": "int24"
            },
            {
              "internalType": "uint256",
              "name": "minBase",
              "type": "uint256"
            },
            {
              "internalType": "uint256",
              "name": "minQuote",
              "type": "uint256"
            },
            {
              "internalType": "uint256",
              "name": "deadline",
              "type": "uint256"
            }
          ],
          "internalType": "struct ClearingHouse.AddLiquidityParams",
          "name": "params",
          "type": "tuple"
        }
      ],
      "name": "addLiquidity",
      "outputs": [
        {
          "components": [
            {
              "internalType": "uint256",
              "name": "base",
              "type": "uint256"
            },
            {
              "internalType": "uint256",
              "name": "quote",
              "type": "uint256"
            },
            {
              "internalType": "uint256",
              "name": "fee",
              "type": "uint256"
            },
            {
              "internalType": "uint256",
              "name": "liquidity",
              "type": "uint256"
            }
          ],
          "internalType": "struct ClearingHouse.AddLiquidityResponse",
          "name": "",
          "type": "tuple"
        }
      ],
      "stateMutability": "nonpayable",
      "type": "function"
    },
    {
      "inputs": [
        {
          "internalType": "address",
          "name": "maker",
          "type": "address"
        },
        {
          "internalType": "address",
          "name": "baseToken",
          "type": "address"
        }
      ],
      "name": "cancelAllExcessOrders",
      "outputs": [],
      "stateMutability": "nonpayable",
      "type": "function"
    },
    {
      "inputs": [
        {
          "internalType": "address",
          "name": "maker",
          "type": "address"
        },
        {
          "internalType": "address",
          "name": "baseToken",
          "type": "address"
        },
        {
          "internalType": "bytes32[]",
          "name": "orderIds",
          "type": "bytes32[]"
        }
      ],
      "name": "cancelExcessOrders",
      "outputs": [],
      "stateMutability": "nonpayable",
      "type": "function"
    },
    {
      "inputs": [],
      "name": "candidate",
      "outputs": [
        {
          "internalType": "address",
          "name": "",
          "type": "address"
        }
      ],
      "stateMutability": "view",
      "type": "function"
    },
    {
      "inputs": [],
      "name": "clearingHouseConfig",
      "outputs": [
        {
          "internalType": "address",
          "name": "",
          "type": "address"
        }
      ],
      "stateMutability": "view",
      "type": "function"
    },
    {
      "inputs": [
        {
          "components": [
            {
              "internalType": "address",
              "name": "baseToken",
              "type": "address"
            },
            {
              "internalType": "uint160",
              "name": "sqrtPriceLimitX96",
              "type": "uint160"
            },
            {
              "internalType": "uint256",
              "name": "oppositeAmountBound",
              "type": "uint256"
            },
            {
              "internalType": "uint256",
              "name": "deadline",
              "type": "uint256"
            },
            {
              "internalType": "bytes32",
              "name": "referralCode",
              "type": "bytes32"
            }
          ],
          "internalType": "struct ClearingHouse.ClosePositionParams",
          "name": "params",
          "type": "tuple"
        }
      ],
      "name": "closePosition",
      "outputs": [
        {
          "internalType": "uint256",
          "name": "deltaBase",
          "type": "uint256"
        },
        {
          "internalType": "uint256",
          "name": "deltaQuote",
          "type": "uint256"
        }
      ],
      "stateMutability": "nonpayable",
      "type": "function"
    },
    {
      "inputs": [],
      "name": "exchange",
      "outputs": [
        {
          "internalType": "address",
          "name": "",
          "type": "address"
        }
      ],
      "stateMutability": "view",
      "type": "function"
    },
    {
      "inputs": [
        {
          "internalType": "address",
          "name": "trader",
          "type": "address"
        }
      ],
      "name": "getAccountValue",
      "outputs": [
        {
          "internalType": "int256",
          "name": "",
          "type": "int256"
        }
      ],
      "stateMutability": "view",
      "type": "function"
    },
    {
      "inputs": [
        {
          "internalType": "address",
          "name": "clearingHouseConfigArg",
          "type": "address"
        },
        {
          "internalType": "address",
          "name": "vaultArg",
          "type": "address"
        },
        {
          "internalType": "address",
          "name": "quoteTokenArg",
          "type": "address"
        },
        {
          "internalType": "address",
          "name": "uniV3FactoryArg",
          "type": "address"
        },
        {
          "internalType": "address",
          "name": "exchangeArg",
          "type": "address"
        },
        {
          "internalType": "address",
          "name": "accountBalanceArg",
          "type": "address"
        }
      ],
      "name": "initialize",
      "outputs": [],
      "stateMutability": "nonpayable",
      "type": "function"
    },
    {
      "inputs": [
        {
          "internalType": "address",
          "name": "forwarder",
          "type": "address"
        }
      ],
      "name": "isTrustedForwarder",
      "outputs": [
        {
          "internalType": "bool",
          "name": "",
          "type": "bool"
        }
      ],
      "stateMutability": "view",
      "type": "function"
    },
    {
      "inputs": [
        {
          "internalType": "address",
          "name": "trader",
          "type": "address"
        },
        {
          "internalType": "address",
          "name": "baseToken",
          "type": "address"
        }
      ],
      "name": "liquidate",
      "outputs": [],
      "stateMutability": "nonpayable",
      "type": "function"
    },
    {
      "inputs": [
        {
          "components": [
            {
              "internalType": "address",
              "name": "baseToken",
              "type": "address"
            },
            {
              "internalType": "bool",
              "name": "isBaseToQuote",
              "type": "bool"
            },
            {
              "internalType": "bool",
              "name": "isExactInput",
              "type": "bool"
            },
            {
              "internalType": "uint256",
              "name": "amount",
              "type": "uint256"
            },
            {
              "internalType": "uint256",
              "name": "oppositeAmountBound",
              "type": "uint256"
            },
            {
              "internalType": "uint256",
              "name": "deadline",
              "type": "uint256"
            },
            {
              "internalType": "uint160",
              "name": "sqrtPriceLimitX96",
              "type": "uint160"
            },
            {
              "internalType": "bytes32",
              "name": "referralCode",
              "type": "bytes32"
            }
          ],
          "internalType": "struct ClearingHouse.OpenPositionParams",
          "name": "params",
          "type": "tuple"
        }
      ],
      "name": "openPosition",
      "outputs": [
        {
          "internalType": "uint256",
          "name": "deltaBase",
          "type": "uint256"
        },
        {
          "internalType": "uint256",
          "name": "deltaQuote",
          "type": "uint256"
        }
      ],
      "stateMutability": "nonpayable",
      "type": "function"
    },
    {
      "inputs": [],
      "name": "orderBook",
      "outputs": [
        {
          "internalType": "address",
          "name": "",
          "type": "address"
        }
      ],
      "stateMutability": "view",
      "type": "function"
    },
    {
      "inputs": [],
      "name": "owner",
      "outputs": [
        {
          "internalType": "address",
          "name": "",
          "type": "address"
        }
      ],
      "stateMutability": "view",
      "type": "function"
    },
    {
      "inputs": [],
      "name": "pause",
      "outputs": [],
      "stateMutability": "nonpayable",
      "type": "function"
    },
    {
      "inputs": [],
      "name": "paused",
      "outputs": [
        {
          "internalType": "bool",
          "name": "",
          "type": "bool"
        }
      ],
      "stateMutability": "view",
      "type": "function"
    },
    {
      "inputs": [],
      "name": "quoteToken",
      "outputs": [
        {
          "internalType": "address",
          "name": "",
          "type": "address"
        }
      ],
      "stateMutability": "view",
      "type": "function"
    },
    {
      "inputs": [
        {
          "components": [
            {
              "internalType": "address",
              "name": "baseToken",
              "type": "address"
            },
            {
              "internalType": "int24",
              "name": "lowerTick",
              "type": "int24"
            },
            {
              "internalType": "int24",
              "name": "upperTick",
              "type": "int24"
            },
            {
              "internalType": "uint128",
              "name": "liquidity",
              "type": "uint128"
            },
            {
              "internalType": "uint256",
              "name": "minBase",
              "type": "uint256"
            },
            {
              "internalType": "uint256",
              "name": "minQuote",
              "type": "uint256"
            },
            {
              "internalType": "uint256",
              "name": "deadline",
              "type": "uint256"
            }
          ],
          "internalType": "struct ClearingHouse.RemoveLiquidityParams",
          "name": "params",
          "type": "tuple"
        }
      ],
      "name": "removeLiquidity",
      "outputs": [
        {
          "components": [
            {
              "internalType": "uint256",
              "name": "base",
              "type": "uint256"
            },
            {
              "internalType": "uint256",
              "name": "quote",
              "type": "uint256"
            },
            {
              "internalType": "uint256",
              "name": "fee",
              "type": "uint256"
            }
          ],
          "internalType": "struct ClearingHouse.RemoveLiquidityResponse",
          "name": "response",
          "type": "tuple"
        }
      ],
      "stateMutability": "nonpayable",
      "type": "function"
    },
    {
      "inputs": [],
      "name": "renounceOwnership",
      "outputs": [],
      "stateMutability": "nonpayable",
      "type": "function"
    },
    {
      "inputs": [
        {
          "internalType": "address",
          "name": "newOwner",
          "type": "address"
        }
      ],
      "name": "setOwner",
      "outputs": [],
      "stateMutability": "nonpayable",
      "type": "function"
    },
    {
      "inputs": [
        {
          "internalType": "address",
          "name": "trustedForwarderArg",
          "type": "address"
        }
      ],
      "name": "setTrustedForwarder",
      "outputs": [],
      "stateMutability": "nonpayable",
      "type": "function"
    },
    {
      "inputs": [],
      "name": "trustedForwarder",
      "outputs": [
        {
          "internalType": "address",
          "name": "",
          "type": "address"
        }
      ],
      "stateMutability": "view",
      "type": "function"
    },
    {
      "inputs": [],
      "name": "uniswapV3Factory",
      "outputs": [
        {
          "internalType": "address",
          "name": "",
          "type": "address"
        }
      ],
      "stateMutability": "view",
      "type": "function"
    },
    {
      "inputs": [
        {
          "internalType": "uint256",
          "name": "amount0Owed",
          "type": "uint256"
        },
        {
          "internalType": "uint256",
          "name": "amount1Owed",
          "type": "uint256"
        },
        {
          "internalType": "bytes",
          "name": "data",
          "type": "bytes"
        }
      ],
      "name": "uniswapV3MintCallback",
      "outputs": [],
      "stateMutability": "nonpayable",
      "type": "function"
    },
    {
      "inputs": [
        {
          "internalType": "int256",
          "name": "amount0Delta",
          "type": "int256"
        },
        {
          "internalType": "int256",
          "name": "amount1Delta",
          "type": "int256"
        },
        {
          "internalType": "bytes",
          "name": "data",
          "type": "bytes"
        }
      ],
      "name": "uniswapV3SwapCallback",
      "outputs": [],
      "stateMutability": "nonpayable",
      "type": "function"
    },
    {
      "inputs": [],
      "name": "unpause",
      "outputs": [],
      "stateMutability": "nonpayable",
      "type": "function"
    },
    {
      "inputs": [],
      "name": "updateOwner",
      "outputs": [],
      "stateMutability": "nonpayable",
      "type": "function"
    },
    {
      "inputs": [],
      "name": "vault",
      "outputs": [
        {
          "internalType": "address",
          "name": "",
          "type": "address"
        }
      ],
      "stateMutability": "view",
      "type": "function"
    },
    {
      "inputs": [],
      "name": "versionRecipient",
      "outputs": [
        {
          "internalType": "string",
          "name": "",
          "type": "string"
        }
      ],
      "stateMutability": "view",
      "type": "function"
    }
  ],
  "bytecode": "0x608060405234801561001057600080fd5b50614c56806100206000396000f3fe608060405234801561001057600080fd5b50600436106101695760003560e01c8062aa9a891461016e57806313af40351461019857806313f3d56e146101ad578063217a4b70146101cd5780633f4ba83a146101e2578063486ff0cd146101ea578063572b6c05146101ff5780635ae809511461021f5780635b5491821461023f5780635c975abb146102475780636c8381f81461024f578063715018a614610257578063776af5ba1461025f5780637da0a8771461026757806380a983321461026f5780638456cb591461028257806386b9d81f1461028a5780638da5cb5b1461029d578063b0a1c1c4146102a5578063b6b1b6c3146102ad578063bc5920ba146102c0578063c2075b21146102c8578063cc2a9a5b146102d0578063cc3606dc146102e3578063cde109b6146102f6578063d2f7265a14610316578063d34879971461031e578063da74222814610331578063fa461e3314610344578063fbfa77cf14610357575b600080fd5b61018161017c36600461414f565b61035f565b60405161018f929190614a30565b60405180910390f35b6101ab6101a6366004613e14565b6105f3565b005b6101c06101bb3660046140d3565b61074e565b60405161018f9190614911565b6101d5610b92565b60405161018f9190614479565b6101ab610ba2565b6101f2610c09565b60405161018f9190614585565b61021261020d366004613e14565b610c98565b60405161018f9190614571565b61023261022d366004613e14565b610cb0565b60405161018f919061457c565b6101d5610d5c565b610212610d6c565b6101d5610d76565b6101ab610d85565b6101d5610e26565b6101d5610e36565b6101ab61027d366004613f05565b610e46565b6101ab610f29565b6101ab610298366004613e4c565b610f8e565b6101d561144c565b6101d561145b565b6101816102bb3660046141fe565b61146b565b6101ab611759565b6101d5611845565b6101ab6102de366004613e84565b611855565b6101ab6102f1366004613e4c565b611c8d565b6103096103043660046142a2565b611dc3565b60405161018f9190614993565b6101d5611f8f565b6101ab61032c366004614083565b611f9f565b6101ab61033f366004613e14565b6121fa565b6101ab610352366004614083565b612291565b6101d5612494565b60008061036a610d6c565b156103af576040805162461bcd60e51b815260206004820152601060248201526f14185d5cd8589b194e881c185d5cd95960821b604482015290519081900360640190fd5b600260015414156103f5576040805162461bcd60e51b815260206004820152601f6024820152600080516020614ade833981519152604482015290519081900360640190fd5b60026001556060830135806104086124a4565b1115610444576040805162461bcd60e51b81526020600480830191909152602482015263565f544560e01b604482015290519081900360640190fd5b6104596104546020860186613e14565b6124a8565b6000610463612551565b610167549091506000906001600160a01b0316631e81ac338361048960208a018a613e14565b6040518363ffffffff1660e01b81526004016104a692919061448d565b6040805180830381600087803b1580156104bf57600080fd5b505af11580156104d3573d6000803e3d6000fd5b505050506040513d601f19601f820116820180604052508101906104f79190614160565b905060006105626040518060800160405280856001600160a01b0316815260200189600001602081019061052b9190613e14565b6001600160a01b0316815260200189602001602081019061054c9190613e14565b6001600160a01b03168152602001849052612560565b905060008082604001511261057857600061057b565b60015b90506105bc6040518060a001604052808315158152602001831515815260200184602001518152602001846000015181526020018a604001358152506126ac565b604051608089013590600080516020614b1f83398151915290600090a2508051602090910151600180559097909650945050505050565b6105fb612551565b6001600160a01b031661060c61144c565b6001600160a01b031614610650576040805162461bcd60e51b8152602060048201526006602482015265534f5f434e4f60d01b604482015290519081900360640190fd5b6001600160a01b038116610694576040805162461bcd60e51b81526020600482015260066024820152650534f5f4e57360d41b604482015290519081900360640190fd5b6097546001600160a01b03828116911614156106e0576040805162461bcd60e51b8152602060048201526006602482015265534f5f53414f60d01b604482015290519081900360640190fd5b6098546001600160a01b038281169116141561072c576040805162461bcd60e51b8152602060048201526006602482015265534f5f53414360d01b604482015290519081900360640190fd5b609880546001600160a01b0319166001600160a01b0392909216919091179055565b610756613ca0565b61075e610d6c565b156107a3576040805162461bcd60e51b815260206004820152601060248201526f14185d5cd8589b194e881c185d5cd95960821b604482015290519081900360640190fd5b600260015414156107e9576040805162461bcd60e51b815260206004820152601f6024820152600080516020614ade833981519152604482015290519081900360640190fd5b600260015560e0820135806107fc6124a4565b1115610838576040805162461bcd60e51b81526020600480830191909152602482015263565f544560e01b604482015290519081900360640190fd5b6108486104546020850185613e14565b6000610852612551565b610169549091506001600160a01b031663fc737214826108756020880188613e14565b6040518363ffffffff1660e01b815260040161089292919061448d565b600060405180830381600087803b1580156108ac57600080fd5b505af11580156108c0573d6000803e3d6000fd5b505061016754600092506001600160a01b03169050631e81ac33836108e86020890189613e14565b6040518363ffffffff1660e01b815260040161090592919061448d565b6040805180830381600087803b15801561091e57600080fd5b505af1158015610932573d6000803e3d6000fd5b505050506040513d601f19601f820116820180604052508101906109569190614160565b610168546040805160e081019091526001600160a01b0385811682529293506000929091169063e8ab2fb390602080820190610994908b018b613e14565b6001600160a01b0316815260200189602001358152602001896040013581526020018960600160208101906109c9919061404f565b60020b81526020016109e160a08b0160808c0161404f565b60020b8152602001858152506040518263ffffffff1660e01b8152600401610a0991906148a7565b608060405180830381600087803b158015610a2357600080fd5b505af1158015610a37573d6000803e3d6000fd5b505050506040513d601f19601f82011682018060405250810190610a5b91906140eb565b90508560a00135816000015110158015610a7d57508560c00135816020015110155b610aa25760405162461bcd60e51b8152600401610a9990614847565b60405180910390fd5b610169546001600160a01b031663beb56a7584610ac260208a018a613e14565b8451610acd9061277f565b600003610add866020015161277f565b600003610aed876040015161277f565b6040518663ffffffff1660e01b8152600401610b0d959493929190614509565b600060405180830381600087803b158015610b2757600080fd5b505af1158015610b3b573d6000803e3d6000fd5b50505050610b48836127c7565b604051806080016040528082600001518152602001826020015181526020018260400151815260200182606001516001600160801b031681525094505050505b5060018055919050565b610162546001600160a01b031681565b610baa612551565b6001600160a01b0316610bbb61144c565b6001600160a01b031614610bff576040805162461bcd60e51b8152602060048201526006602482015265534f5f434e4f60d01b604482015290519081900360640190fd5b610c07612877565b565b610164805460408051602060026001851615610100026000190190941693909304601f81018490048402820184019092528181529291830182828015610c905780601f10610c6557610100808354040283529160200191610c90565b820191906000526020600020905b815481529060010190602001808311610c7357829003601f168201915b505050505081565b61012f546001600160a01b038281169116145b919050565b610169546040516315f53c9b60e11b8152600091610d56916001600160a01b0390911690632bea793690610ce8908690600401614479565b60206040518083038186803b158015610d0057600080fd5b505afa158015610d14573d6000803e3d6000fd5b505050506040513d601f19601f82011682018060405250810190610d38919061406b565b61016354600160a01b900460ff16610d4f85612917565b9190612ac4565b92915050565b610163546001600160a01b031681565b60cb5460ff165b90565b6098546001600160a01b031690565b610d8d612551565b6001600160a01b0316610d9e61144c565b6001600160a01b031614610de2576040805162461bcd60e51b8152602060048201526006602482015265534f5f434e4f60d01b604482015290519081900360640190fd5b6097546040516000916001600160a01b031690600080516020614b8e833981519152908390a3609780546001600160a01b0319908116909155609880549091169055565b610168546001600160a01b031681565b61012f546001600160a01b031681565b610e4e610d6c565b15610e93576040805162461bcd60e51b815260206004820152601060248201526f14185d5cd8589b194e881c185d5cd95960821b604482015290519081900360640190fd5b60026001541415610ed9576040805162461bcd60e51b815260206004820152601f6024820152600080516020614ade833981519152604482015290519081900360640190fd5b6002600181905550610f1f8484848480806020026020016040519081016040528093929190818152602001838360200280828437600092019190915250612aed92505050565b5050600180555050565b610f31612551565b6001600160a01b0316610f4261144c565b6001600160a01b031614610f86576040805162461bcd60e51b8152602060048201526006602482015265534f5f434e4f60d01b604482015290519081900360640190fd5b610c07612d6a565b610f96610d6c565b15610fdb576040805162461bcd60e51b815260206004820152601060248201526f14185d5cd8589b194e881c185d5cd95960821b604482015290519081900360640190fd5b60026001541415611021576040805162461bcd60e51b815260206004820152601f6024820152600080516020614ade833981519152604482015290519081900360640190fd5b600260015561102f816124a8565b61016654604051630261422d60e51b81526110d0916001600160a01b031690634c2845a090611062908690600401614479565b60206040518083038186803b15801561107a57600080fd5b505afa15801561108e573d6000803e3d6000fd5b505050506040513d601f19601f820116820180604052508101906110b2919061406b565b61016354600160a01b900460ff166110c985610cb0565b9190612ded565b6110ec5760405162461bcd60e51b8152600401610a99906145fa565b6101695460405163659e3dc760e11b81526001600160a01b039091169063cb3c7b8e9061111d908590600401614479565b60206040518083038186803b15801561113557600080fd5b505afa158015611149573d6000803e3d6000fd5b505050506040513d601f19601f8201168201806040525081019061116d9190614033565b1561118a5760405162461bcd60e51b8152600401610a9990614887565b61016754604051631e81ac3360e01b81526000916001600160a01b031690631e81ac33906111be908690869060040161448d565b6040805180830381600087803b1580156111d757600080fd5b505af11580156111eb573d6000803e3d6000fd5b505050506040513d601f19601f8201168201806040525081019061120f9190614160565b905060006112586040518060800160405280866001600160a01b03168152602001856001600160a01b0316815260200160006001600160a01b0316815260200184815250612560565b905060006112f961016560009054906101000a90046001600160a01b03166001600160a01b031663d0144c6c6040518163ffffffff1660e01b815260040160206040518083038186803b1580156112ae57600080fd5b505afa1580156112c2573d6000803e3d6000fd5b505050506040513d601f19601f820116820180604052508101906112e6919061441a565b6112f38460600151612e03565b90612e26565b610169549091506001600160a01b03166337724702866113188461277f565b6000036040518363ffffffff1660e01b815260040161133892919061453a565b600060405180830381600087803b15801561135257600080fd5b505af1158015611366573d6000803e3d6000fd5b505050506000611374612551565b610169549091506001600160a01b03166337724702826113938561277f565b6040518363ffffffff1660e01b81526004016113b092919061453a565b600060405180830381600087803b1580156113ca57600080fd5b505af11580156113de573d6000803e3d6000fd5b50505050846001600160a01b0316866001600160a01b03167fd9aced30440caca81570436bc942f816cfd95a3f08f700a2aeb6334c7cb5b4976114248660600151612e03565b865160405161143892919088908890614a3e565b60405180910390a350506001805550505050565b6097546001600160a01b031690565b610169546001600160a01b031681565b600080611476610d6c565b156114bb576040805162461bcd60e51b815260206004820152601060248201526f14185d5cd8589b194e881c185d5cd95960821b604482015290519081900360640190fd5b60026001541415611501576040805162461bcd60e51b815260206004820152601f6024820152600080516020614ade833981519152604482015290519081900360640190fd5b600260015560a0830151806115146124a4565b1115611550576040805162461bcd60e51b81526020600480830191909152602482015263565f544560e01b604482015290519081900360640190fd5b600061155a612551565b905061156985600001516124a8565b610169548551604051633f1cdc8560e21b81526001600160a01b039092169163fc7372149161159d9185919060040161448d565b600060405180830381600087803b1580156115b757600080fd5b505af11580156115cb573d6000803e3d6000fd5b5050610167548751604051631e81ac3360e01b8152600094506001600160a01b039092169250631e81ac339161160591869160040161448d565b6040805180830381600087803b15801561161e57600080fd5b505af1158015611632573d6000803e3d6000fd5b505050506040513d601f19601f820116820180604052508101906116569190614160565b905060006116db604051806101200160405280856001600160a01b0316815260200189600001516001600160a01b03168152602001896020015115158152602001896040015115158152602001600015158152602001896060015181526020018960c001516001600160a01b0316815260200160001515815260200184815250612e3b565b90506117246040518060a00160405280896020015115158152602001896040015115158152602001836020015181526020018360000151815260200189608001518152506126ac565b60e0870151604051600080516020614b1f83398151915290600090a28051602090910151600180559097909650945050505050565b6098546001600160a01b031661179e576040805162461bcd60e51b81526020600482015260056024820152640534f5f43360dc1b604482015290519081900360640190fd5b6117a6612551565b6098546001600160a01b039081169116146117f1576040805162461bcd60e51b8152602060048201526006602482015265534f5f434e4360d01b604482015290519081900360640190fd5b6098546097546040516001600160a01b039283169290911690600080516020614b8e83398151915290600090a360988054609780546001600160a01b03199081166001600160a01b03841617909155169055565b610165546001600160a01b031681565b600054610100900460ff168061186e575061186e612fae565b8061187c575060005460ff16155b6118b75760405162461bcd60e51b815260040180806020018281038252602e815260200180614b3f602e913960400191505060405180910390fd5b600054610100900460ff161580156118e2576000805460ff1961ff0019909116610100171660011790555b6118f4866001600160a01b0316612fbf565b6119105760405162461bcd60e51b8152600401610a99906147c3565b611922856001600160a01b0316612fbf565b61193e5760405162461bcd60e51b8152600401610a99906146df565b846001600160a01b031663313ce5676040518163ffffffff1660e01b815260040160206040518083038186803b15801561197757600080fd5b505afa15801561198b573d6000803e3d6000fd5b505050506040513d601f19601f820116820180604052508101906119af9190614436565b60ff166012146119d15760405162461bcd60e51b8152600401610a99906145d8565b6119e3846001600160a01b0316612fbf565b6119ff5760405162461bcd60e51b8152600401610a999061467b565b611a11876001600160a01b0316612fbf565b611a2d5760405162461bcd60e51b8152600401610a9990614720565b611a3f826001600160a01b0316612fbf565b611a5b5760405162461bcd60e51b8152600401610a999061465a565b611a6d836001600160a01b0316612fbf565b611a895760405162461bcd60e51b8152600401610a9990614741565b6000836001600160a01b031663776af5ba6040518163ffffffff1660e01b815260040160206040518083038186803b158015611ac457600080fd5b505afa158015611ad8573d6000803e3d6000fd5b505050506040513d601f19601f82011682018060405250810190611afc9190613e30565b9050611b10816001600160a01b0316612fbf565b611b2c5760405162461bcd60e51b8152600401610a9990614761565b611b34612fc5565b611b3c61306e565b61016580546001600160a01b03199081166001600160a01b038b811691909117909255610166805482168a84161790819055610162805483168a85161790556101638054831689851617905561016780548316888516179055610168805483168585161790556101698054909216868416179091556040805163313ce56760e01b81529051919092169163313ce567916004828101926020929190829003018186803b158015611beb57600080fd5b505afa158015611bff573d6000803e3d6000fd5b505050506040513d601f19601f82011682018060405250810190611c239190614436565b610163805460ff92909216600160a01b0260ff60a01b19909216919091179055604080518082019091526005808252640322e302e360dc1b6020909201918252611c709161016491613cc8565b50508015611c84576000805461ff00191690555b50505050505050565b611c95610d6c565b15611cda576040805162461bcd60e51b815260206004820152601060248201526f14185d5cd8589b194e881c185d5cd95960821b604482015290519081900360640190fd5b60026001541415611d20576040805162461bcd60e51b815260206004820152601f6024820152600080516020614ade833981519152604482015290519081900360640190fd5b6002600155610168546040516321b499f560e11b81526000916001600160a01b03169063436933ea90611d59908690869060040161448d565b60006040518083038186803b158015611d7157600080fd5b505afa158015611d85573d6000803e3d6000fd5b505050506040513d6000823e601f3d908101601f19168201604052611dad9190810190613f93565b9050611dba838383612aed565b50506001805550565b611dcb613d50565b611dd3610d6c565b15611e18576040805162461bcd60e51b815260206004820152601060248201526f14185d5cd8589b194e881c185d5cd95960821b604482015290519081900360640190fd5b60026001541415611e5e576040805162461bcd60e51b815260206004820152601f6024820152600080516020614ade833981519152604482015290519081900360640190fd5b600260015560c082013580611e716124a4565b1115611ead576040805162461bcd60e51b81526020600480830191909152602482015263565f544560e01b604482015290519081900360640190fd5b611ebd6104546020850185613e14565b611f516040518060a00160405280611ed3612551565b6001600160a01b03168152602090810190611ef090870187613e14565b6001600160a01b03168152602001856020016020810190611f11919061404f565b60020b8152602001611f29606087016040880161404f565b60020b8152602001611f4160808701606088016143fe565b6001600160801b0316905261310b565b91508260800135826000015110158015611f7357508260a00135826020015110155b610b885760405162461bcd60e51b8152600401610a9990614847565b610167546001600160a01b031681565b610168546001600160a01b0316611fb4612551565b6001600160a01b031614611fda5760405162461bcd60e51b8152600401610a9990614782565b6000611fe8828401846141a7565b905084156120f057600081602001516001600160a01b0316630dfe16816040518163ffffffff1660e01b815260040160206040518083038186803b15801561202f57600080fd5b505afa158015612043573d6000803e3d6000fd5b505050506040513d601f19601f820116820180604052508101906120679190613e30565b602083015160405163a9059cbb60e01b81529192506001600160a01b0383169163a9059cbb9161209b918a9060040161453a565b602060405180830381600087803b1580156120b557600080fd5b505af11580156120c9573d6000803e3d6000fd5b505050506040513d601f19601f820116820180604052508101906120ed9190614033565b50505b83156121f357600081602001516001600160a01b031663d21220a76040518163ffffffff1660e01b815260040160206040518083038186803b15801561213557600080fd5b505afa158015612149573d6000803e3d6000fd5b505050506040513d601f19601f8201168201806040525081019061216d9190613e30565b602083015160405163a9059cbb60e01b81529192506001600160a01b0383169163a9059cbb916121a191899060040161453a565b602060405180830381600087803b1580156121bb57600080fd5b505af11580156121cf573d6000803e3d6000fd5b505050506040513d601f19601f82011682018060405250810190611c849190614033565b5050505050565b612202612551565b6001600160a01b031661221361144c565b6001600160a01b031614612257576040805162461bcd60e51b8152602060048201526006602482015265534f5f434e4f60d01b604482015290519081900360640190fd5b612269816001600160a01b0316612fbf565b6122855760405162461bcd60e51b8152600401610a9990614741565b61228e816132e8565b50565b610167546001600160a01b03166122a6612551565b6001600160a01b0316146122cc5760405162461bcd60e51b8152600401610a999061461a565b60008413806122db5750600083135b6122f75760405162461bcd60e51b8152600401610a9990614700565b600061230582840184614307565b604081015190915060008080881361238e57826001600160a01b031663d21220a76040518163ffffffff1660e01b815260040160206040518083038186803b15801561235057600080fd5b505afa158015612364573d6000803e3d6000fd5b505050506040513d601f19601f820116820180604052508101906123889190613e30565b87612401565b826001600160a01b0316630dfe16816040518163ffffffff1660e01b815260040160206040518083038186803b1580156123c757600080fd5b505afa1580156123db573d6000803e3d6000fd5b505050506040513d601f19601f820116820180604052508101906123ff9190613e30565b885b91509150816001600160a01b031663a9059cbb8560400151836040518363ffffffff1660e01b815260040161243792919061453a565b602060405180830381600087803b15801561245157600080fd5b505af1158015612465573d6000803e3d6000fd5b505050506040513d601f19601f820116820180604052508101906124899190614033565b505050505050505050565b610166546001600160a01b031681565b4290565b6101675460405163bbe4f6db60e01b81526000916001600160a01b03169063bbe4f6db906124da908590600401614479565b60206040518083038186803b1580156124f257600080fd5b505afa158015612506573d6000803e3d6000fd5b505050506040513d601f19601f8201168201806040525081019061252a9190613e30565b6001600160a01b0316141561228e5760405162461bcd60e51b8152600401610a99906147a2565b600061255b613383565b905090565b612568613d71565b61016954825160208401516040516346d12ddf60e11b81526000936001600160a01b031692638da25bbe9261259f9260040161448d565b60206040518083038186803b1580156125b757600080fd5b505afa1580156125cb573d6000803e3d6000fd5b505050506040513d601f19601f820116820180604052508101906125ef919061406b565b90508061260e5760405162461bcd60e51b8152600401610a9990614867565b600080821361261e576000612621565b60015b90506126a460405180610120016040528086600001516001600160a01b0316815260200186602001516001600160a01b031681526020018315158152602001831515815260200160011515815260200161267a85612e03565b81526040808801516001600160a01b03166020830152600190820152606080880151910152612e3b565b949350505050565b60808101516126ba5761228e565b805115612725578060200151156126f8578060800151816040015110156126f35760405162461bcd60e51b8152600401610a9990614805565b612720565b8060800151816060015111156127205760405162461bcd60e51b8152600401610a9990614639565b61228e565b806020015115612757578060800151816060015110156127205760405162461bcd60e51b8152600401610a99906147e4565b80608001518160400151111561228e5760405162461bcd60e51b8152600401610a999061469c565b6000600160ff1b82106127c35760405162461bcd60e51b8152600401808060200182810382526028815260200180614bd56028913960400191505060405180910390fd5b5090565b60006128598261016560009054906101000a90046001600160a01b03166001600160a01b0316632f60a1516040518163ffffffff1660e01b815260040160206040518083038186803b15801561281c57600080fd5b505afa158015612830573d6000803e3d6000fd5b505050506040513d601f19601f82011682018060405250810190612854919061441a565b6133b5565b121561228e5760405162461bcd60e51b8152600401610a99906146bd565b61287f610d6c565b6128c7576040805162461bcd60e51b815260206004820152601460248201527314185d5cd8589b194e881b9bdd081c185d5cd95960621b604482015290519081900360640190fd5b60cb805460ff191690557f5db9ee0a495bf2e6ff9c91a7834c1ba4fdd244a5e8aa4e537bd38aeae4b073aa6128fa612551565b604080516001600160a01b039092168252519081900360200190a1565b610167546040516380f57f1160e01b815260009182916001600160a01b03909116906380f57f119061294d908690600401614479565b60206040518083038186803b15801561296557600080fd5b505afa158015612979573d6000803e3d6000fd5b505050506040513d601f19601f8201168201806040525081019061299d919061406b565b6101695460405163ee817e8b60e01b81529192506000916001600160a01b039091169063ee817e8b906129d4908790600401614479565b60206040518083038186803b1580156129ec57600080fd5b505afa158015612a00573d6000803e3d6000fd5b505050506040513d601f19601f82011682018060405250810190612a24919061406b565b90506126a4612a338284613439565b61016354610166546040516370a0823160e01b8152600160a01b90920460ff16916001600160a01b03909116906370a0823190612a74908a90600401614479565b60206040518083038186803b158015612a8c57600080fd5b505afa158015612aa0573d6000803e3d6000fd5b505050506040513d601f19601f82011682018060405250810190610d4f919061406b565b6000612ae3612add84612ad7878661349e565b906134b4565b83613519565b90505b9392505050565b612af6826124a8565b6000612b4b8461016560009054906101000a90046001600160a01b03166001600160a01b0316639f044f316040518163ffffffff1660e01b815260040160206040518083038186803b15801561281c57600080fd5b1280612bec575061016654604051630261422d60e51b8152612bec916001600160a01b031690634c2845a090612b85908790600401614479565b60206040518083038186803b158015612b9d57600080fd5b505afa158015612bb1573d6000803e3d6000fd5b505050506040513d601f19601f82011682018060405250810190612bd5919061406b565b61016354600160a01b900460ff166110c986610cb0565b612c085760405162461bcd60e51b8152600401610a9990614826565b61016754604051631e81ac3360e01b81526001600160a01b0390911690631e81ac3390612c3b908690869060040161448d565b6040805180830381600087803b158015612c5457600080fd5b505af1158015612c68573d6000803e3d6000fd5b505050506040513d601f19601f82011682018060405250810190612c8c9190614160565b506101685460405163398dbcfd60e01b81526000916001600160a01b03169063398dbcfd90612cc3908790879087906004016144a7565b606060405180830381600087803b158015612cdd57600080fd5b505af1158015612cf1573d6000803e3d6000fd5b505050506040513d601f19601f82011682018060405250810190612d1591906142b3565b9050612d646040518060a00160405280866001600160a01b03168152602001856001600160a01b031681526020018360000151815260200183602001518152602001836040015181525061352f565b50505050565b612d72610d6c565b15612db7576040805162461bcd60e51b815260206004820152601060248201526f14185d5cd8589b194e881c185d5cd95960821b604482015290519081900360640190fd5b60cb805460ff191660011790557f62e78cea01bee320cd4e420270b5ea74000d11b0c9f74754ebdbfc544b05a2586128fa612551565b600082612dfa858461349e565b12949350505050565b6000808213612e1d57612e188260000361362c565b610d56565b610d568261362c565b6000612ae6838362ffffff16620f4240613683565b612e43613d71565b6101675460408051610100818101835285516001600160a01b0390811683526020808801518216908401528684015115158385015260608088015115159084015260808088015115159084015260a0808801519084015260c0808801518216908401529086015160e083015291516348fa72d560e01b815260009392909216916348fa72d591612ed5916004016149b4565b60a060405180830381600087803b158015612eef57600080fd5b505af1158015612f03573d6000803e3d6000fd5b505050506040513d601f19601f82011682018060405250810190612f279190614390565b90508260e00151612f3d578251612f3d906127c7565b610169548351602085015160405163fa8e30af60e01b81526001600160a01b039093169263fa8e30af92612f7592909160040161448d565b600060405180830381600087803b158015612f8f57600080fd5b505af1158015612fa3573d6000803e3d6000fd5b509295945050505050565b6000612fb930612fbf565b15905090565b3b151590565b600054610100900460ff1680612fde5750612fde612fae565b80612fec575060005460ff16155b6130275760405162461bcd60e51b815260040180806020018281038252602e815260200180614b3f602e913960400191505060405180910390fd5b600054610100900460ff16158015613052576000805460ff1961ff0019909116610100171660011790555b61305a613732565b801561228e576000805461ff001916905550565b600054610100900460ff16806130875750613087612fae565b80613095575060005460ff16155b6130d05760405162461bcd60e51b815260040180806020018281038252602e815260200180614b3f602e913960400191505060405180910390fd5b600054610100900460ff161580156130fb576000805460ff1961ff0019909116610100171660011790555b6131036137d7565b61305a6138c6565b613113613d50565b6101675482516020840151604051631e81ac3360e01b81526001600160a01b0390931692631e81ac339261314b92909160040161448d565b6040805180830381600087803b15801561316457600080fd5b505af1158015613178573d6000803e3d6000fd5b505050506040513d601f19601f8201168201806040525081019061319c9190614160565b50610168546040805160a08101825284516001600160a01b03908116825260208087015182169083015285830151600290810b8385015260608088015190910b908301526080808701516001600160801b0316908301529151635b778b9d60e01b81526000939290921691635b778b9d916132199160040161493c565b606060405180830381600087803b15801561323357600080fd5b505af1158015613247573d6000803e3d6000fd5b505050506040513d601f19601f8201168201806040525081019061326b91906142b3565b90506132c26040518060a0016040528085600001516001600160a01b0316815260200185602001516001600160a01b031681526020018360000151815260200183602001518152602001836040015181525061352f565b604080516060810182528251815260208084015190820152918101519082015292915050565b6001600160a01b03811661332e576040805162461bcd60e51b81526020600482015260086024820152674252435f4954464160c01b604482015290519081900360640190fd5b61012f80546001600160a01b0383166001600160a01b0319909116811790915560408051918252517fa4388ecc389b1390354ae0c65a856c0d7dd4fb648419f5d3ac0b99e38f46fd119181900360200190a150565b60006018361080159061339a575061339a33610c98565b156133ae575060131936013560601c610d73565b5033610d73565b61016654604051633ffd130360e01b81526000916001600160a01b031690633ffd1303906133e99086908690600401614553565b60206040518083038186803b15801561340157600080fd5b505afa158015613415573d6000803e3d6000fd5b505050506040513d601f19601f82011682018060405250810190612ae6919061406b565b600081830381831280159061344e5750838113155b80613463575060008312801561346357508381135b612ae65760405162461bcd60e51b8152600401808060200182810382526024815260200180614bfd6024913960400191505060405180910390fd5b6000612ae68360ff601285900316600a0a613963565b60008282018183128015906134c95750838112155b806134de57506000831280156134de57508381125b612ae65760405162461bcd60e51b8152600401808060200182810382526021815260200180614afe6021913960400191505060405180910390fd5b6000612ae68360ff601285900316600a0a613a0c565b610169548151602083015160408401516001600160a01b039093169263beb56a7592919061355c9061277f565b613569866060015161277f565b613576876080015161277f565b6040518663ffffffff1660e01b8152600401613596959493929190614509565b600060405180830381600087803b1580156135b057600080fd5b505af11580156135c4573d6000803e3d6000fd5b5050610169548351602085015160405163fa8e30af60e01b81526001600160a01b03909316945063fa8e30af93506135fe9260040161448d565b600060405180830381600087803b15801561361857600080fd5b505af11580156121f3573d6000803e3d6000fd5b6000808212156127c3576040805162461bcd60e51b815260206004820181905260248201527f53616665436173743a2076616c7565206d75737420626520706f736974697665604482015290519081900360640190fd5b60008080600019858709868602925082811090839003039050806136b957600084116136ae57600080fd5b508290049050612ae6565b8084116136c557600080fd5b6000848688096000868103871696879004966002600389028118808a02820302808a02820302808a02820302808a02820302808a02820302808a02909103029181900381900460010186841190950394909402919094039290920491909117919091029150509392505050565b600054610100900460ff168061374b575061374b612fae565b80613759575060005460ff16155b6137945760405162461bcd60e51b815260040180806020018281038252602e815260200180614b3f602e913960400191505060405180910390fd5b600054610100900460ff161580156137bf576000805460ff1961ff0019909116610100171660011790555b60018055801561228e576000805461ff001916905550565b600054610100900460ff16806137f057506137f0612fae565b806137fe575060005460ff16155b6138395760405162461bcd60e51b815260040180806020018281038252602e815260200180614b3f602e913960400191505060405180910390fd5b600054610100900460ff16158015613864576000805460ff1961ff0019909116610100171660011790555b61386c613ac4565b6000613876612551565b609780546001600160a01b0319166001600160a01b03831690811790915560405191925090600090600080516020614b8e833981519152908290a350801561228e576000805461ff001916905550565b600054610100900460ff16806138df57506138df612fae565b806138ed575060005460ff16155b6139285760405162461bcd60e51b815260040180806020018281038252602e815260200180614b3f602e913960400191505060405180910390fd5b600054610100900460ff16158015613953576000805460ff1961ff0019909116610100171660011790555b61395b613b55565b61305a613bf5565b60008261397257506000610d56565b826000191480156139865750600160ff1b82145b156139c25760405162461bcd60e51b8152600401808060200182810382526027815260200180614bae6027913960400191505060405180910390fd5b828202828482816139cf57fe5b0514612ae65760405162461bcd60e51b8152600401808060200182810382526027815260200180614bae6027913960400191505060405180910390fd5b600081613a60576040805162461bcd60e51b815260206004820181905260248201527f5369676e6564536166654d6174683a206469766973696f6e206279207a65726f604482015290519081900360640190fd5b81600019148015613a745750600160ff1b83145b15613ab05760405162461bcd60e51b8152600401808060200182810382526021815260200180614b6d6021913960400191505060405180910390fd5b6000828481613abb57fe5b05949350505050565b600054610100900460ff1680613add5750613add612fae565b80613aeb575060005460ff16155b613b265760405162461bcd60e51b815260040180806020018281038252602e815260200180614b3f602e913960400191505060405180910390fd5b600054610100900460ff16158015613b51576000805460ff1961ff0019909116610100171660011790555b61305a5b600054610100900460ff1680613b6e5750613b6e612fae565b80613b7c575060005460ff16155b613bb75760405162461bcd60e51b815260040180806020018281038252602e815260200180614b3f602e913960400191505060405180910390fd5b600054610100900460ff1615801561305a576000805460ff1961ff001990911661010017166001179055801561228e576000805461ff001916905550565b600054610100900460ff1680613c0e5750613c0e612fae565b80613c1c575060005460ff16155b613c575760405162461bcd60e51b815260040180806020018281038252602e815260200180614b3f602e913960400191505060405180910390fd5b600054610100900460ff16158015613c82576000805460ff1961ff0019909116610100171660011790555b60cb805460ff19169055801561228e576000805461ff001916905550565b6040518060800160405280600081526020016000815260200160008152602001600081525090565b828054600181600116156101000203166002900490600052602060002090601f016020900481019282613cfe5760008555613d44565b82601f10613d1757805160ff1916838001178555613d44565b82800160010185558215613d44579182015b82811115613d44578251825591602001919060010190613d29565b506127c3929150613da3565b60405180606001604052806000815260200160008152602001600081525090565b6040518060a0016040528060008152602001600081526020016000815260200160008152602001600060020b81525090565b5b808211156127c35760008155600101613da4565b8035610cab81614a85565b8035610cab81614a9a565b60008083601f840112613ddf578182fd5b5081356001600160401b03811115613df5578182fd5b602083019150836020828501011115613e0d57600080fd5b9250929050565b600060208284031215613e25578081fd5b8135612ae681614a85565b600060208284031215613e41578081fd5b8151612ae681614a85565b60008060408385031215613e5e578081fd5b8235613e6981614a85565b91506020830135613e7981614a85565b809150509250929050565b60008060008060008060c08789031215613e9c578182fd5b8635613ea781614a85565b95506020870135613eb781614a85565b94506040870135613ec781614a85565b93506060870135613ed781614a85565b92506080870135613ee781614a85565b915060a0870135613ef781614a85565b809150509295509295509295565b60008060008060608587031215613f1a578182fd5b8435613f2581614a85565b93506020850135613f3581614a85565b925060408501356001600160401b0380821115613f50578384fd5b818701915087601f830112613f63578384fd5b813581811115613f71578485fd5b8860208083028501011115613f84578485fd5b95989497505060200194505050565b60006020808385031215613fa5578182fd5b82516001600160401b0380821115613fbb578384fd5b818501915085601f830112613fce578384fd5b815181811115613fda57fe5b8381029150613fea848301614a62565b8181528481019084860184860187018a1015614004578788fd5b8795505b83861015614026578051835260019590950194918601918601614008565b5098975050505050505050565b600060208284031215614044578081fd5b8151612ae681614a9a565b600060208284031215614060578081fd5b8135612ae681614aa8565b60006020828403121561407c578081fd5b5051919050565b60008060008060608587031215614098578182fd5b843593506020850135925060408501356001600160401b038111156140bb578283fd5b6140c787828801613dce565b95989497509550505050565b600061010082840312156140e5578081fd5b50919050565b6000608082840312156140fc578081fd5b604051608081016001600160401b038111828210171561411857fe5b8060405250825181526020830151602082015260408301516040820152606083015161414381614ab7565b60608201529392505050565b600060a082840312156140e5578081fd5b600060408284031215614171578081fd5b604080519081016001600160401b038111828210171561418d57fe5b604052825181526020928301519281019290925250919050565b6000604082840312156141b8578081fd5b604080519081016001600160401b03811182821017156141d457fe5b60405282356141e281614a85565b815260208301356141f281614a85565b60208201529392505050565b6000610100808385031215614211578182fd5b604051908101906001600160401b038211818310171561422d57fe5b8160405261423a84613db8565b815261424860208501613dc3565b602082015261425960408501613dc3565b6040820152606084013560608201526080840135608082015260a084013560a082015261428860c08501613db8565b60c082015260e084013560e0820152809250505092915050565b600060e082840312156140e5578081fd5b6000606082840312156142c4578081fd5b604051606081016001600160401b03811182821017156142e057fe5b80604052508251815260208301516020820152604083015160408201528091505092915050565b600060a08284031215614318578081fd5b60405160a081016001600160401b038111828210171561433457fe5b604052823561434281614a85565b8152602083013561435281614a85565b6020820152604083013561436581614a85565b6040820152606083013561437881614acc565b60608201526080928301359281019290925250919050565b600060a082840312156143a1578081fd5b60405160a081016001600160401b03811182821017156143bd57fe5b80604052508251815260208301516020820152604083015160408201526060830151606082015260808301516143f281614aa8565b60808201529392505050565b60006020828403121561440f578081fd5b8135612ae681614ab7565b60006020828403121561442b578081fd5b8151612ae681614acc565b600060208284031215614447578081fd5b815160ff81168114612ae6578182fd5b15159052565b80518252602090810151910152565b6001600160a01b03169052565b6001600160a01b0391909116815260200190565b6001600160a01b0392831681529116602082015260400190565b6001600160a01b0384811682528316602080830191909152606060408301819052835190830181905260009184810191608085019190845b818110156144fb578451845293820193928201926001016144df565b509198975050505050505050565b6001600160a01b03958616815293909416602084015260408301919091526060820152608081019190915260a00190565b6001600160a01b03929092168252602082015260400190565b6001600160a01b0392909216825262ffffff16602082015260400190565b901515815260200190565b90815260200190565b6000602080835283518082850152825b818110156145b157858101830151858201604001528201614595565b818111156145c25783604083870101525b50601f01601f1916929092016040019392505050565b60208082526008908201526708690bea2889c62760c31b604082015260600190565b60208082526006908201526521a42fa2a0ab60d11b604082015260600190565b60208082526005908201526443485f4f4560d81b604082015260600190565b60208082526007908201526643485f544d525360c81b604082015260600190565b60208082526007908201526643485f41424e4360c81b604082015260600190565b60208082526007908201526643485f55414e4360c81b604082015260600190565b60208082526007908201526610d217d513549360ca1b604082015260600190565b60208082526008908201526743485f4e4546434960c01b604082015260600190565b60208082526007908201526643485f51414e4360c81b604082015260600190565b60208082526006908201526543485f46305360d01b604082015260600190565b60208082526007908201526643485f43434e4360c81b604082015260600190565b60208082526006908201526543485f414e4360d01b604082015260600190565b60208082526007908201526643485f4f424e4360c81b604082015260600190565b60208082526006908201526521a42fa727a160d11b604082015260600190565b60208082526007908201526643485f42544e4560c81b604082015260600190565b60208082526007908201526643485f56414e4360c81b604082015260600190565b60208082526007908201526610d217d513149360ca1b604082015260600190565b60208082526007908201526643485f544c525360c81b604082015260600190565b60208082526007908201526643485f4e45584f60c81b604082015260600190565b60208082526006908201526543485f50534360d01b604082015260600190565b60208082526006908201526521a42fa829ad60d11b604082015260600190565b60208082526006908201526543485f4e454f60d01b604082015260600190565b60006101008201905060018060a01b03808451168352806020850151166020840152506040830151604083015260608301516060830152608083015160020b608083015260a083015160020b60a083015260c083015161490a60c084018261445d565b5092915050565b8151815260208083015190820152604080830151908201526060918201519181019190915260800190565b81516001600160a01b03908116825260208084015190911690820152604080830151600290810b9183019190915260608084015190910b908201526080918201516001600160801b03169181019190915260a00190565b81518152602080830151908201526040918201519181019190915260600190565b81516001600160a01b03908116825260208084015190911690820152604080830151151590820152606080830151151590820152608080830151610120830191614a0090840182614457565b5060a083015160a083015260c0830151614a1d60c084018261446c565b5060e083015161490a60e084018261445d565b918252602082015260400190565b938452602084019290925260408301526001600160a01b0316606082015260800190565b6040518181016001600160401b0381118282101715614a7d57fe5b604052919050565b6001600160a01b038116811461228e57600080fd5b801515811461228e57600080fd5b8060020b811461228e57600080fd5b6001600160801b038116811461228e57600080fd5b62ffffff8116811461228e57600080fdfe5265656e7472616e637947756172643a207265656e7472616e742063616c6c005369676e6564536166654d6174683a206164646974696f6e206f766572666c6f7709a07769667a46c2b89124a4d731c76fb5203061073aec16319ba9c6a79a3248496e697469616c697a61626c653a20636f6e747261637420697320616c726561647920696e697469616c697a65645369676e6564536166654d6174683a206469766973696f6e206f766572666c6f778be0079c531659141344cd1fd0a4f28419497f9722a3daafe3b4186f6b6457e05369676e6564536166654d6174683a206d756c7469706c69636174696f6e206f766572666c6f7753616665436173743a2076616c756520646f65736e27742066697420696e20616e20696e743235365369676e6564536166654d6174683a207375627472616374696f6e206f766572666c6f77a26469706673582212201d3bf1ad0405b59cd96c3a215e22bcda076aa2e7df77b7b8006e303220a7dc0964736f6c63430007060033",
  "linkReferences": {},
  "deployedLinkReferences": {}
}