{
  "_format": "hh-sol-artifact-1",
  "contractName": "PerpV2AccountBalance",
  "sourceName": "contracts/AccountBalance.sol",
  "abi": [
    {
      "anonymous": false,
      "inputs": [
        {
          "indexed": true,
          "internalType": "address",
          "name": "clearingHouse",
          "type": "address"
        }
      ],
      "name": "ClearingHouseChanged",
      "type": "event"
    },
    {
      "anonymous": false,
      "inputs": [
        {
          "indexed": true,
          "internalType": "address",
          "name": "previousOwner",
          "type": "address"
        },
        {
          "indexed": true,
          "internalType": "address",
          "name": "newOwner",
          "type": "address"
        }
      ],
      "name": "OwnershipTransferred",
      "type": "event"
    },
    {
      "inputs": [
        {
          "internalType": "address",
          "name": "trader",
          "type": "address"
        },
        {
          "internalType": "address",
          "name": "baseToken",
          "type": "address"
        },
        {
          "internalType": "int256",
          "name": "base",
          "type": "int256"
        },
        {
          "internalType": "int256",
          "name": "quote",
          "type": "int256"
        },
        {
          "internalType": "int256",
          "name": "owedRealizedPnl",
          "type": "int256"
        }
      ],
      "name": "addBalance",
      "outputs": [],
      "stateMutability": "nonpayable",
      "type": "function"
    },
    {
      "inputs": [
        {
          "internalType": "address",
          "name": "trader",
          "type": "address"
        },
        {
          "internalType": "int256",
          "name": "delta",
          "type": "int256"
        }
      ],
      "name": "addOwedRealizedPnl",
      "outputs": [],
      "stateMutability": "nonpayable",
      "type": "function"
    },
    {
      "inputs": [],
      "name": "candidate",
      "outputs": [
        {
          "internalType": "address",
          "name": "",
          "type": "address"
        }
      ],
      "stateMutability": "view",
      "type": "function"
    },
    {
      "inputs": [],
      "name": "clearingHouse",
      "outputs": [
        {
          "internalType": "address",
          "name": "",
          "type": "address"
        }
      ],
      "stateMutability": "view",
      "type": "function"
    },
    {
      "inputs": [],
      "name": "clearingHouseConfig",
      "outputs": [
        {
          "internalType": "address",
          "name": "",
          "type": "address"
        }
      ],
      "stateMutability": "view",
      "type": "function"
    },
    {
      "inputs": [
        {
          "internalType": "address",
          "name": "trader",
          "type": "address"
        },
        {
          "internalType": "address",
          "name": "baseToken",
          "type": "address"
        }
      ],
      "name": "deregisterBaseToken",
      "outputs": [],
      "stateMutability": "nonpayable",
      "type": "function"
    },
    {
      "inputs": [],
      "name": "exchange",
      "outputs": [
        {
          "internalType": "address",
          "name": "",
          "type": "address"
        }
      ],
      "stateMutability": "view",
      "type": "function"
    },
    {
      "inputs": [
        {
          "internalType": "address",
          "name": "trader",
          "type": "address"
        },
        {
          "internalType": "address",
          "name": "baseToken",
          "type": "address"
        }
      ],
      "name": "getAccountInfo",
      "outputs": [
        {
          "components": [
            {
              "internalType": "int256",
              "name": "baseBalance",
              "type": "int256"
            },
            {
              "internalType": "int256",
              "name": "quoteBalance",
              "type": "int256"
            },
            {
              "internalType": "int256",
              "name": "lastTwPremiumGrowthGlobalX96",
              "type": "int256"
            }
          ],
          "internalType": "struct AccountMarket.Info",
          "name": "",
          "type": "tuple"
        }
      ],
      "stateMutability": "view",
      "type": "function"
    },
    {
      "inputs": [
        {
          "internalType": "address",
          "name": "trader",
          "type": "address"
        },
        {
          "internalType": "address",
          "name": "baseToken",
          "type": "address"
        }
      ],
      "name": "getBase",
      "outputs": [
        {
          "internalType": "int256",
          "name": "",
          "type": "int256"
        }
      ],
      "stateMutability": "view",
      "type": "function"
    },
    {
      "inputs": [
        {
          "internalType": "address",
          "name": "trader",
          "type": "address"
        }
      ],
      "name": "getBaseTokens",
      "outputs": [
        {
          "internalType": "address[]",
          "name": "",
          "type": "address[]"
        }
      ],
      "stateMutability": "view",
      "type": "function"
    },
    {
      "inputs": [
        {
          "internalType": "address",
          "name": "trader",
          "type": "address"
        }
      ],
      "name": "getNetQuoteBalance",
      "outputs": [
        {
          "internalType": "int256",
          "name": "",
          "type": "int256"
        }
      ],
      "stateMutability": "view",
      "type": "function"
    },
    {
      "inputs": [
        {
          "internalType": "address",
          "name": "trader",
          "type": "address"
        }
      ],
      "name": "getOwedRealizedPnl",
      "outputs": [
        {
          "internalType": "int256",
          "name": "",
          "type": "int256"
        }
      ],
      "stateMutability": "view",
      "type": "function"
    },
    {
      "inputs": [
        {
          "internalType": "address",
          "name": "trader",
          "type": "address"
        },
        {
          "internalType": "address",
          "name": "baseToken",
          "type": "address"
        }
      ],
      "name": "getPositionSize",
      "outputs": [
        {
          "internalType": "int256",
          "name": "",
          "type": "int256"
        }
      ],
      "stateMutability": "view",
      "type": "function"
    },
    {
      "inputs": [
        {
          "internalType": "address",
          "name": "trader",
          "type": "address"
        },
        {
          "internalType": "address",
          "name": "baseToken",
          "type": "address"
        }
      ],
      "name": "getPositionValue",
      "outputs": [
        {
          "internalType": "int256",
          "name": "",
          "type": "int256"
        }
      ],
      "stateMutability": "view",
      "type": "function"
    },
    {
      "inputs": [
        {
          "internalType": "address",
          "name": "trader",
          "type": "address"
        },
        {
          "internalType": "address",
          "name": "baseToken",
          "type": "address"
        }
      ],
      "name": "getQuote",
      "outputs": [
        {
          "internalType": "int256",
          "name": "",
          "type": "int256"
        }
      ],
      "stateMutability": "view",
      "type": "function"
    },
    {
      "inputs": [
        {
          "internalType": "address",
          "name": "trader",
          "type": "address"
        }
      ],
      "name": "getTotalAbsPositionValue",
      "outputs": [
        {
          "internalType": "uint256",
          "name": "",
          "type": "uint256"
        }
      ],
      "stateMutability": "view",
      "type": "function"
    },
    {
      "inputs": [
        {
          "internalType": "address",
          "name": "trader",
          "type": "address"
        }
      ],
      "name": "getTotalDebtValue",
      "outputs": [
        {
          "internalType": "uint256",
          "name": "",
          "type": "uint256"
        }
      ],
      "stateMutability": "view",
      "type": "function"
    },
    {
      "inputs": [
        {
          "internalType": "address",
          "name": "trader",
          "type": "address"
        }
      ],
      "name": "getTotalUnrealizedPnl",
      "outputs": [
        {
          "internalType": "int256",
          "name": "",
          "type": "int256"
        }
      ],
      "stateMutability": "view",
      "type": "function"
    },
    {
      "inputs": [
        {
          "internalType": "address",
          "name": "trader",
          "type": "address"
        }
      ],
      "name": "hasOrder",
      "outputs": [
        {
          "internalType": "bool",
          "name": "",
          "type": "bool"
        }
      ],
      "stateMutability": "view",
      "type": "function"
    },
    {
      "inputs": [
        {
          "internalType": "address",
          "name": "clearingHouseConfigArg",
          "type": "address"
        },
        {
          "internalType": "address",
          "name": "marketRegistryArg",
          "type": "address"
        },
        {
          "internalType": "address",
          "name": "exchangeArg",
          "type": "address"
        }
      ],
      "name": "initialize",
      "outputs": [],
      "stateMutability": "nonpayable",
      "type": "function"
    },
    {
      "inputs": [],
      "name": "marketRegistry",
      "outputs": [
        {
          "internalType": "address",
          "name": "",
          "type": "address"
        }
      ],
      "stateMutability": "view",
      "type": "function"
    },
    {
      "inputs": [],
      "name": "orderBook",
      "outputs": [
        {
          "internalType": "address",
          "name": "",
          "type": "address"
        }
      ],
      "stateMutability": "view",
      "type": "function"
    },
    {
      "inputs": [],
      "name": "owner",
      "outputs": [
        {
          "internalType": "address",
          "name": "",
          "type": "address"
        }
      ],
      "stateMutability": "view",
      "type": "function"
    },
    {
      "inputs": [
        {
          "internalType": "address",
          "name": "trader",
          "type": "address"
        },
        {
          "internalType": "address",
          "name": "baseToken",
          "type": "address"
        }
      ],
      "name": "registerBaseToken",
      "outputs": [],
      "stateMutability": "nonpayable",
      "type": "function"
    },
    {
      "inputs": [],
      "name": "renounceOwnership",
      "outputs": [],
      "stateMutability": "nonpayable",
      "type": "function"
    },
    {
      "inputs": [
        {
          "internalType": "address",
          "name": "clearingHouseArg",
          "type": "address"
        }
      ],
      "name": "setClearingHouse",
      "outputs": [],
      "stateMutability": "nonpayable",
      "type": "function"
    },
    {
      "inputs": [
        {
          "internalType": "address",
          "name": "newOwner",
          "type": "address"
        }
      ],
      "name": "setOwner",
      "outputs": [],
      "stateMutability": "nonpayable",
      "type": "function"
    },
    {
      "inputs": [
        {
          "internalType": "address",
          "name": "vaultArg",
          "type": "address"
        }
      ],
      "name": "setVault",
      "outputs": [],
      "stateMutability": "nonpayable",
      "type": "function"
    },
    {
      "inputs": [
        {
          "internalType": "address",
          "name": "trader",
          "type": "address"
        }
      ],
      "name": "settle",
      "outputs": [
        {
          "internalType": "int256",
          "name": "pnl",
          "type": "int256"
        }
      ],
      "stateMutability": "nonpayable",
      "type": "function"
    },
    {
      "inputs": [
        {
          "internalType": "address",
          "name": "trader",
          "type": "address"
        },
        {
          "internalType": "address",
          "name": "baseToken",
          "type": "address"
        },
        {
          "internalType": "int256",
          "name": "amount",
          "type": "int256"
        }
      ],
      "name": "settleQuoteToPnl",
      "outputs": [],
      "stateMutability": "nonpayable",
      "type": "function"
    },
    {
      "inputs": [],
      "name": "updateOwner",
      "outputs": [],
      "stateMutability": "nonpayable",
      "type": "function"
    },
    {
      "inputs": [
        {
          "internalType": "address",
          "name": "trader",
          "type": "address"
        },
        {
          "internalType": "address",
          "name": "baseToken",
          "type": "address"
        },
        {
          "internalType": "int256",
          "name": "lastTwPremiumGrowthGlobalX96",
          "type": "int256"
        }
      ],
      "name": "updateTwPremiumGrowthGlobal",
      "outputs": [],
      "stateMutability": "nonpayable",
      "type": "function"
    },
    {
      "inputs": [],
      "name": "vault",
      "outputs": [
        {
          "internalType": "address",
          "name": "",
          "type": "address"
        }
      ],
      "stateMutability": "view",
      "type": "function"
    }
  ],
  "bytecode": "0x608060405234801561001057600080fd5b50612859806100206000396000f3fe608060405234801561001057600080fd5b506004361061018b5760003560e01c80630af968001461019057806313af4035146101ae578063293a5077146101c35780632bea7936146101e35780632e4586c3146101f65780633772470214610209578063449323d81461021c5780636332fef61461022f5780636817031b1461024f5780636a256b29146102625780636c8381f8146102755780636ccdc82e1461027d578063715018a614610290578063776af5ba1461029857806377b57b07146102a05780637a5b45a0146102b35780638227bc3e146102c65780638da25bbe146102d95780638da5cb5b146102ec578063af74e736146102f4578063b3bd6e1214610314578063bc5920ba14610327578063beb56a751461032f578063c0c53b8b14610342578063c2075b2114610355578063cb3c7b8e1461035d578063d2f7265a1461037d578063ecb96fe614610385578063ee817e8b1461038d578063f0c79797146103a0578063fa8e30af146103b3578063fbfa77cf146103c6578063fc737214146103ce575b600080fd5b6101986103e1565b6040516101a59190612457565b60405180910390f35b6101c16101bc366004612265565b6103f0565b005b6101d66101d1366004612265565b61054b565b6040516101a59190612543565b6101d66101f1366004612265565b610661565b6101c161020436600461231f565b6106fc565b6101c16102173660046123af565b61076e565b6101c161022a366004612265565b610810565b61024261023d36600461229d565b6108e5565b6040516101a591906126b8565b6101c161025d366004612265565b610940565b6101d6610270366004612265565b6109ed565b610198610a4a565b6101d661028b366004612265565b610a59565b6101c1610b27565b610198610bc8565b6101d66102ae36600461229d565b610bd7565b6101d66102c136600461229d565b610c26565b6101d66102d4366004612265565b610c54565b6101d66102e736600461229d565b610d94565b610198610e53565b610307610302366004612265565b610e62565b6040516101a591906124eb565b6101d661032236600461229d565b610ed8565b6101c1610f03565b6101c161033d36600461235f565b610fef565b6101c16103503660046122d5565b6110dc565b6101986112c5565b61037061036b366004612265565b6112d4565b6040516101a59190612538565b610198611368565b610198611377565b6101d661039b366004612265565b611386565b6101c16103ae36600461231f565b6113a1565b6101c16103c136600461229d565b611459565b610198611775565b6101c16103dc36600461229d565b611784565b6068546001600160a01b031681565b6103f86119d0565b6001600160a01b0316610409610e53565b6001600160a01b03161461044d576040805162461bcd60e51b8152602060048201526006602482015265534f5f434e4f60d01b604482015290519081900360640190fd5b6001600160a01b038116610491576040805162461bcd60e51b81526020600482015260066024820152650534f5f4e57360d41b604482015290519081900360640190fd5b6033546001600160a01b03828116911614156104dd576040805162461bcd60e51b8152602060048201526006602482015265534f5f53414f60d01b604482015290519081900360640190fd5b6034546001600160a01b0382811691161415610529576040805162461bcd60e51b8152602060048201526006602482015265534f5f53414360d01b604482015290519081900360640190fd5b603480546001600160a01b0319166001600160a01b0392909216919091179055565b6001600160a01b038116600090815260a0602052604081205481908190815b8181101561062d576001600160a01b038616600090815260a06020526040812080548390811061059657fe5b60009182526020822001546001600160a01b031691506105b68883610ed8565b905060008082136105d2576105cd826000036119d4565b6105d5565b60005b905060006105f46105ef6105e886611a2f565b8490611b32565b611b8b565b905060006106028b86610c26565b905061060e8883611b9f565b975061061a8982611bf7565b9850506001909401935061056a92505050565b50600080841361064857610643846000036119d4565b61064b565b60005b90506106578184611b9f565b9695505050505050565b60008060005b6001600160a01b038416600090815260a060205260409020548110156106e1576001600160a01b038416600090815260a0602052604081208054839081106106ab57fe5b6000918252602090912001546001600160a01b031690506106d66106cf8683610bd7565b8490611bf7565b925050600101610667565b506106f5816106ef85610c54565b90611bf7565b9392505050565b609c546001600160a01b03166107106119d0565b6001600160a01b03161461073f5760405162461bcd60e51b815260040161073690612659565b60405180910390fd5b6001600160a01b03928316600090815260a1602090815260408083209490951682529290925291902060020155565b609c546001600160a01b03166107826119d0565b6001600160a01b031614806107b157506068546001600160a01b03166107a66119d0565b6001600160a01b0316145b6107cd5760405162461bcd60e51b815260040161073690612635565b6001600160a01b0382166000908152609f60205260409020546107f09082611bf7565b6001600160a01b039092166000908152609f602052604090209190915550565b6108186119d0565b6001600160a01b0316610829610e53565b6001600160a01b03161461086d576040805162461bcd60e51b8152602060048201526006602482015265534f5f434e4f60d01b604482015290519081900360640190fd5b61087f816001600160a01b0316611c5c565b61089b5760405162461bcd60e51b8152600401610736906125f2565b606880546001600160a01b0319166001600160a01b0383169081179091556040517fd0654f5900f9e7e4e605a19334306e6a2786bbf960ac0484a4c12feb6428fe2f90600090a250565b6108ed612244565b506001600160a01b03808316600090815260a16020908152604080832093851683529281529082902082516060810184528154815260018201549281019290925260020154918101919091525b92915050565b6109486119d0565b6001600160a01b0316610959610e53565b6001600160a01b03161461099d576040805162461bcd60e51b8152602060048201526006602482015265534f5f434e4f60d01b604482015290519081900360640190fd5b6109af816001600160a01b0316611c5c565b6109cb5760405162461bcd60e51b815260040161073690612698565b609e80546001600160a01b0319166001600160a01b0392909216919091179055565b609e546000906001600160a01b0316610a046119d0565b6001600160a01b031614610a2a5760405162461bcd60e51b815260040161073690612679565b506001600160a01b03166000908152609f60205260408120805491905590565b6034546001600160a01b031690565b6001600160a01b038116600090815260a06020908152604080832080548251818502810185019093528083528493830182828015610ac057602002820191906000526020600020905b81546001600160a01b03168152600190910190602001808311610aa2575b505050505090506000808251905060005b81811015610b1d576000848281518110610ae757fe5b602002602001015190506000610b05610b008984610bd7565b611c62565b9050610b118582611b9f565b94505050600101610ad1565b5090949350505050565b610b2f6119d0565b6001600160a01b0316610b40610e53565b6001600160a01b031614610b84576040805162461bcd60e51b8152602060048201526006602482015265534f5f434e4f60d01b604482015290519081900360640190fd5b6033546040516000916001600160a01b031690600080516020612791833981519152908390a3603380546001600160a01b0319908116909155603480549091169055565b609d546001600160a01b031681565b600080610be48484610d94565b905080610bf557600091505061093a565b6000610c0084611a2f565b9050610c1d610c18610c1183611c85565b8490611cc9565b611d72565b95945050505050565b6001600160a01b03918216600090815260a16020908152604080832093909416825291909152206001015490565b6001600160a01b038116600090815260a0602052604081205481805b82811015610ccb576001600160a01b038516600090815260a060205260408120805483908110610c9c57fe5b6000918252602090912001546001600160a01b03169050610cc06106cf8783610c26565b925050600101610c70565b50609d546001600160a01b03858116600090815260a060205260408082209051632196f33360e21b81529193929092169163865bcccc91610d1091899160040161248f565b60206040518083038186803b158015610d2857600080fd5b505afa158015610d3c573d6000803e3d6000fd5b505050506040513d601f19601f82011682018060405250810190610d6091906123fa565b90506000610d706106cf83611c85565b9050600a610d7d82611c62565b10610d885780610657565b50600095945050505050565b600080610e30610da48585610ed8565b609d5460405163bf0b1abb60e01b81526106ef916001600160a01b03169063bf0b1abb90610ddb908a908a9060019060040161246b565b60206040518083038186803b158015610df357600080fd5b505afa158015610e07573d6000803e3d6000fd5b505050506040513d601f19601f82011682018060405250810190610e2b91906123fa565b611c85565b9050600a610e3d82611c62565b10610e485780610e4b565b60005b949350505050565b6033546001600160a01b031690565b6001600160a01b038116600090815260a06020908152604091829020805483518184028101840190945280845260609392830182828015610ecc57602002820191906000526020600020905b81546001600160a01b03168152600190910190602001808311610eae575b50505050509050919050565b6001600160a01b03918216600090815260a16020908152604080832093909416825291909152205490565b6034546001600160a01b0316610f48576040805162461bcd60e51b81526020600482015260056024820152640534f5f43360dc1b604482015290519081900360640190fd5b610f506119d0565b6034546001600160a01b03908116911614610f9b576040805162461bcd60e51b8152602060048201526006602482015265534f5f434e4360d01b604482015290519081900360640190fd5b6034546033546040516001600160a01b03928316929091169060008051602061279183398151915290600090a360348054603380546001600160a01b03199081166001600160a01b03841617909155169055565b609c546001600160a01b03166110036119d0565b6001600160a01b0316148061103257506068546001600160a01b03166110276119d0565b6001600160a01b0316145b61104e5760405162461bcd60e51b815260040161073690612635565b6001600160a01b03808616600090815260a160209081526040808320938816835292905220805461107f9085611bf7565b815560018101546110909084611bf7565b60018201556001600160a01b0386166000908152609f60205260409020546110b89083611bf7565b6001600160a01b039096166000908152609f60205260409020959095555050505050565b600054610100900460ff16806110f557506110f5611d86565b80611103575060005460ff16155b61113e5760405162461bcd60e51b815260040180806020018281038252602e815260200180612721602e913960400191505060405180910390fd5b600054610100900460ff16158015611169576000805460ff1961ff0019909116610100171660011790555b61117b846001600160a01b0316611c5c565b6111975760405162461bcd60e51b81526004016107369061254c565b6111a9826001600160a01b0316611c5c565b6111c55760405162461bcd60e51b8152600401610736906125b1565b6000826001600160a01b031663776af5ba6040518163ffffffff1660e01b815260040160206040518083038186803b15801561120057600080fd5b505afa158015611214573d6000803e3d6000fd5b505050506040513d601f19601f820116820180604052508101906112389190612281565b905061124c816001600160a01b0316611c5c565b6112685760405162461bcd60e51b815260040161073690612614565b61127184611d97565b609b80546001600160a01b038088166001600160a01b031992831617909255609c8054868416908316179055609d805493909216921691909117905580156112bf576000805461ff00191690555b50505050565b609b546001600160a01b031681565b609d546001600160a01b03828116600090815260a060205260408082209051634dffaee560e01b815291939290921691634dffaee59161131891869160040161248f565b60206040518083038186803b15801561133057600080fd5b505afa158015611344573d6000803e3d6000fd5b505050506040513d601f19601f8201168201806040525081019061093a91906123da565b609c546001600160a01b031681565b6067546001600160a01b031681565b6001600160a01b03166000908152609f602052604090205490565b609c546001600160a01b03166113b56119d0565b6001600160a01b0316146113db5760405162461bcd60e51b815260040161073690612659565b6001600160a01b03808416600090815260a160209081526040808320938616835292905220600181015461140f9083611e8a565b60018201556001600160a01b0384166000908152609f60205260409020546114379083611bf7565b6001600160a01b039094166000908152609f6020526040902093909355505050565b6068546001600160a01b031661146d6119d0565b6001600160a01b0316146114935760405162461bcd60e51b815260040161073690612590565b600a6114a2610b008484610ed8565b1015806114bc5750600a6114b9610b008484610c26565b10155b156114c657611771565b609d5460405163bf0b1abb60e01b81526000916001600160a01b03169063bf0b1abb906114fc908690869060019060040161246b565b60206040518083038186803b15801561151457600080fd5b505afa158015611528573d6000803e3d6000fd5b505050506040513d601f19601f8201168201806040525081019061154c91906123fa565b609d5460405163bf0b1abb60e01b81529192506000916001600160a01b039091169063bf0b1abb906115869087908790869060040161246b565b60206040518083038186803b15801561159e57600080fd5b505afa1580156115b2573d6000803e3d6000fd5b505050506040513d601f19601f820116820180604052508101906115d691906123fa565b905060008211806115e75750600081115b156115f3575050611771565b6001600160a01b03808516600081815260a16020908152604080832094881683529381528382208281556001810183905560020182905591815260a090915290812054905b8181101561176c576001600160a01b03868116600090815260a0602052604090208054918716918390811061166957fe5b6000918252602090912001546001600160a01b031614156117645760018203811461171c576001600160a01b038616600090815260a060205260409020805460001984019081106116b657fe5b60009182526020808320909101546001600160a01b03898116845260a090925260409092208054919092169190839081106116ed57fe5b9060005260206000200160006101000a8154816001600160a01b0302191690836001600160a01b031602179055505b6001600160a01b038616600090815260a06020526040902080548061173d57fe5b600082815260209020810160001990810180546001600160a01b031916905501905561176c565b600101611638565b505050505b5050565b609e546001600160a01b031681565b6068546001600160a01b03166117986119d0565b6001600160a01b0316146117be5760405162461bcd60e51b815260040161073690612590565b6001600160a01b038216600090815260a0602090815260408083208054825181850281018501909352808352919290919083018282801561182857602002820191906000526020600020905b81546001600160a01b0316815260019091019060200180831161180a575b5050505050905080516000141561187d57506001600160a01b03828116600090815260a0602090815260408220805460018101825590835291200180546001600160a01b031916918316919091179055611771565b6118878383610ed8565b6119cb576000805b82518110156118d657836001600160a01b03168382815181106118ae57fe5b60200260200101516001600160a01b031614156118ce57600191506118d6565b60010161188f565b50806112bf57609b546040805163f652b52760e01b815290516000926001600160a01b03169163f652b527916004808301926020929190829003018186803b15801561192157600080fd5b505afa158015611935573d6000803e3d6000fd5b505050506040513d601f19601f820116820180604052508101906119599190612436565b905060ff8116158061196e57508060ff168351105b61198a5760405162461bcd60e51b8152600401610736906125d2565b50506001600160a01b03838116600090815260a0602090815260408220805460018101825590835291200180546001600160a01b0319169184169190911790555b505050565b3390565b600080821215611a2b576040805162461bcd60e51b815260206004820181905260248201527f53616665436173743a2076616c7565206d75737420626520706f736974697665604482015290519081900360640190fd5b5090565b6000816001600160a01b03166312080647609b60009054906101000a90046001600160a01b03166001600160a01b0316633c1d5df06040518163ffffffff1660e01b815260040160206040518083038186803b158015611a8e57600080fd5b505afa158015611aa2573d6000803e3d6000fd5b505050506040513d601f19601f82011682018060405250810190611ac69190612412565b6040518263ffffffff1660e01b8152600401611ae291906126d9565b60206040518083038186803b158015611afa57600080fd5b505afa158015611b0e573d6000803e3d6000fd5b505050506040513d601f19601f8201168201806040525081019061093a91906123fa565b600082611b415750600061093a565b82820282848281611b4e57fe5b04146106f55760405162461bcd60e51b81526004018080602001828103825260218152602001806127706021913960400191505060405180910390fd5b600061093a82670de0b6b3a7640000611eef565b6000828201838110156106f5576040805162461bcd60e51b815260206004820152601b60248201527a536166654d6174683a206164646974696f6e206f766572666c6f7760281b604482015290519081900360640190fd5b6000828201818312801590611c0c5750838112155b80611c215750600083128015611c2157508381125b6106f55760405162461bcd60e51b81526004018080602001828103825260218152602001806127006021913960400191505060405180910390fd5b3b151590565b6000808213611c7c57611c77826000036119d4565b61093a565b61093a826119d4565b6000600160ff1b8210611a2b5760405162461bcd60e51b81526004018080602001828103825260288152602001806127d86028913960400191505060405180910390fd5b600082611cd85750600061093a565b82600019148015611cec5750600160ff1b82145b15611d285760405162461bcd60e51b81526004018080602001828103825260278152602001806127b16027913960400191505060405180910390fd5b82820282848281611d3557fe5b05146106f55760405162461bcd60e51b81526004018080602001828103825260278152602001806127b16027913960400191505060405180910390fd5b600061093a82670de0b6b3a7640000611f53565b6000611d9130611c5c565b15905090565b600054610100900460ff1680611db05750611db0611d86565b80611dbe575060005460ff16155b611df95760405162461bcd60e51b815260040180806020018281038252602e815260200180612721602e913960400191505060405180910390fd5b600054610100900460ff16158015611e24576000805460ff1961ff0019909116610100171660011790555b611e2c61200b565b611e3e826001600160a01b0316611c5c565b611e5a5760405162461bcd60e51b81526004016107369061256e565b606780546001600160a01b0319166001600160a01b0384161790558015611771576000805461ff00191690555050565b6000818303818312801590611e9f5750838113155b80611eb45750600083128015611eb457508381135b6106f55760405162461bcd60e51b81526004018080602001828103825260248152602001806128006024913960400191505060405180910390fd5b6000808211611f42576040805162461bcd60e51b815260206004820152601a602482015279536166654d6174683a206469766973696f6e206279207a65726f60301b604482015290519081900360640190fd5b818381611f4b57fe5b049392505050565b600081611fa7576040805162461bcd60e51b815260206004820181905260248201527f5369676e6564536166654d6174683a206469766973696f6e206279207a65726f604482015290519081900360640190fd5b81600019148015611fbb5750600160ff1b83145b15611ff75760405162461bcd60e51b815260040180806020018281038252602181526020018061274f6021913960400191505060405180910390fd5b600082848161200257fe5b05949350505050565b600054610100900460ff16806120245750612024611d86565b80612032575060005460ff16155b61206d5760405162461bcd60e51b815260040180806020018281038252602e815260200180612721602e913960400191505060405180910390fd5b600054610100900460ff16158015612098576000805460ff1961ff0019909116610100171660011790555b6120a06120fb565b60006120aa6119d0565b603380546001600160a01b0319166001600160a01b03831690811790915560405191925090600090600080516020612791833981519152908290a35080156120f8576000805461ff00191690555b50565b600054610100900460ff16806121145750612114611d86565b80612122575060005460ff16155b61215d5760405162461bcd60e51b815260040180806020018281038252602e815260200180612721602e913960400191505060405180910390fd5b600054610100900460ff16158015612188576000805460ff1961ff0019909116610100171660011790555b6121906121a4565b80156120f8576000805461ff001916905550565b600054610100900460ff16806121bd57506121bd611d86565b806121cb575060005460ff16155b6122065760405162461bcd60e51b815260040180806020018281038252602e815260200180612721602e913960400191505060405180910390fd5b600054610100900460ff16158015612190576000805460ff1961ff00199091166101001716600117905580156120f8576000805461ff001916905550565b60405180606001604052806000815260200160008152602001600081525090565b600060208284031215612276578081fd5b81356106f5816126ea565b600060208284031215612292578081fd5b81516106f5816126ea565b600080604083850312156122af578081fd5b82356122ba816126ea565b915060208301356122ca816126ea565b809150509250929050565b6000806000606084860312156122e9578081fd5b83356122f4816126ea565b92506020840135612304816126ea565b91506040840135612314816126ea565b809150509250925092565b600080600060608486031215612333578283fd5b833561233e816126ea565b9250602084013561234e816126ea565b929592945050506040919091013590565b600080600080600060a08688031215612376578081fd5b8535612381816126ea565b94506020860135612391816126ea565b94979496505050506040830135926060810135926080909101359150565b600080604083850312156123c1578182fd5b82356123cc816126ea565b946020939093013593505050565b6000602082840312156123eb578081fd5b815180151581146106f5578182fd5b60006020828403121561240b578081fd5b5051919050565b600060208284031215612423578081fd5b815163ffffffff811681146106f5578182fd5b600060208284031215612447578081fd5b815160ff811681146106f5578182fd5b6001600160a01b0391909116815260200190565b6001600160a01b039384168152919092166020820152901515604082015260600190565b60006040820160018060a01b03808616845260206040818601528286548085526060870191508786528286209450855b818110156124dd5785548516835260019586019592840192016124bf565b509098975050505050505050565b6020808252825182820181905260009190848201906040850190845b8181101561252c5783516001600160a01b031683529284019291840191600101612507565b50909695505050505050565b901515815260200190565b90815260200190565b60208082526008908201526741425f4348434e4360c01b604082015260600190565b6020808252600890820152674348445f4d524e4360c01b604082015260600190565b6020808252600790820152660869088be9e86960cb1b604082015260600190565b60208082526007908201526641425f45584e4360c81b604082015260600190565b60208082526006908201526541425f4d4e4560d01b604082015260600190565b6020808252600890820152674348445f43484e4360c01b604082015260600190565b60208082526007908201526641425f4f424e4360c81b604082015260600190565b6020808252600a908201526908284be9ebe8ab0f886960b31b604082015260600190565b60208082526006908201526508284be9e8ab60d31b604082015260600190565b60208082526005908201526420a12fa7ab60d91b604082015260600190565b60208082526006908201526541425f564e4360d01b604082015260600190565b81518152602080830151908201526040918201519181019190915260600190565b63ffffffff91909116815260200190565b6001600160a01b03811681146120f857600080fdfe5369676e6564536166654d6174683a206164646974696f6e206f766572666c6f77496e697469616c697a61626c653a20636f6e747261637420697320616c726561647920696e697469616c697a65645369676e6564536166654d6174683a206469766973696f6e206f766572666c6f77536166654d6174683a206d756c7469706c69636174696f6e206f766572666c6f778be0079c531659141344cd1fd0a4f28419497f9722a3daafe3b4186f6b6457e05369676e6564536166654d6174683a206d756c7469706c69636174696f6e206f766572666c6f7753616665436173743a2076616c756520646f65736e27742066697420696e20616e20696e743235365369676e6564536166654d6174683a207375627472616374696f6e206f766572666c6f77a26469706673582212202da684f185ac6b99f554451f1ae68716d97a979e7aabb160748e2f7298307b4564736f6c63430007060033",
  "linkReferences": {},
  "deployedLinkReferences": {}
}