{
  "_format": "hh-sol-artifact-1",
  "contractName": "PerpV2InsuranceFund",
  "sourceName": "contracts/InsuranceFund.sol",
  "abi": [
    {
      "anonymous": false,
      "inputs": [
        {
          "indexed": false,
          "internalType": "address",
          "name": "borrower",
          "type": "address"
        },
        {
          "indexed": false,
          "internalType": "uint256",
          "name": "amount",
          "type": "uint256"
        }
      ],
      "name": "Borrowed",
      "type": "event"
    },
    {
      "anonymous": false,
      "inputs": [
        {
          "indexed": true,
          "internalType": "address",
          "name": "previousOwner",
          "type": "address"
        },
        {
          "indexed": true,
          "internalType": "address",
          "name": "newOwner",
          "type": "address"
        }
      ],
      "name": "OwnershipTransferred",
      "type": "event"
    },
    {
      "anonymous": false,
      "inputs": [
        {
          "indexed": false,
          "internalType": "address",
          "name": "account",
          "type": "address"
        }
      ],
      "name": "Paused",
      "type": "event"
    },
    {
      "anonymous": false,
      "inputs": [
        {
          "indexed": false,
          "internalType": "address",
          "name": "account",
          "type": "address"
        }
      ],
      "name": "Unpaused",
      "type": "event"
    },
    {
      "inputs": [
        {
          "internalType": "uint256",
          "name": "amount",
          "type": "uint256"
        }
      ],
      "name": "borrow",
      "outputs": [],
      "stateMutability": "nonpayable",
      "type": "function"
    },
    {
      "inputs": [],
      "name": "borrower",
      "outputs": [
        {
          "internalType": "address",
          "name": "",
          "type": "address"
        }
      ],
      "stateMutability": "view",
      "type": "function"
    },
    {
      "inputs": [],
      "name": "candidate",
      "outputs": [
        {
          "internalType": "address",
          "name": "",
          "type": "address"
        }
      ],
      "stateMutability": "view",
      "type": "function"
    },
    {
      "inputs": [
        {
          "internalType": "address",
          "name": "tokenArg",
          "type": "address"
        }
      ],
      "name": "initialize",
      "outputs": [],
      "stateMutability": "nonpayable",
      "type": "function"
    },
    {
      "inputs": [],
      "name": "owner",
      "outputs": [
        {
          "internalType": "address",
          "name": "",
          "type": "address"
        }
      ],
      "stateMutability": "view",
      "type": "function"
    },
    {
      "inputs": [],
      "name": "pause",
      "outputs": [],
      "stateMutability": "nonpayable",
      "type": "function"
    },
    {
      "inputs": [],
      "name": "paused",
      "outputs": [
        {
          "internalType": "bool",
          "name": "",
          "type": "bool"
        }
      ],
      "stateMutability": "view",
      "type": "function"
    },
    {
      "inputs": [],
      "name": "renounceOwnership",
      "outputs": [],
      "stateMutability": "nonpayable",
      "type": "function"
    },
    {
      "inputs": [
        {
          "internalType": "address",
          "name": "borrowerArg",
          "type": "address"
        }
      ],
      "name": "setBorrower",
      "outputs": [],
      "stateMutability": "nonpayable",
      "type": "function"
    },
    {
      "inputs": [
        {
          "internalType": "address",
          "name": "newOwner",
          "type": "address"
        }
      ],
      "name": "setOwner",
      "outputs": [],
      "stateMutability": "nonpayable",
      "type": "function"
    },
    {
      "inputs": [],
      "name": "token",
      "outputs": [
        {
          "internalType": "address",
          "name": "",
          "type": "address"
        }
      ],
      "stateMutability": "view",
      "type": "function"
    },
    {
      "inputs": [],
      "name": "unpause",
      "outputs": [],
      "stateMutability": "nonpayable",
      "type": "function"
    },
    {
      "inputs": [],
      "name": "updateOwner",
      "outputs": [],
      "stateMutability": "nonpayable",
      "type": "function"
    }
  ],
  "bytecode": "0x608060405234801561001057600080fd5b5061125f806100206000396000f3fe608060405234801561001057600080fd5b50600436106100af5760003560e01c806313af4035146100b45780633f4ba83a146100dc5780635c975abb146100e45780636c8381f814610100578063715018a6146101245780637df1f1b91461012c5780638456cb59146101345780638da5cb5b1461013c578063bc5920ba14610144578063c4d66de81461014c578063c5ebeaec14610172578063c762d5f71461018f578063fc0c546a146101b5575b600080fd5b6100da600480360360208110156100ca57600080fd5b50356001600160a01b03166101bd565b005b6100da610318565b6100ec61037f565b604080519115158252519081900360200190f35b610108610388565b604080516001600160a01b039092168252519081900360200190f35b6100da610397565b610108610438565b6100da610447565b6101086104ac565b6100da6104bb565b6100da6004803603602081101561016257600080fd5b50356001600160a01b03166105a7565b6100da6004803603602081101561018857600080fd5b50356106c2565b6100da600480360360208110156101a557600080fd5b50356001600160a01b03166108e0565b6101086109ab565b6101c56109ba565b6001600160a01b03166101d66104ac565b6001600160a01b03161461021a576040805162461bcd60e51b8152602060048201526006602482015265534f5f434e4f60d01b604482015290519081900360640190fd5b6001600160a01b03811661025e576040805162461bcd60e51b81526020600482015260066024820152650534f5f4e57360d41b604482015290519081900360640190fd5b6065546001600160a01b03828116911614156102aa576040805162461bcd60e51b8152602060048201526006602482015265534f5f53414f60d01b604482015290519081900360640190fd5b6066546001600160a01b03828116911614156102f6576040805162461bcd60e51b8152602060048201526006602482015265534f5f53414360d01b604482015290519081900360640190fd5b606680546001600160a01b0319166001600160a01b0392909216919091179055565b6103206109ba565b6001600160a01b03166103316104ac565b6001600160a01b031614610375576040805162461bcd60e51b8152602060048201526006602482015265534f5f434e4f60d01b604482015290519081900360640190fd5b61037d6109c9565b565b60995460ff1690565b6066546001600160a01b031690565b61039f6109ba565b6001600160a01b03166103b06104ac565b6001600160a01b0316146103f4576040805162461bcd60e51b8152602060048201526006602482015265534f5f434e4f60d01b604482015290519081900360640190fd5b6065546040516000916001600160a01b0316906000805160206111dd833981519152908390a3606580546001600160a01b0319908116909155606680549091169055565b60fe546001600160a01b031681565b61044f6109ba565b6001600160a01b03166104606104ac565b6001600160a01b0316146104a4576040805162461bcd60e51b8152602060048201526006602482015265534f5f434e4f60d01b604482015290519081900360640190fd5b61037d610a69565b6065546001600160a01b031690565b6066546001600160a01b0316610500576040805162461bcd60e51b81526020600482015260056024820152640534f5f43360dc1b604482015290519081900360640190fd5b6105086109ba565b6066546001600160a01b03908116911614610553576040805162461bcd60e51b8152602060048201526006602482015265534f5f434e4360d01b604482015290519081900360640190fd5b6066546065546040516001600160a01b0392831692909116906000805160206111dd83398151915290600090a360668054606580546001600160a01b03199081166001600160a01b03841617909155169055565b600054610100900460ff16806105c057506105c0610aec565b806105ce575060005460ff16155b6106095760405162461bcd60e51b815260040180806020018281038252602e8152602001806111af602e913960400191505060405180910390fd5b600054610100900460ff16158015610634576000805460ff1961ff0019909116610100171660011790555b610646826001600160a01b0316610afd565b610681576040805162461bcd60e51b815260206004820152600760248201526649465f53544e4360c81b604482015290519081900360640190fd5b610689610b03565b610691610bad565b60fd80546001600160a01b0319166001600160a01b03841617905580156106be576000805461ff00191690555b5050565b6002600154141561071a576040805162461bcd60e51b815260206004820152601f60248201527f5265656e7472616e637947756172643a207265656e7472616e742063616c6c00604482015290519081900360640190fd5b600260015561072761037f565b1561076c576040805162461bcd60e51b815260206004820152601060248201526f14185d5cd8589b194e881c185d5cd95960821b604482015290519081900360640190fd5b60fe546001600160a01b03166107806109ba565b6001600160a01b0316146107c3576040805162461bcd60e51b815260206004820152600560248201526424a32fa7a160d91b604482015290519081900360640190fd5b60fd54604080516370a0823160e01b8152306004820152905183926001600160a01b0316916370a08231916024808301926020929190829003018186803b15801561080d57600080fd5b505afa158015610821573d6000803e3d6000fd5b505050506040513d602081101561083757600080fd5b50511015610875576040805162461bcd60e51b815260206004820152600660248201526524a32fa722a160d11b604482015290519081900360640190fd5b60fd5460fe54610892916001600160a01b03908116911683610c4a565b60fe54604080516001600160a01b0390921682526020820183905280517fac59582e5396aca512fa873a2047e7f4c80f8f55d4a06cb34a78a0187f62719f9281900390910190a15060018055565b6108e86109ba565b6001600160a01b03166108f96104ac565b6001600160a01b03161461093d576040805162461bcd60e51b8152602060048201526006602482015265534f5f434e4f60d01b604482015290519081900360640190fd5b61094f816001600160a01b0316610afd565b610989576040805162461bcd60e51b815260206004820152600660248201526549465f424e4360d01b604482015290519081900360640190fd5b60fe80546001600160a01b0319166001600160a01b0392909216919091179055565b60fd546001600160a01b031681565b60006109c4610d9d565b905090565b6109d161037f565b610a19576040805162461bcd60e51b815260206004820152601460248201527314185d5cd8589b194e881b9bdd081c185d5cd95960621b604482015290519081900360640190fd5b6099805460ff191690557f5db9ee0a495bf2e6ff9c91a7834c1ba4fdd244a5e8aa4e537bd38aeae4b073aa610a4c6109ba565b604080516001600160a01b039092168252519081900360200190a1565b610a7161037f565b15610ab6576040805162461bcd60e51b815260206004820152601060248201526f14185d5cd8589b194e881c185d5cd95960821b604482015290519081900360640190fd5b6099805460ff191660011790557f62e78cea01bee320cd4e420270b5ea74000d11b0c9f74754ebdbfc544b05a258610a4c6109ba565b6000610af730610afd565b15905090565b3b151590565b600054610100900460ff1680610b1c5750610b1c610aec565b80610b2a575060005460ff16155b610b655760405162461bcd60e51b815260040180806020018281038252602e8152602001806111af602e913960400191505060405180910390fd5b600054610100900460ff16158015610b90576000805460ff1961ff0019909116610100171660011790555b610b98610da1565b8015610baa576000805461ff00191690555b50565b600054610100900460ff1680610bc65750610bc6610aec565b80610bd4575060005460ff16155b610c0f5760405162461bcd60e51b815260040180806020018281038252602e8152602001806111af602e913960400191505060405180910390fd5b600054610100900460ff16158015610c3a576000805460ff1961ff0019909116610100171660011790555b610c42610e46565b610b98610f35565b604080516001600160a01b038481166024830152604480830185905283518084039091018152606490920183526020820180516001600160e01b031663a9059cbb60e01b1781529251825160009485949389169392918291908083835b60208310610cc65780518252601f199092019160209182019101610ca7565b6001836020036101000a0380198251168184511680821785525050505050509050019150506000604051808303816000865af19150503d8060008114610d28576040519150601f19603f3d011682016040523d82523d6000602084013e610d2d565b606091505b5091509150818015610d5b575080511580610d5b5750808060200190516020811015610d5857600080fd5b50515b610d965760405162461bcd60e51b815260040180806020018281038252602d8152602001806111fd602d913960400191505060405180910390fd5b5050505050565b3390565b600054610100900460ff1680610dba5750610dba610aec565b80610dc8575060005460ff16155b610e035760405162461bcd60e51b815260040180806020018281038252602e8152602001806111af602e913960400191505060405180910390fd5b600054610100900460ff16158015610e2e576000805460ff1961ff0019909116610100171660011790555b600180558015610baa576000805461ff001916905550565b600054610100900460ff1680610e5f5750610e5f610aec565b80610e6d575060005460ff16155b610ea85760405162461bcd60e51b815260040180806020018281038252602e8152602001806111af602e913960400191505060405180910390fd5b600054610100900460ff16158015610ed3576000805460ff1961ff0019909116610100171660011790555b610edb610fd2565b6000610ee56109ba565b606580546001600160a01b0319166001600160a01b038316908117909155604051919250906000906000805160206111dd833981519152908290a3508015610baa576000805461ff001916905550565b600054610100900460ff1680610f4e5750610f4e610aec565b80610f5c575060005460ff16155b610f975760405162461bcd60e51b815260040180806020018281038252602e8152602001806111af602e913960400191505060405180910390fd5b600054610100900460ff16158015610fc2576000805460ff1961ff0019909116610100171660011790555b610fca611063565b610b98611103565b600054610100900460ff1680610feb5750610feb610aec565b80610ff9575060005460ff16155b6110345760405162461bcd60e51b815260040180806020018281038252602e8152602001806111af602e913960400191505060405180910390fd5b600054610100900460ff1615801561105f576000805460ff1961ff0019909116610100171660011790555b610b985b600054610100900460ff168061107c575061107c610aec565b8061108a575060005460ff16155b6110c55760405162461bcd60e51b815260040180806020018281038252602e8152602001806111af602e913960400191505060405180910390fd5b600054610100900460ff16158015610b98576000805460ff1961ff0019909116610100171660011790558015610baa576000805461ff001916905550565b600054610100900460ff168061111c575061111c610aec565b8061112a575060005460ff16155b6111655760405162461bcd60e51b815260040180806020018281038252602e8152602001806111af602e913960400191505060405180910390fd5b600054610100900460ff16158015611190576000805460ff1961ff0019909116610100171660011790555b6099805460ff191690558015610baa576000805461ff00191690555056fe496e697469616c697a61626c653a20636f6e747261637420697320616c726561647920696e697469616c697a65648be0079c531659141344cd1fd0a4f28419497f9722a3daafe3b4186f6b6457e05472616e7366657248656c7065723a3a736166655472616e736665723a207472616e73666572206661696c6564a264697066735822122042aefe70254a50665ecf86f66dd88b8b7aeb2c6b48d0ea87b5df01fb4217c5da64736f6c63430007060033",
  "linkReferences": {},
  "deployedLinkReferences": {}
}