{
  "_format": "hh-sol-artifact-1",
  "contractName": "PerpV2MarketRegistry",
  "sourceName": "contracts/MarketRegistry.sol",
  "abi": [
    {
      "anonymous": false,
      "inputs": [
        {
          "indexed": true,
          "internalType": "address",
          "name": "clearingHouse",
          "type": "address"
        }
      ],
      "name": "ClearingHouseChanged",
      "type": "event"
    },
    {
      "anonymous": false,
      "inputs": [
        {
          "indexed": false,
          "internalType": "address",
          "name": "baseToken",
          "type": "address"
        },
        {
          "indexed": false,
          "internalType": "uint24",
          "name": "feeRatio",
          "type": "uint24"
        }
      ],
      "name": "FeeRatioChanged",
      "type": "event"
    },
    {
      "anonymous": false,
      "inputs": [
        {
          "indexed": false,
          "internalType": "uint24",
          "name": "feeRatio",
          "type": "uint24"
        }
      ],
      "name": "InsuranceFundFeeRatioChanged",
      "type": "event"
    },
    {
      "anonymous": false,
      "inputs": [
        {
          "indexed": false,
          "internalType": "uint8",
          "name": "maxOrdersPerMarket",
          "type": "uint8"
        }
      ],
      "name": "MaxOrdersPerMarketChanged",
      "type": "event"
    },
    {
      "anonymous": false,
      "inputs": [
        {
          "indexed": true,
          "internalType": "address",
          "name": "previousOwner",
          "type": "address"
        },
        {
          "indexed": true,
          "internalType": "address",
          "name": "newOwner",
          "type": "address"
        }
      ],
      "name": "OwnershipTransferred",
      "type": "event"
    },
    {
      "anonymous": false,
      "inputs": [
        {
          "indexed": true,
          "internalType": "address",
          "name": "baseToken",
          "type": "address"
        },
        {
          "indexed": true,
          "internalType": "uint24",
          "name": "feeRatio",
          "type": "uint24"
        },
        {
          "indexed": true,
          "internalType": "address",
          "name": "pool",
          "type": "address"
        }
      ],
      "name": "PoolAdded",
      "type": "event"
    },
    {
      "inputs": [
        {
          "internalType": "address",
          "name": "baseToken",
          "type": "address"
        },
        {
          "internalType": "uint24",
          "name": "feeRatio",
          "type": "uint24"
        }
      ],
      "name": "addPool",
      "outputs": [
        {
          "internalType": "address",
          "name": "",
          "type": "address"
        }
      ],
      "stateMutability": "nonpayable",
      "type": "function"
    },
    {
      "inputs": [],
      "name": "candidate",
      "outputs": [
        {
          "internalType": "address",
          "name": "",
          "type": "address"
        }
      ],
      "stateMutability": "view",
      "type": "function"
    },
    {
      "inputs": [],
      "name": "getClearingHouse",
      "outputs": [
        {
          "internalType": "address",
          "name": "",
          "type": "address"
        }
      ],
      "stateMutability": "view",
      "type": "function"
    },
    {
      "inputs": [
        {
          "internalType": "address",
          "name": "baseToken",
          "type": "address"
        }
      ],
      "name": "getFeeRatio",
      "outputs": [
        {
          "internalType": "uint24",
          "name": "",
          "type": "uint24"
        }
      ],
      "stateMutability": "view",
      "type": "function"
    },
    {
      "inputs": [
        {
          "internalType": "address",
          "name": "baseToken",
          "type": "address"
        }
      ],
      "name": "getInsuranceFundFeeRatio",
      "outputs": [
        {
          "internalType": "uint24",
          "name": "",
          "type": "uint24"
        }
      ],
      "stateMutability": "view",
      "type": "function"
    },
    {
      "inputs": [
        {
          "internalType": "address",
          "name": "baseToken",
          "type": "address"
        }
      ],
      "name": "getMarketInfo",
      "outputs": [
        {
          "components": [
            {
              "internalType": "address",
              "name": "pool",
              "type": "address"
            },
            {
              "internalType": "uint24",
              "name": "exchangeFeeRatio",
              "type": "uint24"
            },
            {
              "internalType": "uint24",
              "name": "uniswapFeeRatio",
              "type": "uint24"
            },
            {
              "internalType": "uint24",
              "name": "insuranceFundFeeRatio",
              "type": "uint24"
            }
          ],
          "internalType": "struct IMarketRegistry.MarketInfo",
          "name": "",
          "type": "tuple"
        }
      ],
      "stateMutability": "view",
      "type": "function"
    },
    {
      "inputs": [],
      "name": "getMaxOrdersPerMarket",
      "outputs": [
        {
          "internalType": "uint8",
          "name": "",
          "type": "uint8"
        }
      ],
      "stateMutability": "view",
      "type": "function"
    },
    {
      "inputs": [
        {
          "internalType": "address",
          "name": "baseToken",
          "type": "address"
        }
      ],
      "name": "getPool",
      "outputs": [
        {
          "internalType": "address",
          "name": "",
          "type": "address"
        }
      ],
      "stateMutability": "view",
      "type": "function"
    },
    {
      "inputs": [],
      "name": "getQuoteToken",
      "outputs": [
        {
          "internalType": "address",
          "name": "",
          "type": "address"
        }
      ],
      "stateMutability": "view",
      "type": "function"
    },
    {
      "inputs": [],
      "name": "getUniswapV3Factory",
      "outputs": [
        {
          "internalType": "address",
          "name": "",
          "type": "address"
        }
      ],
      "stateMutability": "view",
      "type": "function"
    },
    {
      "inputs": [
        {
          "internalType": "address",
          "name": "baseToken",
          "type": "address"
        }
      ],
      "name": "hasPool",
      "outputs": [
        {
          "internalType": "bool",
          "name": "",
          "type": "bool"
        }
      ],
      "stateMutability": "view",
      "type": "function"
    },
    {
      "inputs": [
        {
          "internalType": "address",
          "name": "uniswapV3FactoryArg",
          "type": "address"
        },
        {
          "internalType": "address",
          "name": "quoteTokenArg",
          "type": "address"
        }
      ],
      "name": "initialize",
      "outputs": [],
      "stateMutability": "nonpayable",
      "type": "function"
    },
    {
      "inputs": [],
      "name": "owner",
      "outputs": [
        {
          "internalType": "address",
          "name": "",
          "type": "address"
        }
      ],
      "stateMutability": "view",
      "type": "function"
    },
    {
      "inputs": [],
      "name": "renounceOwnership",
      "outputs": [],
      "stateMutability": "nonpayable",
      "type": "function"
    },
    {
      "inputs": [
        {
          "internalType": "address",
          "name": "clearingHouseArg",
          "type": "address"
        }
      ],
      "name": "setClearingHouse",
      "outputs": [],
      "stateMutability": "nonpayable",
      "type": "function"
    },
    {
      "inputs": [
        {
          "internalType": "address",
          "name": "baseToken",
          "type": "address"
        },
        {
          "internalType": "uint24",
          "name": "feeRatio",
          "type": "uint24"
        }
      ],
      "name": "setFeeRatio",
      "outputs": [],
      "stateMutability": "nonpayable",
      "type": "function"
    },
    {
      "inputs": [
        {
          "internalType": "address",
          "name": "baseToken",
          "type": "address"
        },
        {
          "internalType": "uint24",
          "name": "insuranceFundFeeRatioArg",
          "type": "uint24"
        }
      ],
      "name": "setInsuranceFundFeeRatio",
      "outputs": [],
      "stateMutability": "nonpayable",
      "type": "function"
    },
    {
      "inputs": [
        {
          "internalType": "uint8",
          "name": "maxOrdersPerMarketArg",
          "type": "uint8"
        }
      ],
      "name": "setMaxOrdersPerMarket",
      "outputs": [],
      "stateMutability": "nonpayable",
      "type": "function"
    },
    {
      "inputs": [
        {
          "internalType": "address",
          "name": "newOwner",
          "type": "address"
        }
      ],
      "name": "setOwner",
      "outputs": [],
      "stateMutability": "nonpayable",
      "type": "function"
    },
    {
      "inputs": [],
      "name": "updateOwner",
      "outputs": [],
      "stateMutability": "nonpayable",
      "type": "function"
    }
  ],
  "bytecode": "0x608060405234801561001057600080fd5b50611ce0806100206000396000f3fe608060405234801561001057600080fd5b506004361061012c5760003560e01c8063831f72b4116100ad578063bc5920ba11610071578063bc5920ba14610256578063c575ff791461025e578063c7bf443414610266578063ece090c414610279578063edd0b5cb1461028e5761012c565b8063831f72b41461020d5780638da5cb5b14610220578063b081983b14610228578063bb235d1114610230578063bbe4f6db146102435761012c565b8063449323d8116100f4578063449323d8146101c2578063485cc955146101d55780634a64d67d146101e85780636c8381f8146101fd578063715018a6146102055761012c565b806308ff49ad146101315780630cf85bcc1461015a5780631246dbf51461017a57806313af40351461019a5780633feb4212146101af575b600080fd5b61014461013f3660046117dd565b6102a1565b6040516101519190611c3a565b60405180910390f35b61016d6101683660046117dd565b610307565b6040516101519190611bf9565b61018d6101883660046117dd565b6103b1565b60405161015191906119de565b6101ad6101a83660046117dd565b6103d4565b005b6101ad6101bd366004611854565b61052f565b6101ad6101d03660046117dd565b610655565b6101ad6101e336600461181c565b61072a565b6101f0610870565b6040516101519190611984565b6101f061087f565b6101ad61088e565b6101ad61021b36600461194c565b610941565b6101f06109f1565b6101f0610a00565b6101ad61023e366004611854565b610a0f565b6101f06102513660046117dd565b610b29565b6101ad610b84565b6101f0610c82565b6101f0610274366004611854565b610c91565b61028161129b565b6040516101519190611c4a565b61014461029c3660046117dd565b6112ab565b6001600160a01b038082166000908152609c602052604081205490918391166102e55760405162461bcd60e51b81526004016102dc90611b98565b60405180910390fd5b50506001600160a01b03166000908152609d602052604090205462ffffff1690565b61030f611774565b6001600160a01b038083166000908152609c60205260409020548391166103485760405162461bcd60e51b81526004016102dc90611b98565b5050604080516080810182526001600160a01b039283166000818152609c6020908152848220549095168352818152609e85528381205462ffffff90811686850152828252609f865284822054811684860152918152609d909452919092205416606082015290565b6001600160a01b038181166000908152609c60205260409020541615155b919050565b6103dc611308565b6001600160a01b03166103ed6109f1565b6001600160a01b031614610431576040805162461bcd60e51b8152602060048201526006602482015265534f5f434e4f60d01b604482015290519081900360640190fd5b6001600160a01b038116610475576040805162461bcd60e51b81526020600482015260066024820152650534f5f4e57360d41b604482015290519081900360640190fd5b6033546001600160a01b03828116911614156104c1576040805162461bcd60e51b8152602060048201526006602482015265534f5f53414f60d01b604482015290519081900360640190fd5b6034546001600160a01b038281169116141561050d576040805162461bcd60e51b8152602060048201526006602482015265534f5f53414360d01b604482015290519081900360640190fd5b603480546001600160a01b0319166001600160a01b0392909216919091179055565b6001600160a01b038083166000908152609c60205260409020548391166105685760405162461bcd60e51b81526004016102dc90611b98565b81620f42408162ffffff1611156105915760405162461bcd60e51b81526004016102dc90611a8f565b610599611308565b6001600160a01b03166105aa6109f1565b6001600160a01b0316146105ee576040805162461bcd60e51b8152602060048201526006602482015265534f5f434e4f60d01b604482015290519081900360640190fd5b6001600160a01b0384166000908152609d602052604090819020805462ffffff191662ffffff8616179055517f0b4bf524b123dd9f9252f2f17e6f842313eb705045a2259faccd2530bae3ff5c90610647908590611c3a565b60405180910390a150505050565b61065d611308565b6001600160a01b031661066e6109f1565b6001600160a01b0316146106b2576040805162461bcd60e51b8152602060048201526006602482015265534f5f434e4f60d01b604482015290519081900360640190fd5b6106c4816001600160a01b031661130c565b6106e05760405162461bcd60e51b81526004016102dc90611b0f565b606780546001600160a01b0319166001600160a01b0383169081179091556040517fd0654f5900f9e7e4e605a19334306e6a2786bbf960ac0484a4c12feb6428fe2f90600090a250565b600054610100900460ff16806107435750610743611312565b80610751575060005460ff16155b61078c5760405162461bcd60e51b815260040180806020018281038252602e815260200180611c7d602e913960400191505060405180910390fd5b600054610100900460ff161580156107b7576000805460ff1961ff0019909116610100171660011790555b6107bf611323565b6107d1836001600160a01b031661130c565b6107ed5760405162461bcd60e51b81526004016102dc90611a6e565b6107ff826001600160a01b031661130c565b61081b5760405162461bcd60e51b81526004016102dc90611a4d565b609a80546001600160a01b038086166001600160a01b031992831617909255609b805460ff60a01b199386169216919091179190911660ff60a01b179055801561086b576000805461ff00191690555b505050565b609b546001600160a01b031690565b6034546001600160a01b031690565b610896611308565b6001600160a01b03166108a76109f1565b6001600160a01b0316146108eb576040805162461bcd60e51b8152602060048201526006602482015265534f5f434e4f60d01b604482015290519081900360640190fd5b6033546040516000916001600160a01b0316907f8be0079c531659141344cd1fd0a4f28419497f9722a3daafe3b4186f6b6457e0908390a3603380546001600160a01b0319908116909155603480549091169055565b610949611308565b6001600160a01b031661095a6109f1565b6001600160a01b03161461099e576040805162461bcd60e51b8152602060048201526006602482015265534f5f434e4f60d01b604482015290519081900360640190fd5b609b805460ff60a01b1916600160a01b60ff8416021790556040517ff3d121ca0d4fa5acf57cf8a09acedf5326b6ca02f25764d2a05a4dba8e4a777e906109e6908390611c4a565b60405180910390a150565b6033546001600160a01b031690565b609a546001600160a01b031690565b6001600160a01b038083166000908152609c6020526040902054839116610a485760405162461bcd60e51b81526004016102dc90611b98565b81620f42408162ffffff161115610a715760405162461bcd60e51b81526004016102dc90611a8f565b610a79611308565b6001600160a01b0316610a8a6109f1565b6001600160a01b031614610ace576040805162461bcd60e51b8152602060048201526006602482015265534f5f434e4f60d01b604482015290519081900360640190fd5b6001600160a01b0384166000908152609e602052604090819020805462ffffff191662ffffff8616179055517f8129297a1a8d252870739804c1d9cdbc86121230ce172c23ec11a940ccab01ef9061064790869086906119c0565b6001600160a01b038082166000908152609c60205260408120549091839116610b645760405162461bcd60e51b81526004016102dc90611b98565b50506001600160a01b039081166000908152609c60205260409020541690565b6034546001600160a01b0316610bc9576040805162461bcd60e51b81526020600482015260056024820152640534f5f43360dc1b604482015290519081900360640190fd5b610bd1611308565b6034546001600160a01b03908116911614610c1c576040805162461bcd60e51b8152602060048201526006602482015265534f5f434e4360d01b604482015290519081900360640190fd5b6034546033546040516001600160a01b0392831692909116907f8be0079c531659141344cd1fd0a4f28419497f9722a3daafe3b4186f6b6457e090600090a360348054603380546001600160a01b03199081166001600160a01b03841617909155169055565b6067546001600160a01b031690565b6000610c9b611308565b6001600160a01b0316610cac6109f1565b6001600160a01b031614610cf0576040805162461bcd60e51b8152602060048201526006602482015265534f5f434e4f60d01b604482015290519081900360640190fd5b6001600160a01b038381166000908152609c60205260409020541615610d285760405162461bcd60e51b81526004016102dc90611ace565b826001600160a01b031663313ce5676040518163ffffffff1660e01b815260040160206040518083038186803b158015610d6157600080fd5b505afa158015610d75573d6000803e3d6000fd5b505050506040513d601f19601f82011682018060405250810190610d999190611968565b60ff16601214610dbb5760405162461bcd60e51b81526004016102dc90611bb8565b6067546040516370a0823160e01b8152600019916001600160a01b03808716926370a0823192610def921690600401611984565b60206040518083038186803b158015610e0757600080fd5b505afa158015610e1b573d6000803e3d6000fd5b505050506040513d601f19601f82011682018060405250810190610e3f9190611934565b14610e5c5760405162461bcd60e51b81526004016102dc90611a2b565b609b54604080516318160ddd60e01b81529051600019926001600160a01b0316916318160ddd916004808301926020929190829003018186803b158015610ea257600080fd5b505afa158015610eb6573d6000803e3d6000fd5b505050506040513d601f19601f82011682018060405250810190610eda9190611934565b14610ef75760405162461bcd60e51b81526004016102dc90611b53565b609b546001600160a01b0390811690841610610f255760405162461bcd60e51b81526004016102dc90611bda565b609a54609b54600091610f46916001600160a01b03918216911686866113cd565b90506001600160a01b038116610f6e5760405162461bcd60e51b81526004016102dc90611a0b565b610f778161146d565b6001600160a01b0316610f9c5760405162461bcd60e51b81526004016102dc90611aae565b6067546040516304fec10960e11b81526001600160a01b03868116926309fd821292610fce9290911690600401611984565b60206040518083038186803b158015610fe657600080fd5b505afa158015610ffa573d6000803e3d6000fd5b505050506040513d601f19601f8201168201806040525081019061101e9190611888565b61103a5760405162461bcd60e51b81526004016102dc90611b31565b6040516304fec10960e11b81526001600160a01b038516906309fd821290611066908490600401611984565b60206040518083038186803b15801561107e57600080fd5b505afa158015611092573d6000803e3d6000fd5b505050506040513d601f19601f820116820180604052508101906110b69190611888565b6110d25760405162461bcd60e51b81526004016102dc90611aed565b609b546067546040516304fec10960e11b81526001600160a01b03928316926309fd82129261110692911690600401611984565b60206040518083038186803b15801561111e57600080fd5b505afa158015611132573d6000803e3d6000fd5b505050506040513d601f19601f820116820180604052508101906111569190611888565b6111725760405162461bcd60e51b81526004016102dc90611b75565b609b546040516304fec10960e11b81526001600160a01b03909116906309fd8212906111a2908490600401611984565b60206040518083038186803b1580156111ba57600080fd5b505afa1580156111ce573d6000803e3d6000fd5b505050506040513d601f19601f820116820180604052508101906111f29190611888565b61120e5760405162461bcd60e51b81526004016102dc906119e9565b6001600160a01b038085166000818152609c6020908152604080832080549587166001600160a01b031990961686179055609f8252808320805462ffffff8a1662ffffff199182168117909255609e90935281842080549093168117909255519092917f8b17db32f8ec22477a8f9475d5b92052ef2ce8c6c73ad79be1eb297a8fdd2ff191a49392505050565b609b54600160a01b900460ff1690565b6001600160a01b038082166000908152609c602052604081205490918391166112e65760405162461bcd60e51b81526004016102dc90611b98565b50506001600160a01b03166000908152609e602052604090205462ffffff1690565b3390565b3b151590565b600061131d3061130c565b15905090565b600054610100900460ff168061133c575061133c611312565b8061134a575060005460ff16155b6113855760405162461bcd60e51b815260040180806020018281038252602e815260200180611c7d602e913960400191505060405180910390fd5b600054610100900460ff161580156113b0576000805460ff1961ff0019909116610100171660011790555b6113b86114ed565b80156113ca576000805461ff00191690555b50565b6000806113db8585856115ee565b80516020820151604051630b4c774160e11b81529293506001600160a01b03891692631698ee82926114139290918890600401611998565b60206040518083038186803b15801561142b57600080fd5b505afa15801561143f573d6000803e3d6000fd5b505050506040513d601f19601f820116820180604052508101906114639190611800565b9695505050505050565b6000816001600160a01b0316633850c7bd6040518163ffffffff1660e01b815260040160e06040518083038186803b1580156114a857600080fd5b505afa1580156114bc573d6000803e3d6000fd5b505050506040513d601f19601f820116820180604052508101906114e091906118a2565b5094979650505050505050565b600054610100900460ff16806115065750611506611312565b80611514575060005460ff16155b61154f5760405162461bcd60e51b815260040180806020018281038252602e815260200180611c7d602e913960400191505060405180910390fd5b600054610100900460ff1615801561157a576000805460ff1961ff0019909116610100171660011790555b611582611644565b600061158c611308565b603380546001600160a01b0319166001600160a01b038316908117909155604051919250906000907f8be0079c531659141344cd1fd0a4f28419497f9722a3daafe3b4186f6b6457e0908290a35080156113ca576000805461ff001916905550565b6115f661179b565b826001600160a01b0316846001600160a01b03161115611614579192915b50604080516060810182526001600160a01b03948516815292909316602083015262ffffff169181019190915290565b600054610100900460ff168061165d575061165d611312565b8061166b575060005460ff16155b6116a65760405162461bcd60e51b815260040180806020018281038252602e815260200180611c7d602e913960400191505060405180910390fd5b600054610100900460ff161580156116d1576000805460ff1961ff0019909116610100171660011790555b6113b8600054610100900460ff16806116ed57506116ed611312565b806116fb575060005460ff16155b6117365760405162461bcd60e51b815260040180806020018281038252602e815260200180611c7d602e913960400191505060405180910390fd5b600054610100900460ff161580156113b8576000805460ff1961ff00199091166101001716600117905580156113ca576000805461ff001916905550565b60408051608081018252600080825260208201819052918101829052606081019190915290565b604080516060810182526000808252602082018190529181019190915290565b805180151581146103cf57600080fd5b805161ffff811681146103cf57600080fd5b6000602082840312156117ee578081fd5b81356117f981611c58565b9392505050565b600060208284031215611811578081fd5b81516117f981611c58565b6000806040838503121561182e578081fd5b823561183981611c58565b9150602083013561184981611c58565b809150509250929050565b60008060408385031215611866578182fd5b823561187181611c58565b9150602083013562ffffff81168114611849578182fd5b600060208284031215611899578081fd5b6117f9826117bb565b600080600080600080600060e0888a0312156118bc578283fd5b87516118c781611c58565b8097505060208801518060020b81146118de578384fd5b95506118ec604089016117cb565b94506118fa606089016117cb565b9350611908608089016117cb565b925060a088015161191881611c6d565b915061192660c089016117bb565b905092959891949750929550565b600060208284031215611945578081fd5b5051919050565b60006020828403121561195d578081fd5b81356117f981611c6d565b600060208284031215611979578081fd5b81516117f981611c6d565b6001600160a01b0391909116815260200190565b6001600160a01b03938416815291909216602082015262ffffff909116604082015260600190565b6001600160a01b0392909216825262ffffff16602082015260400190565b901515815260200190565b602080825260089082015267135497d4139455d360c21b604082015260600190565b60208082526006908201526504d525f4e45560d41b604082015260600190565b6020808252600890820152674d525f4348424e4560c01b604082015260600190565b6020808252600790820152664d525f51544e4360c81b604082015260600190565b6020808252600790820152664d525f55464e4360c81b604082015260600190565b6020808252600590820152644d525f524f60d81b604082015260600190565b6020808252600690820152654d525f504e4960d01b604082015260600190565b60208082526005908201526404d525f45560dc1b604082015260600190565b602080825260089082015267135497d4139095d360c21b604082015260600190565b6020808252600890820152674348445f43484e4360c01b604082015260600190565b602080825260089082015267135497d0d39095d360c21b604082015260600190565b6020808252600890820152674d525f5154534e4560c01b604082015260600190565b602080825260099082015268135497d0d2139455d360ba1b604082015260600190565b6020808252600690820152654d525f504e4560d01b604082015260600190565b60208082526008908201526709aa4be84889c62760c31b604082015260600190565b60208082526005908201526426a92fa4a160d91b604082015260600190565b81516001600160a01b0316815260208083015162ffffff90811691830191909152604080840151821690830152606092830151169181019190915260800190565b62ffffff91909116815260200190565b60ff91909116815260200190565b6001600160a01b03811681146113ca57600080fd5b60ff811681146113ca57600080fdfe496e697469616c697a61626c653a20636f6e747261637420697320616c726561647920696e697469616c697a6564a264697066735822122036bfb105629e0802da0d16f6225302806562caff4e1ea45b12f50f7bb4262cfb64736f6c63430007060033",
  "linkReferences": {},
  "deployedLinkReferences": {}
}