{
  "_format": "hh-sol-artifact-1",
  "contractName": "PerpV2ClearingHouseConfig",
  "sourceName": "contracts/ClearingHouseConfig.sol",
  "abi": [
    {
      "anonymous": false,
      "inputs": [
        {
          "indexed": false,
          "internalType": "uint24",
          "name": "liquidationPenaltyRatio",
          "type": "uint24"
        }
      ],
      "name": "LiquidationPenaltyRatioChanged",
      "type": "event"
    },
    {
      "anonymous": false,
      "inputs": [
        {
          "indexed": false,
          "internalType": "uint8",
          "name": "maxMarketsPerAccount",
          "type": "uint8"
        }
      ],
      "name": "MaxMarketsPerAccountChanged",
      "type": "event"
    },
    {
      "anonymous": false,
      "inputs": [
        {
          "indexed": true,
          "internalType": "address",
          "name": "previousOwner",
          "type": "address"
        },
        {
          "indexed": true,
          "internalType": "address",
          "name": "newOwner",
          "type": "address"
        }
      ],
      "name": "OwnershipTransferred",
      "type": "event"
    },
    {
      "anonymous": false,
      "inputs": [
        {
          "indexed": false,
          "internalType": "uint24",
          "name": "partialCloseRatio",
          "type": "uint24"
        }
      ],
      "name": "PartialCloseRatioChanged",
      "type": "event"
    },
    {
      "anonymous": false,
      "inputs": [
        {
          "indexed": false,
          "internalType": "uint256",
          "name": "twapInterval",
          "type": "uint256"
        }
      ],
      "name": "TwapIntervalChanged",
      "type": "event"
    },
    {
      "inputs": [],
      "name": "candidate",
      "outputs": [
        {
          "internalType": "address",
          "name": "",
          "type": "address"
        }
      ],
      "stateMutability": "view",
      "type": "function"
    },
    {
      "inputs": [],
      "name": "imRatio",
      "outputs": [
        {
          "internalType": "uint24",
          "name": "",
          "type": "uint24"
        }
      ],
      "stateMutability": "view",
      "type": "function"
    },
    {
      "inputs": [],
      "name": "initialize",
      "outputs": [],
      "stateMutability": "nonpayable",
      "type": "function"
    },
    {
      "inputs": [],
      "name": "liquidationPenaltyRatio",
      "outputs": [
        {
          "internalType": "uint24",
          "name": "",
          "type": "uint24"
        }
      ],
      "stateMutability": "view",
      "type": "function"
    },
    {
      "inputs": [],
      "name": "maxMarketsPerAccount",
      "outputs": [
        {
          "internalType": "uint8",
          "name": "",
          "type": "uint8"
        }
      ],
      "stateMutability": "view",
      "type": "function"
    },
    {
      "inputs": [],
      "name": "mmRatio",
      "outputs": [
        {
          "internalType": "uint24",
          "name": "",
          "type": "uint24"
        }
      ],
      "stateMutability": "view",
      "type": "function"
    },
    {
      "inputs": [],
      "name": "owner",
      "outputs": [
        {
          "internalType": "address",
          "name": "",
          "type": "address"
        }
      ],
      "stateMutability": "view",
      "type": "function"
    },
    {
      "inputs": [],
      "name": "partialCloseRatio",
      "outputs": [
        {
          "internalType": "uint24",
          "name": "",
          "type": "uint24"
        }
      ],
      "stateMutability": "view",
      "type": "function"
    },
    {
      "inputs": [],
      "name": "renounceOwnership",
      "outputs": [],
      "stateMutability": "nonpayable",
      "type": "function"
    },
    {
      "inputs": [
        {
          "internalType": "uint24",
          "name": "liquidationPenaltyRatioArg",
          "type": "uint24"
        }
      ],
      "name": "setLiquidationPenaltyRatio",
      "outputs": [],
      "stateMutability": "nonpayable",
      "type": "function"
    },
    {
      "inputs": [
        {
          "internalType": "uint8",
          "name": "maxMarketsPerAccountArg",
          "type": "uint8"
        }
      ],
      "name": "setMaxMarketsPerAccount",
      "outputs": [],
      "stateMutability": "nonpayable",
      "type": "function"
    },
    {
      "inputs": [
        {
          "internalType": "address",
          "name": "newOwner",
          "type": "address"
        }
      ],
      "name": "setOwner",
      "outputs": [],
      "stateMutability": "nonpayable",
      "type": "function"
    },
    {
      "inputs": [
        {
          "internalType": "uint24",
          "name": "partialCloseRatioArg",
          "type": "uint24"
        }
      ],
      "name": "setPartialCloseRatio",
      "outputs": [],
      "stateMutability": "nonpayable",
      "type": "function"
    },
    {
      "inputs": [
        {
          "internalType": "uint32",
          "name": "twapIntervalArg",
          "type": "uint32"
        }
      ],
      "name": "setTwapInterval",
      "outputs": [],
      "stateMutability": "nonpayable",
      "type": "function"
    },
    {
      "inputs": [],
      "name": "twapInterval",
      "outputs": [
        {
          "internalType": "uint32",
          "name": "",
          "type": "uint32"
        }
      ],
      "stateMutability": "view",
      "type": "function"
    },
    {
      "inputs": [],
      "name": "updateOwner",
      "outputs": [],
      "stateMutability": "nonpayable",
      "type": "function"
    }
  ],
  "bytecode": "0x608060405234801561001057600080fd5b50610d58806100206000396000f3fe608060405234801561001057600080fd5b50600436106100d05760003560e01c8063050a0ba3146100d557806313af4035146100f95780631d27050f1461011f5780632f60a151146101425780633c1d5df0146101625780633fa7ffc7146101835780636c8381f81461018b578063715018a6146101af57806373f62501146101b75780637bce35ae146101d75780638129fc1c146101f95780638da5cb5b146102015780639f044f3114610209578063bc5920ba14610211578063d0144c6c14610219578063f652b52714610221575b600080fd5b6100f7600480360360208110156100eb57600080fd5b503562ffffff1661023f565b005b6100f76004803603602081101561010f57600080fd5b50356001600160a01b031661033c565b6100f76004803603602081101561013557600080fd5b503563ffffffff16610497565b61014a610590565b6040805162ffffff9092168252519081900360200190f35b61016a6105a0565b6040805163ffffffff9092168252519081900360200190f35b61014a6105b3565b6101936105c5565b604080516001600160a01b039092168252519081900360200190f35b6100f76105d4565b6100f7600480360360208110156101cd57600080fd5b503560ff16610675565b6100f7600480360360208110156101ed57600080fd5b503562ffffff1661071a565b6100f761085c565b610193610959565b61014a610968565b6100f761097a565b61014a610a66565b610229610a78565b6040805160ff9092168252519081900360200190f35b80620f42408162ffffff161115610286576040805162461bcd60e51b81526020600482015260066024820152654348435f524f60d01b604482015290519081900360640190fd5b61028e610a81565b6001600160a01b031661029f610959565b6001600160a01b0316146102e3576040805162461bcd60e51b8152602060048201526006602482015265534f5f434e4f60d01b604482015290519081900360640190fd5b6067805462ffffff8416600160381b810262ffffff60381b199092169190911790915560408051918252517ff95b3e2798060899824a0bebdd89ff5df3d51c51c5d30f5184bd30d7a6b017089181900360200190a15050565b610344610a81565b6001600160a01b0316610355610959565b6001600160a01b031614610399576040805162461bcd60e51b8152602060048201526006602482015265534f5f434e4f60d01b604482015290519081900360640190fd5b6001600160a01b0381166103dd576040805162461bcd60e51b81526020600482015260066024820152650534f5f4e57360d41b604482015290519081900360640190fd5b6033546001600160a01b0382811691161415610429576040805162461bcd60e51b8152602060048201526006602482015265534f5f53414f60d01b604482015290519081900360640190fd5b6034546001600160a01b0382811691161415610475576040805162461bcd60e51b8152602060048201526006602482015265534f5f53414360d01b604482015290519081900360640190fd5b603480546001600160a01b0319166001600160a01b0392909216919091179055565b61049f610a81565b6001600160a01b03166104b0610959565b6001600160a01b0316146104f4576040805162461bcd60e51b8152602060048201526006602482015265534f5f434e4f60d01b604482015290519081900360640190fd5b63ffffffff8116610536576040805162461bcd60e51b81526020600482015260076024820152664348435f49544960c81b604482015290519081900360640190fd5b6067805463ffffffff8316600160681b810263ffffffff60681b199092169190911790915560408051918252517f0bd5e02c0d6277fdf7c7c72fae10042c4c832b26ea94623a04b79a50a35a217e9181900360200190a150565b606754610100900462ffffff1681565b606754600160681b900463ffffffff1681565b606754600160501b900462ffffff1681565b6034546001600160a01b031690565b6105dc610a81565b6001600160a01b03166105ed610959565b6001600160a01b031614610631576040805162461bcd60e51b8152602060048201526006602482015265534f5f434e4f60d01b604482015290519081900360640190fd5b6033546040516000916001600160a01b031690600080516020610d03833981519152908390a3603380546001600160a01b0319908116909155603480549091169055565b61067d610a81565b6001600160a01b031661068e610959565b6001600160a01b0316146106d2576040805162461bcd60e51b8152602060048201526006602482015265534f5f434e4f60d01b604482015290519081900360640190fd5b6067805460ff831660ff19909116811790915560408051918252517fa7b4760b38e2a630f3073fcd5119972cbf81bd50e3761f86534a69661caf81109181900360200190a150565b80620f42408162ffffff161115610761576040805162461bcd60e51b81526020600482015260066024820152654348435f524f60d01b604482015290519081900360640190fd5b610769610a81565b6001600160a01b031661077a610959565b6001600160a01b0316146107be576040805162461bcd60e51b8152602060048201526006602482015265534f5f434e4f60d01b604482015290519081900360640190fd5b60008262ffffff1611610803576040805162461bcd60e51b815260206004820152600860248201526721a421afa4a821a960c11b604482015290519081900360640190fd5b6067805462ffffff8416600160501b810262ffffff60501b199092169190911790915560408051918252517f4757c16c46bedf5171cc1e2c53c99225da1bff2c0a5cb51b0f852909dbae1ebd9181900360200190a15050565b600054610100900460ff16806108755750610875610a85565b80610883575060005460ff16155b6108be5760405162461bcd60e51b815260040180806020018281038252602e815260200180610cd5602e913960400191505060405180910390fd5b600054610100900460ff161580156108e9576000805460ff1961ff0019909116610100171660011790555b6108f1610a96565b6067805463ffffff001916630186a0001762ffffff60201b1916613d0960221b1762ffffff60381b1916610c35603b1b1762ffffff60501b1916613d0960541b1763ffffffff60681b191660e1606a1b1790558015610956576000805461ff00191690555b50565b6033546001600160a01b031690565b606754600160201b900462ffffff1681565b6034546001600160a01b03166109bf576040805162461bcd60e51b81526020600482015260056024820152640534f5f43360dc1b604482015290519081900360640190fd5b6109c7610a81565b6034546001600160a01b03908116911614610a12576040805162461bcd60e51b8152602060048201526006602482015265534f5f434e4360d01b604482015290519081900360640190fd5b6034546033546040516001600160a01b039283169290911690600080516020610d0383398151915290600090a360348054603380546001600160a01b03199081166001600160a01b03841617909155169055565b606754600160381b900462ffffff1681565b60675460ff1681565b3390565b6000610a9030610b85565b15905090565b600054610100900460ff1680610aaf5750610aaf610a85565b80610abd575060005460ff16155b610af85760405162461bcd60e51b815260040180806020018281038252602e815260200180610cd5602e913960400191505060405180910390fd5b600054610100900460ff16158015610b23576000805460ff1961ff0019909116610100171660011790555b610b2b610b8b565b6000610b35610a81565b603380546001600160a01b0319166001600160a01b03831690811790915560405191925090600090600080516020610d03833981519152908290a3508015610956576000805461ff001916905550565b3b151590565b600054610100900460ff1680610ba45750610ba4610a85565b80610bb2575060005460ff16155b610bed5760405162461bcd60e51b815260040180806020018281038252602e815260200180610cd5602e913960400191505060405180910390fd5b600054610100900460ff16158015610c18576000805460ff1961ff0019909116610100171660011790555b610c20610c34565b8015610956576000805461ff001916905550565b600054610100900460ff1680610c4d5750610c4d610a85565b80610c5b575060005460ff16155b610c965760405162461bcd60e51b815260040180806020018281038252602e815260200180610cd5602e913960400191505060405180910390fd5b600054610100900460ff16158015610c20576000805460ff1961ff0019909116610100171660011790558015610956576000805461ff00191690555056fe496e697469616c697a61626c653a20636f6e747261637420697320616c726561647920696e697469616c697a65648be0079c531659141344cd1fd0a4f28419497f9722a3daafe3b4186f6b6457e0a264697066735822122055882c19308d40b97b732e7958992d11c59bf5d54ba495b04d78dc9be82aa0e864736f6c63430007060033",
  "linkReferences": {},
  "deployedLinkReferences": {}
}