{
  "_format": "hh-sol-artifact-1",
  "contractName": "PerpV2BaseToken",
  "sourceName": "contracts/BaseToken.sol",
  "abi": [
    {
      "anonymous": false,
      "inputs": [
        {
          "indexed": true,
          "internalType": "address",
          "name": "owner",
          "type": "address"
        },
        {
          "indexed": true,
          "internalType": "address",
          "name": "spender",
          "type": "address"
        },
        {
          "indexed": false,
          "internalType": "uint256",
          "name": "value",
          "type": "uint256"
        }
      ],
      "name": "Approval",
      "type": "event"
    },
    {
      "anonymous": false,
      "inputs": [
        {
          "indexed": true,
          "internalType": "address",
          "name": "previousOwner",
          "type": "address"
        },
        {
          "indexed": true,
          "internalType": "address",
          "name": "newOwner",
          "type": "address"
        }
      ],
      "name": "OwnershipTransferred",
      "type": "event"
    },
    {
      "anonymous": false,
      "inputs": [
        {
          "indexed": true,
          "internalType": "address",
          "name": "from",
          "type": "address"
        },
        {
          "indexed": true,
          "internalType": "address",
          "name": "to",
          "type": "address"
        },
        {
          "indexed": false,
          "internalType": "uint256",
          "name": "value",
          "type": "uint256"
        }
      ],
      "name": "Transfer",
      "type": "event"
    },
    {
      "anonymous": false,
      "inputs": [
        {
          "indexed": false,
          "internalType": "address",
          "name": "account",
          "type": "address"
        }
      ],
      "name": "WhitelistAdded",
      "type": "event"
    },
    {
      "anonymous": false,
      "inputs": [
        {
          "indexed": false,
          "internalType": "address",
          "name": "account",
          "type": "address"
        }
      ],
      "name": "WhitelistRemoved",
      "type": "event"
    },
    {
      "inputs": [
        {
          "internalType": "address",
          "name": "account",
          "type": "address"
        }
      ],
      "name": "addWhitelist",
      "outputs": [],
      "stateMutability": "nonpayable",
      "type": "function"
    },
    {
      "inputs": [
        {
          "internalType": "address",
          "name": "owner",
          "type": "address"
        },
        {
          "internalType": "address",
          "name": "spender",
          "type": "address"
        }
      ],
      "name": "allowance",
      "outputs": [
        {
          "internalType": "uint256",
          "name": "",
          "type": "uint256"
        }
      ],
      "stateMutability": "view",
      "type": "function"
    },
    {
      "inputs": [
        {
          "internalType": "address",
          "name": "spender",
          "type": "address"
        },
        {
          "internalType": "uint256",
          "name": "amount",
          "type": "uint256"
        }
      ],
      "name": "approve",
      "outputs": [
        {
          "internalType": "bool",
          "name": "",
          "type": "bool"
        }
      ],
      "stateMutability": "nonpayable",
      "type": "function"
    },
    {
      "inputs": [
        {
          "internalType": "address",
          "name": "account",
          "type": "address"
        }
      ],
      "name": "balanceOf",
      "outputs": [
        {
          "internalType": "uint256",
          "name": "",
          "type": "uint256"
        }
      ],
      "stateMutability": "view",
      "type": "function"
    },
    {
      "inputs": [],
      "name": "candidate",
      "outputs": [
        {
          "internalType": "address",
          "name": "",
          "type": "address"
        }
      ],
      "stateMutability": "view",
      "type": "function"
    },
    {
      "inputs": [],
      "name": "decimals",
      "outputs": [
        {
          "internalType": "uint8",
          "name": "",
          "type": "uint8"
        }
      ],
      "stateMutability": "view",
      "type": "function"
    },
    {
      "inputs": [
        {
          "internalType": "address",
          "name": "spender",
          "type": "address"
        },
        {
          "internalType": "uint256",
          "name": "subtractedValue",
          "type": "uint256"
        }
      ],
      "name": "decreaseAllowance",
      "outputs": [
        {
          "internalType": "bool",
          "name": "",
          "type": "bool"
        }
      ],
      "stateMutability": "nonpayable",
      "type": "function"
    },
    {
      "inputs": [
        {
          "internalType": "uint256",
          "name": "interval",
          "type": "uint256"
        }
      ],
      "name": "getIndexPrice",
      "outputs": [
        {
          "internalType": "uint256",
          "name": "",
          "type": "uint256"
        }
      ],
      "stateMutability": "view",
      "type": "function"
    },
    {
      "inputs": [],
      "name": "getPriceFeed",
      "outputs": [
        {
          "internalType": "address",
          "name": "",
          "type": "address"
        }
      ],
      "stateMutability": "view",
      "type": "function"
    },
    {
      "inputs": [
        {
          "internalType": "address",
          "name": "spender",
          "type": "address"
        },
        {
          "internalType": "uint256",
          "name": "addedValue",
          "type": "uint256"
        }
      ],
      "name": "increaseAllowance",
      "outputs": [
        {
          "internalType": "bool",
          "name": "",
          "type": "bool"
        }
      ],
      "stateMutability": "nonpayable",
      "type": "function"
    },
    {
      "inputs": [
        {
          "internalType": "string",
          "name": "nameArg",
          "type": "string"
        },
        {
          "internalType": "string",
          "name": "symbolArg",
          "type": "string"
        },
        {
          "internalType": "address",
          "name": "priceFeedArg",
          "type": "address"
        }
      ],
      "name": "initialize",
      "outputs": [],
      "stateMutability": "nonpayable",
      "type": "function"
    },
    {
      "inputs": [
        {
          "internalType": "address",
          "name": "account",
          "type": "address"
        }
      ],
      "name": "isInWhitelist",
      "outputs": [
        {
          "internalType": "bool",
          "name": "",
          "type": "bool"
        }
      ],
      "stateMutability": "view",
      "type": "function"
    },
    {
      "inputs": [
        {
          "internalType": "address",
          "name": "recipient",
          "type": "address"
        }
      ],
      "name": "mintMaximumTo",
      "outputs": [],
      "stateMutability": "nonpayable",
      "type": "function"
    },
    {
      "inputs": [],
      "name": "name",
      "outputs": [
        {
          "internalType": "string",
          "name": "",
          "type": "string"
        }
      ],
      "stateMutability": "view",
      "type": "function"
    },
    {
      "inputs": [],
      "name": "owner",
      "outputs": [
        {
          "internalType": "address",
          "name": "",
          "type": "address"
        }
      ],
      "stateMutability": "view",
      "type": "function"
    },
    {
      "inputs": [
        {
          "internalType": "address",
          "name": "account",
          "type": "address"
        }
      ],
      "name": "removeWhitelist",
      "outputs": [],
      "stateMutability": "nonpayable",
      "type": "function"
    },
    {
      "inputs": [],
      "name": "renounceOwnership",
      "outputs": [],
      "stateMutability": "nonpayable",
      "type": "function"
    },
    {
      "inputs": [
        {
          "internalType": "address",
          "name": "newOwner",
          "type": "address"
        }
      ],
      "name": "setOwner",
      "outputs": [],
      "stateMutability": "nonpayable",
      "type": "function"
    },
    {
      "inputs": [],
      "name": "symbol",
      "outputs": [
        {
          "internalType": "string",
          "name": "",
          "type": "string"
        }
      ],
      "stateMutability": "view",
      "type": "function"
    },
    {
      "inputs": [],
      "name": "totalSupply",
      "outputs": [
        {
          "internalType": "uint256",
          "name": "",
          "type": "uint256"
        }
      ],
      "stateMutability": "view",
      "type": "function"
    },
    {
      "inputs": [
        {
          "internalType": "address",
          "name": "recipient",
          "type": "address"
        },
        {
          "internalType": "uint256",
          "name": "amount",
          "type": "uint256"
        }
      ],
      "name": "transfer",
      "outputs": [
        {
          "internalType": "bool",
          "name": "",
          "type": "bool"
        }
      ],
      "stateMutability": "nonpayable",
      "type": "function"
    },
    {
      "inputs": [
        {
          "internalType": "address",
          "name": "sender",
          "type": "address"
        },
        {
          "internalType": "address",
          "name": "recipient",
          "type": "address"
        },
        {
          "internalType": "uint256",
          "name": "amount",
          "type": "uint256"
        }
      ],
      "name": "transferFrom",
      "outputs": [
        {
          "internalType": "bool",
          "name": "",
          "type": "bool"
        }
      ],
      "stateMutability": "nonpayable",
      "type": "function"
    },
    {
      "inputs": [],
      "name": "updateOwner",
      "outputs": [],
      "stateMutability": "nonpayable",
      "type": "function"
    }
  ],
  "bytecode": "0x608060405234801561001057600080fd5b50611bf8806100206000396000f3fe608060405234801561001057600080fd5b506004361061011d5760003560e01c806306fdde0314610122578063077f224a1461019f578063095ea7b3146102d557806309fd821214610315578063120806471461033b57806313af40351461036a57806318160ddd1461039057806323b872dd14610398578063313ce567146103ce57806339509351146103ec5780636c8381f81461041857806370a082311461043c578063715018a61461046257806378c8cda71461046a5780638da5cb5b1461049057806395d89b41146104985780639e87a5cd146104a0578063a457c2d7146104a8578063a9059cbb146104d4578063bc5920ba14610500578063dd62ed3e14610508578063f52e308e14610536578063f80f5dd51461055c575b600080fd5b61012a610582565b6040805160208082528351818301528351919283929083019185019080838360005b8381101561016457818101518382015260200161014c565b50505050905090810190601f1680156101915780820380516001836020036101000a031916815260200191505b509250505060405180910390f35b6102d3600480360360608110156101b557600080fd5b810190602081018135600160201b8111156101cf57600080fd5b8201836020820111156101e157600080fd5b803590602001918460018302840111600160201b8311171561020257600080fd5b91908080601f0160208091040260200160405190810160405280939291908181526020018383808284376000920191909152509295949360208101935035915050600160201b81111561025457600080fd5b82018360208201111561026657600080fd5b803590602001918460018302840111600160201b8311171561028757600080fd5b91908080601f016020809104026020016040519081016040528093929190818152602001838380828437600092019190915250929550505090356001600160a01b031691506106189050565b005b610301600480360360408110156102eb57600080fd5b506001600160a01b0381351690602001356107aa565b604080519115158252519081900360200190f35b6103016004803603602081101561032b57600080fd5b50356001600160a01b03166107c8565b6103586004803603602081101561035157600080fd5b50356107e6565b60408051918252519081900360200190f35b6102d36004803603602081101561038057600080fd5b50356001600160a01b0316610875565b6103586109d0565b610301600480360360608110156103ae57600080fd5b506001600160a01b038135811691602081013590911690604001356109d6565b6103d6610a5d565b6040805160ff9092168252519081900360200190f35b6103016004803603604081101561040257600080fd5b506001600160a01b038135169060200135610a66565b610420610ab4565b604080516001600160a01b039092168252519081900360200190f35b6103586004803603602081101561045257600080fd5b50356001600160a01b0316610ac3565b6102d3610ade565b6102d36004803603602081101561048057600080fd5b50356001600160a01b0316610b7f565b610420610c78565b61012a610c87565b610420610ce8565b610301600480360360408110156104be57600080fd5b506001600160a01b038135169060200135610cfc565b610301600480360360408110156104ea57600080fd5b506001600160a01b038135169060200135610d64565b6102d3610d78565b6103586004803603604081101561051e57600080fd5b506001600160a01b0381358116916020013516610e64565b6102d36004803603602081101561054c57600080fd5b50356001600160a01b0316610e8f565b6102d36004803603602081101561057257600080fd5b50356001600160a01b0316610efb565b606a8054604080516020601f600260001961010060018816150201909516949094049384018190048102820181019092528281526060939092909183018282801561060e5780601f106105e35761010080835404028352916020019161060e565b820191906000526020600020905b8154815290600101906020018083116105f157829003601f168201915b5050505050905090565b600054610100900460ff16806106315750610631610fb3565b8061063f575060005460ff16155b61067a5760405162461bcd60e51b815260040180806020018281038252602e815260200180611a9e602e913960400191505060405180910390fd5b600054610100900460ff161580156106a5576000805460ff1961ff0019909116610100171660011790555b6106af8484610fc4565b6000826001600160a01b031663313ce5676040518163ffffffff1660e01b815260040160206040518083038186803b1580156106ea57600080fd5b505afa1580156106fe573d6000803e3d6000fd5b505050506040513d602081101561071457600080fd5b50519050610720610a5d565b60ff168160ff161115610764576040805162461bcd60e51b8152602060048201526007602482015266109517d254119160ca1b604482015290519081900360640190fd5b60cc8054610100600160a81b0319166101006001600160a01b038616021760ff191660ff9290921691909117905580156107a4576000805461ff00191690555b50505050565b60006107be6107b761107a565b848461107e565b5060015b92915050565b6001600160a01b031660009081526099602052604090205460ff1690565b60006107c260cc60019054906101000a90046001600160a01b03166001600160a01b031663e7572230846040518263ffffffff1660e01b81526004018082815260200191505060206040518083038186803b15801561084457600080fd5b505afa158015610858573d6000803e3d6000fd5b505050506040513d602081101561086e57600080fd5b505161116a565b61087d61107a565b6001600160a01b031661088e610c78565b6001600160a01b0316146108d2576040805162461bcd60e51b8152602060048201526006602482015265534f5f434e4f60d01b604482015290519081900360640190fd5b6001600160a01b038116610916576040805162461bcd60e51b81526020600482015260066024820152650534f5f4e57360d41b604482015290519081900360640190fd5b6033546001600160a01b0382811691161415610962576040805162461bcd60e51b8152602060048201526006602482015265534f5f53414f60d01b604482015290519081900360640190fd5b6034546001600160a01b03828116911614156109ae576040805162461bcd60e51b8152602060048201526006602482015265534f5f53414360d01b604482015290519081900360640190fd5b603480546001600160a01b0319166001600160a01b0392909216919091179055565b60695490565b60006109e3848484611196565b610a53846109ef61107a565b610a4e85604051806060016040528060288152602001611aed602891396001600160a01b038a16600090815260686020526040812090610a2d61107a565b6001600160a01b0316815260208101919091526040016000205491906112e1565b61107e565b5060019392505050565b606c5460ff1690565b60006107be610a7361107a565b84610a4e8560686000610a8461107a565b6001600160a01b03908116825260208083019390935260409182016000908120918c168152925290205490611378565b6034546001600160a01b031690565b6001600160a01b031660009081526067602052604090205490565b610ae661107a565b6001600160a01b0316610af7610c78565b6001600160a01b031614610b3b576040805162461bcd60e51b8152602060048201526006602482015265534f5f434e4f60d01b604482015290519081900360640190fd5b6033546040516000916001600160a01b031690600080516020611b15833981519152908390a3603380546001600160a01b0319908116909155603480549091169055565b610b8761107a565b6001600160a01b0316610b98610c78565b6001600160a01b031614610bdc576040805162461bcd60e51b8152602060048201526006602482015265534f5f434e4f60d01b604482015290519081900360640190fd5b610be581610ac3565b15610c20576040805162461bcd60e51b81526020600482015260066024820152652b2a2fa1272d60d11b604482015290519081900360640190fd5b6001600160a01b038116600081815260996020908152604091829020805460ff19169055815192835290517fde8cf212af7ce38b2840785a2768d97ff2dbf3c21b516961cec0061e134c2a1e9281900390910190a150565b6033546001600160a01b031690565b606b8054604080516020601f600260001961010060018816150201909516949094049384018190048102820181019092528281526060939092909183018282801561060e5780601f106105e35761010080835404028352916020019161060e565b60cc5461010090046001600160a01b031690565b60006107be610d0961107a565b84610a4e85604051806060016040528060258152602001611b9e6025913960686000610d3361107a565b6001600160a01b03908116825260208083019390935260409182016000908120918d168152925290205491906112e1565b60006107be610d7161107a565b8484611196565b6034546001600160a01b0316610dbd576040805162461bcd60e51b81526020600482015260056024820152640534f5f43360dc1b604482015290519081900360640190fd5b610dc561107a565b6034546001600160a01b03908116911614610e10576040805162461bcd60e51b8152602060048201526006602482015265534f5f434e4360d01b604482015290519081900360640190fd5b6034546033546040516001600160a01b039283169290911690600080516020611b1583398151915290600090a360348054603380546001600160a01b03199081166001600160a01b03841617909155169055565b6001600160a01b03918216600090815260686020908152604080832093909416825291909152205490565b610e9761107a565b6001600160a01b0316610ea8610c78565b6001600160a01b031614610eec576040805162461bcd60e51b8152602060048201526006602482015265534f5f434e4f60d01b604482015290519081900360640190fd5b610ef8816000196113d7565b50565b610f0361107a565b6001600160a01b0316610f14610c78565b6001600160a01b031614610f58576040805162461bcd60e51b8152602060048201526006602482015265534f5f434e4f60d01b604482015290519081900360640190fd5b6001600160a01b038116600081815260996020908152604091829020805460ff19166001179055815192835290517f4790a4adb426ca2345bb5108f6e454eae852a7bf687544cd66a7270dff3a41d69281900390910190a150565b6000610fbe306114b7565b15905090565b600054610100900460ff1680610fdd5750610fdd610fb3565b80610feb575060005460ff16155b6110265760405162461bcd60e51b815260040180806020018281038252602e815260200180611a9e602e913960400191505060405180910390fd5b600054610100900460ff16158015611051576000805460ff1961ff0019909116610100171660011790555b6110596114bd565b61106383836115ac565b8015611075576000805461ff00191690555b505050565b3390565b6001600160a01b0383166110c35760405162461bcd60e51b8152600401808060200182810382526024815260200180611b7a6024913960400191505060405180910390fd5b6001600160a01b0382166111085760405162461bcd60e51b8152600401808060200182810382526022815260200180611a566022913960400191505060405180910390fd5b6001600160a01b03808416600081815260686020908152604080832094871680845294825291829020859055815185815291517f8c5be1e5ebec7d5bd14f71427d1e84f3dd0314c0f7b2291e5b200ac8c7c3b9259281900390910190a3505050565b60cc546000906107c29061118c9060ff16611183610a5d565b60ff169061164b565b8390600a0a6116a8565b6001600160a01b0383166111db5760405162461bcd60e51b8152600401808060200182810382526025815260200180611b556025913960400191505060405180910390fd5b6001600160a01b0382166112205760405162461bcd60e51b8152600401808060200182810382526023815260200180611a336023913960400191505060405180910390fd5b61122b838383611701565b61126881604051806060016040528060268152602001611a78602691396001600160a01b03861660009081526067602052604090205491906112e1565b6001600160a01b0380851660009081526067602052604080822093909355908416815220546112979082611378565b6001600160a01b038084166000818152606760209081526040918290209490945580518581529051919392871692600080516020611b3583398151915292918290030190a3505050565b600081848411156113705760405162461bcd60e51b81526004018080602001828103825283818151815260200191508051906020019080838360005b8381101561133557818101518382015260200161131d565b50505050905090810190601f1680156113625780820380516001836020036101000a031916815260200191505b509250505060405180910390fd5b505050900390565b6000828201838110156113d0576040805162461bcd60e51b815260206004820152601b60248201527a536166654d6174683a206164646974696f6e206f766572666c6f7760281b604482015290519081900360640190fd5b9392505050565b6001600160a01b038216611432576040805162461bcd60e51b815260206004820152601f60248201527f45524332303a206d696e7420746f20746865207a65726f206164647265737300604482015290519081900360640190fd5b61143e60008383611701565b60695461144b9082611378565b6069556001600160a01b0382166000908152606760205260409020546114719082611378565b6001600160a01b0383166000818152606760209081526040808320949094558351858152935192939192600080516020611b358339815191529281900390910190a35050565b3b151590565b600054610100900460ff16806114d657506114d6610fb3565b806114e4575060005460ff16155b61151f5760405162461bcd60e51b815260040180806020018281038252602e815260200180611a9e602e913960400191505060405180910390fd5b600054610100900460ff1615801561154a576000805460ff1961ff0019909116610100171660011790555b611552611770565b600061155c61107a565b603380546001600160a01b0319166001600160a01b03831690811790915560405191925090600090600080516020611b15833981519152908290a3508015610ef8576000805461ff001916905550565b600054610100900460ff16806115c557506115c5610fb3565b806115d3575060005460ff16155b61160e5760405162461bcd60e51b815260040180806020018281038252602e815260200180611a9e602e913960400191505060405180910390fd5b600054610100900460ff16158015611639576000805460ff1961ff0019909116610100171660011790555b611641611819565b61106383836118b9565b6000828211156116a2576040805162461bcd60e51b815260206004820152601e60248201527f536166654d6174683a207375627472616374696f6e206f766572666c6f770000604482015290519081900360640190fd5b50900390565b6000826116b7575060006107c2565b828202828482816116c457fe5b04146113d05760405162461bcd60e51b8152600401808060200182810382526021815260200180611acc6021913960400191505060405180910390fd5b61170c838383611075565b6001600160a01b03831615611075576001600160a01b03831660009081526099602052604090205460ff16611075576040805162461bcd60e51b815260206004820152600560248201526456545f4e5760d81b604482015290519081900360640190fd5b600054610100900460ff16806117895750611789610fb3565b80611797575060005460ff16155b6117d25760405162461bcd60e51b815260040180806020018281038252602e815260200180611a9e602e913960400191505060405180910390fd5b600054610100900460ff161580156117fd576000805460ff1961ff0019909116610100171660011790555b611805611819565b8015610ef8576000805461ff001916905550565b600054610100900460ff16806118325750611832610fb3565b80611840575060005460ff16155b61187b5760405162461bcd60e51b815260040180806020018281038252602e815260200180611a9e602e913960400191505060405180910390fd5b600054610100900460ff16158015611805576000805460ff1961ff0019909116610100171660011790558015610ef8576000805461ff001916905550565b600054610100900460ff16806118d257506118d2610fb3565b806118e0575060005460ff16155b61191b5760405162461bcd60e51b815260040180806020018281038252602e815260200180611a9e602e913960400191505060405180910390fd5b600054610100900460ff16158015611946576000805460ff1961ff0019909116610100171660011790555b825161195990606a906020860190611991565b50815161196d90606b906020850190611991565b50606c805460ff191660121790558015611075576000805461ff0019169055505050565b828054600181600116156101000203166002900490600052602060002090601f0160209004810192826119c75760008555611a0d565b82601f106119e057805160ff1916838001178555611a0d565b82800160010185558215611a0d579182015b82811115611a0d5782518255916020019190600101906119f2565b50611a19929150611a1d565b5090565b5b80821115611a195760008155600101611a1e56fe45524332303a207472616e7366657220746f20746865207a65726f206164647265737345524332303a20617070726f766520746f20746865207a65726f206164647265737345524332303a207472616e7366657220616d6f756e7420657863656564732062616c616e6365496e697469616c697a61626c653a20636f6e747261637420697320616c726561647920696e697469616c697a6564536166654d6174683a206d756c7469706c69636174696f6e206f766572666c6f7745524332303a207472616e7366657220616d6f756e74206578636565647320616c6c6f77616e63658be0079c531659141344cd1fd0a4f28419497f9722a3daafe3b4186f6b6457e0ddf252ad1be2c89b69c2b068fc378daa952ba7f163c4a11628f55a4df523b3ef45524332303a207472616e736665722066726f6d20746865207a65726f206164647265737345524332303a20617070726f76652066726f6d20746865207a65726f206164647265737345524332303a2064656372656173656420616c6c6f77616e63652062656c6f77207a65726fa264697066735822122050846ee68f18177cdbbe2ceb48d3327c3b91aca31ce10f3782f4fb5aa4ff930764736f6c63430007060033",
  "linkReferences": {},
  "deployedLinkReferences": {}
}