{
  "_format": "hh-sol-artifact-1",
  "contractName": "PerpV2Exchange",
  "sourceName": "contracts/Exchange.sol",
  "abi": [
    {
      "anonymous": false,
      "inputs": [
        {
          "indexed": false,
          "internalType": "address",
          "name": "accountBalance",
          "type": "address"
        }
      ],
      "name": "AccountBalanceChanged",
      "type": "event"
    },
    {
      "anonymous": false,
      "inputs": [
        {
          "indexed": true,
          "internalType": "address",
          "name": "clearingHouse",
          "type": "address"
        }
      ],
      "name": "ClearingHouseChanged",
      "type": "event"
    },
    {
      "anonymous": false,
      "inputs": [
        {
          "indexed": true,
          "internalType": "address",
          "name": "trader",
          "type": "address"
        },
        {
          "indexed": true,
          "internalType": "address",
          "name": "baseToken",
          "type": "address"
        },
        {
          "indexed": false,
          "internalType": "int256",
          "name": "fundingPayment",
          "type": "int256"
        }
      ],
      "name": "FundingPaymentSettled",
      "type": "event"
    },
    {
      "anonymous": false,
      "inputs": [
        {
          "indexed": true,
          "internalType": "address",
          "name": "baseToken",
          "type": "address"
        },
        {
          "indexed": false,
          "internalType": "uint256",
          "name": "markTwap",
          "type": "uint256"
        },
        {
          "indexed": false,
          "internalType": "uint256",
          "name": "indexTwap",
          "type": "uint256"
        }
      ],
      "name": "FundingUpdated",
      "type": "event"
    },
    {
      "anonymous": false,
      "inputs": [
        {
          "indexed": true,
          "internalType": "address",
          "name": "baseToken",
          "type": "address"
        },
        {
          "indexed": false,
          "internalType": "uint24",
          "name": "maxTickCrossedWithinBlock",
          "type": "uint24"
        }
      ],
      "name": "MaxTickCrossedWithinBlockChanged",
      "type": "event"
    },
    {
      "anonymous": false,
      "inputs": [
        {
          "indexed": true,
          "internalType": "address",
          "name": "previousOwner",
          "type": "address"
        },
        {
          "indexed": true,
          "internalType": "address",
          "name": "newOwner",
          "type": "address"
        }
      ],
      "name": "OwnershipTransferred",
      "type": "event"
    },
    {
      "inputs": [],
      "name": "candidate",
      "outputs": [
        {
          "internalType": "address",
          "name": "",
          "type": "address"
        }
      ],
      "stateMutability": "view",
      "type": "function"
    },
    {
      "inputs": [],
      "name": "getAccountBalance",
      "outputs": [
        {
          "internalType": "address",
          "name": "",
          "type": "address"
        }
      ],
      "stateMutability": "view",
      "type": "function"
    },
    {
      "inputs": [
        {
          "internalType": "address",
          "name": "trader",
          "type": "address"
        }
      ],
      "name": "getAllPendingFundingPayment",
      "outputs": [
        {
          "internalType": "int256",
          "name": "pendingFundingPayment",
          "type": "int256"
        }
      ],
      "stateMutability": "view",
      "type": "function"
    },
    {
      "inputs": [],
      "name": "getClearingHouse",
      "outputs": [
        {
          "internalType": "address",
          "name": "",
          "type": "address"
        }
      ],
      "stateMutability": "view",
      "type": "function"
    },
    {
      "inputs": [],
      "name": "getClearingHouseConfig",
      "outputs": [
        {
          "internalType": "address",
          "name": "",
          "type": "address"
        }
      ],
      "stateMutability": "view",
      "type": "function"
    },
    {
      "inputs": [
        {
          "internalType": "address",
          "name": "baseToken",
          "type": "address"
        }
      ],
      "name": "getFundingGrowthGlobalAndTwaps",
      "outputs": [
        {
          "components": [
            {
              "internalType": "int256",
              "name": "twPremiumX96",
              "type": "int256"
            },
            {
              "internalType": "int256",
              "name": "twPremiumDivBySqrtPriceX96",
              "type": "int256"
            }
          ],
          "internalType": "struct Funding.Growth",
          "name": "fundingGrowthGlobal",
          "type": "tuple"
        },
        {
          "internalType": "uint256",
          "name": "markTwap",
          "type": "uint256"
        },
        {
          "internalType": "uint256",
          "name": "indexTwap",
          "type": "uint256"
        }
      ],
      "stateMutability": "view",
      "type": "function"
    },
    {
      "inputs": [],
      "name": "getInsuranceFund",
      "outputs": [
        {
          "internalType": "address",
          "name": "",
          "type": "address"
        }
      ],
      "stateMutability": "view",
      "type": "function"
    },
    {
      "inputs": [],
      "name": "getMarketRegistry",
      "outputs": [
        {
          "internalType": "address",
          "name": "",
          "type": "address"
        }
      ],
      "stateMutability": "view",
      "type": "function"
    },
    {
      "inputs": [
        {
          "internalType": "address",
          "name": "baseToken",
          "type": "address"
        }
      ],
      "name": "getMaxTickCrossedWithinBlock",
      "outputs": [
        {
          "internalType": "uint24",
          "name": "",
          "type": "uint24"
        }
      ],
      "stateMutability": "view",
      "type": "function"
    },
    {
      "inputs": [],
      "name": "getOrderBook",
      "outputs": [
        {
          "internalType": "address",
          "name": "",
          "type": "address"
        }
      ],
      "stateMutability": "view",
      "type": "function"
    },
    {
      "inputs": [
        {
          "internalType": "address",
          "name": "trader",
          "type": "address"
        },
        {
          "internalType": "address",
          "name": "baseToken",
          "type": "address"
        }
      ],
      "name": "getPendingFundingPayment",
      "outputs": [
        {
          "internalType": "int256",
          "name": "",
          "type": "int256"
        }
      ],
      "stateMutability": "view",
      "type": "function"
    },
    {
      "inputs": [
        {
          "components": [
            {
              "internalType": "address",
              "name": "trader",
              "type": "address"
            },
            {
              "internalType": "address",
              "name": "baseToken",
              "type": "address"
            },
            {
              "internalType": "int256",
              "name": "deltaAvailableBase",
              "type": "int256"
            },
            {
              "internalType": "int256",
              "name": "deltaAvailableQuote",
              "type": "int256"
            }
          ],
          "internalType": "struct IExchange.RealizePnlParams",
          "name": "params",
          "type": "tuple"
        }
      ],
      "name": "getPnlToBeRealized",
      "outputs": [
        {
          "internalType": "int256",
          "name": "",
          "type": "int256"
        }
      ],
      "stateMutability": "view",
      "type": "function"
    },
    {
      "inputs": [
        {
          "internalType": "address",
          "name": "baseToken",
          "type": "address"
        },
        {
          "internalType": "uint32",
          "name": "twapInterval",
          "type": "uint32"
        }
      ],
      "name": "getSqrtMarkTwapX96",
      "outputs": [
        {
          "internalType": "uint160",
          "name": "",
          "type": "uint160"
        }
      ],
      "stateMutability": "view",
      "type": "function"
    },
    {
      "inputs": [
        {
          "internalType": "address",
          "name": "baseToken",
          "type": "address"
        }
      ],
      "name": "getTick",
      "outputs": [
        {
          "internalType": "int24",
          "name": "",
          "type": "int24"
        }
      ],
      "stateMutability": "view",
      "type": "function"
    },
    {
      "inputs": [
        {
          "internalType": "address",
          "name": "marketRegistryArg",
          "type": "address"
        },
        {
          "internalType": "address",
          "name": "orderBookArg",
          "type": "address"
        },
        {
          "internalType": "address",
          "name": "clearingHouseConfigArg",
          "type": "address"
        },
        {
          "internalType": "address",
          "name": "insuranceFundArg",
          "type": "address"
        }
      ],
      "name": "initialize",
      "outputs": [],
      "stateMutability": "nonpayable",
      "type": "function"
    },
    {
      "inputs": [],
      "name": "owner",
      "outputs": [
        {
          "internalType": "address",
          "name": "",
          "type": "address"
        }
      ],
      "stateMutability": "view",
      "type": "function"
    },
    {
      "inputs": [],
      "name": "renounceOwnership",
      "outputs": [],
      "stateMutability": "nonpayable",
      "type": "function"
    },
    {
      "inputs": [
        {
          "internalType": "address",
          "name": "accountBalanceArg",
          "type": "address"
        }
      ],
      "name": "setAccountBalance",
      "outputs": [],
      "stateMutability": "nonpayable",
      "type": "function"
    },
    {
      "inputs": [
        {
          "internalType": "address",
          "name": "clearingHouseArg",
          "type": "address"
        }
      ],
      "name": "setClearingHouse",
      "outputs": [],
      "stateMutability": "nonpayable",
      "type": "function"
    },
    {
      "inputs": [
        {
          "internalType": "address",
          "name": "baseToken",
          "type": "address"
        },
        {
          "internalType": "uint24",
          "name": "maxTickCrossedWithinBlock",
          "type": "uint24"
        }
      ],
      "name": "setMaxTickCrossedWithinBlock",
      "outputs": [],
      "stateMutability": "nonpayable",
      "type": "function"
    },
    {
      "inputs": [
        {
          "internalType": "address",
          "name": "newOwner",
          "type": "address"
        }
      ],
      "name": "setOwner",
      "outputs": [],
      "stateMutability": "nonpayable",
      "type": "function"
    },
    {
      "inputs": [
        {
          "internalType": "address",
          "name": "trader",
          "type": "address"
        },
        {
          "internalType": "address",
          "name": "baseToken",
          "type": "address"
        }
      ],
      "name": "settleFunding",
      "outputs": [
        {
          "components": [
            {
              "internalType": "int256",
              "name": "twPremiumX96",
              "type": "int256"
            },
            {
              "internalType": "int256",
              "name": "twPremiumDivBySqrtPriceX96",
              "type": "int256"
            }
          ],
          "internalType": "struct Funding.Growth",
          "name": "fundingGrowthGlobal",
          "type": "tuple"
        }
      ],
      "stateMutability": "nonpayable",
      "type": "function"
    },
    {
      "inputs": [
        {
          "components": [
            {
              "internalType": "address",
              "name": "trader",
              "type": "address"
            },
            {
              "internalType": "address",
              "name": "baseToken",
              "type": "address"
            },
            {
              "internalType": "bool",
              "name": "isBaseToQuote",
              "type": "bool"
            },
            {
              "internalType": "bool",
              "name": "isExactInput",
              "type": "bool"
            },
            {
              "internalType": "bool",
              "name": "isClose",
              "type": "bool"
            },
            {
              "internalType": "uint256",
              "name": "amount",
              "type": "uint256"
            },
            {
              "internalType": "uint160",
              "name": "sqrtPriceLimitX96",
              "type": "uint160"
            }
          ],
          "internalType": "struct IExchange.SwapParams",
          "name": "params",
          "type": "tuple"
        }
      ],
      "name": "swap",
      "outputs": [
        {
          "components": [
            {
              "internalType": "uint256",
              "name": "deltaAvailableBase",
              "type": "uint256"
            },
            {
              "internalType": "uint256",
              "name": "deltaAvailableQuote",
              "type": "uint256"
            },
            {
              "internalType": "int256",
              "name": "exchangedPositionSize",
              "type": "int256"
            },
            {
              "internalType": "int256",
              "name": "exchangedPositionNotional",
              "type": "int256"
            },
            {
              "internalType": "uint256",
              "name": "fee",
              "type": "uint256"
            },
            {
              "internalType": "int256",
              "name": "openNotional",
              "type": "int256"
            },
            {
              "internalType": "int256",
              "name": "realizedPnl",
              "type": "int256"
            },
            {
              "internalType": "uint256",
              "name": "sqrtPriceAfter",
              "type": "uint256"
            },
            {
              "internalType": "int24",
              "name": "tick",
              "type": "int24"
            },
            {
              "internalType": "bool",
              "name": "isPartialClose",
              "type": "bool"
            }
          ],
          "internalType": "struct IExchange.SwapResponse",
          "name": "",
          "type": "tuple"
        }
      ],
      "stateMutability": "nonpayable",
      "type": "function"
    },
    {
      "inputs": [
        {
          "internalType": "int256",
          "name": "amount0Delta",
          "type": "int256"
        },
        {
          "internalType": "int256",
          "name": "amount1Delta",
          "type": "int256"
        },
        {
          "internalType": "bytes",
          "name": "data",
          "type": "bytes"
        }
      ],
      "name": "uniswapV3SwapCallback",
      "outputs": [],
      "stateMutability": "nonpayable",
      "type": "function"
    },
    {
      "inputs": [],
      "name": "updateOwner",
      "outputs": [],
      "stateMutability": "nonpayable",
      "type": "function"
    }
  ],
  "bytecode": "0x608060405234801561001057600080fd5b50614b21806100206000396000f3fe608060405234801561001057600080fd5b50600436106101335760003560e01c80631393a4691461013857806313af403514610161578063158626f714610176578063199387cc1461018b5780631e81ac331461019e57806329386b7b146101be5780634314ca1c146101de578063449323d8146101fe57806350709710146102115780635eb8a4e6146102315780636896fabf146102445780636c8381f81461024c578063715018a61461025457806380f57f111461025c5780638da5cb5b1461026f57806399e4a77114610277578063aa2a82941461028a578063b248c4ef14610292578063bc5920ba1461029a578063c575ff79146102a2578063c66b8ed2146102aa578063cb379aa2146102b2578063f8c8765e146102c5578063f9cbb471146102d8578063fa461e33146102fa575b600080fd5b61014b610146366004614113565b61030d565b60405161015891906144fa565b60405180910390f35b61017461016f366004613ced565b6104b6565b005b61017e610611565b604051610158919061436a565b610174610199366004613ced565b610620565b6101b16101ac366004613d25565b610702565b6040516101589190614723565b6101d16101cc366004613ced565b610ade565b60405161015891906148a1565b6101f16101ec3660046141d9565b610afe565b604051610158919061481e565b61017461020c366004613ced565b6111c5565b61022461021f366004613ced565b61126c565b60405161015891906144ec565b61017461023f366004613db8565b6112b1565b61017e61147f565b61017e61148e565b61017461149d565b61014b61026a366004613ced565b61153e565b61017e611610565b61017e610285366004613de5565b61161f565b61017e6116b3565b61017e6116c2565b6101746116d1565b61017e6117bd565b61017e6117cc565b61014b6102c0366004613d25565b6117db565b6101746102d3366004613d5d565b611992565b6102eb6102e6366004613ced565b611b10565b60405161015893929190614731565b610174610308366004613fc8565b611da1565b60ce548151602083015160405163165c4e2960e31b815260009384936001600160a01b039091169263b2e271489261034992919060040161437e565b60206040518083038186803b15801561036157600080fd5b505afa158015610375573d6000803e3d6000fd5b505050506040513d601f19601f820116820180604052508101906103999190613f8d565b9050600081156103b65760408401516000808412911214156103b9565b60005b60ce548551602087015160405163d50d01b760e01b81529394506000936001600160a01b039093169263d50d01b7926103f692909160040161437e565b60206040518083038186803b15801561040e57600080fd5b505afa158015610422573d6000803e3d6000fd5b505050506040513d601f19601f820116820180604052508101906104469190613f8d565b9050816104545760006104ab565b6104ab6040518060c0016040528087600001516001600160a01b0316815260200187602001516001600160a01b03168152602001858152602001838152602001876040015181526020018760600151815250611f41565b93505050505b919050565b6104be611feb565b6001600160a01b03166104cf611610565b6001600160a01b031614610513576040805162461bcd60e51b8152602060048201526006602482015265534f5f434e4f60d01b604482015290519081900360640190fd5b6001600160a01b038116610557576040805162461bcd60e51b81526020600482015260066024820152650534f5f4e57360d41b604482015290519081900360640190fd5b6033546001600160a01b03828116911614156105a3576040805162461bcd60e51b8152602060048201526006602482015265534f5f53414f60d01b604482015290519081900360640190fd5b6034546001600160a01b03828116911614156105ef576040805162461bcd60e51b8152602060048201526006602482015265534f5f53414360d01b604482015290519081900360640190fd5b603480546001600160a01b0319166001600160a01b0392909216919091179055565b60d0546001600160a01b031690565b610628611feb565b6001600160a01b0316610639611610565b6001600160a01b03161461067d576040805162461bcd60e51b8152602060048201526006602482015265534f5f434e4f60d01b604482015290519081900360640190fd5b6001600160a01b0381166106ac5760405162461bcd60e51b81526004016106a3906145e8565b60405180910390fd5b60ce80546001600160a01b0319166001600160a01b0383161790556040517f2b28168781da733c8a034f84683b9c955f156de5e07e24920b1348f51445d3e6906106f790839061436a565b60405180910390a150565b61070a613b8c565b609a54604051631246dbf560e01b81526001600160a01b0390911690631246dbf59061073a90859060040161436a565b60206040518083038186803b15801561075257600080fd5b505afa158015610766573d6000803e3d6000fd5b505050506040513d601f19601f8201168201806040525081019061078a9190613f71565b6107a65760405162461bcd60e51b81526004016106a390614562565b6000806107b284611b10565b60ce546040516359deb70960e11b815293965091945092506000916108d191889188916001600160a01b03169063b3bd6e12906107f5908590859060040161437e565b60206040518083038186803b15801561080d57600080fd5b505afa158015610821573d6000803e3d6000fd5b505050506040513d601f19601f820116820180604052508101906108459190613f8d565b60ce546040516331997f7b60e11b81526001600160a01b0390911690636332fef690610877908d908d9060040161437e565b60606040518083038186803b15801561088f57600080fd5b505afa1580156108a3573d6000803e3d6000fd5b505050506040513d601f19601f820116820180604052508101906108c79190614042565b6040015188611fef565b9050801561098f5760ce546001600160a01b03166337724702876108f484612093565b6040518363ffffffff1660e01b8152600401610911929190614489565b600060405180830381600087803b15801561092b57600080fd5b505af115801561093f573d6000803e3d6000fd5b50505050846001600160a01b0316866001600160a01b03167f733330d4aad1a878654bf888817b79bc6478013399be29fa3b8845c81305249e8360405161098691906144fa565b60405180910390a35b60006109996120bf565b6001600160a01b038716600090815260d360205260409020549091508114610a6d576001600160a01b038616600081815260d46020908152604080832089518a84015160d390945293829020600182019390935592835590849055519091907f54e4482fe1d38392effe5d53f0e9e72f60221a75a10cea7abbb684bfb03519bf90610a2790889088906148b1565b60405180910390a2610a388761126c565b6001600160a01b038816600090815260d160205260409020805460029290920b62ffffff1662ffffff19909216919091179055505b60ce548551604051632e4586c360e01b81526001600160a01b0390921691632e4586c391610aa1918b918b91600401614398565b600060405180830381600087803b158015610abb57600080fd5b505af1158015610acf573d6000803e3d6000fd5b50505050505050505b92915050565b6001600160a01b0316600090815260d5602052604090205462ffffff1690565b610b06613ba6565b610b0e6120c3565b60ce548251602084015160405163165c4e2960e31b81526000936001600160a01b03169263b2e2714892610b449260040161437e565b60206040518083038186803b158015610b5c57600080fd5b505afa158015610b70573d6000803e3d6000fd5b505050506040513d601f19601f82011682018060405250810190610b949190613f8d565b905060008115610bb05760408401511515600083121415610bb3565b60005b905060008060cf60009054906101000a90046001600160a01b03166001600160a01b031663742833366040518163ffffffff1660e01b815260040160206040518083038186803b158015610c0657600080fd5b505afa158015610c1a573d6000803e3d6000fd5b505050506040513d601f19601f82011682018060405250810190610c3e919061430d565b905085608001518015610c5057508315155b15610d2857610c6286602001516120ff565b80610c7e5750610c7e8660200151600086128860a00151612117565b15610d23576000610c8d6120bf565b87516001600160a01b03908116600090815260d660209081526040808320828d015190941683529290522054909150811415610cdb5760405162461bcd60e51b81526004016106a3906145a4565b86516001600160a01b03908116600090815260d660209081526040808320828c015190941683529290522081905560a0870151610d189083612179565b60a088015250600191505b610d58565b8215610d5857610d3b86602001516120ff565b15610d585760405162461bcd60e51b81526004016106a390614540565b60ce548651602088015160405163d50d01b760e01b81526000936001600160a01b03169263d50d01b792610d8e9260040161437e565b60206040518083038186803b158015610da657600080fd5b505afa158015610dba573d6000803e3d6000fd5b505050506040513d601f19601f82011682018060405250810190610dde9190613f8d565b90506000610deb8861218e565b90508760800151158015610dfc5750845b15610e3057610e1388602001518260c0015161256f565b15610e305760405162461bcd60e51b81526004016106a3906145c6565b60ce5460d05460a08301516001600160a01b03928316926337724702921690610e5890612616565b6040518363ffffffff1660e01b8152600401610e75929190614489565b600060405180830381600087803b158015610e8f57600080fd5b505af1158015610ea3573d6000803e3d6000fd5b5050505060ce60009054906101000a90046001600160a01b03166001600160a01b031663ea45a8f989600001518a602001518460400151610ef5610eea8760800151612616565b606088015190612662565b6040518563ffffffff1660e01b8152600401610f1494939291906143bc565b600060405180830381600087803b158015610f2e57600080fd5b505af1158015610f42573d6000803e3d6000fd5b5050505060008515610fa857610fa56040518060c001604052808b600001516001600160a01b031681526020018b602001516001600160a01b03168152602001898152602001858152602001846000015181526020018460200151815250611f41565b90505b801561101a5760ce54895160208b015160405163f0c7979760e01b81526001600160a01b039093169263f0c7979792610fe79290918690600401614398565b600060405180830381600087803b15801561100157600080fd5b505af1158015611015573d6000803e3d6000fd5b505050505b60ce54895160208b015160405163d50d01b760e01b81526000936001600160a01b03169263d50d01b7926110509260040161437e565b60206040518083038186803b15801561106857600080fd5b505afa15801561107c573d6000803e3d6000fd5b505050506040513d601f19601f820116820180604052508101906110a09190613f8d565b609a5460208c015160405163bbe4f6db60e01b8152929350600092611131926001600160a01b03169163bbe4f6db916110dc919060040161436a565b60206040518083038186803b1580156110f457600080fd5b505afa158015611108573d6000803e3d6000fd5b505050506040513d601f19601f8201168201806040525081019061112c9190613d09565b6126c7565b5050505050506001600160a01b0316905060405180610140016040528061115b866000015161275a565b815260200161116d866020015161275a565b81526020018560400151815260200185606001518152602001856080015181526020018381526020018481526020018281526020018560c0015160020b81526020018815158152509950505050505050505050919050565b6111cd611feb565b6001600160a01b03166111de611610565b6001600160a01b031614611222576040805162461bcd60e51b8152602060048201526006602482015265534f5f434e4f60d01b604482015290519081900360640190fd5b606780546001600160a01b0319166001600160a01b0383169081179091556040517fd0654f5900f9e7e4e605a19334306e6a2786bbf960ac0484a4c12feb6428fe2f90600090a250565b609a5460405163bbe4f6db60e01b815260009182916112a3916001600160a01b03169063bbe4f6db906110dc90879060040161436a565b509398975050505050505050565b6112b9611feb565b6001600160a01b03166112ca611610565b6001600160a01b03161461130e576040805162461bcd60e51b8152602060048201526006602482015265534f5f434e4f60d01b604482015290519081900360640190fd5b611320826001600160a01b0316612783565b61133c5760405162461bcd60e51b81526004016106a3906146a2565b609a54604051631246dbf560e01b81526001600160a01b0390911690631246dbf59061136c90859060040161436a565b60206040518083038186803b15801561138457600080fd5b505afa158015611398573d6000803e3d6000fd5b505050506040513d601f19601f820116820180604052508101906113bc9190613f71565b6113d85760405162461bcd60e51b81526004016106a390614562565b6113f16113ec620d89e8620d89e719612662565b612789565b62ffffff168162ffffff16111561141a5760405162461bcd60e51b81526004016106a390614627565b6001600160a01b038216600081815260d5602052604090819020805462ffffff191662ffffff8516179055517f998d553f208e581d188c66da9e7d19bac5ca64d002753791210c4271c8e955d0906114739084906148a1565b60405180910390a25050565b60ce546001600160a01b031690565b6034546001600160a01b031690565b6114a5611feb565b6001600160a01b03166114b6611610565b6001600160a01b0316146114fa576040805162461bcd60e51b8152602060048201526006602482015265534f5f434e4f60d01b604482015290519081900360640190fd5b6033546040516000916001600160a01b031690600080516020614a33833981519152908390a3603380546001600160a01b0319908116909155603480549091169055565b60ce546040516357ba739b60e11b815260009182916001600160a01b039091169063af74e7369061157390869060040161436a565b60006040518083038186803b15801561158b57600080fd5b505afa15801561159f573d6000803e3d6000fd5b505050506040513d6000823e601f3d908101601f191682016040526115c79190810190613e12565b805190915060005b81811015611608576115fe6115f7868584815181106115ea57fe5b60200260200101516117db565b85906127cd565b93506001016115cf565b505050919050565b6033546001600160a01b031690565b609a5460405163bbe4f6db60e01b81526000916116ac916001600160a01b039091169063bbe4f6db9061165690879060040161436a565b60206040518083038186803b15801561166e57600080fd5b505afa158015611682573d6000803e3d6000fd5b505050506040513d601f19601f820116820180604052508101906116a69190613d09565b83612832565b9392505050565b60cf546001600160a01b031690565b60cd546001600160a01b031690565b6034546001600160a01b0316611716576040805162461bcd60e51b81526020600482015260056024820152640534f5f43360dc1b604482015290519081900360640190fd5b61171e611feb565b6034546001600160a01b03908116911614611769576040805162461bcd60e51b8152602060048201526006602482015265534f5f434e4360d01b604482015290519081900360640190fd5b6034546033546040516001600160a01b039283169290911690600080516020614a3383398151915290600090a360348054603380546001600160a01b03199081166001600160a01b03841617909155169055565b6067546001600160a01b031690565b609a546001600160a01b031690565b6000806117e783611b10565b505060cd546040516347b52fb760e01b81529192506000916001600160a01b03909116906347b52fb790611823908890889087906004016143e5565b60206040518083038186803b15801561183b57600080fd5b505afa15801561184f573d6000803e3d6000fd5b505050506040513d601f19601f820116820180604052508101906118739190613f8d565b60ce546040516359deb70960e11b8152919250611989916001600160a01b039091169063b3bd6e12906118ac908990899060040161437e565b60206040518083038186803b1580156118c457600080fd5b505afa1580156118d8573d6000803e3d6000fd5b505050506040513d601f19601f820116820180604052508101906118fc9190613f8d565b60ce546040516331997f7b60e11b81526001600160a01b0390911690636332fef69061192e908a908a9060040161437e565b60606040518083038186803b15801561194657600080fd5b505afa15801561195a573d6000803e3d6000fd5b505050506040513d601f19601f8201168201806040525081019061197e9190614042565b604001518484612996565b95945050505050565b600054610100900460ff16806119ab57506119ab6129cb565b806119b9575060005460ff16155b6119f45760405162461bcd60e51b815260040180806020018281038252602e8152602001806149a1602e913960400191505060405180910390fd5b600054610100900460ff16158015611a1f576000805460ff1961ff0019909116610100171660011790555b611a276129dc565b611a3085612a86565b611a42846001600160a01b0316612783565b611a5e5760405162461bcd60e51b81526004016106a390614607565b611a70836001600160a01b0316612783565b611a8c5760405162461bcd60e51b81526004016106a3906146c2565b611a9e826001600160a01b0316612783565b611aba5760405162461bcd60e51b81526004016106a390614702565b60d080546001600160a01b038085166001600160a01b03199283161790925560cd805487841690831617905560cf8054928616929091169190911790558015611b09576000805461ff00191690555b5050505050565b611b18613b8c565b600080600080611b266120bf565b6001600160a01b038716600090815260d2602052604090205490915015611c1f5760cf60009054906101000a90046001600160a01b03166001600160a01b0316633e742e3b6040518163ffffffff1660e01b815260040160206040518083038186803b158015611b9557600080fd5b505afa158015611ba9573d6000803e3d6000fd5b505050506040513d601f19601f82011682018060405250810190611bcd9190614329565b6001600160a01b038716600090815260d2602052604081205491935090611bfe90611bf9908490612b4c565b612ba9565b90508063ffffffff168363ffffffff1611611c195782611c1b565b805b9250505b6000611c3c611c2e888561161f565b6001600160a01b0316612bee565b9050611c4781612c08565b604051631208064760e01b81529095506001600160a01b03881690631208064790611c769086906004016148bf565b60206040518083038186803b158015611c8e57600080fd5b505afa158015611ca2573d6000803e3d6000fd5b505050506040513d601f19601f82011682018060405250810190611cc69190613f8d565b6001600160a01b038816600090815260d3602090815260408083205460d49092529091209195509083821480611cfa575081155b15611d1e576040805180820190915281548152600182015460208201529750611d95565b6000611d4d611d35611d308786612b4c565b612616565b611d4786611d428b612c21565b612c3a565b90612d44565b8254909150611d5c90826127cd565b8952611d8e611d8382600160601b611d758e600061161f565b6001600160a01b0316612ded565b6001840154906127cd565b60208a0152505b50505050509193909250565b6000611dab611feb565b90506000816001600160a01b0316630dfe16816040518163ffffffff1660e01b815260040160206040518083038186803b158015611de857600080fd5b505afa158015611dfc573d6000803e3d6000fd5b505050506040513d601f19601f82011682018060405250810190611e209190613d09565b609a5460405163bbe4f6db60e01b81529192506001600160a01b03169063bbe4f6db90611e5190849060040161436a565b60206040518083038186803b158015611e6957600080fd5b505afa158015611e7d573d6000803e3d6000fd5b505050506040513d601f19601f82011682018060405250810190611ea19190613d09565b6001600160a01b0316826001600160a01b031614611ed15760405162461bcd60e51b81526004016106a39061464b565b60675460405163fa461e3360e01b81526001600160a01b039091169063fa461e3390611f07908990899089908990600401614503565b600060405180830381600087803b158015611f2157600080fd5b505af1158015611f35573d6000803e3d6000fd5b50505050505050505050565b600080611f6f611f54846080015161275a565b670de0b6b3a7640000611f6a866040015161275a565b612e91565b90506000670de0b6b3a76400008211611fbe576000611fa4611f9084612616565b606087015190670de0b6b3a7640000612ded565b60a0860151909150611fb690826127cd565b9150506116ac565b60a0840151600090611fd990670de0b6b3a764000085612ded565b606086015190915061198990826127cd565b3390565b60cd54604051633fe1339b60e11b815260009182916001600160a01b0390911690637fc2673690612028908a908a9088906004016143e5565b602060405180830381600087803b15801561204257600080fd5b505af1158015612056573d6000803e3d6000fd5b505050506040513d601f19601f8201168201806040525081019061207a9190613f8d565b905061208885858584612996565b979650505050505050565b6000600160ff1b82136120b85760405162461bcd60e51b81526004016106a39061466c565b5060000390565b4290565b6067546001600160a01b03166120d7611feb565b6001600160a01b0316146120fd5760405162461bcd60e51b81526004016106a390614583565b565b60008061210b8361126c565b90506116ac838261256f565b60006121718461216c6040518060a00160405280886001600160a01b0316815260200187151515815260200187151515815260200186815260200161215c8989612f40565b6001600160a01b03169052612f93565b61256f565b949350505050565b60006116ac838362ffffff16620f4240612e91565b612196613bfe565b609a54602083015160405163033e16f360e21b81526000926001600160a01b031691630cf85bcc916121cb919060040161436a565b60806040518083038186803b1580156121e357600080fd5b505afa1580156121f7573d6000803e3d6000fd5b505050506040513d601f19601f8201168201806040525081019061221b9190614096565b9050600080612241856040015186606001518760a001518660200151876040015161313b565b9150915060006122548660200151611b10565b50509050600060cd60009054906101000a90046001600160a01b03166001600160a01b031663a3bf0df86040518061010001604052808a602001516001600160a01b031681526020018a60400151151581526020016001151581526020018681526020018a60c001516001600160a01b03168152602001886020015162ffffff168152602001886040015162ffffff168152602001858152506040518263ffffffff1660e01b81526004016123099190614750565b606060405180830381600087803b15801561232357600080fd5b505af1158015612337573d6000803e3d6000fd5b505050506040513d601f19601f8201168201806040525081019061235b9190614180565b905060006124576040518060e0016040528088600001516001600160a01b03168152602001606760009054906101000a90046001600160a01b03166001600160a01b031681526020018a60400151151581526020018a60600151151581526020018781526020018a60c001516001600160a01b031681526020016040518060a001604052808c600001516001600160a01b031681526020018c602001516001600160a01b031681526020018a600001516001600160a01b031681526020018a6040015162ffffff168152602001866020015181525060405160200161244091906147d4565b60405160208183030381529060405281525061318c565b90506000808960400151156124985761248261247d84600001518a6040015160006133b6565b6133fd565b91506124918360200151612616565b90506124bf565b82516124a390612616565b91506124bc61247d84602001518a6040015160006133b6565b90505b6020808b01516001600160a01b0316600090815260d29091526040902054612508576124e96120bf565b6020808c01516001600160a01b0316600090815260d290915260409020555b6040518060e001604052808381526020016125306125298760200151612616565b8490612662565b81526020018381526020018281526020018560200151815260200185604001518152602001856000015160020b81525098505050505050505050919050565b6001600160a01b038216600090815260d5602052604081205462ffffff168061259c576000915050610ad8565b6001600160a01b038416600090815260d16020526040812054600290810b91906125d7906125d29084900b62ffffff86166127cd565b613411565b905060006125f16125d2600285900b62ffffff8716612662565b90508060020b8660020b128061208857508160020b8660020b13979650505050505050565b60006001600160ff1b0382111561265e5760405162461bcd60e51b8152600401808060200182810382526028815260200180614aa06028913960400191505060405180910390fd5b5090565b60008183038183128015906126775750838113155b8061268c575060008312801561268c57508381135b6116ac5760405162461bcd60e51b8152600401808060200182810382526024815260200180614ac86024913960400191505060405180910390fd5b6000806000806000806000876001600160a01b0316633850c7bd6040518163ffffffff1660e01b815260040160e06040518083038186803b15801561270b57600080fd5b505afa15801561271f573d6000803e3d6000fd5b505050506040513d601f19601f82011682018060405250810190612743919061427a565b959e949d50929b5090995097509550909350915050565b60008082121561277a5761277561277083612093565b613454565b610ad8565b610ad882613454565b3b151590565b8062ffffff811681146104b15760405162461bcd60e51b81526004018080602001828103825260438152602001806149f06043913960600191505060405180910390fd5b60008282018183128015906127e25750838112155b806127f757506000831280156127f757508381125b6116ac5760405162461bcd60e51b81526004018080602001828103825260218152602001806149576021913960400191505060405180910390fd5b6000600a8263ffffffff16101561285e57600061284e846126c7565b50949650610ad895505050505050565b604080516002808252606082018352600092602083019080368337019050509050828160008151811061288d57fe5b602002602001019063ffffffff16908163ffffffff16815250506000816001815181106128b657fe5b63ffffffff9092166020928302919091019091015260405163883bdbfd60e01b81526000906001600160a01b0386169063883bdbfd906128fa9085906004016144a2565b60006040518083038186803b15801561291257600080fd5b505afa158015612926573d6000803e3d6000fd5b505050506040513d6000823e601f3d908101601f1916820160405261294e9190810190613eaa565b5090506119898463ffffffff168260008151811061296857fe5b60200260200101518360018151811061297d57fe5b60200260200101510360060b8161299057fe5b056134ab565b6000806129a8868560000151876137d2565b90506129c1620151806129bb85846127cd565b906137ec565b9695505050505050565b60006129d630612783565b15905090565b600054610100900460ff16806129f557506129f56129cb565b80612a03575060005460ff16155b612a3e5760405162461bcd60e51b815260040180806020018281038252602e8152602001806149a1602e913960400191505060405180910390fd5b600054610100900460ff16158015612a69576000805460ff1961ff0019909116610100171660011790555b612a716138a4565b8015612a83576000805461ff00191690555b50565b600054610100900460ff1680612a9f5750612a9f6129cb565b80612aad575060005460ff16155b612ae85760405162461bcd60e51b815260040180806020018281038252602e8152602001806149a1602e913960400191505060405180910390fd5b600054610100900460ff16158015612b13576000805460ff1961ff0019909116610100171660011790555b612b1b613993565b609a80546001600160a01b0319166001600160a01b0384161790558015612b48576000805461ff00191690555b5050565b600082821115612ba3576040805162461bcd60e51b815260206004820152601e60248201527f536166654d6174683a207375627472616374696f6e206f766572666c6f770000604482015290519081900360640190fd5b50900390565b8063ffffffff811681146104b15760405162461bcd60e51b8152600401808060200182810382526026815260200180614a7a6026913960400191505060405180910390fd5b6000610ad86001600160a01b03831680600160601b612e91565b6000610ad882670de0b6b3a7640000600160601b612e91565b6000610ad882600160601b670de0b6b3a7640000612e91565b60008060cf60009054906101000a90046001600160a01b03166001600160a01b0316636e1d2dd26040518163ffffffff1660e01b815260040160206040518083038186803b158015612c8b57600080fd5b505afa158015612c9f573d6000803e3d6000fd5b505050506040513d601f19601f82011682018060405250810190612cc3919061430d565b90506000612cd18483612179565b9050600084861115612d0e57612ce78686612b4c565b9050818111612cfe57612cf981612616565b612d07565b612d0782612616565b9350612d3b565b612d188587612b4c565b9050818111612d2f57612d2a816133fd565b612d38565b612d38826133fd565b93505b50505092915050565b600082612d5357506000610ad8565b82600019148015612d675750600160ff1b82145b15612da35760405162461bcd60e51b8152600401808060200182810382526027815260200180614a536027913960400191505060405180910390fd5b82820282848281612db057fe5b05146116ac5760405162461bcd60e51b8152600401808060200182810382526027815260200180614a536027913960400191505060405180910390fd5b60008060008512612dfe5784612e07565b612e0785612093565b90506000808512612e185784612e21565b612e2185612093565b905060008087128015612e345750600086135b80612e4a5750600087138015612e4a5750600086125b612e55576000612e58565b60015b90506000612e67848488612e91565b905081612e7c57612e7781612616565b612e85565b612e85816133fd565b98975050505050505050565b6000808060001985870986860292508281109083900303905080612ec75760008411612ebc57600080fd5b5082900490506116ac565b808411612ed357600080fd5b6000848688096000868103871696879004966002600389028118808a02820302808a02820302808a02820302808a02820302808a02820302808a02909103029181900381900460010186841190950394909402919094039290920491909117919091029150509392505050565b6001600160a01b038216600090815260d1602090815260408083205460d590925282205460029190910b9062ffffff168284612f8157600182840303612f88565b8183016001015b9050612d38816134ab565b609a54815160405163033e16f360e21b815260009283926001600160a01b0390911691630cf85bcc91612fc89160040161436a565b60806040518083038186803b158015612fe057600080fd5b505afa158015612ff4573d6000803e3d6000fd5b505050506040513d601f19601f820116820180604052508101906130189190614096565b90506000816020015190506000826040015190506000613047866020015187604001518860600151868661313b565b60cd5460408051610100810182528a516001600160a01b0390811682526020808d01511515818401526000838501819052606084018790526080808f015184169085015262ffffff808c1660a08601528a1660c08501528451808601865281815291820181905260e08401919091529251631477e1bf60e31b815294965091945091169163a3bf0df8916130dd91600401614750565b606060405180830381600087803b1580156130f757600080fd5b505af115801561310b573d6000803e3d6000fd5b505050506040513d601f19601f8201168201806040525081019061312f9190614180565b51979650505050505050565b60008061314b8787878787613a28565b9150866131605761315b85612616565b613169565b61316982612616565b90508561317e5761317981612093565b613180565b805b90509550959350505050565b613194613b8c565b600082606001516131b1576131ac83608001516133fd565b6131be565b6131be8360800151612616565b905060008084600001516001600160a01b031663128acb0886602001518760400151868960a001516001600160a01b0316600014613200578960a0015161322a565b89604001516132235773fffd8963efd1fc6a506488495d951d5263988d2561322a565b6401000276a45b8a60c001516040518663ffffffff1660e01b815260040161324f95949392919061440a565b6040805180830381600087803b15801561326857600080fd5b505af115801561327c573d6000803e3d6000fd5b505050506040513d601f19601f820116820180604052508101906132a09190613fa5565b915091506000806132b08461275a565b6132b98461275a565b9150915060008760400151151588606001511515146132d857816132da565b825b905087606001511580156132f9575060a08801516001600160a01b0316155b1561339a57600a8860800151821161331f57608089015161331a9083612b4c565b61332f565b608089015161332f908390612b4c565b1061334c5760405162461bcd60e51b81526004016106a3906146e2565b8760400151613373576040518060400160405280896080015181526020018381525061338d565b604051806040016040528084815260200189608001518152505b96505050505050506104b1565b5060408051808201909152918252602082015295945050505050565b6000816133e1576133dc846133d3620f424062ffffff8716612b4c565b620f4240612e91565b612171565b61217184620f42406133f88162ffffff8816612b4c565b613a71565b600061340882612616565b60000392915050565b80600281900b81146104b15760405162461bcd60e51b81526004018080602001828103825260298152602001806149786029913960400191505060405180910390fd5b60008082121561265e576040805162461bcd60e51b815260206004820181905260248201527f53616665436173743a2076616c7565206d75737420626520706f736974697665604482015290519081900360640190fd5b60008060008360020b126134c2578260020b6134ca565b8260020b6000035b9050620d89e8811115613508576040805162461bcd60e51b81526020600482015260016024820152601560fa1b604482015290519081900360640190fd5b60006001821661351c57600160801b61352e565b6ffffcb933bd6fad37aa2d162d1a5940015b6001600160881b031690506002821615613558576ffff97272373d413259a46990580e213a0260801c5b6004821615613577576ffff2e50f5f656932ef12357cf3c7fdcc0260801c5b6008821615613596576fffe5caca7e10e4e61c3624eaa0941cd00260801c5b60108216156135b5576fffcb9843d60f6159c9db58835c9266440260801c5b60208216156135d4576fff973b41fa98c081472e6896dfb254c00260801c5b60408216156135f3576fff2ea16466c96a3843ec78b326b528610260801c5b6080821615613612576ffe5dee046a99a2a811c461f1969c30530260801c5b610100821615613632576ffcbe86c7900a88aedcffc83b479aa3a40260801c5b610200821615613652576ff987a7253ac413176f2b074cf7815e540260801c5b610400821615613672576ff3392b0822b70005940c7a398e4b70f30260801c5b610800821615613692576fe7159475a2c29b7443b29c7fa6e889d90260801c5b6110008216156136b2576fd097f3bdfd2022b8845ad8f792aa58250260801c5b6120008216156136d2576fa9f746462d870fdf8a65dc1f90e061e50260801c5b6140008216156136f2576f70d869a156d2a1b890bb3df62baf32f70260801c5b618000821615613712576f31be135f97d08fd981231505542fcfa60260801c5b62010000821615613733576f09aa508b5b7a84e1c677de54f3e99bc90260801c5b62020000821615613753576e5d6af8dedb81196699c329225ee6040260801c5b62040000821615613772576d2216e584f5fa1ea926041bedfe980260801c5b6208000082161561378f576b048a170391f7dc42444e8fa20260801c5b60008460020b13156137aa5780600019816137a657fe5b0490505b600160201b8106156137bd5760016137c0565b60005b60ff16602082901c0192505050919050565b6000612171846137e28585612662565b600160601b612ded565b600081613840576040805162461bcd60e51b815260206004820181905260248201527f5369676e6564536166654d6174683a206469766973696f6e206279207a65726f604482015290519081900360640190fd5b816000191480156138545750600160ff1b83145b156138905760405162461bcd60e51b81526004018080602001828103825260218152602001806149cf6021913960400191505060405180910390fd5b600082848161389b57fe5b05949350505050565b600054610100900460ff16806138bd57506138bd6129cb565b806138cb575060005460ff16155b6139065760405162461bcd60e51b815260040180806020018281038252602e8152602001806149a1602e913960400191505060405180910390fd5b600054610100900460ff16158015613931576000805460ff1961ff0019909116610100171660011790555b613939613993565b6000613943611feb565b603380546001600160a01b0319166001600160a01b03831690811790915560405191925090600090600080516020614a33833981519152908290a3508015612a83576000805461ff001916905550565b600054610100900460ff16806139ac57506139ac6129cb565b806139ba575060005460ff16155b6139f55760405162461bcd60e51b815260040180806020018281038252602e8152602001806149a1602e913960400191505060405180910390fd5b600054610100900460ff16158015613a20576000805460ff1961ff0019909116610100171660011790555b612a71613aab565b60008515613a595784613a4657613a41848460016133b6565b613a52565b613a52848360016133b6565b9050611989565b84613a6457836129c1565b6129c18483856001613b4b565b6000613a7e848484612e91565b905060008280613a8a57fe5b84860911156116ac576000198110613aa157600080fd5b6001019392505050565b600054610100900460ff1680613ac45750613ac46129cb565b80613ad2575060005460ff16155b613b0d5760405162461bcd60e51b815260040180806020018281038252602e8152602001806149a1602e913960400191505060405180910390fd5b600054610100900460ff16158015612a71576000805460ff1961ff0019909116610100171660011790558015612a83576000805461ff001916905550565b600080600083613b5c578585613b5f565b84865b909250905061208887613b7a620f424062ffffff8616612b4c565b6133f8620f424062ffffff8616612b4c565b604051806040016040528060008152602001600081525090565b6040518061014001604052806000815260200160008152602001600081526020016000815260200160008152602001600081526020016000815260200160008152602001600060020b81526020016000151581525090565b6040518060e00160405280600081526020016000815260200160008152602001600081526020016000815260200160008152602001600060020b81525090565b80356104b181614910565b600082601f830112613c59578081fd5b81516020613c6e613c69836148f3565b6148d0565b8281528181019085830183850287018401881015613c8a578586fd5b855b85811015613cb1578151613c9f81614910565b84529284019290840190600101613c8c565b5090979650505050505050565b80356104b181614925565b8051600281900b81146104b157600080fd5b805161ffff811681146104b157600080fd5b600060208284031215613cfe578081fd5b81356116ac81614910565b600060208284031215613d1a578081fd5b81516116ac81614910565b60008060408385031215613d37578081fd5b8235613d4281614910565b91506020830135613d5281614910565b809150509250929050565b60008060008060808587031215613d72578182fd5b8435613d7d81614910565b93506020850135613d8d81614910565b92506040850135613d9d81614910565b91506060850135613dad81614910565b939692955090935050565b60008060408385031215613dca578182fd5b8235613dd581614910565b91506020830135613d5281614933565b60008060408385031215613df7578182fd5b8235613e0281614910565b91506020830135613d5281614944565b60006020808385031215613e24578182fd5b82516001600160401b03811115613e39578283fd5b8301601f81018513613e49578283fd5b8051613e57613c69826148f3565b8181528381019083850185840285018601891015613e73578687fd5b8694505b83851015613e9e578051613e8a81614910565b835260019490940193918501918501613e77565b50979650505050505050565b60008060408385031215613ebc578182fd5b82516001600160401b0380821115613ed2578384fd5b818501915085601f830112613ee5578384fd5b81516020613ef5613c69836148f3565b82815281810190858301838502870184018b1015613f11578889fd5b8896505b84871015613f415780518060060b8114613f2d57898afd5b835260019690960195918301918301613f15565b5091880151919650909350505080821115613f5a578283fd5b50613f6785828601613c49565b9150509250929050565b600060208284031215613f82578081fd5b81516116ac81614925565b600060208284031215613f9e578081fd5b5051919050565b60008060408385031215613fb7578182fd5b505080516020909101519092909150565b60008060008060608587031215613fdd578182fd5b843593506020850135925060408501356001600160401b0380821115614001578384fd5b818701915087601f830112614014578384fd5b813581811115614022578485fd5b886020828501011115614033578485fd5b95989497505060200194505050565b600060608284031215614053578081fd5b604051606081016001600160401b038111828210171561406f57fe5b80604052508251815260208301516020820152604083015160408201528091505092915050565b6000608082840312156140a7578081fd5b604051608081016001600160401b03811182821017156140c357fe5b60405282516140d181614910565b815260208301516140e181614933565b602082015260408301516140f481614933565b6040820152606083015161410781614933565b60608201529392505050565b600060808284031215614124578081fd5b604051608081016001600160401b038111828210171561414057fe5b604052823561414e81614910565b8152602083013561415e81614910565b6020820152604083810135908201526060928301359281019290925250919050565b600060608284031215614191578081fd5b604051606081016001600160401b03811182821017156141ad57fe5b6040526141b983613cc9565b815260208301516020820152604083015160408201528091505092915050565b600060e082840312156141ea578081fd5b60405160e081016001600160401b038111828210171561420657fe5b60405261421283613c3e565b815261422060208401613c3e565b602082015261423160408401613cbe565b604082015261424260608401613cbe565b606082015261425360808401613cbe565b608082015260a083013560a082015261426e60c08401613c3e565b60c08201529392505050565b600080600080600080600060e0888a031215614294578485fd5b875161429f81614910565b96506142ad60208901613cc9565b95506142bb60408901613cdb565b94506142c960608901613cdb565b93506142d760808901613cdb565b925060a088015160ff811681146142ec578283fd5b60c08901519092506142fd81614925565b8091505092959891949750929550565b60006020828403121561431e578081fd5b81516116ac81614933565b60006020828403121561433a578081fd5b81516116ac81614944565b15159052565b60020b9052565b80518252602090810151910152565b62ffffff169052565b6001600160a01b0391909116815260200190565b6001600160a01b0392831681529116602082015260400190565b6001600160a01b039384168152919092166020820152604081019190915260600190565b6001600160a01b0394851681529290931660208301526040820152606081019190915260800190565b6001600160a01b03848116825283166020820152608081016121716040830184614352565b600060018060a01b038088168352602087151581850152866040850152818616606085015260a06080850152845191508160a0850152825b8281101561445e5785810182015185820160c001528101614442565b8281111561446f578360c084870101525b5050601f01601f19169190910160c0019695505050505050565b6001600160a01b03929092168252602082015260400190565b6020808252825182820181905260009190848201906040850190845b818110156144e057835163ffffffff16835292840192918401916001016144be565b50909695505050505050565b60029190910b815260200190565b90815260200190565b60008582528460208301526060604083015282606083015282846080840137818301608090810191909152601f909201601f191601019392505050565b60208082526008908201526745585f4f504c425360c01b604082015260600190565b60208082526007908201526645585f42544e4560c81b604082015260600190565b6020808252600790820152660869088be9e86960cb1b604082015260600190565b60208082526008908201526745585f414f504c4f60c01b604082015260600190565b60208082526008908201526745585f4f504c415360c01b604082015260600190565b6020808252600590820152640455f4142360dc1b604082015260600190565b602080825260069082015265455f4f424e4360d01b604082015260600190565b6020808252600a908201526922ac2fa6aa21a627a7a960b11b604082015260600190565b6020808252600790820152662aa1a12fa321ab60c91b604082015260600190565b6020808252601c908201527b506572704d6174683a20696e76657273696f6e206f766572666c6f7760201b604082015260600190565b60208082526006908201526545585f414e4360d01b604082015260600190565b602080825260069082015265455f43484e4360d01b604082015260600190565b60208082526006908201526555425f554f4160d01b604082015260600190565b602080825260079082015266455f4946414e4360c81b604082015260600190565b60408101610ad88284614352565b6080810161473f8286614352565b604082019390935260600152919050565b60006101208201905060018060a01b03808451168352602084015115156020840152604084015115156040840152606084015160608401528060808501511660808401525060a08301516147a760a0840182614361565b5060c08301516147ba60c0840182614361565b5060e08301516147cd60e0840182614352565b5092915050565b81516001600160a01b0390811682526020808401518216908301526040808401519091169082015260608083015162ffffff16908201526080918201519181019190915260a00190565b600061014082019050825182526020830151602083015260408301516040830152606083015160608301526080830151608083015260a083015160a083015260c083015160c083015260e083015160e0830152610100808401516148848285018261434b565b50506101208084015161489982850182614345565b505092915050565b62ffffff91909116815260200190565b918252602082015260400190565b63ffffffff91909116815260200190565b6040518181016001600160401b03811182821017156148eb57fe5b604052919050565b60006001600160401b0382111561490657fe5b5060209081020190565b6001600160a01b0381168114612a8357600080fd5b8015158114612a8357600080fd5b62ffffff81168114612a8357600080fd5b63ffffffff81168114612a8357600080fdfe5369676e6564536166654d6174683a206164646974696f6e206f766572666c6f7753616665436173743a2076616c756520646f65736e27742066697420696e20616e2032342062697473496e697469616c697a61626c653a20636f6e747261637420697320616c726561647920696e697469616c697a65645369676e6564536166654d6174683a206469766973696f6e206f766572666c6f7753616665436173743a2076616c7565206d75737420626520706f736974697665206f722076616c756520646f65736e27742066697420696e20616e20323420626974738be0079c531659141344cd1fd0a4f28419497f9722a3daafe3b4186f6b6457e05369676e6564536166654d6174683a206d756c7469706c69636174696f6e206f766572666c6f7753616665436173743a2076616c756520646f65736e27742066697420696e203332206269747353616665436173743a2076616c756520646f65736e27742066697420696e20616e20696e743235365369676e6564536166654d6174683a207375627472616374696f6e206f766572666c6f77a2646970667358221220c9d4b09d6c265ea2676384dd5f029b10c587d09e09ee8ae52911b06edda87f8a64736f6c63430007060033",
  "linkReferences": {},
  "deployedLinkReferences": {}
}