{
  "_format": "hh-sol-artifact-1",
  "contractName": "PerpV2Vault",
  "sourceName": "contracts/Vault.sol",
  "abi": [
    {
      "anonymous": false,
      "inputs": [
        {
          "indexed": true,
          "internalType": "address",
          "name": "collateralToken",
          "type": "address"
        },
        {
          "indexed": true,
          "internalType": "address",
          "name": "trader",
          "type": "address"
        },
        {
          "indexed": false,
          "internalType": "uint256",
          "name": "amount",
          "type": "uint256"
        }
      ],
      "name": "Deposited",
      "type": "event"
    },
    {
      "anonymous": false,
      "inputs": [
        {
          "indexed": true,
          "internalType": "address",
          "name": "previousOwner",
          "type": "address"
        },
        {
          "indexed": true,
          "internalType": "address",
          "name": "newOwner",
          "type": "address"
        }
      ],
      "name": "OwnershipTransferred",
      "type": "event"
    },
    {
      "anonymous": false,
      "inputs": [
        {
          "indexed": false,
          "internalType": "address",
          "name": "account",
          "type": "address"
        }
      ],
      "name": "Paused",
      "type": "event"
    },
    {
      "anonymous": false,
      "inputs": [
        {
          "indexed": false,
          "internalType": "address",
          "name": "trustedForwarder",
          "type": "address"
        }
      ],
      "name": "TrustedForwarderUpdated",
      "type": "event"
    },
    {
      "anonymous": false,
      "inputs": [
        {
          "indexed": false,
          "internalType": "address",
          "name": "account",
          "type": "address"
        }
      ],
      "name": "Unpaused",
      "type": "event"
    },
    {
      "anonymous": false,
      "inputs": [
        {
          "indexed": true,
          "internalType": "address",
          "name": "collateralToken",
          "type": "address"
        },
        {
          "indexed": true,
          "internalType": "address",
          "name": "trader",
          "type": "address"
        },
        {
          "indexed": false,
          "internalType": "uint256",
          "name": "amount",
          "type": "uint256"
        }
      ],
      "name": "Withdrawn",
      "type": "event"
    },
    {
      "inputs": [],
      "name": "candidate",
      "outputs": [
        {
          "internalType": "address",
          "name": "",
          "type": "address"
        }
      ],
      "stateMutability": "view",
      "type": "function"
    },
    {
      "inputs": [],
      "name": "decimals",
      "outputs": [
        {
          "internalType": "uint8",
          "name": "",
          "type": "uint8"
        }
      ],
      "stateMutability": "view",
      "type": "function"
    },
    {
      "inputs": [
        {
          "internalType": "address",
          "name": "token",
          "type": "address"
        },
        {
          "internalType": "uint256",
          "name": "amountX10_D",
          "type": "uint256"
        }
      ],
      "name": "deposit",
      "outputs": [],
      "stateMutability": "nonpayable",
      "type": "function"
    },
    {
      "inputs": [],
      "name": "getAccountBalance",
      "outputs": [
        {
          "internalType": "address",
          "name": "",
          "type": "address"
        }
      ],
      "stateMutability": "view",
      "type": "function"
    },
    {
      "inputs": [
        {
          "internalType": "address",
          "name": "trader",
          "type": "address"
        }
      ],
      "name": "getBalance",
      "outputs": [
        {
          "internalType": "int256",
          "name": "",
          "type": "int256"
        }
      ],
      "stateMutability": "view",
      "type": "function"
    },
    {
      "inputs": [],
      "name": "getClearingHouseConfig",
      "outputs": [
        {
          "internalType": "address",
          "name": "",
          "type": "address"
        }
      ],
      "stateMutability": "view",
      "type": "function"
    },
    {
      "inputs": [],
      "name": "getExchange",
      "outputs": [
        {
          "internalType": "address",
          "name": "",
          "type": "address"
        }
      ],
      "stateMutability": "view",
      "type": "function"
    },
    {
      "inputs": [
        {
          "internalType": "address",
          "name": "trader",
          "type": "address"
        }
      ],
      "name": "getFreeCollateral",
      "outputs": [
        {
          "internalType": "uint256",
          "name": "",
          "type": "uint256"
        }
      ],
      "stateMutability": "view",
      "type": "function"
    },
    {
      "inputs": [
        {
          "internalType": "address",
          "name": "trader",
          "type": "address"
        },
        {
          "internalType": "uint24",
          "name": "ratio",
          "type": "uint24"
        }
      ],
      "name": "getFreeCollateralByRatio",
      "outputs": [
        {
          "internalType": "int256",
          "name": "",
          "type": "int256"
        }
      ],
      "stateMutability": "view",
      "type": "function"
    },
    {
      "inputs": [],
      "name": "getInsuranceFund",
      "outputs": [
        {
          "internalType": "address",
          "name": "",
          "type": "address"
        }
      ],
      "stateMutability": "view",
      "type": "function"
    },
    {
      "inputs": [],
      "name": "getSettlementToken",
      "outputs": [
        {
          "internalType": "address",
          "name": "",
          "type": "address"
        }
      ],
      "stateMutability": "view",
      "type": "function"
    },
    {
      "inputs": [],
      "name": "getTotalDebt",
      "outputs": [
        {
          "internalType": "uint256",
          "name": "",
          "type": "uint256"
        }
      ],
      "stateMutability": "view",
      "type": "function"
    },
    {
      "inputs": [],
      "name": "getTrustedForwarder",
      "outputs": [
        {
          "internalType": "address",
          "name": "",
          "type": "address"
        }
      ],
      "stateMutability": "view",
      "type": "function"
    },
    {
      "inputs": [
        {
          "internalType": "address",
          "name": "insuranceFundArg",
          "type": "address"
        },
        {
          "internalType": "address",
          "name": "clearingHouseConfigArg",
          "type": "address"
        },
        {
          "internalType": "address",
          "name": "accountBalanceArg",
          "type": "address"
        },
        {
          "internalType": "address",
          "name": "exchangeArg",
          "type": "address"
        }
      ],
      "name": "initialize",
      "outputs": [],
      "stateMutability": "nonpayable",
      "type": "function"
    },
    {
      "inputs": [
        {
          "internalType": "address",
          "name": "forwarder",
          "type": "address"
        }
      ],
      "name": "isTrustedForwarder",
      "outputs": [
        {
          "internalType": "bool",
          "name": "",
          "type": "bool"
        }
      ],
      "stateMutability": "view",
      "type": "function"
    },
    {
      "inputs": [],
      "name": "owner",
      "outputs": [
        {
          "internalType": "address",
          "name": "",
          "type": "address"
        }
      ],
      "stateMutability": "view",
      "type": "function"
    },
    {
      "inputs": [],
      "name": "pause",
      "outputs": [],
      "stateMutability": "nonpayable",
      "type": "function"
    },
    {
      "inputs": [],
      "name": "paused",
      "outputs": [
        {
          "internalType": "bool",
          "name": "",
          "type": "bool"
        }
      ],
      "stateMutability": "view",
      "type": "function"
    },
    {
      "inputs": [],
      "name": "renounceOwnership",
      "outputs": [],
      "stateMutability": "nonpayable",
      "type": "function"
    },
    {
      "inputs": [
        {
          "internalType": "address",
          "name": "newOwner",
          "type": "address"
        }
      ],
      "name": "setOwner",
      "outputs": [],
      "stateMutability": "nonpayable",
      "type": "function"
    },
    {
      "inputs": [
        {
          "internalType": "address",
          "name": "trustedForwarderArg",
          "type": "address"
        }
      ],
      "name": "setTrustedForwarder",
      "outputs": [],
      "stateMutability": "nonpayable",
      "type": "function"
    },
    {
      "inputs": [],
      "name": "unpause",
      "outputs": [],
      "stateMutability": "nonpayable",
      "type": "function"
    },
    {
      "inputs": [],
      "name": "updateOwner",
      "outputs": [],
      "stateMutability": "nonpayable",
      "type": "function"
    },
    {
      "inputs": [],
      "name": "versionRecipient",
      "outputs": [
        {
          "internalType": "string",
          "name": "",
          "type": "string"
        }
      ],
      "stateMutability": "pure",
      "type": "function"
    },
    {
      "inputs": [
        {
          "internalType": "address",
          "name": "token",
          "type": "address"
        },
        {
          "internalType": "uint256",
          "name": "amountX10_D",
          "type": "uint256"
        }
      ],
      "name": "withdraw",
      "outputs": [],
      "stateMutability": "nonpayable",
      "type": "function"
    }
  ],
  "bytecode": "0x608060405234801561001057600080fd5b5061281f806100206000396000f3fe608060405234801561001057600080fd5b50600436106101735760003560e01c80636c8381f8116100de578063c399944411610097578063f3fef3a311610071578063f3fef3a3146103b4578063f807cd22146103e0578063f8b2cb4f146103e8578063f8c8765e1461040e57610173565b8063c399944414610360578063ce1b815f14610386578063da7422281461038e57610173565b80636c8381f814610330578063715018a6146103385780638456cb59146103405780638da5cb5b14610348578063aa2a829414610350578063bc5920ba1461035857610173565b80633ffd1303116101305780633ffd13031461020c57806347e7ef241461023d578063486ff0cd14610269578063572b6c05146102e65780635c975abb146103205780636896fabf1461032857610173565b806312803c7d1461017857806313af40351461019c578063158626f7146101c4578063313ce567146101cc57806334ce998a146101ea5780633f4ba83a14610204575b600080fd5b61018061044c565b604080516001600160a01b039092168252519081900360200190f35b6101c2600480360360208110156101b257600080fd5b50356001600160a01b0316610462565b005b6101806105bd565b6101d46105cd565b6040805160ff9092168252519081900360200190f35b6101f26105d7565b60408051918252519081900360200190f35b6101c26105de565b6101f26004803603604081101561022257600080fd5b5080356001600160a01b0316906020013562ffffff16610645565b6101c26004803603604081101561025357600080fd5b506001600160a01b0381351690602001356107e5565b610271610bc5565b6040805160208082528351818301528351919283929083019185019080838360005b838110156102ab578181015183820152602001610293565b50505050905090810190601f1680156102d85780820380516001836020036101000a031916815260200191505b509250505060405180910390f35b61030c600480360360208110156102fc57600080fd5b50356001600160a01b0316610be4565b604080519115158252519081900360200190f35b61030c610bf8565b610180610c01565b610180610c11565b6101c2610c20565b6101c2610cd3565b610180610d38565b610180610d47565b6101c2610d57565b6101f26004803603602081101561037657600080fd5b50356001600160a01b0316610e55565b610180610ef3565b6101c2600480360360208110156103a457600080fd5b50356001600160a01b0316610f02565b6101c2600480360360408110156103ca57600080fd5b506001600160a01b038135169060200135610fb6565b6101806113e0565b6101f2600480360360208110156103fe57600080fd5b50356001600160a01b03166113f0565b6101c26004803603608081101561042457600080fd5b506001600160a01b038135811691602081013582169160408201358116916060013516611423565b6101305461010090046001600160a01b03165b90565b61046a61174d565b6001600160a01b031661047b610d38565b6001600160a01b0316146104bf576040805162461bcd60e51b8152602060048201526006602482015265534f5f434e4f60d01b604482015290519081900360640190fd5b6001600160a01b038116610503576040805162461bcd60e51b81526020600482015260066024820152650534f5f4e57360d41b604482015290519081900360640190fd5b6065546001600160a01b038281169116141561054f576040805162461bcd60e51b8152602060048201526006602482015265534f5f53414f60d01b604482015290519081900360640190fd5b6066546001600160a01b038281169116141561059b576040805162461bcd60e51b8152602060048201526006602482015265534f5f53414360d01b604482015290519081900360640190fd5b606680546001600160a01b0319166001600160a01b0392909216919091179055565b610133546001600160a01b031690565b6101305460ff1690565b6101355490565b6105e661174d565b6001600160a01b03166105f7610d38565b6001600160a01b03161461063b576040805162461bcd60e51b8152602060048201526006602482015265534f5f434e4f60d01b604482015290519081900360640190fd5b61064361175c565b565b61013454604080516380f57f1160e01b81526001600160a01b0385811660048301529151600093849316916380f57f11916024808301926020929190829003018186803b15801561069557600080fd5b505afa1580156106a9573d6000803e3d6000fd5b505050506040513d60208110156106bf57600080fd5b5051610132546040805163c5bba90f60e01b81526001600160a01b03888116600483015282519495506000948594919091169263c5bba90f9260248082019391829003018186803b15801561071357600080fd5b505afa158015610727573d6000803e3d6000fd5b505050506040513d604081101561073d57600080fd5b50805160209091015161013054919350915060009061077c9061076d9060ff1661076786886117fc565b90611868565b610776896113f0565b9061187e565b6101305490915060009061079f9061079890859060ff16611868565b839061187e565b905060006107ad89896118e3565b610130549091506107d8906107c89060ff1661076784611973565b6107d285856119bf565b906117fc565b9998505050505050505050565b6107ed610bf8565b15610832576040805162461bcd60e51b815260206004820152601060248201526f14185d5cd8589b194e881c185d5cd95960821b604482015290519081900360640190fd5b6002600154141561088a576040805162461bcd60e51b815260206004820152601f60248201527f5265656e7472616e637947756172643a207265656e7472616e742063616c6c00604482015290519081900360640190fd5b60026001556101305482906001600160a01b0380831661010090920416146108e1576040805162461bcd60e51b81526020600482015260056024820152641597d3d4d560da1b604482015290519081900360640190fd5b60006108eb61174d565b905061090081856108fb86611973565b6119d5565b6000846001600160a01b03166370a08231306040518263ffffffff1660e01b815260040180826001600160a01b0316815260200191505060206040518083038186803b15801561094f57600080fd5b505afa158015610963573d6000803e3d6000fd5b505050506040513d602081101561097957600080fd5b5051905061098985833087611a38565b83610a0d82876001600160a01b03166370a08231306040518263ffffffff1660e01b815260040180826001600160a01b0316815260200191505060206040518083038186803b1580156109db57600080fd5b505afa1580156109ef573d6000803e3d6000fd5b505050506040513d6020811015610a0557600080fd5b505190611a98565b14610a47576040805162461bcd60e51b8152602060048201526005602482015264565f49424160d81b604482015290519081900360640190fd5b61013154604080516385eacc7760e01b815290516000926001600160a01b0316916385eacc77916004808301926020929190829003018186803b158015610a8d57600080fd5b505afa158015610aa1573d6000803e3d6000fd5b505050506040513d6020811015610ab757600080fd5b5051604080516370a0823160e01b8152306004820152905191925082916001600160a01b038916916370a08231916024808301926020929190829003018186803b158015610b0457600080fd5b505afa158015610b18573d6000803e3d6000fd5b505050506040513d6020811015610b2e57600080fd5b50511115610b6e576040805162461bcd60e51b8152602060048201526008602482015267565f47545354424360c01b604482015290519081900360640190fd5b826001600160a01b0316866001600160a01b03167f8752a472e571a816aea92eec8dae9baf628e840f4929fbcc2d155e6233ff68a7876040518082815260200191505060405180910390a350506001805550505050565b6040805180820190915260058152640322e302e360dc1b602082015290565b60fd546001600160a01b0390811691161490565b60995460ff1690565b610132546001600160a01b031690565b6066546001600160a01b031690565b610c2861174d565b6001600160a01b0316610c39610d38565b6001600160a01b031614610c7d576040805162461bcd60e51b8152602060048201526006602482015265534f5f434e4f60d01b604482015290519081900360640190fd5b6065546040516000916001600160a01b0316907f8be0079c531659141344cd1fd0a4f28419497f9722a3daafe3b4186f6b6457e0908390a3606580546001600160a01b0319908116909155606680549091169055565b610cdb61174d565b6001600160a01b0316610cec610d38565b6001600160a01b031614610d30576040805162461bcd60e51b8152602060048201526006602482015265534f5f434e4f60d01b604482015290519081900360640190fd5b610643611af5565b6065546001600160a01b031690565b610131546001600160a01b031690565b6066546001600160a01b0316610d9c576040805162461bcd60e51b81526020600482015260056024820152640534f5f43360dc1b604482015290519081900360640190fd5b610da461174d565b6066546001600160a01b03908116911614610def576040805162461bcd60e51b8152602060048201526006602482015265534f5f434e4360d01b604482015290519081900360640190fd5b6066546065546040516001600160a01b0392831692909116907f8be0079c531659141344cd1fd0a4f28419497f9722a3daafe3b4186f6b6457e090600090a360668054606580546001600160a01b03199081166001600160a01b03841617909155169055565b6000610eed610ee8610ee18461013160009054906101000a90046001600160a01b03166001600160a01b031663543ce73a6040518163ffffffff1660e01b815260040160206040518083038186803b158015610eb057600080fd5b505afa158015610ec4573d6000803e3d6000fd5b505050506040513d6020811015610eda57600080fd5b5051610645565b6000611b78565b611b88565b92915050565b60fd546001600160a01b031690565b610f0a61174d565b6001600160a01b0316610f1b610d38565b6001600160a01b031614610f5f576040805162461bcd60e51b8152602060048201526006602482015265534f5f434e4f60d01b604482015290519081900360640190fd5b610f71816001600160a01b0316611bdf565b610faa576040805162461bcd60e51b8152602060048201526005602482015264565f414e4360d81b604482015290519081900360640190fd5b610fb381611be5565b50565b610fbe610bf8565b15611003576040805162461bcd60e51b815260206004820152601060248201526f14185d5cd8589b194e881c185d5cd95960821b604482015290519081900360640190fd5b6002600154141561105b576040805162461bcd60e51b815260206004820152601f60248201527f5265656e7472616e637947756172643a207265656e7472616e742063616c6c00604482015290519081900360640190fd5b60026001556101305482906001600160a01b0380831661010090920416146110b2576040805162461bcd60e51b81526020600482015260056024820152641597d3d4d560da1b604482015290519081900360640190fd5b60006110bc61174d565b61013454604080516375cdc89760e11b81526001600160a01b038085166004830152915193945091169163eb9b912e9160248082019260009290919082900301818387803b15801561110d57600080fd5b505af1158015611121573d6000803e3d6000fd5b5050610132546040805163fd6ceee560e01b81526001600160a01b03868116600483015291516000955091909216925063fd6ceee59160248082019260209290919082900301818787803b15801561117857600080fd5b505af115801561118c573d6000803e3d6000fd5b505050506040513d60208110156111a257600080fd5b50516101315460408051632a1e739d60e11b815290519293506000926111f69286926001600160a01b039091169163543ce73a91600480820192602092909190829003018186803b158015610eb057600080fd5b905061120185611973565b610130546112179061079890859060ff16611868565b1215611253576040805162461bcd60e51b8152602060048201526006602482015265565f4e45464360d01b604482015290519081900360640190fd5b6000866001600160a01b03166370a08231306040518263ffffffff1660e01b815260040180826001600160a01b0316815260200191505060206040518083038186803b1580156112a257600080fd5b505afa1580156112b6573d6000803e3d6000fd5b505050506040513d60208110156112cc57600080fd5b505190508581101561134d57610133546040805163317afabb60e21b815283890360048201819052915191926001600160a01b03169163c5ebeaec9160248082019260009290919082900301818387803b15801561132957600080fd5b505af115801561133d573d6000803e3d6000fd5b5050610135805490930190925550505b6101305461137d90859089906108fb906113789061136f90899060ff16611868565b6107d28c611973565b611c39565b611388878588611c6e565b836001600160a01b0316876001600160a01b03167fd1c19fbcd4551a5edfb66d43d2e337c04837afda3482b42bdf569a8fccdae5fb886040518082815260200191505060405180910390a35050600180555050505050565b610134546001600160a01b031690565b6001600160a01b039081166000908152610136602090815260408083206101305461010090049094168352929052205490565b600054610100900460ff168061143c575061143c611cc5565b8061144a575060005460ff16155b6114855760405162461bcd60e51b815260040180806020018281038252602e815260200180612725602e913960400191505060405180910390fd5b600054610100900460ff161580156114b0576000805460ff1961ff0019909116610100171660011790555b6000856001600160a01b03166321df0da76040518163ffffffff1660e01b815260040160206040518083038186803b1580156114eb57600080fd5b505afa1580156114ff573d6000803e3d6000fd5b505050506040513d602081101561151557600080fd5b50516040805163313ce56760e01b815290519192506000916001600160a01b0384169163313ce567916004808301926020929190829003018186803b15801561155d57600080fd5b505afa158015611571573d6000803e3d6000fd5b505050506040513d602081101561158757600080fd5b50519050601260ff821611156115cd576040805162461bcd60e51b81526020600482015260066024820152651597d254d51160d21b604482015290519081900360640190fd5b6115df866001600160a01b0316611bdf565b61161a576040805162461bcd60e51b8152602060048201526007602482015266565f4348434e4360c81b604482015290519081900360640190fd5b61162c856001600160a01b0316611bdf565b611666576040805162461bcd60e51b8152602060048201526006602482015265565f41424e4360d01b604482015290519081900360640190fd5b611678846001600160a01b0316611bdf565b6116b1576040805162461bcd60e51b8152602060048201526005602482015264565f454e4360d81b604482015290519081900360640190fd5b6116b9611cd6565b6116c1611d7f565b610130805460ff191660ff9290921691909117610100600160a81b0319166101006001600160a01b039384160217905561013380546001600160a01b031990811688841617909155610131805482168784161790556101328054821686841617905561013480549091169184169190911790558015611746576000805461ff00191690555b5050505050565b6000611757611e1c565b905090565b611764610bf8565b6117ac576040805162461bcd60e51b815260206004820152601460248201527314185d5cd8589b194e881b9bdd081c185d5cd95960621b604482015290519081900360640190fd5b6099805460ff191690557f5db9ee0a495bf2e6ff9c91a7834c1ba4fdd244a5e8aa4e537bd38aeae4b073aa6117df61174d565b604080516001600160a01b039092168252519081900360200190a1565b60008183038183128015906118115750838113155b80611826575060008312801561182657508381135b6118615760405162461bcd60e51b815260040180806020018281038252602481526020018061279c6024913960400191505060405180910390fd5b9392505050565b60006118618360ff601285900316600a0a611e4c565b60008282018183128015906118935750838112155b806118a857506000831280156118a857508381125b6118615760405162461bcd60e51b81526004018080602001828103825260218152602001806126de6021913960400191505060405180910390fd5b610132546040805163293a507760e01b81526001600160a01b03858116600483015291516000938493169163293a5077916024808301926020929190829003018186803b15801561193357600080fd5b505afa158015611947573d6000803e3d6000fd5b505050506040513d602081101561195d57600080fd5b5051905061196b8184611f04565b949350505050565b60006001600160ff1b038211156119bb5760405162461bcd60e51b81526004018080602001828103825260288152602001806127746028913960400191505060405180910390fd5b5090565b60008183126119ce5781611861565b5090919050565b6001600160a01b0380841660009081526101366020908152604080832093861683529290522054611a06908261187e565b6001600160a01b0393841660009081526101366020908152604080832095909616825293909352929091209190915550565b604080516001600160a01b0380861660248301528416604482015260648082018490528251808303909101815260849091019091526020810180516001600160e01b03166323b872dd60e01b179052611a92908590611f19565b50505050565b600082821115611aef576040805162461bcd60e51b815260206004820152601e60248201527f536166654d6174683a207375627472616374696f6e206f766572666c6f770000604482015290519081900360640190fd5b50900390565b611afd610bf8565b15611b42576040805162461bcd60e51b815260206004820152601060248201526f14185d5cd8589b194e881c185d5cd95960821b604482015290519081900360640190fd5b6099805460ff191660011790557f62e78cea01bee320cd4e420270b5ea74000d11b0c9f74754ebdbfc544b05a2586117df61174d565b6000818312156119ce5781611861565b6000808212156119bb576040805162461bcd60e51b815260206004820181905260248201527f53616665436173743a2076616c7565206d75737420626520706f736974697665604482015290519081900360640190fd5b3b151590565b60fd80546001600160a01b0383166001600160a01b0319909116811790915560408051918252517fa4388ecc389b1390354ae0c65a856c0d7dd4fb648419f5d3ac0b99e38f46fd119181900360200190a150565b6000600160ff1b8213611c675760405162461bcd60e51b8152600401611c5e906126a6565b60405180910390fd5b5060000390565b604080516001600160a01b038416602482015260448082018490528251808303909101815260649091019091526020810180516001600160e01b031663a9059cbb60e01b179052611cc0908490611f19565b505050565b6000611cd030611bdf565b15905090565b600054610100900460ff1680611cef5750611cef611cc5565b80611cfd575060005460ff16155b611d385760405162461bcd60e51b815260040180806020018281038252602e815260200180612725602e913960400191505060405180910390fd5b600054610100900460ff16158015611d63576000805460ff1961ff0019909116610100171660011790555b611d6b611fca565b8015610fb3576000805461ff001916905550565b600054610100900460ff1680611d985750611d98611cc5565b80611da6575060005460ff16155b611de15760405162461bcd60e51b815260040180806020018281038252602e815260200180612725602e913960400191505060405180910390fd5b600054610100900460ff16158015611e0c576000805460ff1961ff0019909116610100171660011790555b611e1461206f565b611d6b612170565b600060143610801590611e335750611e3333610be4565b15611e47575060131936013560601c61045f565b503390565b600081611ea0576040805162461bcd60e51b815260206004820181905260248201527f5369676e6564536166654d6174683a206469766973696f6e206279207a65726f604482015290519081900360640190fd5b81600019148015611eb45750600160ff1b83145b15611ef05760405162461bcd60e51b81526004018080602001828103825260218152602001806127536021913960400191505060405180910390fd5b6000828481611efb57fe5b05949350505050565b6000611861838362ffffff16620f424061220d565b6000611f6e826040518060400160405280602081526020017f5361666545524332303a206c6f772d6c6576656c2063616c6c206661696c6564815250856001600160a01b03166122bc9092919063ffffffff16565b805190915015611cc057808060200190516020811015611f8d57600080fd5b5051611cc05760405162461bcd60e51b815260040180806020018281038252602a8152602001806127c0602a913960400191505060405180910390fd5b600054610100900460ff1680611fe35750611fe3611cc5565b80611ff1575060005460ff16155b61202c5760405162461bcd60e51b815260040180806020018281038252602e815260200180612725602e913960400191505060405180910390fd5b600054610100900460ff16158015612057576000805460ff1961ff0019909116610100171660011790555b600180558015610fb3576000805461ff001916905550565b600054610100900460ff16806120885750612088611cc5565b80612096575060005460ff16155b6120d15760405162461bcd60e51b815260040180806020018281038252602e815260200180612725602e913960400191505060405180910390fd5b600054610100900460ff161580156120fc576000805460ff1961ff0019909116610100171660011790555b6121046122cb565b600061210e61174d565b606580546001600160a01b0319166001600160a01b038316908117909155604051919250906000907f8be0079c531659141344cd1fd0a4f28419497f9722a3daafe3b4186f6b6457e0908290a3508015610fb3576000805461ff001916905550565b600054610100900460ff16806121895750612189611cc5565b80612197575060005460ff16155b6121d25760405162461bcd60e51b815260040180806020018281038252602e815260200180612725602e913960400191505060405180910390fd5b600054610100900460ff161580156121fd576000805460ff1961ff0019909116610100171660011790555b61220561235c565b611d6b6123fc565b6000808060001985870986860292508281109083900303905080612243576000841161223857600080fd5b508290049050611861565b80841161224f57600080fd5b6000848688096000868103871696879004966002600389028118808a02820302808a02820302808a02820302808a02820302808a02820302808a02909103029181900381900460010186841190950394909402919094039290920491909117919091029150509392505050565b606061196b84846000856124a7565b600054610100900460ff16806122e457506122e4611cc5565b806122f2575060005460ff16155b61232d5760405162461bcd60e51b815260040180806020018281038252602e815260200180612725602e913960400191505060405180910390fd5b600054610100900460ff16158015612358576000805460ff1961ff0019909116610100171660011790555b611d6b5b600054610100900460ff16806123755750612375611cc5565b80612383575060005460ff16155b6123be5760405162461bcd60e51b815260040180806020018281038252602e815260200180612725602e913960400191505060405180910390fd5b600054610100900460ff16158015611d6b576000805460ff1961ff0019909116610100171660011790558015610fb3576000805461ff001916905550565b600054610100900460ff16806124155750612415611cc5565b80612423575060005460ff16155b61245e5760405162461bcd60e51b815260040180806020018281038252602e815260200180612725602e913960400191505060405180910390fd5b600054610100900460ff16158015612489576000805460ff1961ff0019909116610100171660011790555b6099805460ff191690558015610fb3576000805461ff001916905550565b6060824710156124e85760405162461bcd60e51b81526004018080602001828103825260268152602001806126ff6026913960400191505060405180910390fd5b6124f185611bdf565b612542576040805162461bcd60e51b815260206004820152601d60248201527f416464726573733a2063616c6c20746f206e6f6e2d636f6e7472616374000000604482015290519081900360640190fd5b600080866001600160a01b031685876040518082805190602001908083835b602083106125805780518252601f199092019160209182019101612561565b6001836020036101000a03801982511681845116808217855250505050505090500191505060006040518083038185875af1925050503d80600081146125e2576040519150601f19603f3d011682016040523d82523d6000602084013e6125e7565b606091505b50915091506125f7828286612602565b979650505050505050565b60608315612611575081611861565b8251156126215782518084602001fd5b8160405162461bcd60e51b81526004018080602001828103825283818151815260200191508051906020019080838360005b8381101561266b578181015183820152602001612653565b50505050905090810190601f1680156126985780820380516001836020036101000a031916815260200191505b509250505060405180910390fd5b6020808252601c908201527f506572704d6174683a20696e76657273696f6e206f766572666c6f770000000060408201526060019056fe5369676e6564536166654d6174683a206164646974696f6e206f766572666c6f77416464726573733a20696e73756666696369656e742062616c616e636520666f722063616c6c496e697469616c697a61626c653a20636f6e747261637420697320616c726561647920696e697469616c697a65645369676e6564536166654d6174683a206469766973696f6e206f766572666c6f7753616665436173743a2076616c756520646f65736e27742066697420696e20616e20696e743235365369676e6564536166654d6174683a207375627472616374696f6e206f766572666c6f775361666545524332303a204552433230206f7065726174696f6e20646964206e6f742073756363656564a26469706673582212209cd268db44e6075960fb0ae6dffeaf1a2fd22bf76f544ce86773dabd450b96fd64736f6c63430007060033",
  "linkReferences": {},
  "deployedLinkReferences": {}
}