{
  "_format": "hh-sol-artifact-1",
  "contractName": "PerpV2QuoteToken",
  "sourceName": "contracts/QuoteToken.sol",
  "abi": [
    {
      "anonymous": false,
      "inputs": [
        {
          "indexed": true,
          "internalType": "address",
          "name": "owner",
          "type": "address"
        },
        {
          "indexed": true,
          "internalType": "address",
          "name": "spender",
          "type": "address"
        },
        {
          "indexed": false,
          "internalType": "uint256",
          "name": "value",
          "type": "uint256"
        }
      ],
      "name": "Approval",
      "type": "event"
    },
    {
      "anonymous": false,
      "inputs": [
        {
          "indexed": true,
          "internalType": "address",
          "name": "previousOwner",
          "type": "address"
        },
        {
          "indexed": true,
          "internalType": "address",
          "name": "newOwner",
          "type": "address"
        }
      ],
      "name": "OwnershipTransferred",
      "type": "event"
    },
    {
      "anonymous": false,
      "inputs": [
        {
          "indexed": true,
          "internalType": "address",
          "name": "from",
          "type": "address"
        },
        {
          "indexed": true,
          "internalType": "address",
          "name": "to",
          "type": "address"
        },
        {
          "indexed": false,
          "internalType": "uint256",
          "name": "value",
          "type": "uint256"
        }
      ],
      "name": "Transfer",
      "type": "event"
    },
    {
      "anonymous": false,
      "inputs": [
        {
          "indexed": false,
          "internalType": "address",
          "name": "account",
          "type": "address"
        }
      ],
      "name": "WhitelistAdded",
      "type": "event"
    },
    {
      "anonymous": false,
      "inputs": [
        {
          "indexed": false,
          "internalType": "address",
          "name": "account",
          "type": "address"
        }
      ],
      "name": "WhitelistRemoved",
      "type": "event"
    },
    {
      "inputs": [
        {
          "internalType": "address",
          "name": "account",
          "type": "address"
        }
      ],
      "name": "addWhitelist",
      "outputs": [],
      "stateMutability": "nonpayable",
      "type": "function"
    },
    {
      "inputs": [
        {
          "internalType": "address",
          "name": "owner",
          "type": "address"
        },
        {
          "internalType": "address",
          "name": "spender",
          "type": "address"
        }
      ],
      "name": "allowance",
      "outputs": [
        {
          "internalType": "uint256",
          "name": "",
          "type": "uint256"
        }
      ],
      "stateMutability": "view",
      "type": "function"
    },
    {
      "inputs": [
        {
          "internalType": "address",
          "name": "spender",
          "type": "address"
        },
        {
          "internalType": "uint256",
          "name": "amount",
          "type": "uint256"
        }
      ],
      "name": "approve",
      "outputs": [
        {
          "internalType": "bool",
          "name": "",
          "type": "bool"
        }
      ],
      "stateMutability": "nonpayable",
      "type": "function"
    },
    {
      "inputs": [
        {
          "internalType": "address",
          "name": "account",
          "type": "address"
        }
      ],
      "name": "balanceOf",
      "outputs": [
        {
          "internalType": "uint256",
          "name": "",
          "type": "uint256"
        }
      ],
      "stateMutability": "view",
      "type": "function"
    },
    {
      "inputs": [],
      "name": "candidate",
      "outputs": [
        {
          "internalType": "address",
          "name": "",
          "type": "address"
        }
      ],
      "stateMutability": "view",
      "type": "function"
    },
    {
      "inputs": [],
      "name": "decimals",
      "outputs": [
        {
          "internalType": "uint8",
          "name": "",
          "type": "uint8"
        }
      ],
      "stateMutability": "view",
      "type": "function"
    },
    {
      "inputs": [
        {
          "internalType": "address",
          "name": "spender",
          "type": "address"
        },
        {
          "internalType": "uint256",
          "name": "subtractedValue",
          "type": "uint256"
        }
      ],
      "name": "decreaseAllowance",
      "outputs": [
        {
          "internalType": "bool",
          "name": "",
          "type": "bool"
        }
      ],
      "stateMutability": "nonpayable",
      "type": "function"
    },
    {
      "inputs": [
        {
          "internalType": "address",
          "name": "spender",
          "type": "address"
        },
        {
          "internalType": "uint256",
          "name": "addedValue",
          "type": "uint256"
        }
      ],
      "name": "increaseAllowance",
      "outputs": [
        {
          "internalType": "bool",
          "name": "",
          "type": "bool"
        }
      ],
      "stateMutability": "nonpayable",
      "type": "function"
    },
    {
      "inputs": [
        {
          "internalType": "string",
          "name": "nameArg",
          "type": "string"
        },
        {
          "internalType": "string",
          "name": "symbolArg",
          "type": "string"
        }
      ],
      "name": "initialize",
      "outputs": [],
      "stateMutability": "nonpayable",
      "type": "function"
    },
    {
      "inputs": [
        {
          "internalType": "address",
          "name": "account",
          "type": "address"
        }
      ],
      "name": "isInWhitelist",
      "outputs": [
        {
          "internalType": "bool",
          "name": "",
          "type": "bool"
        }
      ],
      "stateMutability": "view",
      "type": "function"
    },
    {
      "inputs": [
        {
          "internalType": "address",
          "name": "recipient",
          "type": "address"
        }
      ],
      "name": "mintMaximumTo",
      "outputs": [],
      "stateMutability": "nonpayable",
      "type": "function"
    },
    {
      "inputs": [],
      "name": "name",
      "outputs": [
        {
          "internalType": "string",
          "name": "",
          "type": "string"
        }
      ],
      "stateMutability": "view",
      "type": "function"
    },
    {
      "inputs": [],
      "name": "owner",
      "outputs": [
        {
          "internalType": "address",
          "name": "",
          "type": "address"
        }
      ],
      "stateMutability": "view",
      "type": "function"
    },
    {
      "inputs": [
        {
          "internalType": "address",
          "name": "account",
          "type": "address"
        }
      ],
      "name": "removeWhitelist",
      "outputs": [],
      "stateMutability": "nonpayable",
      "type": "function"
    },
    {
      "inputs": [],
      "name": "renounceOwnership",
      "outputs": [],
      "stateMutability": "nonpayable",
      "type": "function"
    },
    {
      "inputs": [
        {
          "internalType": "address",
          "name": "newOwner",
          "type": "address"
        }
      ],
      "name": "setOwner",
      "outputs": [],
      "stateMutability": "nonpayable",
      "type": "function"
    },
    {
      "inputs": [],
      "name": "symbol",
      "outputs": [
        {
          "internalType": "string",
          "name": "",
          "type": "string"
        }
      ],
      "stateMutability": "view",
      "type": "function"
    },
    {
      "inputs": [],
      "name": "totalSupply",
      "outputs": [
        {
          "internalType": "uint256",
          "name": "",
          "type": "uint256"
        }
      ],
      "stateMutability": "view",
      "type": "function"
    },
    {
      "inputs": [
        {
          "internalType": "address",
          "name": "recipient",
          "type": "address"
        },
        {
          "internalType": "uint256",
          "name": "amount",
          "type": "uint256"
        }
      ],
      "name": "transfer",
      "outputs": [
        {
          "internalType": "bool",
          "name": "",
          "type": "bool"
        }
      ],
      "stateMutability": "nonpayable",
      "type": "function"
    },
    {
      "inputs": [
        {
          "internalType": "address",
          "name": "sender",
          "type": "address"
        },
        {
          "internalType": "address",
          "name": "recipient",
          "type": "address"
        },
        {
          "internalType": "uint256",
          "name": "amount",
          "type": "uint256"
        }
      ],
      "name": "transferFrom",
      "outputs": [
        {
          "internalType": "bool",
          "name": "",
          "type": "bool"
        }
      ],
      "stateMutability": "nonpayable",
      "type": "function"
    },
    {
      "inputs": [],
      "name": "updateOwner",
      "outputs": [],
      "stateMutability": "nonpayable",
      "type": "function"
    }
  ],
  "bytecode": "0x608060405234801561001057600080fd5b50611910806100206000396000f3fe608060405234801561001057600080fd5b50600436106101075760003560e01c806306fdde031461010c578063095ea7b31461018957806309fd8212146101c957806313af4035146101ef57806318160ddd1461021757806323b872dd14610231578063313ce5671461026757806339509351146102855780634cd88b76146102b15780636c8381f8146103da57806370a08231146103fe578063715018a61461042457806378c8cda71461042c5780638da5cb5b1461045257806395d89b411461045a578063a457c2d714610462578063a9059cbb1461048e578063bc5920ba146104ba578063dd62ed3e146104c2578063f52e308e146104f0578063f80f5dd514610516575b600080fd5b61011461053c565b6040805160208082528351818301528351919283929083019185019080838360005b8381101561014e578181015183820152602001610136565b50505050905090810190601f16801561017b5780820380516001836020036101000a031916815260200191505b509250505060405180910390f35b6101b56004803603604081101561019f57600080fd5b506001600160a01b0381351690602001356105d2565b604080519115158252519081900360200190f35b6101b5600480360360208110156101df57600080fd5b50356001600160a01b03166105ef565b6102156004803603602081101561020557600080fd5b50356001600160a01b031661060d565b005b61021f610768565b60408051918252519081900360200190f35b6101b56004803603606081101561024757600080fd5b506001600160a01b0381358116916020810135909116906040013561076e565b61026f6107f5565b6040805160ff9092168252519081900360200190f35b6101b56004803603604081101561029b57600080fd5b506001600160a01b0381351690602001356107fe565b610215600480360360408110156102c757600080fd5b810190602081018135600160201b8111156102e157600080fd5b8201836020820111156102f357600080fd5b803590602001918460018302840111600160201b8311171561031457600080fd5b91908080601f0160208091040260200160405190810160405280939291908181526020018383808284376000920191909152509295949360208101935035915050600160201b81111561036657600080fd5b82018360208201111561037857600080fd5b803590602001918460018302840111600160201b8311171561039957600080fd5b91908080601f01602080910402602001604051908101604052809392919081815260200183838082843760009201919091525092955061084c945050505050565b6103e26108fa565b604080516001600160a01b039092168252519081900360200190f35b61021f6004803603602081101561041457600080fd5b50356001600160a01b0316610909565b610215610924565b6102156004803603602081101561044257600080fd5b50356001600160a01b03166109c5565b6103e2610abe565b610114610acd565b6101b56004803603604081101561047857600080fd5b506001600160a01b038135169060200135610b2e565b6101b5600480360360408110156104a457600080fd5b506001600160a01b038135169060200135610b96565b610215610baa565b61021f600480360360408110156104d857600080fd5b506001600160a01b0381358116916020013516610c96565b6102156004803603602081101561050657600080fd5b50356001600160a01b0316610cc1565b6102156004803603602081101561052c57600080fd5b50356001600160a01b0316610d2d565b606a8054604080516020601f60026000196101006001881615020190951694909404938401819004810282018101909252828152606093909290918301828280156105c85780601f1061059d576101008083540402835291602001916105c8565b820191906000526020600020905b8154815290600101906020018083116105ab57829003601f168201915b5050505050905090565b60006105e66105df610de5565b8484610de9565b50600192915050565b6001600160a01b031660009081526099602052604090205460ff1690565b610615610de5565b6001600160a01b0316610626610abe565b6001600160a01b03161461066a576040805162461bcd60e51b8152602060048201526006602482015265534f5f434e4f60d01b604482015290519081900360640190fd5b6001600160a01b0381166106ae576040805162461bcd60e51b81526020600482015260066024820152650534f5f4e57360d41b604482015290519081900360640190fd5b6033546001600160a01b03828116911614156106fa576040805162461bcd60e51b8152602060048201526006602482015265534f5f53414f60d01b604482015290519081900360640190fd5b6034546001600160a01b0382811691161415610746576040805162461bcd60e51b8152602060048201526006602482015265534f5f53414360d01b604482015290519081900360640190fd5b603480546001600160a01b0319166001600160a01b0392909216919091179055565b60695490565b600061077b848484610ed5565b6107eb84610787610de5565b6107e685604051806060016040528060288152602001611805602891396001600160a01b038a166000908152606860205260408120906107c5610de5565b6001600160a01b031681526020810191909152604001600020549190611020565b610de9565b5060019392505050565b606c5460ff1690565b60006105e661080b610de5565b846107e6856068600061081c610de5565b6001600160a01b03908116825260208083019390935260409182016000908120918c1681529252902054906110b7565b600054610100900460ff16806108655750610865611116565b80610873575060005460ff16155b6108ae5760405162461bcd60e51b815260040180806020018281038252602e8152602001806117d7602e913960400191505060405180910390fd5b600054610100900460ff161580156108d9576000805460ff1961ff0019909116610100171660011790555b6108e38383611127565b80156108f5576000805461ff00191690555b505050565b6034546001600160a01b031690565b6001600160a01b031660009081526067602052604090205490565b61092c610de5565b6001600160a01b031661093d610abe565b6001600160a01b031614610981576040805162461bcd60e51b8152602060048201526006602482015265534f5f434e4f60d01b604482015290519081900360640190fd5b6033546040516000916001600160a01b03169060008051602061182d833981519152908390a3603380546001600160a01b0319908116909155603480549091169055565b6109cd610de5565b6001600160a01b03166109de610abe565b6001600160a01b031614610a22576040805162461bcd60e51b8152602060048201526006602482015265534f5f434e4f60d01b604482015290519081900360640190fd5b610a2b81610909565b15610a66576040805162461bcd60e51b81526020600482015260066024820152652b2a2fa1272d60d11b604482015290519081900360640190fd5b6001600160a01b038116600081815260996020908152604091829020805460ff19169055815192835290517fde8cf212af7ce38b2840785a2768d97ff2dbf3c21b516961cec0061e134c2a1e9281900390910190a150565b6033546001600160a01b031690565b606b8054604080516020601f60026000196101006001881615020190951694909404938401819004810282018101909252828152606093909290918301828280156105c85780601f1061059d576101008083540402835291602001916105c8565b60006105e6610b3b610de5565b846107e6856040518060600160405280602581526020016118b66025913960686000610b65610de5565b6001600160a01b03908116825260208083019390935260409182016000908120918d16815292529020549190611020565b60006105e6610ba3610de5565b8484610ed5565b6034546001600160a01b0316610bef576040805162461bcd60e51b81526020600482015260056024820152640534f5f43360dc1b604482015290519081900360640190fd5b610bf7610de5565b6034546001600160a01b03908116911614610c42576040805162461bcd60e51b8152602060048201526006602482015265534f5f434e4360d01b604482015290519081900360640190fd5b6034546033546040516001600160a01b03928316929091169060008051602061182d83398151915290600090a360348054603380546001600160a01b03199081166001600160a01b03841617909155169055565b6001600160a01b03918216600090815260686020908152604080832093909416825291909152205490565b610cc9610de5565b6001600160a01b0316610cda610abe565b6001600160a01b031614610d1e576040805162461bcd60e51b8152602060048201526006602482015265534f5f434e4f60d01b604482015290519081900360640190fd5b610d2a816000196111c6565b50565b610d35610de5565b6001600160a01b0316610d46610abe565b6001600160a01b031614610d8a576040805162461bcd60e51b8152602060048201526006602482015265534f5f434e4f60d01b604482015290519081900360640190fd5b6001600160a01b038116600081815260996020908152604091829020805460ff19166001179055815192835290517f4790a4adb426ca2345bb5108f6e454eae852a7bf687544cd66a7270dff3a41d69281900390910190a150565b3390565b6001600160a01b038316610e2e5760405162461bcd60e51b81526004018080602001828103825260248152602001806118926024913960400191505060405180910390fd5b6001600160a01b038216610e735760405162461bcd60e51b815260040180806020018281038252602281526020018061178f6022913960400191505060405180910390fd5b6001600160a01b03808416600081815260686020908152604080832094871680845294825291829020859055815185815291517f8c5be1e5ebec7d5bd14f71427d1e84f3dd0314c0f7b2291e5b200ac8c7c3b9259281900390910190a3505050565b6001600160a01b038316610f1a5760405162461bcd60e51b815260040180806020018281038252602581526020018061186d6025913960400191505060405180910390fd5b6001600160a01b038216610f5f5760405162461bcd60e51b815260040180806020018281038252602381526020018061176c6023913960400191505060405180910390fd5b610f6a8383836112a6565b610fa7816040518060600160405280602681526020016117b1602691396001600160a01b0386166000908152606760205260409020549190611020565b6001600160a01b038085166000908152606760205260408082209390935590841681522054610fd690826110b7565b6001600160a01b03808416600081815260676020908152604091829020949094558051858152905191939287169260008051602061184d83398151915292918290030190a3505050565b600081848411156110af5760405162461bcd60e51b81526004018080602001828103825283818151815260200191508051906020019080838360005b8381101561107457818101518382015260200161105c565b50505050905090810190601f1680156110a15780820380516001836020036101000a031916815260200191505b509250505060405180910390fd5b505050900390565b60008282018381101561110f576040805162461bcd60e51b815260206004820152601b60248201527a536166654d6174683a206164646974696f6e206f766572666c6f7760281b604482015290519081900360640190fd5b9392505050565b600061112130611315565b15905090565b600054610100900460ff16806111405750611140611116565b8061114e575060005460ff16155b6111895760405162461bcd60e51b815260040180806020018281038252602e8152602001806117d7602e913960400191505060405180910390fd5b600054610100900460ff161580156111b4576000805460ff1961ff0019909116610100171660011790555b6111bc61131b565b6108e3838361140a565b6001600160a01b038216611221576040805162461bcd60e51b815260206004820152601f60248201527f45524332303a206d696e7420746f20746865207a65726f206164647265737300604482015290519081900360640190fd5b61122d600083836112a6565b60695461123a90826110b7565b6069556001600160a01b03821660009081526067602052604090205461126090826110b7565b6001600160a01b038316600081815260676020908152604080832094909455835185815293519293919260008051602061184d8339815191529281900390910190a35050565b6112b18383836108f5565b6001600160a01b038316156108f5576001600160a01b03831660009081526099602052604090205460ff166108f5576040805162461bcd60e51b815260206004820152600560248201526456545f4e5760d81b604482015290519081900360640190fd5b3b151590565b600054610100900460ff16806113345750611334611116565b80611342575060005460ff16155b61137d5760405162461bcd60e51b815260040180806020018281038252602e8152602001806117d7602e913960400191505060405180910390fd5b600054610100900460ff161580156113a8576000805460ff1961ff0019909116610100171660011790555b6113b06114a9565b60006113ba610de5565b603380546001600160a01b0319166001600160a01b0383169081179091556040519192509060009060008051602061182d833981519152908290a3508015610d2a576000805461ff001916905550565b600054610100900460ff16806114235750611423611116565b80611431575060005460ff16155b61146c5760405162461bcd60e51b815260040180806020018281038252602e8152602001806117d7602e913960400191505060405180910390fd5b600054610100900460ff16158015611497576000805460ff1961ff0019909116610100171660011790555b61149f611552565b6108e383836115f2565b600054610100900460ff16806114c257506114c2611116565b806114d0575060005460ff16155b61150b5760405162461bcd60e51b815260040180806020018281038252602e8152602001806117d7602e913960400191505060405180910390fd5b600054610100900460ff16158015611536576000805460ff1961ff0019909116610100171660011790555b61153e611552565b8015610d2a576000805461ff001916905550565b600054610100900460ff168061156b575061156b611116565b80611579575060005460ff16155b6115b45760405162461bcd60e51b815260040180806020018281038252602e8152602001806117d7602e913960400191505060405180910390fd5b600054610100900460ff1615801561153e576000805460ff1961ff0019909116610100171660011790558015610d2a576000805461ff001916905550565b600054610100900460ff168061160b575061160b611116565b80611619575060005460ff16155b6116545760405162461bcd60e51b815260040180806020018281038252602e8152602001806117d7602e913960400191505060405180910390fd5b600054610100900460ff1615801561167f576000805460ff1961ff0019909116610100171660011790555b825161169290606a9060208601906116ca565b5081516116a690606b9060208501906116ca565b50606c805460ff1916601217905580156108f5576000805461ff0019169055505050565b828054600181600116156101000203166002900490600052602060002090601f0160209004810192826117005760008555611746565b82601f1061171957805160ff1916838001178555611746565b82800160010185558215611746579182015b8281111561174657825182559160200191906001019061172b565b50611752929150611756565b5090565b5b80821115611752576000815560010161175756fe45524332303a207472616e7366657220746f20746865207a65726f206164647265737345524332303a20617070726f766520746f20746865207a65726f206164647265737345524332303a207472616e7366657220616d6f756e7420657863656564732062616c616e6365496e697469616c697a61626c653a20636f6e747261637420697320616c726561647920696e697469616c697a656445524332303a207472616e7366657220616d6f756e74206578636565647320616c6c6f77616e63658be0079c531659141344cd1fd0a4f28419497f9722a3daafe3b4186f6b6457e0ddf252ad1be2c89b69c2b068fc378daa952ba7f163c4a11628f55a4df523b3ef45524332303a207472616e736665722066726f6d20746865207a65726f206164647265737345524332303a20617070726f76652066726f6d20746865207a65726f206164647265737345524332303a2064656372656173656420616c6c6f77616e63652062656c6f77207a65726fa2646970667358221220db774a94579be82e34d2c20f22285dad2be0c63342e3f1a43d866aaa8f39f14664736f6c63430007060033",
  "linkReferences": {},
  "deployedLinkReferences": {}
}