{
  "_format": "hh-sol-artifact-1",
  "contractName": "PerpV2Vault",
  "sourceName": "contracts/Vault.sol",
  "abi": [
    {
      "anonymous": false,
      "inputs": [
        {
          "indexed": true,
          "internalType": "address",
          "name": "collateralToken",
          "type": "address"
        },
        {
          "indexed": true,
          "internalType": "address",
          "name": "trader",
          "type": "address"
        },
        {
          "indexed": false,
          "internalType": "uint256",
          "name": "amount",
          "type": "uint256"
        }
      ],
      "name": "Deposited",
      "type": "event"
    },
    {
      "anonymous": false,
      "inputs": [
        {
          "indexed": true,
          "internalType": "address",
          "name": "previousOwner",
          "type": "address"
        },
        {
          "indexed": true,
          "internalType": "address",
          "name": "newOwner",
          "type": "address"
        }
      ],
      "name": "OwnershipTransferred",
      "type": "event"
    },
    {
      "anonymous": false,
      "inputs": [
        {
          "indexed": false,
          "internalType": "address",
          "name": "account",
          "type": "address"
        }
      ],
      "name": "Paused",
      "type": "event"
    },
    {
      "anonymous": false,
      "inputs": [
        {
          "indexed": false,
          "internalType": "address",
          "name": "trustedForwarder",
          "type": "address"
        }
      ],
      "name": "TrustedForwarderUpdated",
      "type": "event"
    },
    {
      "anonymous": false,
      "inputs": [
        {
          "indexed": false,
          "internalType": "address",
          "name": "account",
          "type": "address"
        }
      ],
      "name": "Unpaused",
      "type": "event"
    },
    {
      "anonymous": false,
      "inputs": [
        {
          "indexed": true,
          "internalType": "address",
          "name": "collateralToken",
          "type": "address"
        },
        {
          "indexed": true,
          "internalType": "address",
          "name": "trader",
          "type": "address"
        },
        {
          "indexed": false,
          "internalType": "uint256",
          "name": "amount",
          "type": "uint256"
        }
      ],
      "name": "Withdrawn",
      "type": "event"
    },
    {
      "inputs": [],
      "name": "accountBalance",
      "outputs": [
        {
          "internalType": "address",
          "name": "",
          "type": "address"
        }
      ],
      "stateMutability": "view",
      "type": "function"
    },
    {
      "inputs": [
        {
          "internalType": "address",
          "name": "trader",
          "type": "address"
        }
      ],
      "name": "balanceOf",
      "outputs": [
        {
          "internalType": "int256",
          "name": "",
          "type": "int256"
        }
      ],
      "stateMutability": "view",
      "type": "function"
    },
    {
      "inputs": [],
      "name": "candidate",
      "outputs": [
        {
          "internalType": "address",
          "name": "",
          "type": "address"
        }
      ],
      "stateMutability": "view",
      "type": "function"
    },
    {
      "inputs": [],
      "name": "clearingHouseConfig",
      "outputs": [
        {
          "internalType": "address",
          "name": "",
          "type": "address"
        }
      ],
      "stateMutability": "view",
      "type": "function"
    },
    {
      "inputs": [],
      "name": "decimals",
      "outputs": [
        {
          "internalType": "uint8",
          "name": "",
          "type": "uint8"
        }
      ],
      "stateMutability": "view",
      "type": "function"
    },
    {
      "inputs": [
        {
          "internalType": "address",
          "name": "token",
          "type": "address"
        },
        {
          "internalType": "uint256",
          "name": "amount",
          "type": "uint256"
        }
      ],
      "name": "deposit",
      "outputs": [],
      "stateMutability": "nonpayable",
      "type": "function"
    },
    {
      "inputs": [],
      "name": "exchange",
      "outputs": [
        {
          "internalType": "address",
          "name": "",
          "type": "address"
        }
      ],
      "stateMutability": "view",
      "type": "function"
    },
    {
      "inputs": [
        {
          "internalType": "address",
          "name": "trader",
          "type": "address"
        }
      ],
      "name": "getFreeCollateral",
      "outputs": [
        {
          "internalType": "uint256",
          "name": "",
          "type": "uint256"
        }
      ],
      "stateMutability": "view",
      "type": "function"
    },
    {
      "inputs": [
        {
          "internalType": "address",
          "name": "trader",
          "type": "address"
        },
        {
          "internalType": "uint24",
          "name": "ratio",
          "type": "uint24"
        }
      ],
      "name": "getFreeCollateralByRatio",
      "outputs": [
        {
          "internalType": "int256",
          "name": "",
          "type": "int256"
        }
      ],
      "stateMutability": "view",
      "type": "function"
    },
    {
      "inputs": [
        {
          "internalType": "address",
          "name": "trader",
          "type": "address"
        }
      ],
      "name": "getLiquidateMarginRequirement",
      "outputs": [
        {
          "internalType": "int256",
          "name": "",
          "type": "int256"
        }
      ],
      "stateMutability": "view",
      "type": "function"
    },
    {
      "inputs": [
        {
          "internalType": "address",
          "name": "insuranceFundArg",
          "type": "address"
        },
        {
          "internalType": "address",
          "name": "clearingHouseConfigArg",
          "type": "address"
        },
        {
          "internalType": "address",
          "name": "accountBalanceArg",
          "type": "address"
        },
        {
          "internalType": "address",
          "name": "exchangeArg",
          "type": "address"
        }
      ],
      "name": "initialize",
      "outputs": [],
      "stateMutability": "nonpayable",
      "type": "function"
    },
    {
      "inputs": [],
      "name": "insuranceFund",
      "outputs": [
        {
          "internalType": "address",
          "name": "",
          "type": "address"
        }
      ],
      "stateMutability": "view",
      "type": "function"
    },
    {
      "inputs": [
        {
          "internalType": "address",
          "name": "forwarder",
          "type": "address"
        }
      ],
      "name": "isTrustedForwarder",
      "outputs": [
        {
          "internalType": "bool",
          "name": "",
          "type": "bool"
        }
      ],
      "stateMutability": "view",
      "type": "function"
    },
    {
      "inputs": [],
      "name": "owner",
      "outputs": [
        {
          "internalType": "address",
          "name": "",
          "type": "address"
        }
      ],
      "stateMutability": "view",
      "type": "function"
    },
    {
      "inputs": [],
      "name": "pause",
      "outputs": [],
      "stateMutability": "nonpayable",
      "type": "function"
    },
    {
      "inputs": [],
      "name": "paused",
      "outputs": [
        {
          "internalType": "bool",
          "name": "",
          "type": "bool"
        }
      ],
      "stateMutability": "view",
      "type": "function"
    },
    {
      "inputs": [],
      "name": "renounceOwnership",
      "outputs": [],
      "stateMutability": "nonpayable",
      "type": "function"
    },
    {
      "inputs": [
        {
          "internalType": "address",
          "name": "newOwner",
          "type": "address"
        }
      ],
      "name": "setOwner",
      "outputs": [],
      "stateMutability": "nonpayable",
      "type": "function"
    },
    {
      "inputs": [
        {
          "internalType": "address",
          "name": "trustedForwarderArg",
          "type": "address"
        }
      ],
      "name": "setTrustedForwarder",
      "outputs": [],
      "stateMutability": "nonpayable",
      "type": "function"
    },
    {
      "inputs": [],
      "name": "settlementToken",
      "outputs": [
        {
          "internalType": "address",
          "name": "",
          "type": "address"
        }
      ],
      "stateMutability": "view",
      "type": "function"
    },
    {
      "inputs": [],
      "name": "totalDebt",
      "outputs": [
        {
          "internalType": "uint256",
          "name": "",
          "type": "uint256"
        }
      ],
      "stateMutability": "view",
      "type": "function"
    },
    {
      "inputs": [],
      "name": "trustedForwarder",
      "outputs": [
        {
          "internalType": "address",
          "name": "",
          "type": "address"
        }
      ],
      "stateMutability": "view",
      "type": "function"
    },
    {
      "inputs": [],
      "name": "unpause",
      "outputs": [],
      "stateMutability": "nonpayable",
      "type": "function"
    },
    {
      "inputs": [],
      "name": "updateOwner",
      "outputs": [],
      "stateMutability": "nonpayable",
      "type": "function"
    },
    {
      "inputs": [],
      "name": "versionRecipient",
      "outputs": [
        {
          "internalType": "string",
          "name": "",
          "type": "string"
        }
      ],
      "stateMutability": "view",
      "type": "function"
    },
    {
      "inputs": [
        {
          "internalType": "address",
          "name": "token",
          "type": "address"
        },
        {
          "internalType": "uint256",
          "name": "amount",
          "type": "uint256"
        }
      ],
      "name": "withdraw",
      "outputs": [],
      "stateMutability": "nonpayable",
      "type": "function"
    }
  ],
  "bytecode": "0x608060405234801561001057600080fd5b506129ba806100206000396000f3fe608060405234801561001057600080fd5b506004361061013e5760003560e01c806313af403514610143578063313ce5671461016b5780633f4ba83a146101895780633ffd13031461019157806347e7ef24146101d4578063486ff0cd146102005780634c2845a01461027d578063572b6c05146102a35780635c975abb146102dd5780636c8381f8146102e557806370a0823114610309578063715018a61461032f5780637b9e618d146103375780637da0a8771461033f5780638456cb59146103475780638da5cb5b1461034f578063b0a1c1c414610357578063b79023031461035f578063bc5920ba14610367578063c2075b211461036f578063c399944414610377578063d2f7265a1461039d578063da742228146103a5578063f3fef3a3146103cb578063f8c8765e146103f7578063fc7b9c1814610435575b600080fd5b6101696004803603602081101561015957600080fd5b50356001600160a01b031661043d565b005b610173610598565b6040805160ff9092168252519081900360200190f35b6101696105a2565b6101c2600480360360408110156101a757600080fd5b5080356001600160a01b0316906020013562ffffff16610609565b60408051918252519081900360200190f35b610169600480360360408110156101ea57600080fd5b506001600160a01b0381351690602001356106e9565b610208610992565b6040805160208082528351818301528351919283929083019185019080838360005b8381101561024257818101518382015260200161022a565b50505050905090810190601f16801561026f5780820380516001836020036101000a031916815260200191505b509250505060405180910390f35b6101c26004803603602081101561029357600080fd5b50356001600160a01b0316610a21565b6102c9600480360360208110156102b957600080fd5b50356001600160a01b0316610b29565b604080519115158252519081900360200190f35b6102c9610b3d565b6102ed610b47565b604080516001600160a01b039092168252519081900360200190f35b6101c26004803603602081101561031f57600080fd5b50356001600160a01b0316610b56565b610169610bfd565b6102ed610c9e565b6102ed610cb3565b610169610cc2565b6102ed610d27565b6102ed610d36565b6102ed610d46565b610169610d56565b6102ed610e42565b6101c26004803603602081101561038d57600080fd5b50356001600160a01b0316610e52565b6102ed610e77565b610169600480360360208110156103bb57600080fd5b50356001600160a01b0316610e87565b610169600480360360408110156103e157600080fd5b506001600160a01b038135169060200135610f3b565b6101696004803603608081101561040d57600080fd5b506001600160a01b0381358116916020810135821691604082013581169160600135166112b2565b6101c26115e3565b6104456115ea565b6001600160a01b0316610456610d27565b6001600160a01b03161461049a576040805162461bcd60e51b8152602060048201526006602482015265534f5f434e4f60d01b604482015290519081900360640190fd5b6001600160a01b0381166104de576040805162461bcd60e51b81526020600482015260066024820152650534f5f4e57360d41b604482015290519081900360640190fd5b6065546001600160a01b038281169116141561052a576040805162461bcd60e51b8152602060048201526006602482015265534f5f53414f60d01b604482015290519081900360640190fd5b6066546001600160a01b0382811691161415610576576040805162461bcd60e51b8152602060048201526006602482015265534f5f53414360d01b604482015290519081900360640190fd5b606680546001600160a01b0319166001600160a01b0392909216919091179055565b6101305460ff1681565b6105aa6115ea565b6001600160a01b03166105bb610d27565b6001600160a01b0316146105ff576040805162461bcd60e51b8152602060048201526006602482015265534f5f434e4f60d01b604482015290519081900360640190fd5b6106076115f9565b565b60008061061584611699565b61013254604080516315f53c9b60e11b81526001600160a01b03888116600483015291519394506000936106a9939290921691632bea793691602480820192602092909190829003018186803b15801561066e57600080fd5b505afa158015610682573d6000803e3d6000fd5b505050506040513d602081101561069857600080fd5b50516101305484919060ff16611744565b905060006106b78686611767565b90506106dd6106c5826117ef565b6101305460ff166106d68686611837565b919061184d565b93505050505b92915050565b6106f1610b3d565b15610736576040805162461bcd60e51b815260206004820152601060248201526f14185d5cd8589b194e881c185d5cd95960821b604482015290519081900360640190fd5b6002600154141561077c576040805162461bcd60e51b815260206004820152601f60248201526000805160206127e1833981519152604482015290519081900360640190fd5b60026001556001600160a01b0382166000908152610139602052604090205460ff166107d7576040805162461bcd60e51b81526020600482015260056024820152642b2fa1a72360d91b604482015290519081900360640190fd5b60006107e16115ea565b90506107f681846107f1856117ef565b611866565b6000836001600160a01b03166370a08231836040518263ffffffff1660e01b815260040180826001600160a01b0316815260200191505060206040518083038186803b15801561084557600080fd5b505afa158015610859573d6000803e3d6000fd5b505050506040513d602081101561086f57600080fd5b5051905061087f848330866118a6565b82610903856001600160a01b03166370a08231856040518263ffffffff1660e01b815260040180826001600160a01b0316815260200191505060206040518083038186803b1580156108d057600080fd5b505afa1580156108e4573d6000803e3d6000fd5b505050506040513d60208110156108fa57600080fd5b50518390611a02565b1461093d576040805162461bcd60e51b8152602060048201526005602482015264565f42414960d81b604482015290519081900360640190fd5b816001600160a01b0316846001600160a01b03167f8752a472e571a816aea92eec8dae9baf628e840f4929fbcc2d155e6233ff68a7856040518082815260200191505060405180910390a35050600180555050565b610136805460408051602060026001851615610100026000190190941693909304601f81018490048402820184019092528181529291830182828015610a195780601f106109ee57610100808354040283529160200191610a19565b820191906000526020600020905b8154815290600101906020018083116109fc57829003601f168201915b505050505081565b60006106e3610b2461013160009054906101000a90046001600160a01b03166001600160a01b0316639f044f316040518163ffffffff1660e01b815260040160206040518083038186803b158015610a7857600080fd5b505afa158015610a8c573d6000803e3d6000fd5b505050506040513d6020811015610aa257600080fd5b50516101325460408051633666e41760e11b81526001600160a01b03888116600483015291519190921691636ccdc82e916024808301926020929190829003018186803b158015610af257600080fd5b505afa158015610b06573d6000803e3d6000fd5b505050506040513d6020811015610b1c57600080fd5b505190611a5f565b6117ef565b60fd546001600160a01b0390811691161490565b60995460ff165b90565b6066546001600160a01b031690565b60008060005b61013754811015610bf65760006101378281548110610b7757fe5b600091825260209091200154610130546001600160a01b0391821692506101009004168114610bd75760405162461bcd60e51b81526004018080602001828103825260238152602001806128816023913960400191505060405180910390fd5b610beb610be48683611a74565b8490611aa0565b925050600101610b5c565b5092915050565b610c056115ea565b6001600160a01b0316610c16610d27565b6001600160a01b031614610c5a576040805162461bcd60e51b8152602060048201526006602482015265534f5f434e4f60d01b604482015290519081900360640190fd5b6065546040516000916001600160a01b0316906000805160206128c5833981519152908390a3606580546001600160a01b0319908116909155606680549091169055565b6101305461010090046001600160a01b031681565b60fd546001600160a01b031681565b610cca6115ea565b6001600160a01b0316610cdb610d27565b6001600160a01b031614610d1f576040805162461bcd60e51b8152602060048201526006602482015265534f5f434e4f60d01b604482015290519081900360640190fd5b610607611b05565b6065546001600160a01b031690565b610132546001600160a01b031681565b610133546001600160a01b031681565b6066546001600160a01b0316610d9b576040805162461bcd60e51b81526020600482015260056024820152640534f5f43360dc1b604482015290519081900360640190fd5b610da36115ea565b6066546001600160a01b03908116911614610dee576040805162461bcd60e51b8152602060048201526006602482015265534f5f434e4360d01b604482015290519081900360640190fd5b6066546065546040516001600160a01b0392831692909116906000805160206128c583398151915290600090a360668054606580546001600160a01b03199081166001600160a01b03841617909155169055565b610131546001600160a01b031681565b60006106e3610e72610e6b84610e66611b88565b610609565b6000611bff565b611c0f565b610134546001600160a01b031681565b610e8f6115ea565b6001600160a01b0316610ea0610d27565b6001600160a01b031614610ee4576040805162461bcd60e51b8152602060048201526006602482015265534f5f434e4f60d01b604482015290519081900360640190fd5b610ef6816001600160a01b0316611c66565b610f2f576040805162461bcd60e51b8152602060048201526005602482015264565f414e4360d81b604482015290519081900360640190fd5b610f3881611c6c565b50565b610f43610b3d565b15610f88576040805162461bcd60e51b815260206004820152601060248201526f14185d5cd8589b194e881c185d5cd95960821b604482015290519081900360640190fd5b60026001541415610fce576040805162461bcd60e51b815260206004820152601f60248201526000805160206127e1833981519152604482015290519081900360640190fd5b60026001556000610fdd6115ea565b61013454604080516375cdc89760e11b81526001600160a01b038085166004830152915193945091169163eb9b912e9160248082019260009290919082900301818387803b15801561102e57600080fd5b505af1158015611042573d6000803e3d6000fd5b50506101325460408051636a256b2960e01b81526001600160a01b038681166004830152915160009550919092169250636a256b299160248082019260209290919082900301818787803b15801561109957600080fd5b505af11580156110ad573d6000803e3d6000fd5b505050506040513d60208110156110c357600080fd5b505190506110d0836117ef565b6110e6826110e0610b2486610e52565b90611aa0565b1215611122576040805162461bcd60e51b8152602060048201526006602482015265565f4e45464360d01b604482015290519081900360640190fd5b610130546001600160a01b0385811661010090920416141561123a576000846001600160a01b03166370a08231306040518263ffffffff1660e01b815260040180826001600160a01b0316815260200191505060206040518083038186803b15801561118d57600080fd5b505afa1580156111a1573d6000803e3d6000fd5b505050506040513d60208110156111b757600080fd5b505190508381101561123857610133546040805163317afabb60e21b815283870360048201819052915191926001600160a01b03169163c5ebeaec9160248082019260009290919082900301818387803b15801561121457600080fd5b505af1158015611228573d6000803e3d6000fd5b5050610135805490930190925550505b505b61125282856107f161124b876117ef565b8590611d06565b61125d848385611d6b565b816001600160a01b0316846001600160a01b03167fd1c19fbcd4551a5edfb66d43d2e337c04837afda3482b42bdf569a8fccdae5fb856040518082815260200191505060405180910390a35050600180555050565b600054610100900460ff16806112cb57506112cb611eb7565b806112d9575060005460ff16155b6113145760405162461bcd60e51b815260040180806020018281038252602e815260200180612853602e913960400191505060405180910390fd5b600054610100900460ff1615801561133f576000805460ff1961ff0019909116610100171660011790555b6000856001600160a01b031663fc0c546a6040518163ffffffff1660e01b8152600401602060405180830381600087803b15801561137c57600080fd5b505af1158015611390573d6000803e3d6000fd5b505050506040513d60208110156113a657600080fd5b50516040805163313ce56760e01b815290519192506000916001600160a01b0384169163313ce567916004808301926020929190829003018186803b1580156113ee57600080fd5b505afa158015611402573d6000803e3d6000fd5b505050506040513d602081101561141857600080fd5b50519050601260ff8216111561145e576040805162461bcd60e51b81526020600482015260066024820152651597d254d51160d21b604482015290519081900360640190fd5b611470866001600160a01b0316611c66565b6114ab576040805162461bcd60e51b8152602060048201526007602482015266565f4348434e4360c81b604482015290519081900360640190fd5b6114bd856001600160a01b0316611c66565b6114f7576040805162461bcd60e51b8152602060048201526006602482015265565f41424e4360d01b604482015290519081900360640190fd5b6114ff611ec8565b611507611f71565b610130805460ff191660ff831617610100600160a81b0319166101006001600160a01b03858116919091029190911790915561013380546001600160a01b03191691891691909117905561155a8261200e565b61013180546001600160a01b038089166001600160a01b0319928316179092556101328054888416908316179055610134805492871692909116919091179055604080518082019091526005808252640322e302e360dc1b60209092019182526115c79161013691612748565b50505080156115dc576000805461ff00191690555b5050505050565b6101355481565b60006115f46120cd565b905090565b611601610b3d565b611649576040805162461bcd60e51b815260206004820152601460248201527314185d5cd8589b194e881b9bdd081c185d5cd95960621b604482015290519081900360640190fd5b6099805460ff191690557f5db9ee0a495bf2e6ff9c91a7834c1ba4fdd244a5e8aa4e537bd38aeae4b073aa61167c6115ea565b604080516001600160a01b039092168252519081900360200190a1565b6000806116a583610b56565b610132546040805163ee817e8b60e01b81526001600160a01b0387811660048301529151939450600093919092169163ee817e8b916024808301926020929190829003018186803b1580156116f957600080fd5b505afa15801561170d573d6000803e3d6000fd5b505050506040513d602081101561172357600080fd5b50516101305490915061173c908390839060ff16611744565b949350505050565b600061175d611757846110e087866120ff565b83612115565b90505b9392505050565b610132546040805163293a507760e01b81526001600160a01b03858116600483015291516000938493169163293a5077916024808301926020929190829003018186803b1580156117b757600080fd5b505afa1580156117cb573d6000803e3d6000fd5b505050506040513d60208110156117e157600080fd5b5051905061173c8184611a5f565b6000600160ff1b82106118335760405162461bcd60e51b815260040180806020018281038252602881526020018061290c6028913960400191505060405180910390fd5b5090565b60008183126118465781611760565b5090919050565b600061175d6117578461186087866120ff565b90611d06565b611874816110e08585611a74565b6001600160a01b0393841660009081526101386020908152604080832095909616825293909352929091209190915550565b604080516001600160a01b0385811660248301528481166044830152606480830185905283518084039091018152608490920183526020820180516001600160e01b03166323b872dd60e01b178152925182516000948594938a169392918291908083835b6020831061192a5780518252601f19909201916020918201910161190b565b6001836020036101000a0380198251168184511680821785525050505050509050019150506000604051808303816000865af19150503d806000811461198c576040519150601f19603f3d011682016040523d82523d6000602084013e611991565b606091505b50915091508180156119bf5750805115806119bf57508080602001905160208110156119bc57600080fd5b50515b6119fa5760405162461bcd60e51b81526004018080602001828103825260318152602001806128016031913960400191505060405180910390fd5b505050505050565b600082821115611a59576040805162461bcd60e51b815260206004820152601e60248201527f536166654d6174683a207375627472616374696f6e206f766572666c6f770000604482015290519081900360640190fd5b50900390565b6000611760838362ffffff16620f424061212b565b6001600160a01b0391821660009081526101386020908152604080832093909416825291909152205490565b6000828201818312801590611ab55750838112155b80611aca5750600083128015611aca57508381125b6117605760405162461bcd60e51b81526004018080602001828103825260218152602001806128326021913960400191505060405180910390fd5b611b0d610b3d565b15611b52576040805162461bcd60e51b815260206004820152601060248201526f14185d5cd8589b194e881c185d5cd95960821b604482015290519081900360640190fd5b6099805460ff191660011790557f62e78cea01bee320cd4e420270b5ea74000d11b0c9f74754ebdbfc544b05a25861167c6115ea565b6101315460408051632f60a15160e01b815290516000926001600160a01b031691632f60a151916004808301926020929190829003018186803b158015611bce57600080fd5b505afa158015611be2573d6000803e3d6000fd5b505050506040513d6020811015611bf857600080fd5b5051905090565b6000818312156118465781611760565b600080821215611833576040805162461bcd60e51b815260206004820181905260248201527f53616665436173743a2076616c7565206d75737420626520706f736974697665604482015290519081900360640190fd5b3b151590565b6001600160a01b038116611cb2576040805162461bcd60e51b81526020600482015260086024820152674252435f4954464160c01b604482015290519081900360640190fd5b60fd80546001600160a01b0383166001600160a01b0319909116811790915560408051918252517fa4388ecc389b1390354ae0c65a856c0d7dd4fb648419f5d3ac0b99e38f46fd119181900360200190a150565b6000818303818312801590611d1b5750838113155b80611d305750600083128015611d3057508381135b6117605760405162461bcd60e51b81526004018080602001828103825260248152602001806129616024913960400191505060405180910390fd5b604080516001600160a01b038481166024830152604480830185905283518084039091018152606490920183526020820180516001600160e01b031663a9059cbb60e01b1781529251825160009485949389169392918291908083835b60208310611de75780518252601f199092019160209182019101611dc8565b6001836020036101000a0380198251168184511680821785525050505050509050019150506000604051808303816000865af19150503d8060008114611e49576040519150601f19603f3d011682016040523d82523d6000602084013e611e4e565b606091505b5091509150818015611e7c575080511580611e7c5750808060200190516020811015611e7957600080fd5b50515b6115dc5760405162461bcd60e51b815260040180806020018281038252602d815260200180612934602d913960400191505060405180910390fd5b6000611ec230611c66565b15905090565b600054610100900460ff1680611ee15750611ee1611eb7565b80611eef575060005460ff16155b611f2a5760405162461bcd60e51b815260040180806020018281038252602e815260200180612853602e913960400191505060405180910390fd5b600054610100900460ff16158015611f55576000805460ff1961ff0019909116610100171660011790555b611f5d6121da565b8015610f38576000805461ff001916905550565b600054610100900460ff1680611f8a5750611f8a611eb7565b80611f98575060005460ff16155b611fd35760405162461bcd60e51b815260040180806020018281038252602e815260200180612853602e913960400191505060405180910390fd5b600054610100900460ff16158015611ffe576000805460ff1961ff0019909116610100171660011790555b61200661227f565b611f5d61236e565b6001600160a01b0381166000908152610139602052604090205460ff1615612065576040805162461bcd60e51b8152602060048201526005602482015264565f43544560d81b604482015290519081900360640190fd5b6001600160a01b0316600081815261013960205260408120805460ff19166001908117909155610137805491820181559091527f43dc304bb3613567eca51c4fb9e7f3128bc51bba882a32550e891d6cbd8a0fa10180546001600160a01b0319169091179055565b6000601836108015906120e457506120e433610b29565b156120f8575060131936013560601c610b44565b5033610b44565b60006117608360ff601285900316600a0a61240b565b60006117608360ff601285900316600a0a6124b4565b6000808060001985870986860292508281109083900303905080612161576000841161215657600080fd5b508290049050611760565b80841161216d57600080fd5b6000848688096000868103871696879004966002600389028118808a02820302808a02820302808a02820302808a02820302808a02820302808a02909103029181900381900460010186841190950394909402919094039290920491909117919091029150509392505050565b600054610100900460ff16806121f357506121f3611eb7565b80612201575060005460ff16155b61223c5760405162461bcd60e51b815260040180806020018281038252602e815260200180612853602e913960400191505060405180910390fd5b600054610100900460ff16158015612267576000805460ff1961ff0019909116610100171660011790555b600180558015610f38576000805461ff001916905550565b600054610100900460ff16806122985750612298611eb7565b806122a6575060005460ff16155b6122e15760405162461bcd60e51b815260040180806020018281038252602e815260200180612853602e913960400191505060405180910390fd5b600054610100900460ff1615801561230c576000805460ff1961ff0019909116610100171660011790555b61231461256c565b600061231e6115ea565b606580546001600160a01b0319166001600160a01b038316908117909155604051919250906000906000805160206128c5833981519152908290a3508015610f38576000805461ff001916905550565b600054610100900460ff16806123875750612387611eb7565b80612395575060005460ff16155b6123d05760405162461bcd60e51b815260040180806020018281038252602e815260200180612853602e913960400191505060405180910390fd5b600054610100900460ff161580156123fb576000805460ff1961ff0019909116610100171660011790555b6124036125fd565b611f5d61269d565b60008261241a575060006106e3565b8260001914801561242e5750600160ff1b82145b1561246a5760405162461bcd60e51b81526004018080602001828103825260278152602001806128e56027913960400191505060405180910390fd5b8282028284828161247757fe5b05146117605760405162461bcd60e51b81526004018080602001828103825260278152602001806128e56027913960400191505060405180910390fd5b600081612508576040805162461bcd60e51b815260206004820181905260248201527f5369676e6564536166654d6174683a206469766973696f6e206279207a65726f604482015290519081900360640190fd5b8160001914801561251c5750600160ff1b83145b156125585760405162461bcd60e51b81526004018080602001828103825260218152602001806128a46021913960400191505060405180910390fd5b600082848161256357fe5b05949350505050565b600054610100900460ff16806125855750612585611eb7565b80612593575060005460ff16155b6125ce5760405162461bcd60e51b815260040180806020018281038252602e815260200180612853602e913960400191505060405180910390fd5b600054610100900460ff161580156125f9576000805460ff1961ff0019909116610100171660011790555b611f5d5b600054610100900460ff16806126165750612616611eb7565b80612624575060005460ff16155b61265f5760405162461bcd60e51b815260040180806020018281038252602e815260200180612853602e913960400191505060405180910390fd5b600054610100900460ff16158015611f5d576000805460ff1961ff0019909116610100171660011790558015610f38576000805461ff001916905550565b600054610100900460ff16806126b657506126b6611eb7565b806126c4575060005460ff16155b6126ff5760405162461bcd60e51b815260040180806020018281038252602e815260200180612853602e913960400191505060405180910390fd5b600054610100900460ff1615801561272a576000805460ff1961ff0019909116610100171660011790555b6099805460ff191690558015610f38576000805461ff001916905550565b828054600181600116156101000203166002900490600052602060002090601f01602090048101928261277e57600085556127c4565b82601f1061279757805160ff19168380011785556127c4565b828001600101855582156127c4579182015b828111156127c45782518255916020019190600101906127a9565b506118339291505b8082111561183357600081556001016127cc56fe5265656e7472616e637947756172643a207265656e7472616e742063616c6c005472616e7366657248656c7065723a3a7472616e7366657246726f6d3a207472616e7366657246726f6d206661696c65645369676e6564536166654d6174683a206164646974696f6e206f766572666c6f77496e697469616c697a61626c653a20636f6e747261637420697320616c726561647920696e697469616c697a6564544244202d20746f6b656e2074776170202a2074726164657227732062616c616e63655369676e6564536166654d6174683a206469766973696f6e206f766572666c6f778be0079c531659141344cd1fd0a4f28419497f9722a3daafe3b4186f6b6457e05369676e6564536166654d6174683a206d756c7469706c69636174696f6e206f766572666c6f7753616665436173743a2076616c756520646f65736e27742066697420696e20616e20696e743235365472616e7366657248656c7065723a3a736166655472616e736665723a207472616e73666572206661696c65645369676e6564536166654d6174683a207375627472616374696f6e206f766572666c6f77a2646970667358221220ce1551b3baf9ef0ea7225fe1cfcffc5ef95d676bf6146512a1ec031cfaccd21264736f6c63430007060033",
  "linkReferences": {},
  "deployedLinkReferences": {}
}