{
  "_format": "hh-sol-artifact-1",
  "contractName": "PerpV2Vault",
  "sourceName": "contracts/Vault.sol",
  "abi": [
    {
      "anonymous": false,
      "inputs": [
        {
          "indexed": true,
          "internalType": "address",
          "name": "collateralToken",
          "type": "address"
        },
        {
          "indexed": true,
          "internalType": "address",
          "name": "trader",
          "type": "address"
        },
        {
          "indexed": false,
          "internalType": "uint256",
          "name": "amount",
          "type": "uint256"
        }
      ],
      "name": "Deposited",
      "type": "event"
    },
    {
      "anonymous": false,
      "inputs": [
        {
          "indexed": true,
          "internalType": "address",
          "name": "previousOwner",
          "type": "address"
        },
        {
          "indexed": true,
          "internalType": "address",
          "name": "newOwner",
          "type": "address"
        }
      ],
      "name": "OwnershipTransferred",
      "type": "event"
    },
    {
      "anonymous": false,
      "inputs": [
        {
          "indexed": false,
          "internalType": "address",
          "name": "account",
          "type": "address"
        }
      ],
      "name": "Paused",
      "type": "event"
    },
    {
      "anonymous": false,
      "inputs": [
        {
          "indexed": false,
          "internalType": "address",
          "name": "trustedForwarder",
          "type": "address"
        }
      ],
      "name": "TrustedForwarderUpdated",
      "type": "event"
    },
    {
      "anonymous": false,
      "inputs": [
        {
          "indexed": false,
          "internalType": "address",
          "name": "account",
          "type": "address"
        }
      ],
      "name": "Unpaused",
      "type": "event"
    },
    {
      "anonymous": false,
      "inputs": [
        {
          "indexed": true,
          "internalType": "address",
          "name": "collateralToken",
          "type": "address"
        },
        {
          "indexed": true,
          "internalType": "address",
          "name": "trader",
          "type": "address"
        },
        {
          "indexed": false,
          "internalType": "uint256",
          "name": "amount",
          "type": "uint256"
        }
      ],
      "name": "Withdrawn",
      "type": "event"
    },
    {
      "inputs": [],
      "name": "candidate",
      "outputs": [
        {
          "internalType": "address",
          "name": "",
          "type": "address"
        }
      ],
      "stateMutability": "view",
      "type": "function"
    },
    {
      "inputs": [],
      "name": "decimals",
      "outputs": [
        {
          "internalType": "uint8",
          "name": "",
          "type": "uint8"
        }
      ],
      "stateMutability": "view",
      "type": "function"
    },
    {
      "inputs": [
        {
          "internalType": "address",
          "name": "token",
          "type": "address"
        },
        {
          "internalType": "uint256",
          "name": "amountX10_D",
          "type": "uint256"
        }
      ],
      "name": "deposit",
      "outputs": [],
      "stateMutability": "nonpayable",
      "type": "function"
    },
    {
      "inputs": [],
      "name": "getAccountBalance",
      "outputs": [
        {
          "internalType": "address",
          "name": "",
          "type": "address"
        }
      ],
      "stateMutability": "view",
      "type": "function"
    },
    {
      "inputs": [
        {
          "internalType": "address",
          "name": "trader",
          "type": "address"
        }
      ],
      "name": "getBalance",
      "outputs": [
        {
          "internalType": "int256",
          "name": "",
          "type": "int256"
        }
      ],
      "stateMutability": "view",
      "type": "function"
    },
    {
      "inputs": [],
      "name": "getClearingHouse",
      "outputs": [
        {
          "internalType": "address",
          "name": "",
          "type": "address"
        }
      ],
      "stateMutability": "view",
      "type": "function"
    },
    {
      "inputs": [],
      "name": "getClearingHouseConfig",
      "outputs": [
        {
          "internalType": "address",
          "name": "",
          "type": "address"
        }
      ],
      "stateMutability": "view",
      "type": "function"
    },
    {
      "inputs": [],
      "name": "getExchange",
      "outputs": [
        {
          "internalType": "address",
          "name": "",
          "type": "address"
        }
      ],
      "stateMutability": "view",
      "type": "function"
    },
    {
      "inputs": [
        {
          "internalType": "address",
          "name": "trader",
          "type": "address"
        }
      ],
      "name": "getFreeCollateral",
      "outputs": [
        {
          "internalType": "uint256",
          "name": "",
          "type": "uint256"
        }
      ],
      "stateMutability": "view",
      "type": "function"
    },
    {
      "inputs": [
        {
          "internalType": "address",
          "name": "trader",
          "type": "address"
        },
        {
          "internalType": "uint24",
          "name": "ratio",
          "type": "uint24"
        }
      ],
      "name": "getFreeCollateralByRatio",
      "outputs": [
        {
          "internalType": "int256",
          "name": "",
          "type": "int256"
        }
      ],
      "stateMutability": "view",
      "type": "function"
    },
    {
      "inputs": [],
      "name": "getInsuranceFund",
      "outputs": [
        {
          "internalType": "address",
          "name": "",
          "type": "address"
        }
      ],
      "stateMutability": "view",
      "type": "function"
    },
    {
      "inputs": [],
      "name": "getSettlementToken",
      "outputs": [
        {
          "internalType": "address",
          "name": "",
          "type": "address"
        }
      ],
      "stateMutability": "view",
      "type": "function"
    },
    {
      "inputs": [],
      "name": "getTotalDebt",
      "outputs": [
        {
          "internalType": "uint256",
          "name": "",
          "type": "uint256"
        }
      ],
      "stateMutability": "view",
      "type": "function"
    },
    {
      "inputs": [],
      "name": "getTrustedForwarder",
      "outputs": [
        {
          "internalType": "address",
          "name": "",
          "type": "address"
        }
      ],
      "stateMutability": "view",
      "type": "function"
    },
    {
      "inputs": [
        {
          "internalType": "address",
          "name": "insuranceFundArg",
          "type": "address"
        },
        {
          "internalType": "address",
          "name": "clearingHouseConfigArg",
          "type": "address"
        },
        {
          "internalType": "address",
          "name": "accountBalanceArg",
          "type": "address"
        },
        {
          "internalType": "address",
          "name": "exchangeArg",
          "type": "address"
        }
      ],
      "name": "initialize",
      "outputs": [],
      "stateMutability": "nonpayable",
      "type": "function"
    },
    {
      "inputs": [
        {
          "internalType": "address",
          "name": "forwarder",
          "type": "address"
        }
      ],
      "name": "isTrustedForwarder",
      "outputs": [
        {
          "internalType": "bool",
          "name": "",
          "type": "bool"
        }
      ],
      "stateMutability": "view",
      "type": "function"
    },
    {
      "inputs": [],
      "name": "owner",
      "outputs": [
        {
          "internalType": "address",
          "name": "",
          "type": "address"
        }
      ],
      "stateMutability": "view",
      "type": "function"
    },
    {
      "inputs": [],
      "name": "pause",
      "outputs": [],
      "stateMutability": "nonpayable",
      "type": "function"
    },
    {
      "inputs": [],
      "name": "paused",
      "outputs": [
        {
          "internalType": "bool",
          "name": "",
          "type": "bool"
        }
      ],
      "stateMutability": "view",
      "type": "function"
    },
    {
      "inputs": [],
      "name": "renounceOwnership",
      "outputs": [],
      "stateMutability": "nonpayable",
      "type": "function"
    },
    {
      "inputs": [
        {
          "internalType": "address",
          "name": "clearingHouseArg",
          "type": "address"
        }
      ],
      "name": "setClearingHouse",
      "outputs": [],
      "stateMutability": "nonpayable",
      "type": "function"
    },
    {
      "inputs": [
        {
          "internalType": "address",
          "name": "newOwner",
          "type": "address"
        }
      ],
      "name": "setOwner",
      "outputs": [],
      "stateMutability": "nonpayable",
      "type": "function"
    },
    {
      "inputs": [
        {
          "internalType": "address",
          "name": "trustedForwarderArg",
          "type": "address"
        }
      ],
      "name": "setTrustedForwarder",
      "outputs": [],
      "stateMutability": "nonpayable",
      "type": "function"
    },
    {
      "inputs": [],
      "name": "unpause",
      "outputs": [],
      "stateMutability": "nonpayable",
      "type": "function"
    },
    {
      "inputs": [],
      "name": "updateOwner",
      "outputs": [],
      "stateMutability": "nonpayable",
      "type": "function"
    },
    {
      "inputs": [],
      "name": "versionRecipient",
      "outputs": [
        {
          "internalType": "string",
          "name": "",
          "type": "string"
        }
      ],
      "stateMutability": "pure",
      "type": "function"
    },
    {
      "inputs": [
        {
          "internalType": "address",
          "name": "token",
          "type": "address"
        },
        {
          "internalType": "uint256",
          "name": "amountX10_D",
          "type": "uint256"
        }
      ],
      "name": "withdraw",
      "outputs": [],
      "stateMutability": "nonpayable",
      "type": "function"
    }
  ],
  "bytecode": "0x608060405234801561001057600080fd5b506128fc806100206000396000f3fe608060405234801561001057600080fd5b50600436106101495760003560e01c806312803c7d1461014e57806313af403514610172578063158626f71461019a578063313ce567146101a257806334ce998a146101c05780633f4ba83a146101da5780633ffd1303146101e2578063449323d81461021357806347e7ef2414610239578063486ff0cd14610265578063572b6c05146102e25780635c975abb1461031c5780636896fabf146103245780636c8381f81461032c578063715018a6146103345780638456cb591461033c5780638da5cb5b14610344578063aa2a82941461034c578063bc5920ba14610354578063c39994441461035c578063c575ff7914610382578063ce1b815f1461038a578063da74222814610392578063f3fef3a3146103b8578063f807cd22146103e4578063f8b2cb4f146103ec578063f8c8765e14610412575b600080fd5b610156610450565b604080516001600160a01b039092168252519081900360200190f35b6101986004803603602081101561018857600080fd5b50356001600160a01b0316610466565b005b6101566105c1565b6101aa6105d1565b6040805160ff9092168252519081900360200190f35b6101c86105db565b60408051918252519081900360200190f35b6101986105e2565b6101c8600480360360408110156101f857600080fd5b5080356001600160a01b0316906020013562ffffff16610649565b6101986004803603602081101561022957600080fd5b50356001600160a01b0316610802565b6101986004803603604081101561024f57600080fd5b506001600160a01b0381351690602001356108cd565b61026d610c9b565b6040805160208082528351818301528351919283929083019185019080838360005b838110156102a757818101518382015260200161028f565b50505050905090810190601f1680156102d45780820380516001836020036101000a031916815260200191505b509250505060405180910390f35b610308600480360360208110156102f857600080fd5b50356001600160a01b0316610cba565b604080519115158252519081900360200190f35b610308610cce565b610156610cd7565b610156610ce7565b610198610cf6565b610198610d97565b610156610dfc565b610156610e0b565b610198610e1b565b6101c86004803603602081101561037257600080fd5b50356001600160a01b0316610f07565b610156610fa5565b610156610fb5565b610198600480360360208110156103a857600080fd5b50356001600160a01b0316610fc4565b610198600480360360408110156103ce57600080fd5b506001600160a01b038135169060200135611078565b610156611490565b6101c86004803603602081101561040257600080fd5b50356001600160a01b03166114a0565b6101986004803603608081101561042857600080fd5b506001600160a01b0381358116916020810135821691604082013581169160600135166114d3565b6101305461010090046001600160a01b03165b90565b61046e6117fd565b6001600160a01b031661047f610dfc565b6001600160a01b0316146104c3576040805162461bcd60e51b8152602060048201526006602482015265534f5f434e4f60d01b604482015290519081900360640190fd5b6001600160a01b038116610507576040805162461bcd60e51b81526020600482015260066024820152650534f5f4e57360d41b604482015290519081900360640190fd5b6065546001600160a01b0382811691161415610553576040805162461bcd60e51b8152602060048201526006602482015265534f5f53414f60d01b604482015290519081900360640190fd5b6066546001600160a01b038281169116141561059f576040805162461bcd60e51b8152602060048201526006602482015265534f5f53414360d01b604482015290519081900360640190fd5b606680546001600160a01b0319166001600160a01b0392909216919091179055565b610133546001600160a01b031690565b6101305460ff1690565b6101365490565b6105ea6117fd565b6001600160a01b03166105fb610dfc565b6001600160a01b03161461063f576040805162461bcd60e51b8152602060048201526006602482015265534f5f434e4f60d01b604482015290519081900360640190fd5b61064761180c565b565b61013454604080516380f57f1160e01b81526001600160a01b0385811660048301529151600093849316916380f57f11916024808301926020929190829003018186803b15801561069957600080fd5b505afa1580156106ad573d6000803e3d6000fd5b505050506040513d60208110156106c357600080fd5b5051610132546040805163bba85bcf60e01b81526001600160a01b038881166004830152915193945060009384938493169163bba85bcf916024808301926060929190829003018186803b15801561071a57600080fd5b505afa15801561072e573d6000803e3d6000fd5b505050506040513d606081101561074457600080fd5b5080516020820151604090920151610130549195509193509091506000906107989061078f9060ff16610789610779866118ac565b610783898b6118f8565b90611964565b906119c9565b6107838a6114a0565b610130549091506000906107bb906107b490869060ff166119c9565b8390611964565b905060006107c98a8a6119df565b610130549091506107f4906107e49060ff16610789846118ac565b6107ee8585611a6f565b906118f8565b9a9950505050505050505050565b61080a6117fd565b6001600160a01b031661081b610dfc565b6001600160a01b03161461085f576040805162461bcd60e51b8152602060048201526006602482015265534f5f434e4f60d01b604482015290519081900360640190fd5b610871816001600160a01b0316611a85565b6108aa576040805162461bcd60e51b8152602060048201526005602482015264565f414e4360d81b604482015290519081900360640190fd5b61013580546001600160a01b0319166001600160a01b0392909216919091179055565b6108d5610cce565b1561091a576040805162461bcd60e51b815260206004820152601060248201526f14185d5cd8589b194e881c185d5cd95960821b604482015290519081900360640190fd5b60026001541415610960576040805162461bcd60e51b815260206004820152601f602482015260008051602061277b833981519152604482015290519081900360640190fd5b60026001556101305482906001600160a01b0380831661010090920416146109b7576040805162461bcd60e51b81526020600482015260056024820152641597d3d4d560da1b604482015290519081900360640190fd5b60006109c16117fd565b90506109d681856109d1866118ac565b611a8b565b6000846001600160a01b03166370a08231306040518263ffffffff1660e01b815260040180826001600160a01b0316815260200191505060206040518083038186803b158015610a2557600080fd5b505afa158015610a39573d6000803e3d6000fd5b505050506040513d6020811015610a4f57600080fd5b50519050610a5f85833087611aee565b83610ae382876001600160a01b03166370a08231306040518263ffffffff1660e01b815260040180826001600160a01b0316815260200191505060206040518083038186803b158015610ab157600080fd5b505afa158015610ac5573d6000803e3d6000fd5b505050506040513d6020811015610adb57600080fd5b505190611b4e565b14610b1d576040805162461bcd60e51b8152602060048201526005602482015264565f49424160d81b604482015290519081900360640190fd5b61013154604080516385eacc7760e01b815290516000926001600160a01b0316916385eacc77916004808301926020929190829003018186803b158015610b6357600080fd5b505afa158015610b77573d6000803e3d6000fd5b505050506040513d6020811015610b8d57600080fd5b5051604080516370a0823160e01b8152306004820152905191925082916001600160a01b038916916370a08231916024808301926020929190829003018186803b158015610bda57600080fd5b505afa158015610bee573d6000803e3d6000fd5b505050506040513d6020811015610c0457600080fd5b50511115610c44576040805162461bcd60e51b8152602060048201526008602482015267565f47545354424360c01b604482015290519081900360640190fd5b826001600160a01b0316866001600160a01b03167f8752a472e571a816aea92eec8dae9baf628e840f4929fbcc2d155e6233ff68a7876040518082815260200191505060405180910390a350506001805550505050565b6040805180820190915260058152640322e302e360dc1b602082015290565b60fd546001600160a01b0390811691161490565b60995460ff1690565b610132546001600160a01b031690565b6066546001600160a01b031690565b610cfe6117fd565b6001600160a01b0316610d0f610dfc565b6001600160a01b031614610d53576040805162461bcd60e51b8152602060048201526006602482015265534f5f434e4f60d01b604482015290519081900360640190fd5b6065546040516000916001600160a01b031690600080516020612831833981519152908390a3606580546001600160a01b0319908116909155606680549091169055565b610d9f6117fd565b6001600160a01b0316610db0610dfc565b6001600160a01b031614610df4576040805162461bcd60e51b8152602060048201526006602482015265534f5f434e4f60d01b604482015290519081900360640190fd5b610647611bab565b6065546001600160a01b031690565b610131546001600160a01b031690565b6066546001600160a01b0316610e60576040805162461bcd60e51b81526020600482015260056024820152640534f5f43360dc1b604482015290519081900360640190fd5b610e686117fd565b6066546001600160a01b03908116911614610eb3576040805162461bcd60e51b8152602060048201526006602482015265534f5f434e4360d01b604482015290519081900360640190fd5b6066546065546040516001600160a01b03928316929091169060008051602061283183398151915290600090a360668054606580546001600160a01b03199081166001600160a01b03841617909155169055565b6000610f9f610f9a610f938461013160009054906101000a90046001600160a01b03166001600160a01b031663543ce73a6040518163ffffffff1660e01b815260040160206040518083038186803b158015610f6257600080fd5b505afa158015610f76573d6000803e3d6000fd5b505050506040513d6020811015610f8c57600080fd5b5051610649565b6000611c2e565b611c3e565b92915050565b610135546001600160a01b031690565b60fd546001600160a01b031690565b610fcc6117fd565b6001600160a01b0316610fdd610dfc565b6001600160a01b031614611021576040805162461bcd60e51b8152602060048201526006602482015265534f5f434e4f60d01b604482015290519081900360640190fd5b611033816001600160a01b0316611a85565b61106c576040805162461bcd60e51b8152602060048201526005602482015264565f414e4360d81b604482015290519081900360640190fd5b61107581611c95565b50565b611080610cce565b156110c5576040805162461bcd60e51b815260206004820152601060248201526f14185d5cd8589b194e881c185d5cd95960821b604482015290519081900360640190fd5b6002600154141561110b576040805162461bcd60e51b815260206004820152601f602482015260008051602061277b833981519152604482015290519081900360640190fd5b60026001556101305482906001600160a01b038083166101009092041614611162576040805162461bcd60e51b81526020600482015260056024820152641597d3d4d560da1b604482015290519081900360640190fd5b600061116c6117fd565b610135546040805163fbfbd16960e01b81526001600160a01b038085166004830152915193945091169163fbfbd1699160248082019260009290919082900301818387803b1580156111bd57600080fd5b505af11580156111d1573d6000803e3d6000fd5b5050610132546040805163fd6ceee560e01b81526001600160a01b03868116600483015291516000955091909216925063fd6ceee59160248082019260209290919082900301818787803b15801561122857600080fd5b505af115801561123c573d6000803e3d6000fd5b505050506040513d602081101561125257600080fd5b50516101315460408051632a1e739d60e11b815290519293506000926112a69286926001600160a01b039091169163543ce73a91600480820192602092909190829003018186803b158015610f6257600080fd5b90506112b1856118ac565b610130546112c7906107b490859060ff166119c9565b1215611303576040805162461bcd60e51b8152602060048201526006602482015265565f4e45464360d01b604482015290519081900360640190fd5b6000866001600160a01b03166370a08231306040518263ffffffff1660e01b815260040180826001600160a01b0316815260200191505060206040518083038186803b15801561135257600080fd5b505afa158015611366573d6000803e3d6000fd5b505050506040513d602081101561137c57600080fd5b50519050858110156113fd57610133546040805163317afabb60e21b815283890360048201819052915191926001600160a01b03169163c5ebeaec9160248082019260009290919082900301818387803b1580156113d957600080fd5b505af11580156113ed573d6000803e3d6000fd5b5050610136805490930190925550505b6101305461142d90859089906109d1906114289061141f90899060ff166119c9565b6107ee8c6118ac565b611ce9565b611438878588611d1e565b836001600160a01b0316876001600160a01b03167fd1c19fbcd4551a5edfb66d43d2e337c04837afda3482b42bdf569a8fccdae5fb886040518082815260200191505060405180910390a35050600180555050505050565b610134546001600160a01b031690565b6001600160a01b039081166000908152610137602090815260408083206101305461010090049094168352929052205490565b600054610100900460ff16806114ec57506114ec611d75565b806114fa575060005460ff16155b6115355760405162461bcd60e51b815260040180806020018281038252602e8152602001806127e2602e913960400191505060405180910390fd5b600054610100900460ff16158015611560576000805460ff1961ff0019909116610100171660011790555b6000856001600160a01b03166321df0da76040518163ffffffff1660e01b815260040160206040518083038186803b15801561159b57600080fd5b505afa1580156115af573d6000803e3d6000fd5b505050506040513d60208110156115c557600080fd5b50516040805163313ce56760e01b815290519192506000916001600160a01b0384169163313ce567916004808301926020929190829003018186803b15801561160d57600080fd5b505afa158015611621573d6000803e3d6000fd5b505050506040513d602081101561163757600080fd5b50519050601260ff8216111561167d576040805162461bcd60e51b81526020600482015260066024820152651597d254d51160d21b604482015290519081900360640190fd5b61168f866001600160a01b0316611a85565b6116ca576040805162461bcd60e51b8152602060048201526007602482015266565f4348434e4360c81b604482015290519081900360640190fd5b6116dc856001600160a01b0316611a85565b611716576040805162461bcd60e51b8152602060048201526006602482015265565f41424e4360d01b604482015290519081900360640190fd5b611728846001600160a01b0316611a85565b611761576040805162461bcd60e51b8152602060048201526005602482015264565f454e4360d81b604482015290519081900360640190fd5b611769611d86565b611771611e2f565b610130805460ff191660ff9290921691909117610100600160a81b0319166101006001600160a01b039384160217905561013380546001600160a01b0319908116888416179091556101318054821687841617905561013280548216868416179055610134805490911691841691909117905580156117f6576000805461ff00191690555b5050505050565b6000611807611ecc565b905090565b611814610cce565b61185c576040805162461bcd60e51b815260206004820152601460248201527314185d5cd8589b194e881b9bdd081c185d5cd95960621b604482015290519081900360640190fd5b6099805460ff191690557f5db9ee0a495bf2e6ff9c91a7834c1ba4fdd244a5e8aa4e537bd38aeae4b073aa61188f6117fd565b604080516001600160a01b039092168252519081900360200190a1565b60006001600160ff1b038211156118f45760405162461bcd60e51b81526004018080602001828103825260288152602001806128516028913960400191505060405180910390fd5b5090565b600081830381831280159061190d5750838113155b80611922575060008312801561192257508381135b61195d5760405162461bcd60e51b81526004018080602001828103825260248152602001806128796024913960400191505060405180910390fd5b9392505050565b60008282018183128015906119795750838112155b8061198e575060008312801561198e57508381125b61195d5760405162461bcd60e51b815260040180806020018281038252602181526020018061279b6021913960400191505060405180910390fd5b600061195d8360ff601285900316600a0a611efc565b610132546040805163293a507760e01b81526001600160a01b03858116600483015291516000938493169163293a5077916024808301926020929190829003018186803b158015611a2f57600080fd5b505afa158015611a43573d6000803e3d6000fd5b505050506040513d6020811015611a5957600080fd5b50519050611a678184611fb4565b949350505050565b6000818312611a7e578161195d565b5090919050565b3b151590565b6001600160a01b0380841660009081526101376020908152604080832093861683529290522054611abc9082611964565b6001600160a01b0393841660009081526101376020908152604080832095909616825293909352929091209190915550565b604080516001600160a01b0380861660248301528416604482015260648082018490528251808303909101815260849091019091526020810180516001600160e01b03166323b872dd60e01b179052611b48908590611fc9565b50505050565b600082821115611ba5576040805162461bcd60e51b815260206004820152601e60248201527f536166654d6174683a207375627472616374696f6e206f766572666c6f770000604482015290519081900360640190fd5b50900390565b611bb3610cce565b15611bf8576040805162461bcd60e51b815260206004820152601060248201526f14185d5cd8589b194e881c185d5cd95960821b604482015290519081900360640190fd5b6099805460ff191660011790557f62e78cea01bee320cd4e420270b5ea74000d11b0c9f74754ebdbfc544b05a25861188f6117fd565b600081831215611a7e578161195d565b6000808212156118f4576040805162461bcd60e51b815260206004820181905260248201527f53616665436173743a2076616c7565206d75737420626520706f736974697665604482015290519081900360640190fd5b60fd80546001600160a01b0383166001600160a01b0319909116811790915560408051918252517fa4388ecc389b1390354ae0c65a856c0d7dd4fb648419f5d3ac0b99e38f46fd119181900360200190a150565b6000600160ff1b8213611d175760405162461bcd60e51b8152600401611d0e90612744565b60405180910390fd5b5060000390565b604080516001600160a01b038416602482015260448082018490528251808303909101815260649091019091526020810180516001600160e01b031663a9059cbb60e01b179052611d70908490611fc9565b505050565b6000611d8030611a85565b15905090565b600054610100900460ff1680611d9f5750611d9f611d75565b80611dad575060005460ff16155b611de85760405162461bcd60e51b815260040180806020018281038252602e8152602001806127e2602e913960400191505060405180910390fd5b600054610100900460ff16158015611e13576000805460ff1961ff0019909116610100171660011790555b611e1b61207a565b8015611075576000805461ff001916905550565b600054610100900460ff1680611e485750611e48611d75565b80611e56575060005460ff16155b611e915760405162461bcd60e51b815260040180806020018281038252602e8152602001806127e2602e913960400191505060405180910390fd5b600054610100900460ff16158015611ebc576000805460ff1961ff0019909116610100171660011790555b611ec461211f565b611e1b61220e565b600060143610801590611ee35750611ee333610cba565b15611ef7575060131936013560601c610463565b503390565b600081611f50576040805162461bcd60e51b815260206004820181905260248201527f5369676e6564536166654d6174683a206469766973696f6e206279207a65726f604482015290519081900360640190fd5b81600019148015611f645750600160ff1b83145b15611fa05760405162461bcd60e51b81526004018080602001828103825260218152602001806128106021913960400191505060405180910390fd5b6000828481611fab57fe5b05949350505050565b600061195d838362ffffff16620f42406122ab565b600061201e826040518060400160405280602081526020017f5361666545524332303a206c6f772d6c6576656c2063616c6c206661696c6564815250856001600160a01b031661235a9092919063ffffffff16565b805190915015611d705780806020019051602081101561203d57600080fd5b5051611d705760405162461bcd60e51b815260040180806020018281038252602a81526020018061289d602a913960400191505060405180910390fd5b600054610100900460ff16806120935750612093611d75565b806120a1575060005460ff16155b6120dc5760405162461bcd60e51b815260040180806020018281038252602e8152602001806127e2602e913960400191505060405180910390fd5b600054610100900460ff16158015612107576000805460ff1961ff0019909116610100171660011790555b600180558015611075576000805461ff001916905550565b600054610100900460ff16806121385750612138611d75565b80612146575060005460ff16155b6121815760405162461bcd60e51b815260040180806020018281038252602e8152602001806127e2602e913960400191505060405180910390fd5b600054610100900460ff161580156121ac576000805460ff1961ff0019909116610100171660011790555b6121b4612369565b60006121be6117fd565b606580546001600160a01b0319166001600160a01b03831690811790915560405191925090600090600080516020612831833981519152908290a3508015611075576000805461ff001916905550565b600054610100900460ff16806122275750612227611d75565b80612235575060005460ff16155b6122705760405162461bcd60e51b815260040180806020018281038252602e8152602001806127e2602e913960400191505060405180910390fd5b600054610100900460ff1615801561229b576000805460ff1961ff0019909116610100171660011790555b6122a36123fa565b611e1b61249a565b60008080600019858709868602925082811090839003039050806122e157600084116122d657600080fd5b50829004905061195d565b8084116122ed57600080fd5b6000848688096000868103871696879004966002600389028118808a02820302808a02820302808a02820302808a02820302808a02820302808a02909103029181900381900460010186841190950394909402919094039290920491909117919091029150509392505050565b6060611a678484600085612545565b600054610100900460ff16806123825750612382611d75565b80612390575060005460ff16155b6123cb5760405162461bcd60e51b815260040180806020018281038252602e8152602001806127e2602e913960400191505060405180910390fd5b600054610100900460ff161580156123f6576000805460ff1961ff0019909116610100171660011790555b611e1b5b600054610100900460ff16806124135750612413611d75565b80612421575060005460ff16155b61245c5760405162461bcd60e51b815260040180806020018281038252602e8152602001806127e2602e913960400191505060405180910390fd5b600054610100900460ff16158015611e1b576000805460ff1961ff0019909116610100171660011790558015611075576000805461ff001916905550565b600054610100900460ff16806124b357506124b3611d75565b806124c1575060005460ff16155b6124fc5760405162461bcd60e51b815260040180806020018281038252602e8152602001806127e2602e913960400191505060405180910390fd5b600054610100900460ff16158015612527576000805460ff1961ff0019909116610100171660011790555b6099805460ff191690558015611075576000805461ff001916905550565b6060824710156125865760405162461bcd60e51b81526004018080602001828103825260268152602001806127bc6026913960400191505060405180910390fd5b61258f85611a85565b6125e0576040805162461bcd60e51b815260206004820152601d60248201527f416464726573733a2063616c6c20746f206e6f6e2d636f6e7472616374000000604482015290519081900360640190fd5b600080866001600160a01b031685876040518082805190602001908083835b6020831061261e5780518252601f1990920191602091820191016125ff565b6001836020036101000a03801982511681845116808217855250505050505090500191505060006040518083038185875af1925050503d8060008114612680576040519150601f19603f3d011682016040523d82523d6000602084013e612685565b606091505b50915091506126958282866126a0565b979650505050505050565b606083156126af57508161195d565b8251156126bf5782518084602001fd5b8160405162461bcd60e51b81526004018080602001828103825283818151815260200191508051906020019080838360005b838110156127095781810151838201526020016126f1565b50505050905090810190601f1680156127365780820380516001836020036101000a031916815260200191505b509250505060405180910390fd5b6020808252601c908201527b506572704d6174683a20696e76657273696f6e206f766572666c6f7760201b60408201526060019056fe5265656e7472616e637947756172643a207265656e7472616e742063616c6c005369676e6564536166654d6174683a206164646974696f6e206f766572666c6f77416464726573733a20696e73756666696369656e742062616c616e636520666f722063616c6c496e697469616c697a61626c653a20636f6e747261637420697320616c726561647920696e697469616c697a65645369676e6564536166654d6174683a206469766973696f6e206f766572666c6f778be0079c531659141344cd1fd0a4f28419497f9722a3daafe3b4186f6b6457e053616665436173743a2076616c756520646f65736e27742066697420696e20616e20696e743235365369676e6564536166654d6174683a207375627472616374696f6e206f766572666c6f775361666545524332303a204552433230206f7065726174696f6e20646964206e6f742073756363656564a2646970667358221220951959ac6b4d6446714f822e0f832144fdfc99b9a9d632412e44cae62ec474bf64736f6c63430007060033",
  "linkReferences": {},
  "deployedLinkReferences": {}
}