{
  "_format": "hh-sol-artifact-1",
  "contractName": "PerpV2Exchange",
  "sourceName": "contracts/Exchange.sol",
  "abi": [
    {
      "anonymous": false,
      "inputs": [
        {
          "indexed": false,
          "internalType": "address",
          "name": "accountBalance",
          "type": "address"
        }
      ],
      "name": "AccountBalanceChanged",
      "type": "event"
    },
    {
      "anonymous": false,
      "inputs": [
        {
          "indexed": true,
          "internalType": "address",
          "name": "clearingHouse",
          "type": "address"
        }
      ],
      "name": "ClearingHouseChanged",
      "type": "event"
    },
    {
      "anonymous": false,
      "inputs": [
        {
          "indexed": true,
          "internalType": "address",
          "name": "trader",
          "type": "address"
        },
        {
          "indexed": true,
          "internalType": "address",
          "name": "baseToken",
          "type": "address"
        },
        {
          "indexed": false,
          "internalType": "int256",
          "name": "fundingPayment",
          "type": "int256"
        }
      ],
      "name": "FundingPaymentSettled",
      "type": "event"
    },
    {
      "anonymous": false,
      "inputs": [
        {
          "indexed": true,
          "internalType": "address",
          "name": "baseToken",
          "type": "address"
        },
        {
          "indexed": false,
          "internalType": "uint256",
          "name": "markTwap",
          "type": "uint256"
        },
        {
          "indexed": false,
          "internalType": "uint256",
          "name": "indexTwap",
          "type": "uint256"
        }
      ],
      "name": "FundingUpdated",
      "type": "event"
    },
    {
      "anonymous": false,
      "inputs": [
        {
          "indexed": true,
          "internalType": "address",
          "name": "baseToken",
          "type": "address"
        },
        {
          "indexed": false,
          "internalType": "uint24",
          "name": "maxTickCrossedWithinBlock",
          "type": "uint24"
        }
      ],
      "name": "MaxTickCrossedWithinBlockChanged",
      "type": "event"
    },
    {
      "anonymous": false,
      "inputs": [
        {
          "indexed": true,
          "internalType": "address",
          "name": "previousOwner",
          "type": "address"
        },
        {
          "indexed": true,
          "internalType": "address",
          "name": "newOwner",
          "type": "address"
        }
      ],
      "name": "OwnershipTransferred",
      "type": "event"
    },
    {
      "anonymous": false,
      "inputs": [
        {
          "indexed": true,
          "internalType": "address",
          "name": "trader",
          "type": "address"
        },
        {
          "indexed": true,
          "internalType": "address",
          "name": "baseToken",
          "type": "address"
        },
        {
          "indexed": false,
          "internalType": "int256",
          "name": "exchangedPositionSize",
          "type": "int256"
        },
        {
          "indexed": false,
          "internalType": "int256",
          "name": "exchangedPositionNotional",
          "type": "int256"
        },
        {
          "indexed": false,
          "internalType": "uint256",
          "name": "fee",
          "type": "uint256"
        },
        {
          "indexed": false,
          "internalType": "int256",
          "name": "openNotional",
          "type": "int256"
        },
        {
          "indexed": false,
          "internalType": "int256",
          "name": "realizedPnl",
          "type": "int256"
        },
        {
          "indexed": false,
          "internalType": "uint256",
          "name": "sqrtPriceAfter",
          "type": "uint256"
        }
      ],
      "name": "PositionChanged",
      "type": "event"
    },
    {
      "inputs": [],
      "name": "candidate",
      "outputs": [
        {
          "internalType": "address",
          "name": "",
          "type": "address"
        }
      ],
      "stateMutability": "view",
      "type": "function"
    },
    {
      "inputs": [],
      "name": "getAccountBalance",
      "outputs": [
        {
          "internalType": "address",
          "name": "",
          "type": "address"
        }
      ],
      "stateMutability": "view",
      "type": "function"
    },
    {
      "inputs": [
        {
          "internalType": "address",
          "name": "trader",
          "type": "address"
        }
      ],
      "name": "getAllPendingFundingPayment",
      "outputs": [
        {
          "internalType": "int256",
          "name": "pendingFundingPayment",
          "type": "int256"
        }
      ],
      "stateMutability": "view",
      "type": "function"
    },
    {
      "inputs": [],
      "name": "getClearingHouse",
      "outputs": [
        {
          "internalType": "address",
          "name": "",
          "type": "address"
        }
      ],
      "stateMutability": "view",
      "type": "function"
    },
    {
      "inputs": [],
      "name": "getClearingHouseConfig",
      "outputs": [
        {
          "internalType": "address",
          "name": "",
          "type": "address"
        }
      ],
      "stateMutability": "view",
      "type": "function"
    },
    {
      "inputs": [
        {
          "internalType": "address",
          "name": "baseToken",
          "type": "address"
        }
      ],
      "name": "getFundingGrowthGlobalAndTwaps",
      "outputs": [
        {
          "components": [
            {
              "internalType": "int256",
              "name": "twPremiumX96",
              "type": "int256"
            },
            {
              "internalType": "int256",
              "name": "twPremiumDivBySqrtPriceX96",
              "type": "int256"
            }
          ],
          "internalType": "struct Funding.Growth",
          "name": "fundingGrowthGlobal",
          "type": "tuple"
        },
        {
          "internalType": "uint256",
          "name": "markTwap",
          "type": "uint256"
        },
        {
          "internalType": "uint256",
          "name": "indexTwap",
          "type": "uint256"
        }
      ],
      "stateMutability": "view",
      "type": "function"
    },
    {
      "inputs": [],
      "name": "getInsuranceFund",
      "outputs": [
        {
          "internalType": "address",
          "name": "",
          "type": "address"
        }
      ],
      "stateMutability": "view",
      "type": "function"
    },
    {
      "inputs": [],
      "name": "getMarketRegistry",
      "outputs": [
        {
          "internalType": "address",
          "name": "",
          "type": "address"
        }
      ],
      "stateMutability": "view",
      "type": "function"
    },
    {
      "inputs": [
        {
          "internalType": "address",
          "name": "baseToken",
          "type": "address"
        }
      ],
      "name": "getMaxTickCrossedWithinBlock",
      "outputs": [
        {
          "internalType": "uint24",
          "name": "",
          "type": "uint24"
        }
      ],
      "stateMutability": "view",
      "type": "function"
    },
    {
      "inputs": [],
      "name": "getOrderBook",
      "outputs": [
        {
          "internalType": "address",
          "name": "",
          "type": "address"
        }
      ],
      "stateMutability": "view",
      "type": "function"
    },
    {
      "inputs": [
        {
          "internalType": "address",
          "name": "trader",
          "type": "address"
        },
        {
          "internalType": "address",
          "name": "baseToken",
          "type": "address"
        }
      ],
      "name": "getPendingFundingPayment",
      "outputs": [
        {
          "internalType": "int256",
          "name": "",
          "type": "int256"
        }
      ],
      "stateMutability": "view",
      "type": "function"
    },
    {
      "inputs": [
        {
          "internalType": "address",
          "name": "baseToken",
          "type": "address"
        },
        {
          "internalType": "uint32",
          "name": "twapInterval",
          "type": "uint32"
        }
      ],
      "name": "getSqrtMarkTwapX96",
      "outputs": [
        {
          "internalType": "uint160",
          "name": "",
          "type": "uint160"
        }
      ],
      "stateMutability": "view",
      "type": "function"
    },
    {
      "inputs": [
        {
          "internalType": "address",
          "name": "trader",
          "type": "address"
        },
        {
          "internalType": "address",
          "name": "baseToken",
          "type": "address"
        }
      ],
      "name": "getTakerOpenNotional",
      "outputs": [
        {
          "internalType": "int256",
          "name": "",
          "type": "int256"
        }
      ],
      "stateMutability": "view",
      "type": "function"
    },
    {
      "inputs": [
        {
          "internalType": "address",
          "name": "baseToken",
          "type": "address"
        }
      ],
      "name": "getTick",
      "outputs": [
        {
          "internalType": "int24",
          "name": "",
          "type": "int24"
        }
      ],
      "stateMutability": "view",
      "type": "function"
    },
    {
      "inputs": [
        {
          "internalType": "address",
          "name": "trader",
          "type": "address"
        },
        {
          "internalType": "address",
          "name": "baseToken",
          "type": "address"
        }
      ],
      "name": "getTotalOpenNotional",
      "outputs": [
        {
          "internalType": "int256",
          "name": "",
          "type": "int256"
        }
      ],
      "stateMutability": "view",
      "type": "function"
    },
    {
      "inputs": [
        {
          "internalType": "address",
          "name": "marketRegistryArg",
          "type": "address"
        },
        {
          "internalType": "address",
          "name": "orderBookArg",
          "type": "address"
        },
        {
          "internalType": "address",
          "name": "clearingHouseConfigArg",
          "type": "address"
        },
        {
          "internalType": "address",
          "name": "insuranceFundArg",
          "type": "address"
        }
      ],
      "name": "initialize",
      "outputs": [],
      "stateMutability": "nonpayable",
      "type": "function"
    },
    {
      "inputs": [],
      "name": "owner",
      "outputs": [
        {
          "internalType": "address",
          "name": "",
          "type": "address"
        }
      ],
      "stateMutability": "view",
      "type": "function"
    },
    {
      "inputs": [],
      "name": "renounceOwnership",
      "outputs": [],
      "stateMutability": "nonpayable",
      "type": "function"
    },
    {
      "inputs": [
        {
          "internalType": "address",
          "name": "accountBalanceArg",
          "type": "address"
        }
      ],
      "name": "setAccountBalance",
      "outputs": [],
      "stateMutability": "nonpayable",
      "type": "function"
    },
    {
      "inputs": [
        {
          "internalType": "address",
          "name": "clearingHouseArg",
          "type": "address"
        }
      ],
      "name": "setClearingHouse",
      "outputs": [],
      "stateMutability": "nonpayable",
      "type": "function"
    },
    {
      "inputs": [
        {
          "internalType": "address",
          "name": "baseToken",
          "type": "address"
        },
        {
          "internalType": "uint24",
          "name": "maxTickCrossedWithinBlock",
          "type": "uint24"
        }
      ],
      "name": "setMaxTickCrossedWithinBlock",
      "outputs": [],
      "stateMutability": "nonpayable",
      "type": "function"
    },
    {
      "inputs": [
        {
          "internalType": "address",
          "name": "newOwner",
          "type": "address"
        }
      ],
      "name": "setOwner",
      "outputs": [],
      "stateMutability": "nonpayable",
      "type": "function"
    },
    {
      "inputs": [
        {
          "internalType": "address",
          "name": "trader",
          "type": "address"
        }
      ],
      "name": "settleAllFunding",
      "outputs": [],
      "stateMutability": "nonpayable",
      "type": "function"
    },
    {
      "inputs": [
        {
          "internalType": "address",
          "name": "trader",
          "type": "address"
        },
        {
          "internalType": "address",
          "name": "baseToken",
          "type": "address"
        }
      ],
      "name": "settleFunding",
      "outputs": [
        {
          "components": [
            {
              "internalType": "int256",
              "name": "twPremiumX96",
              "type": "int256"
            },
            {
              "internalType": "int256",
              "name": "twPremiumDivBySqrtPriceX96",
              "type": "int256"
            }
          ],
          "internalType": "struct Funding.Growth",
          "name": "fundingGrowthGlobal",
          "type": "tuple"
        }
      ],
      "stateMutability": "nonpayable",
      "type": "function"
    },
    {
      "inputs": [
        {
          "components": [
            {
              "internalType": "address",
              "name": "trader",
              "type": "address"
            },
            {
              "internalType": "address",
              "name": "baseToken",
              "type": "address"
            },
            {
              "internalType": "bool",
              "name": "isBaseToQuote",
              "type": "bool"
            },
            {
              "internalType": "bool",
              "name": "isExactInput",
              "type": "bool"
            },
            {
              "internalType": "bool",
              "name": "isClose",
              "type": "bool"
            },
            {
              "internalType": "uint256",
              "name": "amount",
              "type": "uint256"
            },
            {
              "internalType": "uint160",
              "name": "sqrtPriceLimitX96",
              "type": "uint160"
            },
            {
              "components": [
                {
                  "internalType": "int256",
                  "name": "twPremiumX96",
                  "type": "int256"
                },
                {
                  "internalType": "int256",
                  "name": "twPremiumDivBySqrtPriceX96",
                  "type": "int256"
                }
              ],
              "internalType": "struct Funding.Growth",
              "name": "fundingGrowthGlobal",
              "type": "tuple"
            }
          ],
          "internalType": "struct IExchange.SwapParams",
          "name": "params",
          "type": "tuple"
        }
      ],
      "name": "swap",
      "outputs": [
        {
          "components": [
            {
              "internalType": "uint256",
              "name": "deltaAvailableBase",
              "type": "uint256"
            },
            {
              "internalType": "uint256",
              "name": "deltaAvailableQuote",
              "type": "uint256"
            },
            {
              "internalType": "int256",
              "name": "exchangedPositionSize",
              "type": "int256"
            },
            {
              "internalType": "int256",
              "name": "exchangedPositionNotional",
              "type": "int256"
            },
            {
              "internalType": "int24",
              "name": "tick",
              "type": "int24"
            },
            {
              "internalType": "bool",
              "name": "isPartialClose",
              "type": "bool"
            }
          ],
          "internalType": "struct IExchange.SwapResponse",
          "name": "",
          "type": "tuple"
        }
      ],
      "stateMutability": "nonpayable",
      "type": "function"
    },
    {
      "inputs": [
        {
          "internalType": "int256",
          "name": "amount0Delta",
          "type": "int256"
        },
        {
          "internalType": "int256",
          "name": "amount1Delta",
          "type": "int256"
        },
        {
          "internalType": "bytes",
          "name": "data",
          "type": "bytes"
        }
      ],
      "name": "uniswapV3SwapCallback",
      "outputs": [],
      "stateMutability": "nonpayable",
      "type": "function"
    },
    {
      "inputs": [],
      "name": "updateOwner",
      "outputs": [],
      "stateMutability": "nonpayable",
      "type": "function"
    }
  ],
  "bytecode": "0x608060405234801561001057600080fd5b50614c47806100206000396000f3fe608060405234801561001057600080fd5b50600436106101a95760003560e01c80638da5cb5b116100f9578063c66b8ed211610097578063eb9b912e11610071578063eb9b912e1461034e578063f8c8765e14610361578063f9cbb47114610374578063fa461e3314610396576101a9565b8063c66b8ed214610320578063cb379aa214610328578063d50d01b71461033b576101a9565b8063b248c4ef116100d3578063b248c4ef146102f5578063b3945690146102fd578063bc5920ba14610310578063c575ff7914610318576101a9565b80638da5cb5b146102d257806399e4a771146102da578063aa2a8294146102ed576101a9565b806348fa72d5116101665780636896fabf116101405780636896fabf1461029a5780636c8381f8146102a2578063715018a6146102aa57806380f57f11146102b2576101a9565b806348fa72d51461024757806350709710146102675780635eb8a4e614610287576101a9565b806313af4035146101ae578063158626f7146101c3578063199387cc146101e15780631e81ac33146101f457806329386b7b14610214578063449323d814610234575b600080fd5b6101c16101bc366004613df1565b6103a9565b005b6101cb610504565b6040516101d89190614423565b60405180910390f35b6101c16101ef366004613df1565b610513565b610207610202366004613e29565b6105f5565b6040516101d891906148a1565b610227610222366004613df1565b610959565b6040516101d891906149e5565b6101c1610242366004613df1565b61097d565b61025a61025536600461428a565b610a52565b6040516101d8919061499c565b61027a610275366004613df1565b611132565b6040516101d891906145de565b6101c1610295366004613ebc565b6111be565b6101cb61138c565b6101cb61139b565b6101c16113aa565b6102c56102c0366004613df1565b61145d565b6040516101d891906145ec565b6101cb61152f565b6101cb6102e8366004613ee9565b61153e565b6101cb6115d2565b6101cb6115e1565b6102c561030b366004613e29565b6115f0565b6101c161170b565b6101cb611809565b6101cb611818565b6102c5610336366004613e29565b611827565b6102c5610349366004613e29565b611967565b6101c161035c366004613df1565b6119ea565b6101c161036f366004613e61565b611aab565b610387610382366004613df1565b611c29565b6040516101d8939291906148af565b6101c16103a43660046140ce565b611ebb565b6103b161205b565b6001600160a01b03166103c261152f565b6001600160a01b031614610406576040805162461bcd60e51b8152602060048201526006602482015265534f5f434e4f60d01b604482015290519081900360640190fd5b6001600160a01b03811661044a576040805162461bcd60e51b81526020600482015260066024820152650534f5f4e57360d41b604482015290519081900360640190fd5b6033546001600160a01b0382811691161415610496576040805162461bcd60e51b8152602060048201526006602482015265534f5f53414f60d01b604482015290519081900360640190fd5b6034546001600160a01b03828116911614156104e2576040805162461bcd60e51b8152602060048201526006602482015265534f5f53414360d01b604482015290519081900360640190fd5b603480546001600160a01b0319166001600160a01b0392909216919091179055565b60d0546001600160a01b031690565b61051b61205b565b6001600160a01b031661052c61152f565b6001600160a01b031614610570576040805162461bcd60e51b8152602060048201526006602482015265534f5f434e4f60d01b604482015290519081900360640190fd5b6001600160a01b03811661059f5760405162461bcd60e51b815260040161059690614702565b60405180910390fd5b60ce80546001600160a01b0319166001600160a01b0383161790556040517f2b28168781da733c8a034f84683b9c955f156de5e07e24920b1348f51445d3e6906105ea908390614423565b60405180910390a150565b6105fd613c65565b609a54604051631246dbf560e01b81526001600160a01b0390911690631246dbf59061062d908590600401614423565b60206040518083038186803b15801561064557600080fd5b505afa158015610659573d6000803e3d6000fd5b505050506040513d601f19601f8201168201806040525081019061067d9190614077565b6106995760405162461bcd60e51b81526004016105969061467c565b6000806106a584611c29565b60ce546040516331997f7b60e11b815293965091945092506000916001600160a01b0390911690636332fef6906106e29089908990600401614437565b60a06040518083038186803b1580156106fa57600080fd5b505afa15801561070e573d6000803e3d6000fd5b505050506040513d601f19601f820116820180604052508101906107329190614149565b9050600061074b8787846000015185608001518961205f565b905080156108095760ce546001600160a01b031663377247028861076e84612105565b6040518363ffffffff1660e01b815260040161078b92919061457b565b600060405180830381600087803b1580156107a557600080fd5b505af11580156107b9573d6000803e3d6000fd5b50505050856001600160a01b0316876001600160a01b03167f733330d4aad1a878654bf888817b79bc6478013399be29fa3b8845c81305249e8360405161080091906145ec565b60405180910390a35b6000610813612131565b6001600160a01b038816600090815260d3602052604090205490915081146108e7576001600160a01b038716600081815260d4602090815260408083208a518b84015160d390945293829020600182019390935592835590849055519091907f54e4482fe1d38392effe5d53f0e9e72f60221a75a10cea7abbb684bfb03519bf906108a190899089906149f5565b60405180910390a26108b288611132565b6001600160a01b038916600090815260d160205260409020805460029290920b62ffffff1662ffffff19909216919091179055505b60ce548651604051632e4586c360e01b81526001600160a01b0390921691632e4586c39161091b918c918c91600401614475565b600060405180830381600087803b15801561093557600080fd5b505af1158015610949573d6000803e3d6000fd5b5050505050505050505b92915050565b6001600160a01b038116600090815260d5602052604090205462ffffff165b919050565b61098561205b565b6001600160a01b031661099661152f565b6001600160a01b0316146109da576040805162461bcd60e51b8152602060048201526006602482015265534f5f434e4f60d01b604482015290519081900360640190fd5b6109ec816001600160a01b0316612135565b610a085760405162461bcd60e51b815260040161059690614741565b606780546001600160a01b0319166001600160a01b0383169081179091556040517fd0654f5900f9e7e4e605a19334306e6a2786bbf960ac0484a4c12feb6428fe2f90600090a250565b610a5a613c7f565b6067546001600160a01b0316610a6e61205b565b6001600160a01b031614610a945760405162461bcd60e51b81526004016105969061469d565b60ce548251602084015160405163165c4e2960e31b81526000936001600160a01b03169263b2e2714892610aca92600401614437565b60206040518083038186803b158015610ae257600080fd5b505afa158015610af6573d6000803e3d6000fd5b505050506040513d601f19601f82011682018060405250810190610b1a9190614093565b9050600080821290821580610b36575084604001511515821515145b15905060008060cf60009054906101000a90046001600160a01b03166001600160a01b031663742833366040518163ffffffff1660e01b815260040160206040518083038186803b158015610b8a57600080fd5b505afa158015610b9e573d6000803e3d6000fd5b505050506040513d601f19601f82011682018060405250810190610bc291906143d3565b905086608001518015610bd457508415155b15610ca957610be6876020015161213b565b80610bff5750610bff8760200151858960a00151612153565b15610ca4576000610c0e612131565b88516001600160a01b03908116600090815260d660209081526040808320828e015190941683529290522054909150811415610c5c5760405162461bcd60e51b8152600401610596906146be565b87516001600160a01b03908116600090815260d660209081526040808320828d015190941683529290522081905560a0880151610c9990836121b1565b60a089015250600191505b610cd9565b8215610cd957610cbc876020015161213b565b15610cd95760405162461bcd60e51b81526004016105969061465a565b6000610ced88600001518960200151611967565b90506000610cfa896121c6565b90508860800151158015610d0b5750845b15610d3f57610d2289602001518260c00151612584565b15610d3f5760405162461bcd60e51b8152600401610596906146e0565b60ce54895160208b0151604084015160808501516001600160a01b039094169363e7ec1a8593929190610d8090610d759061262c565b606088015190612678565b8660400151610da0610d95896080015161262c565b60608a015190612678565b60006040518863ffffffff1660e01b8152600401610dc49796959493929190614499565b600060405180830381600087803b158015610dde57600080fd5b505af1158015610df2573d6000803e3d6000fd5b5050505060008515610ed957600085610e27578251610e2290670de0b6b3a7640000610e1d8c6126dd565b612705565b610e2e565b8462ffffff165b905060008b60400151610e4d57610e4884602001516127b4565b610e5a565b610e5a846020015161262c565b9050670de0b6b3a76400008211610ea6576000610e92670de0b6b3a7640000610e8c610e858661262c565b89906127c8565b90612871565b9050610e9e8282612929565b935050610ed6565b6000610ec6610eb48461262c565b610e8c84670de0b6b3a76400006127c8565b9050610ed28682612929565b9350505b50505b8015610f4b5760ce548a5160208c015160405163f0c7979760e01b81526001600160a01b039093169263f0c7979792610f189290918690600401614475565b600060405180830381600087803b158015610f3257600080fd5b505af1158015610f46573d6000803e3d6000fd5b505050505b60ce5460d05460a08401516001600160a01b03928316926337724702921690610f739061262c565b6040518363ffffffff1660e01b8152600401610f9092919061457b565b600060405180830381600087803b158015610faa57600080fd5b505af1158015610fbe573d6000803e3d6000fd5b505050506000610fd68b600001518c60200151611967565b609a5460208d015160405163bbe4f6db60e01b8152929350600092611067926001600160a01b03169163bbe4f6db916110129190600401614423565b60206040518083038186803b15801561102a57600080fd5b505afa15801561103e573d6000803e3d6000fd5b505050506040513d601f19601f820116820180604052508101906110629190613e0d565b61298e565b6001600160a01b031690508b602001516001600160a01b03168c600001516001600160a01b03167f968bc4f738eae0486dc6736c4b427dbafa4acfdf6eaf223337791ddeb3a562478660400151876060015188608001518789886040516110d396959493929190614632565b60405180910390a36040518060c00160405280856000015181526020018560200151815260200185604001518152602001856060015181526020018560c0015160020b81526020018815158152509a5050505050505050505050919050565b609a5460405163bbe4f6db60e01b8152600091610953916001600160a01b039091169063bbe4f6db90611169908690600401614423565b60206040518083038186803b15801561118157600080fd5b505afa158015611195573d6000803e3d6000fd5b505050506040513d601f19601f820116820180604052508101906111b99190613e0d565b612a0e565b6111c661205b565b6001600160a01b03166111d761152f565b6001600160a01b03161461121b576040805162461bcd60e51b8152602060048201526006602482015265534f5f434e4f60d01b604482015290519081900360640190fd5b61122d826001600160a01b0316612135565b6112495760405162461bcd60e51b8152600401610596906147df565b609a54604051631246dbf560e01b81526001600160a01b0390911690631246dbf590611279908590600401614423565b60206040518083038186803b15801561129157600080fd5b505afa1580156112a5573d6000803e3d6000fd5b505050506040513d601f19601f820116820180604052508101906112c99190614077565b6112e55760405162461bcd60e51b81526004016105969061467c565b6112fe6112f9620d89e8620d89e719612678565b612a8e565b62ffffff168162ffffff1611156113275760405162461bcd60e51b815260040161059690614763565b6001600160a01b038216600081815260d5602052604090819020805462ffffff191662ffffff8516179055517f998d553f208e581d188c66da9e7d19bac5ca64d002753791210c4271c8e955d0906113809084906149e5565b60405180910390a25050565b60ce546001600160a01b031690565b6034546001600160a01b031690565b6113b261205b565b6001600160a01b03166113c361152f565b6001600160a01b031614611407576040805162461bcd60e51b8152602060048201526006602482015265534f5f434e4f60d01b604482015290519081900360640190fd5b6033546040516000916001600160a01b0316907f8be0079c531659141344cd1fd0a4f28419497f9722a3daafe3b4186f6b6457e0908390a3603380546001600160a01b0319908116909155603480549091169055565b60ce546040516357ba739b60e11b815260009182916001600160a01b039091169063af74e73690611492908690600401614423565b60006040518083038186803b1580156114aa57600080fd5b505afa1580156114be573d6000803e3d6000fd5b505050506040513d6000823e601f3d908101601f191682016040526114e69190810190613f16565b805190915060005b818110156115275761151d6115168685848151811061150957fe5b6020026020010151611827565b8590612929565b93506001016114ee565b505050919050565b6033546001600160a01b031690565b609a5460405163bbe4f6db60e01b81526000916115cb916001600160a01b039091169063bbe4f6db90611575908790600401614423565b60206040518083038186803b15801561158d57600080fd5b505afa1580156115a1573d6000803e3d6000fd5b505050506040513d601f19601f820116820180604052508101906115c59190613e0d565b83612ad2565b9392505050565b60cf546001600160a01b031690565b60cd546001600160a01b031690565b60ce546040516303d2da2d60e51b81526000916115cb916001600160a01b0390911690637a5b45a0906116299087908790600401614437565b60206040518083038186803b15801561164157600080fd5b505afa158015611655573d6000803e3d6000fd5b505050506040513d601f19601f820116820180604052508101906116799190614093565b60cd5460405163bf0b1abb60e01b8152611705916001600160a01b03169063bf0b1abb906116b09089908990600090600401614451565b60206040518083038186803b1580156116c857600080fd5b505afa1580156116dc573d6000803e3d6000fd5b505050506040513d601f19601f820116820180604052508101906117009190614093565b61262c565b90612929565b6034546001600160a01b0316611750576040805162461bcd60e51b81526020600482015260056024820152640534f5f43360dc1b604482015290519081900360640190fd5b61175861205b565b6034546001600160a01b039081169116146117a3576040805162461bcd60e51b8152602060048201526006602482015265534f5f434e4360d01b604482015290519081900360640190fd5b6034546033546040516001600160a01b0392831692909116907f8be0079c531659141344cd1fd0a4f28419497f9722a3daafe3b4186f6b6457e090600090a360348054603380546001600160a01b03199081166001600160a01b03841617909155169055565b6067546001600160a01b031690565b609a546001600160a01b031690565b60008061183383611c29565b505060ce546040516331997f7b60e11b81529192506000916001600160a01b0390911690636332fef69061186d9088908890600401614437565b60a06040518083038186803b15801561188557600080fd5b505afa158015611899573d6000803e3d6000fd5b505050506040513d601f19601f820116820180604052508101906118bd9190614149565b60cd546040516347b52fb760e01b81529192506000916001600160a01b03909116906347b52fb7906118f7908990899088906004016144d7565b60206040518083038186803b15801561190f57600080fd5b505afa158015611923573d6000803e3d6000fd5b505050506040513d601f19601f820116820180604052508101906119479190614093565b905061195d826000015183608001518584612c2b565b9695505050505050565b60ce54604051632af7ad8160e21b81526000916001600160a01b03169063abdeb6049061199a9086908690600401614437565b60206040518083038186803b1580156119b257600080fd5b505afa1580156119c6573d6000803e3d6000fd5b505050506040513d601f19601f820116820180604052508101906115cb9190614093565b60ce546040516357ba739b60e11b81526000916001600160a01b03169063af74e73690611a1b908590600401614423565b60006040518083038186803b158015611a3357600080fd5b505afa158015611a47573d6000803e3d6000fd5b505050506040513d6000823e601f3d908101601f19168201604052611a6f9190810190613f16565b805190915060005b81811015611aa557611a9c84848381518110611a8f57fe5b60200260200101516105f5565b50600101611a77565b50505050565b600054610100900460ff1680611ac45750611ac4612c5c565b80611ad2575060005460ff16155b611b0d5760405162461bcd60e51b815260040180806020018281038252602e815260200180614ae7602e913960400191505060405180910390fd5b600054610100900460ff16158015611b38576000805460ff1961ff0019909116610100171660011790555b611b40612c6d565b611b4985612d17565b611b5b846001600160a01b0316612135565b611b775760405162461bcd60e51b815260040161059690614721565b611b89836001600160a01b0316612135565b611ba55760405162461bcd60e51b8152600401610596906147ff565b611bb7826001600160a01b0316612135565b611bd35760405162461bcd60e51b81526004016105969061485e565b60d080546001600160a01b038085166001600160a01b03199283161790925560cd805487841690831617905560cf8054928616929091169190911790558015611c22576000805461ff00191690555b5050505050565b611c31613c65565b6001600160a01b038216600090815260d260205260408120548190819015611d325760cf60009054906101000a90046001600160a01b03166001600160a01b0316633e742e3b6040518163ffffffff1660e01b815260040160206040518083038186803b158015611ca157600080fd5b505afa158015611cb5573d6000803e3d6000fd5b505050506040513d601f19601f82011682018060405250810190611cd991906143ef565b6001600160a01b038616600090815260d2602052604081205491925090611d1190611d0c90611d06612131565b90612e0b565b612e68565b90508063ffffffff168263ffffffff1611611d2c5781611d2e565b805b9150505b6000611d4f611d41878461153e565b6001600160a01b0316612ead565b9050611d5a81612ec7565b604051631208064760e01b81529094506001600160a01b03871690631208064790611d89908590600401614a03565b60206040518083038186803b158015611da157600080fd5b505afa158015611db5573d6000803e3d6000fd5b505050506040513d601f19601f82011682018060405250810190611dd99190614093565b92506000611de5612131565b6001600160a01b038816600090815260d3602090815260408083205460d49092529091209192509081831480611e19575081155b15611e3d576040805180820190915281548152600182015460208201529750611eaf565b6000611e67611e4f6117008686612e0b565b611e6187611e5c8b612ee0565b612ef9565b906127c8565b8254909150611e769082612929565b8952611ea8611e9d82600160601b611e8f8e600061153e565b6001600160a01b0316613000565b600184015490612929565b60208a0152505b50505050509193909250565b6000611ec561205b565b90506000816001600160a01b0316630dfe16816040518163ffffffff1660e01b815260040160206040518083038186803b158015611f0257600080fd5b505afa158015611f16573d6000803e3d6000fd5b505050506040513d601f19601f82011682018060405250810190611f3a9190613e0d565b609a5460405163bbe4f6db60e01b81529192506001600160a01b03169063bbe4f6db90611f6b908490600401614423565b60206040518083038186803b158015611f8357600080fd5b505afa158015611f97573d6000803e3d6000fd5b505050506040513d601f19601f82011682018060405250810190611fbb9190613e0d565b6001600160a01b0316826001600160a01b031614611feb5760405162461bcd60e51b815260040161059690614787565b60675460405163fa461e3360e01b81526001600160a01b039091169063fa461e33906120219089908990899089906004016145f5565b600060405180830381600087803b15801561203b57600080fd5b505af115801561204f573d6000803e3d6000fd5b50505050505050505050565b3390565b60cd54604051633fe1339b60e11b815260009182916001600160a01b0390911690637fc2673690612098908a908a9088906004016144d7565b602060405180830381600087803b1580156120b257600080fd5b505af11580156120c6573d6000803e3d6000fd5b505050506040513d601f19601f820116820180604052508101906120ea9190614093565b90506120f885858584612c2b565b9150505b95945050505050565b6000600160ff1b821361212a5760405162461bcd60e51b8152600401610596906147a8565b5060000390565b4290565b3b151590565b60008061214783611132565b90506115cb8382612584565b6000806040518060a00160405280866001600160a01b0316815260200185151515815260200185151515815260200184815260200161219287876130a4565b6001600160a01b0316905290506120fc856121ac836130f7565b612584565b60006115cb838362ffffff16620f4240612705565b6121ce613cba565b609a54602083015160405163033e16f360e21b81526000926001600160a01b031691630cf85bcc916122039190600401614423565b60806040518083038186803b15801561221b57600080fd5b505afa15801561222f573d6000803e3d6000fd5b505050506040513d601f19601f8201168201806040525081019061225391906141b2565b9050600080612279856040015186606001518760a001518660200151876040015161329f565b60cd5460408051610100810182526020808b01516001600160a01b0390811683528b8401511515828401526001838501526060830186905260c0808d015182166080850152918a015162ffffff90811660a08501528a850151169183019190915260e0808c0151908301529151631477e1bf60e31b815294965092945060009391169163a3bf0df89161230f91906004016148ce565b606060405180830381600087803b15801561232957600080fd5b505af115801561233d573d6000803e3d6000fd5b505050506040513d601f19601f820116820180604052508101906123619190614230565b9050600061245d6040518060e0016040528087600001516001600160a01b03168152602001606760009054906101000a90046001600160a01b03166001600160a01b031681526020018960400151151581526020018960600151151581526020018681526020018960c001516001600160a01b031681526020016040518060a001604052808b600001516001600160a01b031681526020018b602001516001600160a01b0316815260200189600001516001600160a01b03168152602001896040015162ffffff16815260200186602001518152506040516020016124469190614952565b6040516020818303038152906040528152506132f0565b905060008088604001511561249e5761248861248384600001518960400151600061353e565b6127b4565b9150612497836020015161262c565b90506124c5565b82516124a99061262c565b91506124c261248384602001518960400151600061353e565b90505b6020808a01516001600160a01b0316600090815260d2909152604090205461250e576124ef612131565b6020808b01516001600160a01b0316600090815260d290915260409020555b6040518060e00160405280612522846126dd565b815260200161254661254161253a886020015161262c565b8590612678565b6126dd565b81526020018381526020018281526020018560200151815260200185604001518152602001856000015160020b815250975050505050505050919050565b6001600160a01b038216600090815260d5602052604081205462ffffff16806125b1576000915050610953565b6001600160a01b038416600090815260d16020526040812054600290810b91906125ec906125e79084900b62ffffff8616612929565b613585565b905060006126066125e7600285900b62ffffff8716612678565b90508060020b8660020b128061262157508160020b8660020b135b979650505050505050565b60006001600160ff1b038211156126745760405162461bcd60e51b8152600401808060200182810382526028815260200180614bc66028913960400191505060405180910390fd5b5090565b600081830381831280159061268d5750838113155b806126a257506000831280156126a257508381135b6115cb5760405162461bcd60e51b8152600401808060200182810382526024815260200180614bee6024913960400191505060405180910390fd5b60008082136126fc576126f76126f283612105565b6135c8565b610953565b610953826135c8565b600080806000198587098686029250828110908390030390508061273b576000841161273057600080fd5b5082900490506115cb565b80841161274757600080fd5b6000848688096000868103871696879004966002600389028118808a02820302808a02820302808a02820302808a02820302808a02820302808a02909103029181900381900460010186841190950394909402919094039290920491909117919091029150509392505050565b60006127bf8261262c565b60000392915050565b6000826127d757506000610953565b826000191480156127eb5750600160ff1b82145b156128275760405162461bcd60e51b8152600401808060200182810382526027815260200180614b796027913960400191505060405180910390fd5b8282028284828161283457fe5b05146115cb5760405162461bcd60e51b8152600401808060200182810382526027815260200180614b796027913960400191505060405180910390fd5b6000816128c5576040805162461bcd60e51b815260206004820181905260248201527f5369676e6564536166654d6174683a206469766973696f6e206279207a65726f604482015290519081900360640190fd5b816000191480156128d95750600160ff1b83145b156129155760405162461bcd60e51b8152600401808060200182810382526021815260200180614b156021913960400191505060405180910390fd5b600082848161292057fe5b05949350505050565b600082820181831280159061293e5750838112155b80612953575060008312801561295357508381125b6115cb5760405162461bcd60e51b8152600401808060200182810382526021815260200180614a9d6021913960400191505060405180910390fd5b6000816001600160a01b0316633850c7bd6040518163ffffffff1660e01b815260040160e06040518083038186803b1580156129c957600080fd5b505afa1580156129dd573d6000803e3d6000fd5b505050506040513d601f19601f82011682018060405250810190612a019190614340565b5094979650505050505050565b6000816001600160a01b0316633850c7bd6040518163ffffffff1660e01b815260040160e06040518083038186803b158015612a4957600080fd5b505afa158015612a5d573d6000803e3d6000fd5b505050506040513d601f19601f82011682018060405250810190612a819190614340565b5093979650505050505050565b8062ffffff811681146109785760405162461bcd60e51b8152600401808060200182810382526043815260200180614b366043913960600191505060405180910390fd5b6000600a8263ffffffff161015612af357612aec8361298e565b9050610953565b6040805160028082526060820183526000926020830190803683370190505090508281600081518110612b2257fe5b602002602001019063ffffffff16908163ffffffff1681525050600081600181518110612b4b57fe5b63ffffffff9092166020928302919091019091015260405163883bdbfd60e01b81526000906001600160a01b0386169063883bdbfd90612b8f908590600401614594565b60006040518083038186803b158015612ba757600080fd5b505afa158015612bbb573d6000803e3d6000fd5b505050506040513d6000823e601f3d908101601f19168201604052612be39190810190613faf565b5090506120fc8463ffffffff1682600081518110612bfd57fe5b602002602001015183600181518110612c1257fe5b60200260200101510360060b81612c2557fe5b0561361f565b600080612c3d86856000015187613951565b9050612c5062015180610e8c8584612929565b9150505b949350505050565b6000612c6730612135565b15905090565b600054610100900460ff1680612c865750612c86612c5c565b80612c94575060005460ff16155b612ccf5760405162461bcd60e51b815260040180806020018281038252602e815260200180614ae7602e913960400191505060405180910390fd5b600054610100900460ff16158015612cfa576000805460ff1961ff0019909116610100171660011790555b612d0261396b565b8015612d14576000805461ff00191690555b50565b600054610100900460ff1680612d305750612d30612c5c565b80612d3e575060005460ff16155b612d795760405162461bcd60e51b815260040180806020018281038252602e815260200180614ae7602e913960400191505060405180910390fd5b600054610100900460ff16158015612da4576000805460ff1961ff0019909116610100171660011790555b612dac613a6c565b612dbe826001600160a01b0316612135565b612dda5760405162461bcd60e51b81526004016105969061487f565b609a80546001600160a01b0319166001600160a01b0384161790558015612e07576000805461ff00191690555b5050565b600082821115612e62576040805162461bcd60e51b815260206004820152601e60248201527f536166654d6174683a207375627472616374696f6e206f766572666c6f770000604482015290519081900360640190fd5b50900390565b8063ffffffff811681146109785760405162461bcd60e51b8152600401808060200182810382526026815260200180614ba06026913960400191505060405180910390fd5b60006109536001600160a01b03831680600160601b612705565b600061095382670de0b6b3a7640000600160601b612705565b600061095382600160601b670de0b6b3a7640000612705565b60008060cf60009054906101000a90046001600160a01b03166001600160a01b0316636e1d2dd26040518163ffffffff1660e01b815260040160206040518083038186803b158015612f4a57600080fd5b505afa158015612f5e573d6000803e3d6000fd5b505050506040513d601f19601f82011682018060405250810190612f8291906143d3565b90506000612f9084836121b1565b9050600084861115612fcd57612fa68686612e0b565b9050818111612fbd57612fb88161262c565b612fc6565b612fc68261262c565b9350612ff7565b612fd78587612e0b565b9050818111612fee57612fe9816127b4565b61195d565b61195d826127b4565b50505092915050565b60008060008512613011578461301a565b61301a85612105565b9050600080851261302b5784613034565b61303485612105565b9050600080871280156130475750600086135b8061305d575060008713801561305d5750600086125b61306857600061306b565b60015b9050600061307a848488612705565b90508161308f5761308a8161262c565b613098565b613098816127b4565b98975050505050505050565b6001600160a01b038216600090815260d1602090815260408083205460d590925282205460029190910b9062ffffff1682846130e5576001828403036130ec565b8183016001015b905061195d8161361f565b609a54815160405163033e16f360e21b815260009283926001600160a01b0390911691630cf85bcc9161312c91600401614423565b60806040518083038186803b15801561314457600080fd5b505afa158015613158573d6000803e3d6000fd5b505050506040513d601f19601f8201168201806040525081019061317c91906141b2565b905060008160200151905060008260400151905060006131ab866020015187604001518860600151868661329f565b60cd5460408051610100810182528a516001600160a01b0390811682526020808d01511515818401526000838501819052606084018790526080808f015184169085015262ffffff808c1660a08601528a1660c08501528451808601865281815291820181905260e08401919091529251631477e1bf60e31b815294965091945091169163a3bf0df891613241916004016148ce565b606060405180830381600087803b15801561325b57600080fd5b505af115801561326f573d6000803e3d6000fd5b505050506040513d601f19601f820116820180604052508101906132939190614230565b51979650505050505050565b6000806132af8787878787613b01565b9150866132c4576132bf8561262c565b6132cd565b6132cd8261262c565b9050856132e2576132dd81612105565b6132e4565b805b90509550959350505050565b6132f8613c65565b600082608001511161331c5760405162461bcd60e51b81526004016105969061481f565b600082606001516133395761333483608001516127b4565b613346565b613346836080015161262c565b905060008084600001516001600160a01b031663128acb0886602001518760400151868960a001516001600160a01b0316600014613388578960a001516133b2565b89604001516133ab5773fffd8963efd1fc6a506488495d951d5263988d256133b2565b6401000276a45b8a60c001516040518663ffffffff1660e01b81526004016133d79594939291906144fc565b6040805180830381600087803b1580156133f057600080fd5b505af1158015613404573d6000803e3d6000fd5b505050506040513d601f19601f8201168201806040525081019061342891906140ab565b91509150600080613438846126dd565b613441846126dd565b9150915060008760400151151588606001511515146134605781613462565b825b90508760600151158015613481575060a08801516001600160a01b0316155b1561352257600a886080015182116134a75760808901516134a29083612e0b565b6134b7565b60808901516134b7908390612e0b565b106134d45760405162461bcd60e51b81526004016105969061483e565b87604001516134fb5760405180604001604052808960800151815260200183815250613515565b604051806040016040528084815260200189608001518152505b9650505050505050610978565b5060408051808201909152918252602082015295945050505050565b600081613569576135648461355b620f424062ffffff8716612e0b565b620f4240612705565b612c54565b612c5484620f42406135808162ffffff8816612e0b565b613b4a565b80600281900b81146109785760405162461bcd60e51b8152600401808060200182810382526029815260200180614abe6029913960400191505060405180910390fd5b600080821215612674576040805162461bcd60e51b815260206004820181905260248201527f53616665436173743a2076616c7565206d75737420626520706f736974697665604482015290519081900360640190fd5b60008060008360020b12613636578260020b61363e565b8260020b6000035b9050620d89e881111561367c576040805162461bcd60e51b81526020600482015260016024820152601560fa1b604482015290519081900360640190fd5b60006001821661369057600160801b6136a2565b6ffffcb933bd6fad37aa2d162d1a5940015b70ffffffffffffffffffffffffffffffffff16905060028216156136d6576ffff97272373d413259a46990580e213a0260801c5b60048216156136f5576ffff2e50f5f656932ef12357cf3c7fdcc0260801c5b6008821615613714576fffe5caca7e10e4e61c3624eaa0941cd00260801c5b6010821615613733576fffcb9843d60f6159c9db58835c9266440260801c5b6020821615613752576fff973b41fa98c081472e6896dfb254c00260801c5b6040821615613771576fff2ea16466c96a3843ec78b326b528610260801c5b6080821615613790576ffe5dee046a99a2a811c461f1969c30530260801c5b6101008216156137b0576ffcbe86c7900a88aedcffc83b479aa3a40260801c5b6102008216156137d0576ff987a7253ac413176f2b074cf7815e540260801c5b6104008216156137f0576ff3392b0822b70005940c7a398e4b70f30260801c5b610800821615613810576fe7159475a2c29b7443b29c7fa6e889d90260801c5b611000821615613830576fd097f3bdfd2022b8845ad8f792aa58250260801c5b612000821615613850576fa9f746462d870fdf8a65dc1f90e061e50260801c5b614000821615613870576f70d869a156d2a1b890bb3df62baf32f70260801c5b618000821615613890576f31be135f97d08fd981231505542fcfa60260801c5b620100008216156138b1576f09aa508b5b7a84e1c677de54f3e99bc90260801c5b620200008216156138d1576e5d6af8dedb81196699c329225ee6040260801c5b620400008216156138f0576d2216e584f5fa1ea926041bedfe980260801c5b6208000082161561390d576b048a170391f7dc42444e8fa20260801c5b60008460020b131561392857806000198161392457fe5b0490505b64010000000081061561393c57600161393f565b60005b60ff16602082901c0192505050919050565b6000612c54846139618585612678565b600160601b613000565b600054610100900460ff16806139845750613984612c5c565b80613992575060005460ff16155b6139cd5760405162461bcd60e51b815260040180806020018281038252602e815260200180614ae7602e913960400191505060405180910390fd5b600054610100900460ff161580156139f8576000805460ff1961ff0019909116610100171660011790555b613a00613a6c565b6000613a0a61205b565b603380546001600160a01b0319166001600160a01b038316908117909155604051919250906000907f8be0079c531659141344cd1fd0a4f28419497f9722a3daafe3b4186f6b6457e0908290a3508015612d14576000805461ff001916905550565b600054610100900460ff1680613a855750613a85612c5c565b80613a93575060005460ff16155b613ace5760405162461bcd60e51b815260040180806020018281038252602e815260200180614ae7602e913960400191505060405180910390fd5b600054610100900460ff16158015613af9576000805460ff1961ff0019909116610100171660011790555b612d02613b84565b60008515613b325784613b1f57613b1a8484600161353e565b613b2b565b613b2b8483600161353e565b90506120fc565b84613b3d578361195d565b61195d8483856001613c24565b6000613b57848484612705565b905060008280613b6357fe5b84860911156115cb576000198110613b7a57600080fd5b6001019392505050565b600054610100900460ff1680613b9d5750613b9d612c5c565b80613bab575060005460ff16155b613be65760405162461bcd60e51b815260040180806020018281038252602e815260200180614ae7602e913960400191505060405180910390fd5b600054610100900460ff16158015612d02576000805460ff1961ff0019909116610100171660011790558015612d14576000805461ff001916905550565b600080600083613c35578585613c38565b84865b909250905061262187613c53620f424062ffffff8616612e0b565b613580620f424062ffffff8616612e0b565b604051806040016040528060008152602001600081525090565b6040518060c0016040528060008152602001600081526020016000815260200160008152602001600060020b81526020016000151581525090565b6040518060e00160405280600081526020016000815260200160008152602001600081526020016000815260200160008152602001600060020b81525090565b803561097881614a56565b600082601f830112613d15578081fd5b81516020613d2a613d2583614a38565b614a14565b8281528181019085830183850287018401881015613d46578586fd5b855b85811015613d6d578151613d5b81614a56565b84529284019290840190600101613d48565b5090979650505050505050565b803561097881614a6b565b8051600281900b811461097857600080fd5b600060408284031215613da8578081fd5b6040516040810181811067ffffffffffffffff82111715613dc557fe5b604052823581526020928301359281019290925250919050565b805161ffff8116811461097857600080fd5b600060208284031215613e02578081fd5b81356115cb81614a56565b600060208284031215613e1e578081fd5b81516115cb81614a56565b60008060408385031215613e3b578081fd5b8235613e4681614a56565b91506020830135613e5681614a56565b809150509250929050565b60008060008060808587031215613e76578182fd5b8435613e8181614a56565b93506020850135613e9181614a56565b92506040850135613ea181614a56565b91506060850135613eb181614a56565b939692955090935050565b60008060408385031215613ece578182fd5b8235613ed981614a56565b91506020830135613e5681614a79565b60008060408385031215613efb578182fd5b8235613f0681614a56565b91506020830135613e5681614a8a565b60006020808385031215613f28578182fd5b825167ffffffffffffffff811115613f3e578283fd5b8301601f81018513613f4e578283fd5b8051613f5c613d2582614a38565b8181528381019083850185840285018601891015613f78578687fd5b8694505b83851015613fa3578051613f8f81614a56565b835260019490940193918501918501613f7c565b50979650505050505050565b60008060408385031215613fc1578182fd5b825167ffffffffffffffff80821115613fd8578384fd5b818501915085601f830112613feb578384fd5b81516020613ffb613d2583614a38565b82815281810190858301838502870184018b1015614017578889fd5b8896505b848710156140475780518060060b811461403357898afd5b83526001969096019591830191830161401b565b5091880151919650909350505080821115614060578283fd5b5061406d85828601613d05565b9150509250929050565b600060208284031215614088578081fd5b81516115cb81614a6b565b6000602082840312156140a4578081fd5b5051919050565b600080604083850312156140bd578182fd5b505080516020909101519092909150565b600080600080606085870312156140e3578182fd5b8435935060208501359250604085013567ffffffffffffffff80821115614108578384fd5b818701915087601f83011261411b578384fd5b813581811115614129578485fd5b88602082850101111561413a578485fd5b95989497505060200194505050565b600060a0828403121561415a578081fd5b60405160a0810181811067ffffffffffffffff8211171561417757fe5b806040525082518152602083015160208201526040830151604082015260608301516060820152608083015160808201528091505092915050565b6000608082840312156141c3578081fd5b6040516080810181811067ffffffffffffffff821117156141e057fe5b60405282516141ee81614a56565b815260208301516141fe81614a79565b6020820152604083015161421181614a79565b6040820152606083015161422481614a79565b60608201529392505050565b600060608284031215614241578081fd5b6040516060810181811067ffffffffffffffff8211171561425e57fe5b60405261426a83613d85565b815260208301516020820152604083015160408201528091505092915050565b6000610120828403121561429c578081fd5b604051610100810181811067ffffffffffffffff821117156142ba57fe5b6040526142c683613cfa565b81526142d460208401613cfa565b60208201526142e560408401613d7a565b60408201526142f660608401613d7a565b606082015261430760808401613d7a565b608082015260a083013560a082015261432260c08401613cfa565b60c08201526143348460e08501613d97565b60e08201529392505050565b600080600080600080600060e0888a03121561435a578485fd5b875161436581614a56565b965061437360208901613d85565b955061438160408901613ddf565b945061438f60608901613ddf565b935061439d60808901613ddf565b925060a088015160ff811681146143b2578283fd5b60c08901519092506143c381614a6b565b8091505092959891949750929550565b6000602082840312156143e4578081fd5b81516115cb81614a79565b600060208284031215614400578081fd5b81516115cb81614a8a565b80518252602090810151910152565b62ffffff169052565b6001600160a01b0391909116815260200190565b6001600160a01b0392831681529116602082015260400190565b6001600160a01b039384168152919092166020820152901515604082015260600190565b6001600160a01b039384168152919092166020820152604081019190915260600190565b6001600160a01b03978816815295909616602086015260408501939093526060840191909152608083015260a082015260c081019190915260e00190565b6001600160a01b0384811682528316602082015260808101612c54604083018461440b565b600060018060a01b038088168352602087151581850152866040850152818616606085015260a06080850152845191508160a0850152825b828110156145505785810182015185820160c001528101614534565b82811115614561578360c084870101525b5050601f01601f19169190910160c0019695505050505050565b6001600160a01b03929092168252602082015260400190565b6020808252825182820181905260009190848201906040850190845b818110156145d257835163ffffffff16835292840192918401916001016145b0565b50909695505050505050565b60029190910b815260200190565b90815260200190565b60008582528460208301526060604083015282606083015282846080840137818301608090810191909152601f909201601f191601019392505050565b958652602086019490945260408501929092526060840152608083015260a082015260c00190565b60208082526008908201526745585f4f504c425360c01b604082015260600190565b60208082526007908201526645585f42544e4560c81b604082015260600190565b6020808252600790820152660869088be9e86960cb1b604082015260600190565b60208082526008908201526745585f414f504c4f60c01b604082015260600190565b60208082526008908201526745585f4f504c415360c01b604082015260600190565b6020808252600590820152640455f4142360dc1b604082015260600190565b602080825260069082015265455f4f424e4360d01b604082015260600190565b6020808252600890820152674348445f43484e4360c01b604082015260600190565b6020808252600a908201526922ac2fa6aa21a627a7a960b11b604082015260600190565b6020808252600790820152662aa1a12fa321ab60c91b604082015260600190565b6020808252601c908201527f506572704d6174683a20696e76657273696f6e206f766572666c6f7700000000604082015260600190565b60208082526006908201526545585f414e4360d01b604082015260600190565b602080825260069082015265455f43484e4360d01b604082015260600190565b60208082526005908201526455425f5a4960d81b604082015260600190565b60208082526006908201526555425f554f4160d01b604082015260600190565b602080825260079082015266455f4946414e4360c81b604082015260600190565b6020808252600890820152675543425f4d524e4360c01b604082015260600190565b60408101610953828461440b565b608081016148bd828661440b565b604082019390935260600152919050565b60006101208201905060018060a01b03808451168352602084015115156020840152604084015115156040840152606084015160608401528060808501511660808401525060a083015161492560a084018261441a565b5060c083015161493860c084018261441a565b5060e083015161494b60e084018261440b565b5092915050565b81516001600160a01b0390811682526020808401518216908301526040808401519091169082015260608083015162ffffff16908201526080918201519181019190915260a00190565b600060c08201905082518252602083015160208301526040830151604083015260608301516060830152608083015160020b608083015260a0830151151560a083015292915050565b62ffffff91909116815260200190565b918252602082015260400190565b63ffffffff91909116815260200190565b60405181810167ffffffffffffffff81118282101715614a3057fe5b604052919050565b600067ffffffffffffffff821115614a4c57fe5b5060209081020190565b6001600160a01b0381168114612d1457600080fd5b8015158114612d1457600080fd5b62ffffff81168114612d1457600080fd5b63ffffffff81168114612d1457600080fdfe5369676e6564536166654d6174683a206164646974696f6e206f766572666c6f7753616665436173743a2076616c756520646f65736e27742066697420696e20616e2032342062697473496e697469616c697a61626c653a20636f6e747261637420697320616c726561647920696e697469616c697a65645369676e6564536166654d6174683a206469766973696f6e206f766572666c6f7753616665436173743a2076616c7565206d75737420626520706f736974697665206f722076616c756520646f65736e27742066697420696e20616e20323420626974735369676e6564536166654d6174683a206d756c7469706c69636174696f6e206f766572666c6f7753616665436173743a2076616c756520646f65736e27742066697420696e203332206269747353616665436173743a2076616c756520646f65736e27742066697420696e20616e20696e743235365369676e6564536166654d6174683a207375627472616374696f6e206f766572666c6f77a2646970667358221220be3234a514fd0b9a7e7e6b8f99d80cd59e2390eca908e1006627a7e30d394a4464736f6c63430007060033",
  "linkReferences": {},
  "deployedLinkReferences": {}
}