{
  "_format": "hh-sol-artifact-1",
  "contractName": "PerpV2AccountBalance",
  "sourceName": "contracts/AccountBalance.sol",
  "abi": [
    {
      "anonymous": false,
      "inputs": [
        {
          "indexed": true,
          "internalType": "address",
          "name": "clearingHouse",
          "type": "address"
        }
      ],
      "name": "ClearingHouseChanged",
      "type": "event"
    },
    {
      "anonymous": false,
      "inputs": [
        {
          "indexed": true,
          "internalType": "address",
          "name": "previousOwner",
          "type": "address"
        },
        {
          "indexed": true,
          "internalType": "address",
          "name": "newOwner",
          "type": "address"
        }
      ],
      "name": "OwnershipTransferred",
      "type": "event"
    },
    {
      "anonymous": false,
      "inputs": [
        {
          "indexed": true,
          "internalType": "address",
          "name": "trader",
          "type": "address"
        },
        {
          "indexed": false,
          "internalType": "int256",
          "name": "amount",
          "type": "int256"
        }
      ],
      "name": "PnlRealized",
      "type": "event"
    },
    {
      "anonymous": false,
      "inputs": [
        {
          "indexed": true,
          "internalType": "address",
          "name": "trader",
          "type": "address"
        },
        {
          "indexed": true,
          "internalType": "address",
          "name": "baseToken",
          "type": "address"
        },
        {
          "indexed": false,
          "internalType": "int256",
          "name": "deltaBase",
          "type": "int256"
        },
        {
          "indexed": false,
          "internalType": "int256",
          "name": "deltaQuote",
          "type": "int256"
        }
      ],
      "name": "TakerBalancesChanged",
      "type": "event"
    },
    {
      "anonymous": false,
      "inputs": [
        {
          "indexed": true,
          "internalType": "address",
          "name": "vault",
          "type": "address"
        }
      ],
      "name": "VaultChanged",
      "type": "event"
    },
    {
      "inputs": [
        {
          "internalType": "address",
          "name": "trader",
          "type": "address"
        },
        {
          "internalType": "address",
          "name": "baseToken",
          "type": "address"
        },
        {
          "internalType": "int256",
          "name": "base",
          "type": "int256"
        },
        {
          "internalType": "int256",
          "name": "quote",
          "type": "int256"
        },
        {
          "internalType": "int256",
          "name": "owedRealizedPnl",
          "type": "int256"
        }
      ],
      "name": "addBalance",
      "outputs": [],
      "stateMutability": "nonpayable",
      "type": "function"
    },
    {
      "inputs": [
        {
          "internalType": "address",
          "name": "trader",
          "type": "address"
        },
        {
          "internalType": "int256",
          "name": "delta",
          "type": "int256"
        }
      ],
      "name": "addOwedRealizedPnl",
      "outputs": [],
      "stateMutability": "nonpayable",
      "type": "function"
    },
    {
      "inputs": [
        {
          "internalType": "address",
          "name": "trader",
          "type": "address"
        },
        {
          "internalType": "address",
          "name": "baseToken",
          "type": "address"
        },
        {
          "internalType": "int256",
          "name": "base",
          "type": "int256"
        },
        {
          "internalType": "int256",
          "name": "quote",
          "type": "int256"
        },
        {
          "internalType": "int256",
          "name": "deltaTakerBase",
          "type": "int256"
        },
        {
          "internalType": "int256",
          "name": "deltaTakerQuote",
          "type": "int256"
        },
        {
          "internalType": "int256",
          "name": "owedRealizedPnl",
          "type": "int256"
        }
      ],
      "name": "addTakerBalances",
      "outputs": [],
      "stateMutability": "nonpayable",
      "type": "function"
    },
    {
      "inputs": [],
      "name": "candidate",
      "outputs": [
        {
          "internalType": "address",
          "name": "",
          "type": "address"
        }
      ],
      "stateMutability": "view",
      "type": "function"
    },
    {
      "inputs": [
        {
          "internalType": "address",
          "name": "trader",
          "type": "address"
        },
        {
          "internalType": "address",
          "name": "baseToken",
          "type": "address"
        }
      ],
      "name": "deregisterBaseToken",
      "outputs": [],
      "stateMutability": "nonpayable",
      "type": "function"
    },
    {
      "inputs": [
        {
          "internalType": "address",
          "name": "trader",
          "type": "address"
        },
        {
          "internalType": "address",
          "name": "baseToken",
          "type": "address"
        }
      ],
      "name": "getAccountInfo",
      "outputs": [
        {
          "components": [
            {
              "internalType": "int256",
              "name": "baseBalance",
              "type": "int256"
            },
            {
              "internalType": "int256",
              "name": "quoteBalance",
              "type": "int256"
            },
            {
              "internalType": "int256",
              "name": "takerBaseBalance",
              "type": "int256"
            },
            {
              "internalType": "int256",
              "name": "takerQuoteBalance",
              "type": "int256"
            },
            {
              "internalType": "int256",
              "name": "lastTwPremiumGrowthGlobalX96",
              "type": "int256"
            }
          ],
          "internalType": "struct AccountMarket.Info",
          "name": "",
          "type": "tuple"
        }
      ],
      "stateMutability": "view",
      "type": "function"
    },
    {
      "inputs": [
        {
          "internalType": "address",
          "name": "trader",
          "type": "address"
        },
        {
          "internalType": "address",
          "name": "baseToken",
          "type": "address"
        }
      ],
      "name": "getBase",
      "outputs": [
        {
          "internalType": "int256",
          "name": "",
          "type": "int256"
        }
      ],
      "stateMutability": "view",
      "type": "function"
    },
    {
      "inputs": [
        {
          "internalType": "address",
          "name": "trader",
          "type": "address"
        }
      ],
      "name": "getBaseTokens",
      "outputs": [
        {
          "internalType": "address[]",
          "name": "",
          "type": "address[]"
        }
      ],
      "stateMutability": "view",
      "type": "function"
    },
    {
      "inputs": [],
      "name": "getClearingHouse",
      "outputs": [
        {
          "internalType": "address",
          "name": "",
          "type": "address"
        }
      ],
      "stateMutability": "view",
      "type": "function"
    },
    {
      "inputs": [],
      "name": "getClearingHouseConfig",
      "outputs": [
        {
          "internalType": "address",
          "name": "",
          "type": "address"
        }
      ],
      "stateMutability": "view",
      "type": "function"
    },
    {
      "inputs": [],
      "name": "getExchange",
      "outputs": [
        {
          "internalType": "address",
          "name": "",
          "type": "address"
        }
      ],
      "stateMutability": "view",
      "type": "function"
    },
    {
      "inputs": [
        {
          "internalType": "address",
          "name": "trader",
          "type": "address"
        }
      ],
      "name": "getMarginRequirementForLiquidation",
      "outputs": [
        {
          "internalType": "int256",
          "name": "",
          "type": "int256"
        }
      ],
      "stateMutability": "view",
      "type": "function"
    },
    {
      "inputs": [
        {
          "internalType": "address",
          "name": "trader",
          "type": "address"
        }
      ],
      "name": "getNetQuoteBalance",
      "outputs": [
        {
          "internalType": "int256",
          "name": "",
          "type": "int256"
        }
      ],
      "stateMutability": "view",
      "type": "function"
    },
    {
      "inputs": [],
      "name": "getOrderBook",
      "outputs": [
        {
          "internalType": "address",
          "name": "",
          "type": "address"
        }
      ],
      "stateMutability": "view",
      "type": "function"
    },
    {
      "inputs": [
        {
          "internalType": "address",
          "name": "trader",
          "type": "address"
        }
      ],
      "name": "getOwedAndUnrealizedPnl",
      "outputs": [
        {
          "internalType": "int256",
          "name": "",
          "type": "int256"
        },
        {
          "internalType": "int256",
          "name": "",
          "type": "int256"
        }
      ],
      "stateMutability": "view",
      "type": "function"
    },
    {
      "inputs": [
        {
          "internalType": "address",
          "name": "trader",
          "type": "address"
        },
        {
          "internalType": "address",
          "name": "baseToken",
          "type": "address"
        }
      ],
      "name": "getQuote",
      "outputs": [
        {
          "internalType": "int256",
          "name": "",
          "type": "int256"
        }
      ],
      "stateMutability": "view",
      "type": "function"
    },
    {
      "inputs": [
        {
          "internalType": "address",
          "name": "trader",
          "type": "address"
        },
        {
          "internalType": "address",
          "name": "baseToken",
          "type": "address"
        }
      ],
      "name": "getTakerPositionSize",
      "outputs": [
        {
          "internalType": "int256",
          "name": "",
          "type": "int256"
        }
      ],
      "stateMutability": "view",
      "type": "function"
    },
    {
      "inputs": [
        {
          "internalType": "address",
          "name": "trader",
          "type": "address"
        },
        {
          "internalType": "address",
          "name": "baseToken",
          "type": "address"
        }
      ],
      "name": "getTakerQuote",
      "outputs": [
        {
          "internalType": "int256",
          "name": "",
          "type": "int256"
        }
      ],
      "stateMutability": "view",
      "type": "function"
    },
    {
      "inputs": [
        {
          "internalType": "address",
          "name": "trader",
          "type": "address"
        }
      ],
      "name": "getTotalAbsPositionValue",
      "outputs": [
        {
          "internalType": "uint256",
          "name": "",
          "type": "uint256"
        }
      ],
      "stateMutability": "view",
      "type": "function"
    },
    {
      "inputs": [
        {
          "internalType": "address",
          "name": "trader",
          "type": "address"
        }
      ],
      "name": "getTotalDebtValue",
      "outputs": [
        {
          "internalType": "uint256",
          "name": "",
          "type": "uint256"
        }
      ],
      "stateMutability": "view",
      "type": "function"
    },
    {
      "inputs": [
        {
          "internalType": "address",
          "name": "trader",
          "type": "address"
        },
        {
          "internalType": "address",
          "name": "baseToken",
          "type": "address"
        }
      ],
      "name": "getTotalPositionSize",
      "outputs": [
        {
          "internalType": "int256",
          "name": "",
          "type": "int256"
        }
      ],
      "stateMutability": "view",
      "type": "function"
    },
    {
      "inputs": [
        {
          "internalType": "address",
          "name": "trader",
          "type": "address"
        },
        {
          "internalType": "address",
          "name": "baseToken",
          "type": "address"
        }
      ],
      "name": "getTotalPositionValue",
      "outputs": [
        {
          "internalType": "int256",
          "name": "",
          "type": "int256"
        }
      ],
      "stateMutability": "view",
      "type": "function"
    },
    {
      "inputs": [],
      "name": "getVault",
      "outputs": [
        {
          "internalType": "address",
          "name": "",
          "type": "address"
        }
      ],
      "stateMutability": "view",
      "type": "function"
    },
    {
      "inputs": [
        {
          "internalType": "address",
          "name": "trader",
          "type": "address"
        }
      ],
      "name": "hasOrder",
      "outputs": [
        {
          "internalType": "bool",
          "name": "",
          "type": "bool"
        }
      ],
      "stateMutability": "view",
      "type": "function"
    },
    {
      "inputs": [
        {
          "internalType": "address",
          "name": "clearingHouseConfigArg",
          "type": "address"
        },
        {
          "internalType": "address",
          "name": "exchangeArg",
          "type": "address"
        }
      ],
      "name": "initialize",
      "outputs": [],
      "stateMutability": "nonpayable",
      "type": "function"
    },
    {
      "inputs": [],
      "name": "owner",
      "outputs": [
        {
          "internalType": "address",
          "name": "",
          "type": "address"
        }
      ],
      "stateMutability": "view",
      "type": "function"
    },
    {
      "inputs": [
        {
          "internalType": "address",
          "name": "trader",
          "type": "address"
        },
        {
          "internalType": "address",
          "name": "baseToken",
          "type": "address"
        }
      ],
      "name": "registerBaseToken",
      "outputs": [],
      "stateMutability": "nonpayable",
      "type": "function"
    },
    {
      "inputs": [],
      "name": "renounceOwnership",
      "outputs": [],
      "stateMutability": "nonpayable",
      "type": "function"
    },
    {
      "inputs": [
        {
          "internalType": "address",
          "name": "clearingHouseArg",
          "type": "address"
        }
      ],
      "name": "setClearingHouse",
      "outputs": [],
      "stateMutability": "nonpayable",
      "type": "function"
    },
    {
      "inputs": [
        {
          "internalType": "address",
          "name": "newOwner",
          "type": "address"
        }
      ],
      "name": "setOwner",
      "outputs": [],
      "stateMutability": "nonpayable",
      "type": "function"
    },
    {
      "inputs": [
        {
          "internalType": "address",
          "name": "vaultArg",
          "type": "address"
        }
      ],
      "name": "setVault",
      "outputs": [],
      "stateMutability": "nonpayable",
      "type": "function"
    },
    {
      "inputs": [
        {
          "internalType": "address",
          "name": "maker",
          "type": "address"
        },
        {
          "internalType": "address",
          "name": "baseToken",
          "type": "address"
        },
        {
          "internalType": "int256",
          "name": "base",
          "type": "int256"
        },
        {
          "internalType": "int256",
          "name": "quote",
          "type": "int256"
        },
        {
          "internalType": "int256",
          "name": "deltaTakerBase",
          "type": "int256"
        },
        {
          "internalType": "int256",
          "name": "deltaTakerQuote",
          "type": "int256"
        },
        {
          "internalType": "int256",
          "name": "fee",
          "type": "int256"
        }
      ],
      "name": "settleBalanceAndDeregister",
      "outputs": [],
      "stateMutability": "nonpayable",
      "type": "function"
    },
    {
      "inputs": [
        {
          "internalType": "address",
          "name": "trader",
          "type": "address"
        }
      ],
      "name": "settleOwedRealizedPnl",
      "outputs": [
        {
          "internalType": "int256",
          "name": "",
          "type": "int256"
        }
      ],
      "stateMutability": "nonpayable",
      "type": "function"
    },
    {
      "inputs": [
        {
          "internalType": "address",
          "name": "trader",
          "type": "address"
        },
        {
          "internalType": "address",
          "name": "baseToken",
          "type": "address"
        },
        {
          "internalType": "int256",
          "name": "amount",
          "type": "int256"
        }
      ],
      "name": "settleQuoteToPnl",
      "outputs": [],
      "stateMutability": "nonpayable",
      "type": "function"
    },
    {
      "inputs": [],
      "name": "updateOwner",
      "outputs": [],
      "stateMutability": "nonpayable",
      "type": "function"
    },
    {
      "inputs": [
        {
          "internalType": "address",
          "name": "trader",
          "type": "address"
        },
        {
          "internalType": "address",
          "name": "baseToken",
          "type": "address"
        },
        {
          "internalType": "int256",
          "name": "lastTwPremiumGrowthGlobalX96",
          "type": "int256"
        }
      ],
      "name": "updateTwPremiumGrowthGlobal",
      "outputs": [],
      "stateMutability": "nonpayable",
      "type": "function"
    }
  ],
  "bytecode": "0x608060405234801561001057600080fd5b50612de5806100206000396000f3fe608060405234801561001057600080fd5b506004361061021c5760003560e01c8063abdeb60411610125578063cb3c7b8e116100ad578063f807cd221161007c578063f807cd2214610470578063fa51ba8514610478578063fa8e30af1461048b578063fc7372141461049e578063fd6ceee5146104b15761021c565b8063cb3c7b8e14610417578063e7ec1a8514610437578063f0c797971461044a578063f75c266d1461045d5761021c565b8063b3bd6e12116100f4578063b3bd6e12146103c0578063bc5920ba146103d3578063beb56a75146103db578063c575ff79146103ee578063c5bba90f146103f65761021c565b8063abdeb60414610372578063af74e73614610385578063b248c4ef146103a5578063b2e27148146103ad5761021c565b806368f12e12116101a85780637a5b45a0116101775780637a5b45a0146103345780638227bc3e146103475780638d928af81461035a5780638da5cb5b14610362578063aa2a82941461036a5761021c565b806368f12e12146102f15780636c8381f8146103045780636ccdc82e14610319578063715018a61461032c5761021c565b80633f935107116101ef5780633f93510714610285578063449323d814610298578063485cc955146102ab5780636332fef6146102be5780636817031b146102de5761021c565b806313af403514610221578063293a5077146102365780632e4586c31461025f5780633772470214610272575b600080fd5b61023461022f366004612715565b6104c4565b005b610249610244366004612715565b61061f565b6040516102569190612af5565b60405180910390f35b61023461026d366004612785565b610774565b610234610280366004612876565b6107e6565b61024961029336600461274d565b610853565b6102346102a6366004612715565b61089f565b6102346102b936600461274d565b610974565b6102d16102cc36600461274d565b610b5b565b6040516102569190612c8d565b6102346102ec366004612715565b610bc6565b6102496102ff36600461274d565b610c9b565b61030c610d5b565b60405161025691906129ef565b610249610327366004612715565b610d6a565b610234610e33565b61024961034236600461274d565b610ee6565b610249610355366004612715565b610f14565b61030c61105c565b61030c61106b565b61030c61107a565b61024961038036600461274d565b611089565b610398610393366004612715565b6110b7565b6040516102569190612a9d565b61030c61112d565b6102496103bb36600461274d565b61113c565b6102496103ce36600461274d565b611172565b61023461119d565b6102346103e93660046127c5565b61129b565b61030c6112e9565b610409610404366004612715565b6112f8565b604051610256929190612afe565b61042a610425366004612715565b6113a6565b6040516102569190612aea565b610234610445366004612815565b61143a565b610234610458366004612785565b6114bb565b61024961046b366004612715565b611500565b61030c61159d565b610234610486366004612815565b6115ac565b61023461049936600461274d565b611613565b6102346104ac36600461274d565b611657565b6102496104bf366004612715565b611920565b6104cc61197d565b6001600160a01b03166104dd61106b565b6001600160a01b031614610521576040805162461bcd60e51b8152602060048201526006602482015265534f5f434e4f60d01b604482015290519081900360640190fd5b6001600160a01b038116610565576040805162461bcd60e51b81526020600482015260066024820152650534f5f4e57360d41b604482015290519081900360640190fd5b6033546001600160a01b03828116911614156105b1576040805162461bcd60e51b8152602060048201526006602482015265534f5f53414f60d01b604482015290519081900360640190fd5b6034546001600160a01b03828116911614156105fd576040805162461bcd60e51b8152602060048201526006602482015265534f5f53414360d01b604482015290519081900360640190fd5b603480546001600160a01b0319166001600160a01b0392909216919091179055565b6001600160a01b0381166000908152609f602052604081205481908190815b81811015610742576001600160a01b0386166000908152609f6020526040812080548390811061066a57fe5b60009182526020808320909101546001600160a01b038a8116845260a080845260408086209290931680865291845282852083519182018452805480835260018201549583019590955260028101549382019390935260038301546060820152600490920154608083015293509190811315610709576107046106ff6106f76106f286611981565b611a84565b845190611ad0565b611b80565b61070c565b60005b90506107188682611b8e565b9550610731826020015188611b8e90919063ffffffff16565b9650506001909201915061063e9050565b506000808412156107535783610756565b60005b905061076a6107658285611b8e565b611bf3565b9695505050505050565b609b546001600160a01b031661078861197d565b6001600160a01b0316146107b75760405162461bcd60e51b81526004016107ae90612c2e565b60405180910390fd5b6001600160a01b03928316600090815260a0602090815260408083209490951682529290925291902060040155565b609b546001600160a01b03166107fa61197d565b6001600160a01b0316148061082957506067546001600160a01b031661081e61197d565b6001600160a01b0316145b6108455760405162461bcd60e51b81526004016107ae90612c0a565b61084f8282611c1b565b5050565b6000806108608484610c9b565b905080610871576000915050610899565b600061087c84611981565b90506108946106ff61088d83611a84565b8490611ad0565b925050505b92915050565b6108a761197d565b6001600160a01b03166108b861106b565b6001600160a01b0316146108fc576040805162461bcd60e51b8152602060048201526006602482015265534f5f434e4f60d01b604482015290519081900360640190fd5b61090e816001600160a01b0316611c9d565b61092a5760405162461bcd60e51b81526004016107ae90612b90565b606780546001600160a01b0319166001600160a01b0383169081179091556040517fd0654f5900f9e7e4e605a19334306e6a2786bbf960ac0484a4c12feb6428fe2f90600090a250565b600054610100900460ff168061098d575061098d611ca3565b8061099b575060005460ff16155b6109d65760405162461bcd60e51b815260040180806020018281038252602e815260200180612d0f602e913960400191505060405180910390fd5b600054610100900460ff16158015610a01576000805460ff1961ff0019909116610100171660011790555b610a13836001600160a01b0316611c9d565b610a2f5760405162461bcd60e51b81526004016107ae90612b0c565b610a41826001600160a01b0316611c9d565b610a5d5760405162461bcd60e51b81526004016107ae90612b4f565b6000826001600160a01b031663b248c4ef6040518163ffffffff1660e01b815260040160206040518083038186803b158015610a9857600080fd5b505afa158015610aac573d6000803e3d6000fd5b505050506040513d601f19601f82011682018060405250810190610ad09190612731565b9050610ae4816001600160a01b0316611c9d565b610b005760405162461bcd60e51b81526004016107ae90612be9565b610b08611cb4565b609a80546001600160a01b038087166001600160a01b031992831617909255609b8054868416908316179055609c80549390921692169190911790558015610b56576000805461ff00191690555b505050565b610b636126e6565b506001600160a01b03918216600090815260a0602081815260408084209490951683529283529083902083519182018452805482526001810154928201929092526002820154928101929092526003810154606083015260040154608082015290565b610bce61197d565b6001600160a01b0316610bdf61106b565b6001600160a01b031614610c23576040805162461bcd60e51b8152602060048201526006602482015265534f5f434e4f60d01b604482015290519081900360640190fd5b610c35816001600160a01b0316611c9d565b610c515760405162461bcd60e51b81526004016107ae90612c6d565b609d80546001600160a01b0319166001600160a01b0383169081179091556040517fa49691f0dd6477ccef49962612a236d252e3a31c3be8b61fa6abeff3e74a757290600090a250565b600080610d38610cab8585611172565b609c5460405163bf0b1abb60e01b8152610d32916001600160a01b03169063bf0b1abb90610ce2908a908a90600190600401612a1d565b60206040518083038186803b158015610cfa57600080fd5b505afa158015610d0e573d6000803e3d6000fd5b505050506040513d601f19601f820116820180604052508101906106f29190612992565b90611b8e565b9050600a610d4582611bf3565b10610d505780610d53565b60005b949350505050565b6034546001600160a01b031690565b6001600160a01b0381166000908152609f6020908152604080832080548251818502810185019093528083528493830182828015610dd157602002820191906000526020600020905b81546001600160a01b03168152600190910190602001808311610db3575b505050505090506000808251905060005b81811015610e29576000848281518110610df857fe5b602002602001015190506000610e116107658984610853565b9050610e1d8582611d5e565b94505050600101610de2565b5090949350505050565b610e3b61197d565b6001600160a01b0316610e4c61106b565b6001600160a01b031614610e90576040805162461bcd60e51b8152602060048201526006602482015265534f5f434e4f60d01b604482015290519081900360640190fd5b6033546040516000916001600160a01b0316907f8be0079c531659141344cd1fd0a4f28419497f9722a3daafe3b4186f6b6457e0908390a3603380546001600160a01b0319908116909155603480549091169055565b6001600160a01b03918216600090815260a06020908152604080832093909416825291909152206001015490565b6001600160a01b0381166000908152609f60205260408120548190815b81811015610f93576001600160a01b0385166000908152609f60205260408120805483908110610f5d57fe5b6000918252602090912001546001600160a01b03169050610f88610f818783610ee6565b8590611b8e565b935050600101610f31565b50609c546001600160a01b038581166000908152609f60205260408082209051632196f33360e21b81529193929092169163865bcccc91610fd8918991600401612a41565b60206040518083038186803b158015610ff057600080fd5b505afa158015611004573d6000803e3d6000fd5b505050506040513d601f19601f820116820180604052508101906110289190612992565b90506000611038610f8183611a84565b9050600a61104582611bf3565b10611050578061076a565b50600095945050505050565b609d546001600160a01b031690565b6033546001600160a01b031690565b609a546001600160a01b031690565b6001600160a01b03918216600090815260a06020908152604080832093909416825291909152206003015490565b6001600160a01b0381166000908152609f602090815260409182902080548351818402810184019094528084526060939283018282801561112157602002820191906000526020600020905b81546001600160a01b03168152600190910190602001808311611103575b50505050509050919050565b609c546001600160a01b031690565b6001600160a01b03808316600090815260a060209081526040808320938516835292905290812060020154600a610d4582611bf3565b6001600160a01b03918216600090815260a06020908152604080832093909416825291909152205490565b6034546001600160a01b03166111e2576040805162461bcd60e51b81526020600482015260056024820152640534f5f43360dc1b604482015290519081900360640190fd5b6111ea61197d565b6034546001600160a01b03908116911614611235576040805162461bcd60e51b8152602060048201526006602482015265534f5f434e4360d01b604482015290519081900360640190fd5b6034546033546040516001600160a01b0392831692909116907f8be0079c531659141344cd1fd0a4f28419497f9722a3daafe3b4186f6b6457e090600090a360348054603380546001600160a01b03199081166001600160a01b03841617909155169055565b6067546001600160a01b03166112af61197d565b6001600160a01b0316146112d55760405162461bcd60e51b81526004016107ae90612b2e565b6112e28585858585611db8565b5050505050565b6067546001600160a01b031690565b6001600160a01b0381166000908152609f602052604081205481908190815b81811015611372576001600160a01b0386166000908152609f6020526040812080548390811061134357fe5b6000918252602090912001546001600160a01b03169050611367610f818883610853565b935050600101611317565b50600061138283610d3288610f14565b6001600160a01b03969096166000908152609e602052604090205496945050505050565b609c546001600160a01b038281166000908152609f60205260408082209051634dffaee560e01b815291939290921691634dffaee5916113ea918691600401612a41565b60206040518083038186803b15801561140257600080fd5b505afa158015611416573d6000803e3d6000fd5b505050506040513d601f19601f82011682018060405250810190610899919061294f565b609b546001600160a01b031661144e61197d565b6001600160a01b0316148061147d57506067546001600160a01b031661147261197d565b6001600160a01b0316145b6114995760405162461bcd60e51b81526004016107ae90612c0a565b6114a68787878785611db8565b6114b287878585611e11565b50505050505050565b609b546001600160a01b03166114cf61197d565b6001600160a01b0316146114f55760405162461bcd60e51b81526004016107ae90612c2e565b610b56838383611eb5565b60006108996106f2609a60009054906101000a90046001600160a01b03166001600160a01b031663a85494026040518163ffffffff1660e01b815260040160206040518083038186803b15801561155657600080fd5b505afa15801561156a573d6000803e3d6000fd5b505050506040513d601f19601f8201168201806040525081019061158e919061296f565b61159785610d6a565b90611f12565b609b546001600160a01b031690565b6067546001600160a01b03166115c061197d565b6001600160a01b0316146115e65760405162461bcd60e51b81526004016107ae90612b2e565b6115f38787878785611db8565b6115ff87878585611e11565b6116098787611f27565b6114b28787611fdb565b6067546001600160a01b031661162761197d565b6001600160a01b03161461164d5760405162461bcd60e51b81526004016107ae90612b2e565b61084f8282611fdb565b6067546001600160a01b031661166b61197d565b6001600160a01b0316146116915760405162461bcd60e51b81526004016107ae90612b2e565b6001600160a01b0382166000908152609f60209081526040808320805482518185028101850190935280835291929091908301828280156116fb57602002820191906000526020600020905b81546001600160a01b031681526001909101906020018083116116dd575b5050505050905080516000141561175057506001600160a01b038281166000908152609f602090815260408220805460018101825590835291200180546001600160a01b03191691831691909117905561084f565b61175a8383611172565b1580156117eb5750609c546040516321b499f560e11b81526001600160a01b039091169063436933ea906117949086908690600401612a03565b60006040518083038186803b1580156117ac57600080fd5b505afa1580156117c0573d6000803e3d6000fd5b505050506040513d6000823e601f3d908101601f191682016040526117e891908101906128a1565b51155b15610b565760005b815181101561183857826001600160a01b031682828151811061181257fe5b60200260200101516001600160a01b0316141561183057505061084f565b6001016117f3565b50609a60009054906101000a90046001600160a01b03166001600160a01b0316632c47ccba6040518163ffffffff1660e01b815260040160206040518083038186803b15801561188757600080fd5b505afa15801561189b573d6000803e3d6000fd5b505050506040513d601f19601f820116820180604052508101906118bf91906129ce565b60ff168151106118e15760405162461bcd60e51b81526004016107ae90612b70565b506001600160a01b039182166000908152609f602090815260408220805460018101825590835291200180546001600160a01b03191691909216179055565b609d546000906001600160a01b031661193761197d565b6001600160a01b03161461195d5760405162461bcd60e51b81526004016107ae90612c4e565b506001600160a01b03166000908152609e60205260408120805491905590565b3390565b6000816001600160a01b03166312080647609a60009054906101000a90046001600160a01b03166001600160a01b0316633e742e3b6040518163ffffffff1660e01b815260040160206040518083038186803b1580156119e057600080fd5b505afa1580156119f4573d6000803e3d6000fd5b505050506040513d601f19601f82011682018060405250810190611a1891906129aa565b6040518263ffffffff1660e01b8152600401611a349190612cc7565b60206040518083038186803b158015611a4c57600080fd5b505afa158015611a60573d6000803e3d6000fd5b505050506040513d601f19601f820116820180604052508101906108999190612992565b60006001600160ff1b03821115611acc5760405162461bcd60e51b8152600401808060200182810382526028815260200180612d646028913960400191505060405180910390fd5b5090565b600082611adf57506000610899565b82600019148015611af35750600160ff1b82145b15611b2f5760405162461bcd60e51b8152600401808060200182810382526027815260200180612d3d6027913960400191505060405180910390fd5b82820282848281611b3c57fe5b0514611b795760405162461bcd60e51b8152600401808060200182810382526027815260200180612d3d6027913960400191505060405180910390fd5b9392505050565b670de0b6b3a7640000900590565b6000828201818312801590611ba35750838112155b80611bb85750600083128015611bb857508381125b611b795760405162461bcd60e51b8152600401808060200182810382526021815260200180612cee6021913960400191505060405180910390fd5b6000808213611c1257611c0d611c088361231e565b61234a565b610899565b6108998261234a565b801561084f576001600160a01b0382166000908152609e6020526040902054611c449082611b8e565b6001600160a01b0383166000818152609e6020526040908190209290925590517febf4e69d81451d269fc4d9551b06d58bea2ed426d2c528919ce45f6070946efb90611c91908490612af5565b60405180910390a25050565b3b151590565b6000611cae30611c9d565b15905090565b600054610100900460ff1680611ccd5750611ccd611ca3565b80611cdb575060005460ff16155b611d165760405162461bcd60e51b815260040180806020018281038252602e815260200180612d0f602e913960400191505060405180910390fd5b600054610100900460ff16158015611d41576000805460ff1961ff0019909116610100171660011790555b611d496123a1565b8015611d5b576000805461ff00191690555b50565b600082820183811015611b79576040805162461bcd60e51b815260206004820152601b60248201527f536166654d6174683a206164646974696f6e206f766572666c6f770000000000604482015290519081900360640190fd5b6001600160a01b03808616600090815260a0602090815260408083209388168352929052208054611de99085611b8e565b81556001810154611dfa9084611b8e565b6001820155611e098683611c1b565b505050505050565b6001600160a01b03808516600090815260a0602090815260408083209387168352929052206002810154611e459084611b8e565b60028201556003810154611e599083611b8e565b8160030181905550836001600160a01b0316856001600160a01b03167f58311dac85a269dfcb2c361ba74457d04ec2d4f89db2dbe9295d0e04cf7b8e228585604051611ea6929190612afe565b60405180910390a35050505050565b6001600160a01b03808416600090815260a0602090815260408083209386168352929052206001810154611ee990836124a2565b60018201556003810154611efd90836124a2565b6003820155611f0c8483611c1b565b50505050565b6000611b79838362ffffff16620f4240612507565b611f318282610c9b565b158015611fc25750609c546040516321b499f560e11b81526001600160a01b039091169063436933ea90611f6b9085908590600401612a03565b60006040518083038186803b158015611f8357600080fd5b505afa158015611f97573d6000803e3d6000fd5b505050506040513d6000823e601f3d908101601f19168201604052611fbf91908101906128a1565b51155b1561084f5761084f8282611fd68585610ee6565b611eb5565b6001600160a01b03808316600090815260a060208181526040808420948616845293815291839020835191820184528054808352600182015493830193909352600281015493820193909352600383015460608201526004909201546080830152600a9061204890611bf3565b1015806120625750600a61205f8260200151611bf3565b10155b1561206d575061084f565b609c5460405163bf0b1abb60e01b81526000916001600160a01b03169063bf0b1abb906120a39087908790600190600401612a1d565b60206040518083038186803b1580156120bb57600080fd5b505afa1580156120cf573d6000803e3d6000fd5b505050506040513d601f19601f820116820180604052508101906120f39190612992565b9050801561210257505061084f565b609c5460405163bf0b1abb60e01b81526000916001600160a01b03169063bf0b1abb9061213790889088908690600401612a1d565b60206040518083038186803b15801561214f57600080fd5b505afa158015612163573d6000803e3d6000fd5b505050506040513d601f19601f820116820180604052508101906121879190612992565b905080156121975750505061084f565b6001600160a01b03808616600081815260a0602090815260408083209489168352938152838220828155600181018390556002810183905560038101839055600401829055918152609f90915290812054905b818110156114b2576001600160a01b038781166000908152609f602052604090208054918816918390811061221b57fe5b6000918252602090912001546001600160a01b03161415612316576001820381146122ce576001600160a01b0387166000908152609f602052604090208054600019840190811061226857fe5b60009182526020808320909101546001600160a01b038a81168452609f909252604090922080549190921691908390811061229f57fe5b9060005260206000200160006101000a8154816001600160a01b0302191690836001600160a01b031602179055505b6001600160a01b0387166000908152609f602052604090208054806122ef57fe5b600082815260209020810160001990810180546001600160a01b03191690550190556114b2565b6001016121ea565b6000600160ff1b82136123435760405162461bcd60e51b81526004016107ae90612bb2565b5060000390565b600080821215611acc576040805162461bcd60e51b815260206004820181905260248201527f53616665436173743a2076616c7565206d75737420626520706f736974697665604482015290519081900360640190fd5b600054610100900460ff16806123ba57506123ba611ca3565b806123c8575060005460ff16155b6124035760405162461bcd60e51b815260040180806020018281038252602e815260200180612d0f602e913960400191505060405180910390fd5b600054610100900460ff1615801561242e576000805460ff1961ff0019909116610100171660011790555b6124366125b6565b600061244061197d565b603380546001600160a01b0319166001600160a01b038316908117909155604051919250906000907f8be0079c531659141344cd1fd0a4f28419497f9722a3daafe3b4186f6b6457e0908290a3508015611d5b576000805461ff001916905550565b60008183038183128015906124b75750838113155b806124cc57506000831280156124cc57508381135b611b795760405162461bcd60e51b8152600401808060200182810382526024815260200180612d8c6024913960400191505060405180910390fd5b600080806000198587098686029250828110908390030390508061253d576000841161253257600080fd5b508290049050611b79565b80841161254957600080fd5b6000848688096000868103871696879004966002600389028118808a02820302808a02820302808a02820302808a02820302808a02820302808a02909103029181900381900460010186841190950394909402919094039290920491909117919091029150509392505050565b600054610100900460ff16806125cf57506125cf611ca3565b806125dd575060005460ff16155b6126185760405162461bcd60e51b815260040180806020018281038252602e815260200180612d0f602e913960400191505060405180910390fd5b600054610100900460ff16158015612643576000805460ff1961ff0019909116610100171660011790555b611d49600054610100900460ff168061265f575061265f611ca3565b8061266d575060005460ff16155b6126a85760405162461bcd60e51b815260040180806020018281038252602e815260200180612d0f602e913960400191505060405180910390fd5b600054610100900460ff16158015611d49576000805460ff1961ff0019909116610100171660011790558015611d5b576000805461ff001916905550565b6040518060a0016040528060008152602001600081526020016000815260200160008152602001600081525090565b600060208284031215612726578081fd5b8135611b7981612cd8565b600060208284031215612742578081fd5b8151611b7981612cd8565b6000806040838503121561275f578081fd5b823561276a81612cd8565b9150602083013561277a81612cd8565b809150509250929050565b600080600060608486031215612799578081fd5b83356127a481612cd8565b925060208401356127b481612cd8565b929592945050506040919091013590565b600080600080600060a086880312156127dc578081fd5b85356127e781612cd8565b945060208601356127f781612cd8565b94979496505050506040830135926060810135926080909101359150565b600080600080600080600060e0888a03121561282f578182fd5b873561283a81612cd8565b9650602088013561284a81612cd8565b96999698505050506040850135946060810135946080820135945060a0820135935060c0909101359150565b60008060408385031215612888578182fd5b823561289381612cd8565b946020939093013593505050565b600060208083850312156128b3578182fd5b825167ffffffffffffffff808211156128ca578384fd5b818501915085601f8301126128dd578384fd5b8151818111156128e957fe5b8381026040518582820101818110858211171561290257fe5b604052828152858101935084860182860187018a1015612920578788fd5b8795505b83861015612942578051855260019590950194938601938601612924565b5098975050505050505050565b600060208284031215612960578081fd5b81518015158114611b79578182fd5b600060208284031215612980578081fd5b815162ffffff81168114611b79578182fd5b6000602082840312156129a3578081fd5b5051919050565b6000602082840312156129bb578081fd5b815163ffffffff81168114611b79578182fd5b6000602082840312156129df578081fd5b815160ff81168114611b79578182fd5b6001600160a01b0391909116815260200190565b6001600160a01b0392831681529116602082015260400190565b6001600160a01b039384168152919092166020820152901515604082015260600190565b60006040820160018060a01b03808616845260206040818601528286548085526060870191508786528286209450855b81811015612a8f578554851683526001958601959284019201612a71565b509098975050505050505050565b6020808252825182820181905260009190848201906040850190845b81811015612ade5783516001600160a01b031683529284019291840191600101612ab9565b50909695505050505050565b901515815260200190565b90815260200190565b918252602082015260400190565b60208082526008908201526741425f4348434e4360c01b604082015260600190565b6020808252600790820152660869088be9e86960cb1b604082015260600190565b60208082526007908201526641425f45584e4360c81b604082015260600190565b60208082526006908201526541425f4d4e4560d01b604082015260600190565b6020808252600890820152674348445f43484e4360c01b604082015260600190565b6020808252601c908201527f506572704d6174683a20696e76657273696f6e206f766572666c6f7700000000604082015260600190565b60208082526007908201526641425f4f424e4360c81b604082015260600190565b6020808252600a908201526908284be9ebe8ab0f886960b31b604082015260600190565b60208082526006908201526508284be9e8ab60d31b604082015260600190565b60208082526005908201526420a12fa7ab60d91b604082015260600190565b60208082526006908201526541425f564e4360d01b604082015260600190565b600060a082019050825182526020830151602083015260408301516040830152606083015160608301526080830151608083015292915050565b63ffffffff91909116815260200190565b6001600160a01b0381168114611d5b57600080fdfe5369676e6564536166654d6174683a206164646974696f6e206f766572666c6f77496e697469616c697a61626c653a20636f6e747261637420697320616c726561647920696e697469616c697a65645369676e6564536166654d6174683a206d756c7469706c69636174696f6e206f766572666c6f7753616665436173743a2076616c756520646f65736e27742066697420696e20616e20696e743235365369676e6564536166654d6174683a207375627472616374696f6e206f766572666c6f77a264697066735822122093f8823a79c093729925fca38424683d0ff622bcda97961c0ecdb4ee743fe25764736f6c63430007060033",
  "linkReferences": {},
  "deployedLinkReferences": {}
}