{
  "_format": "hh-sol-artifact-1",
  "contractName": "PerpV2Exchange",
  "sourceName": "contracts/Exchange.sol",
  "abi": [
    {
      "anonymous": false,
      "inputs": [
        {
          "indexed": true,
          "internalType": "address",
          "name": "clearingHouse",
          "type": "address"
        }
      ],
      "name": "ClearingHouseChanged",
      "type": "event"
    },
    {
      "anonymous": false,
      "inputs": [
        {
          "indexed": true,
          "internalType": "address",
          "name": "trader",
          "type": "address"
        },
        {
          "indexed": true,
          "internalType": "address",
          "name": "baseToken",
          "type": "address"
        },
        {
          "indexed": false,
          "internalType": "int256",
          "name": "fundingPayment",
          "type": "int256"
        }
      ],
      "name": "FundingPaymentSettled",
      "type": "event"
    },
    {
      "anonymous": false,
      "inputs": [
        {
          "indexed": true,
          "internalType": "address",
          "name": "baseToken",
          "type": "address"
        },
        {
          "indexed": false,
          "internalType": "uint256",
          "name": "markTwap",
          "type": "uint256"
        },
        {
          "indexed": false,
          "internalType": "uint256",
          "name": "indexTwap",
          "type": "uint256"
        }
      ],
      "name": "FundingUpdated",
      "type": "event"
    },
    {
      "anonymous": false,
      "inputs": [
        {
          "indexed": true,
          "internalType": "address",
          "name": "previousOwner",
          "type": "address"
        },
        {
          "indexed": true,
          "internalType": "address",
          "name": "newOwner",
          "type": "address"
        }
      ],
      "name": "OwnershipTransferred",
      "type": "event"
    },
    {
      "anonymous": false,
      "inputs": [
        {
          "indexed": true,
          "internalType": "address",
          "name": "trader",
          "type": "address"
        },
        {
          "indexed": true,
          "internalType": "address",
          "name": "baseToken",
          "type": "address"
        },
        {
          "indexed": false,
          "internalType": "int256",
          "name": "exchangedPositionSize",
          "type": "int256"
        },
        {
          "indexed": false,
          "internalType": "int256",
          "name": "exchangedPositionNotional",
          "type": "int256"
        },
        {
          "indexed": false,
          "internalType": "uint256",
          "name": "fee",
          "type": "uint256"
        },
        {
          "indexed": false,
          "internalType": "int256",
          "name": "openNotional",
          "type": "int256"
        },
        {
          "indexed": false,
          "internalType": "int256",
          "name": "realizedPnl",
          "type": "int256"
        }
      ],
      "name": "PositionChanged",
      "type": "event"
    },
    {
      "inputs": [],
      "name": "accountBalance",
      "outputs": [
        {
          "internalType": "address",
          "name": "",
          "type": "address"
        }
      ],
      "stateMutability": "view",
      "type": "function"
    },
    {
      "inputs": [],
      "name": "candidate",
      "outputs": [
        {
          "internalType": "address",
          "name": "",
          "type": "address"
        }
      ],
      "stateMutability": "view",
      "type": "function"
    },
    {
      "inputs": [],
      "name": "clearingHouse",
      "outputs": [
        {
          "internalType": "address",
          "name": "",
          "type": "address"
        }
      ],
      "stateMutability": "view",
      "type": "function"
    },
    {
      "inputs": [],
      "name": "clearingHouseConfig",
      "outputs": [
        {
          "internalType": "address",
          "name": "",
          "type": "address"
        }
      ],
      "stateMutability": "view",
      "type": "function"
    },
    {
      "inputs": [
        {
          "internalType": "address",
          "name": "trader",
          "type": "address"
        }
      ],
      "name": "getAllPendingFundingPayment",
      "outputs": [
        {
          "internalType": "int256",
          "name": "pendingFundingPayment",
          "type": "int256"
        }
      ],
      "stateMutability": "view",
      "type": "function"
    },
    {
      "inputs": [
        {
          "internalType": "address",
          "name": "baseToken",
          "type": "address"
        }
      ],
      "name": "getFundingGrowthGlobalAndTwaps",
      "outputs": [
        {
          "components": [
            {
              "internalType": "int256",
              "name": "twPremiumX96",
              "type": "int256"
            },
            {
              "internalType": "int256",
              "name": "twPremiumDivBySqrtPriceX96",
              "type": "int256"
            }
          ],
          "internalType": "struct Funding.Growth",
          "name": "fundingGrowthGlobal",
          "type": "tuple"
        },
        {
          "internalType": "uint256",
          "name": "markTwap",
          "type": "uint256"
        },
        {
          "internalType": "uint256",
          "name": "indexTwap",
          "type": "uint256"
        }
      ],
      "stateMutability": "view",
      "type": "function"
    },
    {
      "inputs": [
        {
          "internalType": "address",
          "name": "baseToken",
          "type": "address"
        }
      ],
      "name": "getMaxTickCrossedWithinBlock",
      "outputs": [
        {
          "internalType": "uint24",
          "name": "",
          "type": "uint24"
        }
      ],
      "stateMutability": "view",
      "type": "function"
    },
    {
      "inputs": [
        {
          "internalType": "address",
          "name": "trader",
          "type": "address"
        },
        {
          "internalType": "address",
          "name": "baseToken",
          "type": "address"
        }
      ],
      "name": "getOpenNotional",
      "outputs": [
        {
          "internalType": "int256",
          "name": "",
          "type": "int256"
        }
      ],
      "stateMutability": "view",
      "type": "function"
    },
    {
      "inputs": [
        {
          "internalType": "address",
          "name": "trader",
          "type": "address"
        },
        {
          "internalType": "address",
          "name": "baseToken",
          "type": "address"
        }
      ],
      "name": "getPendingFundingPayment",
      "outputs": [
        {
          "internalType": "int256",
          "name": "",
          "type": "int256"
        }
      ],
      "stateMutability": "view",
      "type": "function"
    },
    {
      "inputs": [
        {
          "internalType": "address",
          "name": "baseToken",
          "type": "address"
        }
      ],
      "name": "getPool",
      "outputs": [
        {
          "internalType": "address",
          "name": "",
          "type": "address"
        }
      ],
      "stateMutability": "view",
      "type": "function"
    },
    {
      "inputs": [
        {
          "internalType": "address",
          "name": "baseToken",
          "type": "address"
        },
        {
          "internalType": "uint32",
          "name": "twapInterval",
          "type": "uint32"
        }
      ],
      "name": "getSqrtMarkTwapX96",
      "outputs": [
        {
          "internalType": "uint160",
          "name": "",
          "type": "uint160"
        }
      ],
      "stateMutability": "view",
      "type": "function"
    },
    {
      "inputs": [
        {
          "internalType": "address",
          "name": "baseToken",
          "type": "address"
        }
      ],
      "name": "getTick",
      "outputs": [
        {
          "internalType": "int24",
          "name": "",
          "type": "int24"
        }
      ],
      "stateMutability": "view",
      "type": "function"
    },
    {
      "inputs": [
        {
          "internalType": "address",
          "name": "marketRegistryArg",
          "type": "address"
        },
        {
          "internalType": "address",
          "name": "orderBookArg",
          "type": "address"
        },
        {
          "internalType": "address",
          "name": "clearingHouseConfigArg",
          "type": "address"
        },
        {
          "internalType": "address",
          "name": "insuranceFundArg",
          "type": "address"
        }
      ],
      "name": "initialize",
      "outputs": [],
      "stateMutability": "nonpayable",
      "type": "function"
    },
    {
      "inputs": [],
      "name": "insuranceFund",
      "outputs": [
        {
          "internalType": "address",
          "name": "",
          "type": "address"
        }
      ],
      "stateMutability": "view",
      "type": "function"
    },
    {
      "inputs": [],
      "name": "marketRegistry",
      "outputs": [
        {
          "internalType": "address",
          "name": "",
          "type": "address"
        }
      ],
      "stateMutability": "view",
      "type": "function"
    },
    {
      "inputs": [],
      "name": "orderBook",
      "outputs": [
        {
          "internalType": "address",
          "name": "",
          "type": "address"
        }
      ],
      "stateMutability": "view",
      "type": "function"
    },
    {
      "inputs": [],
      "name": "owner",
      "outputs": [
        {
          "internalType": "address",
          "name": "",
          "type": "address"
        }
      ],
      "stateMutability": "view",
      "type": "function"
    },
    {
      "inputs": [],
      "name": "renounceOwnership",
      "outputs": [],
      "stateMutability": "nonpayable",
      "type": "function"
    },
    {
      "inputs": [
        {
          "internalType": "address",
          "name": "accountBalanceArg",
          "type": "address"
        }
      ],
      "name": "setAccountBalance",
      "outputs": [],
      "stateMutability": "nonpayable",
      "type": "function"
    },
    {
      "inputs": [
        {
          "internalType": "address",
          "name": "clearingHouseArg",
          "type": "address"
        }
      ],
      "name": "setClearingHouse",
      "outputs": [],
      "stateMutability": "nonpayable",
      "type": "function"
    },
    {
      "inputs": [
        {
          "internalType": "address",
          "name": "baseToken",
          "type": "address"
        },
        {
          "internalType": "uint24",
          "name": "maxTickCrossedWithinBlock",
          "type": "uint24"
        }
      ],
      "name": "setMaxTickCrossedWithinBlock",
      "outputs": [],
      "stateMutability": "nonpayable",
      "type": "function"
    },
    {
      "inputs": [
        {
          "internalType": "address",
          "name": "newOwner",
          "type": "address"
        }
      ],
      "name": "setOwner",
      "outputs": [],
      "stateMutability": "nonpayable",
      "type": "function"
    },
    {
      "inputs": [
        {
          "internalType": "address",
          "name": "trader",
          "type": "address"
        }
      ],
      "name": "settleAllFunding",
      "outputs": [],
      "stateMutability": "nonpayable",
      "type": "function"
    },
    {
      "inputs": [
        {
          "internalType": "address",
          "name": "trader",
          "type": "address"
        },
        {
          "internalType": "address",
          "name": "baseToken",
          "type": "address"
        }
      ],
      "name": "settleFunding",
      "outputs": [
        {
          "components": [
            {
              "internalType": "int256",
              "name": "twPremiumX96",
              "type": "int256"
            },
            {
              "internalType": "int256",
              "name": "twPremiumDivBySqrtPriceX96",
              "type": "int256"
            }
          ],
          "internalType": "struct Funding.Growth",
          "name": "fundingGrowthGlobal",
          "type": "tuple"
        }
      ],
      "stateMutability": "nonpayable",
      "type": "function"
    },
    {
      "inputs": [
        {
          "components": [
            {
              "internalType": "address",
              "name": "trader",
              "type": "address"
            },
            {
              "internalType": "address",
              "name": "baseToken",
              "type": "address"
            },
            {
              "internalType": "bool",
              "name": "isBaseToQuote",
              "type": "bool"
            },
            {
              "internalType": "bool",
              "name": "isExactInput",
              "type": "bool"
            },
            {
              "internalType": "bool",
              "name": "isClose",
              "type": "bool"
            },
            {
              "internalType": "uint256",
              "name": "amount",
              "type": "uint256"
            },
            {
              "internalType": "uint160",
              "name": "sqrtPriceLimitX96",
              "type": "uint160"
            },
            {
              "components": [
                {
                  "internalType": "int256",
                  "name": "twPremiumX96",
                  "type": "int256"
                },
                {
                  "internalType": "int256",
                  "name": "twPremiumDivBySqrtPriceX96",
                  "type": "int256"
                }
              ],
              "internalType": "struct Funding.Growth",
              "name": "fundingGrowthGlobal",
              "type": "tuple"
            }
          ],
          "internalType": "struct Exchange.SwapParams",
          "name": "params",
          "type": "tuple"
        }
      ],
      "name": "swap",
      "outputs": [
        {
          "components": [
            {
              "internalType": "uint256",
              "name": "deltaAvailableBase",
              "type": "uint256"
            },
            {
              "internalType": "uint256",
              "name": "deltaAvailableQuote",
              "type": "uint256"
            },
            {
              "internalType": "int256",
              "name": "exchangedPositionSize",
              "type": "int256"
            },
            {
              "internalType": "int256",
              "name": "exchangedPositionNotional",
              "type": "int256"
            },
            {
              "internalType": "int24",
              "name": "tick",
              "type": "int24"
            }
          ],
          "internalType": "struct Exchange.SwapResponse",
          "name": "",
          "type": "tuple"
        }
      ],
      "stateMutability": "nonpayable",
      "type": "function"
    },
    {
      "inputs": [
        {
          "internalType": "uint256",
          "name": "amount0Owed",
          "type": "uint256"
        },
        {
          "internalType": "uint256",
          "name": "amount1Owed",
          "type": "uint256"
        },
        {
          "internalType": "bytes",
          "name": "data",
          "type": "bytes"
        }
      ],
      "name": "uniswapV3MintCallback",
      "outputs": [],
      "stateMutability": "nonpayable",
      "type": "function"
    },
    {
      "inputs": [
        {
          "internalType": "int256",
          "name": "amount0Delta",
          "type": "int256"
        },
        {
          "internalType": "int256",
          "name": "amount1Delta",
          "type": "int256"
        },
        {
          "internalType": "bytes",
          "name": "data",
          "type": "bytes"
        }
      ],
      "name": "uniswapV3SwapCallback",
      "outputs": [],
      "stateMutability": "nonpayable",
      "type": "function"
    },
    {
      "inputs": [],
      "name": "updateOwner",
      "outputs": [],
      "stateMutability": "nonpayable",
      "type": "function"
    }
  ],
  "bytecode": "0x608060405234801561001057600080fd5b506145ee806100206000396000f3fe608060405234801561001057600080fd5b50600436106101545760003560e01c80630af968001461015957806313af403514610177578063199387cc1461018c5780631e81ac331461019f57806329386b7b146101bf578063449323d8146101df57806348fa72d5146101f257806350709710146102125780635eb8a4e6146102325780636c8381f814610245578063715018a61461024d578063776af5ba1461025557806380f57f111461025d5780638da5cb5b1461027d57806399e4a77114610285578063b0a1c1c414610298578063b7902303146102a0578063b7c7ec6a146102a8578063bbe4f6db146102bb578063bc5920ba146102ce578063c2075b21146102d6578063cb379aa2146102de578063d3487997146102f1578063eb9b912e14610304578063ecb96fe614610317578063f8c8765e1461031f578063f9cbb47114610332578063fa461e3314610354575b600080fd5b610161610367565b60405161016e9190613e92565b60405180910390f35b61018a610185366004613897565b610376565b005b61018a61019a366004613897565b6104d1565b6101b26101ad3660046138cf565b61057f565b60405161016e91906142c8565b6101d26101cd366004613897565b610858565b60405161016e9190614400565b61018a6101ed366004613897565b61087c565b610205610200366004613cd0565b610951565b60405161016e91906143c3565b610225610220366004613897565b610f42565b60405161016e9190614040565b61018a610240366004613962565b610fce565b61016161115a565b61018a611169565b61016161120a565b61027061026b366004613897565b611219565b60405161016e919061404e565b6101616112e8565b61016161029336600461398f565b6112f7565b61016161138b565b61016161139a565b6102706102b63660046138cf565b6113a9565b6101616102c9366004613897565b6114c4565b61018a611545565b610161611631565b6102706102ec3660046138cf565b611640565b61018a6102ff366004613b56565b611780565b61018a610312366004613897565b611828565b6101616118e6565b61018a61032d366004613907565b6118f5565b610345610340366004613897565b611a6b565b60405161016e939291906142d6565b61018a610362366004613b56565b611d22565b6068546001600160a01b031681565b61037e611ec2565b6001600160a01b031661038f6112e8565b6001600160a01b0316146103d3576040805162461bcd60e51b8152602060048201526006602482015265534f5f434e4f60d01b604482015290519081900360640190fd5b6001600160a01b038116610417576040805162461bcd60e51b81526020600482015260066024820152650534f5f4e57360d41b604482015290519081900360640190fd5b6033546001600160a01b0382811691161415610463576040805162461bcd60e51b8152602060048201526006602482015265534f5f53414f60d01b604482015290519081900360640190fd5b6034546001600160a01b03828116911614156104af576040805162461bcd60e51b8152602060048201526006602482015265534f5f53414360d01b604482015290519081900360640190fd5b603480546001600160a01b0319166001600160a01b0392909216919091179055565b6104d9611ec2565b6001600160a01b03166104ea6112e8565b6001600160a01b03161461052e576040805162461bcd60e51b8152602060048201526006602482015265534f5f434e4f60d01b604482015290519081900360640190fd5b6001600160a01b03811661055d5760405162461bcd60e51b815260040161055490614120565b60405180910390fd5b609c80546001600160a01b0319166001600160a01b0392909216919091179055565b6105876136cf565b60008061059384611a6b565b609c546040516331997f7b60e11b815293965091945092506000916001600160a01b0390911690636332fef6906105d09089908990600401613ea6565b60606040518083038186803b1580156105e857600080fd5b505afa1580156105fc573d6000803e3d6000fd5b505050506040513d601f19601f820116820180604052508101906106209190613ba6565b9050600061063987878460000151856040015189611ec6565b905080156106fa57609c5460405163beb56a7560e01b81526001600160a01b039091169063beb56a759061067c908a906000908190819088820390600401613ec0565b600060405180830381600087803b15801561069657600080fd5b505af11580156106aa573d6000803e3d6000fd5b50505050856001600160a01b0316876001600160a01b03167f733330d4aad1a878654bf888817b79bc6478013399be29fa3b8845c81305249e836040516106f1919061404e565b60405180910390a35b6001600160a01b038616600090815260a1602052604090205461071b611f6c565b146107e7576001600160a01b038616600090815260a260205260409020610740611f6c565b86516020808901516001600160a01b038b16600090815260a1909252604090912060018501919091559083555561077687610f42565b6001600160a01b0388166000818152609f602052604090819020805460029490940b62ffffff1662ffffff199094169390931790925590517f54e4482fe1d38392effe5d53f0e9e72f60221a75a10cea7abbb684bfb03519bf906107dd9088908890614410565b60405180910390a2505b609c548551604051632e4586c360e01b81526001600160a01b0390921691632e4586c39161081b918b918b91600401613f15565b600060405180830381600087803b15801561083557600080fd5b505af1158015610849573d6000803e3d6000fd5b50505050505050505b92915050565b6001600160a01b038116600090815260a3602052604090205462ffffff165b919050565b610884611ec2565b6001600160a01b03166108956112e8565b6001600160a01b0316146108d9576040805162461bcd60e51b8152602060048201526006602482015265534f5f434e4f60d01b604482015290519081900360640190fd5b6108eb816001600160a01b0316611f70565b6109075760405162461bcd60e51b815260040161055490614181565b606880546001600160a01b0319166001600160a01b0383169081179091556040517fd0654f5900f9e7e4e605a19334306e6a2786bbf960ac0484a4c12feb6428fe2f90600090a250565b6109596136e9565b6068546001600160a01b031661096d611ec2565b6001600160a01b0316146109935760405162461bcd60e51b8152600401610554906140dd565b609c54825160208401516040516346d12ddf60e11b81526000936001600160a01b031692638da25bbe926109c992600401613ea6565b60206040518083038186803b1580156109e157600080fd5b505afa1580156109f5573d6000803e3d6000fd5b505050506040513d601f19601f82011682018060405250810190610a199190613b1b565b90506000808212610a2b576000610a2e565b60015b90506000821580610a46575084604001511515821515145b159050846080015115610b9257610a608560200151611f76565b80610a755750610a7585602001518385611f8e565b15610b8d5784516001600160a01b03908116600090815260a460209081526040808320828a015190941683529290522054610aae611f6c565b1415610acc5760405162461bcd60e51b8152600401610554906140fe565b610ad4611f6c565b85516001600160a01b03908116600090815260a460209081526040808320828b01518516845282529182902093909355609d548151633fa7ffc760e01b81529151610b87949190931692633fa7ffc7926004808201939291829003018186803b158015610b4057600080fd5b505afa158015610b54573d6000803e3d6000fd5b505050506040513d601f19601f82011682018060405250810190610b789190613e18565b610b8185611ff4565b90612017565b60a08601525b610bc2565b8015610bc257610ba58560200151611f76565b15610bc25760405162461bcd60e51b815260040161055490614227565b6000610bd6866000015187602001516113a9565b90506000610be38761202c565b90508660800151158015610bf45750825b15610c2857610c0b87602001518260c001516123eb565b15610c285760405162461bcd60e51b81526004016105549061415f565b609c5487516020890151604084015160808501516001600160a01b039094169363beb56a7593929190610c6990610c5e90612462565b6060880151906124aa565b60006040518663ffffffff1660e01b8152600401610c8b959493929190613ec0565b600060405180830381600087803b158015610ca557600080fd5b505af1158015610cb9573d6000803e3d6000fd5b505050506000610cd1886000015189602001516113a9565b905060008415610e18576000610cfc8460000151670de0b6b3a7640000610cf78b611ff4565b61250f565b905060008a60400151610d1e57610d168560200151612462565b600003610d2b565b610d2b8560200151612462565b9050670de0b6b3a76400008211610d6d576000610d59610d54610d4d85612462565b89906125be565b612667565b9050610d65828261267b565b935050610da3565b6000610d93610d7b84612462565b610d8d84670de0b6b3a76400006125be565b906126e0565b9050610d9f878261267b565b9350505b8215610e1557609c548b5160208d015160405163f0c7979760e01b81526001600160a01b039093169263f0c7979792610de29290918890600401613f15565b600060405180830381600087803b158015610dfc57600080fd5b505af1158015610e10573d6000803e3d6000fd5b505050505b50505b609c54609e5460a08501516001600160a01b03928316926337724702921690610e4090612462565b6040518363ffffffff1660e01b8152600401610e5d929190613fdd565b600060405180830381600087803b158015610e7757600080fd5b505af1158015610e8b573d6000803e3d6000fd5b5050505088602001516001600160a01b031689600001516001600160a01b03167fd50383521b86aced5c8a23f3e6249ed36a8419e9408218e2d712a69ec3710be08560400151866060015187608001518787604051610eee959493929190614077565b60405180910390a36040518060a00160405280846000015181526020018460200151815260200184604001518152602001846060015181526020018460c0015160020b815250975050505050505050919050565b60675460405163bbe4f6db60e01b8152600091610852916001600160a01b039091169063bbe4f6db90610f79908690600401613e92565b60206040518083038186803b158015610f9157600080fd5b505afa158015610fa5573d6000803e3d6000fd5b505050506040513d601f19601f82011682018060405250810190610fc991906138b3565b612798565b610fd6611ec2565b6001600160a01b0316610fe76112e8565b6001600160a01b03161461102b576040805162461bcd60e51b8152602060048201526006602482015265534f5f434e4f60d01b604482015290519081900360640190fd5b61103d826001600160a01b0316611f70565b6110595760405162461bcd60e51b8152600401610554906141c7565b60675460405163bbe4f6db60e01b81526000916001600160a01b03169063bbe4f6db9061108a908690600401613e92565b60206040518083038186803b1580156110a257600080fd5b505afa1580156110b6573d6000803e3d6000fd5b505050506040513d601f19601f820116820180604052508101906110da91906138b3565b6001600160a01b031614156111015760405162461bcd60e51b81526004016105549061409a565b620d89e862ffffff821611156111295760405162461bcd60e51b8152600401610554906141a3565b6001600160a01b0391909116600090815260a360205260409020805462ffffff191662ffffff909216919091179055565b6034546001600160a01b031690565b611171611ec2565b6001600160a01b03166111826112e8565b6001600160a01b0316146111c6576040805162461bcd60e51b8152602060048201526006602482015265534f5f434e4f60d01b604482015290519081900360640190fd5b6033546040516000916001600160a01b031690600080516020614526833981519152908390a3603380546001600160a01b0319908116909155603480549091169055565b609b546001600160a01b031681565b609c546040516357ba739b60e11b815260009182916001600160a01b039091169063af74e7369061124e908690600401613e92565b60006040518083038186803b15801561126657600080fd5b505afa15801561127a573d6000803e3d6000fd5b505050506040513d6000823e601f3d908101601f191682016040526112a291908101906139bc565b905060005b81518110156112e1576112d76112d0858484815181106112c357fe5b6020026020010151611640565b849061267b565b92506001016112a7565b5050919050565b6033546001600160a01b031690565b60675460405163bbe4f6db60e01b8152600091611384916001600160a01b039091169063bbe4f6db9061132e908790600401613e92565b60206040518083038186803b15801561134657600080fd5b505afa15801561135a573d6000803e3d6000fd5b505050506040513d601f19601f8201168201806040525081019061137e91906138b3565b83612818565b9392505050565b609c546001600160a01b031681565b609e546001600160a01b031681565b609c546040516303d2da2d60e51b8152600091611384916001600160a01b0390911690637a5b45a0906113e29087908790600401613ea6565b60206040518083038186803b1580156113fa57600080fd5b505afa15801561140e573d6000803e3d6000fd5b505050506040513d601f19601f820116820180604052508101906114329190613b1b565b609b5460405163bf0b1abb60e01b81526114be916001600160a01b03169063bf0b1abb906114699089908990600090600401613ef1565b60206040518083038186803b15801561148157600080fd5b505afa158015611495573d6000803e3d6000fd5b505050506040513d601f19601f820116820180604052508101906114b99190613b1b565b612462565b9061267b565b60675460405163bbe4f6db60e01b81526000916001600160a01b03169063bbe4f6db906114f5908590600401613e92565b60206040518083038186803b15801561150d57600080fd5b505afa158015611521573d6000803e3d6000fd5b505050506040513d601f19601f8201168201806040525081019061085291906138b3565b6034546001600160a01b031661158a576040805162461bcd60e51b81526020600482015260056024820152640534f5f43360dc1b604482015290519081900360640190fd5b611592611ec2565b6034546001600160a01b039081169116146115dd576040805162461bcd60e51b8152602060048201526006602482015265534f5f434e4360d01b604482015290519081900360640190fd5b6034546033546040516001600160a01b03928316929091169060008051602061452683398151915290600090a360348054603380546001600160a01b03199081166001600160a01b03841617909155169055565b609d546001600160a01b031681565b60008061164c83611a6b565b5050609c546040516331997f7b60e11b81529192506000916001600160a01b0390911690636332fef6906116869088908890600401613ea6565b60606040518083038186803b15801561169e57600080fd5b505afa1580156116b2573d6000803e3d6000fd5b505050506040513d601f19601f820116820180604052508101906116d69190613ba6565b609b546040516347b52fb760e01b81529192506000916001600160a01b03909116906347b52fb79061171090899089908890600401613f39565b60206040518083038186803b15801561172857600080fd5b505afa15801561173c573d6000803e3d6000fd5b505050506040513d601f19601f820116820180604052508101906117609190613b1b565b9050611776826000015183604001518584612971565b9695505050505050565b609b546001600160a01b0316611794611ec2565b6001600160a01b0316146117ba5760405162461bcd60e51b8152600401610554906142a9565b60685460405163d348799760e01b81526001600160a01b039091169063d3487997906117f0908790879087908790600401614057565b600060405180830381600087803b15801561180a57600080fd5b505af115801561181e573d6000803e3d6000fd5b5050505050505050565b609c546040516357ba739b60e11b81526000916001600160a01b03169063af74e73690611859908590600401613e92565b60006040518083038186803b15801561187157600080fd5b505afa158015611885573d6000803e3d6000fd5b505050506040513d6000823e601f3d908101601f191682016040526118ad91908101906139bc565b905060005b81518110156118e1576118d8838383815181106118cb57fe5b602002602001015161057f565b506001016118b2565b505050565b6067546001600160a01b031681565b600054610100900460ff168061190e575061190e6129a2565b8061191c575060005460ff16155b6119575760405162461bcd60e51b815260040180806020018281038252602e8152602001806144d7602e913960400191505060405180910390fd5b600054610100900460ff16158015611982576000805460ff1961ff0019909116610100171660011790555b61198b856129b3565b61199d846001600160a01b0316611f70565b6119b95760405162461bcd60e51b81526004016105549061413f565b6119cb836001600160a01b0316611f70565b6119e75760405162461bcd60e51b8152600401610554906141e7565b6119f9826001600160a01b0316611f70565b611a155760405162461bcd60e51b815260040161055490614288565b609e80546001600160a01b038085166001600160a01b031992831617909255609b8054878416908316179055609d8054928616929091169190911790558015611a64576000805461ff00191690555b5050505050565b611a736136cf565b6001600160a01b03808316600090815260a260209081526040808320609d5482516303c1d5df60e41b8152925194958695929486949290911692633c1d5df0926004808201939291829003018186803b158015611acf57600080fd5b505afa158015611ae3573d6000803e3d6000fd5b505050506040513d601f19601f82011682018060405250810190611b079190613e34565b6001600160a01b038716600090815260a06020526040902054909150611b2f57506000611b8f565b6001600160a01b038616600090815260a06020526040902054611b5a90611b54611f6c565b90612aa7565b8163ffffffff161115611b8f576001600160a01b038616600090815260a06020526040902054611b8c90611b54611f6c565b90505b6000611bac611b9e88846112f7565b6001600160a01b0316612b04565b9050611bb781612b1e565b604051631208064760e01b81529095506001600160a01b03881690631208064790611be690859060040161441e565b60206040518083038186803b158015611bfe57600080fd5b505afa158015611c12573d6000803e3d6000fd5b505050506040513d601f19601f82011682018060405250810190611c369190613b1b565b6001600160a01b038816600090815260a1602052604090205490945080611c5b611f6c565b14158015611c6857508015155b15611cfc576000611ca5611c816114b984611b54611f6c565b611c9f611c906114b98a612b37565b611c9987612462565b906124aa565b906125be565b8554909150611cb4908261267b565b8852611cf1611ce6611cd8611cca8c60006112f7565b6001600160a01b0316612462565b610d8d84600160601b6125be565b60018701549061267b565b602089015250611d17565b60408051808201909152845481526001850154602082015296505b505050509193909250565b6000611d2c611ec2565b90506000816001600160a01b0316630dfe16816040518163ffffffff1660e01b815260040160206040518083038186803b158015611d6957600080fd5b505afa158015611d7d573d6000803e3d6000fd5b505050506040513d601f19601f82011682018060405250810190611da191906138b3565b60675460405163bbe4f6db60e01b81529192506001600160a01b03169063bbe4f6db90611dd2908490600401613e92565b60206040518083038186803b158015611dea57600080fd5b505afa158015611dfe573d6000803e3d6000fd5b505050506040513d601f19601f82011682018060405250810190611e2291906138b3565b6001600160a01b0316826001600160a01b031614611e525760405162461bcd60e51b815260040161055490614207565b60685460405163fa461e3360e01b81526001600160a01b039091169063fa461e3390611e88908990899089908990600401614057565b600060405180830381600087803b158015611ea257600080fd5b505af1158015611eb6573d6000803e3d6000fd5b50505050505050505050565b3390565b609b54604051633fe1339b60e11b815260009182916001600160a01b0390911690637fc2673690611eff908a908a908890600401613f39565b602060405180830381600087803b158015611f1957600080fd5b505af1158015611f2d573d6000803e3d6000fd5b505050506040513d601f19601f82011682018060405250810190611f519190613b1b565b9050611f5f85858584612971565b9150505b95945050505050565b4290565b3b151590565b600080611f8283610f42565b905061138483826123eb565b6000806040518060a00160405280866001600160a01b03168152602001851515158152602001851515158152602001611fc685611ff4565b8152602001611fd58787612b50565b6001600160a01b031690529050611f6385611fef83612ba3565b6123eb565b600080821361200e5761200982600003612d4b565b610852565b61085282612d4b565b6000611384838362ffffff16620f424061250f565b61203461371b565b606754602083015160405163033e16f360e21b81526000926001600160a01b031691630cf85bcc916120699190600401613e92565b60806040518083038186803b15801561208157600080fd5b505afa158015612095573d6000803e3d6000fd5b505050506040513d601f19601f820116820180604052508101906120b99190613bfa565b90506000806120df856040015186606001518760a0015186602001518760400151612da2565b609b5460408051610100810182526020808b01516001600160a01b0390811683528b8401511515828401526001838501526060830186905260c0808d015182166080850152918a015162ffffff90811660a08501528a850151169183019190915260e0808c0151908301529151631477e1bf60e31b815294965092945060009391169163a3bf0df89161217591906004016142f5565b606060405180830381600087803b15801561218f57600080fd5b505af11580156121a3573d6000803e3d6000fd5b505050506040513d601f19601f820116820180604052508101906121c79190613c77565b905060006122c36040518060e0016040528087600001516001600160a01b03168152602001606860009054906101000a90046001600160a01b03166001600160a01b031681526020018960400151151581526020018960600151151581526020018681526020018960c001516001600160a01b031681526020016040518060a001604052808b600001516001600160a01b031681526020018b602001516001600160a01b0316815260200189600001516001600160a01b03168152602001896040015162ffffff16815260200186602001518152506040516020016122ac9190614379565b604051602081830303815290604052815250612dee565b9050600080886040015115612302576122e96114b9846000015189604001516000612fc6565b60000391506122fb8360200151612462565b905061232c565b825161230d90612462565b91506123266114b9846020015189604001516000612fc6565b60000390505b6020808a01516001600160a01b0316600090815260a0909152604090205461237557612356611f6c565b6020808b01516001600160a01b0316600090815260a090915260409020555b6040518060e0016040528061238984611ff4565b81526020016123ad6123a86123a18860200151612462565b85906124aa565b611ff4565b81526020018381526020018281526020018560200151815260200185604001518152602001856000015160020b815250975050505050505050919050565b6001600160a01b038216600090815260a3602052604081205462ffffff1680612418576000915050610852565b6001600160a01b0384166000908152609f6020526040902054600290810b90828201908383039081810b9087900b128061245757508160020b8660020b135b979650505050505050565b6000600160ff1b82106124a65760405162461bcd60e51b815260040180806020018281038252602881526020018061456d6028913960400191505060405180910390fd5b5090565b60008183038183128015906124bf5750838113155b806124d457506000831280156124d457508381135b6113845760405162461bcd60e51b81526004018080602001828103825260248152602001806145956024913960400191505060405180910390fd5b6000808060001985870986860292508281109083900303905080612545576000841161253a57600080fd5b508290049050611384565b80841161255157600080fd5b6000848688096000868103871696879004966002600389028118808a02820302808a02820302808a02820302808a02820302808a02820302808a02909103029181900381900460010186841190950394909402919094039290920491909117919091029150509392505050565b6000826125cd57506000610852565b826000191480156125e15750600160ff1b82145b1561261d5760405162461bcd60e51b81526004018080602001828103825260278152602001806145466027913960400191505060405180910390fd5b8282028284828161262a57fe5b05146113845760405162461bcd60e51b81526004018080602001828103825260278152602001806145466027913960400191505060405180910390fd5b600061085282670de0b6b3a76400006126e0565b60008282018183128015906126905750838112155b806126a557506000831280156126a557508381125b6113845760405162461bcd60e51b81526004018080602001828103825260218152602001806144b66021913960400191505060405180910390fd5b600081612734576040805162461bcd60e51b815260206004820181905260248201527f5369676e6564536166654d6174683a206469766973696f6e206279207a65726f604482015290519081900360640190fd5b816000191480156127485750600160ff1b83145b156127845760405162461bcd60e51b81526004018080602001828103825260218152602001806145056021913960400191505060405180910390fd5b600082848161278f57fe5b05949350505050565b6000816001600160a01b0316633850c7bd6040518163ffffffff1660e01b815260040160e06040518083038186803b1580156127d357600080fd5b505afa1580156127e7573d6000803e3d6000fd5b505050506040513d601f19601f8201168201806040525081019061280b9190613d85565b5093979650505050505050565b6000600a8263ffffffff161015612839576128328361300d565b9050610852565b604080516002808252606082018352600092602083019080368337019050509050828160008151811061286857fe5b602002602001019063ffffffff16908163ffffffff168152505060008160018151811061289157fe5b63ffffffff9092166020928302919091019091015260405163883bdbfd60e01b81526000906001600160a01b0386169063883bdbfd906128d5908590600401613ff6565b60006040518083038186803b1580156128ed57600080fd5b505afa158015612901573d6000803e3d6000fd5b505050506040513d6000823e601f3d908101601f191682016040526129299190810190613a54565b509050611f638463ffffffff168260008151811061294357fe5b60200260200101518360018151811061295857fe5b60200260200101510360060b8161296b57fe5b0561308d565b600080612983868560000151876133b4565b905061299662015180610d8d858461267b565b9150505b949350505050565b60006129ad30611f70565b15905090565b600054610100900460ff16806129cc57506129cc6129a2565b806129da575060005460ff16155b612a155760405162461bcd60e51b815260040180806020018281038252602e8152602001806144d7602e913960400191505060405180910390fd5b600054610100900460ff16158015612a40576000805460ff1961ff0019909116610100171660011790555b612a486133d2565b612a5a826001600160a01b0316611f70565b612a765760405162461bcd60e51b8152600401610554906140bb565b606780546001600160a01b0319166001600160a01b0384161790558015612aa3576000805461ff00191690555b5050565b600082821115612afe576040805162461bcd60e51b815260206004820152601e60248201527f536166654d6174683a207375627472616374696f6e206f766572666c6f770000604482015290519081900360640190fd5b50900390565b60006108526001600160a01b03831680600160601b61250f565b600061085282670de0b6b3a7640000600160601b61250f565b600061085282600160601b670de0b6b3a764000061250f565b6001600160a01b0382166000908152609f602090815260408083205460a390925282205460029190910b9062ffffff168284612b9157600182840303612b98565b8183016001015b90506117768161308d565b606754815160405163033e16f360e21b815260009283926001600160a01b0390911691630cf85bcc91612bd891600401613e92565b60806040518083038186803b158015612bf057600080fd5b505afa158015612c04573d6000803e3d6000fd5b505050506040513d601f19601f82011682018060405250810190612c289190613bfa565b90506000816020015190506000826040015190506000612c578660200151876040015188606001518686612da2565b609b5460408051610100810182528a516001600160a01b0390811682526020808d01511515818401526000838501819052606084018790526080808f015184169085015262ffffff808c1660a08601528a1660c08501528451808601865281815291820181905260e08401919091529251631477e1bf60e31b815294965091945091169163a3bf0df891612ced916004016142f5565b606060405180830381600087803b158015612d0757600080fd5b505af1158015612d1b573d6000803e3d6000fd5b505050506040513d601f19601f82011682018060405250810190612d3f9190613c77565b51979650505050505050565b6000808212156124a6576040805162461bcd60e51b815260206004820181905260248201527f53616665436173743a2076616c7565206d75737420626520706f736974697665604482015290519081900360640190fd5b600080612db287878787876134c2565b915086612dc757612dc285612462565b612dd0565b612dd082612462565b905085612de05780600003612de2565b805b90509550959350505050565b612df66136cf565b6000826080015111612e1a5760405162461bcd60e51b815260040161055490614249565b60008260600151612e3a57612e328360800151612462565b600003612e47565b612e478360800151612462565b905060008084600001516001600160a01b031663128acb0886602001518760400151868960a001516001600160a01b0316600014612e89578960a00151612eb3565b8960400151612eac5773fffd8963efd1fc6a506488495d951d5263988d25612eb3565b6401000276a45b8a60c001516040518663ffffffff1660e01b8152600401612ed8959493929190613f5e565b6040805180830381600087803b158015612ef157600080fd5b505af1158015612f05573d6000803e3d6000fd5b505050506040513d601f19601f82011682018060405250810190612f299190613b33565b91509150600080612f3984611ff4565b612f4284611ff4565b915091506000876040015115158860600151151514612f615781612f63565b825b90508760600151158015612f82575060a08801516001600160a01b0316155b15612faa5787608001518114612faa5760405162461bcd60e51b815260040161055490614268565b5060408051808201909152918252602082015295945050505050565b600081612ff157612fec84612fe3620f424062ffffff8716612aa7565b620f424061250f565b61299a565b61299a84620f42406130088162ffffff8816612aa7565b61350b565b6000816001600160a01b0316633850c7bd6040518163ffffffff1660e01b815260040160e06040518083038186803b15801561304857600080fd5b505afa15801561305c573d6000803e3d6000fd5b505050506040513d601f19601f820116820180604052508101906130809190613d85565b5094979650505050505050565b60008060008360020b126130a4578260020b6130ac565b8260020b6000035b9050620d89e88111156130ea576040805162461bcd60e51b81526020600482015260016024820152601560fa1b604482015290519081900360640190fd5b6000600182166130fe57600160801b613110565b6ffffcb933bd6fad37aa2d162d1a5940015b6001600160881b03169050600282161561313a576ffff97272373d413259a46990580e213a0260801c5b6004821615613159576ffff2e50f5f656932ef12357cf3c7fdcc0260801c5b6008821615613178576fffe5caca7e10e4e61c3624eaa0941cd00260801c5b6010821615613197576fffcb9843d60f6159c9db58835c9266440260801c5b60208216156131b6576fff973b41fa98c081472e6896dfb254c00260801c5b60408216156131d5576fff2ea16466c96a3843ec78b326b528610260801c5b60808216156131f4576ffe5dee046a99a2a811c461f1969c30530260801c5b610100821615613214576ffcbe86c7900a88aedcffc83b479aa3a40260801c5b610200821615613234576ff987a7253ac413176f2b074cf7815e540260801c5b610400821615613254576ff3392b0822b70005940c7a398e4b70f30260801c5b610800821615613274576fe7159475a2c29b7443b29c7fa6e889d90260801c5b611000821615613294576fd097f3bdfd2022b8845ad8f792aa58250260801c5b6120008216156132b4576fa9f746462d870fdf8a65dc1f90e061e50260801c5b6140008216156132d4576f70d869a156d2a1b890bb3df62baf32f70260801c5b6180008216156132f4576f31be135f97d08fd981231505542fcfa60260801c5b62010000821615613315576f09aa508b5b7a84e1c677de54f3e99bc90260801c5b62020000821615613335576e5d6af8dedb81196699c329225ee6040260801c5b62040000821615613354576d2216e584f5fa1ea926041bedfe980260801c5b62080000821615613371576b048a170391f7dc42444e8fa20260801c5b60008460020b131561338c57806000198161338857fe5b0490505b600160201b81061561339f5760016133a2565b60005b60ff16602082901c0192505050919050565b600061299a600160601b610d8d6133cb86866124aa565b87906125be565b600054610100900460ff16806133eb57506133eb6129a2565b806133f9575060005460ff16155b6134345760405162461bcd60e51b815260040180806020018281038252602e8152602001806144d7602e913960400191505060405180910390fd5b600054610100900460ff1615801561345f576000805460ff1961ff0019909116610100171660011790555b613467613545565b6000613471611ec2565b603380546001600160a01b0319166001600160a01b03831690811790915560405191925090600090600080516020614526833981519152908290a35080156134bf576000805461ff00191690555b50565b600085156134f357846134e0576134db84846001612fc6565b6134ec565b6134ec84836001612fc6565b9050611f63565b846134fe5783611776565b61177684838560016135ee565b600061351884848461250f565b90506000828061352457fe5b848609111561138457600019811061353b57600080fd5b6001019392505050565b600054610100900460ff168061355e575061355e6129a2565b8061356c575060005460ff16155b6135a75760405162461bcd60e51b815260040180806020018281038252602e8152602001806144d7602e913960400191505060405180910390fd5b600054610100900460ff161580156135d2576000805460ff1961ff0019909116610100171660011790555b6135da61362f565b80156134bf576000805461ff001916905550565b6000806000836135ff578585613602565b84865b90925090506124578761361d620f424062ffffff8616612aa7565b613008620f424062ffffff8616612aa7565b600054610100900460ff168061364857506136486129a2565b80613656575060005460ff16155b6136915760405162461bcd60e51b815260040180806020018281038252602e8152602001806144d7602e913960400191505060405180910390fd5b600054610100900460ff161580156135da576000805460ff1961ff00199091166101001716600117905580156134bf576000805461ff001916905550565b604051806040016040528060008152602001600081525090565b6040518060a0016040528060008152602001600081526020016000815260200160008152602001600060020b81525090565b6040518060e00160405280600081526020016000815260200160008152602001600081526020016000815260200160008152602001600060020b81525090565b80356108778161446f565b600082601f830112613776578081fd5b8151602061378b61378683614452565b61442f565b82815281810190858301838502870184018810156137a7578586fd5b855b858110156137ce5781516137bc8161446f565b845292840192908401906001016137a9565b5090979650505050505050565b803561087781614484565b60008083601f8401126137f7578182fd5b5081356001600160401b0381111561380d578182fd5b60208301915083602082850101111561382557600080fd5b9250929050565b8051600281900b811461087757600080fd5b60006040828403121561384f578081fd5b604080519081016001600160401b038111828210171561386b57fe5b604052823581526020928301359281019290925250919050565b805161ffff8116811461087757600080fd5b6000602082840312156138a8578081fd5b81356113848161446f565b6000602082840312156138c4578081fd5b81516113848161446f565b600080604083850312156138e1578081fd5b82356138ec8161446f565b915060208301356138fc8161446f565b809150509250929050565b6000806000806080858703121561391c578182fd5b84356139278161446f565b935060208501356139378161446f565b925060408501356139478161446f565b915060608501356139578161446f565b939692955090935050565b60008060408385031215613974578182fd5b823561397f8161446f565b915060208301356138fc81614492565b600080604083850312156139a1578182fd5b82356139ac8161446f565b915060208301356138fc816144a3565b600060208083850312156139ce578182fd5b82516001600160401b038111156139e3578283fd5b8301601f810185136139f3578283fd5b8051613a0161378682614452565b8181528381019083850185840285018601891015613a1d578687fd5b8694505b83851015613a48578051613a348161446f565b835260019490940193918501918501613a21565b50979650505050505050565b60008060408385031215613a66578182fd5b82516001600160401b0380821115613a7c578384fd5b818501915085601f830112613a8f578384fd5b81516020613a9f61378683614452565b82815281810190858301838502870184018b1015613abb578889fd5b8896505b84871015613aeb5780518060060b8114613ad757898afd5b835260019690960195918301918301613abf565b5091880151919650909350505080821115613b04578283fd5b50613b1185828601613766565b9150509250929050565b600060208284031215613b2c578081fd5b5051919050565b60008060408385031215613b45578182fd5b505080516020909101519092909150565b60008060008060608587031215613b6b578182fd5b843593506020850135925060408501356001600160401b03811115613b8e578283fd5b613b9a878288016137e6565b95989497509550505050565b600060608284031215613bb7578081fd5b604051606081016001600160401b0381118282101715613bd357fe5b80604052508251815260208301516020820152604083015160408201528091505092915050565b600060808284031215613c0b578081fd5b604051608081016001600160401b0381118282101715613c2757fe5b6040528251613c358161446f565b81526020830151613c4581614492565b60208201526040830151613c5881614492565b60408201526060830151613c6b81614492565b60608201529392505050565b600060608284031215613c88578081fd5b604051606081016001600160401b0381118282101715613ca457fe5b604052613cb08361382c565b815260208301516020820152604083015160408201528091505092915050565b60006101208284031215613ce2578081fd5b60405161010081016001600160401b0381118282101715613cff57fe5b604052613d0b8361375b565b8152613d196020840161375b565b6020820152613d2a604084016137db565b6040820152613d3b606084016137db565b6060820152613d4c608084016137db565b608082015260a083013560a0820152613d6760c0840161375b565b60c0820152613d798460e0850161383e565b60e08201529392505050565b600080600080600080600060e0888a031215613d9f578485fd5b8751613daa8161446f565b9650613db86020890161382c565b9550613dc660408901613885565b9450613dd460608901613885565b9350613de260808901613885565b925060a088015160ff81168114613df7578283fd5b60c0890151909250613e0881614484565b8091505092959891949750929550565b600060208284031215613e29578081fd5b815161138481614492565b600060208284031215613e45578081fd5b8151611384816144a3565b60008284528282602086013780602084860101526020601f19601f85011685010190509392505050565b80518252602090810151910152565b62ffffff169052565b6001600160a01b0391909116815260200190565b6001600160a01b0392831681529116602082015260400190565b6001600160a01b03958616815293909416602084015260408301919091526060820152608081019190915260a00190565b6001600160a01b039384168152919092166020820152901515604082015260600190565b6001600160a01b039384168152919092166020820152604081019190915260600190565b6001600160a01b038481168252831660208201526080810161299a6040830184613e7a565b600060018060a01b038088168352602087151581850152866040850152818616606085015260a06080850152845191508160a0850152825b82811015613fb25785810182015185820160c001528101613f96565b82811115613fc3578360c084870101525b5050601f01601f19169190910160c0019695505050505050565b6001600160a01b03929092168252602082015260400190565b6020808252825182820181905260009190848201906040850190845b8181101561403457835163ffffffff1683529284019291840191600101614012565b50909695505050505050565b60029190910b815260200190565b90815260200190565b600085825284602083015260606040830152611776606083018486613e50565b948552602085019390935260408401919091526060830152608082015260a00190565b60208082526007908201526645585f42544e4560c81b604082015260600190565b6020808252600890820152674348445f4d524e4360c01b604082015260600190565b6020808252600790820152660869088be9e86960cb1b604082015260600190565b60208082526008908201526745585f414f504c4f60c01b604082015260600190565b6020808252600590820152640455f4142360dc1b604082015260600190565b602080825260069082015265455f4f424e4360d01b604082015260600190565b60208082526008908201526745585f4f5049415360c01b604082015260600190565b6020808252600890820152674348445f43484e4360c01b604082015260600190565b6020808252600a908201526922ac2fa6aa21a627a7a960b11b604082015260600190565b60208082526006908201526545585f414e4360d01b604082015260600190565b602080825260069082015265455f43484e4360d01b604082015260600190565b60208082526006908201526522ac2fa321ab60d11b604082015260600190565b60208082526008908201526745585f4f5049425360c01b604082015260600190565b60208082526005908201526455425f5a4960d81b604082015260600190565b60208082526006908201526555425f554f4160d01b604082015260600190565b602080825260079082015266455f4946414e4360c81b604082015260600190565b60208082526005908201526422afa727a160d91b604082015260600190565b604081016108528284613e7a565b608081016142e48286613e7a565b604082019390935260600152919050565b60006101208201905060018060a01b03808451168352602084015115156020840152604084015115156040840152606084015160608401528060808501511660808401525060a083015161434c60a0840182613e89565b5060c083015161435f60c0840182613e89565b5060e083015161437260e0840182613e7a565b5092915050565b81516001600160a01b0390811682526020808401518216908301526040808401519091169082015260608083015162ffffff16908201526080918201519181019190915260a00190565b600060a08201905082518252602083015160208301526040830151604083015260608301516060830152608083015160020b608083015292915050565b62ffffff91909116815260200190565b918252602082015260400190565b63ffffffff91909116815260200190565b6040518181016001600160401b038111828210171561444a57fe5b604052919050565b60006001600160401b0382111561446557fe5b5060209081020190565b6001600160a01b03811681146134bf57600080fd5b80151581146134bf57600080fd5b62ffffff811681146134bf57600080fd5b63ffffffff811681146134bf57600080fdfe5369676e6564536166654d6174683a206164646974696f6e206f766572666c6f77496e697469616c697a61626c653a20636f6e747261637420697320616c726561647920696e697469616c697a65645369676e6564536166654d6174683a206469766973696f6e206f766572666c6f778be0079c531659141344cd1fd0a4f28419497f9722a3daafe3b4186f6b6457e05369676e6564536166654d6174683a206d756c7469706c69636174696f6e206f766572666c6f7753616665436173743a2076616c756520646f65736e27742066697420696e20616e20696e743235365369676e6564536166654d6174683a207375627472616374696f6e206f766572666c6f77a26469706673582212209136ee2af7268b353383abbb544bf5d36d579840d84fa6bd01e2fd2b8b54b97b64736f6c63430007060033",
  "linkReferences": {},
  "deployedLinkReferences": {}
}