{
  "_format": "hh-sol-artifact-1",
  "contractName": "PerpV2MarketRegistry",
  "sourceName": "contracts/MarketRegistry.sol",
  "abi": [
    {
      "anonymous": false,
      "inputs": [
        {
          "indexed": true,
          "internalType": "address",
          "name": "clearingHouse",
          "type": "address"
        }
      ],
      "name": "ClearingHouseChanged",
      "type": "event"
    },
    {
      "anonymous": false,
      "inputs": [
        {
          "indexed": false,
          "internalType": "address",
          "name": "baseToken",
          "type": "address"
        },
        {
          "indexed": false,
          "internalType": "uint24",
          "name": "feeRatio",
          "type": "uint24"
        }
      ],
      "name": "FeeRatioChanged",
      "type": "event"
    },
    {
      "anonymous": false,
      "inputs": [
        {
          "indexed": false,
          "internalType": "uint24",
          "name": "feeRatio",
          "type": "uint24"
        }
      ],
      "name": "InsuranceFundFeeRatioChanged",
      "type": "event"
    },
    {
      "anonymous": false,
      "inputs": [
        {
          "indexed": false,
          "internalType": "uint8",
          "name": "maxOrdersPerMarket",
          "type": "uint8"
        }
      ],
      "name": "MaxOrdersPerMarketChanged",
      "type": "event"
    },
    {
      "anonymous": false,
      "inputs": [
        {
          "indexed": true,
          "internalType": "address",
          "name": "previousOwner",
          "type": "address"
        },
        {
          "indexed": true,
          "internalType": "address",
          "name": "newOwner",
          "type": "address"
        }
      ],
      "name": "OwnershipTransferred",
      "type": "event"
    },
    {
      "anonymous": false,
      "inputs": [
        {
          "indexed": true,
          "internalType": "address",
          "name": "baseToken",
          "type": "address"
        },
        {
          "indexed": true,
          "internalType": "uint24",
          "name": "feeRatio",
          "type": "uint24"
        },
        {
          "indexed": true,
          "internalType": "address",
          "name": "pool",
          "type": "address"
        }
      ],
      "name": "PoolAdded",
      "type": "event"
    },
    {
      "inputs": [
        {
          "internalType": "address",
          "name": "baseToken",
          "type": "address"
        },
        {
          "internalType": "uint24",
          "name": "feeRatio",
          "type": "uint24"
        }
      ],
      "name": "addPool",
      "outputs": [
        {
          "internalType": "address",
          "name": "",
          "type": "address"
        }
      ],
      "stateMutability": "nonpayable",
      "type": "function"
    },
    {
      "inputs": [],
      "name": "candidate",
      "outputs": [
        {
          "internalType": "address",
          "name": "",
          "type": "address"
        }
      ],
      "stateMutability": "view",
      "type": "function"
    },
    {
      "inputs": [],
      "name": "clearingHouse",
      "outputs": [
        {
          "internalType": "address",
          "name": "",
          "type": "address"
        }
      ],
      "stateMutability": "view",
      "type": "function"
    },
    {
      "inputs": [
        {
          "internalType": "address",
          "name": "baseToken",
          "type": "address"
        }
      ],
      "name": "getFeeRatio",
      "outputs": [
        {
          "internalType": "uint24",
          "name": "",
          "type": "uint24"
        }
      ],
      "stateMutability": "view",
      "type": "function"
    },
    {
      "inputs": [
        {
          "internalType": "address",
          "name": "baseToken",
          "type": "address"
        }
      ],
      "name": "getInsuranceFundFeeRatio",
      "outputs": [
        {
          "internalType": "uint24",
          "name": "",
          "type": "uint24"
        }
      ],
      "stateMutability": "view",
      "type": "function"
    },
    {
      "inputs": [
        {
          "internalType": "address",
          "name": "baseToken",
          "type": "address"
        }
      ],
      "name": "getMarketInfo",
      "outputs": [
        {
          "components": [
            {
              "internalType": "address",
              "name": "pool",
              "type": "address"
            },
            {
              "internalType": "uint24",
              "name": "exchangeFeeRatio",
              "type": "uint24"
            },
            {
              "internalType": "uint24",
              "name": "uniswapFeeRatio",
              "type": "uint24"
            },
            {
              "internalType": "uint24",
              "name": "insuranceFundFeeRatio",
              "type": "uint24"
            }
          ],
          "internalType": "struct MarketRegistry.MarketInfo",
          "name": "",
          "type": "tuple"
        }
      ],
      "stateMutability": "view",
      "type": "function"
    },
    {
      "inputs": [
        {
          "internalType": "address",
          "name": "baseToken",
          "type": "address"
        }
      ],
      "name": "getPool",
      "outputs": [
        {
          "internalType": "address",
          "name": "",
          "type": "address"
        }
      ],
      "stateMutability": "view",
      "type": "function"
    },
    {
      "inputs": [
        {
          "internalType": "address",
          "name": "uniswapV3FactoryArg",
          "type": "address"
        },
        {
          "internalType": "address",
          "name": "quoteTokenArg",
          "type": "address"
        }
      ],
      "name": "initialize",
      "outputs": [],
      "stateMutability": "nonpayable",
      "type": "function"
    },
    {
      "inputs": [],
      "name": "maxOrdersPerMarket",
      "outputs": [
        {
          "internalType": "uint8",
          "name": "",
          "type": "uint8"
        }
      ],
      "stateMutability": "view",
      "type": "function"
    },
    {
      "inputs": [],
      "name": "owner",
      "outputs": [
        {
          "internalType": "address",
          "name": "",
          "type": "address"
        }
      ],
      "stateMutability": "view",
      "type": "function"
    },
    {
      "inputs": [],
      "name": "quoteToken",
      "outputs": [
        {
          "internalType": "address",
          "name": "",
          "type": "address"
        }
      ],
      "stateMutability": "view",
      "type": "function"
    },
    {
      "inputs": [],
      "name": "renounceOwnership",
      "outputs": [],
      "stateMutability": "nonpayable",
      "type": "function"
    },
    {
      "inputs": [
        {
          "internalType": "address",
          "name": "clearingHouseArg",
          "type": "address"
        }
      ],
      "name": "setClearingHouse",
      "outputs": [],
      "stateMutability": "nonpayable",
      "type": "function"
    },
    {
      "inputs": [
        {
          "internalType": "address",
          "name": "baseToken",
          "type": "address"
        },
        {
          "internalType": "uint24",
          "name": "feeRatio",
          "type": "uint24"
        }
      ],
      "name": "setFeeRatio",
      "outputs": [],
      "stateMutability": "nonpayable",
      "type": "function"
    },
    {
      "inputs": [
        {
          "internalType": "address",
          "name": "baseToken",
          "type": "address"
        },
        {
          "internalType": "uint24",
          "name": "insuranceFundFeeRatioArg",
          "type": "uint24"
        }
      ],
      "name": "setInsuranceFundFeeRatio",
      "outputs": [],
      "stateMutability": "nonpayable",
      "type": "function"
    },
    {
      "inputs": [
        {
          "internalType": "uint8",
          "name": "maxOrdersPerMarketArg",
          "type": "uint8"
        }
      ],
      "name": "setMaxOrdersPerMarket",
      "outputs": [],
      "stateMutability": "nonpayable",
      "type": "function"
    },
    {
      "inputs": [
        {
          "internalType": "address",
          "name": "newOwner",
          "type": "address"
        }
      ],
      "name": "setOwner",
      "outputs": [],
      "stateMutability": "nonpayable",
      "type": "function"
    },
    {
      "inputs": [],
      "name": "uniswapV3Factory",
      "outputs": [
        {
          "internalType": "address",
          "name": "",
          "type": "address"
        }
      ],
      "stateMutability": "view",
      "type": "function"
    },
    {
      "inputs": [],
      "name": "updateOwner",
      "outputs": [],
      "stateMutability": "nonpayable",
      "type": "function"
    }
  ],
  "bytecode": "0x608060405234801561001057600080fd5b50611ab5806100206000396000f3fe608060405234801561001057600080fd5b50600436106100f15760003560e01c806308ff49ad146100f65780630af968001461011f5780630cf85bcc1461013457806313af403514610154578063217a4b70146101695780633feb421214610171578063449323d814610184578063485cc955146101975780635b549182146101aa5780636c8381f8146101b2578063715018a6146101ba578063831f72b4146101c25780638da5cb5b146101d5578063baa0ea78146101dd578063bb235d11146101f2578063bbe4f6db14610205578063bc5920ba14610218578063c7bf443414610220578063edd0b5cb14610233575b600080fd5b61010961010436600461159e565b610246565b60405161011691906119ef565b60405180910390f35b61012761026a565b6040516101169190611745565b61014761014236600461159e565b610279565b60405161011691906119ae565b61016761016236600461159e565b6102e9565b005b610127610444565b61016761017f366004611615565b610453565b61016761019236600461159e565b610582565b6101676101a53660046115dd565b610657565b61012761078f565b61012761079e565b6101676107ad565b6101676101d036600461170d565b61084e565b6101276108fe565b6101e561090d565b60405161011691906119ff565b610167610200366004611615565b61091d565b61012761021336600461159e565b610a37565b610167610a55565b61012761022e366004611615565b610b41565b61010961024136600461159e565b61114b565b6001600160a01b0381166000908152606b602052604090205462ffffff165b919050565b6069546001600160a01b031681565b610281611535565b50604080516080810182526001600160a01b039283166000818152606a6020908152848220549095168352818152606c85528381205462ffffff90811686850152828252606d865284822054811684860152918152606b909452919092205416606082015290565b6102f161116b565b6001600160a01b03166103026108fe565b6001600160a01b031614610346576040805162461bcd60e51b8152602060048201526006602482015265534f5f434e4f60d01b604482015290519081900360640190fd5b6001600160a01b03811661038a576040805162461bcd60e51b81526020600482015260066024820152650534f5f4e57360d41b604482015290519081900360640190fd5b6033546001600160a01b03828116911614156103d6576040805162461bcd60e51b8152602060048201526006602482015265534f5f53414f60d01b604482015290519081900360640190fd5b6034546001600160a01b0382811691161415610422576040805162461bcd60e51b8152602060048201526006602482015265534f5f53414360d01b604482015290519081900360640190fd5b603480546001600160a01b0319166001600160a01b0392909216919091179055565b6068546001600160a01b031681565b6001600160a01b038083166000908152606a60205260409020548391166104955760405162461bcd60e51b815260040161048c9061194d565b60405180910390fd5b81620f42408162ffffff1611156104be5760405162461bcd60e51b815260040161048c90611866565b6104c661116b565b6001600160a01b03166104d76108fe565b6001600160a01b03161461051b576040805162461bcd60e51b8152602060048201526006602482015265534f5f434e4f60d01b604482015290519081900360640190fd5b6001600160a01b0384166000908152606b602052604090819020805462ffffff191662ffffff8616179055517f0b4bf524b123dd9f9252f2f17e6f842313eb705045a2259faccd2530bae3ff5c906105749085906119ef565b60405180910390a150505050565b61058a61116b565b6001600160a01b031661059b6108fe565b6001600160a01b0316146105df576040805162461bcd60e51b8152602060048201526006602482015265534f5f434e4f60d01b604482015290519081900360640190fd5b6105f1816001600160a01b031661116f565b61060d5760405162461bcd60e51b815260040161048c90611845565b606980546001600160a01b0319166001600160a01b0383169081179091556040517fd0654f5900f9e7e4e605a19334306e6a2786bbf960ac0484a4c12feb6428fe2f90600090a250565b600054610100900460ff16806106705750610670611175565b8061067e575060005460ff16155b6106b95760405162461bcd60e51b815260040180806020018281038252602e815260200180611a32602e913960400191505060405180910390fd5b600054610100900460ff161580156106e4576000805460ff1961ff0019909116610100171660011790555b6106ec611186565b6106fe836001600160a01b031661116f565b61071a5760405162461bcd60e51b815260040161048c90611824565b61072c826001600160a01b031661116f565b6107485760405162461bcd60e51b815260040161048c90611803565b606780546001600160a01b038086166001600160a01b0319928316179092556068805492851692909116919091179055801561078a576000805461ff00191690555b505050565b6067546001600160a01b031681565b6034546001600160a01b031690565b6107b561116b565b6001600160a01b03166107c66108fe565b6001600160a01b03161461080a576040805162461bcd60e51b8152602060048201526006602482015265534f5f434e4f60d01b604482015290519081900360640190fd5b6033546040516000916001600160a01b031690600080516020611a60833981519152908390a3603380546001600160a01b0319908116909155603480549091169055565b61085661116b565b6001600160a01b03166108676108fe565b6001600160a01b0316146108ab576040805162461bcd60e51b8152602060048201526006602482015265534f5f434e4f60d01b604482015290519081900360640190fd5b6069805460ff60a01b1916600160a01b60ff8416021790556040517ff3d121ca0d4fa5acf57cf8a09acedf5326b6ca02f25764d2a05a4dba8e4a777e906108f39083906119ff565b60405180910390a150565b6033546001600160a01b031690565b606954600160a01b900460ff1681565b6001600160a01b038083166000908152606a60205260409020548391166109565760405162461bcd60e51b815260040161048c9061194d565b81620f42408162ffffff16111561097f5760405162461bcd60e51b815260040161048c90611866565b61098761116b565b6001600160a01b03166109986108fe565b6001600160a01b0316146109dc576040805162461bcd60e51b8152602060048201526006602482015265534f5f434e4f60d01b604482015290519081900360640190fd5b6001600160a01b0384166000908152606c602052604090819020805462ffffff191662ffffff8616179055517f8129297a1a8d252870739804c1d9cdbc86121230ce172c23ec11a940ccab01ef906105749086908690611781565b6001600160a01b039081166000908152606a60205260409020541690565b6034546001600160a01b0316610a9a576040805162461bcd60e51b81526020600482015260056024820152640534f5f43360dc1b604482015290519081900360640190fd5b610aa261116b565b6034546001600160a01b03908116911614610aed576040805162461bcd60e51b8152602060048201526006602482015265534f5f434e4360d01b604482015290519081900360640190fd5b6034546033546040516001600160a01b039283169290911690600080516020611a6083398151915290600090a360348054603380546001600160a01b03199081166001600160a01b03841617909155169055565b6000610b4b61116b565b6001600160a01b0316610b5c6108fe565b6001600160a01b031614610ba0576040805162461bcd60e51b8152602060048201526006602482015265534f5f434e4f60d01b604482015290519081900360640190fd5b826001600160a01b031663313ce5676040518163ffffffff1660e01b815260040160206040518083038186803b158015610bd957600080fd5b505afa158015610bed573d6000803e3d6000fd5b505050506040513d601f19601f82011682018060405250810190610c119190611729565b60ff16601214610c335760405162461bcd60e51b815260040161048c9061196d565b6069546040516370a0823160e01b8152600019916001600160a01b03808716926370a0823192610c67921690600401611745565b60206040518083038186803b158015610c7f57600080fd5b505afa158015610c93573d6000803e3d6000fd5b505050506040513d601f19601f82011682018060405250810190610cb791906116f5565b14610cd45760405162461bcd60e51b815260040161048c906117e1565b606854604080516318160ddd60e01b81529051600019926001600160a01b0316916318160ddd916004808301926020929190829003018186803b158015610d1a57600080fd5b505afa158015610d2e573d6000803e3d6000fd5b505050506040513d601f19601f82011682018060405250810190610d5291906116f5565b14610d6f5760405162461bcd60e51b815260040161048c90611908565b6068546001600160a01b0390811690841610610d9d5760405162461bcd60e51b815260040161048c9061198f565b606754606854600091610dbe916001600160a01b0391821691168686611276565b90506001600160a01b038116610de65760405162461bcd60e51b815260040161048c906117c1565b6001600160a01b038481166000908152606a60205260409020541615610e1e5760405162461bcd60e51b815260040161048c906118a5565b610e2781611316565b6001600160a01b0316610e4c5760405162461bcd60e51b815260040161048c90611885565b6069546040516304fec10960e11b81526001600160a01b03868116926309fd821292610e7e9290911690600401611745565b60206040518083038186803b158015610e9657600080fd5b505afa158015610eaa573d6000803e3d6000fd5b505050506040513d601f19601f82011682018060405250810190610ece9190611649565b610eea5760405162461bcd60e51b815260040161048c906118e6565b6040516304fec10960e11b81526001600160a01b038516906309fd821290610f16908490600401611745565b60206040518083038186803b158015610f2e57600080fd5b505afa158015610f42573d6000803e3d6000fd5b505050506040513d601f19601f82011682018060405250810190610f669190611649565b610f825760405162461bcd60e51b815260040161048c906118c4565b6068546069546040516304fec10960e11b81526001600160a01b03928316926309fd821292610fb692911690600401611745565b60206040518083038186803b158015610fce57600080fd5b505afa158015610fe2573d6000803e3d6000fd5b505050506040513d601f19601f820116820180604052508101906110069190611649565b6110225760405162461bcd60e51b815260040161048c9061192a565b6068546040516304fec10960e11b81526001600160a01b03909116906309fd821290611052908490600401611745565b60206040518083038186803b15801561106a57600080fd5b505afa15801561107e573d6000803e3d6000fd5b505050506040513d601f19601f820116820180604052508101906110a29190611649565b6110be5760405162461bcd60e51b815260040161048c9061179f565b6001600160a01b038085166000818152606a6020908152604080832080549587166001600160a01b031990961686179055606d8252808320805462ffffff8a1662ffffff199182168117909255606c90935281842080549093168117909255519092917f8b17db32f8ec22477a8f9475d5b92052ef2ce8c6c73ad79be1eb297a8fdd2ff191a49392505050565b6001600160a01b03166000908152606c602052604090205462ffffff1690565b3390565b3b151590565b60006111803061116f565b15905090565b600054610100900460ff168061119f575061119f611175565b806111ad575060005460ff16155b6111e85760405162461bcd60e51b815260040180806020018281038252602e815260200180611a32602e913960400191505060405180910390fd5b600054610100900460ff16158015611213576000805460ff1961ff0019909116610100171660011790555b61121b611396565b600061122561116b565b603380546001600160a01b0319166001600160a01b03831690811790915560405191925090600090600080516020611a60833981519152908290a3508015611273576000805461ff00191690555b50565b60008061128485858561143f565b80516020820151604051630b4c774160e11b81529293506001600160a01b03891692631698ee82926112bc9290918890600401611759565b60206040518083038186803b1580156112d457600080fd5b505afa1580156112e8573d6000803e3d6000fd5b505050506040513d601f19601f8201168201806040525081019061130c91906115c1565b9695505050505050565b6000816001600160a01b0316633850c7bd6040518163ffffffff1660e01b815260040160e06040518083038186803b15801561135157600080fd5b505afa158015611365573d6000803e3d6000fd5b505050506040513d601f19601f820116820180604052508101906113899190611663565b5094979650505050505050565b600054610100900460ff16806113af57506113af611175565b806113bd575060005460ff16155b6113f85760405162461bcd60e51b815260040180806020018281038252602e815260200180611a32602e913960400191505060405180910390fd5b600054610100900460ff16158015611423576000805460ff1961ff0019909116610100171660011790555b61142b611495565b8015611273576000805461ff001916905550565b61144761155c565b826001600160a01b0316846001600160a01b03161115611465579192915b50604080516060810182526001600160a01b03948516815292909316602083015262ffffff169181019190915290565b600054610100900460ff16806114ae57506114ae611175565b806114bc575060005460ff16155b6114f75760405162461bcd60e51b815260040180806020018281038252602e815260200180611a32602e913960400191505060405180910390fd5b600054610100900460ff1615801561142b576000805460ff1961ff0019909116610100171660011790558015611273576000805461ff001916905550565b60408051608081018252600080825260208201819052918101829052606081019190915290565b604080516060810182526000808252602082018190529181019190915290565b8051801515811461026557600080fd5b805161ffff8116811461026557600080fd5b6000602082840312156115af578081fd5b81356115ba81611a0d565b9392505050565b6000602082840312156115d2578081fd5b81516115ba81611a0d565b600080604083850312156115ef578081fd5b82356115fa81611a0d565b9150602083013561160a81611a0d565b809150509250929050565b60008060408385031215611627578182fd5b823561163281611a0d565b9150602083013562ffffff8116811461160a578182fd5b60006020828403121561165a578081fd5b6115ba8261157c565b600080600080600080600060e0888a03121561167d578283fd5b875161168881611a0d565b8097505060208801518060020b811461169f578384fd5b95506116ad6040890161158c565b94506116bb6060890161158c565b93506116c96080890161158c565b925060a08801516116d981611a22565b91506116e760c0890161157c565b905092959891949750929550565b600060208284031215611706578081fd5b5051919050565b60006020828403121561171e578081fd5b81356115ba81611a22565b60006020828403121561173a578081fd5b81516115ba81611a22565b6001600160a01b0391909116815260200190565b6001600160a01b03938416815291909216602082015262ffffff909116604082015260600190565b6001600160a01b0392909216825262ffffff16602082015260400190565b602080825260089082015267135497d4139455d360c21b604082015260600190565b60208082526006908201526504d525f4e45560d41b604082015260600190565b6020808252600890820152674d525f4348424e4560c01b604082015260600190565b6020808252600790820152664d525f51544e4360c81b604082015260600190565b6020808252600790820152664d525f55464e4360c81b604082015260600190565b6020808252600790820152664d525f43484e4360c81b604082015260600190565b6020808252600590820152644d525f524f60d81b604082015260600190565b6020808252600690820152654d525f504e4960d01b604082015260600190565b60208082526005908201526404d525f45560dc1b604082015260600190565b602080825260089082015267135497d4139095d360c21b604082015260600190565b602080825260089082015267135497d0d39095d360c21b604082015260600190565b6020808252600890820152674d525f5154534e4560c01b604082015260600190565b602080825260099082015268135497d0d2139455d360ba1b604082015260600190565b6020808252600690820152654d525f504e4560d01b604082015260600190565b60208082526008908201526709aa4be84889c62760c31b604082015260600190565b60208082526005908201526426a92fa4a160d91b604082015260600190565b81516001600160a01b0316815260208083015162ffffff90811691830191909152604080840151821690830152606092830151169181019190915260800190565b62ffffff91909116815260200190565b60ff91909116815260200190565b6001600160a01b038116811461127357600080fd5b60ff8116811461127357600080fdfe496e697469616c697a61626c653a20636f6e747261637420697320616c726561647920696e697469616c697a65648be0079c531659141344cd1fd0a4f28419497f9722a3daafe3b4186f6b6457e0a26469706673582212206d60035a869a9ef04a17aa3e8896313cfc220b39c50b3389cde031a0eee1050a64736f6c63430007060033",
  "linkReferences": {},
  "deployedLinkReferences": {}
}