{
  "_format": "hh-sol-artifact-1",
  "contractName": "PerpV2ClearingHouseConfig",
  "sourceName": "contracts/ClearingHouseConfig.sol",
  "abi": [
    {
      "anonymous": false,
      "inputs": [
        {
          "indexed": false,
          "internalType": "uint24",
          "name": "liquidationPenaltyRatio",
          "type": "uint24"
        }
      ],
      "name": "LiquidationPenaltyRatioChanged",
      "type": "event"
    },
    {
      "anonymous": false,
      "inputs": [
        {
          "indexed": false,
          "internalType": "uint24",
          "name": "rate",
          "type": "uint24"
        }
      ],
      "name": "MaxFundingRateChanged",
      "type": "event"
    },
    {
      "anonymous": false,
      "inputs": [
        {
          "indexed": false,
          "internalType": "uint8",
          "name": "maxMarketsPerAccount",
          "type": "uint8"
        }
      ],
      "name": "MaxMarketsPerAccountChanged",
      "type": "event"
    },
    {
      "anonymous": false,
      "inputs": [
        {
          "indexed": true,
          "internalType": "address",
          "name": "previousOwner",
          "type": "address"
        },
        {
          "indexed": true,
          "internalType": "address",
          "name": "newOwner",
          "type": "address"
        }
      ],
      "name": "OwnershipTransferred",
      "type": "event"
    },
    {
      "anonymous": false,
      "inputs": [
        {
          "indexed": false,
          "internalType": "uint24",
          "name": "partialCloseRatio",
          "type": "uint24"
        }
      ],
      "name": "PartialCloseRatioChanged",
      "type": "event"
    },
    {
      "anonymous": false,
      "inputs": [
        {
          "indexed": false,
          "internalType": "uint256",
          "name": "cap",
          "type": "uint256"
        }
      ],
      "name": "SettlementTokenBalanceCapChanged",
      "type": "event"
    },
    {
      "anonymous": false,
      "inputs": [
        {
          "indexed": false,
          "internalType": "uint256",
          "name": "twapInterval",
          "type": "uint256"
        }
      ],
      "name": "TwapIntervalChanged",
      "type": "event"
    },
    {
      "inputs": [],
      "name": "candidate",
      "outputs": [
        {
          "internalType": "address",
          "name": "",
          "type": "address"
        }
      ],
      "stateMutability": "view",
      "type": "function"
    },
    {
      "inputs": [],
      "name": "getImRatio",
      "outputs": [
        {
          "internalType": "uint24",
          "name": "",
          "type": "uint24"
        }
      ],
      "stateMutability": "view",
      "type": "function"
    },
    {
      "inputs": [],
      "name": "getLiquidationPenaltyRatio",
      "outputs": [
        {
          "internalType": "uint24",
          "name": "",
          "type": "uint24"
        }
      ],
      "stateMutability": "view",
      "type": "function"
    },
    {
      "inputs": [],
      "name": "getMaxFundingRate",
      "outputs": [
        {
          "internalType": "uint24",
          "name": "",
          "type": "uint24"
        }
      ],
      "stateMutability": "view",
      "type": "function"
    },
    {
      "inputs": [],
      "name": "getMaxMarketsPerAccount",
      "outputs": [
        {
          "internalType": "uint8",
          "name": "",
          "type": "uint8"
        }
      ],
      "stateMutability": "view",
      "type": "function"
    },
    {
      "inputs": [],
      "name": "getMmRatio",
      "outputs": [
        {
          "internalType": "uint24",
          "name": "",
          "type": "uint24"
        }
      ],
      "stateMutability": "view",
      "type": "function"
    },
    {
      "inputs": [],
      "name": "getPartialCloseRatio",
      "outputs": [
        {
          "internalType": "uint24",
          "name": "",
          "type": "uint24"
        }
      ],
      "stateMutability": "view",
      "type": "function"
    },
    {
      "inputs": [],
      "name": "getSettlementTokenBalanceCap",
      "outputs": [
        {
          "internalType": "uint256",
          "name": "",
          "type": "uint256"
        }
      ],
      "stateMutability": "view",
      "type": "function"
    },
    {
      "inputs": [],
      "name": "getTwapInterval",
      "outputs": [
        {
          "internalType": "uint32",
          "name": "",
          "type": "uint32"
        }
      ],
      "stateMutability": "view",
      "type": "function"
    },
    {
      "inputs": [],
      "name": "initialize",
      "outputs": [],
      "stateMutability": "nonpayable",
      "type": "function"
    },
    {
      "inputs": [],
      "name": "owner",
      "outputs": [
        {
          "internalType": "address",
          "name": "",
          "type": "address"
        }
      ],
      "stateMutability": "view",
      "type": "function"
    },
    {
      "inputs": [],
      "name": "renounceOwnership",
      "outputs": [],
      "stateMutability": "nonpayable",
      "type": "function"
    },
    {
      "inputs": [
        {
          "internalType": "uint24",
          "name": "liquidationPenaltyRatioArg",
          "type": "uint24"
        }
      ],
      "name": "setLiquidationPenaltyRatio",
      "outputs": [],
      "stateMutability": "nonpayable",
      "type": "function"
    },
    {
      "inputs": [
        {
          "internalType": "uint24",
          "name": "rate",
          "type": "uint24"
        }
      ],
      "name": "setMaxFundingRate",
      "outputs": [],
      "stateMutability": "nonpayable",
      "type": "function"
    },
    {
      "inputs": [
        {
          "internalType": "uint8",
          "name": "maxMarketsPerAccountArg",
          "type": "uint8"
        }
      ],
      "name": "setMaxMarketsPerAccount",
      "outputs": [],
      "stateMutability": "nonpayable",
      "type": "function"
    },
    {
      "inputs": [
        {
          "internalType": "address",
          "name": "newOwner",
          "type": "address"
        }
      ],
      "name": "setOwner",
      "outputs": [],
      "stateMutability": "nonpayable",
      "type": "function"
    },
    {
      "inputs": [
        {
          "internalType": "uint24",
          "name": "partialCloseRatioArg",
          "type": "uint24"
        }
      ],
      "name": "setPartialCloseRatio",
      "outputs": [],
      "stateMutability": "nonpayable",
      "type": "function"
    },
    {
      "inputs": [
        {
          "internalType": "uint256",
          "name": "cap",
          "type": "uint256"
        }
      ],
      "name": "setSettlementTokenBalanceCap",
      "outputs": [],
      "stateMutability": "nonpayable",
      "type": "function"
    },
    {
      "inputs": [
        {
          "internalType": "uint32",
          "name": "twapIntervalArg",
          "type": "uint32"
        }
      ],
      "name": "setTwapInterval",
      "outputs": [],
      "stateMutability": "nonpayable",
      "type": "function"
    },
    {
      "inputs": [],
      "name": "updateOwner",
      "outputs": [],
      "stateMutability": "nonpayable",
      "type": "function"
    }
  ],
  "bytecode": "0x608060405234801561001057600080fd5b50610f69806100206000396000f3fe608060405234801561001057600080fd5b50600436106100fc5760003560e01c8063050a0ba31461010157806313af4035146101255780631d27050f1461014b5780632c47ccba1461016e5780633e742e3b1461018c578063543ce73a146101ad5780636c8381f8146101cd5780636e1d2dd2146101f1578063715018a6146101f957806373f625011461020157806374283336146102215780637bce35ae146102295780638129fc1c1461024b57806385eacc77146102535780638af3a60d1461026d5780638da5cb5b1461028f578063a854940214610297578063bc5920ba1461029f578063c846961e146102a7578063fedf924b146102c4575b600080fd5b6101236004803603602081101561011757600080fd5b503562ffffff166102cc565b005b6101236004803603602081101561013b57600080fd5b50356001600160a01b03166103c9565b6101236004803603602081101561016157600080fd5b503563ffffffff16610524565b61017661061d565b6040805160ff9092168252519081900360200190f35b610194610626565b6040805163ffffffff9092168252519081900360200190f35b6101b5610639565b6040805162ffffff9092168252519081900360200190f35b6101d5610649565b604080516001600160a01b039092168252519081900360200190f35b6101b5610658565b61012361066a565b6101236004803603602081101561021757600080fd5b503560ff1661070b565b6101b56107b0565b6101236004803603602081101561023f57600080fd5b503562ffffff166107c2565b610123610904565b61025b610a20565b60408051918252519081900360200190f35b6101236004803603602081101561028357600080fd5b503562ffffff16610a26565b6101d5610adb565b6101b5610aea565b610123610afc565b610123600480360360208110156102bd57600080fd5b5035610be8565b6101b5610c80565b80620f42408162ffffff161115610313576040805162461bcd60e51b81526020600482015260066024820152654348435f524f60d01b604482015290519081900360640190fd5b61031b610c92565b6001600160a01b031661032c610adb565b6001600160a01b031614610370576040805162461bcd60e51b8152602060048201526006602482015265534f5f434e4f60d01b604482015290519081900360640190fd5b6067805462ffffff8416600160381b810262ffffff60381b199092169190911790915560408051918252517ff95b3e2798060899824a0bebdd89ff5df3d51c51c5d30f5184bd30d7a6b017089181900360200190a15050565b6103d1610c92565b6001600160a01b03166103e2610adb565b6001600160a01b031614610426576040805162461bcd60e51b8152602060048201526006602482015265534f5f434e4f60d01b604482015290519081900360640190fd5b6001600160a01b03811661046a576040805162461bcd60e51b81526020600482015260066024820152650534f5f4e57360d41b604482015290519081900360640190fd5b6033546001600160a01b03828116911614156104b6576040805162461bcd60e51b8152602060048201526006602482015265534f5f53414f60d01b604482015290519081900360640190fd5b6034546001600160a01b0382811691161415610502576040805162461bcd60e51b8152602060048201526006602482015265534f5f53414360d01b604482015290519081900360640190fd5b603480546001600160a01b0319166001600160a01b0392909216919091179055565b61052c610c92565b6001600160a01b031661053d610adb565b6001600160a01b031614610581576040805162461bcd60e51b8152602060048201526006602482015265534f5f434e4f60d01b604482015290519081900360640190fd5b63ffffffff81166105c3576040805162461bcd60e51b81526020600482015260076024820152664348435f49544960c81b604482015290519081900360640190fd5b6067805463ffffffff8316600160801b810263ffffffff60801b199092169190911790915560408051918252517f0bd5e02c0d6277fdf7c7c72fae10042c4c832b26ea94623a04b79a50a35a217e9181900360200190a150565b60675460ff1690565b606754600160801b900463ffffffff1690565b606754610100900462ffffff1690565b6034546001600160a01b031690565b606754600160681b900462ffffff1690565b610672610c92565b6001600160a01b0316610683610adb565b6001600160a01b0316146106c7576040805162461bcd60e51b8152602060048201526006602482015265534f5f434e4f60d01b604482015290519081900360640190fd5b6033546040516000916001600160a01b031690600080516020610f14833981519152908390a3603380546001600160a01b0319908116909155603480549091169055565b610713610c92565b6001600160a01b0316610724610adb565b6001600160a01b031614610768576040805162461bcd60e51b8152602060048201526006602482015265534f5f434e4f60d01b604482015290519081900360640190fd5b6067805460ff831660ff19909116811790915560408051918252517fa7b4760b38e2a630f3073fcd5119972cbf81bd50e3761f86534a69661caf81109181900360200190a150565b606754600160501b900462ffffff1690565b80620f42408162ffffff161115610809576040805162461bcd60e51b81526020600482015260066024820152654348435f524f60d01b604482015290519081900360640190fd5b610811610c92565b6001600160a01b0316610822610adb565b6001600160a01b031614610866576040805162461bcd60e51b8152602060048201526006602482015265534f5f434e4f60d01b604482015290519081900360640190fd5b60008262ffffff16116108ab576040805162461bcd60e51b815260206004820152600860248201526721a421afa4a821a960c11b604482015290519081900360640190fd5b6067805462ffffff8416600160501b810262ffffff60501b199092169190911790915560408051918252517f4757c16c46bedf5171cc1e2c53c99225da1bff2c0a5cb51b0f852909dbae1ebd9181900360200190a15050565b600054610100900460ff168061091d575061091d610c96565b8061092b575060005460ff16155b6109665760405162461bcd60e51b815260040180806020018281038252602e815260200180610ee6602e913960400191505060405180910390fd5b600054610100900460ff16158015610991576000805460ff1961ff0019909116610100171660011790555b610999610ca7565b6067805460ff60ff199091161763ffffff001916630186a0001762ffffff60201b1916613d0960221b1762ffffff60381b1916610c35603b1b1762ffffff60501b1916613d0960541b1762ffffff60681b1916610c35606d1b1763ffffffff60801b191660e160821b1790556000196068558015610a1d576000805461ff00191690555b50565b60685490565b610a2e610c92565b6001600160a01b0316610a3f610adb565b6001600160a01b031614610a83576040805162461bcd60e51b8152602060048201526006602482015265534f5f434e4f60d01b604482015290519081900360640190fd5b6067805462ffffff8316600160681b810262ffffff60681b199092169190911790915560408051918252517f0bcb070f78e3c4fec82334dff77e5369a878886b8be26c9f98daa534a8cf67789181900360200190a150565b6033546001600160a01b031690565b606754600160201b900462ffffff1690565b6034546001600160a01b0316610b41576040805162461bcd60e51b81526020600482015260056024820152640534f5f43360dc1b604482015290519081900360640190fd5b610b49610c92565b6034546001600160a01b03908116911614610b94576040805162461bcd60e51b8152602060048201526006602482015265534f5f434e4360d01b604482015290519081900360640190fd5b6034546033546040516001600160a01b039283169290911690600080516020610f1483398151915290600090a360348054603380546001600160a01b03199081166001600160a01b03841617909155169055565b610bf0610c92565b6001600160a01b0316610c01610adb565b6001600160a01b031614610c45576040805162461bcd60e51b8152602060048201526006602482015265534f5f434e4f60d01b604482015290519081900360640190fd5b60688190556040805182815290517fc6564be86420b541b7946583fdb54d45535a59a04e3b3525b536ccc547b4cd8f9181900360200190a150565b606754600160381b900462ffffff1690565b3390565b6000610ca130610d96565b15905090565b600054610100900460ff1680610cc05750610cc0610c96565b80610cce575060005460ff16155b610d095760405162461bcd60e51b815260040180806020018281038252602e815260200180610ee6602e913960400191505060405180910390fd5b600054610100900460ff16158015610d34576000805460ff1961ff0019909116610100171660011790555b610d3c610d9c565b6000610d46610c92565b603380546001600160a01b0319166001600160a01b03831690811790915560405191925090600090600080516020610f14833981519152908290a3508015610a1d576000805461ff001916905550565b3b151590565b600054610100900460ff1680610db55750610db5610c96565b80610dc3575060005460ff16155b610dfe5760405162461bcd60e51b815260040180806020018281038252602e815260200180610ee6602e913960400191505060405180910390fd5b600054610100900460ff16158015610e29576000805460ff1961ff0019909116610100171660011790555b610e31610e45565b8015610a1d576000805461ff001916905550565b600054610100900460ff1680610e5e5750610e5e610c96565b80610e6c575060005460ff16155b610ea75760405162461bcd60e51b815260040180806020018281038252602e815260200180610ee6602e913960400191505060405180910390fd5b600054610100900460ff16158015610e31576000805460ff1961ff0019909116610100171660011790558015610a1d576000805461ff00191690555056fe496e697469616c697a61626c653a20636f6e747261637420697320616c726561647920696e697469616c697a65648be0079c531659141344cd1fd0a4f28419497f9722a3daafe3b4186f6b6457e0a26469706673582212203926e8c9c8c6d777975834b5c4accfbbb137cb9f59ceb88ab78f7dafe81b16a064736f6c63430007060033",
  "linkReferences": {},
  "deployedLinkReferences": {}
}