{
  "_format": "hh-sol-artifact-1",
  "contractName": "PerpV2OrderBook",
  "sourceName": "contracts/OrderBook.sol",
  "abi": [
    {
      "anonymous": false,
      "inputs": [
        {
          "indexed": true,
          "internalType": "address",
          "name": "clearingHouse",
          "type": "address"
        }
      ],
      "name": "ClearingHouseChanged",
      "type": "event"
    },
    {
      "anonymous": false,
      "inputs": [
        {
          "indexed": true,
          "internalType": "address",
          "name": "exchange",
          "type": "address"
        }
      ],
      "name": "ExchangeChanged",
      "type": "event"
    },
    {
      "anonymous": false,
      "inputs": [
        {
          "indexed": true,
          "internalType": "address",
          "name": "previousOwner",
          "type": "address"
        },
        {
          "indexed": true,
          "internalType": "address",
          "name": "newOwner",
          "type": "address"
        }
      ],
      "name": "OwnershipTransferred",
      "type": "event"
    },
    {
      "inputs": [
        {
          "components": [
            {
              "internalType": "address",
              "name": "trader",
              "type": "address"
            },
            {
              "internalType": "address",
              "name": "baseToken",
              "type": "address"
            },
            {
              "internalType": "uint256",
              "name": "base",
              "type": "uint256"
            },
            {
              "internalType": "uint256",
              "name": "quote",
              "type": "uint256"
            },
            {
              "internalType": "int24",
              "name": "lowerTick",
              "type": "int24"
            },
            {
              "internalType": "int24",
              "name": "upperTick",
              "type": "int24"
            },
            {
              "components": [
                {
                  "internalType": "int256",
                  "name": "twPremiumX96",
                  "type": "int256"
                },
                {
                  "internalType": "int256",
                  "name": "twPremiumDivBySqrtPriceX96",
                  "type": "int256"
                }
              ],
              "internalType": "struct Funding.Growth",
              "name": "fundingGrowthGlobal",
              "type": "tuple"
            }
          ],
          "internalType": "struct IOrderBook.AddLiquidityParams",
          "name": "params",
          "type": "tuple"
        }
      ],
      "name": "addLiquidity",
      "outputs": [
        {
          "components": [
            {
              "internalType": "uint256",
              "name": "base",
              "type": "uint256"
            },
            {
              "internalType": "uint256",
              "name": "quote",
              "type": "uint256"
            },
            {
              "internalType": "uint256",
              "name": "fee",
              "type": "uint256"
            },
            {
              "internalType": "uint128",
              "name": "liquidity",
              "type": "uint128"
            }
          ],
          "internalType": "struct IOrderBook.AddLiquidityResponse",
          "name": "",
          "type": "tuple"
        }
      ],
      "stateMutability": "nonpayable",
      "type": "function"
    },
    {
      "inputs": [],
      "name": "candidate",
      "outputs": [
        {
          "internalType": "address",
          "name": "",
          "type": "address"
        }
      ],
      "stateMutability": "view",
      "type": "function"
    },
    {
      "inputs": [],
      "name": "getClearingHouse",
      "outputs": [
        {
          "internalType": "address",
          "name": "",
          "type": "address"
        }
      ],
      "stateMutability": "view",
      "type": "function"
    },
    {
      "inputs": [],
      "name": "getExchange",
      "outputs": [
        {
          "internalType": "address",
          "name": "",
          "type": "address"
        }
      ],
      "stateMutability": "view",
      "type": "function"
    },
    {
      "inputs": [
        {
          "internalType": "address",
          "name": "baseToken",
          "type": "address"
        }
      ],
      "name": "getFeeGrowthGlobal",
      "outputs": [
        {
          "internalType": "uint256",
          "name": "",
          "type": "uint256"
        }
      ],
      "stateMutability": "view",
      "type": "function"
    },
    {
      "inputs": [
        {
          "internalType": "address",
          "name": "trader",
          "type": "address"
        },
        {
          "internalType": "address",
          "name": "baseToken",
          "type": "address"
        },
        {
          "components": [
            {
              "internalType": "int256",
              "name": "twPremiumX96",
              "type": "int256"
            },
            {
              "internalType": "int256",
              "name": "twPremiumDivBySqrtPriceX96",
              "type": "int256"
            }
          ],
          "internalType": "struct Funding.Growth",
          "name": "fundingGrowthGlobal",
          "type": "tuple"
        }
      ],
      "name": "getLiquidityCoefficientInFundingPayment",
      "outputs": [
        {
          "internalType": "int256",
          "name": "liquidityCoefficientInFundingPayment",
          "type": "int256"
        }
      ],
      "stateMutability": "view",
      "type": "function"
    },
    {
      "inputs": [],
      "name": "getMarketRegistry",
      "outputs": [
        {
          "internalType": "address",
          "name": "",
          "type": "address"
        }
      ],
      "stateMutability": "view",
      "type": "function"
    },
    {
      "inputs": [
        {
          "internalType": "address",
          "name": "trader",
          "type": "address"
        },
        {
          "internalType": "address",
          "name": "baseToken",
          "type": "address"
        },
        {
          "internalType": "int24",
          "name": "lowerTick",
          "type": "int24"
        },
        {
          "internalType": "int24",
          "name": "upperTick",
          "type": "int24"
        }
      ],
      "name": "getOpenOrder",
      "outputs": [
        {
          "components": [
            {
              "internalType": "uint128",
              "name": "liquidity",
              "type": "uint128"
            },
            {
              "internalType": "int24",
              "name": "lowerTick",
              "type": "int24"
            },
            {
              "internalType": "int24",
              "name": "upperTick",
              "type": "int24"
            },
            {
              "internalType": "uint256",
              "name": "lastFeeGrowthInsideX128",
              "type": "uint256"
            },
            {
              "internalType": "int256",
              "name": "lastTwPremiumGrowthInsideX96",
              "type": "int256"
            },
            {
              "internalType": "int256",
              "name": "lastTwPremiumGrowthBelowX96",
              "type": "int256"
            },
            {
              "internalType": "int256",
              "name": "lastTwPremiumDivBySqrtPriceGrowthInsideX96",
              "type": "int256"
            },
            {
              "internalType": "uint256",
              "name": "baseDebt",
              "type": "uint256"
            },
            {
              "internalType": "uint256",
              "name": "quoteDebt",
              "type": "uint256"
            }
          ],
          "internalType": "struct OpenOrder.Info",
          "name": "",
          "type": "tuple"
        }
      ],
      "stateMutability": "view",
      "type": "function"
    },
    {
      "inputs": [
        {
          "internalType": "bytes32",
          "name": "orderId",
          "type": "bytes32"
        }
      ],
      "name": "getOpenOrderById",
      "outputs": [
        {
          "components": [
            {
              "internalType": "uint128",
              "name": "liquidity",
              "type": "uint128"
            },
            {
              "internalType": "int24",
              "name": "lowerTick",
              "type": "int24"
            },
            {
              "internalType": "int24",
              "name": "upperTick",
              "type": "int24"
            },
            {
              "internalType": "uint256",
              "name": "lastFeeGrowthInsideX128",
              "type": "uint256"
            },
            {
              "internalType": "int256",
              "name": "lastTwPremiumGrowthInsideX96",
              "type": "int256"
            },
            {
              "internalType": "int256",
              "name": "lastTwPremiumGrowthBelowX96",
              "type": "int256"
            },
            {
              "internalType": "int256",
              "name": "lastTwPremiumDivBySqrtPriceGrowthInsideX96",
              "type": "int256"
            },
            {
              "internalType": "uint256",
              "name": "baseDebt",
              "type": "uint256"
            },
            {
              "internalType": "uint256",
              "name": "quoteDebt",
              "type": "uint256"
            }
          ],
          "internalType": "struct OpenOrder.Info",
          "name": "",
          "type": "tuple"
        }
      ],
      "stateMutability": "view",
      "type": "function"
    },
    {
      "inputs": [
        {
          "internalType": "address",
          "name": "trader",
          "type": "address"
        },
        {
          "internalType": "address",
          "name": "baseToken",
          "type": "address"
        }
      ],
      "name": "getOpenOrderIds",
      "outputs": [
        {
          "internalType": "bytes32[]",
          "name": "",
          "type": "bytes32[]"
        }
      ],
      "stateMutability": "view",
      "type": "function"
    },
    {
      "inputs": [
        {
          "internalType": "address",
          "name": "trader",
          "type": "address"
        },
        {
          "internalType": "address",
          "name": "baseToken",
          "type": "address"
        },
        {
          "internalType": "int24",
          "name": "lowerTick",
          "type": "int24"
        },
        {
          "internalType": "int24",
          "name": "upperTick",
          "type": "int24"
        }
      ],
      "name": "getOwedFee",
      "outputs": [
        {
          "internalType": "uint256",
          "name": "",
          "type": "uint256"
        }
      ],
      "stateMutability": "view",
      "type": "function"
    },
    {
      "inputs": [
        {
          "internalType": "address",
          "name": "trader",
          "type": "address"
        },
        {
          "internalType": "address",
          "name": "baseToken",
          "type": "address"
        },
        {
          "internalType": "bool",
          "name": "fetchBase",
          "type": "bool"
        }
      ],
      "name": "getTotalOrderDebt",
      "outputs": [
        {
          "internalType": "uint256",
          "name": "",
          "type": "uint256"
        }
      ],
      "stateMutability": "view",
      "type": "function"
    },
    {
      "inputs": [
        {
          "internalType": "address",
          "name": "trader",
          "type": "address"
        },
        {
          "internalType": "address[]",
          "name": "baseTokens",
          "type": "address[]"
        }
      ],
      "name": "getTotalQuoteBalanceAndPendingFee",
      "outputs": [
        {
          "internalType": "int256",
          "name": "totalQuoteAmountInPools",
          "type": "int256"
        },
        {
          "internalType": "uint256",
          "name": "totalPendingFee",
          "type": "uint256"
        }
      ],
      "stateMutability": "view",
      "type": "function"
    },
    {
      "inputs": [
        {
          "internalType": "address",
          "name": "trader",
          "type": "address"
        },
        {
          "internalType": "address",
          "name": "baseToken",
          "type": "address"
        },
        {
          "internalType": "bool",
          "name": "fetchBase",
          "type": "bool"
        }
      ],
      "name": "getTotalTokenAmountInPoolAndPendingFee",
      "outputs": [
        {
          "internalType": "uint256",
          "name": "tokenAmount",
          "type": "uint256"
        },
        {
          "internalType": "uint256",
          "name": "pendingFee",
          "type": "uint256"
        }
      ],
      "stateMutability": "view",
      "type": "function"
    },
    {
      "inputs": [
        {
          "internalType": "address",
          "name": "trader",
          "type": "address"
        },
        {
          "internalType": "address[]",
          "name": "tokens",
          "type": "address[]"
        }
      ],
      "name": "hasOrder",
      "outputs": [
        {
          "internalType": "bool",
          "name": "",
          "type": "bool"
        }
      ],
      "stateMutability": "view",
      "type": "function"
    },
    {
      "inputs": [
        {
          "internalType": "address",
          "name": "marketRegistryArg",
          "type": "address"
        }
      ],
      "name": "initialize",
      "outputs": [],
      "stateMutability": "nonpayable",
      "type": "function"
    },
    {
      "inputs": [],
      "name": "owner",
      "outputs": [
        {
          "internalType": "address",
          "name": "",
          "type": "address"
        }
      ],
      "stateMutability": "view",
      "type": "function"
    },
    {
      "inputs": [
        {
          "components": [
            {
              "internalType": "address",
              "name": "maker",
              "type": "address"
            },
            {
              "internalType": "address",
              "name": "baseToken",
              "type": "address"
            },
            {
              "internalType": "int24",
              "name": "lowerTick",
              "type": "int24"
            },
            {
              "internalType": "int24",
              "name": "upperTick",
              "type": "int24"
            },
            {
              "internalType": "uint128",
              "name": "liquidity",
              "type": "uint128"
            }
          ],
          "internalType": "struct IOrderBook.RemoveLiquidityParams",
          "name": "params",
          "type": "tuple"
        }
      ],
      "name": "removeLiquidity",
      "outputs": [
        {
          "components": [
            {
              "internalType": "uint256",
              "name": "base",
              "type": "uint256"
            },
            {
              "internalType": "uint256",
              "name": "quote",
              "type": "uint256"
            },
            {
              "internalType": "uint256",
              "name": "fee",
              "type": "uint256"
            },
            {
              "internalType": "int256",
              "name": "deltaTakerBase",
              "type": "int256"
            },
            {
              "internalType": "int256",
              "name": "deltaTakerQuote",
              "type": "int256"
            }
          ],
          "internalType": "struct IOrderBook.RemoveLiquidityResponse",
          "name": "",
          "type": "tuple"
        }
      ],
      "stateMutability": "nonpayable",
      "type": "function"
    },
    {
      "inputs": [
        {
          "internalType": "address",
          "name": "maker",
          "type": "address"
        },
        {
          "internalType": "address",
          "name": "baseToken",
          "type": "address"
        },
        {
          "internalType": "bytes32[]",
          "name": "orderIds",
          "type": "bytes32[]"
        }
      ],
      "name": "removeLiquidityByIds",
      "outputs": [
        {
          "components": [
            {
              "internalType": "uint256",
              "name": "base",
              "type": "uint256"
            },
            {
              "internalType": "uint256",
              "name": "quote",
              "type": "uint256"
            },
            {
              "internalType": "uint256",
              "name": "fee",
              "type": "uint256"
            },
            {
              "internalType": "int256",
              "name": "deltaTakerBase",
              "type": "int256"
            },
            {
              "internalType": "int256",
              "name": "deltaTakerQuote",
              "type": "int256"
            }
          ],
          "internalType": "struct IOrderBook.RemoveLiquidityResponse",
          "name": "",
          "type": "tuple"
        }
      ],
      "stateMutability": "nonpayable",
      "type": "function"
    },
    {
      "inputs": [],
      "name": "renounceOwnership",
      "outputs": [],
      "stateMutability": "nonpayable",
      "type": "function"
    },
    {
      "inputs": [
        {
          "components": [
            {
              "internalType": "address",
              "name": "baseToken",
              "type": "address"
            },
            {
              "internalType": "bool",
              "name": "isBaseToQuote",
              "type": "bool"
            },
            {
              "internalType": "bool",
              "name": "shouldUpdateState",
              "type": "bool"
            },
            {
              "internalType": "int256",
              "name": "amount",
              "type": "int256"
            },
            {
              "internalType": "uint160",
              "name": "sqrtPriceLimitX96",
              "type": "uint160"
            },
            {
              "internalType": "uint24",
              "name": "exchangeFeeRatio",
              "type": "uint24"
            },
            {
              "internalType": "uint24",
              "name": "uniswapFeeRatio",
              "type": "uint24"
            },
            {
              "components": [
                {
                  "internalType": "int256",
                  "name": "twPremiumX96",
                  "type": "int256"
                },
                {
                  "internalType": "int256",
                  "name": "twPremiumDivBySqrtPriceX96",
                  "type": "int256"
                }
              ],
              "internalType": "struct Funding.Growth",
              "name": "globalFundingGrowth",
              "type": "tuple"
            }
          ],
          "internalType": "struct IOrderBook.ReplaySwapParams",
          "name": "params",
          "type": "tuple"
        }
      ],
      "name": "replaySwap",
      "outputs": [
        {
          "components": [
            {
              "internalType": "int24",
              "name": "tick",
              "type": "int24"
            },
            {
              "internalType": "uint256",
              "name": "fee",
              "type": "uint256"
            },
            {
              "internalType": "uint256",
              "name": "insuranceFundFee",
              "type": "uint256"
            }
          ],
          "internalType": "struct IOrderBook.ReplaySwapResponse",
          "name": "",
          "type": "tuple"
        }
      ],
      "stateMutability": "nonpayable",
      "type": "function"
    },
    {
      "inputs": [
        {
          "internalType": "address",
          "name": "clearingHouseArg",
          "type": "address"
        }
      ],
      "name": "setClearingHouse",
      "outputs": [],
      "stateMutability": "nonpayable",
      "type": "function"
    },
    {
      "inputs": [
        {
          "internalType": "address",
          "name": "exchangeArg",
          "type": "address"
        }
      ],
      "name": "setExchange",
      "outputs": [],
      "stateMutability": "nonpayable",
      "type": "function"
    },
    {
      "inputs": [
        {
          "internalType": "address",
          "name": "newOwner",
          "type": "address"
        }
      ],
      "name": "setOwner",
      "outputs": [],
      "stateMutability": "nonpayable",
      "type": "function"
    },
    {
      "inputs": [
        {
          "internalType": "uint256",
          "name": "amount0Owed",
          "type": "uint256"
        },
        {
          "internalType": "uint256",
          "name": "amount1Owed",
          "type": "uint256"
        },
        {
          "internalType": "bytes",
          "name": "data",
          "type": "bytes"
        }
      ],
      "name": "uniswapV3MintCallback",
      "outputs": [],
      "stateMutability": "nonpayable",
      "type": "function"
    },
    {
      "inputs": [
        {
          "internalType": "address",
          "name": "trader",
          "type": "address"
        },
        {
          "internalType": "address",
          "name": "baseToken",
          "type": "address"
        },
        {
          "components": [
            {
              "internalType": "int256",
              "name": "twPremiumX96",
              "type": "int256"
            },
            {
              "internalType": "int256",
              "name": "twPremiumDivBySqrtPriceX96",
              "type": "int256"
            }
          ],
          "internalType": "struct Funding.Growth",
          "name": "fundingGrowthGlobal",
          "type": "tuple"
        }
      ],
      "name": "updateFundingGrowthAndLiquidityCoefficientInFundingPayment",
      "outputs": [
        {
          "internalType": "int256",
          "name": "liquidityCoefficientInFundingPayment",
          "type": "int256"
        }
      ],
      "stateMutability": "nonpayable",
      "type": "function"
    },
    {
      "inputs": [
        {
          "internalType": "bytes32",
          "name": "orderId",
          "type": "bytes32"
        },
        {
          "internalType": "int256",
          "name": "deltaBaseDebt",
          "type": "int256"
        },
        {
          "internalType": "int256",
          "name": "deltaQuoteDebt",
          "type": "int256"
        }
      ],
      "name": "updateOrderDebt",
      "outputs": [],
      "stateMutability": "nonpayable",
      "type": "function"
    },
    {
      "inputs": [],
      "name": "updateOwner",
      "outputs": [],
      "stateMutability": "nonpayable",
      "type": "function"
    }
  ],
  "bytecode": "0x608060405234801561001057600080fd5b50615fce80620000216000396000f3fe608060405234801561001057600080fd5b50600436106101545760003560e01c806313af403514610159578063398dbcfd1461016e578063436933ea14610197578063449323d8146101b757806347b52fb7146101ca5780634dffaee5146101ea57806359bfbc5a1461020a5780635b778b9d1461021d5780635d8a541d1461023057806367b1f5df146102515780636c8381f814610264578063715018a6146102795780637c2b7c53146102815780637fc26736146102945780638da5cb5b146102a7578063a3bf0df8146102af578063acf71827146102cf578063b0c04174146102ef578063bc5920ba14610302578063c4d66de81461030a578063c575ff791461031d578063c66b8ed214610325578063d0581a931461032d578063d348799714610340578063e8ab2fb314610353578063eaad235414610373578063f807cd2214610386578063ffa613271461038e575b600080fd5b61016c610167366004615401565b6103a1565b005b61018161017c366004615471565b6104fc565b60405161018e9190615d7b565b60405180910390f35b6101aa6101a5366004615439565b61075f565b60405161018e9190615b4d565b61016c6101c5366004615401565b6107d9565b6101dd6101d8366004615578565b610880565b60405161018e9190615bde565b6101fd6101f83660046155bf565b610aa1565b60405161018e9190615b91565b6101dd610218366004615401565b610b24565b61018161022b36600461573c565b610b43565b61024361023e3660046154d3565b610ce3565b60405161018e929190615be7565b61016c61025f366004615401565b610cfd565b61026c610da4565b60405161018e9190615a76565b61016c610db3565b6101dd61028f3660046154d3565b610e54565b6101dd6102a2366004615578565b610fc6565b61026c611221565b6102c26102bd36600461574d565b611230565b60405161018e9190615db5565b6102e26102dd366004615611565b61183b565b60405161018e9190615ce1565b61016c6102fd366004615629565b6118d6565b61016c611936565b61016c610318366004615401565b611a22565b61026c611ad6565b61026c611ae5565b61024361033b3660046155bf565b611af4565b61016c61034e3660046159db565b611b6b565b61036661036136600461568c565b611d0b565b60405161018e9190615cad565b6102e261038136600461551d565b6120d8565b61026c61218b565b6101dd61039c36600461551d565b61219a565b6103a9612248565b6001600160a01b03166103ba611221565b6001600160a01b0316146103fe576040805162461bcd60e51b8152602060048201526006602482015265534f5f434e4f60d01b604482015290519081900360640190fd5b6001600160a01b038116610442576040805162461bcd60e51b81526020600482015260066024820152650534f5f4e57360d41b604482015290519081900360640190fd5b6033546001600160a01b038281169116141561048e576040805162461bcd60e51b8152602060048201526006602482015265534f5f53414f60d01b604482015290519081900360640190fd5b6034546001600160a01b03828116911614156104da576040805162461bcd60e51b8152602060048201526006602482015265534f5f53414360d01b604482015290519081900360640190fd5b603480546001600160a01b0319166001600160a01b0392909216919091179055565b61050461517c565b61050c61224c565b609a5460405163bbe4f6db60e01b81526000916001600160a01b03169063bbe4f6db9061053d908890600401615a76565b60206040518083038186803b15801561055557600080fd5b505afa158015610569573d6000803e3d6000fd5b505050506040513d601f19601f8201168201806040525081019061058d919061541d565b905061059761517c565b60005b8481101561075257600060cf60008888858181106105b457fe5b60209081029290920135835250818101929092526040908101600090812082516101208101845281546001600160801b0381168252600160801b8104600290810b810b810b968301879052600160981b909104810b810b810b948201859052600183015460608301528201546080820152600382015460a0820152600482015460c0820152600582015460e082015260069091015461010082015293509161065f918c918c91612288565b905060006106d46040518060e001604052808d6001600160a01b031681526020018c6001600160a01b03168152602001886001600160a01b03168152602001848152602001856020015160020b8152602001856040015160020b815260200185600001516001600160801b03168152506122e4565b805186519192506106e5919061246c565b8552602080820151908601516106fa9161246c565b6020860152604080820151908601516107129161246c565b60408601526060808201519086015161072a916124c4565b606086015260808082015190860151610742916124c4565b608086015250505060010161059a565b509150505b949350505050565b6001600160a01b03808316600090815260ce602090815260408083209385168352928152908290208054835181840281018401909452808452606093928301828280156107cb57602002820191906000526020600020905b8154815260200190600101908083116107b7575b505050505090505b92915050565b6107e1612248565b6001600160a01b03166107f2611221565b6001600160a01b031614610836576040805162461bcd60e51b8152602060048201526006602482015265534f5f434e4f60d01b604482015290519081900360640190fd5b606780546001600160a01b0319166001600160a01b0383169081179091556040517fd0654f5900f9e7e4e605a19334306e6a2786bbf960ac0484a4c12feb6428fe2f90600090a250565b6001600160a01b03808416600090815260ce60209081526040808320938616835292815282822080548451818402810184019095528085529293849390928301828280156108ed57602002820191906000526020600020905b8154815260200190600101908083116108d9575b5050506001600160a01b03808816600090815260d06020526040808220609a54915163bbe4f6db60e01b815296975095919450909116915063bbe4f6db90610939908990600401615a76565b60206040518083038186803b15801561095157600080fd5b505afa158015610965573d6000803e3d6000fd5b505050506040513d601f19601f82011682018060405250810190610989919061541d565b9050600061099682612529565b505050505091505060005b8451811015610a9457600060cf60008784815181106109bc57fe5b6020908102919091018101518252818101929092526040908101600090812082516101208101845281546001600160801b0381168252600160801b8104600290810b810b810b838801819052600160981b909204810b810b810b958301869052600184015460608401528301546080830152600383015460a0830152600483015460c0830152600583015460e08301526006909201546101008201528c51948d01519095509193610a72938a93909189916125bc565b9050610a88610a8183836126a0565b89906124c4565b975050506001016109a1565b50505050505b9392505050565b6000805b82811015610b19576001600160a01b038516600090815260ce6020526040812081868685818110610ad257fe5b9050602002016020810190610ae79190615401565b6001600160a01b031681526020810191909152604001600020541115610b11576001915050610a9a565b600101610aa5565b506000949350505050565b6001600160a01b038116600090815260d160205260409020545b919050565b610b4b61517c565b610b5361224c565b609a546000906001600160a01b031663bbe4f6db610b776040860160208701615401565b6040518263ffffffff1660e01b8152600401610b939190615a76565b60206040518083038186803b158015610bab57600080fd5b505afa158015610bbf573d6000803e3d6000fd5b505050506040513d601f19601f82011682018060405250810190610be3919061541d565b90506000610c2c610bf76020860186615401565b610c076040870160208801615401565b610c176060880160408901615654565b610c276080890160608a01615654565b612288565b6040805160e081019091529091506107579080610c4c6020880188615401565b6001600160a01b03168152602001866020016020810190610c6d9190615401565b6001600160a01b03168152602001846001600160a01b03168152602001838152602001866040016020810190610ca39190615654565b60020b8152602001610cbb6080880160608901615654565b60020b8152602001610cd360a0880160808901615802565b6001600160801b031690526122e4565b600080610cf1858585612786565b90969095509350505050565b610d05612248565b6001600160a01b0316610d16611221565b6001600160a01b031614610d5a576040805162461bcd60e51b8152602060048201526006602482015265534f5f434e4f60d01b604482015290519081900360640190fd5b60cd80546001600160a01b0319166001600160a01b0383169081179091556040517f39870277935708b88965de17b0c29d3c1ad93a200dce569fc56702229432973e90600090a250565b6034546001600160a01b031690565b610dbb612248565b6001600160a01b0316610dcc611221565b6001600160a01b031614610e10576040805162461bcd60e51b8152602060048201526006602482015265534f5f434e4f60d01b604482015290519081900360640190fd5b6033546040516000916001600160a01b031690600080516020615f06833981519152908390a3603380546001600160a01b0319908116909155603480549091169055565b6001600160a01b03808416600090815260ce6020908152604080832093861683529281528282208054845181840281018401909552808552929384938493919291830182828015610ec457602002820191906000526020600020905b815481526020019060010190808311610eb0575b505083519394506000925050505b81811015610fba57600060cf6000858481518110610eec57fe5b6020908102919091018101518252818101929092526040908101600090812082516101208101845281546001600160801b0381168252600160801b8104600290810b810b810b96830196909652600160981b9004850b850b850b9381019390935260018101546060840152928301546080830152600383015460a0830152600483015460c0830152600583015460e0830152600690920154610100820152915087610f9c57816101000151610fa2565b8160e001515b9050610fae868261246c565b95505050600101610ed2565b50919695505050505050565b6001600160a01b03808416600090815260ce602090815260408083209386168352928152828220805484518184028101840190955280855292938493909283018282801561103357602002820191906000526020600020905b81548152602001906001019080831161101f575b5050506001600160a01b03808816600090815260d06020526040808220609a54915163bbe4f6db60e01b815296975095919450909116915063bbe4f6db9061107f908990600401615a76565b60206040518083038186803b15801561109757600080fd5b505afa1580156110ab573d6000803e3d6000fd5b505050506040513d601f19601f820116820180604052508101906110cf919061541d565b835190915060006110df83612529565b505050505091505060005b8281101561121457600060cf600088848151811061110457fe5b602090810291909101810151825281810192909252604001600090812080548c51938d01519194509192611153928a92600160801b8204600290810b93600160981b909304900b9189916125bc565b604080516101208101825284546001600160801b0381168252600160801b8104600290810b810b810b6020840152600160981b909104810b810b810b9282019290925260018501546060820152908401546080820152600384015460a0820152600484015460c0820152600584015460e082015260068401546101008201529091506111ea906111e390836126a0565b8a906124c4565b815160028401556020820151600384015560409091015160049092019190915596506001016110ea565b5050505050509392505050565b6033546001600160a01b031690565b6112386151ab565b60cd546001600160a01b031661124c612248565b6001600160a01b03161461127b5760405162461bcd60e51b815260040161127290615c16565b60405180910390fd5b609a54825160405163bbe4f6db60e01b81526000926001600160a01b03169163bbe4f6db916112ad9190600401615a76565b60206040518083038186803b1580156112c557600080fd5b505afa1580156112d9573d6000803e3d6000fd5b505050506040513d601f19601f820116820180604052508101906112fd919061541d565b6060840151609a54855160405163033e16f360e21b81529394506000928312936001600160a01b0390921691630cf85bcc9161133b91600401615a76565b60806040518083038186803b15801561135357600080fd5b505afa158015611367573d6000803e3d6000fd5b505050506040513d601f19601f8201168201806040525081019061138b91906156bf565b60600151905060008060006113ce86896060015160d160008c600001516001600160a01b03166001600160a01b0316815260200190815260200160002054612a62565b905087608001516001600160a01b03166000146113ef578760800151611419565b87602001516114125773fffd8963efd1fc6a506488495d951d5263988d25611419565b6401000276a45b6001600160a01b03166080890152600061143287612b38565b90505b604082015115801590611462575088608001516001600160a01b031682602001516001600160a01b031614155b156117ea5761146f6151cf565b6020808401516001600160a01b031682528351908b0151611493918a918590612bab565b15156040830152600290810b810b60208301819052620d89e719910b12156114c457620d89e71960208201526114e3565b6020810151620d89e860029190910b13156114e357620d89e860208201525b6114f08160200151612ccd565b6001600160a01b03166060820152602080840151908b015161158d9190611533578b608001516001600160a01b031683606001516001600160a01b031611611551565b8b608001516001600160a01b031683606001516001600160a01b0316105b61155f578260600151611565565b8b608001515b856080015186604001518e60200151611582578e60a00151611588565b8e60c001515b612ff4565b60c085015260a084015260808301526001600160a01b0316602084015286156115eb576115e16115d66115d18360c00151846080015161246c90919063ffffffff16565b6131e6565b604085015190613232565b604084015261160c565b6116066115fb8260a001516131e6565b6040850151906124c4565b60408401525b60808301516001600160801b0316156116ae5789602001511561164a576116448160a001518b60a0015162ffffff16620f4240613297565b60c08201525b60c0810151948501946000906116699062ffffff8916620f4240613297565b60c08301519581019590915060009061168290836132d1565b90506116a081600160801b87608001516001600160801b031661332e565b606086018051909101905250505b80606001516001600160a01b031683602001516001600160a01b031614156117ac57806040015115611782578960400151156117395789516001600160a01b0316600090815260d0602090815260409182902083820151835160608082018652880151815260e08f018051518286015251909301519383019390935291611737918391906133dd565b505b600061174989836020015161341c565b90508a60200151156117645761176181600f0b6134ab565b90505b6117728460800151826134de565b6001600160801b03166080850152505b896020015161179557806020015161179e565b60018160200151035b600290810b900b83526117e4565b80600001516001600160a01b031683602001516001600160a01b0316146117e4576117da8360200151613594565b600290810b900b83525b50611435565b88604001511561181457606082015189516001600160a01b0316600090815260d160205260409020555b5060408051606081018252915160020b825260208201939093529182015295945050505050565b61184361520b565b50600090815260cf602090815260409182902082516101208101845281546001600160801b0381168252600160801b8104600290810b810b810b94830194909452600160981b9004830b830b830b9381019390935260018101546060840152908101546080830152600381015460a0830152600481015460c0830152600581015460e08301526006015461010082015290565b6118de61224c565b600083815260cf60205260409020600581015461190f9061190a908590611904906131e6565b906124c4565b61387f565b816005018190555061192b61190a8361190484600601546131e6565b600690910155505050565b6034546001600160a01b031661197b576040805162461bcd60e51b81526020600482015260056024820152640534f5f43360dc1b604482015290519081900360640190fd5b611983612248565b6034546001600160a01b039081169116146119ce576040805162461bcd60e51b8152602060048201526006602482015265534f5f434e4360d01b604482015290519081900360640190fd5b6034546033546040516001600160a01b039283169290911690600080516020615f0683398151915290600090a360348054603380546001600160a01b03199081166001600160a01b03841617909155169055565b600054610100900460ff1680611a3b5750611a3b6138d6565b80611a49575060005460ff16155b611a845760405162461bcd60e51b815260040180806020018281038252602e815260200180615eb7602e913960400191505060405180910390fd5b600054610100900460ff16158015611aaf576000805460ff1961ff0019909116610100171660011790555b611ab76138e7565b611ac082613991565b8015611ad2576000805461ff00191690555b5050565b6067546001600160a01b031690565b609a546001600160a01b031690565b60008060005b83811015611b62576000858583818110611b1057fe5b9050602002016020810190611b259190615401565b9050600080611b3689846000613a56565b9092509050611b4586836124c4565b9550611b51858261246c565b94505060019092019150611afa9050565b50935093915050565b6000611b75612248565b90506000816001600160a01b0316630dfe16816040518163ffffffff1660e01b815260040160206040518083038186803b158015611bb257600080fd5b505afa158015611bc6573d6000803e3d6000fd5b505050506040513d601f19601f82011682018060405250810190611bea919061541d565b609a5460405163bbe4f6db60e01b81529192506001600160a01b03169063bbe4f6db90611c1b908490600401615a76565b60206040518083038186803b158015611c3357600080fd5b505afa158015611c47573d6000803e3d6000fd5b505050506040513d601f19601f82011682018060405250810190611c6b919061541d565b6001600160a01b0316826001600160a01b031614611c9b5760405162461bcd60e51b815260040161127290615c36565b60675460405163d348799760e01b81526001600160a01b039091169063d348799790611cd1908990899089908990600401615dd9565b600060405180830381600087803b158015611ceb57600080fd5b505af1158015611cff573d6000803e3d6000fd5b50505050505050505050565b611d13615266565b611d1b61224c565b609a546000906001600160a01b031663bbe4f6db611d3f6040860160208701615401565b6040518263ffffffff1660e01b8152600401611d5b9190615a76565b60206040518083038186803b158015611d7357600080fd5b505afa158015611d87573d6000803e3d6000fd5b505050506040513d601f19601f82011682018060405250810190611dab919061541d565b9050600060d181611dc26040870160208801615401565b6001600160a01b03166001600160a01b03168152602001908152602001600020549050600060d06000866020016020810190611dfe9190615401565b6001600160a01b03166001600160a01b031681526020019081526020016000209050611e28615297565b6000611e4385611e3e60a08a0160808b01615654565b613a9d565b90506000611e5b86611e3e60c08b0160a08c01615654565b9050611f216040518060c00160405280886001600160a01b031681526020018a6080016020810190611e8d9190615654565b60020b8152602001611ea560c08c0160a08d01615654565b60020b81526020018a6040013581526020018a60600135815260200160405180604001604052808c6000016020810190611edf9190615401565b6001600160a01b031681526020018a6001600160a01b0316815250604051602001611f0a9190615d58565b604051602081830303815290604052815250613b2b565b92506000611f2e87612529565b505050505091505082158015611f535750611f5387611e3e60a08c0160808d01615654565b15611f9857611f98611f6b60a08b0160808c01615654565b6040805160608101825289815260c08d0135602082015260e08d0135918101919091528791908490613c45565b81158015611fb55750611fb587611e3e60c08c0160a08d01615654565b15611fcd57611fcd611f6b60c08b0160a08c01615654565b50506040805161014081019091526000915061209c9080611ff160208b018b615401565b6001600160a01b031681526020018960200160208101906120129190615401565b6001600160a01b0390811682528816602082015260400161203960a08b0160808c01615654565b60020b815260200161205160c08b0160a08c01615654565b60020b815260208082018890526040868101516001600160801b03169083015285516060830152850151608082015260a001612095368b90038b0160c08c016156a4565b9052613c84565b6040805160808101825284518152602080860151908201528082019290925292909201516001600160801b031660608301525095945050505050565b6120e061520b565b60cf60006120f087878787612288565b8152602080820192909252604090810160002081516101208101835281546001600160801b0381168252600160801b8104600290810b810b810b95830195909552600160981b9004840b840b840b9281019290925260018101546060830152918201546080820152600382015460a0820152600482015460c0820152600582015460e082015260069091015461010082015295945050505050565b60cd546001600160a01b031690565b6000806107528560cf60006121b18a8a8a8a612288565b8152602080820192909252604090810160002081516101208101835281546001600160801b0381168252600160801b8104600290810b810b810b95830195909552600160981b9004840b840b840b9281019290925260018101546060830152918201546080820152600382015460a0820152600482015460c0820152600582015460e0820152600690910154610100820152613f8a565b3390565b6067546001600160a01b0316612260612248565b6001600160a01b0316146122865760405162461bcd60e51b815260040161127290615bf5565b565b604080516001600160601b0319606096871b81166020808401919091529590961b9095166034860152600292830b60e890811b60488701529190920b901b604b8401528051602e818503018152604e9093019052815191012090565b6122ec61517c565b60006123636040518060a0016040528085604001516001600160a01b0316815260200160cd60009054906101000a90046001600160a01b03166001600160a01b03168152602001856080015160020b81526020018560a0015160020b81526020018560c001516001600160801b031681525061403a565b9050600080600061237386614190565b9250925092506000612398612387846131e6565b8651612392906131e6565b90613232565b905060006123b56123a8846131e6565b61239288602001516131e6565b90506123c988604001518960800151613a9d565b6123f85760808801516020808a01516001600160a01b0316600090815260d0909152604090206123f891614359565b61240a88604001518960a00151613a9d565b6124395760a08801516020808a01516001600160a01b0316600090815260d09091526040902061243991614359565b6040805160a081018252875181526020978801519781019790975286019490945260608501525050608082015292915050565b600082820183811015610a9a576040805162461bcd60e51b815260206004820152601b60248201527a536166654d6174683a206164646974696f6e206f766572666c6f7760281b604482015290519081900360640190fd5b60008282018183128015906124d95750838112155b806124ee57506000831280156124ee57508381125b610a9a5760405162461bcd60e51b8152600401808060200182810382526021815260200180615e966021913960400191505060405180910390fd5b6000806000806000806000876001600160a01b0316633850c7bd6040518163ffffffff1660e01b815260040160e06040518083038186803b15801561256d57600080fd5b505afa158015612581573d6000803e3d6000fd5b505050506040513d601f19601f820116820180604052508101906125a59190615912565b959e949d50929b5090995097509550909350915050565b6125c46152c1565b600286810b810b60009081526020899052604080822088840b90930b82529020600180830154908201546125f66152c1565b8a60020b8960020b121561260c5782880361260e565b825b6020820152600060028b810b908b900b1261262b5782890361262d565b825b905060008660020154905060008660020154905060008e60020b8d60020b121561265957828b0361265b565b825b905060008e60020b8e60020b1261267457828c03612676565b825b6020870151909d03949094038552909903999099036040830152509b9a5050505050505050505050565b6000806126b08460400151612ccd565b905060006126cd6126c48660200151612ccd565b8651849061437d565b905060006126fe6126ef8760a00151876020015161323290919063ffffffff16565b6126f8846131e6565b906143e6565b9050600061276161274d61273a6127268a608001518a6000015161323290919063ffffffff16565b600160601b886001600160a01b031661448f565b60c08a015160408a015161239291613232565b88516126f8906001600160801b03166131e6565b905061277b600160601b61277584846124c4565b90614533565b979650505050505050565b6001600160a01b03808416600090815260ce60209081526040808320938616835292815282822080548451818402810184019095528085529293849384939192918301828280156127f657602002820191906000526020600020905b8154815260200190600101908083116127e2575b5050609a5460405163bbe4f6db60e01b815294955060009461288a94506001600160a01b03909116925063bbe4f6db9150612835908a90600401615a76565b60206040518083038186803b15801561284d57600080fd5b505afa158015612861573d6000803e3d6000fd5b505050506040513d601f19601f82011682018060405250810190612885919061541d565b612529565b50508651949550600093505050505b81811015612a5657600060cf60008684815181106128b357fe5b6020908102919091018101518252818101929092526040908101600090812082516101208101845281546001600160801b0381168252600160801b8104600290810b810b810b968301879052600160981b909104810b810b810b9482019490945260018201546060820152928101546080840152600381015460a0840152600481015460c0840152600581015460e08401526006015461010083015290925090819061295e90612ccd565b9050600061296f8460400151612ccd565b90508a801561298f5750806001600160a01b0316876001600160a01b0316105b156129c8576129c1826001600160a01b0316886001600160a01b0316116129b657826129b8565b875b8551839061437d565b9250612a1b565b8a1580156129e75750816001600160a01b0316876001600160a01b0316115b15612a1b57612a1882826001600160a01b0316896001600160a01b031610612a0f5782612a11565b885b86516145eb565b92505b50612a289050888261246c565b975088612a4c576000612a3b8b84613f8a565b509050612a48888261246c565b9750505b5050600101612899565b50505050935093915050565b612a6a6152e2565b600080612a7686612529565b5050505050915091506000866001600160a01b0316631a6865026040518163ffffffff1660e01b815260040160206040518083038186803b158015612aba57600080fd5b505afa158015612ace573d6000803e3d6000fd5b505050506040513d601f19601f82011682018060405250810190612af2919061581e565b6040805160a08101825260029490940b84526001600160a01b0390941660208401529282019590955260608101939093526001600160801b031660808301525092915050565b6000816001600160a01b031663d0c93a7c6040518163ffffffff1660e01b815260040160206040518083038186803b158015612b7357600080fd5b505afa158015612b87573d6000803e3d6000fd5b505050506040513d601f19601f820116820180604052508101906107d39190615670565b60008060008460020b8660020b81612bbf57fe5b05905060008660020b128015612be657508460020b8660020b81612bdf57fe5b0760020b15155b15612bf057600019015b8315612c5957600080612c028361462e565b9092509050600160ff82161b800160001901600081612c218c86614640565b168015159650905085612c3b57888360ff16860302612c4e565b88612c45826146bf565b840360ff168603025b965050505050612cc3565b600080612c688360010161462e565b9092509050600019600160ff83161b0119600081612c868c86614640565b168015159650905085612ca657888360ff0360ff16866001010102612cbc565b8883612cb183614759565b0360ff168660010101025b9650505050505b5094509492505050565b60008060008360020b12612ce4578260020b612cec565b8260020b6000035b9050620d89e8811115612d2a576040805162461bcd60e51b81526020600482015260016024820152601560fa1b604482015290519081900360640190fd5b600060018216612d3e57600160801b612d50565b6ffffcb933bd6fad37aa2d162d1a5940015b6001600160881b031690506002821615612d7a576ffff97272373d413259a46990580e213a0260801c5b6004821615612d99576ffff2e50f5f656932ef12357cf3c7fdcc0260801c5b6008821615612db8576fffe5caca7e10e4e61c3624eaa0941cd00260801c5b6010821615612dd7576fffcb9843d60f6159c9db58835c9266440260801c5b6020821615612df6576fff973b41fa98c081472e6896dfb254c00260801c5b6040821615612e15576fff2ea16466c96a3843ec78b326b528610260801c5b6080821615612e34576ffe5dee046a99a2a811c461f1969c30530260801c5b610100821615612e54576ffcbe86c7900a88aedcffc83b479aa3a40260801c5b610200821615612e74576ff987a7253ac413176f2b074cf7815e540260801c5b610400821615612e94576ff3392b0822b70005940c7a398e4b70f30260801c5b610800821615612eb4576fe7159475a2c29b7443b29c7fa6e889d90260801c5b611000821615612ed4576fd097f3bdfd2022b8845ad8f792aa58250260801c5b612000821615612ef4576fa9f746462d870fdf8a65dc1f90e061e50260801c5b614000821615612f14576f70d869a156d2a1b890bb3df62baf32f70260801c5b618000821615612f34576f31be135f97d08fd981231505542fcfa60260801c5b62010000821615612f55576f09aa508b5b7a84e1c677de54f3e99bc90260801c5b62020000821615612f75576e5d6af8dedb81196699c329225ee6040260801c5b62040000821615612f94576d2216e584f5fa1ea926041bedfe980260801c5b62080000821615612fb1576b048a170391f7dc42444e8fa20260801c5b60008460020b1315612fcc578060001981612fc857fe5b0490505b600160201b810615612fdf576001612fe2565b60005b60ff16602082901c0192505050919050565b60008080806001600160a01b03808916908a16101581871280159061307957600061302d8989620f42400362ffffff16620f424061332e565b905082613046576130418c8c8c6001614842565b613053565b6130538b8d8c60016148bb565b9550858110613064578a9650613073565b6130708c8b838661495b565b96505b506130c3565b816130905761308b8b8b8b60006148bb565b61309d565b61309d8a8c8b6000614842565b93508388600003106130b1578995506130c3565b6130c08b8a8a600003856149a7565b95505b6001600160a01b038a8116908716148215613126578080156130e25750815b6130f8576130f3878d8c60016148bb565b6130fa565b855b9550808015613107575081155b61311d57613118878d8c6000614842565b61311f565b845b9450613170565b8080156131305750815b613146576131418c888c6001614842565b613148565b855b9550808015613155575081155b61316b576131668c888c60006148bb565b61316d565b845b94505b8115801561318057508860000385115b1561318c578860000394505b8180156131ab57508a6001600160a01b0316876001600160a01b031614155b156131ba5785890393506131d7565b6131d4868962ffffff168a620f42400362ffffff16613297565b93505b50505095509550955095915050565b60006001600160ff1b0382111561322e5760405162461bcd60e51b8152600401808060200182810382526028815260200180615f4d6028913960400191505060405180910390fd5b5090565b60008183038183128015906132475750838113155b8061325c575060008312801561325c57508381135b610a9a5760405162461bcd60e51b8152600401808060200182810382526024815260200180615f756024913960400191505060405180910390fd5b60006132a484848461332e565b9050600082806132b057fe5b8486091115610a9a5760001981106132c757600080fd5b6001019392505050565b600082821115613328576040805162461bcd60e51b815260206004820152601e60248201527f536166654d6174683a207375627472616374696f6e206f766572666c6f770000604482015290519081900360640190fd5b50900390565b6000808060001985870986860292508281109083900303905080613364576000841161335957600080fd5b508290049050610a9a565b80841161337057600080fd5b6000848688096000868103871696879004966002600389028118808a02820302808a02820302808a02820302808a02820302808a02820302808a02909103029181900381900460010186841190950394909402919094039290920491909117919091029150509392505050565b600291820b820b600090815260209384526040908190208054835103815560018101805495840151959095039094559290910180549190920151039055565b60405163f30dba9360e01b81526000906001600160a01b0384169063f30dba939061344b908590600401615baa565b6101006040518083038186803b15801561346457600080fd5b505afa158015613478573d6000803e3d6000fd5b505050506040513d601f19601f8201168201806040525081019061349c919061583a565b50949998505050505050505050565b600060016001607f1b031982600f0b136134d75760405162461bcd60e51b815260040161127290615c57565b5060000390565b60008082600f0b121561354357826001600160801b03168260000384039150816001600160801b03161061353e576040805162461bcd60e51b81526020600482015260026024820152614c5360f01b604482015290519081900360640190fd5b6107d3565b826001600160801b03168284019150816001600160801b031610156107d3576040805162461bcd60e51b81526020600482015260026024820152614c4160f01b604482015290519081900360640190fd5b60006401000276a36001600160a01b038316108015906135d0575073fffd8963efd1fc6a506488495d951d5263988d266001600160a01b038316105b613605576040805162461bcd60e51b81526020600482015260016024820152602960f91b604482015290519081900360640190fd5b600160201b600160c01b03602083901b166001600160801b03811160071b81811c6001600160401b03811160061b90811c63ffffffff811160051b90811c61ffff811160041b90811c60ff8111600390811b91821c600f811160021b90811c918211600190811b92831c9790881196179094179092171790911717176080811061369757607f810383901c91506136a1565b80607f0383901b91505b908002607f81811c60ff83811c9190911c800280831c81831c1c800280841c81841c1c800280851c81851c1c800280861c81861c1c800280871c81871c1c800280881c81881c1c800280891c81891c1c8002808a1c818a1c1c8002808b1c818b1c1c8002808c1c818c1c1c8002808d1c818d1c1c8002808e1c9c81901c9c909c1c80029c8d901c9e9d607f198f0160401b60c09190911c6001603f1b161760c19b909b1c6001603e1b169a909a1760c29990991c6001603d1b169890981760c39790971c6001603c1b169690961760c49590951c6001603b1b169490941760c59390931c6001603a1b169290921760c69190911c600160391b161760c79190911c600160381b161760c89190911c600160371b161760c99190911c600160361b161760ca9190911c600160351b161760cb9190911c600160341b161760cc9190911c600160331b161760cd9190911c600160321b1617693627a301d71055774c8581026f028f6481ab7f045a5af012a19d003aa9198101608090811d906fdb2df09e81959a81455e260799a0632f8301901d600281810b9083900b1461387057886001600160a01b031661385482612ccd565b6001600160a01b03161115613869578161386b565b805b613872565b815b9998505050505050505050565b60008082121561322e576040805162461bcd60e51b815260206004820181905260248201527f53616665436173743a2076616c7565206d75737420626520706f736974697665604482015290519081900360640190fd5b60006138e1306149f3565b15905090565b600054610100900460ff168061390057506139006138d6565b8061390e575060005460ff16155b6139495760405162461bcd60e51b815260040180806020018281038252602e815260200180615eb7602e913960400191505060405180910390fd5b600054610100900460ff16158015613974576000805460ff1961ff0019909116610100171660011790555b61397c6149f9565b801561398e576000805461ff00191690555b50565b600054610100900460ff16806139aa57506139aa6138d6565b806139b8575060005460ff16155b6139f35760405162461bcd60e51b815260040180806020018281038252602e815260200180615eb7602e913960400191505060405180910390fd5b600054610100900460ff16158015613a1e576000805460ff1961ff0019909116610100171660011790555b613a26614ae8565b609a80546001600160a01b0319166001600160a01b0384161790558015611ad2576000805461ff00191690555050565b600080600080613a67878787612786565b915091506000613a78888888610e54565b9050613a8f613a86826131e6565b612392856131e6565b989197509095505050505050565b60405163f30dba9360e01b81526000906001600160a01b0384169063f30dba9390613acc908590600401615baa565b6101006040518083038186803b158015613ae557600080fd5b505afa158015613af9573d6000803e3d6000fd5b505050506040513d601f19601f82011682018060405250810190613b1d919061583a565b9a9950505050505050505050565b613b33615297565b6000613b428360000151612529565b50505050505090506000613b7982613b5d8660200151612ccd565b613b6a8760400151612ccd565b87606001518860800151614b7d565b8451602086015160408088015160a08901519151633c8a7d8d60e01b815294955060009485946001600160a01b031693633c8a7d8d93613bc193309390918a91600401615a8a565b6040805180830381600087803b158015613bda57600080fd5b505af1158015613bee573d6000803e3d6000fd5b505050506040513d601f19601f82011682018060405250810190613c1291906159b8565b915091506040518060600160405280838152602001828152602001846001600160801b0316815250945050505050919050565b8160020b8360020b13613c7e57600283810b810b6000908152602086815260409182902084518155908401516001820155908301519101555b50505050565b600080613ca38360000151846020015185606001518660800151612288565b600081815260cf602052604090208054919250906001600160801b0316613e6a5783516001600160a01b03908116600090815260ce602090815260408083208289015185168452825291829020609a548351633b38243160e21b815293519194169263ece090c4926004808301939192829003018186803b158015613d2757600080fd5b505afa158015613d3b573d6000803e3d6000fd5b505050506040513d601f19601f82011682018060405250810190613d5f9190615a55565b60ff16818054905010613d845760405162461bcd60e51b815260040161127290615c8d565b8054600181018255600082815260208120909101849055606086015183546080880151600290810b62ffffff908116600160981b0262ffffff60981b199490920b16600160801b0262ffffff60801b1990921691909117919091161783556040860151613df090612529565b5050506020808b01516001600160a01b0316600090815260d082526040812089546101208e015180519401519698509096509094613e4b9450869350600160801b8204600290810b93600160981b909304900b9188916125bc565b8051600287015560208101516003870155604001516004860155505050505b602080850151604080516101208101825284546001600160801b0381168252600160801b8104600290810b810b810b95830195909552600160981b9004840b840b840b9181019190915260018401546060820152918301546080830152600383015460a0830152600483015460c0830152600583015460e083015260068301546101008301526000918291613efe91613f8a565b60c08801518554929450909250613f2a91613f25916001600160801b03918216911661246c565b614c3f565b83546001600160801b0319166001600160801b03919091161783556001830181905560e08601516005840154613f5f9161246c565b60058401556101008601516006840154613f789161246c565b60069093019290925592505050919050565b609a5460405163bbe4f6db60e01b815260009182918291613fc5916001600160a01b039091169063bbe4f6db90612835908990600401615a76565b505050506001600160a01b038816600090815260d0602090815260408083208a8301518b83015160d1909452919093205494965091945061400a938593508690614c87565b925061402e8560600151840386600001516001600160801b0316600160801b61332e565b935050505b9250929050565b614042615310565b60008083600001516001600160a01b031663a34123a78560400151866060015187608001516040518463ffffffff1660e01b815260040161408593929190615bb8565b6040805180830381600087803b15801561409e57600080fd5b505af11580156140b2573d6000803e3d6000fd5b505050506040513d601f19601f820116820180604052508101906140d691906159b8565b9150915083600001516001600160a01b0316634f1eb3d88560200151866040015187606001516001600160801b03806040518663ffffffff1660e01b8152600401614125959493929190615b10565b6040805180830381600087803b15801561413e57600080fd5b505af1158015614152573d6000803e3d6000fd5b505050506040513d601f19601f8201168201806040525081019061417691906158e4565b505060408051808201909152918252602082015292915050565b606080820151600090815260cf602090815260408083208286015182516101208101845282546001600160801b0381168252600160801b8104600290810b810b810b96830196909652600160981b9004850b850b850b93810193909352600182015495830195909552918201546080820152600382015460a0820152600482015460c0820152600582015460e0820152600682015461010082015291928392839291839161423e9190613f8a565b60c088015191965091506001600160801b03161561431d5760058201541561429b57600582015460c0870151835461428392916001600160801b03908116911661332e565b600583015490945061429590856132d1565b60058301555b6006820154156142e057600682015460c087015183546142c892916001600160801b03908116911661332e565b60068301549093506142da90846132d1565b60068301555b60c0860151825461430191613f25916001600160801b0390811691166132d1565b82546001600160801b0319166001600160801b03919091161782555b81546001600160801b031661434857614343866000015187602001518860600151614cef565b614350565b600182018190555b50509193909250565b600290810b810b600090815260209290925260408220828155600181018390550155565b6000826001600160a01b0316846001600160a01b0316111561439d579192915b836001600160a01b03166143d6606060ff16846001600160801b0316901b8686036001600160a01b0316866001600160a01b031661332e565b816143dd57fe5b04949350505050565b6000826143f5575060006107d3565b826000191480156144095750600160ff1b82145b156144455760405162461bcd60e51b8152600401808060200182810382526027815260200180615f266027913960400191505060405180910390fd5b8282028284828161445257fe5b0514610a9a5760405162461bcd60e51b8152600401808060200182810382526027815260200180615f266027913960400191505060405180910390fd5b600080600085126144a057846144a9565b6144a985614df8565b905060008085126144ba57846144c3565b6144c385614df8565b9050600080871280156144d65750600086135b806144ec57506000871380156144ec5750600086125b6144f75760006144fa565b60015b9050600061450984848861332e565b90508161451e57614519816131e6565b614527565b61452781614e1d565b98975050505050505050565b600081614587576040805162461bcd60e51b815260206004820181905260248201527f5369676e6564536166654d6174683a206469766973696f6e206279207a65726f604482015290519081900360640190fd5b8160001914801561459b5750600160ff1b83145b156145d75760405162461bcd60e51b8152600401808060200182810382526021815260200180615ee56021913960400191505060405180910390fd5b60008284816145e257fe5b05949350505050565b6000826001600160a01b0316846001600160a01b0316111561460b579192915b610757826001600160801b03168585036001600160a01b0316600160601b61332e565b60020b600881901d9161010090910790565b60405163299ce14b60e11b81526000906001600160a01b03841690635339c2969061466f908590600401615b9c565b60206040518083038186803b15801561468757600080fd5b505afa15801561469b573d6000803e3d6000fd5b505050506040513d601f19601f82011682018060405250810190610a9a91906159a0565b60008082116146cd57600080fd5b600160801b82106146e057608091821c91015b600160401b82106146f357604091821c91015b600160201b821061470657602091821c91015b62010000821061471857601091821c91015b610100821061472957600891821c91015b6010821061473957600491821c91015b6004821061474957600291821c91015b60028210610b3e57600101919050565b600080821161476757600080fd5b5060ff6001600160801b0382161561478257607f190161478a565b608082901c91505b6001600160401b038216156147a257603f19016147aa565b604082901c91505b63ffffffff8216156147bf57601f19016147c7565b602082901c91505b61ffff8216156147da57600f19016147e2565b601082901c91505b60ff8216156147f457600719016147fc565b600882901c91505b600f82161561480e5760031901614816565b600482901c91505b60038216156148285760011901614830565b600282901c91505b6001821615610b3e5760001901919050565b6000836001600160a01b0316856001600160a01b03161115614862579293925b8161488f5761488a836001600160801b03168686036001600160a01b0316600160601b61332e565b6148b2565b6148b2836001600160801b03168686036001600160a01b0316600160601b613297565b95945050505050565b6000836001600160a01b0316856001600160a01b031611156148db579293925b600160601b600160e01b03606084901b166001600160a01b03868603811690871661490557600080fd5b8361493557866001600160a01b03166149288383896001600160a01b031661332e565b8161492f57fe5b0461277b565b61277b61494c8383896001600160a01b0316613297565b886001600160a01b0316614e31565b600080856001600160a01b03161161497257600080fd5b6000846001600160801b03161161498857600080fd5b8161499a5761488a8585856001614e3c565b6148b28585856001614f1d565b600080856001600160a01b0316116149be57600080fd5b6000846001600160801b0316116149d457600080fd5b816149e65761488a8585856000614f1d565b6148b28585856000614e3c565b3b151590565b600054610100900460ff1680614a125750614a126138d6565b80614a20575060005460ff16155b614a5b5760405162461bcd60e51b815260040180806020018281038252602e815260200180615eb7602e913960400191505060405180910390fd5b600054610100900460ff16158015614a86576000805460ff1961ff0019909116610100171660011790555b614a8e614ae8565b6000614a98612248565b603380546001600160a01b0319166001600160a01b03831690811790915560405191925090600090600080516020615f06833981519152908290a350801561398e576000805461ff001916905550565b600054610100900460ff1680614b015750614b016138d6565b80614b0f575060005460ff16155b614b4a5760405162461bcd60e51b815260040180806020018281038252602e815260200180615eb7602e913960400191505060405180910390fd5b600054610100900460ff16158015614b75576000805460ff1961ff0019909116610100171660011790555b61397c615000565b6000836001600160a01b0316856001600160a01b03161115614b9d579293925b846001600160a01b0316866001600160a01b031611614bc857614bc18585856150a0565b90506148b2565b836001600160a01b0316866001600160a01b03161015614c2a576000614bef8786866150a0565b90506000614bfe878986615103565b9050806001600160801b0316826001600160801b031610614c1f5780614c21565b815b925050506148b2565b614c35858584615103565b9695505050505050565b806001600160801b0381168114610b3e5760405162461bcd60e51b8152600401808060200182810382526027815260200180615e6f6027913960400191505060405180910390fd5b600284810b80820b6000908152602088905260408082205487850b850b83529082205491939092849187900b1215614cc157828503614cc3565b825b905060008760020b8760020b12614cdc57828603614cde565b825b919095030398975050505050505050565b6001600160a01b03808416600090815260ce602090815260408083209386168352929052908120805490915b81811015614df05783838281548110614d3057fe5b90600052602060002001541415614de857600182038114614d7e57826001830381548110614d5a57fe5b9060005260206000200154838281548110614d7157fe5b6000918252602090912001555b82805480614d8857fe5b60008281526020808220830160001990810183905590920190925585825260cf90526040812080546001600160b01b0319168155600181018290556002810182905560038101829055600481018290556005810182905560060155614df0565b600101614d1b565b505050505050565b6000600160ff1b82136134d75760405162461bcd60e51b815260040161127290615c57565b6000614e28826131e6565b60000392915050565b808204910615150190565b60008115614eaf5760006001600160a01b03841115614e7257614e6d84600160601b876001600160801b031661332e565b614e8a565b6001600160801b038516606085901b81614e8857fe5b045b9050614ea7614ea26001600160a01b03881683615140565b615150565b915050610757565b60006001600160a01b03841115614edd57614ed884600160601b876001600160801b0316613297565b614ef4565b614ef4606085901b6001600160801b038716614e31565b905080866001600160a01b031611614f0b57600080fd5b6001600160a01b038616039050610757565b600082614f2b575083610757565b600160601b600160e01b03606085901b168215614fb9576001600160a01b03861684810290858281614f5957fe5b041415614f8a57818101828110614f8857614f7e83896001600160a01b031683613297565b9350505050610757565b505b614fb082614fab878a6001600160a01b03168681614fa457fe5b0490615140565b614e31565b92505050610757565b6001600160a01b03861684810290858281614fd057fe5b04148015614fdd57508082115b614fe657600080fd5b808203614f7e614ea2846001600160a01b038b1684613297565b600054610100900460ff168061501957506150196138d6565b80615027575060005460ff16155b6150625760405162461bcd60e51b815260040180806020018281038252602e815260200180615eb7602e913960400191505060405180910390fd5b600054610100900460ff1615801561397c576000805460ff1961ff001990911661010017166001179055801561398e576000805461ff001916905550565b6000826001600160a01b0316846001600160a01b031611156150c0579192915b60006150e3856001600160a01b0316856001600160a01b0316600160601b61332e565b90506148b26150fe84838888036001600160a01b031661332e565b615166565b6000826001600160a01b0316846001600160a01b03161115615123579192915b6107576150fe83600160601b8787036001600160a01b031661332e565b808201828110156107d357600080fd5b806001600160a01b0381168114610b3e57600080fd5b806001600160801b0381168114610b3e57600080fd5b6040518060a0016040528060008152602001600081526020016000815260200160008152602001600081525090565b6040518060600160405280600060020b815260200160008152602001600081525090565b6040805160e081018252600080825260208201819052918101829052606081018290526080810182905260a0810182905260c081019190915290565b60405180610120016040528060006001600160801b03168152602001600060020b8152602001600060020b81526020016000815260200160008152602001600081526020016000815260200160008152602001600081525090565b604051806080016040528060008152602001600081526020016000815260200160006001600160801b031681525090565b6040518060600160405280600081526020016000815260200160006001600160801b031681525090565b60405180606001604052806000815260200160008152602001600081525090565b6040805160a08101825260008082526020820181905291810182905260608101829052608081019190915290565b604051806040016040528060008152602001600081525090565b8035610b3e81615e16565b60008083601f840112615346578182fd5b5081356001600160401b0381111561535c578182fd5b602083019150836020808302850101111561403357600080fd5b8035610b3e81615e2b565b8051610b3e81615e2b565b60006040828403121561539d578081fd5b604080519081016001600160401b03811182821017156153b957fe5b604052823581526020928301359281019290925250919050565b805161ffff81168114610b3e57600080fd5b8035610b3e81615e5d565b805160ff81168114610b3e57600080fd5b600060208284031215615412578081fd5b8135610a9a81615e16565b60006020828403121561542e578081fd5b8151610a9a81615e16565b6000806040838503121561544b578081fd5b823561545681615e16565b9150602083013561546681615e16565b809150509250929050565b60008060008060608587031215615486578182fd5b843561549181615e16565b935060208501356154a181615e16565b925060408501356001600160401b038111156154bb578283fd5b6154c787828801615335565b95989497509550505050565b6000806000606084860312156154e7578081fd5b83356154f281615e16565b9250602084013561550281615e16565b9150604084013561551281615e2b565b809150509250925092565b60008060008060808587031215615532578182fd5b843561553d81615e16565b9350602085013561554d81615e16565b9250604085013561555d81615e39565b9150606085013561556d81615e39565b939692955090935050565b60008060006080848603121561558c578081fd5b833561559781615e16565b925060208401356155a781615e16565b91506155b6856040860161538c565b90509250925092565b6000806000604084860312156155d3578081fd5b83356155de81615e16565b925060208401356001600160401b038111156155f8578182fd5b61560486828701615335565b9497909650939450505050565b600060208284031215615622578081fd5b5035919050565b60008060006060848603121561563d578081fd5b505081359360208301359350604090920135919050565b600060208284031215615665578081fd5b8135610a9a81615e39565b600060208284031215615681578081fd5b8151610a9a81615e39565b6000610100828403121561569e578081fd5b50919050565b6000604082840312156156b5578081fd5b610a9a838361538c565b6000608082840312156156d0578081fd5b604051608081016001600160401b03811182821017156156ec57fe5b60405282516156fa81615e16565b8152602083015161570a81615e5d565b6020820152604083015161571d81615e5d565b6040820152606083015161573081615e5d565b60608201529392505050565b600060a0828403121561569e578081fd5b6000610120828403121561575f578081fd5b60405161010081016001600160401b038111828210171561577c57fe5b6040526157888361532a565b815261579660208401615376565b60208201526157a760408401615376565b6040820152606083013560608201526157c26080840161532a565b60808201526157d360a084016153e5565b60a08201526157e460c084016153e5565b60c08201526157f68460e0850161538c565b60e08201529392505050565b600060208284031215615813578081fd5b8135610a9a81615e48565b60006020828403121561582f578081fd5b8151610a9a81615e48565b600080600080600080600080610100898b031215615856578586fd5b885161586181615e48565b80985050602089015180600f0b8114615878578687fd5b80975050604089015195506060890151945060808901518060060b811461589d578485fd5b60a08a01519094506158ae81615e16565b60c08a015190935063ffffffff811681146158c7578283fd5b91506158d560e08a01615381565b90509295985092959890939650565b600080604083850312156158f6578182fd5b825161590181615e48565b602084015190925061546681615e48565b600080600080600080600060e0888a03121561592c578081fd5b875161593781615e16565b602089015190975061594881615e39565b9550615956604089016153d3565b9450615964606089016153d3565b9350615972608089016153d3565b925061598060a089016153f0565b915060c088015161599081615e2b565b8091505092959891949750929550565b6000602082840312156159b1578081fd5b5051919050565b600080604083850312156159ca578182fd5b505080516020909101519092909150565b600080600080606085870312156159f0578182fd5b843593506020850135925060408501356001600160401b0380821115615a14578384fd5b818701915087601f830112615a27578384fd5b813581811115615a35578485fd5b886020828501011115615a46578485fd5b95989497505060200194505050565b600060208284031215615a66578081fd5b610a9a826153f0565b60020b9052565b6001600160a01b0391909116815260200190565b600060018060a01b038716825260208660020b818401528560020b604084015260018060801b038516606084015260a0608084015283518060a0850152825b81811015615ae55785810183015185820160c001528201615ac9565b81811115615af6578360c083870101525b50601f01601f19169290920160c001979650505050505050565b6001600160a01b03959095168552600293840b60208601529190920b60408401526001600160801b03918216606084015216608082015260a00190565b6020808252825182820181905260009190848201906040850190845b81811015615b8557835183529284019291840191600101615b69565b50909695505050505050565b901515815260200190565b60019190910b815260200190565b60029190910b815260200190565b600293840b81529190920b60208201526001600160801b03909116604082015260600190565b90815260200190565b918252602082015260400190565b6020808252600790820152660869088be9e86960cb1b604082015260600190565b60208082526006908201526509e84be9e8ab60d31b604082015260600190565b6020808252600790820152662aa1a12fa321ab60c91b604082015260600190565b6020808252601c908201527b506572704d6174683a20696e76657273696f6e206f766572666c6f7760201b604082015260600190565b6020808252600690820152654f425f4f4e4560d01b604082015260600190565b8151815260208083015190820152604080830151908201526060918201516001600160801b03169181019190915260800190565b81516001600160801b0316815260208083015160020b90820152604080830151610120830191615d1390840182615a6f565b50606083015160608301526080830151608083015260a083015160a083015260c083015160c083015260e083015160e083015261010080840151818401525092915050565b81516001600160a01b039081168252602092830151169181019190915260400190565b600060a082019050825182526020830151602083015260408301516040830152606083015160608301526080830151608083015292915050565b815160020b8152602080830151908201526040918201519181019190915260600190565b60008582528460208301526060604083015282606083015282846080840137818301608090810191909152601f909201601f191601019392505050565b6001600160a01b038116811461398e57600080fd5b801515811461398e57600080fd5b8060020b811461398e57600080fd5b6001600160801b038116811461398e57600080fd5b62ffffff8116811461398e57600080fdfe53616665436173743a2076616c756520646f65736e27742066697420696e2031323820626974735369676e6564536166654d6174683a206164646974696f6e206f766572666c6f77496e697469616c697a61626c653a20636f6e747261637420697320616c726561647920696e697469616c697a65645369676e6564536166654d6174683a206469766973696f6e206f766572666c6f778be0079c531659141344cd1fd0a4f28419497f9722a3daafe3b4186f6b6457e05369676e6564536166654d6174683a206d756c7469706c69636174696f6e206f766572666c6f7753616665436173743a2076616c756520646f65736e27742066697420696e20616e20696e743235365369676e6564536166654d6174683a207375627472616374696f6e206f766572666c6f77a264697066735822122052e7270ee17ba94e4c5c58aff237dfb88cb98503489e9c6ab07f56857bd8501f64736f6c63430007060033",
  "linkReferences": {},
  "deployedLinkReferences": {}
}