{
  "_format": "hh-sol-artifact-1",
  "contractName": "PerpV2BaseToken",
  "sourceName": "contracts/BaseToken.sol",
  "abi": [
    {
      "anonymous": false,
      "inputs": [
        {
          "indexed": true,
          "internalType": "address",
          "name": "owner",
          "type": "address"
        },
        {
          "indexed": true,
          "internalType": "address",
          "name": "spender",
          "type": "address"
        },
        {
          "indexed": false,
          "internalType": "uint256",
          "name": "value",
          "type": "uint256"
        }
      ],
      "name": "Approval",
      "type": "event"
    },
    {
      "anonymous": false,
      "inputs": [
        {
          "indexed": true,
          "internalType": "address",
          "name": "previousOwner",
          "type": "address"
        },
        {
          "indexed": true,
          "internalType": "address",
          "name": "newOwner",
          "type": "address"
        }
      ],
      "name": "OwnershipTransferred",
      "type": "event"
    },
    {
      "anonymous": false,
      "inputs": [
        {
          "indexed": true,
          "internalType": "address",
          "name": "from",
          "type": "address"
        },
        {
          "indexed": true,
          "internalType": "address",
          "name": "to",
          "type": "address"
        },
        {
          "indexed": false,
          "internalType": "uint256",
          "name": "value",
          "type": "uint256"
        }
      ],
      "name": "Transfer",
      "type": "event"
    },
    {
      "anonymous": false,
      "inputs": [
        {
          "indexed": false,
          "internalType": "address",
          "name": "account",
          "type": "address"
        }
      ],
      "name": "WhitelistAdded",
      "type": "event"
    },
    {
      "anonymous": false,
      "inputs": [
        {
          "indexed": false,
          "internalType": "address",
          "name": "account",
          "type": "address"
        }
      ],
      "name": "WhitelistRemoved",
      "type": "event"
    },
    {
      "inputs": [
        {
          "internalType": "address",
          "name": "account",
          "type": "address"
        }
      ],
      "name": "addWhitelist",
      "outputs": [],
      "stateMutability": "nonpayable",
      "type": "function"
    },
    {
      "inputs": [
        {
          "internalType": "address",
          "name": "owner",
          "type": "address"
        },
        {
          "internalType": "address",
          "name": "spender",
          "type": "address"
        }
      ],
      "name": "allowance",
      "outputs": [
        {
          "internalType": "uint256",
          "name": "",
          "type": "uint256"
        }
      ],
      "stateMutability": "view",
      "type": "function"
    },
    {
      "inputs": [
        {
          "internalType": "address",
          "name": "spender",
          "type": "address"
        },
        {
          "internalType": "uint256",
          "name": "amount",
          "type": "uint256"
        }
      ],
      "name": "approve",
      "outputs": [
        {
          "internalType": "bool",
          "name": "",
          "type": "bool"
        }
      ],
      "stateMutability": "nonpayable",
      "type": "function"
    },
    {
      "inputs": [
        {
          "internalType": "address",
          "name": "account",
          "type": "address"
        }
      ],
      "name": "balanceOf",
      "outputs": [
        {
          "internalType": "uint256",
          "name": "",
          "type": "uint256"
        }
      ],
      "stateMutability": "view",
      "type": "function"
    },
    {
      "inputs": [],
      "name": "candidate",
      "outputs": [
        {
          "internalType": "address",
          "name": "",
          "type": "address"
        }
      ],
      "stateMutability": "view",
      "type": "function"
    },
    {
      "inputs": [],
      "name": "decimals",
      "outputs": [
        {
          "internalType": "uint8",
          "name": "",
          "type": "uint8"
        }
      ],
      "stateMutability": "view",
      "type": "function"
    },
    {
      "inputs": [
        {
          "internalType": "address",
          "name": "spender",
          "type": "address"
        },
        {
          "internalType": "uint256",
          "name": "subtractedValue",
          "type": "uint256"
        }
      ],
      "name": "decreaseAllowance",
      "outputs": [
        {
          "internalType": "bool",
          "name": "",
          "type": "bool"
        }
      ],
      "stateMutability": "nonpayable",
      "type": "function"
    },
    {
      "inputs": [
        {
          "internalType": "uint256",
          "name": "interval",
          "type": "uint256"
        }
      ],
      "name": "getIndexPrice",
      "outputs": [
        {
          "internalType": "uint256",
          "name": "",
          "type": "uint256"
        }
      ],
      "stateMutability": "view",
      "type": "function"
    },
    {
      "inputs": [],
      "name": "getPriceFeed",
      "outputs": [
        {
          "internalType": "address",
          "name": "",
          "type": "address"
        }
      ],
      "stateMutability": "view",
      "type": "function"
    },
    {
      "inputs": [
        {
          "internalType": "address",
          "name": "spender",
          "type": "address"
        },
        {
          "internalType": "uint256",
          "name": "addedValue",
          "type": "uint256"
        }
      ],
      "name": "increaseAllowance",
      "outputs": [
        {
          "internalType": "bool",
          "name": "",
          "type": "bool"
        }
      ],
      "stateMutability": "nonpayable",
      "type": "function"
    },
    {
      "inputs": [
        {
          "internalType": "string",
          "name": "nameArg",
          "type": "string"
        },
        {
          "internalType": "string",
          "name": "symbolArg",
          "type": "string"
        },
        {
          "internalType": "address",
          "name": "priceFeedArg",
          "type": "address"
        }
      ],
      "name": "initialize",
      "outputs": [],
      "stateMutability": "nonpayable",
      "type": "function"
    },
    {
      "inputs": [
        {
          "internalType": "address",
          "name": "account",
          "type": "address"
        }
      ],
      "name": "isInWhitelist",
      "outputs": [
        {
          "internalType": "bool",
          "name": "",
          "type": "bool"
        }
      ],
      "stateMutability": "view",
      "type": "function"
    },
    {
      "inputs": [
        {
          "internalType": "address",
          "name": "recipient",
          "type": "address"
        }
      ],
      "name": "mintMaximumTo",
      "outputs": [],
      "stateMutability": "nonpayable",
      "type": "function"
    },
    {
      "inputs": [],
      "name": "name",
      "outputs": [
        {
          "internalType": "string",
          "name": "",
          "type": "string"
        }
      ],
      "stateMutability": "view",
      "type": "function"
    },
    {
      "inputs": [],
      "name": "owner",
      "outputs": [
        {
          "internalType": "address",
          "name": "",
          "type": "address"
        }
      ],
      "stateMutability": "view",
      "type": "function"
    },
    {
      "inputs": [
        {
          "internalType": "address",
          "name": "account",
          "type": "address"
        }
      ],
      "name": "removeWhitelist",
      "outputs": [],
      "stateMutability": "nonpayable",
      "type": "function"
    },
    {
      "inputs": [],
      "name": "renounceOwnership",
      "outputs": [],
      "stateMutability": "nonpayable",
      "type": "function"
    },
    {
      "inputs": [
        {
          "internalType": "address",
          "name": "newOwner",
          "type": "address"
        }
      ],
      "name": "setOwner",
      "outputs": [],
      "stateMutability": "nonpayable",
      "type": "function"
    },
    {
      "inputs": [],
      "name": "symbol",
      "outputs": [
        {
          "internalType": "string",
          "name": "",
          "type": "string"
        }
      ],
      "stateMutability": "view",
      "type": "function"
    },
    {
      "inputs": [],
      "name": "totalSupply",
      "outputs": [
        {
          "internalType": "uint256",
          "name": "",
          "type": "uint256"
        }
      ],
      "stateMutability": "view",
      "type": "function"
    },
    {
      "inputs": [
        {
          "internalType": "address",
          "name": "recipient",
          "type": "address"
        },
        {
          "internalType": "uint256",
          "name": "amount",
          "type": "uint256"
        }
      ],
      "name": "transfer",
      "outputs": [
        {
          "internalType": "bool",
          "name": "",
          "type": "bool"
        }
      ],
      "stateMutability": "nonpayable",
      "type": "function"
    },
    {
      "inputs": [
        {
          "internalType": "address",
          "name": "sender",
          "type": "address"
        },
        {
          "internalType": "address",
          "name": "recipient",
          "type": "address"
        },
        {
          "internalType": "uint256",
          "name": "amount",
          "type": "uint256"
        }
      ],
      "name": "transferFrom",
      "outputs": [
        {
          "internalType": "bool",
          "name": "",
          "type": "bool"
        }
      ],
      "stateMutability": "nonpayable",
      "type": "function"
    },
    {
      "inputs": [],
      "name": "updateOwner",
      "outputs": [],
      "stateMutability": "nonpayable",
      "type": "function"
    }
  ],
  "bytecode": "0x608060405234801561001057600080fd5b50611c48806100206000396000f3fe608060405234801561001057600080fd5b506004361061014d5760003560e01c806370a08231116100c3578063a457c2d71161007c578063a457c2d7146104dc578063a9059cbb14610508578063bc5920ba14610534578063dd62ed3e1461053c578063f52e308e1461056a578063f80f5dd5146105905761014d565b806370a0823114610470578063715018a61461049657806378c8cda71461049e5780638da5cb5b146104c457806395d89b41146104cc5780639e87a5cd146104d45761014d565b806313af40351161011557806313af40351461039e57806318160ddd146103c457806323b872dd146103cc578063313ce5671461040257806339509351146104205780636c8381f81461044c5761014d565b806306fdde0314610152578063077f224a146101cf578063095ea7b31461030957806309fd821214610349578063120806471461036f575b600080fd5b61015a6105b6565b6040805160208082528351818301528351919283929083019185019080838360005b8381101561019457818101518382015260200161017c565b50505050905090810190601f1680156101c15780820380516001836020036101000a031916815260200191505b509250505060405180910390f35b610307600480360360608110156101e557600080fd5b81019060208101813564010000000081111561020057600080fd5b82018360208201111561021257600080fd5b8035906020019184600183028401116401000000008311171561023457600080fd5b91908080601f016020809104026020016040519081016040528093929190818152602001838380828437600092019190915250929594936020810193503591505064010000000081111561028757600080fd5b82018360208201111561029957600080fd5b803590602001918460018302840111640100000000831117156102bb57600080fd5b91908080601f016020809104026020016040519081016040528093929190818152602001838380828437600092019190915250929550505090356001600160a01b0316915061064c9050565b005b6103356004803603604081101561031f57600080fd5b506001600160a01b0381351690602001356107de565b604080519115158252519081900360200190f35b6103356004803603602081101561035f57600080fd5b50356001600160a01b03166107fc565b61038c6004803603602081101561038557600080fd5b503561081a565b60408051918252519081900360200190f35b610307600480360360208110156103b457600080fd5b50356001600160a01b03166108a9565b61038c610a04565b610335600480360360608110156103e257600080fd5b506001600160a01b03813581169160208101359091169060400135610a0a565b61040a610a91565b6040805160ff9092168252519081900360200190f35b6103356004803603604081101561043657600080fd5b506001600160a01b038135169060200135610a9a565b610454610ae8565b604080516001600160a01b039092168252519081900360200190f35b61038c6004803603602081101561048657600080fd5b50356001600160a01b0316610af7565b610307610b12565b610307600480360360208110156104b457600080fd5b50356001600160a01b0316610bc5565b610454610cbe565b61015a610ccd565b610454610d2e565b610335600480360360408110156104f257600080fd5b506001600160a01b038135169060200135610d42565b6103356004803603604081101561051e57600080fd5b506001600160a01b038135169060200135610daa565b610307610dbe565b61038c6004803603604081101561055257600080fd5b506001600160a01b0381358116916020013516610ebc565b6103076004803603602081101561058057600080fd5b50356001600160a01b0316610ee7565b610307600480360360208110156105a657600080fd5b50356001600160a01b0316610f53565b606a8054604080516020601f60026000196101006001881615020190951694909404938401819004810282018101909252828152606093909290918301828280156106425780601f1061061757610100808354040283529160200191610642565b820191906000526020600020905b81548152906001019060200180831161062557829003601f168201915b5050505050905090565b600054610100900460ff1680610665575061066561100b565b80610673575060005460ff16155b6106ae5760405162461bcd60e51b815260040180806020018281038252602e815260200180611b2e602e913960400191505060405180910390fd5b600054610100900460ff161580156106d9576000805460ff1961ff0019909116610100171660011790555b6106e3848461101c565b6000826001600160a01b031663313ce5676040518163ffffffff1660e01b815260040160206040518083038186803b15801561071e57600080fd5b505afa158015610732573d6000803e3d6000fd5b505050506040513d602081101561074857600080fd5b50519050610754610a91565b60ff168160ff161115610798576040805162461bcd60e51b8152602060048201526007602482015266109517d254119160ca1b604482015290519081900360640190fd5b60cc8054610100600160a81b0319166101006001600160a01b038616021760ff191660ff9290921691909117905580156107d8576000805461ff00191690555b50505050565b60006107f26107eb6110d2565b84846110d6565b5060015b92915050565b6001600160a01b031660009081526099602052604090205460ff1690565b60006107f660cc60019054906101000a90046001600160a01b03166001600160a01b031663e7572230846040518263ffffffff1660e01b81526004018082815260200191505060206040518083038186803b15801561087857600080fd5b505afa15801561088c573d6000803e3d6000fd5b505050506040513d60208110156108a257600080fd5b50516111c2565b6108b16110d2565b6001600160a01b03166108c2610cbe565b6001600160a01b031614610906576040805162461bcd60e51b8152602060048201526006602482015265534f5f434e4f60d01b604482015290519081900360640190fd5b6001600160a01b03811661094a576040805162461bcd60e51b81526020600482015260066024820152650534f5f4e57360d41b604482015290519081900360640190fd5b6033546001600160a01b0382811691161415610996576040805162461bcd60e51b8152602060048201526006602482015265534f5f53414f60d01b604482015290519081900360640190fd5b6034546001600160a01b03828116911614156109e2576040805162461bcd60e51b8152602060048201526006602482015265534f5f53414360d01b604482015290519081900360640190fd5b603480546001600160a01b0319166001600160a01b0392909216919091179055565b60695490565b6000610a178484846111ee565b610a8784610a236110d2565b610a8285604051806060016040528060288152602001611b7d602891396001600160a01b038a16600090815260686020526040812090610a616110d2565b6001600160a01b03168152602081019190915260400160002054919061134b565b6110d6565b5060019392505050565b606c5460ff1690565b60006107f2610aa76110d2565b84610a828560686000610ab86110d2565b6001600160a01b03908116825260208083019390935260409182016000908120918c1681529252902054906113e2565b6034546001600160a01b031690565b6001600160a01b031660009081526067602052604090205490565b610b1a6110d2565b6001600160a01b0316610b2b610cbe565b6001600160a01b031614610b6f576040805162461bcd60e51b8152602060048201526006602482015265534f5f434e4f60d01b604482015290519081900360640190fd5b6033546040516000916001600160a01b0316907f8be0079c531659141344cd1fd0a4f28419497f9722a3daafe3b4186f6b6457e0908390a3603380546001600160a01b0319908116909155603480549091169055565b610bcd6110d2565b6001600160a01b0316610bde610cbe565b6001600160a01b031614610c22576040805162461bcd60e51b8152602060048201526006602482015265534f5f434e4f60d01b604482015290519081900360640190fd5b610c2b81610af7565b15610c66576040805162461bcd60e51b81526020600482015260066024820152652b2a2fa1272d60d11b604482015290519081900360640190fd5b6001600160a01b038116600081815260996020908152604091829020805460ff19169055815192835290517fde8cf212af7ce38b2840785a2768d97ff2dbf3c21b516961cec0061e134c2a1e9281900390910190a150565b6033546001600160a01b031690565b606b8054604080516020601f60026000196101006001881615020190951694909404938401819004810282018101909252828152606093909290918301828280156106425780601f1061061757610100808354040283529160200191610642565b60cc5461010090046001600160a01b031690565b60006107f2610d4f6110d2565b84610a8285604051806060016040528060258152602001611bee6025913960686000610d796110d2565b6001600160a01b03908116825260208083019390935260409182016000908120918d1681529252902054919061134b565b60006107f2610db76110d2565b84846111ee565b6034546001600160a01b0316610e03576040805162461bcd60e51b81526020600482015260056024820152640534f5f43360dc1b604482015290519081900360640190fd5b610e0b6110d2565b6034546001600160a01b03908116911614610e56576040805162461bcd60e51b8152602060048201526006602482015265534f5f434e4360d01b604482015290519081900360640190fd5b6034546033546040516001600160a01b0392831692909116907f8be0079c531659141344cd1fd0a4f28419497f9722a3daafe3b4186f6b6457e090600090a360348054603380546001600160a01b03199081166001600160a01b03841617909155169055565b6001600160a01b03918216600090815260686020908152604080832093909416825291909152205490565b610eef6110d2565b6001600160a01b0316610f00610cbe565b6001600160a01b031614610f44576040805162461bcd60e51b8152602060048201526006602482015265534f5f434e4f60d01b604482015290519081900360640190fd5b610f5081600019611443565b50565b610f5b6110d2565b6001600160a01b0316610f6c610cbe565b6001600160a01b031614610fb0576040805162461bcd60e51b8152602060048201526006602482015265534f5f434e4f60d01b604482015290519081900360640190fd5b6001600160a01b038116600081815260996020908152604091829020805460ff19166001179055815192835290517f4790a4adb426ca2345bb5108f6e454eae852a7bf687544cd66a7270dff3a41d69281900390910190a150565b600061101630611535565b15905090565b600054610100900460ff1680611035575061103561100b565b80611043575060005460ff16155b61107e5760405162461bcd60e51b815260040180806020018281038252602e815260200180611b2e602e913960400191505060405180910390fd5b600054610100900460ff161580156110a9576000805460ff1961ff0019909116610100171660011790555b6110b161153b565b6110bb838361163c565b80156110cd576000805461ff00191690555b505050565b3390565b6001600160a01b03831661111b5760405162461bcd60e51b8152600401808060200182810382526024815260200180611bca6024913960400191505060405180910390fd5b6001600160a01b0382166111605760405162461bcd60e51b8152600401808060200182810382526022815260200180611ae66022913960400191505060405180910390fd5b6001600160a01b03808416600081815260686020908152604080832094871680845294825291829020859055815185815291517f8c5be1e5ebec7d5bd14f71427d1e84f3dd0314c0f7b2291e5b200ac8c7c3b9259281900390910190a3505050565b60cc546000906107f6906111e49060ff166111db610a91565b60ff16906116db565b8390600a0a611738565b6001600160a01b0383166112335760405162461bcd60e51b8152600401808060200182810382526025815260200180611ba56025913960400191505060405180910390fd5b6001600160a01b0382166112785760405162461bcd60e51b8152600401808060200182810382526023815260200180611ac36023913960400191505060405180910390fd5b611283838383611791565b6112c081604051806060016040528060268152602001611b08602691396001600160a01b038616600090815260676020526040902054919061134b565b6001600160a01b0380851660009081526067602052604080822093909355908416815220546112ef90826113e2565b6001600160a01b0380841660008181526067602090815260409182902094909455805185815290519193928716927fddf252ad1be2c89b69c2b068fc378daa952ba7f163c4a11628f55a4df523b3ef92918290030190a3505050565b600081848411156113da5760405162461bcd60e51b81526004018080602001828103825283818151815260200191508051906020019080838360005b8381101561139f578181015183820152602001611387565b50505050905090810190601f1680156113cc5780820380516001836020036101000a031916815260200191505b509250505060405180910390fd5b505050900390565b60008282018381101561143c576040805162461bcd60e51b815260206004820152601b60248201527f536166654d6174683a206164646974696f6e206f766572666c6f770000000000604482015290519081900360640190fd5b9392505050565b6001600160a01b03821661149e576040805162461bcd60e51b815260206004820152601f60248201527f45524332303a206d696e7420746f20746865207a65726f206164647265737300604482015290519081900360640190fd5b6114aa60008383611791565b6069546114b790826113e2565b6069556001600160a01b0382166000908152606760205260409020546114dd90826113e2565b6001600160a01b03831660008181526067602090815260408083209490945583518581529351929391927fddf252ad1be2c89b69c2b068fc378daa952ba7f163c4a11628f55a4df523b3ef9281900390910190a35050565b3b151590565b600054610100900460ff1680611554575061155461100b565b80611562575060005460ff16155b61159d5760405162461bcd60e51b815260040180806020018281038252602e815260200180611b2e602e913960400191505060405180910390fd5b600054610100900460ff161580156115c8576000805460ff1961ff0019909116610100171660011790555b6115d0611800565b60006115da6110d2565b603380546001600160a01b0319166001600160a01b038316908117909155604051919250906000907f8be0079c531659141344cd1fd0a4f28419497f9722a3daafe3b4186f6b6457e0908290a3508015610f50576000805461ff001916905550565b600054610100900460ff1680611655575061165561100b565b80611663575060005460ff16155b61169e5760405162461bcd60e51b815260040180806020018281038252602e815260200180611b2e602e913960400191505060405180910390fd5b600054610100900460ff161580156116c9576000805460ff1961ff0019909116610100171660011790555b6116d16118a9565b6110bb8383611949565b600082821115611732576040805162461bcd60e51b815260206004820152601e60248201527f536166654d6174683a207375627472616374696f6e206f766572666c6f770000604482015290519081900360640190fd5b50900390565b600082611747575060006107f6565b8282028284828161175457fe5b041461143c5760405162461bcd60e51b8152600401808060200182810382526021815260200180611b5c6021913960400191505060405180910390fd5b61179c8383836110cd565b6001600160a01b038316156110cd576001600160a01b03831660009081526099602052604090205460ff166110cd576040805162461bcd60e51b815260206004820152600560248201526456545f4e5760d81b604482015290519081900360640190fd5b600054610100900460ff1680611819575061181961100b565b80611827575060005460ff16155b6118625760405162461bcd60e51b815260040180806020018281038252602e815260200180611b2e602e913960400191505060405180910390fd5b600054610100900460ff1615801561188d576000805460ff1961ff0019909116610100171660011790555b6118956118a9565b8015610f50576000805461ff001916905550565b600054610100900460ff16806118c257506118c261100b565b806118d0575060005460ff16155b61190b5760405162461bcd60e51b815260040180806020018281038252602e815260200180611b2e602e913960400191505060405180910390fd5b600054610100900460ff16158015611895576000805460ff1961ff0019909116610100171660011790558015610f50576000805461ff001916905550565b600054610100900460ff1680611962575061196261100b565b80611970575060005460ff16155b6119ab5760405162461bcd60e51b815260040180806020018281038252602e815260200180611b2e602e913960400191505060405180910390fd5b600054610100900460ff161580156119d6576000805460ff1961ff0019909116610100171660011790555b82516119e990606a906020860190611a21565b5081516119fd90606b906020850190611a21565b50606c805460ff1916601217905580156110cd576000805461ff0019169055505050565b828054600181600116156101000203166002900490600052602060002090601f016020900481019282611a575760008555611a9d565b82601f10611a7057805160ff1916838001178555611a9d565b82800160010185558215611a9d579182015b82811115611a9d578251825591602001919060010190611a82565b50611aa9929150611aad565b5090565b5b80821115611aa95760008155600101611aae56fe45524332303a207472616e7366657220746f20746865207a65726f206164647265737345524332303a20617070726f766520746f20746865207a65726f206164647265737345524332303a207472616e7366657220616d6f756e7420657863656564732062616c616e6365496e697469616c697a61626c653a20636f6e747261637420697320616c726561647920696e697469616c697a6564536166654d6174683a206d756c7469706c69636174696f6e206f766572666c6f7745524332303a207472616e7366657220616d6f756e74206578636565647320616c6c6f77616e636545524332303a207472616e736665722066726f6d20746865207a65726f206164647265737345524332303a20617070726f76652066726f6d20746865207a65726f206164647265737345524332303a2064656372656173656420616c6c6f77616e63652062656c6f77207a65726fa2646970667358221220f4181fb291bc18e39dbdd969c6290f495922862ab04610debd8661dd4b93921864736f6c63430007060033",
  "linkReferences": {},
  "deployedLinkReferences": {}
}