{
  "_format": "hh-sol-artifact-1",
  "contractName": "PerpV2VirtualToken",
  "sourceName": "contracts/VirtualToken.sol",
  "abi": [
    {
      "anonymous": false,
      "inputs": [
        {
          "indexed": true,
          "internalType": "address",
          "name": "owner",
          "type": "address"
        },
        {
          "indexed": true,
          "internalType": "address",
          "name": "spender",
          "type": "address"
        },
        {
          "indexed": false,
          "internalType": "uint256",
          "name": "value",
          "type": "uint256"
        }
      ],
      "name": "Approval",
      "type": "event"
    },
    {
      "anonymous": false,
      "inputs": [
        {
          "indexed": true,
          "internalType": "address",
          "name": "previousOwner",
          "type": "address"
        },
        {
          "indexed": true,
          "internalType": "address",
          "name": "newOwner",
          "type": "address"
        }
      ],
      "name": "OwnershipTransferred",
      "type": "event"
    },
    {
      "anonymous": false,
      "inputs": [
        {
          "indexed": true,
          "internalType": "address",
          "name": "from",
          "type": "address"
        },
        {
          "indexed": true,
          "internalType": "address",
          "name": "to",
          "type": "address"
        },
        {
          "indexed": false,
          "internalType": "uint256",
          "name": "value",
          "type": "uint256"
        }
      ],
      "name": "Transfer",
      "type": "event"
    },
    {
      "anonymous": false,
      "inputs": [
        {
          "indexed": false,
          "internalType": "address",
          "name": "account",
          "type": "address"
        }
      ],
      "name": "WhitelistAdded",
      "type": "event"
    },
    {
      "anonymous": false,
      "inputs": [
        {
          "indexed": false,
          "internalType": "address",
          "name": "account",
          "type": "address"
        }
      ],
      "name": "WhitelistRemoved",
      "type": "event"
    },
    {
      "inputs": [
        {
          "internalType": "address",
          "name": "account",
          "type": "address"
        }
      ],
      "name": "addWhitelist",
      "outputs": [],
      "stateMutability": "nonpayable",
      "type": "function"
    },
    {
      "inputs": [
        {
          "internalType": "address",
          "name": "owner",
          "type": "address"
        },
        {
          "internalType": "address",
          "name": "spender",
          "type": "address"
        }
      ],
      "name": "allowance",
      "outputs": [
        {
          "internalType": "uint256",
          "name": "",
          "type": "uint256"
        }
      ],
      "stateMutability": "view",
      "type": "function"
    },
    {
      "inputs": [
        {
          "internalType": "address",
          "name": "spender",
          "type": "address"
        },
        {
          "internalType": "uint256",
          "name": "amount",
          "type": "uint256"
        }
      ],
      "name": "approve",
      "outputs": [
        {
          "internalType": "bool",
          "name": "",
          "type": "bool"
        }
      ],
      "stateMutability": "nonpayable",
      "type": "function"
    },
    {
      "inputs": [
        {
          "internalType": "address",
          "name": "account",
          "type": "address"
        }
      ],
      "name": "balanceOf",
      "outputs": [
        {
          "internalType": "uint256",
          "name": "",
          "type": "uint256"
        }
      ],
      "stateMutability": "view",
      "type": "function"
    },
    {
      "inputs": [],
      "name": "candidate",
      "outputs": [
        {
          "internalType": "address",
          "name": "",
          "type": "address"
        }
      ],
      "stateMutability": "view",
      "type": "function"
    },
    {
      "inputs": [],
      "name": "decimals",
      "outputs": [
        {
          "internalType": "uint8",
          "name": "",
          "type": "uint8"
        }
      ],
      "stateMutability": "view",
      "type": "function"
    },
    {
      "inputs": [
        {
          "internalType": "address",
          "name": "spender",
          "type": "address"
        },
        {
          "internalType": "uint256",
          "name": "subtractedValue",
          "type": "uint256"
        }
      ],
      "name": "decreaseAllowance",
      "outputs": [
        {
          "internalType": "bool",
          "name": "",
          "type": "bool"
        }
      ],
      "stateMutability": "nonpayable",
      "type": "function"
    },
    {
      "inputs": [
        {
          "internalType": "address",
          "name": "spender",
          "type": "address"
        },
        {
          "internalType": "uint256",
          "name": "addedValue",
          "type": "uint256"
        }
      ],
      "name": "increaseAllowance",
      "outputs": [
        {
          "internalType": "bool",
          "name": "",
          "type": "bool"
        }
      ],
      "stateMutability": "nonpayable",
      "type": "function"
    },
    {
      "inputs": [
        {
          "internalType": "address",
          "name": "account",
          "type": "address"
        }
      ],
      "name": "isInWhitelist",
      "outputs": [
        {
          "internalType": "bool",
          "name": "",
          "type": "bool"
        }
      ],
      "stateMutability": "view",
      "type": "function"
    },
    {
      "inputs": [
        {
          "internalType": "address",
          "name": "recipient",
          "type": "address"
        }
      ],
      "name": "mintMaximumTo",
      "outputs": [],
      "stateMutability": "nonpayable",
      "type": "function"
    },
    {
      "inputs": [],
      "name": "name",
      "outputs": [
        {
          "internalType": "string",
          "name": "",
          "type": "string"
        }
      ],
      "stateMutability": "view",
      "type": "function"
    },
    {
      "inputs": [],
      "name": "owner",
      "outputs": [
        {
          "internalType": "address",
          "name": "",
          "type": "address"
        }
      ],
      "stateMutability": "view",
      "type": "function"
    },
    {
      "inputs": [
        {
          "internalType": "address",
          "name": "account",
          "type": "address"
        }
      ],
      "name": "removeWhitelist",
      "outputs": [],
      "stateMutability": "nonpayable",
      "type": "function"
    },
    {
      "inputs": [],
      "name": "renounceOwnership",
      "outputs": [],
      "stateMutability": "nonpayable",
      "type": "function"
    },
    {
      "inputs": [
        {
          "internalType": "address",
          "name": "newOwner",
          "type": "address"
        }
      ],
      "name": "setOwner",
      "outputs": [],
      "stateMutability": "nonpayable",
      "type": "function"
    },
    {
      "inputs": [],
      "name": "symbol",
      "outputs": [
        {
          "internalType": "string",
          "name": "",
          "type": "string"
        }
      ],
      "stateMutability": "view",
      "type": "function"
    },
    {
      "inputs": [],
      "name": "totalSupply",
      "outputs": [
        {
          "internalType": "uint256",
          "name": "",
          "type": "uint256"
        }
      ],
      "stateMutability": "view",
      "type": "function"
    },
    {
      "inputs": [
        {
          "internalType": "address",
          "name": "recipient",
          "type": "address"
        },
        {
          "internalType": "uint256",
          "name": "amount",
          "type": "uint256"
        }
      ],
      "name": "transfer",
      "outputs": [
        {
          "internalType": "bool",
          "name": "",
          "type": "bool"
        }
      ],
      "stateMutability": "nonpayable",
      "type": "function"
    },
    {
      "inputs": [
        {
          "internalType": "address",
          "name": "sender",
          "type": "address"
        },
        {
          "internalType": "address",
          "name": "recipient",
          "type": "address"
        },
        {
          "internalType": "uint256",
          "name": "amount",
          "type": "uint256"
        }
      ],
      "name": "transferFrom",
      "outputs": [
        {
          "internalType": "bool",
          "name": "",
          "type": "bool"
        }
      ],
      "stateMutability": "nonpayable",
      "type": "function"
    },
    {
      "inputs": [],
      "name": "updateOwner",
      "outputs": [],
      "stateMutability": "nonpayable",
      "type": "function"
    }
  ],
  "bytecode": "0x608060405234801561001057600080fd5b506111ff806100206000396000f3fe608060405234801561001057600080fd5b50600436106100fc5760003560e01c806306fdde0314610101578063095ea7b31461017e57806309fd8212146101be57806313af4035146101e457806318160ddd1461020c57806323b872dd14610226578063313ce5671461025c578063395093511461027a5780636c8381f8146102a657806370a08231146102ca578063715018a6146102f057806378c8cda7146102f85780638da5cb5b1461031e57806395d89b4114610326578063a457c2d71461032e578063a9059cbb1461035a578063bc5920ba14610386578063dd62ed3e1461038e578063f52e308e146103bc578063f80f5dd5146103e2575b600080fd5b610109610408565b6040805160208082528351818301528351919283929083019185019080838360005b8381101561014357818101518382015260200161012b565b50505050905090810190601f1680156101705780820380516001836020036101000a031916815260200191505b509250505060405180910390f35b6101aa6004803603604081101561019457600080fd5b506001600160a01b03813516906020013561049e565b604080519115158252519081900360200190f35b6101aa600480360360208110156101d457600080fd5b50356001600160a01b03166104bb565b61020a600480360360208110156101fa57600080fd5b50356001600160a01b03166104d9565b005b610214610634565b60408051918252519081900360200190f35b6101aa6004803603606081101561023c57600080fd5b506001600160a01b0381358116916020810135909116906040013561063a565b6102646106c1565b6040805160ff9092168252519081900360200190f35b6101aa6004803603604081101561029057600080fd5b506001600160a01b0381351690602001356106ca565b6102ae610718565b604080516001600160a01b039092168252519081900360200190f35b610214600480360360208110156102e057600080fd5b50356001600160a01b0316610727565b61020a610742565b61020a6004803603602081101561030e57600080fd5b50356001600160a01b03166107e3565b6102ae6108dc565b6101096108eb565b6101aa6004803603604081101561034457600080fd5b506001600160a01b03813516906020013561094c565b6101aa6004803603604081101561037057600080fd5b506001600160a01b0381351690602001356109b4565b61020a6109c8565b610214600480360360408110156103a457600080fd5b506001600160a01b0381358116916020013516610ab4565b61020a600480360360208110156103d257600080fd5b50356001600160a01b0316610adf565b61020a600480360360208110156103f857600080fd5b50356001600160a01b0316610b4b565b606a8054604080516020601f60026000196101006001881615020190951694909404938401819004810282018101909252828152606093909290918301828280156104945780601f1061046957610100808354040283529160200191610494565b820191906000526020600020905b81548152906001019060200180831161047757829003601f168201915b5050505050905090565b60006104b26104ab610c03565b8484610c07565b50600192915050565b6001600160a01b031660009081526099602052604090205460ff1690565b6104e1610c03565b6001600160a01b03166104f26108dc565b6001600160a01b031614610536576040805162461bcd60e51b8152602060048201526006602482015265534f5f434e4f60d01b604482015290519081900360640190fd5b6001600160a01b03811661057a576040805162461bcd60e51b81526020600482015260066024820152650534f5f4e57360d41b604482015290519081900360640190fd5b6033546001600160a01b03828116911614156105c6576040805162461bcd60e51b8152602060048201526006602482015265534f5f53414f60d01b604482015290519081900360640190fd5b6034546001600160a01b0382811691161415610612576040805162461bcd60e51b8152602060048201526006602482015265534f5f53414360d01b604482015290519081900360640190fd5b603480546001600160a01b0319166001600160a01b0392909216919091179055565b60695490565b6000610647848484610cf3565b6106b784610653610c03565b6106b2856040518060600160405280602881526020016110f4602891396001600160a01b038a16600090815260686020526040812090610691610c03565b6001600160a01b031681526020810191909152604001600020549190610e3e565b610c07565b5060019392505050565b606c5460ff1690565b60006104b26106d7610c03565b846106b285606860006106e8610c03565b6001600160a01b03908116825260208083019390935260409182016000908120918c168152925290205490610ed5565b6034546001600160a01b031690565b6001600160a01b031660009081526067602052604090205490565b61074a610c03565b6001600160a01b031661075b6108dc565b6001600160a01b03161461079f576040805162461bcd60e51b8152602060048201526006602482015265534f5f434e4f60d01b604482015290519081900360640190fd5b6033546040516000916001600160a01b03169060008051602061111c833981519152908390a3603380546001600160a01b0319908116909155603480549091169055565b6107eb610c03565b6001600160a01b03166107fc6108dc565b6001600160a01b031614610840576040805162461bcd60e51b8152602060048201526006602482015265534f5f434e4f60d01b604482015290519081900360640190fd5b61084981610727565b15610884576040805162461bcd60e51b81526020600482015260066024820152652b2a2fa1272d60d11b604482015290519081900360640190fd5b6001600160a01b038116600081815260996020908152604091829020805460ff19169055815192835290517fde8cf212af7ce38b2840785a2768d97ff2dbf3c21b516961cec0061e134c2a1e9281900390910190a150565b6033546001600160a01b031690565b606b8054604080516020601f60026000196101006001881615020190951694909404938401819004810282018101909252828152606093909290918301828280156104945780601f1061046957610100808354040283529160200191610494565b60006104b2610959610c03565b846106b2856040518060600160405280602581526020016111a56025913960686000610983610c03565b6001600160a01b03908116825260208083019390935260409182016000908120918d16815292529020549190610e3e565b60006104b26109c1610c03565b8484610cf3565b6034546001600160a01b0316610a0d576040805162461bcd60e51b81526020600482015260056024820152640534f5f43360dc1b604482015290519081900360640190fd5b610a15610c03565b6034546001600160a01b03908116911614610a60576040805162461bcd60e51b8152602060048201526006602482015265534f5f434e4360d01b604482015290519081900360640190fd5b6034546033546040516001600160a01b03928316929091169060008051602061111c83398151915290600090a360348054603380546001600160a01b03199081166001600160a01b03841617909155169055565b6001600160a01b03918216600090815260686020908152604080832093909416825291909152205490565b610ae7610c03565b6001600160a01b0316610af86108dc565b6001600160a01b031614610b3c576040805162461bcd60e51b8152602060048201526006602482015265534f5f434e4f60d01b604482015290519081900360640190fd5b610b4881600019610f34565b50565b610b53610c03565b6001600160a01b0316610b646108dc565b6001600160a01b031614610ba8576040805162461bcd60e51b8152602060048201526006602482015265534f5f434e4f60d01b604482015290519081900360640190fd5b6001600160a01b038116600081815260996020908152604091829020805460ff19166001179055815192835290517f4790a4adb426ca2345bb5108f6e454eae852a7bf687544cd66a7270dff3a41d69281900390910190a150565b3390565b6001600160a01b038316610c4c5760405162461bcd60e51b81526004018080602001828103825260248152602001806111816024913960400191505060405180910390fd5b6001600160a01b038216610c915760405162461bcd60e51b81526004018080602001828103825260228152602001806110ac6022913960400191505060405180910390fd5b6001600160a01b03808416600081815260686020908152604080832094871680845294825291829020859055815185815291517f8c5be1e5ebec7d5bd14f71427d1e84f3dd0314c0f7b2291e5b200ac8c7c3b9259281900390910190a3505050565b6001600160a01b038316610d385760405162461bcd60e51b815260040180806020018281038252602581526020018061115c6025913960400191505060405180910390fd5b6001600160a01b038216610d7d5760405162461bcd60e51b81526004018080602001828103825260238152602001806110896023913960400191505060405180910390fd5b610d88838383611014565b610dc5816040518060600160405280602681526020016110ce602691396001600160a01b0386166000908152606760205260409020549190610e3e565b6001600160a01b038085166000908152606760205260408082209390935590841681522054610df49082610ed5565b6001600160a01b03808416600081815260676020908152604091829020949094558051858152905191939287169260008051602061113c83398151915292918290030190a3505050565b60008184841115610ecd5760405162461bcd60e51b81526004018080602001828103825283818151815260200191508051906020019080838360005b83811015610e92578181015183820152602001610e7a565b50505050905090810190601f168015610ebf5780820380516001836020036101000a031916815260200191505b509250505060405180910390fd5b505050900390565b600082820183811015610f2d576040805162461bcd60e51b815260206004820152601b60248201527a536166654d6174683a206164646974696f6e206f766572666c6f7760281b604482015290519081900360640190fd5b9392505050565b6001600160a01b038216610f8f576040805162461bcd60e51b815260206004820152601f60248201527f45524332303a206d696e7420746f20746865207a65726f206164647265737300604482015290519081900360640190fd5b610f9b60008383611014565b606954610fa89082610ed5565b6069556001600160a01b038216600090815260676020526040902054610fce9082610ed5565b6001600160a01b038316600081815260676020908152604080832094909455835185815293519293919260008051602061113c8339815191529281900390910190a35050565b61101f838383611083565b6001600160a01b03831615611083576001600160a01b03831660009081526099602052604090205460ff16611083576040805162461bcd60e51b815260206004820152600560248201526456545f4e5760d81b604482015290519081900360640190fd5b50505056fe45524332303a207472616e7366657220746f20746865207a65726f206164647265737345524332303a20617070726f766520746f20746865207a65726f206164647265737345524332303a207472616e7366657220616d6f756e7420657863656564732062616c616e636545524332303a207472616e7366657220616d6f756e74206578636565647320616c6c6f77616e63658be0079c531659141344cd1fd0a4f28419497f9722a3daafe3b4186f6b6457e0ddf252ad1be2c89b69c2b068fc378daa952ba7f163c4a11628f55a4df523b3ef45524332303a207472616e736665722066726f6d20746865207a65726f206164647265737345524332303a20617070726f76652066726f6d20746865207a65726f206164647265737345524332303a2064656372656173656420616c6c6f77616e63652062656c6f77207a65726fa26469706673582212203c3f84b47f63279f505cd0f747d51ad08a919299177fcd94b1ae924c152abd3f64736f6c63430007060033",
  "linkReferences": {},
  "deployedLinkReferences": {}
}