{
  "_format": "hh-sol-artifact-1",
  "contractName": "PerpV2AccountBalance",
  "sourceName": "contracts/AccountBalance.sol",
  "abi": [
    {
      "anonymous": false,
      "inputs": [
        {
          "indexed": true,
          "internalType": "address",
          "name": "clearingHouse",
          "type": "address"
        }
      ],
      "name": "ClearingHouseChanged",
      "type": "event"
    },
    {
      "anonymous": false,
      "inputs": [
        {
          "indexed": true,
          "internalType": "address",
          "name": "previousOwner",
          "type": "address"
        },
        {
          "indexed": true,
          "internalType": "address",
          "name": "newOwner",
          "type": "address"
        }
      ],
      "name": "OwnershipTransferred",
      "type": "event"
    },
    {
      "anonymous": false,
      "inputs": [
        {
          "indexed": true,
          "internalType": "address",
          "name": "trader",
          "type": "address"
        },
        {
          "indexed": false,
          "internalType": "int256",
          "name": "amount",
          "type": "int256"
        }
      ],
      "name": "PnlRealized",
      "type": "event"
    },
    {
      "anonymous": false,
      "inputs": [
        {
          "indexed": true,
          "internalType": "address",
          "name": "trader",
          "type": "address"
        },
        {
          "indexed": true,
          "internalType": "address",
          "name": "baseToken",
          "type": "address"
        },
        {
          "indexed": false,
          "internalType": "int256",
          "name": "deltaBase",
          "type": "int256"
        },
        {
          "indexed": false,
          "internalType": "int256",
          "name": "deltaQuote",
          "type": "int256"
        }
      ],
      "name": "TakerBalancesChanged",
      "type": "event"
    },
    {
      "anonymous": false,
      "inputs": [
        {
          "indexed": true,
          "internalType": "address",
          "name": "vault",
          "type": "address"
        }
      ],
      "name": "VaultChanged",
      "type": "event"
    },
    {
      "inputs": [
        {
          "internalType": "address",
          "name": "trader",
          "type": "address"
        },
        {
          "internalType": "int256",
          "name": "delta",
          "type": "int256"
        }
      ],
      "name": "addOwedRealizedPnl",
      "outputs": [],
      "stateMutability": "nonpayable",
      "type": "function"
    },
    {
      "inputs": [
        {
          "internalType": "address",
          "name": "trader",
          "type": "address"
        },
        {
          "internalType": "address",
          "name": "baseToken",
          "type": "address"
        },
        {
          "internalType": "int256",
          "name": "deltaTakerBase",
          "type": "int256"
        },
        {
          "internalType": "int256",
          "name": "deltaTakerQuote",
          "type": "int256"
        }
      ],
      "name": "addTakerBalances",
      "outputs": [],
      "stateMutability": "nonpayable",
      "type": "function"
    },
    {
      "inputs": [],
      "name": "candidate",
      "outputs": [
        {
          "internalType": "address",
          "name": "",
          "type": "address"
        }
      ],
      "stateMutability": "view",
      "type": "function"
    },
    {
      "inputs": [
        {
          "internalType": "address",
          "name": "trader",
          "type": "address"
        },
        {
          "internalType": "address",
          "name": "baseToken",
          "type": "address"
        }
      ],
      "name": "deregisterBaseToken",
      "outputs": [],
      "stateMutability": "nonpayable",
      "type": "function"
    },
    {
      "inputs": [
        {
          "internalType": "address",
          "name": "trader",
          "type": "address"
        },
        {
          "internalType": "address",
          "name": "baseToken",
          "type": "address"
        }
      ],
      "name": "getAccountInfo",
      "outputs": [
        {
          "components": [
            {
              "internalType": "int256",
              "name": "takerBaseBalance",
              "type": "int256"
            },
            {
              "internalType": "int256",
              "name": "takerQuoteBalance",
              "type": "int256"
            },
            {
              "internalType": "int256",
              "name": "lastTwPremiumGrowthGlobalX96",
              "type": "int256"
            }
          ],
          "internalType": "struct AccountMarket.Info",
          "name": "",
          "type": "tuple"
        }
      ],
      "stateMutability": "view",
      "type": "function"
    },
    {
      "inputs": [
        {
          "internalType": "address",
          "name": "trader",
          "type": "address"
        },
        {
          "internalType": "address",
          "name": "baseToken",
          "type": "address"
        }
      ],
      "name": "getBase",
      "outputs": [
        {
          "internalType": "int256",
          "name": "",
          "type": "int256"
        }
      ],
      "stateMutability": "view",
      "type": "function"
    },
    {
      "inputs": [
        {
          "internalType": "address",
          "name": "trader",
          "type": "address"
        }
      ],
      "name": "getBaseTokens",
      "outputs": [
        {
          "internalType": "address[]",
          "name": "",
          "type": "address[]"
        }
      ],
      "stateMutability": "view",
      "type": "function"
    },
    {
      "inputs": [],
      "name": "getClearingHouse",
      "outputs": [
        {
          "internalType": "address",
          "name": "",
          "type": "address"
        }
      ],
      "stateMutability": "view",
      "type": "function"
    },
    {
      "inputs": [],
      "name": "getClearingHouseConfig",
      "outputs": [
        {
          "internalType": "address",
          "name": "",
          "type": "address"
        }
      ],
      "stateMutability": "view",
      "type": "function"
    },
    {
      "inputs": [],
      "name": "getExchange",
      "outputs": [
        {
          "internalType": "address",
          "name": "",
          "type": "address"
        }
      ],
      "stateMutability": "view",
      "type": "function"
    },
    {
      "inputs": [
        {
          "internalType": "address",
          "name": "trader",
          "type": "address"
        }
      ],
      "name": "getMarginRequirementForLiquidation",
      "outputs": [
        {
          "internalType": "int256",
          "name": "",
          "type": "int256"
        }
      ],
      "stateMutability": "view",
      "type": "function"
    },
    {
      "inputs": [
        {
          "internalType": "address",
          "name": "trader",
          "type": "address"
        }
      ],
      "name": "getNetQuoteBalanceAndPendingFee",
      "outputs": [
        {
          "internalType": "int256",
          "name": "netQuoteBalance",
          "type": "int256"
        },
        {
          "internalType": "uint256",
          "name": "pendingFee",
          "type": "uint256"
        }
      ],
      "stateMutability": "view",
      "type": "function"
    },
    {
      "inputs": [],
      "name": "getOrderBook",
      "outputs": [
        {
          "internalType": "address",
          "name": "",
          "type": "address"
        }
      ],
      "stateMutability": "view",
      "type": "function"
    },
    {
      "inputs": [
        {
          "internalType": "address",
          "name": "trader",
          "type": "address"
        }
      ],
      "name": "getPnlAndPendingFee",
      "outputs": [
        {
          "internalType": "int256",
          "name": "",
          "type": "int256"
        },
        {
          "internalType": "int256",
          "name": "",
          "type": "int256"
        },
        {
          "internalType": "uint256",
          "name": "",
          "type": "uint256"
        }
      ],
      "stateMutability": "view",
      "type": "function"
    },
    {
      "inputs": [
        {
          "internalType": "address",
          "name": "trader",
          "type": "address"
        },
        {
          "internalType": "address",
          "name": "baseToken",
          "type": "address"
        }
      ],
      "name": "getQuote",
      "outputs": [
        {
          "internalType": "int256",
          "name": "",
          "type": "int256"
        }
      ],
      "stateMutability": "view",
      "type": "function"
    },
    {
      "inputs": [
        {
          "internalType": "address",
          "name": "trader",
          "type": "address"
        },
        {
          "internalType": "address",
          "name": "baseToken",
          "type": "address"
        }
      ],
      "name": "getTakerOpenNotional",
      "outputs": [
        {
          "internalType": "int256",
          "name": "",
          "type": "int256"
        }
      ],
      "stateMutability": "view",
      "type": "function"
    },
    {
      "inputs": [
        {
          "internalType": "address",
          "name": "trader",
          "type": "address"
        },
        {
          "internalType": "address",
          "name": "baseToken",
          "type": "address"
        }
      ],
      "name": "getTakerPositionSize",
      "outputs": [
        {
          "internalType": "int256",
          "name": "",
          "type": "int256"
        }
      ],
      "stateMutability": "view",
      "type": "function"
    },
    {
      "inputs": [
        {
          "internalType": "address",
          "name": "trader",
          "type": "address"
        }
      ],
      "name": "getTotalAbsPositionValue",
      "outputs": [
        {
          "internalType": "uint256",
          "name": "",
          "type": "uint256"
        }
      ],
      "stateMutability": "view",
      "type": "function"
    },
    {
      "inputs": [
        {
          "internalType": "address",
          "name": "trader",
          "type": "address"
        }
      ],
      "name": "getTotalDebtValue",
      "outputs": [
        {
          "internalType": "uint256",
          "name": "",
          "type": "uint256"
        }
      ],
      "stateMutability": "view",
      "type": "function"
    },
    {
      "inputs": [
        {
          "internalType": "address",
          "name": "trader",
          "type": "address"
        },
        {
          "internalType": "address",
          "name": "baseToken",
          "type": "address"
        }
      ],
      "name": "getTotalOpenNotional",
      "outputs": [
        {
          "internalType": "int256",
          "name": "",
          "type": "int256"
        }
      ],
      "stateMutability": "view",
      "type": "function"
    },
    {
      "inputs": [
        {
          "internalType": "address",
          "name": "trader",
          "type": "address"
        },
        {
          "internalType": "address",
          "name": "baseToken",
          "type": "address"
        }
      ],
      "name": "getTotalPositionSize",
      "outputs": [
        {
          "internalType": "int256",
          "name": "",
          "type": "int256"
        }
      ],
      "stateMutability": "view",
      "type": "function"
    },
    {
      "inputs": [
        {
          "internalType": "address",
          "name": "trader",
          "type": "address"
        },
        {
          "internalType": "address",
          "name": "baseToken",
          "type": "address"
        }
      ],
      "name": "getTotalPositionValue",
      "outputs": [
        {
          "internalType": "int256",
          "name": "",
          "type": "int256"
        }
      ],
      "stateMutability": "view",
      "type": "function"
    },
    {
      "inputs": [],
      "name": "getVault",
      "outputs": [
        {
          "internalType": "address",
          "name": "",
          "type": "address"
        }
      ],
      "stateMutability": "view",
      "type": "function"
    },
    {
      "inputs": [
        {
          "internalType": "address",
          "name": "trader",
          "type": "address"
        }
      ],
      "name": "hasOrder",
      "outputs": [
        {
          "internalType": "bool",
          "name": "",
          "type": "bool"
        }
      ],
      "stateMutability": "view",
      "type": "function"
    },
    {
      "inputs": [
        {
          "internalType": "address",
          "name": "clearingHouseConfigArg",
          "type": "address"
        },
        {
          "internalType": "address",
          "name": "exchangeArg",
          "type": "address"
        }
      ],
      "name": "initialize",
      "outputs": [],
      "stateMutability": "nonpayable",
      "type": "function"
    },
    {
      "inputs": [],
      "name": "owner",
      "outputs": [
        {
          "internalType": "address",
          "name": "",
          "type": "address"
        }
      ],
      "stateMutability": "view",
      "type": "function"
    },
    {
      "inputs": [
        {
          "internalType": "address",
          "name": "trader",
          "type": "address"
        },
        {
          "internalType": "address",
          "name": "baseToken",
          "type": "address"
        }
      ],
      "name": "registerBaseToken",
      "outputs": [],
      "stateMutability": "nonpayable",
      "type": "function"
    },
    {
      "inputs": [],
      "name": "renounceOwnership",
      "outputs": [],
      "stateMutability": "nonpayable",
      "type": "function"
    },
    {
      "inputs": [
        {
          "internalType": "address",
          "name": "clearingHouseArg",
          "type": "address"
        }
      ],
      "name": "setClearingHouse",
      "outputs": [],
      "stateMutability": "nonpayable",
      "type": "function"
    },
    {
      "inputs": [
        {
          "internalType": "address",
          "name": "newOwner",
          "type": "address"
        }
      ],
      "name": "setOwner",
      "outputs": [],
      "stateMutability": "nonpayable",
      "type": "function"
    },
    {
      "inputs": [
        {
          "internalType": "address",
          "name": "vaultArg",
          "type": "address"
        }
      ],
      "name": "setVault",
      "outputs": [],
      "stateMutability": "nonpayable",
      "type": "function"
    },
    {
      "inputs": [
        {
          "internalType": "address",
          "name": "maker",
          "type": "address"
        },
        {
          "internalType": "address",
          "name": "baseToken",
          "type": "address"
        },
        {
          "internalType": "int256",
          "name": "deltaTakerBase",
          "type": "int256"
        },
        {
          "internalType": "int256",
          "name": "deltaTakerQuote",
          "type": "int256"
        },
        {
          "internalType": "int256",
          "name": "realizedPnl",
          "type": "int256"
        },
        {
          "internalType": "int256",
          "name": "fee",
          "type": "int256"
        }
      ],
      "name": "settleBalanceAndDeregister",
      "outputs": [],
      "stateMutability": "nonpayable",
      "type": "function"
    },
    {
      "inputs": [
        {
          "internalType": "address",
          "name": "trader",
          "type": "address"
        }
      ],
      "name": "settleOwedRealizedPnl",
      "outputs": [
        {
          "internalType": "int256",
          "name": "",
          "type": "int256"
        }
      ],
      "stateMutability": "nonpayable",
      "type": "function"
    },
    {
      "inputs": [
        {
          "internalType": "address",
          "name": "trader",
          "type": "address"
        },
        {
          "internalType": "address",
          "name": "baseToken",
          "type": "address"
        },
        {
          "internalType": "int256",
          "name": "amount",
          "type": "int256"
        }
      ],
      "name": "settleQuoteToPnl",
      "outputs": [],
      "stateMutability": "nonpayable",
      "type": "function"
    },
    {
      "inputs": [],
      "name": "updateOwner",
      "outputs": [],
      "stateMutability": "nonpayable",
      "type": "function"
    },
    {
      "inputs": [
        {
          "internalType": "address",
          "name": "trader",
          "type": "address"
        },
        {
          "internalType": "address",
          "name": "baseToken",
          "type": "address"
        },
        {
          "internalType": "int256",
          "name": "lastTwPremiumGrowthGlobalX96",
          "type": "int256"
        }
      ],
      "name": "updateTwPremiumGrowthGlobal",
      "outputs": [],
      "stateMutability": "nonpayable",
      "type": "function"
    }
  ],
  "bytecode": "0x608060405234801561001057600080fd5b50612c53806100206000396000f3fe608060405234801561001057600080fd5b50600436106101ac5760003560e01c806313af4035146101b1578063293a5077146101c65780632e4586c3146101ef57806337724702146102025780633f93510714610215578063449323d814610228578063485cc9551461023b5780634c294e5f1461024e5780636332fef61461026f5780636817031b1461028f57806368f12e12146102a25780636c8381f8146102b55780636ccdc82e146102ca578063715018a6146102dd5780637a5b45a0146102e557806389f92177146102f85780638d928af81461030b5780638da5cb5b14610313578063aa2a82941461031b578063af74e73614610323578063b248c4ef14610343578063b2e271481461034b578063b39456901461035e578063b3bd6e1214610371578063bba85bcf14610384578063bc5920ba146103a6578063c575ff79146103ae578063cb3c7b8e146103b6578063d50d01b7146103d6578063ea45a8f9146103e9578063f0c79797146103fc578063f75c266d1461040f578063f807cd2214610422578063fa8e30af1461042a578063fc7372141461043d578063fd6ceee514610450575b600080fd5b6101c46101bf366004612580565b610463565b005b6101d96101d4366004612580565b6105be565b6040516101e6919061296e565b60405180910390f35b6101c46101fd3660046125f0565b6106bf565b6101c46102103660046126cd565b610731565b6101d96102233660046125b8565b61079e565b6101c4610236366004612580565b6107e0565b6101c46102493660046125b8565b610887565b61026161025c366004612580565b610a6e565b6040516101e692919061298d565b61028261027d3660046125b8565b610bb2565b6040516101e69190612b1b565b6101c461029d366004612580565b610c09565b6101d96102b03660046125b8565b610cde565b6102bd610e6e565b6040516101e69190612868565b6101d96102d8366004612580565b610e7d565b6101c4610f46565b6101d96102f33660046125b8565b610fe7565b6101c4610306366004612675565b6110b5565b6102bd6111ec565b6102bd6111fb565b6102bd61120a565b610336610331366004612580565b611219565b6040516101e69190612916565b6102bd61128f565b6101d96103593660046125b8565b61129e565b6101d961036c3660046125b8565b6112e6565b6101d961037f3660046125b8565b611392565b610397610392366004612580565b611456565b6040516101e693929190612977565b6101c4611520565b6102bd61160c565b6103c96103c4366004612580565b61161b565b6040516101e69190612963565b6101d96103e43660046125b8565b6116af565b6101c46103f7366004612630565b6116dd565b6101c461040a3660046125f0565b61174e565b6101d961041d366004612580565b611793565b6102bd611830565b6101c46104383660046125b8565b61183f565b6101c461044b3660046125b8565b611851565b6101d961045e366004612580565b6119aa565b61046b611a07565b6001600160a01b031661047c6111fb565b6001600160a01b0316146104c0576040805162461bcd60e51b8152602060048201526006602482015265534f5f434e4f60d01b604482015290519081900360640190fd5b6001600160a01b038116610504576040805162461bcd60e51b81526020600482015260066024820152650534f5f4e57360d41b604482015290519081900360640190fd5b6033546001600160a01b0382811691161415610550576040805162461bcd60e51b8152602060048201526006602482015265534f5f53414f60d01b604482015290519081900360640190fd5b6034546001600160a01b038281169116141561059c576040805162461bcd60e51b8152602060048201526006602482015265534f5f53414360d01b604482015290519081900360640190fd5b603480546001600160a01b0319166001600160a01b0392909216919091179055565b6001600160a01b0381166000908152609f602052604081205481908190815b8181101561068d576001600160a01b0386166000908152609f6020526040812080548390811061060957fe5b60009182526020822001546001600160a01b031691506106298883611392565b905060008082121561065c5761065961064961064485611a0b565b611b0e565b8390670de0b6b3a7640000611b5a565b90505b6106668682611c00565b955061067c6106758a85610fe7565b8890611c00565b965050600190920191506105dd9050565b5060008084121561069e57836106a1565b60005b90506106b56106b08285611c00565b611c65565b9695505050505050565b609b546001600160a01b03166106d3611a07565b6001600160a01b0316146107025760405162461bcd60e51b81526004016106f990612a9a565b60405180910390fd5b6001600160a01b03928316600090815260a0602090815260408083209490951682529290925291902060020155565b609b546001600160a01b0316610745611a07565b6001600160a01b0316148061077457506067546001600160a01b0316610769611a07565b6001600160a01b0316145b6107905760405162461bcd60e51b81526004016106f990612a76565b61079a8282611c8e565b5050565b6000806107ab8484610cde565b9050806107bc5760009150506107da565b60006107c784611a0b565b90506107d561064982611b0e565b925050505b92915050565b6107e8611a07565b6001600160a01b03166107f96111fb565b6001600160a01b03161461083d576040805162461bcd60e51b8152602060048201526006602482015265534f5f434e4f60d01b604482015290519081900360640190fd5b606780546001600160a01b0319166001600160a01b0383169081179091556040517fd0654f5900f9e7e4e605a19334306e6a2786bbf960ac0484a4c12feb6428fe2f90600090a250565b600054610100900460ff16806108a057506108a0611d10565b806108ae575060005460ff16155b6108e95760405162461bcd60e51b815260040180806020018281038252602e815260200180612b84602e913960400191505060405180910390fd5b600054610100900460ff16158015610914576000805460ff1961ff0019909116610100171660011790555b610926836001600160a01b0316611d21565b6109425760405162461bcd60e51b81526004016106f99061299b565b610954826001600160a01b0316611d21565b6109705760405162461bcd60e51b81526004016106f9906129de565b6000826001600160a01b031663b248c4ef6040518163ffffffff1660e01b815260040160206040518083038186803b1580156109ab57600080fd5b505afa1580156109bf573d6000803e3d6000fd5b505050506040513d601f19601f820116820180604052508101906109e3919061259c565b90506109f7816001600160a01b0316611d21565b610a135760405162461bcd60e51b81526004016106f990612a55565b610a1b611d27565b609a80546001600160a01b038087166001600160a01b031992831617909255609b8054868416908316179055609c80549390921692169190911790558015610a69576000805461ff00191690555b505050565b6001600160a01b0381166000908152609f602052604081205481908190815b81811015610b06576001600160a01b0386166000908152609f60205260408120805483908110610ab957fe5b60009182526020808320909101546001600160a01b038a8116845260a08352604080852091909216808552925290912060010154909150610afb908590611c00565b935050600101610a8d565b50609c546001600160a01b038681166000908152609f6020526040808220905163d0581a9360e01b81529193929092169163d0581a9391610b4b918a916004016128ba565b604080518083038186803b158015610b6257600080fd5b505afa158015610b76573d6000803e3d6000fd5b505050506040513d601f19601f82011682018060405250810190610b9a91906127c5565b94509050610ba88382611c00565b9450505050915091565b610bba61255f565b506001600160a01b03918216600090815260a060209081526040808320939094168252918252829020825160608101845281548152600182015492810192909252600201549181019190915290565b610c11611a07565b6001600160a01b0316610c226111fb565b6001600160a01b031614610c66576040805162461bcd60e51b8152602060048201526006602482015265534f5f434e4f60d01b604482015290519081900360640190fd5b610c78816001600160a01b0316611d21565b610c945760405162461bcd60e51b81526004016106f990612ad9565b609d80546001600160a01b0319166001600160a01b0383169081179091556040517fa49691f0dd6477ccef49962612a236d252e3a31c3be8b61fa6abeff3e74a757290600090a250565b609c54604051635d8a541d60e01b815260009182916001600160a01b0390911690635d8a541d90610d189087908790600190600401612896565b604080518083038186803b158015610d2f57600080fd5b505afa158015610d43573d6000803e3d6000fd5b505050506040513d601f19601f82011682018060405250810190610d6791906127c5565b50609c54604051637c2b7c5360e01b81529192506000916001600160a01b0390911690637c2b7c5390610da39088908890600190600401612896565b60206040518083038186803b158015610dbb57600080fd5b505afa158015610dcf573d6000803e3d6000fd5b505050506040513d601f19601f82011682018060405250810190610df3919061280b565b90506000610e12610e0383611b0e565b610e0c85611b0e565b90611dd1565b6001600160a01b03808816600090815260a060209081526040808320938a16835292905290812054919250610e478383611c00565b9050600a610e5482611c65565b10610e5f5780610e62565b60005b98975050505050505050565b6034546001600160a01b031690565b6001600160a01b0381166000908152609f6020908152604080832080548251818502810185019093528083528493830182828015610ee457602002820191906000526020600020905b81546001600160a01b03168152600190910190602001808311610ec6575b505050505090506000808251905060005b81811015610f3c576000848281518110610f0b57fe5b602002602001015190506000610f246106b0898461079e565b9050610f308582611e36565b94505050600101610ef5565b5090949350505050565b610f4e611a07565b6001600160a01b0316610f5f6111fb565b6001600160a01b031614610fa3576040805162461bcd60e51b8152602060048201526006602482015265534f5f434e4f60d01b604482015290519081900360640190fd5b6033546040516000916001600160a01b031690600080516020612bb2833981519152908390a3603380546001600160a01b0319908116909155603480549091169055565b609c54604051637c2b7c5360e01b815260009182916001600160a01b0390911690637c2b7c539061102090879087908690600401612896565b60206040518083038186803b15801561103857600080fd5b505afa15801561104c573d6000803e3d6000fd5b505050506040513d601f19601f82011682018060405250810190611070919061280b565b90506110ad61107e82611b0e565b6001600160a01b03808716600090815260a0602090815260408083209389168352929052206001015490611dd1565b949350505050565b6110bd611e8e565b6110c78682611c8e565b6110d386868686611eca565b6110dd868661129e565b15801561116e5750609c546040516321b499f560e11b81526001600160a01b039091169063436933ea90611117908990899060040161287c565b60006040518083038186803b15801561112f57600080fd5b505afa158015611143573d6000803e3d6000fd5b505050506040513d6000823e601f3d908101601f1916820160405261116b91908101906126f8565b51155b156111cf576001600160a01b03808716600090815260a060209081526040808320938916835292905220600101546111a581611c65565b6111ae84611c65565b11156111cc5760405162461bcd60e51b81526004016106f990612af9565b91505b6111da868684611f18565b6111e48686611f5b565b505050505050565b609d546001600160a01b031690565b6033546001600160a01b031690565b609a546001600160a01b031690565b6001600160a01b0381166000908152609f602090815260409182902080548351818402810184019094528084526060939283018282801561128357602002820191906000526020600020905b81546001600160a01b03168152600190910190602001808311611265575b50505050509050919050565b609c546001600160a01b031690565b6001600160a01b03808316600090815260a060209081526040808320938516835292905290812054600a6112d182611c65565b106112dc57806110ad565b5060009392505050565b609c54604051635d8a541d60e01b815260009182916001600160a01b0390911690635d8a541d9061131f90879087908690600401612896565b604080518083038186803b15801561133657600080fd5b505afa15801561134a573d6000803e3d6000fd5b505050506040513d601f19601f8201168201806040525081019061136e91906127c5565b509050600061137d8585610fe7565b90506107d58161138c84611b0e565b90611c00565b609c54604051637c2b7c5360e01b815260009182916001600160a01b0390911690637c2b7c53906113cc9087908790600190600401612896565b60206040518083038186803b1580156113e457600080fd5b505afa1580156113f8573d6000803e3d6000fd5b505050506040513d601f19601f8201168201806040525081019061141c919061280b565b90506110ad61142a82611b0e565b6001600160a01b03808716600090815260a0602090815260408083209389168352929052205490611dd1565b6001600160a01b0381166000908152609f6020526040812054819081908190815b818110156114d9576001600160a01b0387166000908152609f602052604081208054839081106114a357fe5b6000918252602090912001546001600160a01b031690506114ce6114c7898361079e565b8590611c00565b935050600101611477565b506000806114e688610a6e565b909250905060006114f78584611c00565b6001600160a01b03999099166000908152609e6020526040902054999197509095505050505050565b6034546001600160a01b0316611565576040805162461bcd60e51b81526020600482015260056024820152640534f5f43360dc1b604482015290519081900360640190fd5b61156d611a07565b6034546001600160a01b039081169116146115b8576040805162461bcd60e51b8152602060048201526006602482015265534f5f434e4360d01b604482015290519081900360640190fd5b6034546033546040516001600160a01b039283169290911690600080516020612bb283398151915290600090a360348054603380546001600160a01b03199081166001600160a01b03841617909155169055565b6067546001600160a01b031690565b609c546001600160a01b038281166000908152609f60205260408082209051634dffaee560e01b815291939290921691634dffaee59161165f9186916004016128ba565b60206040518083038186803b15801561167757600080fd5b505afa15801561168b573d6000803e3d6000fd5b505050506040513d601f19601f820116820180604052508101906107da91906127a5565b6001600160a01b03918216600090815260a06020908152604080832093909416825291909152206001015490565b609b546001600160a01b03166116f1611a07565b6001600160a01b0316148061172057506067546001600160a01b0316611715611a07565b6001600160a01b0316145b61173c5760405162461bcd60e51b81526004016106f990612a76565b61174884848484611eca565b50505050565b609b546001600160a01b0316611762611a07565b6001600160a01b0316146117885760405162461bcd60e51b81526004016106f990612a9a565b610a69838383611f18565b60006107da610644609a60009054906101000a90046001600160a01b03166001600160a01b031663a85494026040518163ffffffff1660e01b815260040160206040518083038186803b1580156117e957600080fd5b505afa1580156117fd573d6000803e3d6000fd5b505050506040513d601f19601f8201168201806040525081019061182191906127e8565b61182a85610e7d565b90612199565b609b546001600160a01b031690565b611847611e8e565b61079a8282611f5b565b611859611e8e565b6001600160a01b0382166000908152609f6020908152604091829020805483518184028101840190945280845290926118d492909184918301828280156118c957602002820191906000526020600020905b81546001600160a01b031681526001909101906020018083116118ab575b5050505050836121ae565b156118df575061079a565b8054600181018255600082815260209081902090910180546001600160a01b0319166001600160a01b0385811691909117909155609a5460408051631623e65d60e11b815290519190921692632c47ccba9260048082019391829003018186803b15801561194c57600080fd5b505afa158015611960573d6000803e3d6000fd5b505050506040513d601f19601f820116820180604052508101906119849190612847565b60ff1681805490501115610a695760405162461bcd60e51b81526004016106f9906129ff565b609d546000906001600160a01b03166119c1611a07565b6001600160a01b0316146119e75760405162461bcd60e51b81526004016106f990612aba565b506001600160a01b03166000908152609e60205260408120805491905590565b3390565b6000816001600160a01b03166312080647609a60009054906101000a90046001600160a01b03166001600160a01b0316633e742e3b6040518163ffffffff1660e01b815260040160206040518083038186803b158015611a6a57600080fd5b505afa158015611a7e573d6000803e3d6000fd5b505050506040513d601f19601f82011682018060405250810190611aa29190612823565b6040518263ffffffff1660e01b8152600401611abe9190612b3c565b60206040518083038186803b158015611ad657600080fd5b505afa158015611aea573d6000803e3d6000fd5b505050506040513d601f19601f820116820180604052508101906107da919061280b565b60006001600160ff1b03821115611b565760405162461bcd60e51b8152600401808060200182810382526028815260200180612bd26028913960400191505060405180910390fd5b5090565b60008060008512611b6b5784611b74565b611b74856121fa565b90506000808512611b855784611b8e565b611b8e856121fa565b905060008087128015611ba15750600086135b80611bb75750600087138015611bb75750600086125b611bc2576000611bc5565b60015b90506000611bd4848488612226565b905081611be957611be481611b0e565b611bf2565b611bf2816122d5565b9450505050505b9392505050565b6000828201818312801590611c155750838112155b80611c2a5750600083128015611c2a57508381125b611bf95760405162461bcd60e51b8152600401808060200182810382526021815260200180612b636021913960400191505060405180910390fd5b600080821215611c8557611c80611c7b836121fa565b6122e9565b6107da565b6107da826122e9565b801561079a576001600160a01b0382166000908152609e6020526040902054611cb79082611c00565b6001600160a01b0383166000818152609e6020526040908190209290925590517febf4e69d81451d269fc4d9551b06d58bea2ed426d2c528919ce45f6070946efb90611d0490849061296e565b60405180910390a25050565b6000611d1b30611d21565b15905090565b3b151590565b600054610100900460ff1680611d405750611d40611d10565b80611d4e575060005460ff16155b611d895760405162461bcd60e51b815260040180806020018281038252602e815260200180612b84602e913960400191505060405180910390fd5b600054610100900460ff16158015611db4576000805460ff1961ff0019909116610100171660011790555b611dbc612340565b8015611dce576000805461ff00191690555b50565b6000818303818312801590611de65750838113155b80611dfb5750600083128015611dfb57508381135b611bf95760405162461bcd60e51b8152600401808060200182810382526024815260200180612bfa6024913960400191505060405180910390fd5b600082820183811015611bf9576040805162461bcd60e51b815260206004820152601b60248201527a536166654d6174683a206164646974696f6e206f766572666c6f7760281b604482015290519081900360640190fd5b6067546001600160a01b0316611ea2611a07565b6001600160a01b031614611ec85760405162461bcd60e51b81526004016106f9906129bd565b565b6001600160a01b03808516600090815260a0602090815260408083209387168352929052208054611efb9084611c00565b81556001810154611f0c9083611c00565b60019091015550505050565b6001600160a01b03808416600090815260a0602090815260408083209386168352929052206001810154611f4c9083611dd1565b60018201556117488483611c8e565b6001600160a01b03808316600090815260a0602090815260408083209385168352928152908290208251606081018452815480825260018301549382019390935260029091015492810192909252600a90611fb590611c65565b101580611fcf5750600a611fcc8260200151611c65565b10155b15611fda575061079a565b609c546040516321b499f560e11b81526000916001600160a01b03169063436933ea9061200d908790879060040161287c565b60006040518083038186803b15801561202557600080fd5b505afa158015612039573d6000803e3d6000fd5b505050506040513d6000823e601f3d908101601f1916820160405261206191908101906126f8565b51111561206e575061079a565b6001600160a01b03808416600081815260a060209081526040808320948716835293815283822082815560018101839055600201829055918152609f909152908120805490915b818110156111e457846001600160a01b03168382815481106120d357fe5b6000918252602090912001546001600160a01b03161415612191576001820381146121605782600183038154811061210757fe5b9060005260206000200160009054906101000a90046001600160a01b031683828154811061213157fe5b9060005260206000200160006101000a8154816001600160a01b0302191690836001600160a01b031602179055505b8280548061216a57fe5b600082815260209020810160001990810180546001600160a01b03191690550190556111e4565b6001016120b5565b6000611bf9838362ffffff16620f4240612226565b6000805b83518110156112dc57826001600160a01b03168482815181106121d157fe5b60200260200101516001600160a01b031614156121f25760019150506107da565b6001016121b2565b6000600160ff1b821361221f5760405162461bcd60e51b81526004016106f990612a1f565b5060000390565b600080806000198587098686029250828110908390030390508061225c576000841161225157600080fd5b508290049050611bf9565b80841161226857600080fd5b6000848688096000868103871696879004966002600389028118808a02820302808a02820302808a02820302808a02820302808a02820302808a02909103029181900381900460010186841190950394909402919094039290920491909117919091029150509392505050565b60006122e082611b0e565b60000392915050565b600080821215611b56576040805162461bcd60e51b815260206004820181905260248201527f53616665436173743a2076616c7565206d75737420626520706f736974697665604482015290519081900360640190fd5b600054610100900460ff16806123595750612359611d10565b80612367575060005460ff16155b6123a25760405162461bcd60e51b815260040180806020018281038252602e815260200180612b84602e913960400191505060405180910390fd5b600054610100900460ff161580156123cd576000805460ff1961ff0019909116610100171660011790555b6123d561242f565b60006123df611a07565b603380546001600160a01b0319166001600160a01b03831690811790915560405191925090600090600080516020612bb2833981519152908290a3508015611dce576000805461ff001916905550565b600054610100900460ff16806124485750612448611d10565b80612456575060005460ff16155b6124915760405162461bcd60e51b815260040180806020018281038252602e815260200180612b84602e913960400191505060405180910390fd5b600054610100900460ff161580156124bc576000805460ff1961ff0019909116610100171660011790555b611dbc600054610100900460ff16806124d857506124d8611d10565b806124e6575060005460ff16155b6125215760405162461bcd60e51b815260040180806020018281038252602e815260200180612b84602e913960400191505060405180910390fd5b600054610100900460ff16158015611dbc576000805460ff1961ff0019909116610100171660011790558015611dce576000805461ff001916905550565b60405180606001604052806000815260200160008152602001600081525090565b600060208284031215612591578081fd5b8135611bf981612b4d565b6000602082840312156125ad578081fd5b8151611bf981612b4d565b600080604083850312156125ca578081fd5b82356125d581612b4d565b915060208301356125e581612b4d565b809150509250929050565b600080600060608486031215612604578081fd5b833561260f81612b4d565b9250602084013561261f81612b4d565b929592945050506040919091013590565b60008060008060808587031215612645578081fd5b843561265081612b4d565b9350602085013561266081612b4d565b93969395505050506040820135916060013590565b60008060008060008060c0878903121561268d578182fd5b863561269881612b4d565b955060208701356126a881612b4d565b95989597505050506040840135936060810135936080820135935060a0909101359150565b600080604083850312156126df578182fd5b82356126ea81612b4d565b946020939093013593505050565b6000602080838503121561270a578182fd5b82516001600160401b0380821115612720578384fd5b818501915085601f830112612733578384fd5b81518181111561273f57fe5b8381026040518582820101818110858211171561275857fe5b604052828152858101935084860182860187018a1015612776578788fd5b8795505b8386101561279857805185526001959095019493860193860161277a565b5098975050505050505050565b6000602082840312156127b6578081fd5b81518015158114611bf9578182fd5b600080604083850312156127d7578182fd5b505080516020909101519092909150565b6000602082840312156127f9578081fd5b815162ffffff81168114611bf9578182fd5b60006020828403121561281c578081fd5b5051919050565b600060208284031215612834578081fd5b815163ffffffff81168114611bf9578182fd5b600060208284031215612858578081fd5b815160ff81168114611bf9578182fd5b6001600160a01b0391909116815260200190565b6001600160a01b0392831681529116602082015260400190565b6001600160a01b039384168152919092166020820152901515604082015260600190565b60006040820160018060a01b03808616845260206040818601528286548085526060870191508786528286209450855b818110156129085785548516835260019586019592840192016128ea565b509098975050505050505050565b6020808252825182820181905260009190848201906040850190845b818110156129575783516001600160a01b031683529284019291840191600101612932565b50909695505050505050565b901515815260200190565b90815260200190565b9283526020830191909152604082015260600190565b918252602082015260400190565b60208082526008908201526741425f4348434e4360c01b604082015260600190565b6020808252600790820152660869088be9e86960cb1b604082015260600190565b60208082526007908201526641425f45584e4360c81b604082015260600190565b60208082526006908201526541425f4d4e4560d01b604082015260600190565b6020808252601c908201527b506572704d6174683a20696e76657273696f6e206f766572666c6f7760201b604082015260600190565b60208082526007908201526641425f4f424e4360c81b604082015260600190565b6020808252600a908201526908284be9ebe8ab0f886960b31b604082015260600190565b60208082526006908201526508284be9e8ab60d31b604082015260600190565b60208082526005908201526420a12fa7ab60d91b604082015260600190565b60208082526006908201526541425f564e4360d01b604082015260600190565b60208082526008908201526720a12fa4a8a120a960c11b604082015260600190565b81518152602080830151908201526040918201519181019190915260600190565b63ffffffff91909116815260200190565b6001600160a01b0381168114611dce57600080fdfe5369676e6564536166654d6174683a206164646974696f6e206f766572666c6f77496e697469616c697a61626c653a20636f6e747261637420697320616c726561647920696e697469616c697a65648be0079c531659141344cd1fd0a4f28419497f9722a3daafe3b4186f6b6457e053616665436173743a2076616c756520646f65736e27742066697420696e20616e20696e743235365369676e6564536166654d6174683a207375627472616374696f6e206f766572666c6f77a2646970667358221220319f543f5a72ad52a72cfbdc996de62fcd092a6573a9b704b82f76675dba471664736f6c63430007060033",
  "linkReferences": {},
  "deployedLinkReferences": {}
}