{
  "_format": "hh-sol-artifact-1",
  "contractName": "PerpV2InsuranceFund",
  "sourceName": "contracts/InsuranceFund.sol",
  "abi": [
    {
      "anonymous": false,
      "inputs": [
        {
          "indexed": false,
          "internalType": "address",
          "name": "borrower",
          "type": "address"
        },
        {
          "indexed": false,
          "internalType": "uint256",
          "name": "amount",
          "type": "uint256"
        }
      ],
      "name": "Borrowed",
      "type": "event"
    },
    {
      "anonymous": false,
      "inputs": [
        {
          "indexed": false,
          "internalType": "address",
          "name": "borrower",
          "type": "address"
        }
      ],
      "name": "BorrowerChanged",
      "type": "event"
    },
    {
      "anonymous": false,
      "inputs": [
        {
          "indexed": true,
          "internalType": "address",
          "name": "previousOwner",
          "type": "address"
        },
        {
          "indexed": true,
          "internalType": "address",
          "name": "newOwner",
          "type": "address"
        }
      ],
      "name": "OwnershipTransferred",
      "type": "event"
    },
    {
      "anonymous": false,
      "inputs": [
        {
          "indexed": false,
          "internalType": "address",
          "name": "account",
          "type": "address"
        }
      ],
      "name": "Paused",
      "type": "event"
    },
    {
      "anonymous": false,
      "inputs": [
        {
          "indexed": false,
          "internalType": "address",
          "name": "account",
          "type": "address"
        }
      ],
      "name": "Unpaused",
      "type": "event"
    },
    {
      "inputs": [
        {
          "internalType": "uint256",
          "name": "amount",
          "type": "uint256"
        }
      ],
      "name": "borrow",
      "outputs": [],
      "stateMutability": "nonpayable",
      "type": "function"
    },
    {
      "inputs": [],
      "name": "candidate",
      "outputs": [
        {
          "internalType": "address",
          "name": "",
          "type": "address"
        }
      ],
      "stateMutability": "view",
      "type": "function"
    },
    {
      "inputs": [],
      "name": "getBorrower",
      "outputs": [
        {
          "internalType": "address",
          "name": "",
          "type": "address"
        }
      ],
      "stateMutability": "view",
      "type": "function"
    },
    {
      "inputs": [],
      "name": "getToken",
      "outputs": [
        {
          "internalType": "address",
          "name": "",
          "type": "address"
        }
      ],
      "stateMutability": "view",
      "type": "function"
    },
    {
      "inputs": [
        {
          "internalType": "address",
          "name": "tokenArg",
          "type": "address"
        }
      ],
      "name": "initialize",
      "outputs": [],
      "stateMutability": "nonpayable",
      "type": "function"
    },
    {
      "inputs": [],
      "name": "owner",
      "outputs": [
        {
          "internalType": "address",
          "name": "",
          "type": "address"
        }
      ],
      "stateMutability": "view",
      "type": "function"
    },
    {
      "inputs": [],
      "name": "pause",
      "outputs": [],
      "stateMutability": "nonpayable",
      "type": "function"
    },
    {
      "inputs": [],
      "name": "paused",
      "outputs": [
        {
          "internalType": "bool",
          "name": "",
          "type": "bool"
        }
      ],
      "stateMutability": "view",
      "type": "function"
    },
    {
      "inputs": [],
      "name": "renounceOwnership",
      "outputs": [],
      "stateMutability": "nonpayable",
      "type": "function"
    },
    {
      "inputs": [
        {
          "internalType": "address",
          "name": "borrowerArg",
          "type": "address"
        }
      ],
      "name": "setBorrower",
      "outputs": [],
      "stateMutability": "nonpayable",
      "type": "function"
    },
    {
      "inputs": [
        {
          "internalType": "address",
          "name": "newOwner",
          "type": "address"
        }
      ],
      "name": "setOwner",
      "outputs": [],
      "stateMutability": "nonpayable",
      "type": "function"
    },
    {
      "inputs": [],
      "name": "unpause",
      "outputs": [],
      "stateMutability": "nonpayable",
      "type": "function"
    },
    {
      "inputs": [],
      "name": "updateOwner",
      "outputs": [],
      "stateMutability": "nonpayable",
      "type": "function"
    }
  ],
  "bytecode": "0x608060405234801561001057600080fd5b506114b6806100206000396000f3fe608060405234801561001057600080fd5b50600436106100cf5760003560e01c8063715018a61161008c578063bc5920ba11610066578063bc5920ba1461016c578063c4d66de814610174578063c5ebeaec1461019a578063c762d5f7146101b7576100cf565b8063715018a6146101545780638456cb591461015c5780638da5cb5b14610164576100cf565b806313af4035146100d45780631cb0c3e7146100fc57806321df0da7146101205780633f4ba83a146101285780635c975abb146101305780636c8381f81461014c575b600080fd5b6100fa600480360360208110156100ea57600080fd5b50356001600160a01b03166101dd565b005b610104610338565b604080516001600160a01b039092168252519081900360200190f35b610104610347565b6100fa610356565b6101386103bd565b604080519115158252519081900360200190f35b6101046103c6565b6100fa6103d5565b6100fa610488565b6101046104ed565b6100fa6104fc565b6100fa6004803603602081101561018a57600080fd5b50356001600160a01b03166105fa565b6100fa600480360360208110156101b057600080fd5b5035610714565b6100fa600480360360208110156101cd57600080fd5b50356001600160a01b0316610932565b6101e5610a2f565b6001600160a01b03166101f66104ed565b6001600160a01b03161461023a576040805162461bcd60e51b8152602060048201526006602482015265534f5f434e4f60d01b604482015290519081900360640190fd5b6001600160a01b03811661027e576040805162461bcd60e51b81526020600482015260066024820152650534f5f4e57360d41b604482015290519081900360640190fd5b6065546001600160a01b03828116911614156102ca576040805162461bcd60e51b8152602060048201526006602482015265534f5f53414f60d01b604482015290519081900360640190fd5b6066546001600160a01b0382811691161415610316576040805162461bcd60e51b8152602060048201526006602482015265534f5f53414360d01b604482015290519081900360640190fd5b606680546001600160a01b0319166001600160a01b0392909216919091179055565b60fe546001600160a01b031690565b60fd546001600160a01b031690565b61035e610a2f565b6001600160a01b031661036f6104ed565b6001600160a01b0316146103b3576040805162461bcd60e51b8152602060048201526006602482015265534f5f434e4f60d01b604482015290519081900360640190fd5b6103bb610a3e565b565b60995460ff1690565b6066546001600160a01b031690565b6103dd610a2f565b6001600160a01b03166103ee6104ed565b6001600160a01b031614610432576040805162461bcd60e51b8152602060048201526006602482015265534f5f434e4f60d01b604482015290519081900360640190fd5b6065546040516000916001600160a01b0316907f8be0079c531659141344cd1fd0a4f28419497f9722a3daafe3b4186f6b6457e0908390a3606580546001600160a01b0319908116909155606680549091169055565b610490610a2f565b6001600160a01b03166104a16104ed565b6001600160a01b0316146104e5576040805162461bcd60e51b8152602060048201526006602482015265534f5f434e4f60d01b604482015290519081900360640190fd5b6103bb610ade565b6065546001600160a01b031690565b6066546001600160a01b0316610541576040805162461bcd60e51b81526020600482015260056024820152640534f5f43360dc1b604482015290519081900360640190fd5b610549610a2f565b6066546001600160a01b03908116911614610594576040805162461bcd60e51b8152602060048201526006602482015265534f5f434e4360d01b604482015290519081900360640190fd5b6066546065546040516001600160a01b0392831692909116907f8be0079c531659141344cd1fd0a4f28419497f9722a3daafe3b4186f6b6457e090600090a360668054606580546001600160a01b03199081166001600160a01b03841617909155169055565b600054610100900460ff16806106135750610613610b61565b80610621575060005460ff16155b61065c5760405162461bcd60e51b815260040180806020018281038252602e815260200180611429602e913960400191505060405180910390fd5b600054610100900460ff16158015610687576000805460ff1961ff0019909116610100171660011790555b610699826001600160a01b0316610b72565b6106d3576040805162461bcd60e51b815260206004820152600660248201526549465f544e4360d01b604482015290519081900360640190fd5b6106db610b78565b6106e3610c22565b60fd80546001600160a01b0319166001600160a01b0384161790558015610710576000805461ff00191690555b5050565b6002600154141561076c576040805162461bcd60e51b815260206004820152601f60248201527f5265656e7472616e637947756172643a207265656e7472616e742063616c6c00604482015290519081900360640190fd5b60026001556107796103bd565b156107be576040805162461bcd60e51b815260206004820152601060248201526f14185d5cd8589b194e881c185d5cd95960821b604482015290519081900360640190fd5b60fe546001600160a01b03166107d2610a2f565b6001600160a01b031614610815576040805162461bcd60e51b815260206004820152600560248201526424a32fa7a160d91b604482015290519081900360640190fd5b60fd54604080516370a0823160e01b8152306004820152905183926001600160a01b0316916370a08231916024808301926020929190829003018186803b15801561085f57600080fd5b505afa158015610873573d6000803e3d6000fd5b505050506040513d602081101561088957600080fd5b505110156108c7576040805162461bcd60e51b815260206004820152600660248201526524a32fa722a160d11b604482015290519081900360640190fd5b60fd5460fe546108e4916001600160a01b03908116911683610cbf565b60fe54604080516001600160a01b0390921682526020820183905280517fac59582e5396aca512fa873a2047e7f4c80f8f55d4a06cb34a78a0187f62719f9281900390910190a15060018055565b61093a610a2f565b6001600160a01b031661094b6104ed565b6001600160a01b03161461098f576040805162461bcd60e51b8152602060048201526006602482015265534f5f434e4f60d01b604482015290519081900360640190fd5b6109a1816001600160a01b0316610b72565b6109db576040805162461bcd60e51b815260206004820152600660248201526549465f424e4360d01b604482015290519081900360640190fd5b60fe80546001600160a01b0383166001600160a01b0319909116811790915560408051918252517fa1cc029f3440726d0dd25b6385e24d209e5bf7817d6662d6e4bfdfbc621c1cf29181900360200190a150565b6000610a39610d16565b905090565b610a466103bd565b610a8e576040805162461bcd60e51b815260206004820152601460248201527314185d5cd8589b194e881b9bdd081c185d5cd95960621b604482015290519081900360640190fd5b6099805460ff191690557f5db9ee0a495bf2e6ff9c91a7834c1ba4fdd244a5e8aa4e537bd38aeae4b073aa610ac1610a2f565b604080516001600160a01b039092168252519081900360200190a1565b610ae66103bd565b15610b2b576040805162461bcd60e51b815260206004820152601060248201526f14185d5cd8589b194e881c185d5cd95960821b604482015290519081900360640190fd5b6099805460ff191660011790557f62e78cea01bee320cd4e420270b5ea74000d11b0c9f74754ebdbfc544b05a258610ac1610a2f565b6000610b6c30610b72565b15905090565b3b151590565b600054610100900460ff1680610b915750610b91610b61565b80610b9f575060005460ff16155b610bda5760405162461bcd60e51b815260040180806020018281038252602e815260200180611429602e913960400191505060405180910390fd5b600054610100900460ff16158015610c05576000805460ff1961ff0019909116610100171660011790555b610c0d610d1a565b8015610c1f576000805461ff00191690555b50565b600054610100900460ff1680610c3b5750610c3b610b61565b80610c49575060005460ff16155b610c845760405162461bcd60e51b815260040180806020018281038252602e815260200180611429602e913960400191505060405180910390fd5b600054610100900460ff16158015610caf576000805460ff1961ff0019909116610100171660011790555b610cb7610dbf565b610c0d610ec0565b604080516001600160a01b038416602482015260448082018490528251808303909101815260649091019091526020810180516001600160e01b031663a9059cbb60e01b179052610d11908490610f5d565b505050565b3390565b600054610100900460ff1680610d335750610d33610b61565b80610d41575060005460ff16155b610d7c5760405162461bcd60e51b815260040180806020018281038252602e815260200180611429602e913960400191505060405180910390fd5b600054610100900460ff16158015610da7576000805460ff1961ff0019909116610100171660011790555b600180558015610c1f576000805461ff001916905550565b600054610100900460ff1680610dd85750610dd8610b61565b80610de6575060005460ff16155b610e215760405162461bcd60e51b815260040180806020018281038252602e815260200180611429602e913960400191505060405180910390fd5b600054610100900460ff16158015610e4c576000805460ff1961ff0019909116610100171660011790555b610e5461100e565b6000610e5e610a2f565b606580546001600160a01b0319166001600160a01b038316908117909155604051919250906000907f8be0079c531659141344cd1fd0a4f28419497f9722a3daafe3b4186f6b6457e0908290a3508015610c1f576000805461ff001916905550565b600054610100900460ff1680610ed95750610ed9610b61565b80610ee7575060005460ff16155b610f225760405162461bcd60e51b815260040180806020018281038252602e815260200180611429602e913960400191505060405180910390fd5b600054610100900460ff16158015610f4d576000805460ff1961ff0019909116610100171660011790555b610f5561109f565b610c0d61113f565b6000610fb2826040518060400160405280602081526020017f5361666545524332303a206c6f772d6c6576656c2063616c6c206661696c6564815250856001600160a01b03166111ea9092919063ffffffff16565b805190915015610d1157808060200190516020811015610fd157600080fd5b5051610d115760405162461bcd60e51b815260040180806020018281038252602a815260200180611457602a913960400191505060405180910390fd5b600054610100900460ff16806110275750611027610b61565b80611035575060005460ff16155b6110705760405162461bcd60e51b815260040180806020018281038252602e815260200180611429602e913960400191505060405180910390fd5b600054610100900460ff1615801561109b576000805460ff1961ff0019909116610100171660011790555b610c0d5b600054610100900460ff16806110b857506110b8610b61565b806110c6575060005460ff16155b6111015760405162461bcd60e51b815260040180806020018281038252602e815260200180611429602e913960400191505060405180910390fd5b600054610100900460ff16158015610c0d576000805460ff1961ff0019909116610100171660011790558015610c1f576000805461ff001916905550565b600054610100900460ff16806111585750611158610b61565b80611166575060005460ff16155b6111a15760405162461bcd60e51b815260040180806020018281038252602e815260200180611429602e913960400191505060405180910390fd5b600054610100900460ff161580156111cc576000805460ff1961ff0019909116610100171660011790555b6099805460ff191690558015610c1f576000805461ff001916905550565b60606111f98484600085611203565b90505b9392505050565b6060824710156112445760405162461bcd60e51b81526004018080602001828103825260268152602001806114036026913960400191505060405180910390fd5b61124d85610b72565b61129e576040805162461bcd60e51b815260206004820152601d60248201527f416464726573733a2063616c6c20746f206e6f6e2d636f6e7472616374000000604482015290519081900360640190fd5b600080866001600160a01b031685876040518082805190602001908083835b602083106112dc5780518252601f1990920191602091820191016112bd565b6001836020036101000a03801982511681845116808217855250505050505090500191505060006040518083038185875af1925050503d806000811461133e576040519150601f19603f3d011682016040523d82523d6000602084013e611343565b606091505b509150915061135382828661135e565b979650505050505050565b6060831561136d5750816111fc565b82511561137d5782518084602001fd5b8160405162461bcd60e51b81526004018080602001828103825283818151815260200191508051906020019080838360005b838110156113c75781810151838201526020016113af565b50505050905090810190601f1680156113f45780820380516001836020036101000a031916815260200191505b509250505060405180910390fdfe416464726573733a20696e73756666696369656e742062616c616e636520666f722063616c6c496e697469616c697a61626c653a20636f6e747261637420697320616c726561647920696e697469616c697a65645361666545524332303a204552433230206f7065726174696f6e20646964206e6f742073756363656564a26469706673582212207e0da25701ed2f937dcbe99999fc61d8f3fccf8467c26e581e2288fb2804b83364736f6c63430007060033",
  "linkReferences": {},
  "deployedLinkReferences": {}
}