{
  "_format": "hh-sol-artifact-1",
  "contractName": "PerpV2InsuranceFund",
  "sourceName": "contracts/InsuranceFund.sol",
  "abi": [
    {
      "anonymous": false,
      "inputs": [
        {
          "indexed": false,
          "internalType": "address",
          "name": "borrower",
          "type": "address"
        },
        {
          "indexed": false,
          "internalType": "uint256",
          "name": "amount",
          "type": "uint256"
        }
      ],
      "name": "Borrowed",
      "type": "event"
    },
    {
      "anonymous": false,
      "inputs": [
        {
          "indexed": false,
          "internalType": "address",
          "name": "borrower",
          "type": "address"
        }
      ],
      "name": "BorrowerChanged",
      "type": "event"
    },
    {
      "anonymous": false,
      "inputs": [
        {
          "indexed": true,
          "internalType": "address",
          "name": "previousOwner",
          "type": "address"
        },
        {
          "indexed": true,
          "internalType": "address",
          "name": "newOwner",
          "type": "address"
        }
      ],
      "name": "OwnershipTransferred",
      "type": "event"
    },
    {
      "anonymous": false,
      "inputs": [
        {
          "indexed": false,
          "internalType": "address",
          "name": "account",
          "type": "address"
        }
      ],
      "name": "Paused",
      "type": "event"
    },
    {
      "anonymous": false,
      "inputs": [
        {
          "indexed": false,
          "internalType": "address",
          "name": "account",
          "type": "address"
        }
      ],
      "name": "Unpaused",
      "type": "event"
    },
    {
      "inputs": [
        {
          "internalType": "uint256",
          "name": "amount",
          "type": "uint256"
        }
      ],
      "name": "borrow",
      "outputs": [],
      "stateMutability": "nonpayable",
      "type": "function"
    },
    {
      "inputs": [],
      "name": "candidate",
      "outputs": [
        {
          "internalType": "address",
          "name": "",
          "type": "address"
        }
      ],
      "stateMutability": "view",
      "type": "function"
    },
    {
      "inputs": [],
      "name": "getBorrower",
      "outputs": [
        {
          "internalType": "address",
          "name": "",
          "type": "address"
        }
      ],
      "stateMutability": "view",
      "type": "function"
    },
    {
      "inputs": [],
      "name": "getToken",
      "outputs": [
        {
          "internalType": "address",
          "name": "",
          "type": "address"
        }
      ],
      "stateMutability": "view",
      "type": "function"
    },
    {
      "inputs": [
        {
          "internalType": "address",
          "name": "tokenArg",
          "type": "address"
        }
      ],
      "name": "initialize",
      "outputs": [],
      "stateMutability": "nonpayable",
      "type": "function"
    },
    {
      "inputs": [],
      "name": "owner",
      "outputs": [
        {
          "internalType": "address",
          "name": "",
          "type": "address"
        }
      ],
      "stateMutability": "view",
      "type": "function"
    },
    {
      "inputs": [],
      "name": "pause",
      "outputs": [],
      "stateMutability": "nonpayable",
      "type": "function"
    },
    {
      "inputs": [],
      "name": "paused",
      "outputs": [
        {
          "internalType": "bool",
          "name": "",
          "type": "bool"
        }
      ],
      "stateMutability": "view",
      "type": "function"
    },
    {
      "inputs": [],
      "name": "renounceOwnership",
      "outputs": [],
      "stateMutability": "nonpayable",
      "type": "function"
    },
    {
      "inputs": [
        {
          "internalType": "address",
          "name": "borrowerArg",
          "type": "address"
        }
      ],
      "name": "setBorrower",
      "outputs": [],
      "stateMutability": "nonpayable",
      "type": "function"
    },
    {
      "inputs": [
        {
          "internalType": "address",
          "name": "newOwner",
          "type": "address"
        }
      ],
      "name": "setOwner",
      "outputs": [],
      "stateMutability": "nonpayable",
      "type": "function"
    },
    {
      "inputs": [],
      "name": "unpause",
      "outputs": [],
      "stateMutability": "nonpayable",
      "type": "function"
    },
    {
      "inputs": [],
      "name": "updateOwner",
      "outputs": [],
      "stateMutability": "nonpayable",
      "type": "function"
    }
  ],
  "bytecode": "0x608060405234801561001057600080fd5b50611480806100206000396000f3fe608060405234801561001057600080fd5b50600436106100af5760003560e01c806313af4035146100b45780631cb0c3e7146100dc57806321df0da7146101005780633f4ba83a146101085780635c975abb146101105780636c8381f81461012c578063715018a6146101345780638456cb591461013c5780638da5cb5b14610144578063bc5920ba1461014c578063c4d66de814610154578063c5ebeaec1461017a578063c762d5f714610197575b600080fd5b6100da600480360360208110156100ca57600080fd5b50356001600160a01b03166101bd565b005b6100e4610318565b604080516001600160a01b039092168252519081900360200190f35b6100e4610327565b6100da610336565b61011861039d565b604080519115158252519081900360200190f35b6100e46103a6565b6100da6103b5565b6100da610456565b6100e46104bb565b6100da6104ca565b6100da6004803603602081101561016a57600080fd5b50356001600160a01b03166105b6565b6100da6004803603602081101561019057600080fd5b50356106d0565b6100da600480360360208110156101ad57600080fd5b50356001600160a01b03166108ee565b6101c56109eb565b6001600160a01b03166101d66104bb565b6001600160a01b03161461021a576040805162461bcd60e51b8152602060048201526006602482015265534f5f434e4f60d01b604482015290519081900360640190fd5b6001600160a01b03811661025e576040805162461bcd60e51b81526020600482015260066024820152650534f5f4e57360d41b604482015290519081900360640190fd5b6065546001600160a01b03828116911614156102aa576040805162461bcd60e51b8152602060048201526006602482015265534f5f53414f60d01b604482015290519081900360640190fd5b6066546001600160a01b03828116911614156102f6576040805162461bcd60e51b8152602060048201526006602482015265534f5f53414360d01b604482015290519081900360640190fd5b606680546001600160a01b0319166001600160a01b0392909216919091179055565b60fe546001600160a01b031690565b60fd546001600160a01b031690565b61033e6109eb565b6001600160a01b031661034f6104bb565b6001600160a01b031614610393576040805162461bcd60e51b8152602060048201526006602482015265534f5f434e4f60d01b604482015290519081900360640190fd5b61039b6109fa565b565b60995460ff1690565b6066546001600160a01b031690565b6103bd6109eb565b6001600160a01b03166103ce6104bb565b6001600160a01b031614610412576040805162461bcd60e51b8152602060048201526006602482015265534f5f434e4f60d01b604482015290519081900360640190fd5b6065546040516000916001600160a01b031690600080516020611401833981519152908390a3606580546001600160a01b0319908116909155606680549091169055565b61045e6109eb565b6001600160a01b031661046f6104bb565b6001600160a01b0316146104b3576040805162461bcd60e51b8152602060048201526006602482015265534f5f434e4f60d01b604482015290519081900360640190fd5b61039b610a9a565b6065546001600160a01b031690565b6066546001600160a01b031661050f576040805162461bcd60e51b81526020600482015260056024820152640534f5f43360dc1b604482015290519081900360640190fd5b6105176109eb565b6066546001600160a01b03908116911614610562576040805162461bcd60e51b8152602060048201526006602482015265534f5f434e4360d01b604482015290519081900360640190fd5b6066546065546040516001600160a01b03928316929091169060008051602061140183398151915290600090a360668054606580546001600160a01b03199081166001600160a01b03841617909155169055565b600054610100900460ff16806105cf57506105cf610b1d565b806105dd575060005460ff16155b6106185760405162461bcd60e51b815260040180806020018281038252602e8152602001806113d3602e913960400191505060405180910390fd5b600054610100900460ff16158015610643576000805460ff1961ff0019909116610100171660011790555b610655826001600160a01b0316610b2e565b61068f576040805162461bcd60e51b815260206004820152600660248201526549465f544e4360d01b604482015290519081900360640190fd5b610697610b34565b61069f610bde565b60fd80546001600160a01b0319166001600160a01b03841617905580156106cc576000805461ff00191690555b5050565b60026001541415610728576040805162461bcd60e51b815260206004820152601f60248201527f5265656e7472616e637947756172643a207265656e7472616e742063616c6c00604482015290519081900360640190fd5b600260015561073561039d565b1561077a576040805162461bcd60e51b815260206004820152601060248201526f14185d5cd8589b194e881c185d5cd95960821b604482015290519081900360640190fd5b60fe546001600160a01b031661078e6109eb565b6001600160a01b0316146107d1576040805162461bcd60e51b815260206004820152600560248201526424a32fa7a160d91b604482015290519081900360640190fd5b60fd54604080516370a0823160e01b8152306004820152905183926001600160a01b0316916370a08231916024808301926020929190829003018186803b15801561081b57600080fd5b505afa15801561082f573d6000803e3d6000fd5b505050506040513d602081101561084557600080fd5b50511015610883576040805162461bcd60e51b815260206004820152600660248201526524a32fa722a160d11b604482015290519081900360640190fd5b60fd5460fe546108a0916001600160a01b03908116911683610c7b565b60fe54604080516001600160a01b0390921682526020820183905280517fac59582e5396aca512fa873a2047e7f4c80f8f55d4a06cb34a78a0187f62719f9281900390910190a15060018055565b6108f66109eb565b6001600160a01b03166109076104bb565b6001600160a01b03161461094b576040805162461bcd60e51b8152602060048201526006602482015265534f5f434e4f60d01b604482015290519081900360640190fd5b61095d816001600160a01b0316610b2e565b610997576040805162461bcd60e51b815260206004820152600660248201526549465f424e4360d01b604482015290519081900360640190fd5b60fe80546001600160a01b0383166001600160a01b0319909116811790915560408051918252517fa1cc029f3440726d0dd25b6385e24d209e5bf7817d6662d6e4bfdfbc621c1cf29181900360200190a150565b60006109f5610cd2565b905090565b610a0261039d565b610a4a576040805162461bcd60e51b815260206004820152601460248201527314185d5cd8589b194e881b9bdd081c185d5cd95960621b604482015290519081900360640190fd5b6099805460ff191690557f5db9ee0a495bf2e6ff9c91a7834c1ba4fdd244a5e8aa4e537bd38aeae4b073aa610a7d6109eb565b604080516001600160a01b039092168252519081900360200190a1565b610aa261039d565b15610ae7576040805162461bcd60e51b815260206004820152601060248201526f14185d5cd8589b194e881c185d5cd95960821b604482015290519081900360640190fd5b6099805460ff191660011790557f62e78cea01bee320cd4e420270b5ea74000d11b0c9f74754ebdbfc544b05a258610a7d6109eb565b6000610b2830610b2e565b15905090565b3b151590565b600054610100900460ff1680610b4d5750610b4d610b1d565b80610b5b575060005460ff16155b610b965760405162461bcd60e51b815260040180806020018281038252602e8152602001806113d3602e913960400191505060405180910390fd5b600054610100900460ff16158015610bc1576000805460ff1961ff0019909116610100171660011790555b610bc9610cd6565b8015610bdb576000805461ff00191690555b50565b600054610100900460ff1680610bf75750610bf7610b1d565b80610c05575060005460ff16155b610c405760405162461bcd60e51b815260040180806020018281038252602e8152602001806113d3602e913960400191505060405180910390fd5b600054610100900460ff16158015610c6b576000805460ff1961ff0019909116610100171660011790555b610c73610d7b565b610bc9610e6a565b604080516001600160a01b038416602482015260448082018490528251808303909101815260649091019091526020810180516001600160e01b031663a9059cbb60e01b179052610ccd908490610f07565b505050565b3390565b600054610100900460ff1680610cef5750610cef610b1d565b80610cfd575060005460ff16155b610d385760405162461bcd60e51b815260040180806020018281038252602e8152602001806113d3602e913960400191505060405180910390fd5b600054610100900460ff16158015610d63576000805460ff1961ff0019909116610100171660011790555b600180558015610bdb576000805461ff001916905550565b600054610100900460ff1680610d945750610d94610b1d565b80610da2575060005460ff16155b610ddd5760405162461bcd60e51b815260040180806020018281038252602e8152602001806113d3602e913960400191505060405180910390fd5b600054610100900460ff16158015610e08576000805460ff1961ff0019909116610100171660011790555b610e10610fb8565b6000610e1a6109eb565b606580546001600160a01b0319166001600160a01b03831690811790915560405191925090600090600080516020611401833981519152908290a3508015610bdb576000805461ff001916905550565b600054610100900460ff1680610e835750610e83610b1d565b80610e91575060005460ff16155b610ecc5760405162461bcd60e51b815260040180806020018281038252602e8152602001806113d3602e913960400191505060405180910390fd5b600054610100900460ff16158015610ef7576000805460ff1961ff0019909116610100171660011790555b610eff611049565b610bc96110e9565b6000610f5c826040518060400160405280602081526020017f5361666545524332303a206c6f772d6c6576656c2063616c6c206661696c6564815250856001600160a01b03166111949092919063ffffffff16565b805190915015610ccd57808060200190516020811015610f7b57600080fd5b5051610ccd5760405162461bcd60e51b815260040180806020018281038252602a815260200180611421602a913960400191505060405180910390fd5b600054610100900460ff1680610fd15750610fd1610b1d565b80610fdf575060005460ff16155b61101a5760405162461bcd60e51b815260040180806020018281038252602e8152602001806113d3602e913960400191505060405180910390fd5b600054610100900460ff16158015611045576000805460ff1961ff0019909116610100171660011790555b610bc95b600054610100900460ff16806110625750611062610b1d565b80611070575060005460ff16155b6110ab5760405162461bcd60e51b815260040180806020018281038252602e8152602001806113d3602e913960400191505060405180910390fd5b600054610100900460ff16158015610bc9576000805460ff1961ff0019909116610100171660011790558015610bdb576000805461ff001916905550565b600054610100900460ff16806111025750611102610b1d565b80611110575060005460ff16155b61114b5760405162461bcd60e51b815260040180806020018281038252602e8152602001806113d3602e913960400191505060405180910390fd5b600054610100900460ff16158015611176576000805460ff1961ff0019909116610100171660011790555b6099805460ff191690558015610bdb576000805461ff001916905550565b60606111a384846000856111ad565b90505b9392505050565b6060824710156111ee5760405162461bcd60e51b81526004018080602001828103825260268152602001806113ad6026913960400191505060405180910390fd5b6111f785610b2e565b611248576040805162461bcd60e51b815260206004820152601d60248201527f416464726573733a2063616c6c20746f206e6f6e2d636f6e7472616374000000604482015290519081900360640190fd5b600080866001600160a01b031685876040518082805190602001908083835b602083106112865780518252601f199092019160209182019101611267565b6001836020036101000a03801982511681845116808217855250505050505090500191505060006040518083038185875af1925050503d80600081146112e8576040519150601f19603f3d011682016040523d82523d6000602084013e6112ed565b606091505b50915091506112fd828286611308565b979650505050505050565b606083156113175750816111a6565b8251156113275782518084602001fd5b8160405162461bcd60e51b81526004018080602001828103825283818151815260200191508051906020019080838360005b83811015611371578181015183820152602001611359565b50505050905090810190601f16801561139e5780820380516001836020036101000a031916815260200191505b509250505060405180910390fdfe416464726573733a20696e73756666696369656e742062616c616e636520666f722063616c6c496e697469616c697a61626c653a20636f6e747261637420697320616c726561647920696e697469616c697a65648be0079c531659141344cd1fd0a4f28419497f9722a3daafe3b4186f6b6457e05361666545524332303a204552433230206f7065726174696f6e20646964206e6f742073756363656564a2646970667358221220090e20f4984d8651a0168889b801f0c03609cccb310f9374eebdb1eda77dcbfe64736f6c63430007060033",
  "linkReferences": {},
  "deployedLinkReferences": {}
}