{
  "_format": "hh-sol-artifact-1",
  "contractName": "PerpV2OrderBook",
  "sourceName": "contracts/OrderBook.sol",
  "abi": [
    {
      "anonymous": false,
      "inputs": [
        {
          "indexed": true,
          "internalType": "address",
          "name": "clearingHouse",
          "type": "address"
        }
      ],
      "name": "ClearingHouseChanged",
      "type": "event"
    },
    {
      "anonymous": false,
      "inputs": [
        {
          "indexed": true,
          "internalType": "address",
          "name": "maker",
          "type": "address"
        },
        {
          "indexed": true,
          "internalType": "address",
          "name": "baseToken",
          "type": "address"
        },
        {
          "indexed": true,
          "internalType": "address",
          "name": "quoteToken",
          "type": "address"
        },
        {
          "indexed": false,
          "internalType": "int24",
          "name": "lowerTick",
          "type": "int24"
        },
        {
          "indexed": false,
          "internalType": "int24",
          "name": "upperTick",
          "type": "int24"
        },
        {
          "indexed": false,
          "internalType": "int256",
          "name": "base",
          "type": "int256"
        },
        {
          "indexed": false,
          "internalType": "int256",
          "name": "quote",
          "type": "int256"
        },
        {
          "indexed": false,
          "internalType": "int128",
          "name": "liquidity",
          "type": "int128"
        },
        {
          "indexed": false,
          "internalType": "uint256",
          "name": "quoteFee",
          "type": "uint256"
        }
      ],
      "name": "LiquidityChanged",
      "type": "event"
    },
    {
      "anonymous": false,
      "inputs": [
        {
          "indexed": true,
          "internalType": "address",
          "name": "previousOwner",
          "type": "address"
        },
        {
          "indexed": true,
          "internalType": "address",
          "name": "newOwner",
          "type": "address"
        }
      ],
      "name": "OwnershipTransferred",
      "type": "event"
    },
    {
      "inputs": [
        {
          "components": [
            {
              "internalType": "address",
              "name": "trader",
              "type": "address"
            },
            {
              "internalType": "address",
              "name": "baseToken",
              "type": "address"
            },
            {
              "internalType": "uint256",
              "name": "base",
              "type": "uint256"
            },
            {
              "internalType": "uint256",
              "name": "quote",
              "type": "uint256"
            },
            {
              "internalType": "int24",
              "name": "lowerTick",
              "type": "int24"
            },
            {
              "internalType": "int24",
              "name": "upperTick",
              "type": "int24"
            },
            {
              "components": [
                {
                  "internalType": "int256",
                  "name": "twPremiumX96",
                  "type": "int256"
                },
                {
                  "internalType": "int256",
                  "name": "twPremiumDivBySqrtPriceX96",
                  "type": "int256"
                }
              ],
              "internalType": "struct Funding.Growth",
              "name": "fundingGrowthGlobal",
              "type": "tuple"
            }
          ],
          "internalType": "struct OrderBook.AddLiquidityParams",
          "name": "params",
          "type": "tuple"
        }
      ],
      "name": "addLiquidity",
      "outputs": [
        {
          "components": [
            {
              "internalType": "uint256",
              "name": "base",
              "type": "uint256"
            },
            {
              "internalType": "uint256",
              "name": "quote",
              "type": "uint256"
            },
            {
              "internalType": "uint256",
              "name": "fee",
              "type": "uint256"
            },
            {
              "internalType": "uint128",
              "name": "liquidity",
              "type": "uint128"
            }
          ],
          "internalType": "struct OrderBook.AddLiquidityResponse",
          "name": "",
          "type": "tuple"
        }
      ],
      "stateMutability": "nonpayable",
      "type": "function"
    },
    {
      "inputs": [],
      "name": "candidate",
      "outputs": [
        {
          "internalType": "address",
          "name": "",
          "type": "address"
        }
      ],
      "stateMutability": "view",
      "type": "function"
    },
    {
      "inputs": [],
      "name": "clearingHouse",
      "outputs": [
        {
          "internalType": "address",
          "name": "",
          "type": "address"
        }
      ],
      "stateMutability": "view",
      "type": "function"
    },
    {
      "inputs": [],
      "name": "exchange",
      "outputs": [
        {
          "internalType": "address",
          "name": "",
          "type": "address"
        }
      ],
      "stateMutability": "view",
      "type": "function"
    },
    {
      "inputs": [
        {
          "internalType": "address",
          "name": "baseToken",
          "type": "address"
        }
      ],
      "name": "getFeeGrowthGlobal",
      "outputs": [
        {
          "internalType": "uint256",
          "name": "",
          "type": "uint256"
        }
      ],
      "stateMutability": "view",
      "type": "function"
    },
    {
      "inputs": [
        {
          "internalType": "address",
          "name": "trader",
          "type": "address"
        },
        {
          "internalType": "address",
          "name": "baseToken",
          "type": "address"
        },
        {
          "components": [
            {
              "internalType": "int256",
              "name": "twPremiumX96",
              "type": "int256"
            },
            {
              "internalType": "int256",
              "name": "twPremiumDivBySqrtPriceX96",
              "type": "int256"
            }
          ],
          "internalType": "struct Funding.Growth",
          "name": "fundingGrowthGlobal",
          "type": "tuple"
        }
      ],
      "name": "getLiquidityCoefficientInFundingPayment",
      "outputs": [
        {
          "internalType": "int256",
          "name": "liquidityCoefficientInFundingPayment",
          "type": "int256"
        }
      ],
      "stateMutability": "view",
      "type": "function"
    },
    {
      "inputs": [
        {
          "internalType": "address",
          "name": "trader",
          "type": "address"
        },
        {
          "internalType": "address",
          "name": "baseToken",
          "type": "address"
        },
        {
          "internalType": "int24",
          "name": "lowerTick",
          "type": "int24"
        },
        {
          "internalType": "int24",
          "name": "upperTick",
          "type": "int24"
        }
      ],
      "name": "getOpenOrder",
      "outputs": [
        {
          "components": [
            {
              "internalType": "uint128",
              "name": "liquidity",
              "type": "uint128"
            },
            {
              "internalType": "int24",
              "name": "lowerTick",
              "type": "int24"
            },
            {
              "internalType": "int24",
              "name": "upperTick",
              "type": "int24"
            },
            {
              "internalType": "uint256",
              "name": "lastFeeGrowthInsideX128",
              "type": "uint256"
            },
            {
              "internalType": "int256",
              "name": "lastTwPremiumGrowthInsideX96",
              "type": "int256"
            },
            {
              "internalType": "int256",
              "name": "lastTwPremiumGrowthBelowX96",
              "type": "int256"
            },
            {
              "internalType": "int256",
              "name": "lastTwPremiumDivBySqrtPriceGrowthInsideX96",
              "type": "int256"
            }
          ],
          "internalType": "struct OrderBook.OpenOrder",
          "name": "",
          "type": "tuple"
        }
      ],
      "stateMutability": "view",
      "type": "function"
    },
    {
      "inputs": [
        {
          "internalType": "bytes32",
          "name": "orderId",
          "type": "bytes32"
        }
      ],
      "name": "getOpenOrderById",
      "outputs": [
        {
          "components": [
            {
              "internalType": "uint128",
              "name": "liquidity",
              "type": "uint128"
            },
            {
              "internalType": "int24",
              "name": "lowerTick",
              "type": "int24"
            },
            {
              "internalType": "int24",
              "name": "upperTick",
              "type": "int24"
            },
            {
              "internalType": "uint256",
              "name": "lastFeeGrowthInsideX128",
              "type": "uint256"
            },
            {
              "internalType": "int256",
              "name": "lastTwPremiumGrowthInsideX96",
              "type": "int256"
            },
            {
              "internalType": "int256",
              "name": "lastTwPremiumGrowthBelowX96",
              "type": "int256"
            },
            {
              "internalType": "int256",
              "name": "lastTwPremiumDivBySqrtPriceGrowthInsideX96",
              "type": "int256"
            }
          ],
          "internalType": "struct OrderBook.OpenOrder",
          "name": "",
          "type": "tuple"
        }
      ],
      "stateMutability": "view",
      "type": "function"
    },
    {
      "inputs": [
        {
          "internalType": "address",
          "name": "trader",
          "type": "address"
        },
        {
          "internalType": "address",
          "name": "baseToken",
          "type": "address"
        }
      ],
      "name": "getOpenOrderIds",
      "outputs": [
        {
          "internalType": "bytes32[]",
          "name": "",
          "type": "bytes32[]"
        }
      ],
      "stateMutability": "view",
      "type": "function"
    },
    {
      "inputs": [
        {
          "internalType": "address",
          "name": "trader",
          "type": "address"
        },
        {
          "internalType": "address",
          "name": "baseToken",
          "type": "address"
        },
        {
          "internalType": "int24",
          "name": "lowerTick",
          "type": "int24"
        },
        {
          "internalType": "int24",
          "name": "upperTick",
          "type": "int24"
        }
      ],
      "name": "getOwedFee",
      "outputs": [
        {
          "internalType": "uint256",
          "name": "",
          "type": "uint256"
        }
      ],
      "stateMutability": "view",
      "type": "function"
    },
    {
      "inputs": [
        {
          "internalType": "address",
          "name": "trader",
          "type": "address"
        },
        {
          "internalType": "address[]",
          "name": "baseTokens",
          "type": "address[]"
        }
      ],
      "name": "getTotalQuoteAmountInPools",
      "outputs": [
        {
          "internalType": "uint256",
          "name": "",
          "type": "uint256"
        }
      ],
      "stateMutability": "view",
      "type": "function"
    },
    {
      "inputs": [
        {
          "internalType": "address",
          "name": "trader",
          "type": "address"
        },
        {
          "internalType": "address",
          "name": "baseToken",
          "type": "address"
        },
        {
          "internalType": "bool",
          "name": "fetchBase",
          "type": "bool"
        }
      ],
      "name": "getTotalTokenAmountInPool",
      "outputs": [
        {
          "internalType": "uint256",
          "name": "tokenAmount",
          "type": "uint256"
        }
      ],
      "stateMutability": "view",
      "type": "function"
    },
    {
      "inputs": [
        {
          "internalType": "address",
          "name": "trader",
          "type": "address"
        },
        {
          "internalType": "address[]",
          "name": "tokens",
          "type": "address[]"
        }
      ],
      "name": "hasOrder",
      "outputs": [
        {
          "internalType": "bool",
          "name": "",
          "type": "bool"
        }
      ],
      "stateMutability": "view",
      "type": "function"
    },
    {
      "inputs": [
        {
          "internalType": "address",
          "name": "marketRegistryArg",
          "type": "address"
        },
        {
          "internalType": "address",
          "name": "quoteTokenArg",
          "type": "address"
        }
      ],
      "name": "initialize",
      "outputs": [],
      "stateMutability": "nonpayable",
      "type": "function"
    },
    {
      "inputs": [],
      "name": "marketRegistry",
      "outputs": [
        {
          "internalType": "address",
          "name": "",
          "type": "address"
        }
      ],
      "stateMutability": "view",
      "type": "function"
    },
    {
      "inputs": [],
      "name": "owner",
      "outputs": [
        {
          "internalType": "address",
          "name": "",
          "type": "address"
        }
      ],
      "stateMutability": "view",
      "type": "function"
    },
    {
      "inputs": [],
      "name": "quoteToken",
      "outputs": [
        {
          "internalType": "address",
          "name": "",
          "type": "address"
        }
      ],
      "stateMutability": "view",
      "type": "function"
    },
    {
      "inputs": [
        {
          "components": [
            {
              "internalType": "address",
              "name": "maker",
              "type": "address"
            },
            {
              "internalType": "address",
              "name": "baseToken",
              "type": "address"
            },
            {
              "internalType": "int24",
              "name": "lowerTick",
              "type": "int24"
            },
            {
              "internalType": "int24",
              "name": "upperTick",
              "type": "int24"
            },
            {
              "internalType": "uint128",
              "name": "liquidity",
              "type": "uint128"
            }
          ],
          "internalType": "struct OrderBook.RemoveLiquidityParams",
          "name": "params",
          "type": "tuple"
        }
      ],
      "name": "removeLiquidity",
      "outputs": [
        {
          "components": [
            {
              "internalType": "uint256",
              "name": "base",
              "type": "uint256"
            },
            {
              "internalType": "uint256",
              "name": "quote",
              "type": "uint256"
            },
            {
              "internalType": "uint256",
              "name": "fee",
              "type": "uint256"
            }
          ],
          "internalType": "struct OrderBook.RemoveLiquidityResponse",
          "name": "",
          "type": "tuple"
        }
      ],
      "stateMutability": "nonpayable",
      "type": "function"
    },
    {
      "inputs": [
        {
          "internalType": "address",
          "name": "maker",
          "type": "address"
        },
        {
          "internalType": "address",
          "name": "baseToken",
          "type": "address"
        },
        {
          "internalType": "bytes32[]",
          "name": "orderIds",
          "type": "bytes32[]"
        }
      ],
      "name": "removeLiquidityByIds",
      "outputs": [
        {
          "components": [
            {
              "internalType": "uint256",
              "name": "base",
              "type": "uint256"
            },
            {
              "internalType": "uint256",
              "name": "quote",
              "type": "uint256"
            },
            {
              "internalType": "uint256",
              "name": "fee",
              "type": "uint256"
            }
          ],
          "internalType": "struct OrderBook.RemoveLiquidityResponse",
          "name": "",
          "type": "tuple"
        }
      ],
      "stateMutability": "nonpayable",
      "type": "function"
    },
    {
      "inputs": [],
      "name": "renounceOwnership",
      "outputs": [],
      "stateMutability": "nonpayable",
      "type": "function"
    },
    {
      "inputs": [
        {
          "components": [
            {
              "internalType": "address",
              "name": "baseToken",
              "type": "address"
            },
            {
              "internalType": "bool",
              "name": "isBaseToQuote",
              "type": "bool"
            },
            {
              "internalType": "bool",
              "name": "shouldUpdateState",
              "type": "bool"
            },
            {
              "internalType": "int256",
              "name": "amount",
              "type": "int256"
            },
            {
              "internalType": "uint160",
              "name": "sqrtPriceLimitX96",
              "type": "uint160"
            },
            {
              "internalType": "uint24",
              "name": "exchangeFeeRatio",
              "type": "uint24"
            },
            {
              "internalType": "uint24",
              "name": "uniswapFeeRatio",
              "type": "uint24"
            },
            {
              "components": [
                {
                  "internalType": "int256",
                  "name": "twPremiumX96",
                  "type": "int256"
                },
                {
                  "internalType": "int256",
                  "name": "twPremiumDivBySqrtPriceX96",
                  "type": "int256"
                }
              ],
              "internalType": "struct Funding.Growth",
              "name": "globalFundingGrowth",
              "type": "tuple"
            }
          ],
          "internalType": "struct OrderBook.ReplaySwapParams",
          "name": "params",
          "type": "tuple"
        }
      ],
      "name": "replaySwap",
      "outputs": [
        {
          "components": [
            {
              "internalType": "int24",
              "name": "tick",
              "type": "int24"
            },
            {
              "internalType": "uint256",
              "name": "fee",
              "type": "uint256"
            },
            {
              "internalType": "uint256",
              "name": "insuranceFundFee",
              "type": "uint256"
            }
          ],
          "internalType": "struct OrderBook.ReplaySwapResponse",
          "name": "",
          "type": "tuple"
        }
      ],
      "stateMutability": "nonpayable",
      "type": "function"
    },
    {
      "inputs": [
        {
          "internalType": "address",
          "name": "clearingHouseArg",
          "type": "address"
        }
      ],
      "name": "setClearingHouse",
      "outputs": [],
      "stateMutability": "nonpayable",
      "type": "function"
    },
    {
      "inputs": [
        {
          "internalType": "address",
          "name": "exchangeArg",
          "type": "address"
        }
      ],
      "name": "setExchange",
      "outputs": [],
      "stateMutability": "nonpayable",
      "type": "function"
    },
    {
      "inputs": [
        {
          "internalType": "address",
          "name": "newOwner",
          "type": "address"
        }
      ],
      "name": "setOwner",
      "outputs": [],
      "stateMutability": "nonpayable",
      "type": "function"
    },
    {
      "inputs": [
        {
          "internalType": "uint256",
          "name": "amount0Owed",
          "type": "uint256"
        },
        {
          "internalType": "uint256",
          "name": "amount1Owed",
          "type": "uint256"
        },
        {
          "internalType": "bytes",
          "name": "data",
          "type": "bytes"
        }
      ],
      "name": "uniswapV3MintCallback",
      "outputs": [],
      "stateMutability": "nonpayable",
      "type": "function"
    },
    {
      "inputs": [
        {
          "internalType": "address",
          "name": "trader",
          "type": "address"
        },
        {
          "internalType": "address",
          "name": "baseToken",
          "type": "address"
        },
        {
          "components": [
            {
              "internalType": "int256",
              "name": "twPremiumX96",
              "type": "int256"
            },
            {
              "internalType": "int256",
              "name": "twPremiumDivBySqrtPriceX96",
              "type": "int256"
            }
          ],
          "internalType": "struct Funding.Growth",
          "name": "fundingGrowthGlobal",
          "type": "tuple"
        }
      ],
      "name": "updateFundingGrowthAndLiquidityCoefficientInFundingPayment",
      "outputs": [
        {
          "internalType": "int256",
          "name": "liquidityCoefficientInFundingPayment",
          "type": "int256"
        }
      ],
      "stateMutability": "nonpayable",
      "type": "function"
    },
    {
      "inputs": [],
      "name": "updateOwner",
      "outputs": [],
      "stateMutability": "nonpayable",
      "type": "function"
    }
  ],
  "bytecode": "0x608060405234801561001057600080fd5b50615d2380620000216000396000f3fe608060405234801561001057600080fd5b50600436106101495760003560e01c80630af968001461014e57806313af40351461016c578063217a4b7014610181578063398dbcfd14610189578063436933ea146101a9578063449323d8146101c957806347b52fb7146101dc578063485cc955146101fc5780634dffaee51461020f57806359bfbc5a1461022f5780635b778b9d1461024257806367b1f5df146102555780636c8381f814610268578063715018a6146102705780637fc2673614610278578063865bcccc1461028b5780638da5cb5b1461029e578063a3bf0df8146102a6578063acf71827146102c6578063bc5920ba146102e6578063bf0b1abb146102ee578063d2f7265a14610301578063d348799714610309578063e8ab2fb31461031c578063eaad23541461033c578063ecb96fe61461034f578063ffa6132714610357575b600080fd5b61015661036a565b60405161016391906156ee565b60405180910390f35b61017f61017a366004615037565b610379565b005b6101566104d4565b61019c6101973660046150a7565b6104e3565b6040516101639190615ac9565b6101bc6101b736600461506f565b6106dc565b60405161016391906157c5565b61017f6101d7366004615037565b610756565b6101ef6101ea3660046151ae565b61082b565b6040516101639190615889565b61017f61020a36600461506f565b610a2a565b61022261021d3660046151f5565b610b18565b6040516101639190615809565b6101ef61023d366004615037565b610b9b565b61019c610250366004615347565b610bba565b61017f610263366004615037565b610c13565b610156610cb8565b61017f610cc7565b6101ef6102863660046151ae565b610d68565b6101ef6102993660046151f5565b610f79565b610156610fdb565b6102b96102b43660046153e8565b610fea565b6040516101639190615aea565b6102d96102d4366004615247565b6115bb565b6040516101639190615a6d565b61017f611640565b6101ef6102fc366004615109565b61172c565b610156611739565b61017f61031736600461565a565b611748565b61032f61032a366004615297565b6118e8565b6040516101639190615a16565b6102d961034a366004615153565b611d87565b610156611e24565b6101ef610365366004615153565b611e33565b6068546001600160a01b031681565b610381611ed6565b6001600160a01b0316610392610fdb565b6001600160a01b0316146103d6576040805162461bcd60e51b8152602060048201526006602482015265534f5f434e4f60d01b604482015290519081900360640190fd5b6001600160a01b03811661041a576040805162461bcd60e51b81526020600482015260066024820152650534f5f4e57360d41b604482015290519081900360640190fd5b6033546001600160a01b0382811691161415610466576040805162461bcd60e51b8152602060048201526006602482015265534f5f53414f60d01b604482015290519081900360640190fd5b6034546001600160a01b03828116911614156104b2576040805162461bcd60e51b8152602060048201526006602482015265534f5f53414360d01b604482015290519081900360640190fd5b603480546001600160a01b0319166001600160a01b0392909216919091179055565b609c546001600160a01b031681565b6104eb614df0565b6068546001600160a01b03166104ff611ed6565b6001600160a01b03161461052e5760405162461bcd60e51b8152600401610525906158d4565b60405180910390fd5b60008080805b858110156106b757600087878381811061054a57fe5b9050602002013590506000609e60008381526020019081526020016000206040518060e00160405290816000820160009054906101000a90046001600160801b03166001600160801b03166001600160801b031681526020016000820160109054906101000a900460020b60020b60020b81526020016000820160139054906101000a900460020b60020b60020b8152602001600182015481526020016002820154815260200160038201548152602001600482015481525050905060006106646040518060a001604052808e6001600160a01b031681526020018d6001600160a01b03168152602001846020015160020b8152602001846040015160020b815260200184600001516001600160801b0316815250611eda565b805190915061067490889061220c565b965061068d81602001518761220c90919063ffffffff16565b95506106a681604001518661220c90919063ffffffff16565b945050600190920191506105349050565b506040805160608101825293845260208401929092529082015290505b949350505050565b6001600160a01b038083166000908152609d6020908152604080832093851683529281529082902080548351818402810184019094528084526060939283018282801561074857602002820191906000526020600020905b815481526020019060010190808311610734575b505050505090505b92915050565b61075e611ed6565b6001600160a01b031661076f610fdb565b6001600160a01b0316146107b3576040805162461bcd60e51b8152602060048201526006602482015265534f5f434e4f60d01b604482015290519081900360640190fd5b6107c5816001600160a01b0316612264565b6107e15760405162461bcd60e51b815260040161052590615995565b606880546001600160a01b0319166001600160a01b0383169081179091556040517fd0654f5900f9e7e4e605a19334306e6a2786bbf960ac0484a4c12feb6428fe2f90600090a250565b6001600160a01b038084166000908152609d602090815260408083209386168352928152828220805484518184028101840190955280855292938493909283018282801561089857602002820191906000526020600020905b815481526020019060010190808311610884575b5050506001600160a01b038088166000908152609f6020526040808220606754915163bbe4f6db60e01b815296975095919450909116915063bbe4f6db906108e49089906004016156ee565b60206040518083038186803b1580156108fc57600080fd5b505afa158015610910573d6000803e3d6000fd5b505050506040513d601f19601f820116820180604052508101906109349190615053565b905060005b8351811015610a1e576000609e600086848151811061095457fe5b60209081029190910181015182528181019290925260409081016000908120825160e08101845281546001600160801b0381168252600160801b8104600290810b810b810b968301879052600160981b909104810b810b810b948201859052600183015460608301528201546080820152600382015460a082015260049091015460c08201529350916109fc916109ea8761226a565b8b5160208d01518a94939291906122ea565b9050610a12610a0b83836123da565b88906124c4565b96505050600101610939565b505050505b9392505050565b600054610100900460ff1680610a435750610a43612529565b80610a51575060005460ff16155b610a8c5760405162461bcd60e51b815260040180806020018281038252602e815260200180615bec602e913960400191505060405180910390fd5b600054610100900460ff16158015610ab7576000805460ff1961ff0019909116610100171660011790555b610ac08361253a565b6001600160a01b038216610ae65760405162461bcd60e51b815260040161052590615955565b609c80546001600160a01b0319166001600160a01b0384161790558015610b13576000805461ff00191690555b505050565b6000805b82811015610b90576001600160a01b0385166000908152609d6020526040812081868685818110610b4957fe5b9050602002016020810190610b5e9190615037565b6001600160a01b031681526020810191909152604001600020541115610b88576001915050610a23565b600101610b1c565b506000949350505050565b6001600160a01b038116600090815260a060205260409020545b919050565b610bc2614df0565b6068546001600160a01b0316610bd6611ed6565b6001600160a01b031614610bfc5760405162461bcd60e51b8152600401610525906158d4565b610750610c0e36849003840184615358565b611eda565b610c1b611ed6565b6001600160a01b0316610c2c610fdb565b6001600160a01b031614610c70576040805162461bcd60e51b8152602060048201526006602482015265534f5f434e4f60d01b604482015290519081900360640190fd5b6001600160a01b038116610c965760405162461bcd60e51b815260040161052590615915565b609b80546001600160a01b0319166001600160a01b0392909216919091179055565b6034546001600160a01b031690565b610ccf611ed6565b6001600160a01b0316610ce0610fdb565b6001600160a01b031614610d24576040805162461bcd60e51b8152602060048201526006602482015265534f5f434e4f60d01b604482015290519081900360640190fd5b6033546040516000916001600160a01b031690600080516020615c3b833981519152908390a3603380546001600160a01b0319908116909155603480549091169055565b6001600160a01b038084166000908152609d6020908152604080832093861683529281528282208054845181840281018401909552808552929384939092830182828015610dd557602002820191906000526020600020905b815481526020019060010190808311610dc1575b5050506001600160a01b038088166000908152609f6020526040808220606754915163bbe4f6db60e01b815296975095919450909116915063bbe4f6db90610e219089906004016156ee565b60206040518083038186803b158015610e3957600080fd5b505afa158015610e4d573d6000803e3d6000fd5b505050506040513d601f19601f82011682018060405250810190610e719190615053565b905060005b8351811015610a1e576000609e6000868481518110610e9157fe5b602090810291909101810151825281019190915260400160009081208054909250610ed590600160801b8104600290810b91600160981b9004900b6109ea8761226a565b6040805160e08101825284546001600160801b0381168252600160801b8104600290810b810b810b6020840152600160981b909104810b810b810b9282019290925260018501546060820152908401546080820152600384015460a0820152600484015460c0820152909150610f4f90610a0b90836123da565b81516002840155602082015160038401556040909101516004909201919091559450600101610e76565b60008060005b83811015610fd2576000858583818110610f9557fe5b9050602002016020810190610faa9190615037565b90506000610fba8883600061262e565b9050610fc6848261220c565b93505050600101610f7f565b50949350505050565b6033546001600160a01b031690565b610ff2614e11565b609b546001600160a01b0316611006611ed6565b6001600160a01b03161461102c5760405162461bcd60e51b815260040161052590615975565b606754825160405163bbe4f6db60e01b81526000926001600160a01b03169163bbe4f6db9161105e91906004016156ee565b60206040518083038186803b15801561107657600080fd5b505afa15801561108a573d6000803e3d6000fd5b505050506040513d601f19601f820116820180604052508101906110ae9190615053565b6060840151606754855160405163033e16f360e21b81529394506000928312936001600160a01b0390921691630cf85bcc916110ec916004016156ee565b60806040518083038186803b15801561110457600080fd5b505afa158015611118573d6000803e3d6000fd5b505050506040513d601f19601f8201168201806040525081019061113c91906152ca565b606001519050600080600061117f86896060015160a060008c600001516001600160a01b03166001600160a01b03168152602001908152602001600020546128e6565b905087608001516001600160a01b03166000146111a05787608001516111ca565b87602001516111c35773fffd8963efd1fc6a506488495d951d5263988d256111ca565b6401000276a45b6001600160a01b031660808901525b604081015115801590611206575087608001516001600160a01b031681602001516001600160a01b031614155b1561156b57611213614e35565b60208201516001600160a01b03168152815161123e908890611234826129b8565b8c60200151612a2b565b15156040830152600290810b810b60208301819052620d89e719910b121561126f57620d89e719602082015261128e565b6020810151620d89e860029190910b131561128e57620d89e860208201525b61129b8160200151612b4d565b6001600160a01b03166060820152602080830151908a015161133891906112de578a608001516001600160a01b031683606001516001600160a01b0316116112fc565b8a608001516001600160a01b031683606001516001600160a01b0316105b61130a578260600151611310565b8a608001515b846080015185604001518d6020015161132d578d60a00151611333565b8d60c001515b612e74565b60c085015260a084015260808301526001600160a01b03166020830152851561137f5761136e8160c00151826080015101613066565b604083018051919091039052611398565b61138c8160a00151613066565b60408301805190910190525b60808201516001600160801b03161561143a578860200151156113d6576113d08160a001518a60a0015162ffffff16620f42406130ae565b60c08201525b60c0810151938401936000906113f59062ffffff8816620f42406130ae565b60c08301519481019490915060009061140e90836130e8565b905061142c81600160801b86608001516001600160801b0316613145565b606085018051909101905250505b80606001516001600160a01b031682602001516001600160a01b0316141561152d57806040015115611503578860400151156114c55788516001600160a01b03166000908152609f602090815260409182902083820151835160608082018652870151815260e08e0180515182860152519093015193830193909352916114c3918391906131f4565b505b60006114d5888360200151613233565b90508960200151156114e5576000035b6114f38360800151826132c2565b6001600160801b03166080840152505b886020015161151657806020015161151f565b60018160200151035b600290810b900b8252611565565b80600001516001600160a01b031682602001516001600160a01b0316146115655761155b8260200151613378565b600290810b900b82525b506111d9565b87604001511561159557606081015188516001600160a01b0316600090815260a060205260409020555b60408051606081018252915160020b825260208201939093529182015295945050505050565b6115c3614e71565b506000908152609e6020908152604091829020825160e08101845281546001600160801b0381168252600160801b8104600290810b810b810b94830194909452600160981b9004830b830b830b9381019390935260018101546060840152908101546080830152600381015460a08301526004015460c082015290565b6034546001600160a01b0316611685576040805162461bcd60e51b81526020600482015260056024820152640534f5f43360dc1b604482015290519081900360640190fd5b61168d611ed6565b6034546001600160a01b039081169116146116d8576040805162461bcd60e51b8152602060048201526006602482015265534f5f434e4360d01b604482015290519081900360640190fd5b6034546033546040516001600160a01b039283169290911690600080516020615c3b83398151915290600090a360348054603380546001600160a01b03199081166001600160a01b03841617909155169055565b60006106d484848461262e565b609b546001600160a01b031681565b6000611752611ed6565b90506000816001600160a01b0316630dfe16816040518163ffffffff1660e01b815260040160206040518083038186803b15801561178f57600080fd5b505afa1580156117a3573d6000803e3d6000fd5b505050506040513d601f19601f820116820180604052508101906117c79190615053565b60675460405163bbe4f6db60e01b81529192506001600160a01b03169063bbe4f6db906117f89084906004016156ee565b60206040518083038186803b15801561181057600080fd5b505afa158015611824573d6000803e3d6000fd5b505050506040513d601f19601f820116820180604052508101906118489190615053565b6001600160a01b0316826001600160a01b0316146118785760405162461bcd60e51b8152600401610525906159b7565b60685460405163d348799760e01b81526001600160a01b039091169063d3487997906118ae908990899089908990600401615b0e565b600060405180830381600087803b1580156118c857600080fd5b505af11580156118dc573d6000803e3d6000fd5b50505050505050505050565b6118f0614ebd565b6068546001600160a01b0316611904611ed6565b6001600160a01b03161461192a5760405162461bcd60e51b8152600401610525906158d4565b6067546000906001600160a01b031663bbe4f6db61194e6040860160208701615037565b6040518263ffffffff1660e01b815260040161196a91906156ee565b60206040518083038186803b15801561198257600080fd5b505afa158015611996573d6000803e3d6000fd5b505050506040513d601f19601f820116820180604052508101906119ba9190615053565b9050600060a0816119d16040870160208801615037565b6001600160a01b03166001600160a01b031681526020019081526020016000205490506000609f6000866020016020810190611a0d9190615037565b6001600160a01b03166001600160a01b031681526020019081526020016000209050611a37614eee565b6000611a5285611a4d60a08a0160808b0161525f565b613663565b90506000611a6a86611a4d60c08b0160a08c0161525f565b9050611b306040518060c00160405280886001600160a01b031681526020018a6080016020810190611a9c919061525f565b60020b8152602001611ab460c08c0160a08d0161525f565b60020b81526020018a6040013581526020018a60600135815260200160405180604001604052808c6000016020810190611aee9190615037565b6001600160a01b031681526020018a6001600160a01b0316815250604051602001611b199190615a4a565b6040516020818303038152906040528152506136f1565b92506000611b3d8761226a565b905082158015611b5c5750611b5c87611a4d60a08c0160808d0161525f565b15611ba157611ba1611b7460a08b0160808c0161525f565b6040805160608101825289815260c08d0135602082015260e08d013591810191909152879190849061385b565b81158015611bbe5750611bbe87611a4d60c08c0160a08d0161525f565b15611bd657611bd6611b7460c08b0160a08c0161525f565b505060408051610100810190915260009150611c969080611bfa60208b018b615037565b6001600160a01b03168152602001896020016020810190611c1b9190615037565b6001600160a01b03908116825288166020820152604001611c4260a08b0160808c0161525f565b60020b8152602001611c5a60c08b0160a08c0161525f565b60020b815260200186815260200184604001516001600160801b031681526020018960c001803603810190611c8f91906152af565b9052613899565b609c549091506001600160a01b0316611cb56040890160208a01615037565b6001600160a01b0316611ccb60208a018a615037565b6001600160a01b0316600080516020615c82833981519152611cf360a08c0160808d0161525f565b611d0360c08d0160a08e0161525f565b8751611d0e90613066565b611d1b8960200151613066565b611d318a604001516001600160801b0316613b4d565b89604051611d4496959493929190615830565b60405180910390a46040805160808101825283518152602080850151908201528082019290925291909101516001600160801b0316606082015295945050505050565b611d8f614e71565b609e6000611d9f87878787613ba5565b81526020808201929092526040908101600020815160e08101835281546001600160801b0381168252600160801b8104600290810b810b810b95830195909552600160981b9004840b840b840b9281019290925260018101546060830152918201546080820152600382015460a082015260049091015460c082015295945050505050565b6067546001600160a01b031681565b600080611ecb85609e6000611e4a8a8a8a8a613ba5565b81526020808201929092526040908101600020815160e08101835281546001600160801b0381168252600160801b8104600290810b810b810b95830195909552600160981b9004840b840b840b9281019290925260018101546060830152918201546080820152600382015460a082015260049091015460c0820152613c01565b509695505050505050565b3390565b611ee2614df0565b6000611f008360000151846020015185604001518660600151613ba5565b6000818152609e602052604090208054919250906001600160801b0316611f395760405162461bcd60e51b815260040161052590615935565b805460808501516001600160801b0391821691161115611f6b5760405162461bcd60e51b8152600401610525906158b4565b606754602085015160405163bbe4f6db60e01b81526000926001600160a01b03169163bbe4f6db91611fa091906004016156ee565b60206040518083038186803b158015611fb857600080fd5b505afa158015611fcc573d6000803e3d6000fd5b505050506040513d601f19601f82011682018060405250810190611ff09190615053565b905060006120656040518060a00160405280846001600160a01b03168152602001609b60009054906101000a90046001600160a01b03166001600160a01b03168152602001886040015160020b8152602001886060015160020b815260200188608001516001600160801b0316815250613cfd565b905060006120dc6040518060c0016040528089600001516001600160a01b0316815260200189602001516001600160a01b03168152602001856001600160a01b03168152602001896040015160020b8152602001896060015160020b815260200189608001516001600160801b0316815250613e48565b90506120ec838860400151613663565b61211c576040808801516020808a01516001600160a01b03166000908152609f9091529190912061211c91613f61565b61212a838860600151613663565b6121595760608701516020808901516001600160a01b03166000908152609f9091526040902061215991613f61565b609c546020880151885160408a015160608b015186516001600160a01b03958616959485169490931692600080516020615c8283398151915292919061219e90613066565b6000036121ae8960200151613066565b6000036121c78f608001516001600160801b0316613b4d565b600003896040516121dd96959493929190615830565b60405180910390a460408051606081018252835181526020938401519381019390935282015295945050505050565b600082820183811015610a23576040805162461bcd60e51b815260206004820152601b60248201527a536166654d6174683a206164646974696f6e206f766572666c6f7760281b604482015290519081900360640190fd5b3b151590565b6000816001600160a01b0316633850c7bd6040518163ffffffff1660e01b815260040160e06040518083038186803b1580156122a557600080fd5b505afa1580156122b9573d6000803e3d6000fd5b505050506040513d601f19601f820116820180604052508101906122dd9190615591565b5093979650505050505050565b6122f2614df0565b600286810b80820b600090815260208a905260408082206001908101548a860b860b84529190922090910154909290919087900b121561233457818503612336565b815b60208401526000600288810b9088900b1261235357818603612355565b815b60028a810b80820b600090815260208e905260408082208401548d850b850b835290822084015494955093929091908b900b121561239557828803612397565b825b905060008b60020b8b60020b126123b0578289036123b2565b825b6020890151909a03949094038752909603969096036040850152509198975050505050505050565b6000806123ea8460400151612b4d565b905060006124076123fe8660200151612b4d565b86518490613f85565b905060006124386124298760a001518760200151613fee90919063ffffffff16565b61243284613066565b90614053565b905060006124a5612491612478866001600160a01b0316612472600160601b6124328d608001518d60000151613fee90919063ffffffff16565b906140fc565b60c08a015160408a015161248b91613fee565b90613fee565b8851612432906001600160801b0316613066565b90506124b9600160601b61247284846124c4565b979650505050505050565b60008282018183128015906124d95750838112155b806124ee57506000831280156124ee57508381125b610a235760405162461bcd60e51b8152600401808060200182810382526021815260200180615bcb6021913960400191505060405180910390fd5b600061253430612264565b15905090565b600054610100900460ff16806125535750612553612529565b80612561575060005460ff16155b61259c5760405162461bcd60e51b815260040180806020018281038252602e815260200180615bec602e913960400191505060405180910390fd5b600054610100900460ff161580156125c7576000805460ff1961ff0019909116610100171660011790555b6125cf6141b4565b6125e1826001600160a01b0316612264565b6125fd5760405162461bcd60e51b815260040161052590615892565b606780546001600160a01b0319166001600160a01b038416179055801561262a576000805461ff00191690555b5050565b6001600160a01b038084166000908152609d602090815260408083209386168352928152828220805484518184028101840190955280855292938493909283018282801561269b57602002820191906000526020600020905b815481526020019060010190808311612687575b505060675460405163bbe4f6db60e01b815294955060009461272f94506001600160a01b03909116925063bbe4f6db91506126da9089906004016156ee565b60206040518083038186803b1580156126f257600080fd5b505afa158015612706573d6000803e3d6000fd5b505050506040513d601f19601f8201168201806040525081019061272a9190615053565b6142a4565b905060005b82518110156128dc576000609e600085848151811061274f57fe5b60209081029190910181015182528181019290925260409081016000908120825160e08101845281546001600160801b0381168252600160801b8104600290810b810b810b968301879052600160981b909104810b810b810b9482019490945260018201546060820152928101546080840152600381015460a08401526004015460c08301529092509081906127e490612b4d565b905060006127f58460400151612b4d565b90508880156128155750806001600160a01b0316866001600160a01b0316105b1561284e57612847826001600160a01b0316876001600160a01b03161161283c578261283e565b865b85518390613f85565b92506128a1565b8815801561286d5750816001600160a01b0316866001600160a01b0316115b156128a15761289e82826001600160a01b0316886001600160a01b0316106128955782612897565b875b8651614324565b92505b506128ae9050868261220c565b9550866128d25760006128c18984613c01565b5090506128ce878261220c565b9650505b5050600101612734565b5050509392505050565b6128ee614f18565b600080856001600160a01b0316633850c7bd6040518163ffffffff1660e01b815260040160e06040518083038186803b15801561292a57600080fd5b505afa15801561293e573d6000803e3d6000fd5b505050506040513d601f19601f820116820180604052508101906129629190615591565b5050505050915091506040518060a001604052808260020b8152602001836001600160a01b031681526020018681526020018581526020016129a388614367565b6001600160801b031690529695505050505050565b6000816001600160a01b031663d0c93a7c6040518163ffffffff1660e01b815260040160206040518083038186803b1580156129f357600080fd5b505afa158015612a07573d6000803e3d6000fd5b505050506040513d601f19601f82011682018060405250810190610750919061527b565b60008060008460020b8660020b81612a3f57fe5b05905060008660020b128015612a6657508460020b8660020b81612a5f57fe5b0760020b15155b15612a7057600019015b8315612ad957600080612a82836143da565b9092509050600160ff82161b800160001901600081612aa18c866143ec565b168015159650905085612abb57888360ff16860302612ace565b88612ac58261446b565b840360ff168603025b965050505050612b43565b600080612ae8836001016143da565b9092509050600019600160ff83161b0119600081612b068c866143ec565b168015159650905085612b2657888360ff0360ff16866001010102612b3c565b8883612b3183614505565b0360ff168660010101025b9650505050505b5094509492505050565b60008060008360020b12612b64578260020b612b6c565b8260020b6000035b9050620d89e8811115612baa576040805162461bcd60e51b81526020600482015260016024820152601560fa1b604482015290519081900360640190fd5b600060018216612bbe57600160801b612bd0565b6ffffcb933bd6fad37aa2d162d1a5940015b6001600160881b031690506002821615612bfa576ffff97272373d413259a46990580e213a0260801c5b6004821615612c19576ffff2e50f5f656932ef12357cf3c7fdcc0260801c5b6008821615612c38576fffe5caca7e10e4e61c3624eaa0941cd00260801c5b6010821615612c57576fffcb9843d60f6159c9db58835c9266440260801c5b6020821615612c76576fff973b41fa98c081472e6896dfb254c00260801c5b6040821615612c95576fff2ea16466c96a3843ec78b326b528610260801c5b6080821615612cb4576ffe5dee046a99a2a811c461f1969c30530260801c5b610100821615612cd4576ffcbe86c7900a88aedcffc83b479aa3a40260801c5b610200821615612cf4576ff987a7253ac413176f2b074cf7815e540260801c5b610400821615612d14576ff3392b0822b70005940c7a398e4b70f30260801c5b610800821615612d34576fe7159475a2c29b7443b29c7fa6e889d90260801c5b611000821615612d54576fd097f3bdfd2022b8845ad8f792aa58250260801c5b612000821615612d74576fa9f746462d870fdf8a65dc1f90e061e50260801c5b614000821615612d94576f70d869a156d2a1b890bb3df62baf32f70260801c5b618000821615612db4576f31be135f97d08fd981231505542fcfa60260801c5b62010000821615612dd5576f09aa508b5b7a84e1c677de54f3e99bc90260801c5b62020000821615612df5576e5d6af8dedb81196699c329225ee6040260801c5b62040000821615612e14576d2216e584f5fa1ea926041bedfe980260801c5b62080000821615612e31576b048a170391f7dc42444e8fa20260801c5b60008460020b1315612e4c578060001981612e4857fe5b0490505b600160201b810615612e5f576001612e62565b60005b60ff16602082901c0192505050919050565b60008080806001600160a01b03808916908a161015818712801590612ef9576000612ead8989620f42400362ffffff16620f4240613145565b905082612ec657612ec18c8c8c60016145ee565b612ed3565b612ed38b8d8c6001614667565b9550858110612ee4578a9650612ef3565b612ef08c8b8386614707565b96505b50612f43565b81612f1057612f0b8b8b8b6000614667565b612f1d565b612f1d8a8c8b60006145ee565b9350838860000310612f3157899550612f43565b612f408b8a8a60000385614753565b95505b6001600160a01b038a8116908716148215612fa657808015612f625750815b612f7857612f73878d8c6001614667565b612f7a565b855b9550808015612f87575081155b612f9d57612f98878d8c60006145ee565b612f9f565b845b9450612ff0565b808015612fb05750815b612fc657612fc18c888c60016145ee565b612fc8565b855b9550808015612fd5575081155b612feb57612fe68c888c6000614667565b612fed565b845b94505b8115801561300057508860000385115b1561300c578860000394505b81801561302b57508a6001600160a01b0316876001600160a01b031614155b1561303a578589039350613057565b613054868962ffffff168a620f42400362ffffff166130ae565b93505b50505095509550955095915050565b6000600160ff1b82106130aa5760405162461bcd60e51b8152600401808060200182810382526028815260200180615ca26028913960400191505060405180910390fd5b5090565b60006130bb848484613145565b9050600082806130c757fe5b8486091115610a235760001981106130de57600080fd5b6001019392505050565b60008282111561313f576040805162461bcd60e51b815260206004820152601e60248201527f536166654d6174683a207375627472616374696f6e206f766572666c6f770000604482015290519081900360640190fd5b50900390565b600080806000198587098686029250828110908390030390508061317b576000841161317057600080fd5b508290049050610a23565b80841161318757600080fd5b6000848688096000868103871696879004966002600389028118808a02820302808a02820302808a02820302808a02820302808a02820302808a02909103029181900381900460010186841190950394909402919094039290920491909117919091029150509392505050565b600291820b820b600090815260209384526040908190208054835103815560018101805495840151959095039094559290910180549190920151039055565b60405163f30dba9360e01b81526000906001600160a01b0384169063f30dba9390613262908590600401615822565b6101006040518083038186803b15801561327b57600080fd5b505afa15801561328f573d6000803e3d6000fd5b505050506040513d601f19601f820116820180604052508101906132b391906154b9565b50949998505050505050505050565b60008082600f0b121561332757826001600160801b03168260000384039150816001600160801b031610613322576040805162461bcd60e51b81526020600482015260026024820152614c5360f01b604482015290519081900360640190fd5b610750565b826001600160801b03168284019150816001600160801b03161015610750576040805162461bcd60e51b81526020600482015260026024820152614c4160f01b604482015290519081900360640190fd5b60006401000276a36001600160a01b038316108015906133b4575073fffd8963efd1fc6a506488495d951d5263988d266001600160a01b038316105b6133e9576040805162461bcd60e51b81526020600482015260016024820152602960f91b604482015290519081900360640190fd5b600160201b600160c01b03602083901b166001600160801b03811160071b81811c6001600160401b03811160061b90811c63ffffffff811160051b90811c61ffff811160041b90811c60ff8111600390811b91821c600f811160021b90811c918211600190811b92831c9790881196179094179092171790911717176080811061347b57607f810383901c9150613485565b80607f0383901b91505b908002607f81811c60ff83811c9190911c800280831c81831c1c800280841c81841c1c800280851c81851c1c800280861c81861c1c800280871c81871c1c800280881c81881c1c800280891c81891c1c8002808a1c818a1c1c8002808b1c818b1c1c8002808c1c818c1c1c8002808d1c818d1c1c8002808e1c9c81901c9c909c1c80029c8d901c9e9d607f198f0160401b60c09190911c6001603f1b161760c19b909b1c6001603e1b169a909a1760c29990991c6001603d1b169890981760c39790971c6001603c1b169690961760c49590951c6001603b1b169490941760c59390931c6001603a1b169290921760c69190911c600160391b161760c79190911c600160381b161760c89190911c600160371b161760c99190911c600160361b161760ca9190911c600160351b161760cb9190911c600160341b161760cc9190911c600160331b161760cd9190911c600160321b1617693627a301d71055774c8581026f028f6481ab7f045a5af012a19d003aa9198101608090811d906fdb2df09e81959a81455e260799a0632f8301901d600281810b9083900b1461365457886001600160a01b031661363882612b4d565b6001600160a01b0316111561364d578161364f565b805b613656565b815b9998505050505050505050565b60405163f30dba9360e01b81526000906001600160a01b0384169063f30dba9390613692908590600401615822565b6101006040518083038186803b1580156136ab57600080fd5b505afa1580156136bf573d6000803e3d6000fd5b505050506040513d601f19601f820116820180604052508101906136e391906154b9565b9a9950505050505050505050565b6136f9614eee565b600082606001511180613710575060008260800151115b61372c5760405162461bcd60e51b8152600401610525906158f5565b600061376761373e84600001516142a4565b61374b8560200151612b4d565b6137588660400151612b4d565b8660600151876080015161479f565b90506000816001600160801b0316116137925760405162461bcd60e51b8152600401610525906159f7565b8251602084015160408086015160a08701519151633c8a7d8d60e01b815260009485946001600160a01b0390911693633c8a7d8d936137d8933093928a91600401615702565b6040805180830381600087803b1580156137f157600080fd5b505af1158015613805573d6000803e3d6000fd5b505050506040513d601f19601f820116820180604052508101906138299190615637565b915091506040518060600160405280838152602001828152602001846001600160801b03168152509350505050919050565b8160020b8360020b13613893578051600284810b810b6000908152602087815260409182902093845584015160018401558301519101555b50505050565b6000806138b88360000151846020015185606001518660800151613ba5565b6000818152609e6020526040812080549293509181906001600160801b0316613a7d5785516001600160a01b039081166000908152609d60209081526040808320828b015185168452825280832060675482516317541d4f60e31b815292519195169263baa0ea789260048082019391829003018186803b15801561393c57600080fd5b505afa158015613950573d6000803e3d6000fd5b505050506040513d601f19601f8201168201806040525081019061397491906156d4565b905060ff811615806139895750815460ff8216115b6139a55760405162461bcd60e51b8152600401610525906159d7565b81546001810183556000838152602080822090920188905560608a0151875460808c015162ffffff60801b19909116600160801b600293840b62ffffff90811682029290921762ffffff60981b1916600160981b93850b92909216830291909117808b558d8601516001600160a01b03168552609f9095526040808520908e01519095613a5994928104830b93900490910b90613a419061226a565b60e08e015180516020909101518794939291906122ea565b805160028901556020810151600389015560400151600488015550613afc92505050565b6020808701516040805160e08101825286546001600160801b0381168252600160801b8104600290810b810b810b95830195909552600160981b9004840b840b840b9181019190915260018601546060820152918501546080830152600385015460a0830152600485015460c0830152613af691613c01565b90925090505b60c08601518354613b2291613b1d916001600160801b03908116911661220c565b614861565b83546001600160801b0319166001600160801b03919091161783556001909201919091559392505050565b600060016001607f1b03198212158015613b6a57506001607f1b82125b6130aa5760405162461bcd60e51b8152600401808060200182810382526027815260200180615ba46027913960400191505060405180910390fd5b604080516001600160601b0319606096871b81166020808401919091529590961b9095166034860152600292830b60e890811b60488701529190920b901b604b8401528051602e818503018152604e9093019052815191012090565b6001600160a01b038083166000908152609f602090815260408083209185015185820151606754925163bbe4f6db60e01b815294958695613cce94613cab92169063bbe4f6db90613c56908c906004016156ee565b60206040518083038186803b158015613c6e57600080fd5b505afa158015613c82573d6000803e3d6000fd5b505050506040513d601f19601f82011682018060405250810190613ca69190615053565b61226a565b6001600160a01b038916600090815260a0602052604090205485939291906148a5565b9150613cf28460600151830385600001516001600160801b0316600160801b613145565b9250505b9250929050565b613d05614f46565b60008083600001516001600160a01b031663a34123a78560400151866060015187608001516040518463ffffffff1660e01b8152600401613d4893929190615863565b6040805180830381600087803b158015613d6157600080fd5b505af1158015613d75573d6000803e3d6000fd5b505050506040513d601f19601f82011682018060405250810190613d999190615637565b9150915083600001516001600160a01b0316634f1eb3d88560200151866040015187606001516001600160801b03806040518663ffffffff1660e01b8152600401613de8959493929190615788565b6040805180830381600087803b158015613e0157600080fd5b505af1158015613e15573d6000803e3d6000fd5b505050506040513d601f19601f82011682018060405250810190613e399190615563565b50509082526020820152919050565b600080613e678360000151846020015185606001518660800151613ba5565b6000818152609e6020908152604080832087830151825160e08101845282546001600160801b0381168252600160801b8104600290810b810b810b96830196909652600160981b9004850b850b850b9381019390935260018201546060840152928101546080830152600381015460a0830152600481015460c08301529394508291613ef291613c01565b60a08801518554929450909250613f1991613b1d916001600160801b0391821691166130e8565b83546001600160801b0319166001600160801b039182161780855516613f5157613f4c866000015187602001518661490d565b610fd2565b6001830181905550949350505050565b600290810b810b600090815260209290925260408220828155600181018390550155565b6000826001600160a01b0316846001600160a01b03161115613fa5579192915b836001600160a01b0316613fde606060ff16846001600160801b0316901b8686036001600160a01b0316866001600160a01b0316613145565b81613fe557fe5b04949350505050565b60008183038183128015906140035750838113155b80614018575060008312801561401857508381135b610a235760405162461bcd60e51b8152600401808060200182810382526024815260200180615cca6024913960400191505060405180910390fd5b60008261406257506000610750565b826000191480156140765750600160ff1b82145b156140b25760405162461bcd60e51b8152600401808060200182810382526027815260200180615c5b6027913960400191505060405180910390fd5b828202828482816140bf57fe5b0514610a235760405162461bcd60e51b8152600401808060200182810382526027815260200180615c5b6027913960400191505060405180910390fd5b600081614150576040805162461bcd60e51b815260206004820181905260248201527f5369676e6564536166654d6174683a206469766973696f6e206279207a65726f604482015290519081900360640190fd5b816000191480156141645750600160ff1b83145b156141a05760405162461bcd60e51b8152600401808060200182810382526021815260200180615c1a6021913960400191505060405180910390fd5b60008284816141ab57fe5b05949350505050565b600054610100900460ff16806141cd57506141cd612529565b806141db575060005460ff16155b6142165760405162461bcd60e51b815260040180806020018281038252602e815260200180615bec602e913960400191505060405180910390fd5b600054610100900460ff16158015614241576000805460ff1961ff0019909116610100171660011790555b6142496149fc565b6000614253611ed6565b603380546001600160a01b0319166001600160a01b03831690811790915560405191925090600090600080516020615c3b833981519152908290a35080156142a1576000805461ff00191690555b50565b6000816001600160a01b0316633850c7bd6040518163ffffffff1660e01b815260040160e06040518083038186803b1580156142df57600080fd5b505afa1580156142f3573d6000803e3d6000fd5b505050506040513d601f19601f820116820180604052508101906143179190615591565b5094979650505050505050565b6000826001600160a01b0316846001600160a01b03161115614344579192915b6106d4826001600160801b03168585036001600160a01b0316600160601b613145565b6000816001600160a01b0316631a6865026040518163ffffffff1660e01b815260040160206040518083038186803b1580156143a257600080fd5b505afa1580156143b6573d6000803e3d6000fd5b505050506040513d601f19601f82011682018060405250810190610750919061549d565b60020b600881901d9161010090910790565b60405163299ce14b60e11b81526000906001600160a01b03841690635339c2969061441b908590600401615814565b60206040518083038186803b15801561443357600080fd5b505afa158015614447573d6000803e3d6000fd5b505050506040513d601f19601f82011682018060405250810190610a23919061561f565b600080821161447957600080fd5b600160801b821061448c57608091821c91015b600160401b821061449f57604091821c91015b600160201b82106144b257602091821c91015b6201000082106144c457601091821c91015b61010082106144d557600891821c91015b601082106144e557600491821c91015b600482106144f557600291821c91015b60028210610bb557600101919050565b600080821161451357600080fd5b5060ff6001600160801b0382161561452e57607f1901614536565b608082901c91505b6001600160401b0382161561454e57603f1901614556565b604082901c91505b63ffffffff82161561456b57601f1901614573565b602082901c91505b61ffff82161561458657600f190161458e565b601082901c91505b60ff8216156145a057600719016145a8565b600882901c91505b600f8216156145ba57600319016145c2565b600482901c91505b60038216156145d457600119016145dc565b600282901c91505b6001821615610bb55760001901919050565b6000836001600160a01b0316856001600160a01b0316111561460e579293925b8161463b57614636836001600160801b03168686036001600160a01b0316600160601b613145565b61465e565b61465e836001600160801b03168686036001600160a01b0316600160601b6130ae565b95945050505050565b6000836001600160a01b0316856001600160a01b03161115614687579293925b600160601b600160e01b03606084901b166001600160a01b0386860381169087166146b157600080fd5b836146e157866001600160a01b03166146d48383896001600160a01b0316613145565b816146db57fe5b046124b9565b6124b96146f88383896001600160a01b03166130ae565b886001600160a01b0316614aa5565b600080856001600160a01b03161161471e57600080fd5b6000846001600160801b03161161473457600080fd5b81614746576146368585856001614ab0565b61465e8585856001614b91565b600080856001600160a01b03161161476a57600080fd5b6000846001600160801b03161161478057600080fd5b81614792576146368585856000614b91565b61465e8585856000614ab0565b6000836001600160a01b0316856001600160a01b031611156147bf579293925b846001600160a01b0316866001600160a01b0316116147ea576147e3858585614c74565b905061465e565b836001600160a01b0316866001600160a01b0316101561484c576000614811878686614c74565b90506000614820878986614cd7565b9050806001600160801b0316826001600160801b0316106148415780614843565b815b9250505061465e565b614857858584614cd7565b9695505050505050565b6000600160801b82106130aa5760405162461bcd60e51b8152600401808060200182810382526027815260200180615ba46027913960400191505060405180910390fd5b600284810b80820b6000908152602088905260408082205487850b850b83529082205491939092849187900b12156148df578285036148e1565b825b905060008760020b8760020b126148fa578286036148fc565b825b919095030398975050505050505050565b6001600160a01b038084166000908152609d602090815260408083209386168352929052908120905b81548110156149c1578282828154811061494c57fe5b906000526020600020015414156149b95781548290600019810190811061496f57fe5b906000526020600020015482828154811061498657fe5b90600052602060002001819055508180548061499e57fe5b600190038181906000526020600020016000905590556149c1565b600101614936565b50506000908152609e6020526040812080546001600160b01b0319168155600181018290556002810182905560038101829055600401555050565b600054610100900460ff1680614a155750614a15612529565b80614a23575060005460ff16155b614a5e5760405162461bcd60e51b815260040180806020018281038252602e815260200180615bec602e913960400191505060405180910390fd5b600054610100900460ff16158015614a89576000805460ff1961ff0019909116610100171660011790555b614a91614d14565b80156142a1576000805461ff001916905550565b808204910615150190565b60008115614b235760006001600160a01b03841115614ae657614ae184600160601b876001600160801b0316613145565b614afe565b6001600160801b038516606085901b81614afc57fe5b045b9050614b1b614b166001600160a01b03881683614db4565b614dc4565b9150506106d4565b60006001600160a01b03841115614b5157614b4c84600160601b876001600160801b03166130ae565b614b68565b614b68606085901b6001600160801b038716614aa5565b905080866001600160a01b031611614b7f57600080fd5b6001600160a01b0386160390506106d4565b600082614b9f5750836106d4565b600160601b600160e01b03606085901b168215614c2d576001600160a01b03861684810290858281614bcd57fe5b041415614bfe57818101828110614bfc57614bf283896001600160a01b0316836130ae565b93505050506106d4565b505b614c2482614c1f878a6001600160a01b03168681614c1857fe5b0490614db4565b614aa5565b925050506106d4565b6001600160a01b03861684810290858281614c4457fe5b04148015614c5157508082115b614c5a57600080fd5b808203614bf2614b16846001600160a01b038b16846130ae565b6000826001600160a01b0316846001600160a01b03161115614c94579192915b6000614cb7856001600160a01b0316856001600160a01b0316600160601b613145565b905061465e614cd284838888036001600160a01b0316613145565b614dda565b6000826001600160a01b0316846001600160a01b03161115614cf7579192915b6106d4614cd283600160601b8787036001600160a01b0316613145565b600054610100900460ff1680614d2d5750614d2d612529565b80614d3b575060005460ff16155b614d765760405162461bcd60e51b815260040180806020018281038252602e815260200180615bec602e913960400191505060405180910390fd5b600054610100900460ff16158015614a91576000805460ff1961ff00199091166101001716600117905580156142a1576000805461ff001916905550565b8082018281101561075057600080fd5b806001600160a01b0381168114610bb557600080fd5b806001600160801b0381168114610bb557600080fd5b60405180606001604052806000815260200160008152602001600081525090565b6040518060600160405280600060020b815260200160008152602001600081525090565b6040805160e081018252600080825260208201819052918101829052606081018290526080810182905260a0810182905260c081019190915290565b6040518060e0016040528060006001600160801b03168152602001600060020b8152602001600060020b8152602001600081526020016000815260200160008152602001600081525090565b604051806080016040528060008152602001600081526020016000815260200160006001600160801b031681525090565b6040518060600160405280600081526020016000815260200160006001600160801b031681525090565b6040805160a08101825260008082526020820181905291810182905260608101829052608081019190915290565b604051806040016040528060008152602001600081525090565b8035610bb581615b4b565b60008083601f840112614f7c578182fd5b5081356001600160401b03811115614f92578182fd5b6020830191508360208083028501011115613cf657600080fd5b8035610bb581615b60565b8051610bb581615b60565b600060408284031215614fd3578081fd5b604080519081016001600160401b0381118282101715614fef57fe5b604052823581526020928301359281019290925250919050565b805161ffff81168114610bb557600080fd5b8035610bb581615b92565b805160ff81168114610bb557600080fd5b600060208284031215615048578081fd5b8135610a2381615b4b565b600060208284031215615064578081fd5b8151610a2381615b4b565b60008060408385031215615081578081fd5b823561508c81615b4b565b9150602083013561509c81615b4b565b809150509250929050565b600080600080606085870312156150bc578182fd5b84356150c781615b4b565b935060208501356150d781615b4b565b925060408501356001600160401b038111156150f1578283fd5b6150fd87828801614f6b565b95989497509550505050565b60008060006060848603121561511d578081fd5b833561512881615b4b565b9250602084013561513881615b4b565b9150604084013561514881615b60565b809150509250925092565b60008060008060808587031215615168578182fd5b843561517381615b4b565b9350602085013561518381615b4b565b9250604085013561519381615b6e565b915060608501356151a381615b6e565b939692955090935050565b6000806000608084860312156151c2578081fd5b83356151cd81615b4b565b925060208401356151dd81615b4b565b91506151ec8560408601614fc2565b90509250925092565b600080600060408486031215615209578081fd5b833561521481615b4b565b925060208401356001600160401b0381111561522e578182fd5b61523a86828701614f6b565b9497909650939450505050565b600060208284031215615258578081fd5b5035919050565b600060208284031215615270578081fd5b8135610a2381615b6e565b60006020828403121561528c578081fd5b8151610a2381615b6e565b600061010082840312156152a9578081fd5b50919050565b6000604082840312156152c0578081fd5b610a238383614fc2565b6000608082840312156152db578081fd5b604051608081016001600160401b03811182821017156152f757fe5b604052825161530581615b4b565b8152602083015161531581615b92565b6020820152604083015161532881615b92565b6040820152606083015161533b81615b92565b60608201529392505050565b600060a082840312156152a9578081fd5b600060a08284031215615369578081fd5b60405160a081016001600160401b038111828210171561538557fe5b604052823561539381615b4b565b815260208301356153a381615b4b565b602082015260408301356153b681615b6e565b604082015260608301356153c981615b6e565b606082015260808301356153dc81615b7d565b60808201529392505050565b600061012082840312156153fa578081fd5b60405161010081016001600160401b038111828210171561541757fe5b60405261542383614f60565b815261543160208401614fac565b602082015261544260408401614fac565b60408201526060830135606082015261545d60808401614f60565b608082015261546e60a0840161501b565b60a082015261547f60c0840161501b565b60c08201526154918460e08501614fc2565b60e08201529392505050565b6000602082840312156154ae578081fd5b8151610a2381615b7d565b600080600080600080600080610100898b0312156154d5578586fd5b88516154e081615b7d565b80985050602089015180600f0b81146154f7578687fd5b80975050604089015195506060890151945060808901518060060b811461551c578485fd5b60a08a015190945061552d81615b4b565b60c08a015190935063ffffffff81168114615546578283fd5b915061555460e08a01614fb7565b90509295985092959890939650565b60008060408385031215615575578182fd5b825161558081615b7d565b602084015190925061509c81615b7d565b600080600080600080600060e0888a0312156155ab578081fd5b87516155b681615b4b565b60208901519097506155c781615b6e565b95506155d560408901615009565b94506155e360608901615009565b93506155f160808901615009565b92506155ff60a08901615026565b915060c088015161560f81615b60565b8091505092959891949750929550565b600060208284031215615630578081fd5b5051919050565b60008060408385031215615649578182fd5b505080516020909101519092909150565b6000806000806060858703121561566f578182fd5b843593506020850135925060408501356001600160401b0380821115615693578384fd5b818701915087601f8301126156a6578384fd5b8135818111156156b4578485fd5b8860208285010111156156c5578485fd5b95989497505060200194505050565b6000602082840312156156e5578081fd5b610a2382615026565b6001600160a01b0391909116815260200190565b600060018060a01b038716825260208660020b818401528560020b604084015260018060801b038516606084015260a0608084015283518060a0850152825b8181101561575d5785810183015185820160c001528201615741565b8181111561576e578360c083870101525b50601f01601f19169290920160c001979650505050505050565b6001600160a01b03959095168552600293840b60208601529190920b60408401526001600160801b03918216606084015216608082015260a00190565b6020808252825182820181905260009190848201906040850190845b818110156157fd578351835292840192918401916001016157e1565b50909695505050505050565b901515815260200190565b60019190910b815260200190565b60029190910b815260200190565b600296870b81529490950b602085015260408401929092526060830152600f0b608082015260a081019190915260c00190565b600293840b81529190920b60208201526001600160801b03909116604082015260600190565b90815260200190565b6020808252600890820152674348445f4d524e4360c01b604082015260600190565b60208082526006908201526513d097d3915360d21b604082015260600190565b6020808252600790820152660869088be9e86960cb1b604082015260600190565b60208082526006908201526555425f5a497360d01b604082015260600190565b60208082526006908201526504f425f4348360d41b604082015260600190565b6020808252600690820152654f425f4e454f60d01b604082015260600190565b60208082526006908201526504f425f5154360d41b604082015260600190565b60208082526006908201526509e84be9e8ab60d31b604082015260600190565b6020808252600890820152674348445f43484e4360c01b604082015260600190565b60208082526006908201526522ac2fa321ab60d11b604082015260600190565b6020808252600690820152654f425f4f4e4560d01b604082015260600190565b602080825260059082015264155097d69360da1b604082015260600190565b8151815260208083015190820152604080830151908201526060918201516001600160801b03169181019190915260800190565b81516001600160a01b039081168252602092830151169181019190915260400190565b600060e08201905060018060801b038351168252602083015160020b6020830152604083015160020b6040830152606083015160608301526080830151608083015260a083015160a083015260c083015160c083015292915050565b81518152602080830151908201526040918201519181019190915260600190565b815160020b8152602080830151908201526040918201519181019190915260600190565b60008582528460208301526060604083015282606083015282846080840137818301608090810191909152601f909201601f191601019392505050565b6001600160a01b03811681146142a157600080fd5b80151581146142a157600080fd5b8060020b81146142a157600080fd5b6001600160801b03811681146142a157600080fd5b62ffffff811681146142a157600080fdfe53616665436173743a2076616c756520646f65736e27742066697420696e2031323820626974735369676e6564536166654d6174683a206164646974696f6e206f766572666c6f77496e697469616c697a61626c653a20636f6e747261637420697320616c726561647920696e697469616c697a65645369676e6564536166654d6174683a206469766973696f6e206f766572666c6f778be0079c531659141344cd1fd0a4f28419497f9722a3daafe3b4186f6b6457e05369676e6564536166654d6174683a206d756c7469706c69636174696f6e206f766572666c6f77cb47d8bf351d355bdd5497973533eada41777b4509f2585a62ae246336ebaa9453616665436173743a2076616c756520646f65736e27742066697420696e20616e20696e743235365369676e6564536166654d6174683a207375627472616374696f6e206f766572666c6f77a2646970667358221220cee7395b427f4286977b44509f9ce8c70c75ff66eab6e41bb1fc7d54595e29b364736f6c63430007060033",
  "linkReferences": {},
  "deployedLinkReferences": {}
}