{
  "_format": "hh-sol-artifact-1",
  "contractName": "SwapRouter",
  "sourceName": "contracts/SwapRouter.sol",
  "abi": [
    {
      "inputs": [
        {
          "internalType": "address",
          "name": "_factory",
          "type": "address"
        },
        {
          "internalType": "address",
          "name": "_WETH9",
          "type": "address"
        }
      ],
      "stateMutability": "nonpayable",
      "type": "constructor"
    },
    {
      "inputs": [],
      "name": "WETH9",
      "outputs": [
        {
          "internalType": "address",
          "name": "",
          "type": "address"
        }
      ],
      "stateMutability": "view",
      "type": "function"
    },
    {
      "inputs": [
        {
          "components": [
            {
              "internalType": "bytes",
              "name": "path",
              "type": "bytes"
            },
            {
              "internalType": "address",
              "name": "recipient",
              "type": "address"
            },
            {
              "internalType": "uint256",
              "name": "deadline",
              "type": "uint256"
            },
            {
              "internalType": "uint256",
              "name": "amountIn",
              "type": "uint256"
            },
            {
              "internalType": "uint256",
              "name": "amountOutMinimum",
              "type": "uint256"
            }
          ],
          "internalType": "struct ISwapRouter.ExactInputParams",
          "name": "params",
          "type": "tuple"
        }
      ],
      "name": "exactInput",
      "outputs": [
        {
          "internalType": "uint256",
          "name": "amountOut",
          "type": "uint256"
        }
      ],
      "stateMutability": "payable",
      "type": "function"
    },
    {
      "inputs": [
        {
          "components": [
            {
              "internalType": "address",
              "name": "tokenIn",
              "type": "address"
            },
            {
              "internalType": "address",
              "name": "tokenOut",
              "type": "address"
            },
            {
              "internalType": "uint24",
              "name": "fee",
              "type": "uint24"
            },
            {
              "internalType": "address",
              "name": "recipient",
              "type": "address"
            },
            {
              "internalType": "uint256",
              "name": "deadline",
              "type": "uint256"
            },
            {
              "internalType": "uint256",
              "name": "amountIn",
              "type": "uint256"
            },
            {
              "internalType": "uint256",
              "name": "amountOutMinimum",
              "type": "uint256"
            },
            {
              "internalType": "uint160",
              "name": "sqrtPriceLimitX96",
              "type": "uint160"
            }
          ],
          "internalType": "struct ISwapRouter.ExactInputSingleParams",
          "name": "params",
          "type": "tuple"
        }
      ],
      "name": "exactInputSingle",
      "outputs": [
        {
          "internalType": "uint256",
          "name": "amountOut",
          "type": "uint256"
        }
      ],
      "stateMutability": "payable",
      "type": "function"
    },
    {
      "inputs": [
        {
          "components": [
            {
              "internalType": "bytes",
              "name": "path",
              "type": "bytes"
            },
            {
              "internalType": "address",
              "name": "recipient",
              "type": "address"
            },
            {
              "internalType": "uint256",
              "name": "deadline",
              "type": "uint256"
            },
            {
              "internalType": "uint256",
              "name": "amountOut",
              "type": "uint256"
            },
            {
              "internalType": "uint256",
              "name": "amountInMaximum",
              "type": "uint256"
            }
          ],
          "internalType": "struct ISwapRouter.ExactOutputParams",
          "name": "params",
          "type": "tuple"
        }
      ],
      "name": "exactOutput",
      "outputs": [
        {
          "internalType": "uint256",
          "name": "amountIn",
          "type": "uint256"
        }
      ],
      "stateMutability": "payable",
      "type": "function"
    },
    {
      "inputs": [
        {
          "components": [
            {
              "internalType": "address",
              "name": "tokenIn",
              "type": "address"
            },
            {
              "internalType": "address",
              "name": "tokenOut",
              "type": "address"
            },
            {
              "internalType": "uint24",
              "name": "fee",
              "type": "uint24"
            },
            {
              "internalType": "address",
              "name": "recipient",
              "type": "address"
            },
            {
              "internalType": "uint256",
              "name": "deadline",
              "type": "uint256"
            },
            {
              "internalType": "uint256",
              "name": "amountOut",
              "type": "uint256"
            },
            {
              "internalType": "uint256",
              "name": "amountInMaximum",
              "type": "uint256"
            },
            {
              "internalType": "uint160",
              "name": "sqrtPriceLimitX96",
              "type": "uint160"
            }
          ],
          "internalType": "struct ISwapRouter.ExactOutputSingleParams",
          "name": "params",
          "type": "tuple"
        }
      ],
      "name": "exactOutputSingle",
      "outputs": [
        {
          "internalType": "uint256",
          "name": "amountIn",
          "type": "uint256"
        }
      ],
      "stateMutability": "payable",
      "type": "function"
    },
    {
      "inputs": [],
      "name": "factory",
      "outputs": [
        {
          "internalType": "address",
          "name": "",
          "type": "address"
        }
      ],
      "stateMutability": "view",
      "type": "function"
    },
    {
      "inputs": [
        {
          "internalType": "bytes[]",
          "name": "data",
          "type": "bytes[]"
        }
      ],
      "name": "multicall",
      "outputs": [
        {
          "internalType": "bytes[]",
          "name": "results",
          "type": "bytes[]"
        }
      ],
      "stateMutability": "payable",
      "type": "function"
    },
    {
      "inputs": [
        {
          "internalType": "address",
          "name": "token",
          "type": "address"
        },
        {
          "internalType": "uint256",
          "name": "value",
          "type": "uint256"
        },
        {
          "internalType": "uint256",
          "name": "deadline",
          "type": "uint256"
        },
        {
          "internalType": "uint8",
          "name": "v",
          "type": "uint8"
        },
        {
          "internalType": "bytes32",
          "name": "r",
          "type": "bytes32"
        },
        {
          "internalType": "bytes32",
          "name": "s",
          "type": "bytes32"
        }
      ],
      "name": "selfPermit",
      "outputs": [],
      "stateMutability": "payable",
      "type": "function"
    },
    {
      "inputs": [
        {
          "internalType": "address",
          "name": "token",
          "type": "address"
        },
        {
          "internalType": "uint256",
          "name": "nonce",
          "type": "uint256"
        },
        {
          "internalType": "uint256",
          "name": "expiry",
          "type": "uint256"
        },
        {
          "internalType": "uint8",
          "name": "v",
          "type": "uint8"
        },
        {
          "internalType": "bytes32",
          "name": "r",
          "type": "bytes32"
        },
        {
          "internalType": "bytes32",
          "name": "s",
          "type": "bytes32"
        }
      ],
      "name": "selfPermitAllowed",
      "outputs": [],
      "stateMutability": "payable",
      "type": "function"
    },
    {
      "inputs": [
        {
          "internalType": "address",
          "name": "token",
          "type": "address"
        },
        {
          "internalType": "uint256",
          "name": "nonce",
          "type": "uint256"
        },
        {
          "internalType": "uint256",
          "name": "expiry",
          "type": "uint256"
        },
        {
          "internalType": "uint8",
          "name": "v",
          "type": "uint8"
        },
        {
          "internalType": "bytes32",
          "name": "r",
          "type": "bytes32"
        },
        {
          "internalType": "bytes32",
          "name": "s",
          "type": "bytes32"
        }
      ],
      "name": "selfPermitAllowedIfNecessary",
      "outputs": [],
      "stateMutability": "payable",
      "type": "function"
    },
    {
      "inputs": [
        {
          "internalType": "address",
          "name": "token",
          "type": "address"
        },
        {
          "internalType": "uint256",
          "name": "value",
          "type": "uint256"
        },
        {
          "internalType": "uint256",
          "name": "deadline",
          "type": "uint256"
        },
        {
          "internalType": "uint8",
          "name": "v",
          "type": "uint8"
        },
        {
          "internalType": "bytes32",
          "name": "r",
          "type": "bytes32"
        },
        {
          "internalType": "bytes32",
          "name": "s",
          "type": "bytes32"
        }
      ],
      "name": "selfPermitIfNecessary",
      "outputs": [],
      "stateMutability": "payable",
      "type": "function"
    },
    {
      "inputs": [
        {
          "internalType": "address",
          "name": "token",
          "type": "address"
        },
        {
          "internalType": "uint256",
          "name": "amountMinimum",
          "type": "uint256"
        },
        {
          "internalType": "address",
          "name": "recipient",
          "type": "address"
        }
      ],
      "name": "sweepToken",
      "outputs": [],
      "stateMutability": "payable",
      "type": "function"
    },
    {
      "inputs": [
        {
          "internalType": "int256",
          "name": "amount0Delta",
          "type": "int256"
        },
        {
          "internalType": "int256",
          "name": "amount1Delta",
          "type": "int256"
        },
        {
          "internalType": "bytes",
          "name": "_data",
          "type": "bytes"
        }
      ],
      "name": "uniswapV3SwapCallback",
      "outputs": [],
      "stateMutability": "nonpayable",
      "type": "function"
    },
    {
      "inputs": [
        {
          "internalType": "uint256",
          "name": "amountMinimum",
          "type": "uint256"
        },
        {
          "internalType": "address",
          "name": "recipient",
          "type": "address"
        }
      ],
      "name": "unwrapWETH9",
      "outputs": [],
      "stateMutability": "payable",
      "type": "function"
    },
    {
      "stateMutability": "payable",
      "type": "receive"
    }
  ],
  "bytecode": "0x60c06040526000196000553480156200001757600080fd5b5060405162002b3238038062002b328339810160408190526200003a9162000076565b6001600160601b0319606092831b8116608052911b1660a052620000ad565b80516001600160a01b03811681146200007157600080fd5b919050565b6000806040838503121562000089578182fd5b620000948362000059565b9150620000a46020840162000059565b90509250929050565b60805160601c60a05160601c612a34620000fe6000398060fe5280610512528061064252806106dc52806117f5528061185852806118d9525080610b4b528061101952806119db5250612a346000f3fe6080604052600436106100e15760003560e01c8063c2e3140a1161007f578063df2ab5bb11610059578063df2ab5bb14610283578063f28c049814610296578063f3995c67146102a9578063fa461e33146102bc5761018c565b8063c2e3140a14610248578063c45a01551461025b578063db3e2198146102705761018c565b80634aa4a4fc116100bb5780634aa4a4fc146101e0578063a4a78f0c14610202578063ac9650d814610215578063c04b8d59146102355761018c565b8063414bf389146101915780634659a494146101ba57806349404b7c146101cd5761018c565b3661018c573373ffffffffffffffffffffffffffffffffffffffff7f0000000000000000000000000000000000000000000000000000000000000000161461018a57604080517f08c379a000000000000000000000000000000000000000000000000000000000815260206004820152600960248201527f4e6f742057455448390000000000000000000000000000000000000000000000604482015290519081900360640190fd5b005b600080fd5b6101a461019f36600461254f565b6102dc565b6040516101b191906128ff565b60405180910390f35b61018a6101c83660046122cd565b61044e565b61018a6101db366004612656565b61050e565b3480156101ec57600080fd5b506101f56106da565b6040516101b19190612745565b61018a6102103660046122cd565b6106fe565b61022861022336600461232d565b6107db565b6040516101b191906127b8565b6101a46102433660046124a4565b610935565b61018a6102563660046122cd565b610a94565b34801561026757600080fd5b506101f5610b49565b6101a461027e36600461254f565b610b6d565b61018a61029136600461228c565b610cfd565b6101a46102a436600461256b565b610e20565b61018a6102b73660046122cd565b610f54565b3480156102c857600080fd5b5061018a6102d73660046123bf565b610fec565b60008160800135806102ec61111b565b111561035957604080517f08c379a000000000000000000000000000000000000000000000000000000000815260206004820152601360248201527f5472616e73616374696f6e20746f6f206f6c6400000000000000000000000000604482015290519081900360640190fd5b6103ff60a08401356103716080860160608701612269565b610382610100870160e08801612269565b604080518082019091528061039a60208a018a612269565b6103aa60608b0160408c01612633565b6103ba60408c0160208d01612269565b6040516020016103cc939291906126cf565b60405160208183030381529060405281526020013373ffffffffffffffffffffffffffffffffffffffff1681525061111f565b91508260c00135821015610448576040517f08c379a000000000000000000000000000000000000000000000000000000000815260040161043f90612880565b60405180910390fd5b50919050565b604080517f8fcbaf0c00000000000000000000000000000000000000000000000000000000815233600482015230602482015260448101879052606481018690526001608482015260ff851660a482015260c4810184905260e48101839052905173ffffffffffffffffffffffffffffffffffffffff881691638fcbaf0c9161010480830192600092919082900301818387803b1580156104ee57600080fd5b505af1158015610502573d6000803e3d6000fd5b50505050505050505050565b60007f000000000000000000000000000000000000000000000000000000000000000073ffffffffffffffffffffffffffffffffffffffff166370a08231306040518263ffffffff1660e01b8152600401808273ffffffffffffffffffffffffffffffffffffffff16815260200191505060206040518083038186803b15801561059757600080fd5b505afa1580156105ab573d6000803e3d6000fd5b505050506040513d60208110156105c157600080fd5b50519050821561063a578281101561063a57604080517f08c379a000000000000000000000000000000000000000000000000000000000815260206004820152601260248201527f496e73756666696369656e742057455448390000000000000000000000000000604482015290519081900360640190fd5b80156106d5577f000000000000000000000000000000000000000000000000000000000000000073ffffffffffffffffffffffffffffffffffffffff16632e1a7d4d826040518263ffffffff1660e01b815260040180828152602001915050600060405180830381600087803b1580156106b357600080fd5b505af11580156106c7573d6000803e3d6000fd5b505050506106d58282611285565b505050565b7f000000000000000000000000000000000000000000000000000000000000000081565b604080517fdd62ed3e00000000000000000000000000000000000000000000000000000000815233600482015230602482015290517fffffffffffffffffffffffffffffffffffffffffffffffffffffffffffffffff9173ffffffffffffffffffffffffffffffffffffffff89169163dd62ed3e91604480820192602092909190829003018186803b15801561079357600080fd5b505afa1580156107a7573d6000803e3d6000fd5b505050506040513d60208110156107bd57600080fd5b505110156107d3576107d386868686868661044e565b505050505050565b60608167ffffffffffffffff811180156107f457600080fd5b5060405190808252806020026020018201604052801561082857816020015b60608152602001906001900390816108135790505b50905060005b8281101561092e576000803086868581811061084657fe5b90506020028101906108589190612908565b604051610866929190612735565b600060405180830381855af49150503d80600081146108a1576040519150601f19603f3d011682016040523d82523d6000602084013e6108a6565b606091505b50915091508161090c576044815110156108bf57600080fd5b600481019050808060200190518101906108d9919061243a565b6040517f08c379a000000000000000000000000000000000000000000000000000000000815260040161043f9190612836565b8084848151811061091957fe5b6020908102919091010152505060010161082e565b5092915050565b600081604001518061094561111b565b11156109b257604080517f08c379a000000000000000000000000000000000000000000000000000000000815260206004820152601360248201527f5472616e73616374696f6e20746f6f206f6c6400000000000000000000000000604482015290519081900360640190fd5b335b60006109c385600001516113d3565b9050610a1c8560600151826109dc5786602001516109de565b305b600060405180604001604052806109f88b600001516113df565b81526020018773ffffffffffffffffffffffffffffffffffffffff1681525061111f565b60608601528015610a3c578451309250610a35906113f4565b8552610a49565b8460600151935050610a4f565b506109b4565b8360800151831015610a8d576040517f08c379a000000000000000000000000000000000000000000000000000000000815260040161043f90612880565b5050919050565b604080517fdd62ed3e0000000000000000000000000000000000000000000000000000000081523360048201523060248201529051869173ffffffffffffffffffffffffffffffffffffffff89169163dd62ed3e91604480820192602092909190829003018186803b158015610b0957600080fd5b505afa158015610b1d573d6000803e3d6000fd5b505050506040513d6020811015610b3357600080fd5b505110156107d3576107d3868686868686610f54565b7f000000000000000000000000000000000000000000000000000000000000000081565b6000816080013580610b7d61111b565b1115610bea57604080517f08c379a000000000000000000000000000000000000000000000000000000000815260206004820152601360248201527f5472616e73616374696f6e20746f6f206f6c6400000000000000000000000000604482015290519081900360640190fd5b610c9360a0840135610c026080860160608701612269565b610c13610100870160e08801612269565b6040518060400160405280886020016020810190610c319190612269565b610c4160608b0160408c01612633565b610c4e60208c018c612269565b604051602001610c60939291906126cf565b60405160208183030381529060405281526020013373ffffffffffffffffffffffffffffffffffffffff16815250611429565b91508260c00135821115610cd3576040517f08c379a000000000000000000000000000000000000000000000000000000000815260040161043f90612849565b507fffffffffffffffffffffffffffffffffffffffffffffffffffffffffffffffff600055919050565b60008373ffffffffffffffffffffffffffffffffffffffff166370a08231306040518263ffffffff1660e01b8152600401808273ffffffffffffffffffffffffffffffffffffffff16815260200191505060206040518083038186803b158015610d6657600080fd5b505afa158015610d7a573d6000803e3d6000fd5b505050506040513d6020811015610d9057600080fd5b505190508215610e095782811015610e0957604080517f08c379a000000000000000000000000000000000000000000000000000000000815260206004820152601260248201527f496e73756666696369656e7420746f6b656e0000000000000000000000000000604482015290519081900360640190fd5b8015610e1a57610e1a8483836115c5565b50505050565b6000816040013580610e3061111b565b1115610e9d57604080517f08c379a000000000000000000000000000000000000000000000000000000000815260206004820152601360248201527f5472616e73616374696f6e20746f6f206f6c6400000000000000000000000000604482015290519081900360640190fd5b610f106060840135610eb56040860160208701612269565b6040805180820190915260009080610ecd8980612908565b8080601f01602080910402602001604051908101604052809392919081815260200183838082843760009201919091525050509082525033602090910152611429565b5060005491508260800135821115610cd3576040517f08c379a000000000000000000000000000000000000000000000000000000000815260040161043f90612849565b604080517fd505accf000000000000000000000000000000000000000000000000000000008152336004820152306024820152604481018790526064810186905260ff8516608482015260a4810184905260c48101839052905173ffffffffffffffffffffffffffffffffffffffff88169163d505accf9160e480830192600092919082900301818387803b1580156104ee57600080fd5b6000610ffa828401846125a3565b9050600080600061100e84600001516117a1565b9250925092506110407f00000000000000000000000000000000000000000000000000000000000000008484846117d2565b5060008060008a13611081578473ffffffffffffffffffffffffffffffffffffffff168473ffffffffffffffffffffffffffffffffffffffff1610896110b2565b8373ffffffffffffffffffffffffffffffffffffffff168573ffffffffffffffffffffffffffffffffffffffff16108a5b9150915081156110d1576110cc85876020015133846117f1565b610502565b85516110dc906113d3565b156111015785516110ec906113f4565b86526110fb8133600089611429565b50610502565b8060008190555083945061050285876020015133846117f1565b4290565b60008060008061113285600001516117a1565b9194509250905073ffffffffffffffffffffffffffffffffffffffff808316908416106000806111638686866119d4565b73ffffffffffffffffffffffffffffffffffffffff1663128acb088b856111898f611a12565b73ffffffffffffffffffffffffffffffffffffffff8e16156111ab578d6111d1565b876111ca5773fffd8963efd1fc6a506488495d951d5263988d256111d1565b6401000276a45b8d6040516020016111e291906128b7565b6040516020818303038152906040526040518663ffffffff1660e01b8152600401611211959493929190612766565b6040805180830381600087803b15801561122a57600080fd5b505af115801561123e573d6000803e3d6000fd5b505050506040513d601f19601f82011682018060405250810190611262919061239c565b91509150826112715781611273565b805b6000039b9a5050505050505050505050565b6040805160008082526020820190925273ffffffffffffffffffffffffffffffffffffffff84169083906040518082805190602001908083835b602083106112fc57805182527fffffffffffffffffffffffffffffffffffffffffffffffffffffffffffffffe090920191602091820191016112bf565b6001836020036101000a03801982511681845116808217855250505050505090500191505060006040518083038185875af1925050503d806000811461135e576040519150601f19603f3d011682016040523d82523d6000602084013e611363565b606091505b50509050806106d557604080517f08c379a000000000000000000000000000000000000000000000000000000000815260206004820152600360248201527f5354450000000000000000000000000000000000000000000000000000000000604482015290519081900360640190fd5b8051604211155b919050565b60606113ee826000602b611a44565b92915050565b80516060906113ee9083906017907fffffffffffffffffffffffffffffffffffffffffffffffffffffffffffffffe901611a44565b60008060008061143c85600001516117a1565b9194509250905073ffffffffffffffffffffffffffffffffffffffff8084169083161060008061146d8587866119d4565b73ffffffffffffffffffffffffffffffffffffffff1663128acb088b856114938f611a12565b60000373ffffffffffffffffffffffffffffffffffffffff8e16156114b8578d6114de565b876114d75773fffd8963efd1fc6a506488495d951d5263988d256114de565b6401000276a45b8d6040516020016114ef91906128b7565b6040516020818303038152906040526040518663ffffffff1660e01b815260040161151e959493929190612766565b6040805180830381600087803b15801561153757600080fd5b505af115801561154b573d6000803e3d6000fd5b505050506040513d601f19601f8201168201806040525081019061156f919061239c565b9150915060008361158457818360000361158a565b82826000035b909850905073ffffffffffffffffffffffffffffffffffffffff8a166115b6578b81146115b657600080fd5b50505050505050949350505050565b6040805173ffffffffffffffffffffffffffffffffffffffff8481166024830152604480830185905283518084039091018152606490920183526020820180517bffffffffffffffffffffffffffffffffffffffffffffffffffffffff167fa9059cbb000000000000000000000000000000000000000000000000000000001781529251825160009485949389169392918291908083835b6020831061169a57805182527fffffffffffffffffffffffffffffffffffffffffffffffffffffffffffffffe0909201916020918201910161165d565b6001836020036101000a0380198251168184511680821785525050505050509050019150506000604051808303816000865af19150503d80600081146116fc576040519150601f19603f3d011682016040523d82523d6000602084013e611701565b606091505b509150915081801561172f57508051158061172f575080806020019051602081101561172c57600080fd5b50515b61179a57604080517f08c379a000000000000000000000000000000000000000000000000000000000815260206004820152600260248201527f5354000000000000000000000000000000000000000000000000000000000000604482015290519081900360640190fd5b5050505050565b600080806117af8482611c2b565b92506117bc846014611d2b565b90506117c9846017611c2b565b91509193909250565b60006117e8856117e3868686611e1b565b611e98565b95945050505050565b60007f000000000000000000000000000000000000000000000000000000000000000073ffffffffffffffffffffffffffffffffffffffff168573ffffffffffffffffffffffffffffffffffffffff161480156118515750814791508110155b1561199a577f000000000000000000000000000000000000000000000000000000000000000073ffffffffffffffffffffffffffffffffffffffff1663d0e30db0826040518263ffffffff1660e01b81526004016000604051808303818588803b1580156118be57600080fd5b505af11580156118d2573d6000803e3d6000fd5b50505050507f000000000000000000000000000000000000000000000000000000000000000073ffffffffffffffffffffffffffffffffffffffff1663a9059cbb84846040518363ffffffff1660e01b8152600401808373ffffffffffffffffffffffffffffffffffffffff16815260200182815260200192505050602060405180830381600087803b15801561196857600080fd5b505af115801561197c573d6000803e3d6000fd5b505050506040513d602081101561199257600080fd5b5061179a9050565b73ffffffffffffffffffffffffffffffffffffffff84163014156119c8576119c38584846115c5565b61179a565b61179a85858585611ec8565b6000611a0a7f0000000000000000000000000000000000000000000000000000000000000000611a05868686611e1b565b6120a5565b949350505050565b60007f80000000000000000000000000000000000000000000000000000000000000008210611a4057600080fd5b5090565b60608182601f011015611ab857604080517f08c379a000000000000000000000000000000000000000000000000000000000815260206004820152600e60248201527f736c6963655f6f766572666c6f77000000000000000000000000000000000000604482015290519081900360640190fd5b828284011015611b2957604080517f08c379a000000000000000000000000000000000000000000000000000000000815260206004820152600e60248201527f736c6963655f6f766572666c6f77000000000000000000000000000000000000604482015290519081900360640190fd5b81830184511015611b9b57604080517f08c379a000000000000000000000000000000000000000000000000000000000815260206004820152601160248201527f736c6963655f6f75744f66426f756e6473000000000000000000000000000000604482015290519081900360640190fd5b606082158015611bba5760405191506000825260208201604052611c22565b6040519150601f8416801560200281840101858101878315602002848b0101015b81831015611bf3578051835260209283019201611bdb565b5050858452601f017fffffffffffffffffffffffffffffffffffffffffffffffffffffffffffffffe016604052505b50949350505050565b600081826014011015611c9f57604080517f08c379a000000000000000000000000000000000000000000000000000000000815260206004820152601260248201527f746f416464726573735f6f766572666c6f770000000000000000000000000000604482015290519081900360640190fd5b8160140183511015611d1257604080517f08c379a000000000000000000000000000000000000000000000000000000000815260206004820152601560248201527f746f416464726573735f6f75744f66426f756e64730000000000000000000000604482015290519081900360640190fd5b5001602001516c01000000000000000000000000900490565b600081826003011015611d9f57604080517f08c379a000000000000000000000000000000000000000000000000000000000815260206004820152601160248201527f746f55696e7432345f6f766572666c6f77000000000000000000000000000000604482015290519081900360640190fd5b8160030183511015611e1257604080517f08c379a000000000000000000000000000000000000000000000000000000000815260206004820152601460248201527f746f55696e7432345f6f75744f66426f756e6473000000000000000000000000604482015290519081900360640190fd5b50016003015190565b611e236121db565b8273ffffffffffffffffffffffffffffffffffffffff168473ffffffffffffffffffffffffffffffffffffffff161115611e5b579192915b506040805160608101825273ffffffffffffffffffffffffffffffffffffffff948516815292909316602083015262ffffff169181019190915290565b6000611ea483836120a5565b90503373ffffffffffffffffffffffffffffffffffffffff8216146113ee57600080fd5b6040805173ffffffffffffffffffffffffffffffffffffffff85811660248301528481166044830152606480830185905283518084039091018152608490920183526020820180517bffffffffffffffffffffffffffffffffffffffffffffffffffffffff167f23b872dd00000000000000000000000000000000000000000000000000000000178152925182516000948594938a169392918291908083835b60208310611fa557805182527fffffffffffffffffffffffffffffffffffffffffffffffffffffffffffffffe09092019160209182019101611f68565b6001836020036101000a0380198251168184511680821785525050505050509050019150506000604051808303816000865af19150503d8060008114612007576040519150601f19603f3d011682016040523d82523d6000602084013e61200c565b606091505b509150915081801561203a57508051158061203a575080806020019051602081101561203757600080fd5b50515b6107d357604080517f08c379a000000000000000000000000000000000000000000000000000000000815260206004820152600360248201527f5354460000000000000000000000000000000000000000000000000000000000604482015290519081900360640190fd5b6000816020015173ffffffffffffffffffffffffffffffffffffffff16826000015173ffffffffffffffffffffffffffffffffffffffff16106120e757600080fd5b508051602080830151604093840151845173ffffffffffffffffffffffffffffffffffffffff94851681850152939091168385015262ffffff166060808401919091528351808403820181526080840185528051908301207fff0000000000000000000000000000000000000000000000000000000000000060a085015294901b7fffffffffffffffffffffffffffffffffffffffff0000000000000000000000001660a183015260b58201939093527fa8180af292c6986c74fa300a542e049db8a89221e2452e431c3d8103b610c56860d5808301919091528251808303909101815260f5909101909152805191012090565b604080516060810182526000808252602082018190529181019190915290565b80356113da81612a02565b600082601f830112612216578081fd5b813561222961222482612996565b612972565b81815284602083860101111561223d578283fd5b816020850160208301379081016020019190915292915050565b60006101008284031215610448578081fd5b60006020828403121561227a578081fd5b813561228581612a02565b9392505050565b6000806000606084860312156122a0578182fd5b83356122ab81612a02565b92506020840135915060408401356122c281612a02565b809150509250925092565b60008060008060008060c087890312156122e5578182fd5b86356122f081612a02565b95506020870135945060408701359350606087013560ff81168114612313578283fd5b9598949750929560808101359460a0909101359350915050565b6000806020838503121561233f578182fd5b823567ffffffffffffffff80821115612356578384fd5b818501915085601f830112612369578384fd5b813581811115612377578485fd5b866020808302850101111561238a578485fd5b60209290920196919550909350505050565b600080604083850312156123ae578182fd5b505080516020909101519092909150565b600080600080606085870312156123d4578384fd5b8435935060208501359250604085013567ffffffffffffffff808211156123f9578384fd5b818701915087601f83011261240c578384fd5b81358181111561241a578485fd5b88602082850101111561242b578485fd5b95989497505060200194505050565b60006020828403121561244b578081fd5b815167ffffffffffffffff811115612461578182fd5b8201601f81018413612471578182fd5b805161247f61222482612996565b818152856020838501011115612493578384fd5b6117e88260208301602086016129d6565b6000602082840312156124b5578081fd5b813567ffffffffffffffff808211156124cc578283fd5b9083019060a082860312156124df578283fd5b60405160a0810181811083821117156124f457fe5b604052823582811115612505578485fd5b61251187828601612206565b825250612520602084016121fb565b602082015260408301356040820152606083013560608201526080830135608082015280935050505092915050565b60006101008284031215612561578081fd5b6122858383612257565b60006020828403121561257c578081fd5b813567ffffffffffffffff811115612592578182fd5b820160a08185031215612285578182fd5b6000602082840312156125b4578081fd5b813567ffffffffffffffff808211156125cb578283fd5b90830190604082860312156125de578283fd5b6040516040810181811083821117156125f357fe5b604052823582811115612604578485fd5b61261087828601612206565b8252506020830135925061262383612a02565b6020810192909252509392505050565b600060208284031215612644578081fd5b813562ffffff81168114612285578182fd5b60008060408385031215612668578182fd5b82359150602083013561267a81612a02565b809150509250929050565b6000815180845261269d8160208601602086016129d6565b601f017fffffffffffffffffffffffffffffffffffffffffffffffffffffffffffffffe0169290920160200192915050565b606093841b7fffffffffffffffffffffffffffffffffffffffff000000000000000000000000908116825260e89390931b7fffffff0000000000000000000000000000000000000000000000000000000000166014820152921b166017820152602b0190565b6000828483379101908152919050565b73ffffffffffffffffffffffffffffffffffffffff91909116815260200190565b600073ffffffffffffffffffffffffffffffffffffffff8088168352861515602084015285604084015280851660608401525060a060808301526127ad60a0830184612685565b979650505050505050565b6000602080830181845280855180835260408601915060408482028701019250838701855b82811015612829577fffffffffffffffffffffffffffffffffffffffffffffffffffffffffffffffc0888603018452612817858351612685565b945092850192908501906001016127dd565b5092979650505050505050565b6000602082526122856020830184612685565b60208082526012908201527f546f6f206d756368207265717565737465640000000000000000000000000000604082015260600190565b60208082526013908201527f546f6f206c6974746c6520726563656976656400000000000000000000000000604082015260600190565b6000602082528251604060208401526128d36060840182612685565b905073ffffffffffffffffffffffffffffffffffffffff60208501511660408401528091505092915050565b90815260200190565b60008083357fffffffffffffffffffffffffffffffffffffffffffffffffffffffffffffffe184360301811261293c578283fd5b83018035915067ffffffffffffffff821115612956578283fd5b60200191503681900382131561296b57600080fd5b9250929050565b60405181810167ffffffffffffffff8111828210171561298e57fe5b604052919050565b600067ffffffffffffffff8211156129aa57fe5b50601f017fffffffffffffffffffffffffffffffffffffffffffffffffffffffffffffffe01660200190565b60005b838110156129f15781810151838201526020016129d9565b83811115610e1a5750506000910152565b73ffffffffffffffffffffffffffffffffffffffff81168114612a2457600080fd5b5056fea164736f6c6343000706000a",
  "linkReferences": {},
  "deployedLinkReferences": {}
}