{
  "_format": "hh-sol-artifact-1",
  "contractName": "ArrakisFactoryV1",
  "sourceName": "contracts/ArrakisFactoryV1.sol",
  "abi": [
    {
      "inputs": [
        {
          "internalType": "address",
          "name": "_uniswapV3Factory",
          "type": "address"
        }
      ],
      "stateMutability": "nonpayable",
      "type": "constructor"
    },
    {
      "anonymous": false,
      "inputs": [
        {
          "indexed": true,
          "internalType": "address",
          "name": "previousManager",
          "type": "address"
        },
        {
          "indexed": true,
          "internalType": "address",
          "name": "newManager",
          "type": "address"
        }
      ],
      "name": "OwnershipTransferred",
      "type": "event"
    },
    {
      "anonymous": false,
      "inputs": [
        {
          "indexed": true,
          "internalType": "address",
          "name": "uniPool",
          "type": "address"
        },
        {
          "indexed": true,
          "internalType": "address",
          "name": "manager",
          "type": "address"
        },
        {
          "indexed": true,
          "internalType": "address",
          "name": "pool",
          "type": "address"
        }
      ],
      "name": "PoolCreated",
      "type": "event"
    },
    {
      "anonymous": false,
      "inputs": [
        {
          "indexed": false,
          "internalType": "address",
          "name": "previousImplementation",
          "type": "address"
        },
        {
          "indexed": false,
          "internalType": "address",
          "name": "newImplementation",
          "type": "address"
        }
      ],
      "name": "UpdatePoolImplementation",
      "type": "event"
    },
    {
      "inputs": [
        {
          "internalType": "address",
          "name": "tokenA",
          "type": "address"
        },
        {
          "internalType": "address",
          "name": "tokenB",
          "type": "address"
        },
        {
          "internalType": "uint24",
          "name": "uniFee",
          "type": "uint24"
        },
        {
          "internalType": "address",
          "name": "manager",
          "type": "address"
        },
        {
          "internalType": "uint16",
          "name": "managerFee",
          "type": "uint16"
        },
        {
          "internalType": "int24",
          "name": "lowerTick",
          "type": "int24"
        },
        {
          "internalType": "int24",
          "name": "upperTick",
          "type": "int24"
        }
      ],
      "name": "deployVault",
      "outputs": [
        {
          "internalType": "address",
          "name": "pool",
          "type": "address"
        }
      ],
      "stateMutability": "nonpayable",
      "type": "function"
    },
    {
      "inputs": [],
      "name": "factory",
      "outputs": [
        {
          "internalType": "address",
          "name": "",
          "type": "address"
        }
      ],
      "stateMutability": "view",
      "type": "function"
    },
    {
      "inputs": [],
      "name": "gelatoDeployer",
      "outputs": [
        {
          "internalType": "address",
          "name": "",
          "type": "address"
        }
      ],
      "stateMutability": "view",
      "type": "function"
    },
    {
      "inputs": [],
      "name": "getDeployers",
      "outputs": [
        {
          "internalType": "address[]",
          "name": "",
          "type": "address[]"
        }
      ],
      "stateMutability": "view",
      "type": "function"
    },
    {
      "inputs": [],
      "name": "getGelatoPools",
      "outputs": [
        {
          "internalType": "address[]",
          "name": "",
          "type": "address[]"
        }
      ],
      "stateMutability": "view",
      "type": "function"
    },
    {
      "inputs": [
        {
          "internalType": "address",
          "name": "deployer",
          "type": "address"
        }
      ],
      "name": "getPools",
      "outputs": [
        {
          "internalType": "address[]",
          "name": "",
          "type": "address[]"
        }
      ],
      "stateMutability": "view",
      "type": "function"
    },
    {
      "inputs": [
        {
          "internalType": "address",
          "name": "pool",
          "type": "address"
        }
      ],
      "name": "getProxyAdmin",
      "outputs": [
        {
          "internalType": "address",
          "name": "",
          "type": "address"
        }
      ],
      "stateMutability": "view",
      "type": "function"
    },
    {
      "inputs": [
        {
          "internalType": "address",
          "name": "token0",
          "type": "address"
        },
        {
          "internalType": "address",
          "name": "token1",
          "type": "address"
        }
      ],
      "name": "getTokenName",
      "outputs": [
        {
          "internalType": "string",
          "name": "",
          "type": "string"
        }
      ],
      "stateMutability": "view",
      "type": "function"
    },
    {
      "inputs": [],
      "name": "index",
      "outputs": [
        {
          "internalType": "uint256",
          "name": "",
          "type": "uint256"
        }
      ],
      "stateMutability": "view",
      "type": "function"
    },
    {
      "inputs": [
        {
          "internalType": "address",
          "name": "_implementation",
          "type": "address"
        },
        {
          "internalType": "address",
          "name": "_manager_",
          "type": "address"
        }
      ],
      "name": "initialize",
      "outputs": [],
      "stateMutability": "nonpayable",
      "type": "function"
    },
    {
      "inputs": [
        {
          "internalType": "address",
          "name": "pool",
          "type": "address"
        }
      ],
      "name": "isPoolImmutable",
      "outputs": [
        {
          "internalType": "bool",
          "name": "",
          "type": "bool"
        }
      ],
      "stateMutability": "view",
      "type": "function"
    },
    {
      "inputs": [
        {
          "internalType": "address[]",
          "name": "pools",
          "type": "address[]"
        }
      ],
      "name": "makePoolsImmutable",
      "outputs": [],
      "stateMutability": "nonpayable",
      "type": "function"
    },
    {
      "inputs": [],
      "name": "manager",
      "outputs": [
        {
          "internalType": "address",
          "name": "",
          "type": "address"
        }
      ],
      "stateMutability": "view",
      "type": "function"
    },
    {
      "inputs": [],
      "name": "numDeployers",
      "outputs": [
        {
          "internalType": "uint256",
          "name": "",
          "type": "uint256"
        }
      ],
      "stateMutability": "view",
      "type": "function"
    },
    {
      "inputs": [],
      "name": "numPools",
      "outputs": [
        {
          "internalType": "uint256",
          "name": "result",
          "type": "uint256"
        }
      ],
      "stateMutability": "view",
      "type": "function"
    },
    {
      "inputs": [
        {
          "internalType": "address",
          "name": "deployer",
          "type": "address"
        }
      ],
      "name": "numPools",
      "outputs": [
        {
          "internalType": "uint256",
          "name": "",
          "type": "uint256"
        }
      ],
      "stateMutability": "view",
      "type": "function"
    },
    {
      "inputs": [],
      "name": "poolImplementation",
      "outputs": [
        {
          "internalType": "address",
          "name": "",
          "type": "address"
        }
      ],
      "stateMutability": "view",
      "type": "function"
    },
    {
      "inputs": [],
      "name": "renounceOwnership",
      "outputs": [],
      "stateMutability": "nonpayable",
      "type": "function"
    },
    {
      "inputs": [
        {
          "internalType": "address",
          "name": "nextImplementation",
          "type": "address"
        }
      ],
      "name": "setPoolImplementation",
      "outputs": [],
      "stateMutability": "nonpayable",
      "type": "function"
    },
    {
      "inputs": [
        {
          "internalType": "address",
          "name": "newOwner",
          "type": "address"
        }
      ],
      "name": "transferOwnership",
      "outputs": [],
      "stateMutability": "nonpayable",
      "type": "function"
    },
    {
      "inputs": [
        {
          "internalType": "address[]",
          "name": "pools",
          "type": "address[]"
        }
      ],
      "name": "upgradePools",
      "outputs": [],
      "stateMutability": "nonpayable",
      "type": "function"
    },
    {
      "inputs": [
        {
          "internalType": "address[]",
          "name": "pools",
          "type": "address[]"
        },
        {
          "internalType": "bytes[]",
          "name": "datas",
          "type": "bytes[]"
        }
      ],
      "name": "upgradePoolsAndCall",
      "outputs": [],
      "stateMutability": "nonpayable",
      "type": "function"
    },
    {
      "inputs": [],
      "name": "version",
      "outputs": [
        {
          "internalType": "string",
          "name": "",
          "type": "string"
        }
      ],
      "stateMutability": "view",
      "type": "function"
    }
  ],
  "bytecode": "0x60a060405234801561001057600080fd5b506040516128a63803806128a683398101604081905261002f91610044565b60601b6001600160601b031916608052610072565b600060208284031215610055578081fd5b81516001600160a01b038116811461006b578182fd5b9392505050565b60805160601c61280f610097600039600081816102cb0152611177015261280f6000f3fe60806040523480156200001157600080fd5b5060043610620001365760003560e01c8063098eddb1146200013b5780630dfc574b1462000158578063260fc2b814620001715780632986c0e5146200018857806335c62bc2146200019257806340aee041146200019c57806342f5de9914620001b3578063481c6a7514620001ca578063485cc95514620001e357806354fd4d5014620001fa578063562b8103146200022e5780635c39f4671462000247578063607c12b5146200025e578063715018a6146200026857806386238765146200027257806395d807f11462000286578063bd30dfb914620002ae578063c45a015514620002c5578063cefa779914620002ed578063d6f748981462000301578063f2fde38b1462000318578063f3b7dead146200032f578063fef46b281462000346575b600080fd5b620001456200035d565b6040519081526020015b60405180910390f35b6200016f62000169366004620018a0565b62000370565b005b6200016f6200018236600462001862565b620004f9565b6200014560065481565b62000145620005df565b6200016f620001ad36600462001862565b62000656565b62000145620001c436600462001738565b62000740565b620001d462000769565b6040516200014f919062001aa8565b6200016f620001f436600462001776565b62000778565b6200021f604051806040016040528060058152602001640312e302e360dc1b81525081565b6040516200014f919062001b65565b6200023862000875565b6040516200014f919062001b16565b620002386200025836600462001738565b6200088a565b620002386200095f565b6200016f62000a31565b600254620001d4906001600160a01b031681565b6200029d6200029736600462001738565b62000a9e565b60405190151581526020016200014f565b6200021f620002bf36600462001776565b62000abb565b620001d47f000000000000000000000000000000000000000000000000000000000000000081565b600154620001d4906001600160a01b031681565b6200016f6200031236600462001738565b62000c10565b6200016f6200032936600462001738565b62000caf565b620001d46200034036600462001738565b62000d96565b620001d462000357366004620017b3565b62000e0d565b60006200036b600362000e2c565b905090565b336200037b62000769565b6001600160a01b031614620003ad5760405162461bcd60e51b8152600401620003a49062001be5565b60405180910390fd5b82518114620003fa5760405162461bcd60e51b81526020600482015260186024820152770dad2e6dac2e8c6d0d2dcce40c2e4e4c2f240d8cadccee8d60431b6044820152606401620003a4565b60005b8351811015620004f3578381815181106200042857634e487b7160e01b600052603260045260246000fd5b60200260200101516001600160a01b0316634f1ef286600160009054906101000a90046001600160a01b03168585858181106200047557634e487b7160e01b600052603260045260246000fd5b905060200281019062000489919062001c27565b6040518463ffffffff1660e01b8152600401620004a99392919062001ad6565b600060405180830381600087803b158015620004c457600080fd5b505af1158015620004d9573d6000803e3d6000fd5b505050508080620004ea9062001d66565b915050620003fd565b50505050565b336200050462000769565b6001600160a01b0316146200052d5760405162461bcd60e51b8152600401620003a49062001be5565b60005b8151811015620005db578181815181106200055b57634e487b7160e01b600052603260045260246000fd5b60200260200101516001600160a01b0316638356ca4f60006040518263ffffffff1660e01b815260040162000591919062001aa8565b600060405180830381600087803b158015620005ac57600080fd5b505af1158015620005c1573d6000803e3d6000fd5b505050508080620005d29062001d66565b91505062000530565b5050565b600080620005ec6200095f565b905060005b815181101562000651576200062e8282815181106200062057634e487b7160e01b600052603260045260246000fd5b602002602001015162000740565b6200063a908462001ca1565b925080620006488162001d66565b915050620005f1565b505090565b336200066162000769565b6001600160a01b0316146200068a5760405162461bcd60e51b8152600401620003a49062001be5565b60005b8151811015620005db57818181518110620006b857634e487b7160e01b600052603260045260246000fd5b6020908102919091010151600154604051631b2ce7f360e11b81526001600160a01b0392831692633659cfe692620006f69291169060040162001aa8565b600060405180830381600087803b1580156200071157600080fd5b505af115801562000726573d6000803e3d6000fd5b505050508080620007379062001d66565b9150506200068d565b6001600160a01b0381166000908152600560205260408120620007639062000e2c565b92915050565b6000546001600160a01b031690565b600054600160a81b900460ff16806200079b5750600054600160a01b900460ff16155b620008005760405162461bcd60e51b815260206004820152602e60248201527f496e697469616c697a61626c653a20636f6e747261637420697320616c72656160448201526d191e481a5b9a5d1a585b1a5e995960921b6064820152608401620003a4565b600054600160a81b900460ff161580156200082b576000805461ffff60a01b191661010160a01b1790555b600180546001600160a01b038086166001600160a01b0319928316179092556000805492851692909116919091179055801562000870576000805460ff60a81b191690555b505050565b6002546060906200036b906001600160a01b03165b60606000620008998362000740565b90506000816001600160401b03811115620008c457634e487b7160e01b600052604160045260246000fd5b604051908082528060200260200182016040528015620008ee578160200160208202803683370190505b50905060005b82811015620009575762000909858262000e37565b8282815181106200092a57634e487b7160e01b600052603260045260246000fd5b6001600160a01b0390921660209283029190910190910152806200094e8162001d66565b915050620008f4565b509392505050565b606060006200096d6200035d565b90506000816001600160401b038111156200099857634e487b7160e01b600052604160045260246000fd5b604051908082528060200260200182016040528015620009c2578160200160208202803683370190505b50905060005b8281101562000a2a57620009dc8162000e62565b828281518110620009fd57634e487b7160e01b600052603260045260246000fd5b6001600160a01b03909216602092830291909101909101528062000a218162001d66565b915050620009c8565b5092915050565b3362000a3c62000769565b6001600160a01b03161462000a655760405162461bcd60e51b8152600401620003a49062001be5565b600080546040516001600160a01b0390911690600080516020620027ba833981519152908390a3600080546001600160a01b0319169055565b600062000aab8262000d96565b6001600160a01b03161592915050565b60606000836001600160a01b03166395d89b416040518163ffffffff1660e01b815260040160006040518083038186803b15801562000af957600080fd5b505afa15801562000b0e573d6000803e3d6000fd5b505050506040513d6000823e601f3d908101601f1916820160405262000b3891908101906200195a565b90506000836001600160a01b03166395d89b416040518163ffffffff1660e01b815260040160006040518083038186803b15801562000b7657600080fd5b505afa15801562000b8b573d6000803e3d6000fd5b505050506040513d6000823e601f3d908101601f1916820160405262000bb591908101906200195a565b905062000c0760405180604001604052806011815260200170020b93930b5b4b9902b30bab63a102b189607d1b81525083604051806040016040528060018152602001602f60f81b8152508462000e71565b95945050505050565b3362000c1b62000769565b6001600160a01b03161462000c445760405162461bcd60e51b8152600401620003a49062001be5565b6001546040517f0617fd31aa5ab95ec80eefc1eb61a2c477aa419d1d761b4e46f5f077e47852aa9162000c85916001600160a01b0390911690849062001abc565b60405180910390a1600180546001600160a01b0319166001600160a01b0392909216919091179055565b3362000cba62000769565b6001600160a01b03161462000ce35760405162461bcd60e51b8152600401620003a49062001be5565b6001600160a01b03811662000d4c5760405162461bcd60e51b815260206004820152602860248201527f4f776e61626c653a206e6577206d616e6167657220697320746865207a65726f604482015267206164647265737360c01b6064820152608401620003a4565b600080546040516001600160a01b0380851693921691600080516020620027ba83398151915291a3600080546001600160a01b0319166001600160a01b0392909216919091179055565b6000816001600160a01b0316633e47158c6040518163ffffffff1660e01b815260040160206040518083038186803b15801562000dd257600080fd5b505afa15801562000de7573d6000803e3d6000fd5b505050506040513d601f19601f8201168201806040525081019062000763919062001757565b600062000e208888888888888862000ea5565b98975050505050505050565b600062000763825490565b6001600160a01b038216600090815260056020526040812062000e5b90836200100c565b9392505050565b6000620007636003836200100c565b60608484848460405160200162000e8c949392919062001a19565b6040516020818303038152906040529050949350505050565b600080606062000eb98a8a8a88886200101a565b60065492955090935091506001600160a01b0384169063e25e15e390839062000eef9062000ee990600162001ca1565b620012ac565b60405160200162000f01919062001a78565b604051602081830303815290604052858a8a8a8e6040518863ffffffff1660e01b815260040162000f39979695949392919062001b7a565b600060405180830381600087803b15801562000f5457600080fd5b505af115801562000f69573d6000803e3d6000fd5b5050505062000f838760036200140890919063ffffffff16565b506001600160a01b038716600090815260056020526040902062000fa8908462001408565b5060016006600082825462000fbe919062001ca1565b90915550506040516001600160a01b0380851691898216918516907f9c5d829b9b23efc461f9aeef91979ec04bb903feb3bee4f26d22114abfc7335b90600090a45050979650505050505050565b600062000e5b83836200141f565b60008060606000806200102e8a8a620014b6565b6001546040519294509092506001600160a01b0316903090620010519062001694565b6001600160a01b03928316815291166020820152606060408201819052600090820152608001604051809103906000f08015801562001094573d6000803e3d6000fd5b50604080518082018252601081526f417272616b6973205661756c7420563160801b6020820152905163bd30dfb960e01b81529196509350309063bd30dfb990620010e6908590859060040162001abc565b60006040518083038186803b158015620010ff57600080fd5b505afa9250505080156200113757506040513d6000823e601f3d908101601f191682016040526200113491908101906200195a565b60015b620011425762001145565b92505b604051630b4c774160e11b81526001600160a01b038381166004830152828116602483015262ffffff8a1660448301527f00000000000000000000000000000000000000000000000000000000000000001690631698ee829060640160206040518083038186803b158015620011ba57600080fd5b505afa158015620011cf573d6000803e3d6000fd5b505050506040513d601f19601f82011682018060405250810190620011f5919062001757565b93506001600160a01b0384166200124d5760405162461bcd60e51b815260206004820152601b60248201527a1d5b9a5cddd85c081c1bdbdb08191bd95cc81b9bdd08195e1a5cdd602a1b6044820152606401620003a4565b6200125a84888862001585565b6200129f5760405162461bcd60e51b81526020600482015260146024820152730e8d2c6d6a6e0c2c6d2dcce40dad2e6dac2e8c6d60631b6044820152606401620003a4565b5050955095509592505050565b606081620012d15750506040805180820190915260018152600360fc1b602082015290565b8160005b8115620013015780620012e88162001d66565b9150620012f99050600a8362001ce4565b9150620012d5565b6000816001600160401b038111156200132a57634e487b7160e01b600052604160045260246000fd5b6040519080825280601f01601f19166020018201604052801562001355576020820181803683370190505b509050815b8515620013ff576200136e60018262001d1d565b905060006200137f600a8862001ce4565b6200138c90600a62001cfb565b62001398908862001d1d565b620013a590603062001cbc565b905060008160f81b905080848481518110620013d157634e487b7160e01b600052603260045260246000fd5b60200101906001600160f81b031916908160001a905350620013f5600a8962001ce4565b975050506200135a565b50949350505050565b600062000e5b836001600160a01b03841662001642565b815460009082106200147f5760405162461bcd60e51b815260206004820152602260248201527f456e756d657261626c655365743a20696e646578206f7574206f6620626f756e604482015261647360f01b6064820152608401620003a4565b826000018281548110620014a357634e487b7160e01b600052603260045260246000fd5b9060005260206000200154905092915050565b600080826001600160a01b0316846001600160a01b031614156200150a5760405162461bcd60e51b815260206004820152600a60248201526939b0b6b2903a37b5b2b760b11b6044820152606401620003a4565b826001600160a01b0316846001600160a01b0316106200152c5782846200152f565b83835b90925090506001600160a01b0382166200157e5760405162461bcd60e51b815260206004820152600f60248201526e6e6f2061646472657373207a65726f60881b6044820152606401620003a4565b9250929050565b600080846001600160a01b031663d0c93a7c6040518163ffffffff1660e01b815260040160206040518083038186803b158015620015c257600080fd5b505afa158015620015d7573d6000803e3d6000fd5b505050506040513d601f19601f82011682018060405250810190620015fd91906200193b565b90508260020b8460020b1280156200162157506200161c818562001d84565b60020b155b801562000c07575062001635818462001d84565b60020b1595945050505050565b60008181526001830160205260408120546200168b5750815460018181018455600084815260208082209093018490558454848252828601909352604090209190915562000763565b50600062000763565b6109a58062001e1583390190565b600082601f830112620016b3578081fd5b813560206001600160401b03821115620016d157620016d162001dd5565b8160051b620016e282820162001c6e565b838152828101908684018388018501891015620016fd578687fd5b8693505b858410156200172c578035620017178162001deb565b83526001939093019291840191840162001701565b50979650505050505050565b6000602082840312156200174a578081fd5b813562000e5b8162001deb565b60006020828403121562001769578081fd5b815162000e5b8162001deb565b6000806040838503121562001789578081fd5b8235620017968162001deb565b91506020830135620017a88162001deb565b809150509250929050565b600080600080600080600060e0888a031215620017ce578283fd5b8735620017db8162001deb565b96506020880135620017ed8162001deb565b9550604088013562ffffff8116811462001805578384fd5b94506060880135620018178162001deb565b9350608088013561ffff811681146200182e578384fd5b925060a0880135620018408162001e04565b915060c0880135620018528162001e04565b8091505092959891949750929550565b60006020828403121562001874578081fd5b81356001600160401b038111156200188a578182fd5b6200189884828501620016a2565b949350505050565b600080600060408486031215620018b5578283fd5b83356001600160401b0380821115620018cc578485fd5b620018da87838801620016a2565b94506020860135915080821115620018f0578384fd5b818601915086601f83011262001904578384fd5b81358181111562001913578485fd5b8760208260051b850101111562001928578485fd5b6020830194508093505050509250925092565b6000602082840312156200194d578081fd5b815162000e5b8162001e04565b6000602082840312156200196c578081fd5b81516001600160401b038082111562001983578283fd5b818401915084601f83011262001997578283fd5b815181811115620019ac57620019ac62001dd5565b620019c1601f8201601f191660200162001c6e565b9150808252856020828501011115620019d8578384fd5b620013ff81602084016020860162001d37565b6000815180845262001a0581602086016020860162001d37565b601f01601f19169290920160200192915050565b6000855162001a2d818460208a0162001d37565b85519083019062001a43818360208a0162001d37565b855191019062001a5881836020890162001d37565b845191019062001a6d81836020880162001d37565b019695505050505050565b6552414b49532d60d01b81526000825162001a9b81600685016020870162001d37565b9190910160060192915050565b6001600160a01b0391909116815260200190565b6001600160a01b0392831681529116602082015260400190565b6001600160a01b03841681526040602082018190528101829052818360608301376000818301606090810191909152601f909201601f1916010192915050565b6020808252825182820181905260009190848201906040850190845b8181101562001b595783516001600160a01b03168352928401929184019160010162001b32565b50909695505050505050565b60208152600062000e5b6020830184620019eb565b60e08152600062001b8f60e083018a620019eb565b828103602084015262001ba3818a620019eb565b6001600160a01b03988916604085015261ffff9790971660608401525050600293840b60808201529190920b60a0820152921660c09092019190915292915050565b60208082526022908201527f4f776e61626c653a2063616c6c6572206973206e6f7420746865206d616e616760408201526132b960f11b606082015260800190565b6000808335601e1984360301811262001c3e578283fd5b8301803591506001600160401b0382111562001c58578283fd5b6020019150368190038213156200157e57600080fd5b604051601f8201601f191681016001600160401b038111828210171562001c995762001c9962001dd5565b604052919050565b6000821982111562001cb75762001cb762001da9565b500190565b600060ff821660ff84168060ff0382111562001cdc5762001cdc62001da9565b019392505050565b60008262001cf65762001cf662001dbf565b500490565b600081600019048311821515161562001d185762001d1862001da9565b500290565b60008282101562001d325762001d3262001da9565b500390565b60005b8381101562001d5457818101518382015260200162001d3a565b83811115620004f35750506000910152565b600060001982141562001d7d5762001d7d62001da9565b5060010190565b60008260020b8062001d9a5762001d9a62001dbf565b808360020b0791505092915050565b634e487b7160e01b600052601160045260246000fd5b634e487b7160e01b600052601260045260246000fd5b634e487b7160e01b600052604160045260246000fd5b6001600160a01b038116811462001e0157600080fd5b50565b8060020b811462001e0157600080fdfe60806040526040516109a53803806109a5833981016040819052610022916101a4565b61002c838261003d565b61003582610119565b5050506102ce565b7f360894a13ba1a3210667c828492db98dca3e2076cc3735a920a3ca505d382bbc8054908390556040516001600160a01b0380851691908316907f5570d70a002632a7b0b3c9304cc89efb62d8da9eca0dbd7752c83b737906829690600090a3815115610114576000836001600160a01b0316836040516100be9190610270565b600060405180830381855af49150503d80600081146100f9576040519150601f19603f3d011682016040523d82523d6000602084013e6100fe565b606091505b5050905080610112573d806000803e806000fd5b505b505050565b60006101316000805160206109858339815191525490565b90508160008051602061098583398151915255816001600160a01b0316816001600160a01b03167fdf435d422321da6b195902d70fc417c06a32f88379c20dd8f2a8da07088cec2960405160405180910390a35050565b80516001600160a01b038116811461019f57600080fd5b919050565b6000806000606084860312156101b8578283fd5b6101c184610188565b92506101cf60208501610188565b60408501519092506001600160401b03808211156101eb578283fd5b818601915086601f8301126101fe578283fd5b815181811115610210576102106102b8565b604051601f8201601f19908116603f01168101908382118183101715610238576102386102b8565b81604052828152896020848701011115610250578586fd5b61026183602083016020880161028c565b80955050505050509250925092565b6000825161028281846020870161028c565b9190910192915050565b60005b838110156102a757818101518382015260200161028f565b838111156101125750506000910152565b634e487b7160e01b600052604160045260246000fd5b6106a8806102dd6000396000f3fe60806040526004361061004e5760003560e01c806301ffc9a71461009b5780633659cfe6146100d05780633e47158c146100f05780634f1ef2861461011d5780638356ca4f1461013057610091565b366100915760405162461bcd60e51b815260206004820152600e60248201526d115512115497d491529150d5115160921b60448201526064015b60405180910390fd5b610099610150565b005b3480156100a757600080fd5b506100bb6100b63660046105a9565b610189565b60405190151581526020015b60405180910390f35b3480156100dc57600080fd5b506100996100eb3660046104f2565b61027e565b3480156100fc57600080fd5b506101056102d2565b6040516001600160a01b0390911681526020016100c7565b61009961012b36600461050c565b6102e1565b34801561013c57600080fd5b5061009961014b3660046104f2565b61035e565b6000805160206106538339815191525460003681823780813683855af491503d8082833e82801561017f578183f35b8183fd5b50505050565b60006301ffc9a760e01b6001600160e01b0319831614806101ba57506307f5828d60e41b6001600160e01b03198316145b156101c757506001919050565b6001600160e01b031980831614156101e157506000919050565b600080516020610653833981519152546040516301ffc9a760e01b81526001600160e01b0319841660048201526001600160a01b038216906301ffc9a79060240160206040518083038186803b15801561023a57600080fd5b505afa92505050801561026a575060408051601f3d908101601f1916820190925261026791810190610589565b60015b6102775750600092915050565b9392505050565b61028661039f565b6001600160a01b0316336001600160a01b0316146102b65760405162461bcd60e51b81526004016100889061060a565b6102cf81604051806020016040528060008152506103b2565b50565b60006102dc61039f565b905090565b6102e961039f565b6001600160a01b0316336001600160a01b0316146103195760405162461bcd60e51b81526004016100889061060a565b6103598383838080601f0160208091040260200160405190810160405280939291908181526020018383808284376000920191909152506103b292505050565b505050565b61036661039f565b6001600160a01b0316336001600160a01b0316146103965760405162461bcd60e51b81526004016100889061060a565b6102cf81610475565b6000805160206106338339815191525490565b6000805160206106538339815191528054908390556040516001600160a01b0380851691908316907f5570d70a002632a7b0b3c9304cc89efb62d8da9eca0dbd7752c83b737906829690600090a3815115610359576000836001600160a01b03168360405161042191906105d1565b600060405180830381855af49150503d806000811461045c576040519150601f19603f3d011682016040523d82523d6000602084013e610461565b606091505b5050905080610183573d806000803e806000fd5b600061047f61039f565b90508160008051602061063383398151915255816001600160a01b0316816001600160a01b03167fdf435d422321da6b195902d70fc417c06a32f88379c20dd8f2a8da07088cec2960405160405180910390a35050565b80356001600160a01b03811681146104ed57600080fd5b919050565b600060208284031215610503578081fd5b610277826104d6565b600080600060408486031215610520578182fd5b610529846104d6565b925060208401356001600160401b0380821115610544578384fd5b818601915086601f830112610557578384fd5b813581811115610565578485fd5b876020828501011115610576578485fd5b6020830194508093505050509250925092565b60006020828403121561059a578081fd5b81518015158114610277578182fd5b6000602082840312156105ba578081fd5b81356001600160e01b031981168114610277578182fd5b60008251815b818110156105f157602081860181015185830152016105d7565b818111156105ff5782828501525b509190910192915050565b6020808252600e908201526d1393d517d055551213d49256915160921b60408201526060019056feb53127684a568b3173ae13b9f8a6016e243e63b6e8ee1178d6a717850b5d6103360894a13ba1a3210667c828492db98dca3e2076cc3735a920a3ca505d382bbca2646970667358221220730effc08e7ae1c19f69ae08dd52de483b649ded49db9428e4ced9875431474364736f6c63430008040033b53127684a568b3173ae13b9f8a6016e243e63b6e8ee1178d6a717850b5d61038be0079c531659141344cd1fd0a4f28419497f9722a3daafe3b4186f6b6457e0a264697066735822122032c0226340af0379cd7d43429d1502fc96d02b3e0f888c97b7ed277717483dc364736f6c63430008040033",
  "linkReferences": {},
  "deployedLinkReferences": {}
}