{
  "_format": "hh-sol-artifact-1",
  "contractName": "GUniRouter",
  "sourceName": "contracts/GUniRouter.sol",
  "abi": [
    {
      "inputs": [
        {
          "internalType": "contract IUniswapV3Factory",
          "name": "_factory",
          "type": "address"
        },
        {
          "internalType": "contract IWETH",
          "name": "_weth",
          "type": "address"
        }
      ],
      "stateMutability": "nonpayable",
      "type": "constructor"
    },
    {
      "inputs": [
        {
          "internalType": "contract IGUniPool",
          "name": "pool",
          "type": "address"
        },
        {
          "internalType": "uint256",
          "name": "amount0Max",
          "type": "uint256"
        },
        {
          "internalType": "uint256",
          "name": "amount1Max",
          "type": "uint256"
        },
        {
          "internalType": "uint256",
          "name": "amount0Min",
          "type": "uint256"
        },
        {
          "internalType": "uint256",
          "name": "amount1Min",
          "type": "uint256"
        },
        {
          "internalType": "address",
          "name": "receiver",
          "type": "address"
        }
      ],
      "name": "addLiquidity",
      "outputs": [
        {
          "internalType": "uint256",
          "name": "amount0",
          "type": "uint256"
        },
        {
          "internalType": "uint256",
          "name": "amount1",
          "type": "uint256"
        },
        {
          "internalType": "uint256",
          "name": "mintAmount",
          "type": "uint256"
        }
      ],
      "stateMutability": "nonpayable",
      "type": "function"
    },
    {
      "inputs": [
        {
          "internalType": "contract IGUniPool",
          "name": "pool",
          "type": "address"
        },
        {
          "internalType": "uint256",
          "name": "amount0Max",
          "type": "uint256"
        },
        {
          "internalType": "uint256",
          "name": "amount1Max",
          "type": "uint256"
        },
        {
          "internalType": "uint256",
          "name": "amount0Min",
          "type": "uint256"
        },
        {
          "internalType": "uint256",
          "name": "amount1Min",
          "type": "uint256"
        },
        {
          "internalType": "address",
          "name": "receiver",
          "type": "address"
        }
      ],
      "name": "addLiquidityETH",
      "outputs": [
        {
          "internalType": "uint256",
          "name": "amount0",
          "type": "uint256"
        },
        {
          "internalType": "uint256",
          "name": "amount1",
          "type": "uint256"
        },
        {
          "internalType": "uint256",
          "name": "mintAmount",
          "type": "uint256"
        }
      ],
      "stateMutability": "payable",
      "type": "function"
    },
    {
      "inputs": [],
      "name": "factory",
      "outputs": [
        {
          "internalType": "contract IUniswapV3Factory",
          "name": "",
          "type": "address"
        }
      ],
      "stateMutability": "view",
      "type": "function"
    },
    {
      "inputs": [
        {
          "internalType": "address",
          "name": "token0",
          "type": "address"
        },
        {
          "internalType": "address",
          "name": "token1",
          "type": "address"
        }
      ],
      "name": "isToken0Weth",
      "outputs": [
        {
          "internalType": "bool",
          "name": "wethToken0",
          "type": "bool"
        }
      ],
      "stateMutability": "view",
      "type": "function"
    },
    {
      "inputs": [
        {
          "internalType": "contract IGUniPool",
          "name": "pool",
          "type": "address"
        },
        {
          "internalType": "uint256",
          "name": "amount0In",
          "type": "uint256"
        },
        {
          "internalType": "uint256",
          "name": "amount1In",
          "type": "uint256"
        },
        {
          "internalType": "bool",
          "name": "zeroForOne",
          "type": "bool"
        },
        {
          "internalType": "uint256",
          "name": "swapAmount",
          "type": "uint256"
        },
        {
          "internalType": "uint160",
          "name": "swapThreshold",
          "type": "uint160"
        },
        {
          "internalType": "uint256",
          "name": "amount0Min",
          "type": "uint256"
        },
        {
          "internalType": "uint256",
          "name": "amount1Min",
          "type": "uint256"
        },
        {
          "internalType": "address",
          "name": "receiver",
          "type": "address"
        }
      ],
      "name": "rebalanceAndAddLiquidity",
      "outputs": [
        {
          "internalType": "uint256",
          "name": "amount0",
          "type": "uint256"
        },
        {
          "internalType": "uint256",
          "name": "amount1",
          "type": "uint256"
        },
        {
          "internalType": "uint256",
          "name": "mintAmount",
          "type": "uint256"
        }
      ],
      "stateMutability": "nonpayable",
      "type": "function"
    },
    {
      "inputs": [
        {
          "internalType": "contract IGUniPool",
          "name": "pool",
          "type": "address"
        },
        {
          "internalType": "uint256",
          "name": "amount0In",
          "type": "uint256"
        },
        {
          "internalType": "uint256",
          "name": "amount1In",
          "type": "uint256"
        },
        {
          "internalType": "bool",
          "name": "zeroForOne",
          "type": "bool"
        },
        {
          "internalType": "uint256",
          "name": "swapAmount",
          "type": "uint256"
        },
        {
          "internalType": "uint160",
          "name": "swapThreshold",
          "type": "uint160"
        },
        {
          "internalType": "uint256",
          "name": "amount0Min",
          "type": "uint256"
        },
        {
          "internalType": "uint256",
          "name": "amount1Min",
          "type": "uint256"
        },
        {
          "internalType": "address",
          "name": "receiver",
          "type": "address"
        }
      ],
      "name": "rebalanceAndAddLiquidityETH",
      "outputs": [
        {
          "internalType": "uint256",
          "name": "amount0",
          "type": "uint256"
        },
        {
          "internalType": "uint256",
          "name": "amount1",
          "type": "uint256"
        },
        {
          "internalType": "uint256",
          "name": "mintAmount",
          "type": "uint256"
        }
      ],
      "stateMutability": "payable",
      "type": "function"
    },
    {
      "inputs": [
        {
          "internalType": "contract IGUniPool",
          "name": "pool",
          "type": "address"
        },
        {
          "internalType": "uint256",
          "name": "burnAmount",
          "type": "uint256"
        },
        {
          "internalType": "uint256",
          "name": "amount0Min",
          "type": "uint256"
        },
        {
          "internalType": "uint256",
          "name": "amount1Min",
          "type": "uint256"
        },
        {
          "internalType": "address",
          "name": "receiver",
          "type": "address"
        }
      ],
      "name": "removeLiquidity",
      "outputs": [
        {
          "internalType": "uint256",
          "name": "amount0",
          "type": "uint256"
        },
        {
          "internalType": "uint256",
          "name": "amount1",
          "type": "uint256"
        },
        {
          "internalType": "uint128",
          "name": "liquidityBurned",
          "type": "uint128"
        }
      ],
      "stateMutability": "nonpayable",
      "type": "function"
    },
    {
      "inputs": [
        {
          "internalType": "contract IGUniPool",
          "name": "pool",
          "type": "address"
        },
        {
          "internalType": "uint256",
          "name": "burnAmount",
          "type": "uint256"
        },
        {
          "internalType": "uint256",
          "name": "amount0Min",
          "type": "uint256"
        },
        {
          "internalType": "uint256",
          "name": "amount1Min",
          "type": "uint256"
        },
        {
          "internalType": "address payable",
          "name": "receiver",
          "type": "address"
        }
      ],
      "name": "removeLiquidityETH",
      "outputs": [
        {
          "internalType": "uint256",
          "name": "amount0",
          "type": "uint256"
        },
        {
          "internalType": "uint256",
          "name": "amount1",
          "type": "uint256"
        },
        {
          "internalType": "uint128",
          "name": "liquidityBurned",
          "type": "uint128"
        }
      ],
      "stateMutability": "nonpayable",
      "type": "function"
    },
    {
      "inputs": [
        {
          "internalType": "int256",
          "name": "amount0Delta",
          "type": "int256"
        },
        {
          "internalType": "int256",
          "name": "amount1Delta",
          "type": "int256"
        },
        {
          "internalType": "bytes",
          "name": "",
          "type": "bytes"
        }
      ],
      "name": "uniswapV3SwapCallback",
      "outputs": [],
      "stateMutability": "nonpayable",
      "type": "function"
    },
    {
      "inputs": [],
      "name": "weth",
      "outputs": [
        {
          "internalType": "contract IWETH",
          "name": "",
          "type": "address"
        }
      ],
      "stateMutability": "view",
      "type": "function"
    },
    {
      "stateMutability": "payable",
      "type": "receive"
    }
  ],
  "bytecode": "0x60c06040523480156200001157600080fd5b506040516200293e3803806200293e833981016040819052620000349162000054565b6001600160601b0319606091821b811660805291901b1660a052620000ab565b6000806040838503121562000067578182fd5b8251620000748162000092565b6020840151909250620000878162000092565b809150509250929050565b6001600160a01b0381168114620000a857600080fd5b50565b60805160601c60a05160601c61281a62000124600039600081816101b80152610b580152600081816101130152818161024601528181610288015281816106350152818161075a0152818161089a0152818161093d01528181610fc6015281816110aa015281816118e80152611a0f015261281a6000f3fe6080604052600436106100855760003560e01c8063207e88f71461009157806333f9ab55146100c65780633fc8cef31461010157806359f842b2146101425780636587e4ce14610186578063c45a0155146101a6578063dcdf7202146101da578063fa461e33146101ed578063fb9f47891461020f578063fbec41a81461022f57600080fd5b3661008c57005b600080fd5b34801561009d57600080fd5b506100b16100ac36600461233f565b610242565b60405190151581526020015b60405180910390f35b3480156100d257600080fd5b506100e66100e1366004612393565b610319565b604080519384526020840192909252908201526060016100bd565b34801561010d57600080fd5b506101357f000000000000000000000000000000000000000000000000000000000000000081565b6040516100bd9190612638565b34801561014e57600080fd5b5061016261015d366004612421565b610387565b6040805193845260208401929092526001600160801b0316908201526060016100bd565b34801561019257600080fd5b506101626101a1366004612421565b61045e565b3480156101b257600080fd5b506101357f000000000000000000000000000000000000000000000000000000000000000081565b6100e66101e8366004612393565b610822565b3480156101f957600080fd5b5061020d6102083660046124f6565b6109c1565b005b34801561021b57600080fd5b506100e661022a366004612476565b610c74565b6100e661023d366004612476565b610e2b565b60007f00000000000000000000000000000000000000000000000000000000000000006001600160a01b0316836001600160a01b0316141561028657506001610313565b7f00000000000000000000000000000000000000000000000000000000000000006001600160a01b0316826001600160a01b031614156102c857506000610313565b60405162461bcd60e51b815260206004820152601b60248201527a0dedcca40e0deded840e8ded6cadc40daeae6e840c4ca40ae8aa89602b1b60448201526064015b60405180910390fd5b92915050565b6000806000806000806103308f8f8f8f8f8f611201565b9250925092508883101580156103465750878210155b6103625760405162461bcd60e51b815260040161030a906126c8565b61036f8f8484848b61149a565b95509550955050505099509950999650505050505050565b600080806103a06001600160a01b03891633308a61165b565b604051633f34d4cf60e21b81526001600160a01b0389169063fcd3533c906103ce908a908890600401612736565b606060405180830381600087803b1580156103e857600080fd5b505af11580156103fc573d6000803e3d6000fd5b505050506040513d601f19601f8201168201806040525081019061042091906125ab565b919450925090508583108015906104375750848210155b6104535760405162461bcd60e51b815260040161030a90612698565b955095509592505050565b600080600080610549896001600160a01b0316630dfe16816040518163ffffffff1660e01b815260040160206040518083038186803b1580156104a057600080fd5b505afa1580156104b4573d6000803e3d6000fd5b505050506040513d601f19601f820116820180604052508101906104d89190612323565b8a6001600160a01b031663d21220a76040518163ffffffff1660e01b815260040160206040518083038186803b15801561051157600080fd5b505afa158015610525573d6000803e3d6000fd5b505050506040513d601f19601f820116820180604052508101906100ac9190612323565b90506105606001600160a01b038a1633308b61165b565b604051633f34d4cf60e21b81526001600160a01b038a169063fcd3533c9061058e908b903090600401612736565b606060405180830381600087803b1580156105a857600080fd5b505af11580156105bc573d6000803e3d6000fd5b505050506040513d601f19601f820116820180604052508101906105e091906125ab565b919550935091508684108015906105f75750858310155b6106135760405162461bcd60e51b815260040161030a90612698565b801561073e5783156106ad57604051632e1a7d4d60e01b8152600481018590527f00000000000000000000000000000000000000000000000000000000000000006001600160a01b031690632e1a7d4d90602401600060405180830381600087803b15801561068157600080fd5b505af1158015610695573d6000803e3d6000fd5b506106ad925050506001600160a01b038616856116cc565b82156107395761073985848b6001600160a01b031663d21220a76040518163ffffffff1660e01b815260040160206040518083038186803b1580156106f157600080fd5b505afa158015610705573d6000803e3d6000fd5b505050506040513d601f19601f820116820180604052508101906107299190612323565b6001600160a01b031691906117e7565b610816565b82156107d257604051632e1a7d4d60e01b8152600481018490527f00000000000000000000000000000000000000000000000000000000000000006001600160a01b031690632e1a7d4d90602401600060405180830381600087803b1580156107a657600080fd5b505af11580156107ba573d6000803e3d6000fd5b506107d2925050506001600160a01b038616846116cc565b83156108165761081685858b6001600160a01b0316630dfe16816040518163ffffffff1660e01b815260040160206040518083038186803b1580156106f157600080fd5b50955095509592505050565b6000806000806000806108398f8f8f8f8f8f611806565b92509250925088831015801561084f5750878210155b61086b5760405162461bcd60e51b815260040161030a906126c8565b6108788f8484848b61149a565b6040516370a0823160e01b815292985090965094506000906001600160a01b037f000000000000000000000000000000000000000000000000000000000000000016906370a08231906108cf903090600401612638565b60206040518083038186803b1580156108e757600080fd5b505afa1580156108fb573d6000803e3d6000fd5b505050506040513d601f19601f8201168201806040525081019061091f9190612593565b905080156109ae57604051632e1a7d4d60e01b8152600481018290527f00000000000000000000000000000000000000000000000000000000000000006001600160a01b031690632e1a7d4d90602401600060405180830381600087803b15801561098957600080fd5b505af115801561099d573d6000803e3d6000fd5b506109ae92503391508390506116cc565b5050505099509950999650505050505050565b60003390506000816001600160a01b0316630dfe16816040518163ffffffff1660e01b815260040160206040518083038186803b158015610a0157600080fd5b505afa158015610a15573d6000803e3d6000fd5b505050506040513d601f19601f82011682018060405250810190610a399190612323565b90506000826001600160a01b031663d21220a76040518163ffffffff1660e01b815260040160206040518083038186803b158015610a7657600080fd5b505afa158015610a8a573d6000803e3d6000fd5b505050506040513d601f19601f82011682018060405250810190610aae9190612323565b90506000836001600160a01b031663ddca3f436040518163ffffffff1660e01b815260040160206040518083038186803b158015610aeb57600080fd5b505afa158015610aff573d6000803e3d6000fd5b505050506040513d601f19601f82011682018060405250810190610b239190612570565b604051630b4c774160e11b81526001600160a01b038581166004830152848116602483015262ffffff831660448301529192507f000000000000000000000000000000000000000000000000000000000000000090911690631698ee829060640160206040518083038186803b158015610b9c57600080fd5b505afa158015610bb0573d6000803e3d6000fd5b505050506040513d601f19601f82011682018060405250810190610bd49190612323565b6001600160a01b0316336001600160a01b031614610c2b5760405162461bcd60e51b81526020600482015260146024820152731a5b9d985b1a59081d5b9a5cddd85c081c1bdbdb60621b604482015260640161030a565b6000881315610c4d57610c486001600160a01b038416338a6117e7565b610c6a565b6000871315610c6a57610c6a6001600160a01b03831633896117e7565b5050505050505050565b6000806000806000808b6001600160a01b0316639894f21a8c8c6040518363ffffffff1660e01b8152600401610cb4929190918252602082015260400190565b60606040518083038186803b158015610ccc57600080fd5b505afa158015610ce0573d6000803e3d6000fd5b505050506040513d601f19601f82011682018060405250810190610d0491906125ef565b925092509250888310158015610d1a5750878210155b610d365760405162461bcd60e51b815260040161030a906126c8565b8215610dc457610dc43330858f6001600160a01b0316630dfe16816040518163ffffffff1660e01b815260040160206040518083038186803b158015610d7b57600080fd5b505afa158015610d8f573d6000803e3d6000fd5b505050506040513d601f19601f82011682018060405250810190610db39190612323565b6001600160a01b031692919061165b565b8115610e0957610e093330848f6001600160a01b031663d21220a76040518163ffffffff1660e01b815260040160206040518083038186803b158015610d7b57600080fd5b610e168c8484848b61149a565b95509550955050505096509650969350505050565b6000806000806000808b6001600160a01b0316639894f21a8c8c6040518363ffffffff1660e01b8152600401610e6b929190918252602082015260400190565b60606040518083038186803b158015610e8357600080fd5b505afa158015610e97573d6000803e3d6000fd5b505050506040513d601f19601f82011682018060405250810190610ebb91906125ef565b925092509250888310158015610ed15750878210155b610eed5760405162461bcd60e51b815260040161030a906126c8565b610f9a8c6001600160a01b0316630dfe16816040518163ffffffff1660e01b815260040160206040518083038186803b158015610f2957600080fd5b505afa158015610f3d573d6000803e3d6000fd5b505050506040513d601f19601f82011682018060405250810190610f619190612323565b8d6001600160a01b031663d21220a76040518163ffffffff1660e01b815260040160206040518083038186803b15801561051157600080fd5b1561108357348b14610fbe5760405162461bcd60e51b815260040161030a906126f3565b8215611039577f00000000000000000000000000000000000000000000000000000000000000006001600160a01b031663d0e30db0846040518263ffffffff1660e01b81526004016000604051808303818588803b15801561101f57600080fd5b505af1158015611033573d6000803e3d6000fd5b50505050505b811561107e5761107e3330848f6001600160a01b031663d21220a76040518163ffffffff1660e01b815260040160206040518083038186803b158015610d7b57600080fd5b611162565b348a146110a25760405162461bcd60e51b815260040161030a906126f3565b811561111d577f00000000000000000000000000000000000000000000000000000000000000006001600160a01b031663d0e30db0836040518263ffffffff1660e01b81526004016000604051808303818588803b15801561110357600080fd5b505af1158015611117573d6000803e3d6000fd5b50505050505b8215611162576111623330858f6001600160a01b0316630dfe16816040518163ffffffff1660e01b815260040160206040518083038186803b158015610d7b57600080fd5b61116f8c8484848b61149a565b8096508197508298505050506111b78c6001600160a01b0316630dfe16816040518163ffffffff1660e01b815260040160206040518083038186803b158015610f2957600080fd5b156111dd57828b11156111d8576111d86111d1848d612765565b33906116cc565b6111f2565b818a11156111f2576111f26111d1838c612765565b50505096509650969350505050565b60008080871561124a5761124a33308a8c6001600160a01b0316630dfe16816040518163ffffffff1660e01b815260040160206040518083038186803b158015610d7b57600080fd5b861561128f5761128f3330898c6001600160a01b031663d21220a76040518163ffffffff1660e01b815260040160206040518083038186803b158015610d7b57600080fd5b61129b89878787611c8f565b6000896001600160a01b0316630dfe16816040518163ffffffff1660e01b815260040160206040518083038186803b1580156112d657600080fd5b505afa1580156112ea573d6000803e3d6000fd5b505050506040513d601f19601f8201168201806040525081019061130e9190612323565b6001600160a01b03166370a08231306040518263ffffffff1660e01b81526004016113399190612638565b60206040518083038186803b15801561135157600080fd5b505afa158015611365573d6000803e3d6000fd5b505050506040513d601f19601f820116820180604052508101906113899190612593565b905060008a6001600160a01b031663d21220a76040518163ffffffff1660e01b815260040160206040518083038186803b1580156113c657600080fd5b505afa1580156113da573d6000803e3d6000fd5b505050506040513d601f19601f820116820180604052508101906113fe9190612323565b6001600160a01b03166370a08231306040518263ffffffff1660e01b81526004016114299190612638565b60206040518083038186803b15801561144157600080fd5b505afa158015611455573d6000803e3d6000fd5b505050506040513d601f19601f820116820180604052508101906114799190612593565b90506114868b8383611da7565b919d909c50909a5098505050505050505050565b60008080861561152a5761152a88888a6001600160a01b0316630dfe16816040518163ffffffff1660e01b815260040160206040518083038186803b1580156114e257600080fd5b505afa1580156114f6573d6000803e3d6000fd5b505050506040513d601f19601f8201168201806040525081019061151a9190612323565b6001600160a01b03169190611edb565b851561156e5761156e88878a6001600160a01b031663d21220a76040518163ffffffff1660e01b815260040160206040518083038186803b1580156114e257600080fd5b6040516394bf804d60e01b81526001600160a01b038916906394bf804d9061159c9088908890600401612736565b606060405180830381600087803b1580156115b657600080fd5b505af11580156115ca573d6000803e3d6000fd5b505050506040513d601f19601f820116820180604052508101906115ee91906125ab565b509093509150868314801561160257508582145b61164d5760405162461bcd60e51b815260206004820152601c60248201527b1d5b995e1c1958dd195908185b5bdd5b9d1cc819195c1bdcda5d195960221b604482015260640161030a565b849050955095509592505050565b6040516001600160a01b03808516602483015283166044820152606481018290526116c69085906323b872dd60e01b906084015b60408051601f198184030181529190526020810180516001600160e01b03166001600160e01b031990931692909217909152611f8a565b50505050565b8047101561171c5760405162461bcd60e51b815260206004820152601d60248201527f416464726573733a20696e73756666696369656e742062616c616e6365000000604482015260640161030a565b6000826001600160a01b03168260405160006040518083038185875af1925050503d8060008114611769576040519150601f19603f3d011682016040523d82523d6000602084013e61176e565b606091505b50509050806117e25760405162461bcd60e51b815260206004820152603a60248201527f416464726573733a20756e61626c6520746f2073656e642076616c75652c20726044820152791958da5c1a595b9d081b585e481a185d99481c995d995c9d195960321b606482015260840161030a565b505050565b6117e28363a9059cbb60e01b848460405160240161168f92919061264c565b6000806000806118b98a6001600160a01b0316630dfe16816040518163ffffffff1660e01b815260040160206040518083038186803b15801561184857600080fd5b505afa15801561185c573d6000803e3d6000fd5b505050506040513d601f19601f820116820180604052508101906118809190612323565b8b6001600160a01b031663d21220a76040518163ffffffff1660e01b815260040160206040518083038186803b15801561051157600080fd5b9050881561199e57801561195f573489146118e65760405162461bcd60e51b815260040161030a906126f3565b7f00000000000000000000000000000000000000000000000000000000000000006001600160a01b031663d0e30db08a6040518263ffffffff1660e01b81526004016000604051808303818588803b15801561194157600080fd5b505af1158015611955573d6000803e3d6000fd5b505050505061199e565b61199e33308b8d6001600160a01b0316630dfe16816040518163ffffffff1660e01b815260040160206040518083038186803b158015610d7b57600080fd5b8715611a825780156119ee576119e933308a8d6001600160a01b031663d21220a76040518163ffffffff1660e01b815260040160206040518083038186803b158015610d7b57600080fd5b611a82565b348814611a0d5760405162461bcd60e51b815260040161030a906126f3565b7f00000000000000000000000000000000000000000000000000000000000000006001600160a01b031663d0e30db0896040518263ffffffff1660e01b81526004016000604051808303818588803b158015611a6857600080fd5b505af1158015611a7c573d6000803e3d6000fd5b50505050505b611a8e8a888888611c8f565b60008a6001600160a01b0316630dfe16816040518163ffffffff1660e01b815260040160206040518083038186803b158015611ac957600080fd5b505afa158015611add573d6000803e3d6000fd5b505050506040513d601f19601f82011682018060405250810190611b019190612323565b6001600160a01b03166370a08231306040518263ffffffff1660e01b8152600401611b2c9190612638565b60206040518083038186803b158015611b4457600080fd5b505afa158015611b58573d6000803e3d6000fd5b505050506040513d601f19601f82011682018060405250810190611b7c9190612593565b905060008b6001600160a01b031663d21220a76040518163ffffffff1660e01b815260040160206040518083038186803b158015611bb957600080fd5b505afa158015611bcd573d6000803e3d6000fd5b505050506040513d601f19601f82011682018060405250810190611bf19190612323565b6001600160a01b03166370a08231306040518263ffffffff1660e01b8152600401611c1c9190612638565b60206040518083038186803b158015611c3457600080fd5b505afa158015611c48573d6000803e3d6000fd5b505050506040513d601f19601f82011682018060405250810190611c6c9190612593565b9050611c7a8c83838661205c565b919e909d50909b509950505050505050505050565b836001600160a01b03166316f0115b6040518163ffffffff1660e01b815260040160206040518083038186803b158015611cc857600080fd5b505afa158015611cdc573d6000803e3d6000fd5b505050506040513d601f19601f82011682018060405250810190611d009190612323565b604051630251596160e31b81523060048201528415156024820152604481018490526001600160a01b03838116606483015260a06084830152600060a4830152919091169063128acb089060c4016040805180830381600087803b158015611d6757600080fd5b505af1158015611d7b573d6000803e3d6000fd5b505050506040513d601f19601f82011682018060405250810190611d9f91906124d3565b505050505050565b604051634c4a790d60e11b81526004810183905260248101829052600090819081906001600160a01b03871690639894f21a9060440160606040518083038186803b158015611df557600080fd5b505afa158015611e09573d6000803e3d6000fd5b505050506040513d601f19601f82011682018060405250810190611e2d91906125ef565b9194509250905082851115611e8357611e8333611e4a8588612765565b886001600160a01b0316630dfe16816040518163ffffffff1660e01b815260040160206040518083038186803b1580156106f157600080fd5b81841115611ed257611ed233611e998487612765565b886001600160a01b031663d21220a76040518163ffffffff1660e01b815260040160206040518083038186803b1580156106f157600080fd5b93509350939050565b604051636eb1769f60e11b81523060048201526001600160a01b038381166024830152600091839186169063dd62ed3e9060440160206040518083038186803b158015611f2757600080fd5b505afa158015611f3b573d6000803e3d6000fd5b505050506040513d601f19601f82011682018060405250810190611f5f9190612593565b611f69919061274d565b90506116c68463095ea7b360e01b858460405160240161168f92919061264c565b6000611fdf826040518060400160405280602081526020017f5361666545524332303a206c6f772d6c6576656c2063616c6c206661696c6564815250856001600160a01b03166121a99092919063ffffffff16565b8051909150156117e25780806020019051810190611ffd9190612377565b6117e25760405162461bcd60e51b815260206004820152602a60248201527f5361666545524332303a204552433230206f7065726174696f6e20646964206e6044820152691bdd081cdd58d8d9595960b21b606482015260840161030a565b604051634c4a790d60e11b81526004810184905260248101839052600090819081906001600160a01b03881690639894f21a9060440160606040518083038186803b1580156120aa57600080fd5b505afa1580156120be573d6000803e3d6000fd5b505050506040513d601f19601f820116820180604052508101906120e291906125ef565b9194509250905082861180156120f6575083155b1561214757612142336121098589612765565b896001600160a01b0316630dfe16816040518163ffffffff1660e01b815260040160206040518083038186803b1580156106f157600080fd5b61219f565b81851180156121535750835b1561219f5761219f336121668488612765565b896001600160a01b031663d21220a76040518163ffffffff1660e01b815260040160206040518083038186803b1580156106f157600080fd5b9450945094915050565b60606121b884846000856121c2565b90505b9392505050565b6060824710156122235760405162461bcd60e51b815260206004820152602660248201527f416464726573733a20696e73756666696369656e742062616c616e636520666f6044820152651c8818d85b1b60d21b606482015260840161030a565b843b6122715760405162461bcd60e51b815260206004820152601d60248201527f416464726573733a2063616c6c20746f206e6f6e2d636f6e7472616374000000604482015260640161030a565b600080866001600160a01b0316858760405161228d919061261c565b60006040518083038185875af1925050503d80600081146122ca576040519150601f19603f3d011682016040523d82523d6000602084013e6122cf565b606091505b50915091506122df8282866122ea565b979650505050505050565b606083156122f95750816121bb565b8251156123095782518084602001fd5b8160405162461bcd60e51b815260040161030a9190612665565b600060208284031215612334578081fd5b81516121bb816127be565b60008060408385031215612351578081fd5b823561235c816127be565b9150602083013561236c816127be565b809150509250929050565b600060208284031215612388578081fd5b81516121bb816127d6565b60008060008060008060008060006101208a8c0312156123b1578485fd5b89356123bc816127be565b985060208a0135975060408a0135965060608a01356123da816127d6565b955060808a0135945060a08a01356123f1816127be565b935060c08a0135925060e08a013591506101008a0135612410816127be565b809150509295985092959850929598565b600080600080600060a08688031215612438578081fd5b8535612443816127be565b94506020860135935060408601359250606086013591506080860135612468816127be565b809150509295509295909350565b60008060008060008060c0878903121561248e578384fd5b8635612499816127be565b95506020870135945060408701359350606087013592506080870135915060a08701356124c5816127be565b809150509295509295509295565b600080604083850312156124e5578182fd5b505080516020909101519092909150565b6000806000806060858703121561250b578182fd5b843593506020850135925060408501356001600160401b038082111561252f578384fd5b818701915087601f830112612542578384fd5b813581811115612550578485fd5b886020828501011115612561578485fd5b95989497505060200194505050565b600060208284031215612581578081fd5b815162ffffff811681146121bb578182fd5b6000602082840312156125a4578081fd5b5051919050565b6000806000606084860312156125bf578081fd5b83516020850151604086015191945092506001600160801b03811681146125e4578182fd5b809150509250925092565b600080600060608486031215612603578081fd5b8351925060208401519150604084015190509250925092565b6000825161262e81846020870161277c565b9190910192915050565b6001600160a01b0391909116815260200190565b6001600160a01b03929092168252602082015260400190565b602081526000825180602084015261268481604085016020870161277c565b601f01601f19169190910160400192915050565b60208082526016908201527572656365697665642062656c6f77206d696e696d756d60501b604082015260600190565b60208082526011908201527062656c6f77206d696e20616d6f756e747360781b604082015260600190565b60208082526023908201527f6d69736d61746368696e6720616d6f756e74206f662045544820666f7277617260408201526219195960ea1b606082015260800190565b9182526001600160a01b0316602082015260400190565b60008219821115612760576127606127a8565b500190565b600082821015612777576127776127a8565b500390565b60005b8381101561279757818101518382015260200161277f565b838111156116c65750506000910152565b634e487b7160e01b600052601160045260246000fd5b6001600160a01b03811681146127d357600080fd5b50565b80151581146127d357600080fdfea2646970667358221220987d503d23c5aa32673995d22b43a1c3936e75b7b4f6aee1b22686840194c48064736f6c63430008040033",
  "linkReferences": {},
  "deployedLinkReferences": {}
}